{
  "_format": "hh-sol-artifact-1",
  "contractName": "Equip",
  "sourceName": "src/backend/contracts/Equip.sol",
  "abi": [
    {
      "inputs": [
        {
          "internalType": "address",
          "name": "_nftSneakerXAddress",
          "type": "address"
        },
        {
          "internalType": "address",
          "name": "_nftAddress1",
          "type": "address"
        },
        {
          "internalType": "address",
          "name": "_nftAddress2",
          "type": "address"
        }
      ],
      "stateMutability": "nonpayable",
      "type": "constructor"
    },
    {
      "anonymous": false,
      "inputs": [
        {
          "indexed": false,
          "internalType": "address",
          "name": "user",
          "type": "address"
        }
      ],
      "name": "EquipSuccessful",
      "type": "event"
    },
    {
      "anonymous": false,
      "inputs": [
        {
          "indexed": true,
          "internalType": "address",
          "name": "previousOwner",
          "type": "address"
        },
        {
          "indexed": true,
          "internalType": "address",
          "name": "newOwner",
          "type": "address"
        }
      ],
      "name": "OwnershipTransferred",
      "type": "event"
    },
    {
      "inputs": [
        {
          "internalType": "uint256",
          "name": "_tokenId1",
          "type": "uint256"
        },
        {
          "internalType": "uint256",
          "name": "_tokenId2",
          "type": "uint256"
        }
      ],
      "name": "equip",
      "outputs": [],
      "stateMutability": "nonpayable",
      "type": "function"
    },
    {
      "inputs": [],
      "name": "owner",
      "outputs": [
        {
          "internalType": "address",
          "name": "",
          "type": "address"
        }
      ],
      "stateMutability": "view",
      "type": "function"
    },
    {
      "inputs": [],
      "name": "renounceOwnership",
      "outputs": [],
      "stateMutability": "nonpayable",
      "type": "function"
    },
    {
      "inputs": [
        {
          "internalType": "address",
          "name": "newOwner",
          "type": "address"
        }
      ],
      "name": "transferOwnership",
      "outputs": [],
      "stateMutability": "nonpayable",
      "type": "function"
    }
  ],
  "bytecode": "0x60806040523480156200001157600080fd5b5060405162000dc938038062000dc9833981810160405281019062000037919062000259565b620000576200004b6200012360201b60201c565b6200012b60201b60201c565b82600160006101000a81548173ffffffffffffffffffffffffffffffffffffffff021916908373ffffffffffffffffffffffffffffffffffffffff16021790555081600260006101000a81548173ffffffffffffffffffffffffffffffffffffffff021916908373ffffffffffffffffffffffffffffffffffffffff16021790555080600360006101000a81548173ffffffffffffffffffffffffffffffffffffffff021916908373ffffffffffffffffffffffffffffffffffffffff160217905550505050620002b5565b600033905090565b60008060009054906101000a900473ffffffffffffffffffffffffffffffffffffffff169050816000806101000a81548173ffffffffffffffffffffffffffffffffffffffff021916908373ffffffffffffffffffffffffffffffffffffffff1602179055508173ffffffffffffffffffffffffffffffffffffffff168173ffffffffffffffffffffffffffffffffffffffff167f8be0079c531659141344cd1fd0a4f28419497f9722a3daafe3b4186f6b6457e060405160405180910390a35050565b600080fd5b600073ffffffffffffffffffffffffffffffffffffffff82169050919050565b60006200022182620001f4565b9050919050565b620002338162000214565b81146200023f57600080fd5b50565b600081519050620002538162000228565b92915050565b600080600060608486031215620002755762000274620001ef565b5b6000620002858682870162000242565b9350506020620002988682870162000242565b9250506040620002ab8682870162000242565b9150509250925092565b610b0480620002c56000396000f3fe608060405234801561001057600080fd5b506004361061004c5760003560e01c80632825753214610051578063715018a61461006d5780638da5cb5b14610077578063f2fde38b14610095575b600080fd5b61006b60048036038101906100669190610787565b6100b1565b005b610075610542565b005b61007f610556565b60405161008c9190610808565b60405180910390f35b6100af60048036038101906100aa919061084f565b61057f565b005b3373ffffffffffffffffffffffffffffffffffffffff16600260009054906101000a900473ffffffffffffffffffffffffffffffffffffffff1673ffffffffffffffffffffffffffffffffffffffff16636352211e846040518263ffffffff1660e01b8152600401610123919061088b565b602060405180830381865afa158015610140573d6000803e3d6000fd5b505050506040513d601f19601f8201168201806040525081019061016491906108bb565b73ffffffffffffffffffffffffffffffffffffffff16146101ba576040517f08c379a00000000000000000000000000000000000000000000000000000000081526004016101b190610945565b60405180910390fd5b3373ffffffffffffffffffffffffffffffffffffffff16600360009054906101000a900473ffffffffffffffffffffffffffffffffffffffff1673ffffffffffffffffffffffffffffffffffffffff16636352211e836040518263ffffffff1660e01b815260040161022c919061088b565b602060405180830381865afa158015610249573d6000803e3d6000fd5b505050506040513d601f19601f8201168201806040525081019061026d91906108bb565b73ffffffffffffffffffffffffffffffffffffffff16146102c3576040517f08c379a00000000000000000000000000000000000000000000000000000000081526004016102ba90610945565b60405180910390fd5b600260009054906101000a900473ffffffffffffffffffffffffffffffffffffffff1673ffffffffffffffffffffffffffffffffffffffff166304b5085e836040518263ffffffff1660e01b815260040161031e919061088b565b600060405180830381600087803b15801561033857600080fd5b505af115801561034c573d6000803e3d6000fd5b50505050600360009054906101000a900473ffffffffffffffffffffffffffffffffffffffff1673ffffffffffffffffffffffffffffffffffffffff166304b5085e826040518263ffffffff1660e01b81526004016103ab919061088b565b600060405180830381600087803b1580156103c557600080fd5b505af11580156103d9573d6000803e3d6000fd5b50505050600160009054906101000a900473ffffffffffffffffffffffffffffffffffffffff1673ffffffffffffffffffffffffffffffffffffffff1663b8829a4c33600360009054906101000a900473ffffffffffffffffffffffffffffffffffffffff1673ffffffffffffffffffffffffffffffffffffffff1663f307101a856040518263ffffffff1660e01b8152600401610477919061088b565b602060405180830381865afa158015610494573d6000803e3d6000fd5b505050506040513d601f19601f820116820180604052508101906104b8919061097a565b6040518363ffffffff1660e01b81526004016104d59291906109a7565b600060405180830381600087803b1580156104ef57600080fd5b505af1158015610503573d6000803e3d6000fd5b505050507f4b5f06133b0ea86e988bbb24baae4165a6d7cb159b34eed8b0dd5d51875ff428336040516105369190610808565b60405180910390a15050565b61054a610602565b6105546000610680565b565b60008060009054906101000a900473ffffffffffffffffffffffffffffffffffffffff16905090565b610587610602565b600073ffffffffffffffffffffffffffffffffffffffff168173ffffffffffffffffffffffffffffffffffffffff16036105f6576040517f08c379a00000000000000000000000000000000000000000000000000000000081526004016105ed90610a42565b60405180910390fd5b6105ff81610680565b50565b61060a610744565b73ffffffffffffffffffffffffffffffffffffffff16610628610556565b73ffffffffffffffffffffffffffffffffffffffff161461067e576040517f08c379a000000000000000000000000000000000000000000000000000000000815260040161067590610aae565b60405180910390fd5b565b60008060009054906101000a900473ffffffffffffffffffffffffffffffffffffffff169050816000806101000a81548173ffffffffffffffffffffffffffffffffffffffff021916908373ffffffffffffffffffffffffffffffffffffffff1602179055508173ffffffffffffffffffffffffffffffffffffffff168173ffffffffffffffffffffffffffffffffffffffff167f8be0079c531659141344cd1fd0a4f28419497f9722a3daafe3b4186f6b6457e060405160405180910390a35050565b600033905090565b600080fd5b6000819050919050565b61076481610751565b811461076f57600080fd5b50565b6000813590506107818161075b565b92915050565b6000806040838503121561079e5761079d61074c565b5b60006107ac85828601610772565b92505060206107bd85828601610772565b9150509250929050565b600073ffffffffffffffffffffffffffffffffffffffff82169050919050565b60006107f2826107c7565b9050919050565b610802816107e7565b82525050565b600060208201905061081d60008301846107f9565b92915050565b61082c816107e7565b811461083757600080fd5b50565b60008135905061084981610823565b92915050565b6000602082840312156108655761086461074c565b5b60006108738482850161083a565b91505092915050565b61088581610751565b82525050565b60006020820190506108a0600083018461087c565b92915050565b6000815190506108b581610823565b92915050565b6000602082840312156108d1576108d061074c565b5b60006108df848285016108a6565b91505092915050565b600082825260208201905092915050565b7f43616c6c657220646f6573206e6f74206f776e20746865204e46540000000000600082015250565b600061092f601b836108e8565b915061093a826108f9565b602082019050919050565b6000602082019050818103600083015261095e81610922565b9050919050565b6000815190506109748161075b565b92915050565b6000602082840312156109905761098f61074c565b5b600061099e84828501610965565b91505092915050565b60006040820190506109bc60008301856107f9565b6109c9602083018461087c565b9392505050565b7f4f776e61626c653a206e6577206f776e657220697320746865207a65726f206160008201527f6464726573730000000000000000000000000000000000000000000000000000602082015250565b6000610a2c6026836108e8565b9150610a37826109d0565b604082019050919050565b60006020820190508181036000830152610a5b81610a1f565b9050919050565b7f4f776e61626c653a2063616c6c6572206973206e6f7420746865206f776e6572600082015250565b6000610a986020836108e8565b9150610aa382610a62565b602082019050919050565b60006020820190508181036000830152610ac781610a8b565b905091905056fea2646970667358221220837fc3823ffc32172a991664195b9387242c48040d8ab4c7fcad057183575ade64736f6c634300080d0033",
  "linkReferences": {},
  "deployedLinkReferences": {}
}