{
  "_format": "hh-sol-artifact-1",
  "contractName": "NFT",
  "sourceName": "src/backend/contracts/NFT.sol",
  "abi": [
    {
      "inputs": [],
      "stateMutability": "nonpayable",
      "type": "constructor"
    },
    {
      "inputs": [],
      "name": "ApprovalCallerNotOwnerNorApproved",
      "type": "error"
    },
    {
      "inputs": [],
      "name": "ApprovalQueryForNonexistentToken",
      "type": "error"
    },
    {
      "inputs": [],
      "name": "ApproveToCaller",
      "type": "error"
    },
    {
      "inputs": [],
      "name": "BalanceQueryForZeroAddress",
      "type": "error"
    },
    {
      "inputs": [],
      "name": "MintERC2309QuantityExceedsLimit",
      "type": "error"
    },
    {
      "inputs": [],
      "name": "MintToZeroAddress",
      "type": "error"
    },
    {
      "inputs": [],
      "name": "MintZeroQuantity",
      "type": "error"
    },
    {
      "inputs": [
        {
          "internalType": "address",
          "name": "operator",
          "type": "address"
        }
      ],
      "name": "OperatorNotAllowed",
      "type": "error"
    },
    {
      "inputs": [],
      "name": "OwnerQueryForNonexistentToken",
      "type": "error"
    },
    {
      "inputs": [],
      "name": "OwnershipNotInitializedForExtraData",
      "type": "error"
    },
    {
      "inputs": [],
      "name": "TransferCallerNotOwnerNorApproved",
      "type": "error"
    },
    {
      "inputs": [],
      "name": "TransferFromIncorrectOwner",
      "type": "error"
    },
    {
      "inputs": [],
      "name": "TransferToNonERC721ReceiverImplementer",
      "type": "error"
    },
    {
      "inputs": [],
      "name": "TransferToZeroAddress",
      "type": "error"
    },
    {
      "inputs": [],
      "name": "URIQueryForNonexistentToken",
      "type": "error"
    },
    {
      "anonymous": false,
      "inputs": [
        {
          "indexed": true,
          "internalType": "address",
          "name": "owner",
          "type": "address"
        },
        {
          "indexed": true,
          "internalType": "address",
          "name": "approved",
          "type": "address"
        },
        {
          "indexed": true,
          "internalType": "uint256",
          "name": "tokenId",
          "type": "uint256"
        }
      ],
      "name": "Approval",
      "type": "event"
    },
    {
      "anonymous": false,
      "inputs": [
        {
          "indexed": true,
          "internalType": "address",
          "name": "owner",
          "type": "address"
        },
        {
          "indexed": true,
          "internalType": "address",
          "name": "operator",
          "type": "address"
        },
        {
          "indexed": false,
          "internalType": "bool",
          "name": "approved",
          "type": "bool"
        }
      ],
      "name": "ApprovalForAll",
      "type": "event"
    },
    {
      "anonymous": false,
      "inputs": [
        {
          "indexed": true,
          "internalType": "uint256",
          "name": "fromTokenId",
          "type": "uint256"
        },
        {
          "indexed": false,
          "internalType": "uint256",
          "name": "toTokenId",
          "type": "uint256"
        },
        {
          "indexed": true,
          "internalType": "address",
          "name": "from",
          "type": "address"
        },
        {
          "indexed": true,
          "internalType": "address",
          "name": "to",
          "type": "address"
        }
      ],
      "name": "ConsecutiveTransfer",
      "type": "event"
    },
    {
      "anonymous": false,
      "inputs": [
        {
          "indexed": false,
          "internalType": "address",
          "name": "user",
          "type": "address"
        }
      ],
      "name": "MintSuccessful",
      "type": "event"
    },
    {
      "anonymous": false,
      "inputs": [
        {
          "indexed": true,
          "internalType": "address",
          "name": "previousOwner",
          "type": "address"
        },
        {
          "indexed": true,
          "internalType": "address",
          "name": "newOwner",
          "type": "address"
        }
      ],
      "name": "OwnershipTransferred",
      "type": "event"
    },
    {
      "anonymous": false,
      "inputs": [
        {
          "indexed": true,
          "internalType": "address",
          "name": "from",
          "type": "address"
        },
        {
          "indexed": true,
          "internalType": "address",
          "name": "to",
          "type": "address"
        },
        {
          "indexed": true,
          "internalType": "uint256",
          "name": "tokenId",
          "type": "uint256"
        }
      ],
      "name": "Transfer",
      "type": "event"
    },
    {
      "inputs": [
        {
          "internalType": "string",
          "name": "_name",
          "type": "string"
        },
        {
          "internalType": "uint256",
          "name": "_price",
          "type": "uint256"
        },
        {
          "internalType": "string",
          "name": "_cid",
          "type": "string"
        },
        {
          "internalType": "uint256",
          "name": "_maxSupply",
          "type": "uint256"
        }
      ],
      "name": "addMysteryBox",
      "outputs": [],
      "stateMutability": "nonpayable",
      "type": "function"
    },
    {
      "inputs": [
        {
          "internalType": "address",
          "name": "to",
          "type": "address"
        },
        {
          "internalType": "uint256",
          "name": "tokenId",
          "type": "uint256"
        }
      ],
      "name": "approve",
      "outputs": [],
      "stateMutability": "nonpayable",
      "type": "function"
    },
    {
      "inputs": [
        {
          "internalType": "address",
          "name": "owner",
          "type": "address"
        }
      ],
      "name": "balanceOf",
      "outputs": [
        {
          "internalType": "uint256",
          "name": "",
          "type": "uint256"
        }
      ],
      "stateMutability": "view",
      "type": "function"
    },
    {
      "inputs": [
        {
          "internalType": "uint256",
          "name": "",
          "type": "uint256"
        }
      ],
      "name": "boxes",
      "outputs": [
        {
          "internalType": "string",
          "name": "name",
          "type": "string"
        },
        {
          "internalType": "uint256",
          "name": "price",
          "type": "uint256"
        },
        {
          "internalType": "uint256",
          "name": "burnAmount",
          "type": "uint256"
        },
        {
          "internalType": "string",
          "name": "cid",
          "type": "string"
        },
        {
          "internalType": "uint256",
          "name": "maxSupply",
          "type": "uint256"
        },
        {
          "internalType": "uint256",
          "name": "remainingSupply",
          "type": "uint256"
        },
        {
          "internalType": "bool",
          "name": "mintEnabled",
          "type": "bool"
        }
      ],
      "stateMutability": "view",
      "type": "function"
    },
    {
      "inputs": [],
      "name": "contractURI",
      "outputs": [
        {
          "internalType": "string",
          "name": "",
          "type": "string"
        }
      ],
      "stateMutability": "pure",
      "type": "function"
    },
    {
      "inputs": [
        {
          "internalType": "uint256",
          "name": "tokenId",
          "type": "uint256"
        }
      ],
      "name": "getApproved",
      "outputs": [
        {
          "internalType": "address",
          "name": "",
          "type": "address"
        }
      ],
      "stateMutability": "view",
      "type": "function"
    },
    {
      "inputs": [
        {
          "internalType": "uint256",
          "name": "_boxId",
          "type": "uint256"
        }
      ],
      "name": "getMysteryBoxCid",
      "outputs": [
        {
          "internalType": "string",
          "name": "",
          "type": "string"
        }
      ],
      "stateMutability": "view",
      "type": "function"
    },
    {
      "inputs": [
        {
          "internalType": "uint256",
          "name": "_boxId",
          "type": "uint256"
        }
      ],
      "name": "getMysteryBoxName",
      "outputs": [
        {
          "internalType": "string",
          "name": "",
          "type": "string"
        }
      ],
      "stateMutability": "view",
      "type": "function"
    },
    {
      "inputs": [
        {
          "internalType": "uint256",
          "name": "_boxId",
          "type": "uint256"
        }
      ],
      "name": "getPrice",
      "outputs": [
        {
          "internalType": "uint256",
          "name": "",
          "type": "uint256"
        }
      ],
      "stateMutability": "view",
      "type": "function"
    },
    {
      "inputs": [
        {
          "internalType": "address",
          "name": "owner",
          "type": "address"
        },
        {
          "internalType": "address",
          "name": "operator",
          "type": "address"
        }
      ],
      "name": "isApprovedForAll",
      "outputs": [
        {
          "internalType": "bool",
          "name": "",
          "type": "bool"
        }
      ],
      "stateMutability": "view",
      "type": "function"
    },
    {
      "inputs": [
        {
          "internalType": "uint256",
          "name": "_boxId",
          "type": "uint256"
        },
        {
          "internalType": "uint256",
          "name": "_quantity",
          "type": "uint256"
        }
      ],
      "name": "mint",
      "outputs": [],
      "stateMutability": "payable",
      "type": "function"
    },
    {
      "inputs": [],
      "name": "name",
      "outputs": [
        {
          "internalType": "string",
          "name": "",
          "type": "string"
        }
      ],
      "stateMutability": "view",
      "type": "function"
    },
    {
      "inputs": [],
      "name": "owner",
      "outputs": [
        {
          "internalType": "address",
          "name": "",
          "type": "address"
        }
      ],
      "stateMutability": "view",
      "type": "function"
    },
    {
      "inputs": [
        {
          "internalType": "uint256",
          "name": "tokenId",
          "type": "uint256"
        }
      ],
      "name": "ownerOf",
      "outputs": [
        {
          "internalType": "address",
          "name": "",
          "type": "address"
        }
      ],
      "stateMutability": "view",
      "type": "function"
    },
    {
      "inputs": [],
      "name": "renounceOwnership",
      "outputs": [],
      "stateMutability": "nonpayable",
      "type": "function"
    },
    {
      "inputs": [
        {
          "internalType": "address",
          "name": "from",
          "type": "address"
        },
        {
          "internalType": "address",
          "name": "to",
          "type": "address"
        },
        {
          "internalType": "uint256",
          "name": "tokenId",
          "type": "uint256"
        }
      ],
      "name": "safeTransferFrom",
      "outputs": [],
      "stateMutability": "nonpayable",
      "type": "function"
    },
    {
      "inputs": [
        {
          "internalType": "address",
          "name": "from",
          "type": "address"
        },
        {
          "internalType": "address",
          "name": "to",
          "type": "address"
        },
        {
          "internalType": "uint256",
          "name": "tokenId",
          "type": "uint256"
        },
        {
          "internalType": "bytes",
          "name": "data",
          "type": "bytes"
        }
      ],
      "name": "safeTransferFrom",
      "outputs": [],
      "stateMutability": "nonpayable",
      "type": "function"
    },
    {
      "inputs": [
        {
          "internalType": "address",
          "name": "operator",
          "type": "address"
        },
        {
          "internalType": "bool",
          "name": "approved",
          "type": "bool"
        }
      ],
      "name": "setApprovalForAll",
      "outputs": [],
      "stateMutability": "nonpayable",
      "type": "function"
    },
    {
      "inputs": [
        {
          "internalType": "uint256",
          "name": "_boxId",
          "type": "uint256"
        },
        {
          "internalType": "bool",
          "name": "_state",
          "type": "bool"
        }
      ],
      "name": "setMintEnabled",
      "outputs": [],
      "stateMutability": "nonpayable",
      "type": "function"
    },
    {
      "inputs": [
        {
          "internalType": "uint256",
          "name": "_boxId",
          "type": "uint256"
        },
        {
          "internalType": "uint256",
          "name": "_price",
          "type": "uint256"
        }
      ],
      "name": "setPrice",
      "outputs": [],
      "stateMutability": "nonpayable",
      "type": "function"
    },
    {
      "inputs": [
        {
          "internalType": "bytes4",
          "name": "interfaceId",
          "type": "bytes4"
        }
      ],
      "name": "supportsInterface",
      "outputs": [
        {
          "internalType": "bool",
          "name": "",
          "type": "bool"
        }
      ],
      "stateMutability": "view",
      "type": "function"
    },
    {
      "inputs": [],
      "name": "symbol",
      "outputs": [
        {
          "internalType": "string",
          "name": "",
          "type": "string"
        }
      ],
      "stateMutability": "view",
      "type": "function"
    },
    {
      "inputs": [
        {
          "internalType": "uint256",
          "name": "_tokenId",
          "type": "uint256"
        }
      ],
      "name": "tokenURI",
      "outputs": [
        {
          "internalType": "string",
          "name": "",
          "type": "string"
        }
      ],
      "stateMutability": "view",
      "type": "function"
    },
    {
      "inputs": [],
      "name": "totalSupply",
      "outputs": [
        {
          "internalType": "uint256",
          "name": "",
          "type": "uint256"
        }
      ],
      "stateMutability": "view",
      "type": "function"
    },
    {
      "inputs": [
        {
          "internalType": "address",
          "name": "from",
          "type": "address"
        },
        {
          "internalType": "address",
          "name": "to",
          "type": "address"
        },
        {
          "internalType": "uint256",
          "name": "tokenId",
          "type": "uint256"
        }
      ],
      "name": "transferFrom",
      "outputs": [],
      "stateMutability": "nonpayable",
      "type": "function"
    },
    {
      "inputs": [
        {
          "internalType": "address",
          "name": "newOwner",
          "type": "address"
        }
      ],
      "name": "transferOwnership",
      "outputs": [],
      "stateMutability": "nonpayable",
      "type": "function"
    },
    {
      "inputs": [],
      "name": "uriPrefix",
      "outputs": [
        {
          "internalType": "string",
          "name": "",
          "type": "string"
        }
      ],
      "stateMutability": "view",
      "type": "function"
    },
    {
      "inputs": [],
      "name": "uriSuffix",
      "outputs": [
        {
          "internalType": "string",
          "name": "",
          "type": "string"
        }
      ],
      "stateMutability": "view",
      "type": "function"
    },
    {
      "inputs": [],
      "name": "withdraw",
      "outputs": [],
      "stateMutability": "nonpayable",
      "type": "function"
    }
  ],
  "bytecode": "0x608060405260405180602001604052806000815250600990805190602001906200002b929190620006bd565b506040518060400160405280600581526020017f2e6a736f6e000000000000000000000000000000000000000000000000000000815250600a908051906020019062000079929190620006bd565b503480156200008757600080fd5b50733cc6cdda760b79bafa08df41ecfa224f810dceb660016040518060400160405280600b81526020017f4d79737465727920426f780000000000000000000000000000000000000000008152506040518060400160405280600281526020017f4d420000000000000000000000000000000000000000000000000000000000008152506200012b6200011f620005e860201b60201c565b620005f060201b60201c565b816003908051906020019062000143929190620006bd565b5080600490805190602001906200015c929190620006bd565b506200016d620006b460201b60201c565b600181905550505060006daaeb6d7670e522a718067333cd4e73ffffffffffffffffffffffffffffffffffffffff163b11156200036a57801562000230576daaeb6d7670e522a718067333cd4e73ffffffffffffffffffffffffffffffffffffffff16637d3e3dbe30846040518363ffffffff1660e01b8152600401620001f6929190620007b2565b600060405180830381600087803b1580156200021157600080fd5b505af115801562000226573d6000803e3d6000fd5b5050505062000369565b600073ffffffffffffffffffffffffffffffffffffffff168273ffffffffffffffffffffffffffffffffffffffff1614620002ea576daaeb6d7670e522a718067333cd4e73ffffffffffffffffffffffffffffffffffffffff1663a0af290330846040518363ffffffff1660e01b8152600401620002b0929190620007b2565b600060405180830381600087803b158015620002cb57600080fd5b505af1158015620002e0573d6000803e3d6000fd5b5050505062000368565b6daaeb6d7670e522a718067333cd4e73ffffffffffffffffffffffffffffffffffffffff16634420e486306040518263ffffffff1660e01b8152600401620003339190620007df565b600060405180830381600087803b1580156200034e57600080fd5b505af115801562000363573d6000803e3d6000fd5b505050505b5b5b5050600b6040518060e001604052806040518060400160405280600d81526020017f4d79737465727920426f78203100000000000000000000000000000000000000815250815260200160008152602001600081526020016040518060600160405280602e81526020016200445a602e91398152602001606481526020016064815260200160011515815250908060018154018082558091505060019003906000526020600020906007020160009091909190915060008201518160000190805190602001906200043d929190620006bd565b506020820151816001015560408201518160020155606082015181600301908051906020019062000470929190620006bd565b506080820151816004015560a0820151816005015560c08201518160060160006101000a81548160ff0219169083151502179055505050600b6040518060e001604052806040518060400160405280600d81526020017f4d79737465727920426f78203200000000000000000000000000000000000000815250815260200160008152602001600081526020016040518060600160405280602e815260200162004488602e913981526020016064815260200160648152602001600115158152509080600181540180825580915050600190039060005260206000209060070201600090919091909150600082015181600001908051906020019062000578929190620006bd565b5060208201518160010155604082015181600201556060820151816003019080519060200190620005ab929190620006bd565b506080820151816004015560a0820151816005015560c08201518160060160006101000a81548160ff021916908315150217905550505062000860565b600033905090565b60008060009054906101000a900473ffffffffffffffffffffffffffffffffffffffff169050816000806101000a81548173ffffffffffffffffffffffffffffffffffffffff021916908373ffffffffffffffffffffffffffffffffffffffff1602179055508173ffffffffffffffffffffffffffffffffffffffff168173ffffffffffffffffffffffffffffffffffffffff167f8be0079c531659141344cd1fd0a4f28419497f9722a3daafe3b4186f6b6457e060405160405180910390a35050565b60006001905090565b828054620006cb906200082b565b90600052602060002090601f016020900481019282620006ef57600085556200073b565b82601f106200070a57805160ff19168380011785556200073b565b828001600101855582156200073b579182015b828111156200073a5782518255916020019190600101906200071d565b5b5090506200074a91906200074e565b5090565b5b80821115620007695760008160009055506001016200074f565b5090565b600073ffffffffffffffffffffffffffffffffffffffff82169050919050565b60006200079a826200076d565b9050919050565b620007ac816200078d565b82525050565b6000604082019050620007c96000830185620007a1565b620007d86020830184620007a1565b9392505050565b6000602082019050620007f66000830184620007a1565b92915050565b7f4e487b7100000000000000000000000000000000000000000000000000000000600052602260045260246000fd5b600060028204905060018216806200084457607f821691505b6020821081036200085a5762000859620007fc565b5b50919050565b613bea80620008706000396000f3fe6080604052600436106101c25760003560e01c806370a08231116100f7578063c5087cac11610095578063e985e9c511610064578063e985e9c51461064b578063ebbc9a0b14610688578063f2fde38b146106c5578063f7d97577146106ee576101c2565b8063c5087cac1461057d578063c87b56dd146105a6578063e7572230146105e3578063e8a3d48514610620576101c2565b80638da5cb5b116100d15780638da5cb5b146104d557806395d89b4114610500578063a22cb4651461052b578063b88d4fde14610554576101c2565b806370a0823114610444578063715018a61461048157806372fc44cc14610498576101c2565b80633ccfd60b116101645780634ed3faf21161013e5780634ed3faf21461036e5780635503a0e8146103b157806362b99ad4146103dc5780636352211e14610407576101c2565b80633ccfd60b1461030557806342842e0e1461031c57806349a9493c14610345576101c2565b8063095ea7b3116101a0578063095ea7b31461026c57806318160ddd146102955780631b2ef1ca146102c057806323b872dd146102dc576101c2565b806301ffc9a7146101c757806306fdde0314610204578063081812fc1461022f575b600080fd5b3480156101d357600080fd5b506101ee60048036038101906101e99190612bc1565b610717565b6040516101fb9190612c09565b60405180910390f35b34801561021057600080fd5b506102196107a9565b6040516102269190612cbd565b60405180910390f35b34801561023b57600080fd5b5061025660048036038101906102519190612d15565b61083b565b6040516102639190612d83565b60405180910390f35b34801561027857600080fd5b50610293600480360381019061028e9190612dca565b6108ba565b005b3480156102a157600080fd5b506102aa6109fe565b6040516102b79190612e19565b60405180910390f35b6102da60048036038101906102d59190612e34565b610a15565b005b3480156102e857600080fd5b5061030360048036038101906102fe9190612e74565b610c4d565b005b34801561031157600080fd5b5061031a610e2f565b005b34801561032857600080fd5b50610343600480360381019061033e9190612e74565b610e80565b005b34801561035157600080fd5b5061036c60048036038101906103679190612ef3565b611062565b005b34801561037a57600080fd5b5061039560048036038101906103909190612d15565b6110f2565b6040516103a89796959493929190612f33565b60405180910390f35b3480156103bd57600080fd5b506103c6611261565b6040516103d39190612cbd565b60405180910390f35b3480156103e857600080fd5b506103f16112ef565b6040516103fe9190612cbd565b60405180910390f35b34801561041357600080fd5b5061042e60048036038101906104299190612d15565b61137d565b60405161043b9190612d83565b60405180910390f35b34801561045057600080fd5b5061046b60048036038101906104669190612fb0565b61138f565b6040516104789190612e19565b60405180910390f35b34801561048d57600080fd5b50610496611447565b005b3480156104a457600080fd5b506104bf60048036038101906104ba9190612d15565b61145b565b6040516104cc9190612cbd565b60405180910390f35b3480156104e157600080fd5b506104ea611559565b6040516104f79190612d83565b60405180910390f35b34801561050c57600080fd5b50610515611582565b6040516105229190612cbd565b60405180910390f35b34801561053757600080fd5b50610552600480360381019061054d9190612fdd565b611614565b005b34801561056057600080fd5b5061057b60048036038101906105769190613152565b61178b565b005b34801561058957600080fd5b506105a4600480360381019061059f9190613276565b611970565b005b3480156105b257600080fd5b506105cd60048036038101906105c89190612d15565b611a64565b6040516105da9190612cbd565b60405180910390f35b3480156105ef57600080fd5b5061060a60048036038101906106059190612d15565b611b73565b6040516106179190612e19565b60405180910390f35b34801561062c57600080fd5b50610635611ba2565b6040516106429190612cbd565b60405180910390f35b34801561065757600080fd5b50610672600480360381019061066d9190613315565b611bc2565b60405161067f9190612c09565b60405180910390f35b34801561069457600080fd5b506106af60048036038101906106aa9190612d15565b611c56565b6040516106bc9190612cbd565b60405180910390f35b3480156106d157600080fd5b506106ec60048036038101906106e79190612fb0565b611d54565b005b3480156106fa57600080fd5b5061071560048036038101906107109190612e34565b611dd7565b005b60006301ffc9a760e01b827bffffffffffffffffffffffffffffffffffffffffffffffffffffffff1916148061077257506380ac58cd60e01b827bffffffffffffffffffffffffffffffffffffffffffffffffffffffff1916145b806107a25750635b5e139f60e01b827bffffffffffffffffffffffffffffffffffffffffffffffffffffffff1916145b9050919050565b6060600380546107b890613384565b80601f01602080910402602001604051908101604052809291908181526020018280546107e490613384565b80156108315780601f1061080657610100808354040283529160200191610831565b820191906000526020600020905b81548152906001019060200180831161081457829003601f168201915b5050505050905090565b600061084682611e54565b61087c576040517fcf4700e400000000000000000000000000000000000000000000000000000000815260040160405180910390fd5b6007600083815260200190815260200160002060000160009054906101000a900473ffffffffffffffffffffffffffffffffffffffff169050919050565b60006108c58261137d565b90508073ffffffffffffffffffffffffffffffffffffffff166108e6611eb3565b73ffffffffffffffffffffffffffffffffffffffff1614610949576109128161090d611eb3565b611bc2565b610948576040517fcfb3b94200000000000000000000000000000000000000000000000000000000815260040160405180910390fd5b5b826007600084815260200190815260200160002060000160006101000a81548173ffffffffffffffffffffffffffffffffffffffff021916908373ffffffffffffffffffffffffffffffffffffffff160217905550818373ffffffffffffffffffffffffffffffffffffffff168273ffffffffffffffffffffffffffffffffffffffff167f8c5be1e5ebec7d5bd14f71427d1e84f3dd0314c0f7b2291e5b200ac8c7c3b92560405160405180910390a4505050565b6000610a08611ebb565b6002546001540303905090565b600b805490508210610a5c576040517f08c379a0000000000000000000000000000000000000000000000000000000008152600401610a5390613401565b60405180910390fd5b600b8281548110610a7057610a6f613421565b5b906000526020600020906007020160060160009054906101000a900460ff16610ace576040517f08c379a0000000000000000000000000000000000000000000000000000000008152600401610ac59061349c565b60405180910390fd5b6000600b8381548110610ae457610ae3613421565b5b90600052602060002090600702016005015411610b36576040517f08c379a0000000000000000000000000000000000000000000000000000000008152600401610b2d90613508565b60405180910390fd5b80610b4083611b73565b610b4a9190613557565b341015610b8c576040517f08c379a0000000000000000000000000000000000000000000000000000000008152600401610b8390613623565b60405180910390fd5b60005b81811015610bcc5782600c600083610ba5611ec4565b610baf9190613643565b815260200190815260200160002081905550806001019050610b8f565b50610bd73382611ed7565b600b8281548110610beb57610bea613421565b5b90600052602060002090600702016005016000815480929190610c0d90613699565b91905055507ff5535ccd9f40eb4bc73fac8710dbb2effbf3329da83f62b35d9aa88161bb85ca33604051610c419190612d83565b60405180910390a15050565b8260006daaeb6d7670e522a718067333cd4e73ffffffffffffffffffffffffffffffffffffffff163b1115610e1d573373ffffffffffffffffffffffffffffffffffffffff168173ffffffffffffffffffffffffffffffffffffffff1603610cbf57610cba848484612093565b610e29565b6daaeb6d7670e522a718067333cd4e73ffffffffffffffffffffffffffffffffffffffff1663c617113430336040518363ffffffff1660e01b8152600401610d089291906136c2565b602060405180830381865afa158015610d25573d6000803e3d6000fd5b505050506040513d601f19601f82011682018060405250810190610d499190613700565b8015610ddb57506daaeb6d7670e522a718067333cd4e73ffffffffffffffffffffffffffffffffffffffff1663c617113430836040518363ffffffff1660e01b8152600401610d999291906136c2565b602060405180830381865afa158015610db6573d6000803e3d6000fd5b505050506040513d601f19601f82011682018060405250810190610dda9190613700565b5b610e1c57336040517fede71dcc000000000000000000000000000000000000000000000000000000008152600401610e139190612d83565b60405180910390fd5b5b610e28848484612093565b5b50505050565b610e376123b5565b3373ffffffffffffffffffffffffffffffffffffffff166108fc479081150290604051600060405180830381858888f19350505050158015610e7d573d6000803e3d6000fd5b50565b8260006daaeb6d7670e522a718067333cd4e73ffffffffffffffffffffffffffffffffffffffff163b1115611050573373ffffffffffffffffffffffffffffffffffffffff168173ffffffffffffffffffffffffffffffffffffffff1603610ef257610eed848484612433565b61105c565b6daaeb6d7670e522a718067333cd4e73ffffffffffffffffffffffffffffffffffffffff1663c617113430336040518363ffffffff1660e01b8152600401610f3b9291906136c2565b602060405180830381865afa158015610f58573d6000803e3d6000fd5b505050506040513d601f19601f82011682018060405250810190610f7c9190613700565b801561100e57506daaeb6d7670e522a718067333cd4e73ffffffffffffffffffffffffffffffffffffffff1663c617113430836040518363ffffffff1660e01b8152600401610fcc9291906136c2565b602060405180830381865afa158015610fe9573d6000803e3d6000fd5b505050506040513d601f19601f8201168201806040525081019061100d9190613700565b5b61104f57336040517fede71dcc0000000000000000000000000000000000000000000000000000000081526004016110469190612d83565b60405180910390fd5b5b61105b848484612433565b5b50505050565b61106a6123b5565b600b8054905082106110b1576040517f08c379a00000000000000000000000000000000000000000000000000000000081526004016110a890613401565b60405180910390fd5b80600b83815481106110c6576110c5613421565b5b906000526020600020906007020160060160006101000a81548160ff0219169083151502179055505050565b600b818154811061110257600080fd5b906000526020600020906007020160009150905080600001805461112590613384565b80601f016020809104026020016040519081016040528092919081815260200182805461115190613384565b801561119e5780601f106111735761010080835404028352916020019161119e565b820191906000526020600020905b81548152906001019060200180831161118157829003601f168201915b5050505050908060010154908060020154908060030180546111bf90613384565b80601f01602080910402602001604051908101604052809291908181526020018280546111eb90613384565b80156112385780601f1061120d57610100808354040283529160200191611238565b820191906000526020600020905b81548152906001019060200180831161121b57829003601f168201915b5050505050908060040154908060050154908060060160009054906101000a900460ff16905087565b600a805461126e90613384565b80601f016020809104026020016040519081016040528092919081815260200182805461129a90613384565b80156112e75780601f106112bc576101008083540402835291602001916112e7565b820191906000526020600020905b8154815290600101906020018083116112ca57829003601f168201915b505050505081565b600980546112fc90613384565b80601f016020809104026020016040519081016040528092919081815260200182805461132890613384565b80156113755780601f1061134a57610100808354040283529160200191611375565b820191906000526020600020905b81548152906001019060200180831161135857829003601f168201915b505050505081565b600061138882612453565b9050919050565b60008073ffffffffffffffffffffffffffffffffffffffff168273ffffffffffffffffffffffffffffffffffffffff16036113f6576040517f8f4eb60400000000000000000000000000000000000000000000000000000000815260040160405180910390fd5b67ffffffffffffffff600660008473ffffffffffffffffffffffffffffffffffffffff1673ffffffffffffffffffffffffffffffffffffffff16815260200190815260200160002054169050919050565b61144f6123b5565b611459600061251f565b565b6060600b8054905082106114a4576040517f08c379a000000000000000000000000000000000000000000000000000000000815260040161149b90613401565b60405180910390fd5b600b82815481106114b8576114b7613421565b5b906000526020600020906007020160000180546114d490613384565b80601f016020809104026020016040519081016040528092919081815260200182805461150090613384565b801561154d5780601f106115225761010080835404028352916020019161154d565b820191906000526020600020905b81548152906001019060200180831161153057829003601f168201915b50505050509050919050565b60008060009054906101000a900473ffffffffffffffffffffffffffffffffffffffff16905090565b60606004805461159190613384565b80601f01602080910402602001604051908101604052809291908181526020018280546115bd90613384565b801561160a5780601f106115df5761010080835404028352916020019161160a565b820191906000526020600020905b8154815290600101906020018083116115ed57829003601f168201915b5050505050905090565b61161c611eb3565b73ffffffffffffffffffffffffffffffffffffffff168273ffffffffffffffffffffffffffffffffffffffff1603611680576040517fb06307db00000000000000000000000000000000000000000000000000000000815260040160405180910390fd5b806008600061168d611eb3565b73ffffffffffffffffffffffffffffffffffffffff1673ffffffffffffffffffffffffffffffffffffffff16815260200190815260200160002060008473ffffffffffffffffffffffffffffffffffffffff1673ffffffffffffffffffffffffffffffffffffffff16815260200190815260200160002060006101000a81548160ff0219169083151502179055508173ffffffffffffffffffffffffffffffffffffffff1661173a611eb3565b73ffffffffffffffffffffffffffffffffffffffff167f17307eab39ab6107e8899845ad3d59bd9653f200f220920489ca2b5937696c318360405161177f9190612c09565b60405180910390a35050565b8360006daaeb6d7670e522a718067333cd4e73ffffffffffffffffffffffffffffffffffffffff163b111561195c573373ffffffffffffffffffffffffffffffffffffffff168173ffffffffffffffffffffffffffffffffffffffff16036117fe576117f9858585856125e3565b611969565b6daaeb6d7670e522a718067333cd4e73ffffffffffffffffffffffffffffffffffffffff1663c617113430336040518363ffffffff1660e01b81526004016118479291906136c2565b602060405180830381865afa158015611864573d6000803e3d6000fd5b505050506040513d601f19601f820116820180604052508101906118889190613700565b801561191a57506daaeb6d7670e522a718067333cd4e73ffffffffffffffffffffffffffffffffffffffff1663c617113430836040518363ffffffff1660e01b81526004016118d89291906136c2565b602060405180830381865afa1580156118f5573d6000803e3d6000fd5b505050506040513d601f19601f820116820180604052508101906119199190613700565b5b61195b57336040517fede71dcc0000000000000000000000000000000000000000000000000000000081526004016119529190612d83565b60405180910390fd5b5b611968858585856125e3565b5b5050505050565b6119786123b5565b600b6040518060e001604052808681526020018581526020016000815260200184815260200183815260200183815260200160011515815250908060018154018082558091505060019003906000526020600020906007020160009091909190915060008201518160000190805190602001906119f6929190612ab2565b5060208201518160010155604082015181600201556060820151816003019080519060200190611a27929190612ab2565b506080820151816004015560a0820151816005015560c08201518160060160006101000a81548160ff021916908315150217905550505050505050565b6060611a6f82611e54565b611aae576040517f08c379a0000000000000000000000000000000000000000000000000000000008152600401611aa59061379f565b60405180910390fd5b600b80549050600c60008481526020019081526020016000205410611b08576040517f08c379a0000000000000000000000000000000000000000000000000000000008152600401611aff90613401565b60405180910390fd5b600b600c60008481526020019081526020016000205481548110611b2f57611b2e613421565b5b9060005260206000209060070201600301611b4983612656565b600a604051602001611b5d93929190613927565b6040516020818303038152906040529050919050565b6000600b8281548110611b8957611b88613421565b5b9060005260206000209060070201600101549050919050565b6060604051806060016040528060368152602001613b7f60369139905090565b6000600860008473ffffffffffffffffffffffffffffffffffffffff1673ffffffffffffffffffffffffffffffffffffffff16815260200190815260200160002060008373ffffffffffffffffffffffffffffffffffffffff1673ffffffffffffffffffffffffffffffffffffffff16815260200190815260200160002060009054906101000a900460ff16905092915050565b6060600b805490508210611c9f576040517f08c379a0000000000000000000000000000000000000000000000000000000008152600401611c9690613401565b60405180910390fd5b600b8281548110611cb357611cb2613421565b5b90600052602060002090600702016003018054611ccf90613384565b80601f0160208091040260200160405190810160405280929190818152602001828054611cfb90613384565b8015611d485780601f10611d1d57610100808354040283529160200191611d48565b820191906000526020600020905b815481529060010190602001808311611d2b57829003601f168201915b50505050509050919050565b611d5c6123b5565b600073ffffffffffffffffffffffffffffffffffffffff168173ffffffffffffffffffffffffffffffffffffffff1603611dcb576040517f08c379a0000000000000000000000000000000000000000000000000000000008152600401611dc2906139e0565b60405180910390fd5b611dd48161251f565b50565b611ddf6123b5565b600b805490508210611e26576040517f08c379a0000000000000000000000000000000000000000000000000000000008152600401611e1d90613401565b60405180910390fd5b80600b8381548110611e3b57611e3a613421565b5b9060005260206000209060070201600101819055505050565b600081611e5f611ebb565b11158015611e6e575060015482105b8015611eac575060007c0100000000000000000000000000000000000000000000000000000000600560008581526020019081526020016000205416145b9050919050565b600033905090565b60006001905090565b6000611ece611ebb565b60015403905090565b6000600154905060008203611f18576040517fb562e8dd00000000000000000000000000000000000000000000000000000000815260040160405180910390fd5b611f256000848385612724565b600160406001901b178202600660008573ffffffffffffffffffffffffffffffffffffffff1673ffffffffffffffffffffffffffffffffffffffff16815260200190815260200160002060008282540192505081905550611f9c83611f8d600086600061272a565b611f9685612752565b17612762565b6005600083815260200190815260200160002081905550600080838301905073ffffffffffffffffffffffffffffffffffffffff85169150828260007fddf252ad1be2c89b69c2b068fc378daa952ba7f163c4a11628f55a4df523b3ef600080a4600183015b81811461203d57808360007fddf252ad1be2c89b69c2b068fc378daa952ba7f163c4a11628f55a4df523b3ef600080a4600181019050612002565b5060008203612078576040517f2e07630000000000000000000000000000000000000000000000000000000000815260040160405180910390fd5b80600181905550505061208e600084838561278d565b505050565b600061209e82612453565b90508373ffffffffffffffffffffffffffffffffffffffff168173ffffffffffffffffffffffffffffffffffffffff1614612105576040517fa114810000000000000000000000000000000000000000000000000000000000815260040160405180910390fd5b60008061211184612793565b915091506121278187612122611eb3565b6127ba565b6121735761213c86612137611eb3565b611bc2565b612172576040517f59c896be00000000000000000000000000000000000000000000000000000000815260040160405180910390fd5b5b600073ffffffffffffffffffffffffffffffffffffffff168573ffffffffffffffffffffffffffffffffffffffff16036121d9576040517fea553b3400000000000000000000000000000000000000000000000000000000815260040160405180910390fd5b6121e68686866001612724565b80156121f157600082555b600660008773ffffffffffffffffffffffffffffffffffffffff1673ffffffffffffffffffffffffffffffffffffffff168152602001908152602001600020600081546001900391905081905550600660008673ffffffffffffffffffffffffffffffffffffffff1673ffffffffffffffffffffffffffffffffffffffff16815260200190815260200160002060008154600101919050819055506122bf8561229b88888761272a565b7c020000000000000000000000000000000000000000000000000000000017612762565b600560008681526020019081526020016000208190555060007c02000000000000000000000000000000000000000000000000000000008416036123455760006001850190506000600560008381526020019081526020016000205403612343576001548114612342578360056000838152602001908152602001600020819055505b5b505b838573ffffffffffffffffffffffffffffffffffffffff168773ffffffffffffffffffffffffffffffffffffffff167fddf252ad1be2c89b69c2b068fc378daa952ba7f163c4a11628f55a4df523b3ef60405160405180910390a46123ad868686600161278d565b505050505050565b6123bd6127fe565b73ffffffffffffffffffffffffffffffffffffffff166123db611559565b73ffffffffffffffffffffffffffffffffffffffff1614612431576040517f08c379a000000000000000000000000000000000000000000000000000000000815260040161242890613a4c565b60405180910390fd5b565b61244e8383836040518060200160405280600081525061178b565b505050565b60008082905080612462611ebb565b116124e8576001548110156124e75760006005600083815260200190815260200160002054905060007c01000000000000000000000000000000000000000000000000000000008216036124e5575b600081036124db5760056000836001900393508381526020019081526020016000205490506124b1565b809250505061251a565b505b5b6040517fdf2d9b4200000000000000000000000000000000000000000000000000000000815260040160405180910390fd5b919050565b60008060009054906101000a900473ffffffffffffffffffffffffffffffffffffffff169050816000806101000a81548173ffffffffffffffffffffffffffffffffffffffff021916908373ffffffffffffffffffffffffffffffffffffffff1602179055508173ffffffffffffffffffffffffffffffffffffffff168173ffffffffffffffffffffffffffffffffffffffff167f8be0079c531659141344cd1fd0a4f28419497f9722a3daafe3b4186f6b6457e060405160405180910390a35050565b6125ee848484610c4d565b60008373ffffffffffffffffffffffffffffffffffffffff163b146126505761261984848484612806565b61264f576040517fd1a57ed600000000000000000000000000000000000000000000000000000000815260040160405180910390fd5b5b50505050565b60606000600161266584612956565b01905060008167ffffffffffffffff81111561268457612683613027565b5b6040519080825280601f01601f1916602001820160405280156126b65781602001600182028036833780820191505090505b509050600082602001820190505b600115612719578080600190039150507f3031323334353637383961626364656600000000000000000000000000000000600a86061a8153600a858161270d5761270c613a6c565b5b049450600085036126c4575b819350505050919050565b50505050565b60008060e883901c905060e8612741868684612aa9565b62ffffff16901b9150509392505050565b60006001821460e11b9050919050565b600073ffffffffffffffffffffffffffffffffffffffff83169250814260a01b178317905092915050565b50505050565b60008060006007600085815260200190815260200160002090508092508254915050915091565b600073ffffffffffffffffffffffffffffffffffffffff8316925073ffffffffffffffffffffffffffffffffffffffff821691508382148383141790509392505050565b600033905090565b60008373ffffffffffffffffffffffffffffffffffffffff1663150b7a0261282c611eb3565b8786866040518563ffffffff1660e01b815260040161284e9493929190613af0565b6020604051808303816000875af192505050801561288a57506040513d601f19601f820116820180604052508101906128879190613b51565b60015b612903573d80600081146128ba576040519150601f19603f3d011682016040523d82523d6000602084013e6128bf565b606091505b5060008151036128fb576040517fd1a57ed600000000000000000000000000000000000000000000000000000000815260040160405180910390fd5b805181602001fd5b63150b7a0260e01b7bffffffffffffffffffffffffffffffffffffffffffffffffffffffff1916817bffffffffffffffffffffffffffffffffffffffffffffffffffffffff191614915050949350505050565b600080600090507a184f03e93ff9f4daa797ed6e38ed64bf6a1f01000000000000000083106129b4577a184f03e93ff9f4daa797ed6e38ed64bf6a1f01000000000000000083816129aa576129a9613a6c565b5b0492506040810190505b6d04ee2d6d415b85acef810000000083106129f1576d04ee2d6d415b85acef810000000083816129e7576129e6613a6c565b5b0492506020810190505b662386f26fc100008310612a2057662386f26fc100008381612a1657612a15613a6c565b5b0492506010810190505b6305f5e1008310612a49576305f5e1008381612a3f57612a3e613a6c565b5b0492506008810190505b6127108310612a6e576127108381612a6457612a63613a6c565b5b0492506004810190505b60648310612a915760648381612a8757612a86613a6c565b5b0492506002810190505b600a8310612aa0576001810190505b80915050919050565b60009392505050565b828054612abe90613384565b90600052602060002090601f016020900481019282612ae05760008555612b27565b82601f10612af957805160ff1916838001178555612b27565b82800160010185558215612b27579182015b82811115612b26578251825591602001919060010190612b0b565b5b509050612b349190612b38565b5090565b5b80821115612b51576000816000905550600101612b39565b5090565b6000604051905090565b600080fd5b600080fd5b60007fffffffff0000000000000000000000000000000000000000000000000000000082169050919050565b612b9e81612b69565b8114612ba957600080fd5b50565b600081359050612bbb81612b95565b92915050565b600060208284031215612bd757612bd6612b5f565b5b6000612be584828501612bac565b91505092915050565b60008115159050919050565b612c0381612bee565b82525050565b6000602082019050612c1e6000830184612bfa565b92915050565b600081519050919050565b600082825260208201905092915050565b60005b83811015612c5e578082015181840152602081019050612c43565b83811115612c6d576000848401525b50505050565b6000601f19601f8301169050919050565b6000612c8f82612c24565b612c998185612c2f565b9350612ca9818560208601612c40565b612cb281612c73565b840191505092915050565b60006020820190508181036000830152612cd78184612c84565b905092915050565b6000819050919050565b612cf281612cdf565b8114612cfd57600080fd5b50565b600081359050612d0f81612ce9565b92915050565b600060208284031215612d2b57612d2a612b5f565b5b6000612d3984828501612d00565b91505092915050565b600073ffffffffffffffffffffffffffffffffffffffff82169050919050565b6000612d6d82612d42565b9050919050565b612d7d81612d62565b82525050565b6000602082019050612d986000830184612d74565b92915050565b612da781612d62565b8114612db257600080fd5b50565b600081359050612dc481612d9e565b92915050565b60008060408385031215612de157612de0612b5f565b5b6000612def85828601612db5565b9250506020612e0085828601612d00565b9150509250929050565b612e1381612cdf565b82525050565b6000602082019050612e2e6000830184612e0a565b92915050565b60008060408385031215612e4b57612e4a612b5f565b5b6000612e5985828601612d00565b9250506020612e6a85828601612d00565b9150509250929050565b600080600060608486031215612e8d57612e8c612b5f565b5b6000612e9b86828701612db5565b9350506020612eac86828701612db5565b9250506040612ebd86828701612d00565b9150509250925092565b612ed081612bee565b8114612edb57600080fd5b50565b600081359050612eed81612ec7565b92915050565b60008060408385031215612f0a57612f09612b5f565b5b6000612f1885828601612d00565b9250506020612f2985828601612ede565b9150509250929050565b600060e0820190508181036000830152612f4d818a612c84565b9050612f5c6020830189612e0a565b612f696040830188612e0a565b8181036060830152612f7b8187612c84565b9050612f8a6080830186612e0a565b612f9760a0830185612e0a565b612fa460c0830184612bfa565b98975050505050505050565b600060208284031215612fc657612fc5612b5f565b5b6000612fd484828501612db5565b91505092915050565b60008060408385031215612ff457612ff3612b5f565b5b600061300285828601612db5565b925050602061301385828601612ede565b9150509250929050565b600080fd5b600080fd5b7f4e487b7100000000000000000000000000000000000000000000000000000000600052604160045260246000fd5b61305f82612c73565b810181811067ffffffffffffffff8211171561307e5761307d613027565b5b80604052505050565b6000613091612b55565b905061309d8282613056565b919050565b600067ffffffffffffffff8211156130bd576130bc613027565b5b6130c682612c73565b9050602081019050919050565b82818337600083830152505050565b60006130f56130f0846130a2565b613087565b90508281526020810184848401111561311157613110613022565b5b61311c8482856130d3565b509392505050565b600082601f8301126131395761313861301d565b5b81356131498482602086016130e2565b91505092915050565b6000806000806080858703121561316c5761316b612b5f565b5b600061317a87828801612db5565b945050602061318b87828801612db5565b935050604061319c87828801612d00565b925050606085013567ffffffffffffffff8111156131bd576131bc612b64565b5b6131c987828801613124565b91505092959194509250565b600067ffffffffffffffff8211156131f0576131ef613027565b5b6131f982612c73565b9050602081019050919050565b6000613219613214846131d5565b613087565b90508281526020810184848401111561323557613234613022565b5b6132408482856130d3565b509392505050565b600082601f83011261325d5761325c61301d565b5b813561326d848260208601613206565b91505092915050565b600080600080608085870312156132905761328f612b5f565b5b600085013567ffffffffffffffff8111156132ae576132ad612b64565b5b6132ba87828801613248565b94505060206132cb87828801612d00565b935050604085013567ffffffffffffffff8111156132ec576132eb612b64565b5b6132f887828801613248565b925050606061330987828801612d00565b91505092959194509250565b6000806040838503121561332c5761332b612b5f565b5b600061333a85828601612db5565b925050602061334b85828601612db5565b9150509250929050565b7f4e487b7100000000000000000000000000000000000000000000000000000000600052602260045260246000fd5b6000600282049050600182168061339c57607f821691505b6020821081036133af576133ae613355565b5b50919050565b7f626f784964206f7574206f662072616e67650000000000000000000000000000600082015250565b60006133eb601283612c2f565b91506133f6826133b5565b602082019050919050565b6000602082019050818103600083015261341a816133de565b9050919050565b7f4e487b7100000000000000000000000000000000000000000000000000000000600052603260045260246000fd5b7f4d696e74696e67206973206e6f7420656e61626c656400000000000000000000600082015250565b6000613486601683612c2f565b915061349182613450565b602082019050919050565b600060208201905081810360008301526134b581613479565b9050919050565b7f43616e6e6f74206d696e74206d6f7265207468616e206d617820737570706c79600082015250565b60006134f2602083612c2f565b91506134fd826134bc565b602082019050919050565b60006020820190508181036000830152613521816134e5565b9050919050565b7f4e487b7100000000000000000000000000000000000000000000000000000000600052601160045260246000fd5b600061356282612cdf565b915061356d83612cdf565b9250817fffffffffffffffffffffffffffffffffffffffffffffffffffffffffffffffff04831182151516156135a6576135a5613528565b5b828202905092915050565b7f4e6f7420656e6f756768204554482073656e743b20636865636b20707269636560008201527f2100000000000000000000000000000000000000000000000000000000000000602082015250565b600061360d602183612c2f565b9150613618826135b1565b604082019050919050565b6000602082019050818103600083015261363c81613600565b9050919050565b600061364e82612cdf565b915061365983612cdf565b9250827fffffffffffffffffffffffffffffffffffffffffffffffffffffffffffffffff0382111561368e5761368d613528565b5b828201905092915050565b60006136a482612cdf565b9150600082036136b7576136b6613528565b5b600182039050919050565b60006040820190506136d76000830185612d74565b6136e46020830184612d74565b9392505050565b6000815190506136fa81612ec7565b92915050565b60006020828403121561371657613715612b5f565b5b6000613724848285016136eb565b91505092915050565b7f4552433732314d657461646174613a2055524920717565727920666f72206e6f60008201527f6e6578697374656e7420746f6b656e0000000000000000000000000000000000602082015250565b6000613789602f83612c2f565b91506137948261372d565b604082019050919050565b600060208201905081810360008301526137b88161377c565b9050919050565b600081905092915050565b7f697066733a2f2f00000000000000000000000000000000000000000000000000600082015250565b60006138006007836137bf565b915061380b826137ca565b600782019050919050565b60008190508160005260206000209050919050565b6000815461383881613384565b61384281866137bf565b9450600182166000811461385d576001811461386e576138a1565b60ff198316865281860193506138a1565b61387785613816565b60005b838110156138995781548189015260018201915060208101905061387a565b838801955050505b50505092915050565b7f2f00000000000000000000000000000000000000000000000000000000000000600082015250565b60006138e06001836137bf565b91506138eb826138aa565b600182019050919050565b600061390182612c24565b61390b81856137bf565b935061391b818560208601612c40565b80840191505092915050565b6000613932826137f3565b915061393e828661382b565b9150613949826138d3565b915061395582856138f6565b9150613961828461382b565b9150819050949350505050565b7f4f776e61626c653a206e6577206f776e657220697320746865207a65726f206160008201527f6464726573730000000000000000000000000000000000000000000000000000602082015250565b60006139ca602683612c2f565b91506139d58261396e565b604082019050919050565b600060208201905081810360008301526139f9816139bd565b9050919050565b7f4f776e61626c653a2063616c6c6572206973206e6f7420746865206f776e6572600082015250565b6000613a36602083612c2f565b9150613a4182613a00565b602082019050919050565b60006020820190508181036000830152613a6581613a29565b9050919050565b7f4e487b7100000000000000000000000000000000000000000000000000000000600052601260045260246000fd5b600081519050919050565b600082825260208201905092915050565b6000613ac282613a9b565b613acc8185613aa6565b9350613adc818560208601612c40565b613ae581612c73565b840191505092915050565b6000608082019050613b056000830187612d74565b613b126020830186612d74565b613b1f6040830185612e0a565b8181036060830152613b318184613ab7565b905095945050505050565b600081519050613b4b81612b95565b92915050565b600060208284031215613b6757613b66612b5f565b5b6000613b7584828501613b3c565b9150509291505056fe697066733a2f2f516d5a6e374a314e446446674a6d35513770786d69765a464b56446a634263705539734e316b657a42555a704c6e2fa26469706673582212208e96bd4561cfe38138daaf1d3e9025c7417d7044c62d2a7bcd26b94ef9d4e54664736f6c634300080d0033516d594c7070365461586a4850454e6762445752577a42516f4a7563347a5245357a3373586a58686459414c7033516d5a6e584762586770424e6a414a6161616f5773483556596f544e6b566770566d62706746586e545579513564",
  "linkReferences": {},
  "deployedLinkReferences": {}
}