{
  "_format": "hh-sol-artifact-1",
  "contractName": "NftBox",
  "sourceName": "src/backend/contracts/NftBox.sol",
  "abi": [
    {
      "inputs": [
        {
          "internalType": "address",
          "name": "_usdcAddress",
          "type": "address"
        },
        {
          "internalType": "address",
          "name": "_sneakerAddress",
          "type": "address"
        },
        {
          "internalType": "address",
          "name": "_eggAddress",
          "type": "address"
        }
      ],
      "stateMutability": "nonpayable",
      "type": "constructor"
    },
    {
      "inputs": [],
      "name": "ApprovalCallerNotOwnerNorApproved",
      "type": "error"
    },
    {
      "inputs": [],
      "name": "ApprovalQueryForNonexistentToken",
      "type": "error"
    },
    {
      "inputs": [],
      "name": "ApproveToCaller",
      "type": "error"
    },
    {
      "inputs": [],
      "name": "BalanceQueryForZeroAddress",
      "type": "error"
    },
    {
      "inputs": [],
      "name": "MintERC2309QuantityExceedsLimit",
      "type": "error"
    },
    {
      "inputs": [],
      "name": "MintToZeroAddress",
      "type": "error"
    },
    {
      "inputs": [],
      "name": "MintZeroQuantity",
      "type": "error"
    },
    {
      "inputs": [
        {
          "internalType": "address",
          "name": "operator",
          "type": "address"
        }
      ],
      "name": "OperatorNotAllowed",
      "type": "error"
    },
    {
      "inputs": [],
      "name": "OwnerQueryForNonexistentToken",
      "type": "error"
    },
    {
      "inputs": [],
      "name": "OwnershipNotInitializedForExtraData",
      "type": "error"
    },
    {
      "inputs": [],
      "name": "TransferCallerNotOwnerNorApproved",
      "type": "error"
    },
    {
      "inputs": [],
      "name": "TransferFromIncorrectOwner",
      "type": "error"
    },
    {
      "inputs": [],
      "name": "TransferToNonERC721ReceiverImplementer",
      "type": "error"
    },
    {
      "inputs": [],
      "name": "TransferToZeroAddress",
      "type": "error"
    },
    {
      "inputs": [],
      "name": "URIQueryForNonexistentToken",
      "type": "error"
    },
    {
      "anonymous": false,
      "inputs": [
        {
          "indexed": true,
          "internalType": "address",
          "name": "owner",
          "type": "address"
        },
        {
          "indexed": true,
          "internalType": "address",
          "name": "approved",
          "type": "address"
        },
        {
          "indexed": true,
          "internalType": "uint256",
          "name": "tokenId",
          "type": "uint256"
        }
      ],
      "name": "Approval",
      "type": "event"
    },
    {
      "anonymous": false,
      "inputs": [
        {
          "indexed": true,
          "internalType": "address",
          "name": "owner",
          "type": "address"
        },
        {
          "indexed": true,
          "internalType": "address",
          "name": "operator",
          "type": "address"
        },
        {
          "indexed": false,
          "internalType": "bool",
          "name": "approved",
          "type": "bool"
        }
      ],
      "name": "ApprovalForAll",
      "type": "event"
    },
    {
      "anonymous": false,
      "inputs": [
        {
          "indexed": true,
          "internalType": "uint256",
          "name": "fromTokenId",
          "type": "uint256"
        },
        {
          "indexed": false,
          "internalType": "uint256",
          "name": "toTokenId",
          "type": "uint256"
        },
        {
          "indexed": true,
          "internalType": "address",
          "name": "from",
          "type": "address"
        },
        {
          "indexed": true,
          "internalType": "address",
          "name": "to",
          "type": "address"
        }
      ],
      "name": "ConsecutiveTransfer",
      "type": "event"
    },
    {
      "anonymous": false,
      "inputs": [
        {
          "indexed": false,
          "internalType": "address",
          "name": "user",
          "type": "address"
        }
      ],
      "name": "MintSuccessful",
      "type": "event"
    },
    {
      "anonymous": false,
      "inputs": [
        {
          "indexed": true,
          "internalType": "address",
          "name": "previousOwner",
          "type": "address"
        },
        {
          "indexed": true,
          "internalType": "address",
          "name": "newOwner",
          "type": "address"
        }
      ],
      "name": "OwnershipTransferred",
      "type": "event"
    },
    {
      "anonymous": false,
      "inputs": [
        {
          "indexed": true,
          "internalType": "address",
          "name": "from",
          "type": "address"
        },
        {
          "indexed": true,
          "internalType": "address",
          "name": "to",
          "type": "address"
        },
        {
          "indexed": true,
          "internalType": "uint256",
          "name": "tokenId",
          "type": "uint256"
        }
      ],
      "name": "Transfer",
      "type": "event"
    },
    {
      "inputs": [],
      "name": "USDCAddress",
      "outputs": [
        {
          "internalType": "address",
          "name": "",
          "type": "address"
        }
      ],
      "stateMutability": "view",
      "type": "function"
    },
    {
      "inputs": [
        {
          "internalType": "string",
          "name": "_name",
          "type": "string"
        },
        {
          "internalType": "uint256",
          "name": "_price",
          "type": "uint256"
        },
        {
          "internalType": "string",
          "name": "_cid",
          "type": "string"
        },
        {
          "internalType": "uint256",
          "name": "_maxSupply",
          "type": "uint256"
        }
      ],
      "name": "addMysteryBox",
      "outputs": [],
      "stateMutability": "nonpayable",
      "type": "function"
    },
    {
      "inputs": [
        {
          "internalType": "address",
          "name": "_user",
          "type": "address"
        },
        {
          "internalType": "uint256",
          "name": "_quantity",
          "type": "uint256"
        }
      ],
      "name": "airdrop",
      "outputs": [],
      "stateMutability": "nonpayable",
      "type": "function"
    },
    {
      "inputs": [
        {
          "internalType": "address",
          "name": "to",
          "type": "address"
        },
        {
          "internalType": "uint256",
          "name": "tokenId",
          "type": "uint256"
        }
      ],
      "name": "approve",
      "outputs": [],
      "stateMutability": "nonpayable",
      "type": "function"
    },
    {
      "inputs": [
        {
          "internalType": "address",
          "name": "owner",
          "type": "address"
        }
      ],
      "name": "balanceOf",
      "outputs": [
        {
          "internalType": "uint256",
          "name": "",
          "type": "uint256"
        }
      ],
      "stateMutability": "view",
      "type": "function"
    },
    {
      "inputs": [
        {
          "internalType": "uint256",
          "name": "",
          "type": "uint256"
        }
      ],
      "name": "boxes",
      "outputs": [
        {
          "internalType": "string",
          "name": "name",
          "type": "string"
        },
        {
          "internalType": "uint256",
          "name": "price",
          "type": "uint256"
        },
        {
          "internalType": "uint256",
          "name": "burnAmount",
          "type": "uint256"
        },
        {
          "internalType": "string",
          "name": "cid",
          "type": "string"
        },
        {
          "internalType": "uint256",
          "name": "maxSupply",
          "type": "uint256"
        },
        {
          "internalType": "uint256",
          "name": "remainingSupply",
          "type": "uint256"
        },
        {
          "internalType": "bool",
          "name": "mintEnabled",
          "type": "bool"
        }
      ],
      "stateMutability": "view",
      "type": "function"
    },
    {
      "inputs": [],
      "name": "contractURI",
      "outputs": [
        {
          "internalType": "string",
          "name": "",
          "type": "string"
        }
      ],
      "stateMutability": "pure",
      "type": "function"
    },
    {
      "inputs": [],
      "name": "eggAddress",
      "outputs": [
        {
          "internalType": "address",
          "name": "",
          "type": "address"
        }
      ],
      "stateMutability": "view",
      "type": "function"
    },
    {
      "inputs": [
        {
          "internalType": "uint256",
          "name": "tokenId",
          "type": "uint256"
        }
      ],
      "name": "getApproved",
      "outputs": [
        {
          "internalType": "address",
          "name": "",
          "type": "address"
        }
      ],
      "stateMutability": "view",
      "type": "function"
    },
    {
      "inputs": [
        {
          "internalType": "uint256",
          "name": "_boxId",
          "type": "uint256"
        }
      ],
      "name": "getMysteryBoxCid",
      "outputs": [
        {
          "internalType": "string",
          "name": "",
          "type": "string"
        }
      ],
      "stateMutability": "view",
      "type": "function"
    },
    {
      "inputs": [
        {
          "internalType": "uint256",
          "name": "_boxId",
          "type": "uint256"
        }
      ],
      "name": "getMysteryBoxName",
      "outputs": [
        {
          "internalType": "string",
          "name": "",
          "type": "string"
        }
      ],
      "stateMutability": "view",
      "type": "function"
    },
    {
      "inputs": [
        {
          "internalType": "uint256",
          "name": "_boxId",
          "type": "uint256"
        }
      ],
      "name": "getMysteryBoxPrice",
      "outputs": [
        {
          "internalType": "uint256",
          "name": "",
          "type": "uint256"
        }
      ],
      "stateMutability": "view",
      "type": "function"
    },
    {
      "inputs": [
        {
          "internalType": "uint256",
          "name": "_boxId",
          "type": "uint256"
        }
      ],
      "name": "getPrice",
      "outputs": [
        {
          "internalType": "uint256",
          "name": "",
          "type": "uint256"
        }
      ],
      "stateMutability": "view",
      "type": "function"
    },
    {
      "inputs": [
        {
          "internalType": "address",
          "name": "owner",
          "type": "address"
        },
        {
          "internalType": "address",
          "name": "operator",
          "type": "address"
        }
      ],
      "name": "isApprovedForAll",
      "outputs": [
        {
          "internalType": "bool",
          "name": "",
          "type": "bool"
        }
      ],
      "stateMutability": "view",
      "type": "function"
    },
    {
      "inputs": [
        {
          "internalType": "address",
          "name": "_user",
          "type": "address"
        }
      ],
      "name": "isWhitelisted",
      "outputs": [
        {
          "internalType": "bool",
          "name": "",
          "type": "bool"
        }
      ],
      "stateMutability": "view",
      "type": "function"
    },
    {
      "inputs": [
        {
          "internalType": "uint256",
          "name": "_boxId",
          "type": "uint256"
        },
        {
          "internalType": "uint256",
          "name": "_quantity",
          "type": "uint256"
        }
      ],
      "name": "mint",
      "outputs": [],
      "stateMutability": "nonpayable",
      "type": "function"
    },
    {
      "inputs": [],
      "name": "name",
      "outputs": [
        {
          "internalType": "string",
          "name": "",
          "type": "string"
        }
      ],
      "stateMutability": "view",
      "type": "function"
    },
    {
      "inputs": [
        {
          "internalType": "uint256",
          "name": "_tokenId",
          "type": "uint256"
        }
      ],
      "name": "openBox",
      "outputs": [],
      "stateMutability": "nonpayable",
      "type": "function"
    },
    {
      "inputs": [],
      "name": "owner",
      "outputs": [
        {
          "internalType": "address",
          "name": "",
          "type": "address"
        }
      ],
      "stateMutability": "view",
      "type": "function"
    },
    {
      "inputs": [
        {
          "internalType": "uint256",
          "name": "tokenId",
          "type": "uint256"
        }
      ],
      "name": "ownerOf",
      "outputs": [
        {
          "internalType": "address",
          "name": "",
          "type": "address"
        }
      ],
      "stateMutability": "view",
      "type": "function"
    },
    {
      "inputs": [
        {
          "internalType": "uint256",
          "name": "_boxId",
          "type": "uint256"
        }
      ],
      "name": "removeMysteryBox",
      "outputs": [],
      "stateMutability": "nonpayable",
      "type": "function"
    },
    {
      "inputs": [],
      "name": "renounceOwnership",
      "outputs": [],
      "stateMutability": "nonpayable",
      "type": "function"
    },
    {
      "inputs": [
        {
          "internalType": "address",
          "name": "from",
          "type": "address"
        },
        {
          "internalType": "address",
          "name": "to",
          "type": "address"
        },
        {
          "internalType": "uint256",
          "name": "tokenId",
          "type": "uint256"
        }
      ],
      "name": "safeTransferFrom",
      "outputs": [],
      "stateMutability": "nonpayable",
      "type": "function"
    },
    {
      "inputs": [
        {
          "internalType": "address",
          "name": "from",
          "type": "address"
        },
        {
          "internalType": "address",
          "name": "to",
          "type": "address"
        },
        {
          "internalType": "uint256",
          "name": "tokenId",
          "type": "uint256"
        },
        {
          "internalType": "bytes",
          "name": "data",
          "type": "bytes"
        }
      ],
      "name": "safeTransferFrom",
      "outputs": [],
      "stateMutability": "nonpayable",
      "type": "function"
    },
    {
      "inputs": [
        {
          "internalType": "address",
          "name": "operator",
          "type": "address"
        },
        {
          "internalType": "bool",
          "name": "approved",
          "type": "bool"
        }
      ],
      "name": "setApprovalForAll",
      "outputs": [],
      "stateMutability": "nonpayable",
      "type": "function"
    },
    {
      "inputs": [
        {
          "internalType": "uint256",
          "name": "_boxId",
          "type": "uint256"
        },
        {
          "internalType": "bool",
          "name": "_state",
          "type": "bool"
        }
      ],
      "name": "setMintEnabled",
      "outputs": [],
      "stateMutability": "nonpayable",
      "type": "function"
    },
    {
      "inputs": [
        {
          "internalType": "uint256",
          "name": "_boxId",
          "type": "uint256"
        },
        {
          "internalType": "uint256",
          "name": "_price",
          "type": "uint256"
        }
      ],
      "name": "setPrice",
      "outputs": [],
      "stateMutability": "nonpayable",
      "type": "function"
    },
    {
      "inputs": [
        {
          "internalType": "address[]",
          "name": "_whitelist",
          "type": "address[]"
        }
      ],
      "name": "setWhitelist",
      "outputs": [],
      "stateMutability": "nonpayable",
      "type": "function"
    },
    {
      "inputs": [],
      "name": "sneakerAddress",
      "outputs": [
        {
          "internalType": "address",
          "name": "",
          "type": "address"
        }
      ],
      "stateMutability": "view",
      "type": "function"
    },
    {
      "inputs": [
        {
          "internalType": "bytes4",
          "name": "interfaceId",
          "type": "bytes4"
        }
      ],
      "name": "supportsInterface",
      "outputs": [
        {
          "internalType": "bool",
          "name": "",
          "type": "bool"
        }
      ],
      "stateMutability": "view",
      "type": "function"
    },
    {
      "inputs": [],
      "name": "symbol",
      "outputs": [
        {
          "internalType": "string",
          "name": "",
          "type": "string"
        }
      ],
      "stateMutability": "view",
      "type": "function"
    },
    {
      "inputs": [
        {
          "internalType": "uint256",
          "name": "_tokenId",
          "type": "uint256"
        }
      ],
      "name": "tokenURI",
      "outputs": [
        {
          "internalType": "string",
          "name": "",
          "type": "string"
        }
      ],
      "stateMutability": "view",
      "type": "function"
    },
    {
      "inputs": [],
      "name": "totalSupply",
      "outputs": [
        {
          "internalType": "uint256",
          "name": "",
          "type": "uint256"
        }
      ],
      "stateMutability": "view",
      "type": "function"
    },
    {
      "inputs": [
        {
          "internalType": "address",
          "name": "from",
          "type": "address"
        },
        {
          "internalType": "address",
          "name": "to",
          "type": "address"
        },
        {
          "internalType": "uint256",
          "name": "tokenId",
          "type": "uint256"
        }
      ],
      "name": "transferFrom",
      "outputs": [],
      "stateMutability": "nonpayable",
      "type": "function"
    },
    {
      "inputs": [
        {
          "internalType": "address",
          "name": "newOwner",
          "type": "address"
        }
      ],
      "name": "transferOwnership",
      "outputs": [],
      "stateMutability": "nonpayable",
      "type": "function"
    },
    {
      "inputs": [],
      "name": "uriPrefix",
      "outputs": [
        {
          "internalType": "string",
          "name": "",
          "type": "string"
        }
      ],
      "stateMutability": "view",
      "type": "function"
    },
    {
      "inputs": [],
      "name": "uriSuffix",
      "outputs": [
        {
          "internalType": "string",
          "name": "",
          "type": "string"
        }
      ],
      "stateMutability": "view",
      "type": "function"
    },
    {
      "inputs": [],
      "name": "withdraw",
      "outputs": [],
      "stateMutability": "nonpayable",
      "type": "function"
    }
  ],
  "bytecode": "0x608060405260405180602001604052806000815250600990805190602001906200002b929190620005a4565b506040518060400160405280600581526020017f2e6a736f6e000000000000000000000000000000000000000000000000000000815250600a908051906020019062000079929190620005a4565b503480156200008757600080fd5b50604051620057ca380380620057ca8339818101604052810190620000ad9190620006be565b733cc6cdda760b79bafa08df41ecfa224f810dceb660016040518060400160405280600b81526020017f4d79737465727920426f780000000000000000000000000000000000000000008152506040518060400160405280600281526020017f4d420000000000000000000000000000000000000000000000000000000000008152506200015062000144620004cf60201b60201c565b620004d760201b60201c565b816003908051906020019062000168929190620005a4565b50806004908051906020019062000181929190620005a4565b50620001926200059b60201b60201c565b600181905550505060006daaeb6d7670e522a718067333cd4e73ffffffffffffffffffffffffffffffffffffffff163b11156200038f57801562000255576daaeb6d7670e522a718067333cd4e73ffffffffffffffffffffffffffffffffffffffff16637d3e3dbe30846040518363ffffffff1660e01b81526004016200021b9291906200072b565b600060405180830381600087803b1580156200023657600080fd5b505af11580156200024b573d6000803e3d6000fd5b505050506200038e565b600073ffffffffffffffffffffffffffffffffffffffff168273ffffffffffffffffffffffffffffffffffffffff16146200030f576daaeb6d7670e522a718067333cd4e73ffffffffffffffffffffffffffffffffffffffff1663a0af290330846040518363ffffffff1660e01b8152600401620002d59291906200072b565b600060405180830381600087803b158015620002f057600080fd5b505af115801562000305573d6000803e3d6000fd5b505050506200038d565b6daaeb6d7670e522a718067333cd4e73ffffffffffffffffffffffffffffffffffffffff16634420e486306040518263ffffffff1660e01b815260040162000358919062000758565b600060405180830381600087803b1580156200037357600080fd5b505af115801562000388573d6000803e3d6000fd5b505050505b5b5b5050600073ffffffffffffffffffffffffffffffffffffffff168373ffffffffffffffffffffffffffffffffffffffff160362000403576040517f08c379a0000000000000000000000000000000000000000000000000000000008152600401620003fa90620007d6565b60405180910390fd5b82600b60006101000a81548173ffffffffffffffffffffffffffffffffffffffff021916908373ffffffffffffffffffffffffffffffffffffffff16021790555081600c60006101000a81548173ffffffffffffffffffffffffffffffffffffffff021916908373ffffffffffffffffffffffffffffffffffffffff16021790555080600d60006101000a81548173ffffffffffffffffffffffffffffffffffffffff021916908373ffffffffffffffffffffffffffffffffffffffff1602179055505050506200085c565b600033905090565b60008060009054906101000a900473ffffffffffffffffffffffffffffffffffffffff169050816000806101000a81548173ffffffffffffffffffffffffffffffffffffffff021916908373ffffffffffffffffffffffffffffffffffffffff1602179055508173ffffffffffffffffffffffffffffffffffffffff168173ffffffffffffffffffffffffffffffffffffffff167f8be0079c531659141344cd1fd0a4f28419497f9722a3daafe3b4186f6b6457e060405160405180910390a35050565b60006001905090565b828054620005b29062000827565b90600052602060002090601f016020900481019282620005d6576000855562000622565b82601f10620005f157805160ff191683800117855562000622565b8280016001018555821562000622579182015b828111156200062157825182559160200191906001019062000604565b5b50905062000631919062000635565b5090565b5b808211156200065057600081600090555060010162000636565b5090565b600080fd5b600073ffffffffffffffffffffffffffffffffffffffff82169050919050565b6000620006868262000659565b9050919050565b620006988162000679565b8114620006a457600080fd5b50565b600081519050620006b8816200068d565b92915050565b600080600060608486031215620006da57620006d962000654565b5b6000620006ea86828701620006a7565b9350506020620006fd86828701620006a7565b92505060406200071086828701620006a7565b9150509250925092565b620007258162000679565b82525050565b60006040820190506200074260008301856200071a565b6200075160208301846200071a565b9392505050565b60006020820190506200076f60008301846200071a565b92915050565b600082825260208201905092915050565b7f496e76616c696420555344432061646472657373000000000000000000000000600082015250565b6000620007be60148362000775565b9150620007cb8262000786565b602082019050919050565b60006020820190508181036000830152620007f181620007af565b9050919050565b7f4e487b7100000000000000000000000000000000000000000000000000000000600052602260045260246000fd5b600060028204905060018216806200084057607f821691505b602082108103620008565762000855620007f8565b5b50919050565b614f5e806200086c6000396000f3fe608060405234801561001057600080fd5b50600436106102325760003560e01c806372fc44cc11610130578063c87b56dd116100b8578063ebbc9a0b1161007c578063ebbc9a0b146106a3578063f2fde38b146106d3578063f4217648146106ef578063f7d975771461070b578063fb6f7a9a1461072757610232565b8063c87b56dd146105d7578063e757223014610607578063e8a3d48514610637578063e930320914610655578063e985e9c51461067357610232565b806395d89b41116100ff57806395d89b4114610549578063a22cb46514610567578063b1e5e2b714610583578063b88d4fde1461059f578063c5087cac146105bb57610232565b806372fc44cc146104af578063765f1b0c146104df5780638ba4cc3c1461050f5780638da5cb5b1461052b57610232565b80633ccfd60b116101be5780635631ce36116101825780635631ce361461040b57806362b99ad4146104275780636352211e1461044557806370a0823114610475578063715018a6146104a557610232565b80633ccfd60b1461037557806342842e0e1461037f57806349a9493c1461039b5780634ed3faf2146103b75780635503a0e8146103ed57610232565b806318160ddd1161020557806318160ddd146102d15780631b2ef1ca146102ef57806323b872dd1461030b5780632c7d86ba146103275780633af32abf1461034557610232565b806301ffc9a71461023757806306fdde0314610267578063081812fc14610285578063095ea7b3146102b5575b600080fd5b610251600480360381019061024c9190613af6565b610745565b60405161025e9190613b3e565b60405180910390f35b61026f6107d7565b60405161027c9190613bf2565b60405180910390f35b61029f600480360381019061029a9190613c4a565b610869565b6040516102ac9190613cb8565b60405180910390f35b6102cf60048036038101906102ca9190613cff565b6108e8565b005b6102d9610a2c565b6040516102e69190613d4e565b60405180910390f35b61030960048036038101906103049190613d69565b610a43565b005b61032560048036038101906103209190613da9565b610ca7565b005b61032f610e89565b60405161033c9190613cb8565b60405180910390f35b61035f600480360381019061035a9190613dfc565b610eaf565b60405161036c9190613b3e565b60405180910390f35b61037d610f55565b005b61039960048036038101906103949190613da9565b6111cc565b005b6103b560048036038101906103b09190613e55565b6113ae565b005b6103d160048036038101906103cc9190613c4a565b61143e565b6040516103e49796959493929190613e95565b60405180910390f35b6103f56115ad565b6040516104029190613bf2565b60405180910390f35b61042560048036038101906104209190613c4a565b61163b565b005b61042f6117f9565b60405161043c9190613bf2565b60405180910390f35b61045f600480360381019061045a9190613c4a565b611887565b60405161046c9190613cb8565b60405180910390f35b61048f600480360381019061048a9190613dfc565b611899565b60405161049c9190613d4e565b60405180910390f35b6104ad611951565b005b6104c960048036038101906104c49190613c4a565b611965565b6040516104d69190613bf2565b60405180910390f35b6104f960048036038101906104f49190613c4a565b611a63565b6040516105069190613d4e565b60405180910390f35b61052960048036038101906105249190613cff565b611ad9565b005b610533611aef565b6040516105409190613cb8565b60405180910390f35b610551611b18565b60405161055e9190613bf2565b60405180910390f35b610581600480360381019061057c9190613f12565b611baa565b005b61059d60048036038101906105989190613c4a565b611d21565b005b6105b960048036038101906105b49190614087565b611f4f565b005b6105d560048036038101906105d091906141ab565b612134565b005b6105f160048036038101906105ec9190613c4a565b612228565b6040516105fe9190613bf2565b60405180910390f35b610621600480360381019061061c9190613c4a565b612337565b60405161062e9190613d4e565b60405180910390f35b61063f612366565b60405161064c9190613bf2565b60405180910390f35b61065d612386565b60405161066a9190613cb8565b60405180910390f35b61068d6004803603810190610688919061424a565b6123ac565b60405161069a9190613b3e565b60405180910390f35b6106bd60048036038101906106b89190613c4a565b612440565b6040516106ca9190613bf2565b60405180910390f35b6106ed60048036038101906106e89190613dfc565b61253e565b005b61070960048036038101906107049190614352565b6125c1565b005b61072560048036038101906107209190613d69565b6125f1565b005b61072f61266e565b60405161073c9190613cb8565b60405180910390f35b60006301ffc9a760e01b827bffffffffffffffffffffffffffffffffffffffffffffffffffffffff191614806107a057506380ac58cd60e01b827bffffffffffffffffffffffffffffffffffffffffffffffffffffffff1916145b806107d05750635b5e139f60e01b827bffffffffffffffffffffffffffffffffffffffffffffffffffffffff1916145b9050919050565b6060600380546107e6906143ca565b80601f0160208091040260200160405190810160405280929190818152602001828054610812906143ca565b801561085f5780601f106108345761010080835404028352916020019161085f565b820191906000526020600020905b81548152906001019060200180831161084257829003601f168201915b5050505050905090565b600061087482612694565b6108aa576040517fcf4700e400000000000000000000000000000000000000000000000000000000815260040160405180910390fd5b6007600083815260200190815260200160002060000160009054906101000a900473ffffffffffffffffffffffffffffffffffffffff169050919050565b60006108f382611887565b90508073ffffffffffffffffffffffffffffffffffffffff166109146126f3565b73ffffffffffffffffffffffffffffffffffffffff1614610977576109408161093b6126f3565b6123ac565b610976576040517fcfb3b94200000000000000000000000000000000000000000000000000000000815260040160405180910390fd5b5b826007600084815260200190815260200160002060000160006101000a81548173ffffffffffffffffffffffffffffffffffffffff021916908373ffffffffffffffffffffffffffffffffffffffff160217905550818373ffffffffffffffffffffffffffffffffffffffff168273ffffffffffffffffffffffffffffffffffffffff167f8c5be1e5ebec7d5bd14f71427d1e84f3dd0314c0f7b2291e5b200ac8c7c3b92560405160405180910390a4505050565b6000610a366126fb565b6002546001540303905090565b600f805490508210610a8a576040517f08c379a0000000000000000000000000000000000000000000000000000000008152600401610a8190614447565b60405180910390fd5b600f8281548110610a9e57610a9d614467565b5b906000526020600020906007020160060160009054906101000a900460ff16610afc576040517f08c379a0000000000000000000000000000000000000000000000000000000008152600401610af3906144e2565b60405180910390fd5b80600f8381548110610b1157610b10614467565b5b9060005260206000209060070201600501541015610b64576040517f08c379a0000000000000000000000000000000000000000000000000000000008152600401610b5b9061454e565b60405180910390fd5b60005b81811015610bb657826010600083610b7d612704565b610b856126fb565b610b8f919061459d565b610b99919061459d565b815260200190815260200160002081905550806001019050610b67565b50610bc033610eaf565b610c2757610c26333083610bd386612337565b610bdd91906145f3565b600b60009054906101000a900473ffffffffffffffffffffffffffffffffffffffff1673ffffffffffffffffffffffffffffffffffffffff16612717909392919063ffffffff16565b5b610c3133826127a0565b600f8281548110610c4557610c44614467565b5b90600052602060002090600702016005016000815480929190610c679061464d565b91905055507ff5535ccd9f40eb4bc73fac8710dbb2effbf3329da83f62b35d9aa88161bb85ca33604051610c9b9190613cb8565b60405180910390a15050565b8260006daaeb6d7670e522a718067333cd4e73ffffffffffffffffffffffffffffffffffffffff163b1115610e77573373ffffffffffffffffffffffffffffffffffffffff168173ffffffffffffffffffffffffffffffffffffffff1603610d1957610d1484848461295c565b610e83565b6daaeb6d7670e522a718067333cd4e73ffffffffffffffffffffffffffffffffffffffff1663c617113430336040518363ffffffff1660e01b8152600401610d62929190614676565b602060405180830381865afa158015610d7f573d6000803e3d6000fd5b505050506040513d601f19601f82011682018060405250810190610da391906146b4565b8015610e3557506daaeb6d7670e522a718067333cd4e73ffffffffffffffffffffffffffffffffffffffff1663c617113430836040518363ffffffff1660e01b8152600401610df3929190614676565b602060405180830381865afa158015610e10573d6000803e3d6000fd5b505050506040513d601f19601f82011682018060405250810190610e3491906146b4565b5b610e7657336040517fede71dcc000000000000000000000000000000000000000000000000000000008152600401610e6d9190613cb8565b60405180910390fd5b5b610e8284848461295c565b5b50505050565b600c60009054906101000a900473ffffffffffffffffffffffffffffffffffffffff1681565b600080600090505b600e80549050811015610f4a578273ffffffffffffffffffffffffffffffffffffffff16600e8281548110610eef57610eee614467565b5b9060005260206000200160009054906101000a900473ffffffffffffffffffffffffffffffffffffffff1673ffffffffffffffffffffffffffffffffffffffff1603610f3f576001915050610f50565b806001019050610eb7565b50600090505b919050565b610f5d612c7e565b3373ffffffffffffffffffffffffffffffffffffffff166108fc479081150290604051600060405180830381858888f19350505050158015610fa3573d6000803e3d6000fd5b50600b60009054906101000a900473ffffffffffffffffffffffffffffffffffffffff1673ffffffffffffffffffffffffffffffffffffffff1663095ea7b330600b60009054906101000a900473ffffffffffffffffffffffffffffffffffffffff1673ffffffffffffffffffffffffffffffffffffffff166370a08231306040518263ffffffff1660e01b815260040161103e9190613cb8565b602060405180830381865afa15801561105b573d6000803e3d6000fd5b505050506040513d601f19601f8201168201806040525081019061107f91906146f6565b6040518363ffffffff1660e01b815260040161109c929190614723565b6020604051808303816000875af11580156110bb573d6000803e3d6000fd5b505050506040513d601f19601f820116820180604052508101906110df91906146b4565b506111ca3033600b60009054906101000a900473ffffffffffffffffffffffffffffffffffffffff1673ffffffffffffffffffffffffffffffffffffffff166370a08231306040518263ffffffff1660e01b81526004016111409190613cb8565b602060405180830381865afa15801561115d573d6000803e3d6000fd5b505050506040513d601f19601f8201168201806040525081019061118191906146f6565b600b60009054906101000a900473ffffffffffffffffffffffffffffffffffffffff1673ffffffffffffffffffffffffffffffffffffffff16612717909392919063ffffffff16565b565b8260006daaeb6d7670e522a718067333cd4e73ffffffffffffffffffffffffffffffffffffffff163b111561139c573373ffffffffffffffffffffffffffffffffffffffff168173ffffffffffffffffffffffffffffffffffffffff160361123e57611239848484612cfc565b6113a8565b6daaeb6d7670e522a718067333cd4e73ffffffffffffffffffffffffffffffffffffffff1663c617113430336040518363ffffffff1660e01b8152600401611287929190614676565b602060405180830381865afa1580156112a4573d6000803e3d6000fd5b505050506040513d601f19601f820116820180604052508101906112c891906146b4565b801561135a57506daaeb6d7670e522a718067333cd4e73ffffffffffffffffffffffffffffffffffffffff1663c617113430836040518363ffffffff1660e01b8152600401611318929190614676565b602060405180830381865afa158015611335573d6000803e3d6000fd5b505050506040513d601f19601f8201168201806040525081019061135991906146b4565b5b61139b57336040517fede71dcc0000000000000000000000000000000000000000000000000000000081526004016113929190613cb8565b60405180910390fd5b5b6113a7848484612cfc565b5b50505050565b6113b6612c7e565b600f8054905082106113fd576040517f08c379a00000000000000000000000000000000000000000000000000000000081526004016113f490614447565b60405180910390fd5b80600f838154811061141257611411614467565b5b906000526020600020906007020160060160006101000a81548160ff0219169083151502179055505050565b600f818154811061144e57600080fd5b9060005260206000209060070201600091509050806000018054611471906143ca565b80601f016020809104026020016040519081016040528092919081815260200182805461149d906143ca565b80156114ea5780601f106114bf576101008083540402835291602001916114ea565b820191906000526020600020905b8154815290600101906020018083116114cd57829003601f168201915b50505050509080600101549080600201549080600301805461150b906143ca565b80601f0160208091040260200160405190810160405280929190818152602001828054611537906143ca565b80156115845780601f1061155957610100808354040283529160200191611584565b820191906000526020600020905b81548152906001019060200180831161156757829003601f168201915b5050505050908060040154908060050154908060060160009054906101000a900460ff16905087565b600a80546115ba906143ca565b80601f01602080910402602001604051908101604052809291908181526020018280546115e6906143ca565b80156116335780601f1061160857610100808354040283529160200191611633565b820191906000526020600020905b81548152906001019060200180831161161657829003601f168201915b505050505081565b611643612c7e565b600f80549050811061168a576040517f08c379a000000000000000000000000000000000000000000000000000000000815260040161168190614447565b60405180910390fd5b600f6001600f8054905061169e919061474c565b815481106116af576116ae614467565b5b9060005260206000209060070201600f82815481106116d1576116d0614467565b5b906000526020600020906007020160008201816000019080546116f3906143ca565b6116fe92919061386f565b5060018201548160010155600282015481600201556003820181600301908054611727906143ca565b61173292919061386f565b5060048201548160040155600582015481600501556006820160009054906101000a900460ff168160060160006101000a81548160ff021916908315150217905550905050600f80548061178957611788614780565b5b6001900381819060005260206000209060070201600080820160006117ae91906138fc565b600182016000905560028201600090556003820160006117ce91906138fc565b600482016000905560058201600090556006820160006101000a81549060ff02191690555050905550565b60098054611806906143ca565b80601f0160208091040260200160405190810160405280929190818152602001828054611832906143ca565b801561187f5780601f106118545761010080835404028352916020019161187f565b820191906000526020600020905b81548152906001019060200180831161186257829003601f168201915b505050505081565b600061189282612d1c565b9050919050565b60008073ffffffffffffffffffffffffffffffffffffffff168273ffffffffffffffffffffffffffffffffffffffff1603611900576040517f8f4eb60400000000000000000000000000000000000000000000000000000000815260040160405180910390fd5b67ffffffffffffffff600660008473ffffffffffffffffffffffffffffffffffffffff1673ffffffffffffffffffffffffffffffffffffffff16815260200190815260200160002054169050919050565b611959612c7e565b6119636000612de8565b565b6060600f8054905082106119ae576040517f08c379a00000000000000000000000000000000000000000000000000000000081526004016119a590614447565b60405180910390fd5b600f82815481106119c2576119c1614467565b5b906000526020600020906007020160000180546119de906143ca565b80601f0160208091040260200160405190810160405280929190818152602001828054611a0a906143ca565b8015611a575780601f10611a2c57610100808354040283529160200191611a57565b820191906000526020600020905b815481529060010190602001808311611a3a57829003601f168201915b50505050509050919050565b6000600f805490508210611aac576040517f08c379a0000000000000000000000000000000000000000000000000000000008152600401611aa390614447565b60405180910390fd5b600f8281548110611ac057611abf614467565b5b9060005260206000209060070201600101549050919050565b611ae1612c7e565b611aeb82826127a0565b5050565b60008060009054906101000a900473ffffffffffffffffffffffffffffffffffffffff16905090565b606060048054611b27906143ca565b80601f0160208091040260200160405190810160405280929190818152602001828054611b53906143ca565b8015611ba05780601f10611b7557610100808354040283529160200191611ba0565b820191906000526020600020905b815481529060010190602001808311611b8357829003601f168201915b5050505050905090565b611bb26126f3565b73ffffffffffffffffffffffffffffffffffffffff168273ffffffffffffffffffffffffffffffffffffffff1603611c16576040517fb06307db00000000000000000000000000000000000000000000000000000000815260040160405180910390fd5b8060086000611c236126f3565b73ffffffffffffffffffffffffffffffffffffffff1673ffffffffffffffffffffffffffffffffffffffff16815260200190815260200160002060008473ffffffffffffffffffffffffffffffffffffffff1673ffffffffffffffffffffffffffffffffffffffff16815260200190815260200160002060006101000a81548160ff0219169083151502179055508173ffffffffffffffffffffffffffffffffffffffff16611cd06126f3565b73ffffffffffffffffffffffffffffffffffffffff167f17307eab39ab6107e8899845ad3d59bd9653f200f220920489ca2b5937696c3183604051611d159190613b3e565b60405180910390a35050565b3373ffffffffffffffffffffffffffffffffffffffff16611d4182611887565b73ffffffffffffffffffffffffffffffffffffffff1614611d97576040517f08c379a0000000000000000000000000000000000000000000000000000000008152600401611d8e906147fb565b60405180910390fd5b3273ffffffffffffffffffffffffffffffffffffffff16611db6612eac565b73ffffffffffffffffffffffffffffffffffffffff1614611e0c576040517f08c379a0000000000000000000000000000000000000000000000000000000008152600401611e0390614867565b60405180910390fd5b600060106000838152602001908152602001600020549050600c60009054906101000a900473ffffffffffffffffffffffffffffffffffffffff1673ffffffffffffffffffffffffffffffffffffffff166391ff7e0133836040518363ffffffff1660e01b8152600401611e81929190614723565b600060405180830381600087803b158015611e9b57600080fd5b505af1158015611eaf573d6000803e3d6000fd5b50505050600d60009054906101000a900473ffffffffffffffffffffffffffffffffffffffff1673ffffffffffffffffffffffffffffffffffffffff166391ff7e0133836040518363ffffffff1660e01b8152600401611f10929190614723565b600060405180830381600087803b158015611f2a57600080fd5b505af1158015611f3e573d6000803e3d6000fd5b50505050611f4b82612eb4565b5050565b8360006daaeb6d7670e522a718067333cd4e73ffffffffffffffffffffffffffffffffffffffff163b1115612120573373ffffffffffffffffffffffffffffffffffffffff168173ffffffffffffffffffffffffffffffffffffffff1603611fc257611fbd85858585612ec2565b61212d565b6daaeb6d7670e522a718067333cd4e73ffffffffffffffffffffffffffffffffffffffff1663c617113430336040518363ffffffff1660e01b815260040161200b929190614676565b602060405180830381865afa158015612028573d6000803e3d6000fd5b505050506040513d601f19601f8201168201806040525081019061204c91906146b4565b80156120de57506daaeb6d7670e522a718067333cd4e73ffffffffffffffffffffffffffffffffffffffff1663c617113430836040518363ffffffff1660e01b815260040161209c929190614676565b602060405180830381865afa1580156120b9573d6000803e3d6000fd5b505050506040513d601f19601f820116820180604052508101906120dd91906146b4565b5b61211f57336040517fede71dcc0000000000000000000000000000000000000000000000000000000081526004016121169190613cb8565b60405180910390fd5b5b61212c85858585612ec2565b5b5050505050565b61213c612c7e565b600f6040518060e001604052808681526020018581526020016000815260200184815260200183815260200183815260200160011515815250908060018154018082558091505060019003906000526020600020906007020160009091909190915060008201518160000190805190602001906121ba92919061393c565b50602082015181600101556040820151816002015560608201518160030190805190602001906121eb92919061393c565b506080820151816004015560a0820151816005015560c08201518160060160006101000a81548160ff021916908315150217905550505050505050565b606061223382612694565b612272576040517f08c379a0000000000000000000000000000000000000000000000000000000008152600401612269906148f9565b60405180910390fd5b600f805490506010600084815260200190815260200160002054106122cc576040517f08c379a00000000000000000000000000000000000000000000000000000000081526004016122c390614447565b60405180910390fd5b600f6010600084815260200190815260200160002054815481106122f3576122f2614467565b5b906000526020600020906007020160030161230d83612f35565b600a60405160200161232193929190614a81565b6040516020818303038152906040529050919050565b6000600f828154811061234d5761234c614467565b5b9060005260206000209060070201600101549050919050565b6060604051806060016040528060368152602001614ef360369139905090565b600b60009054906101000a900473ffffffffffffffffffffffffffffffffffffffff1681565b6000600860008473ffffffffffffffffffffffffffffffffffffffff1673ffffffffffffffffffffffffffffffffffffffff16815260200190815260200160002060008373ffffffffffffffffffffffffffffffffffffffff1673ffffffffffffffffffffffffffffffffffffffff16815260200190815260200160002060009054906101000a900460ff16905092915050565b6060600f805490508210612489576040517f08c379a000000000000000000000000000000000000000000000000000000000815260040161248090614447565b60405180910390fd5b600f828154811061249d5761249c614467565b5b906000526020600020906007020160030180546124b9906143ca565b80601f01602080910402602001604051908101604052809291908181526020018280546124e5906143ca565b80156125325780601f1061250757610100808354040283529160200191612532565b820191906000526020600020905b81548152906001019060200180831161251557829003601f168201915b50505050509050919050565b612546612c7e565b600073ffffffffffffffffffffffffffffffffffffffff168173ffffffffffffffffffffffffffffffffffffffff16036125b5576040517f08c379a00000000000000000000000000000000000000000000000000000000081526004016125ac90614b3a565b60405180910390fd5b6125be81612de8565b50565b6125c9612c7e565b600e60006125d791906139c2565b80600e90805190602001906125ed9291906139e3565b5050565b6125f9612c7e565b600f805490508210612640576040517f08c379a000000000000000000000000000000000000000000000000000000000815260040161263790614447565b60405180910390fd5b80600f838154811061265557612654614467565b5b9060005260206000209060070201600101819055505050565b600d60009054906101000a900473ffffffffffffffffffffffffffffffffffffffff1681565b60008161269f6126fb565b111580156126ae575060015482105b80156126ec575060007c0100000000000000000000000000000000000000000000000000000000600560008581526020019081526020016000205416145b9050919050565b600033905090565b60006001905090565b600061270e6126fb565b60015403905090565b61279a846323b872dd60e01b85858560405160240161273893929190614b5a565b604051602081830303815290604052907bffffffffffffffffffffffffffffffffffffffffffffffffffffffff19166020820180517bffffffffffffffffffffffffffffffffffffffffffffffffffffffff8381831617835250505050613003565b50505050565b60006001549050600082036127e1576040517fb562e8dd00000000000000000000000000000000000000000000000000000000815260040160405180910390fd5b6127ee60008483856130ca565b600160406001901b178202600660008573ffffffffffffffffffffffffffffffffffffffff1673ffffffffffffffffffffffffffffffffffffffff168152602001908152602001600020600082825401925050819055506128658361285660008660006130d0565b61285f856130f8565b17613108565b6005600083815260200190815260200160002081905550600080838301905073ffffffffffffffffffffffffffffffffffffffff85169150828260007fddf252ad1be2c89b69c2b068fc378daa952ba7f163c4a11628f55a4df523b3ef600080a4600183015b81811461290657808360007fddf252ad1be2c89b69c2b068fc378daa952ba7f163c4a11628f55a4df523b3ef600080a46001810190506128cb565b5060008203612941576040517f2e07630000000000000000000000000000000000000000000000000000000000815260040160405180910390fd5b8060018190555050506129576000848385613133565b505050565b600061296782612d1c565b90508373ffffffffffffffffffffffffffffffffffffffff168173ffffffffffffffffffffffffffffffffffffffff16146129ce576040517fa114810000000000000000000000000000000000000000000000000000000000815260040160405180910390fd5b6000806129da84613139565b915091506129f081876129eb6126f3565b613160565b612a3c57612a0586612a006126f3565b6123ac565b612a3b576040517f59c896be00000000000000000000000000000000000000000000000000000000815260040160405180910390fd5b5b600073ffffffffffffffffffffffffffffffffffffffff168573ffffffffffffffffffffffffffffffffffffffff1603612aa2576040517fea553b3400000000000000000000000000000000000000000000000000000000815260040160405180910390fd5b612aaf86868660016130ca565b8015612aba57600082555b600660008773ffffffffffffffffffffffffffffffffffffffff1673ffffffffffffffffffffffffffffffffffffffff168152602001908152602001600020600081546001900391905081905550600660008673ffffffffffffffffffffffffffffffffffffffff1673ffffffffffffffffffffffffffffffffffffffff1681526020019081526020016000206000815460010191905081905550612b8885612b648888876130d0565b7c020000000000000000000000000000000000000000000000000000000017613108565b600560008681526020019081526020016000208190555060007c0200000000000000000000000000000000000000000000000000000000841603612c0e5760006001850190506000600560008381526020019081526020016000205403612c0c576001548114612c0b578360056000838152602001908152602001600020819055505b5b505b838573ffffffffffffffffffffffffffffffffffffffff168773ffffffffffffffffffffffffffffffffffffffff167fddf252ad1be2c89b69c2b068fc378daa952ba7f163c4a11628f55a4df523b3ef60405160405180910390a4612c768686866001613133565b505050505050565b612c86612eac565b73ffffffffffffffffffffffffffffffffffffffff16612ca4611aef565b73ffffffffffffffffffffffffffffffffffffffff1614612cfa576040517f08c379a0000000000000000000000000000000000000000000000000000000008152600401612cf190614bdd565b60405180910390fd5b565b612d1783838360405180602001604052806000815250611f4f565b505050565b60008082905080612d2b6126fb565b11612db157600154811015612db05760006005600083815260200190815260200160002054905060007c0100000000000000000000000000000000000000000000000000000000821603612dae575b60008103612da4576005600083600190039350838152602001908152602001600020549050612d7a565b8092505050612de3565b505b5b6040517fdf2d9b4200000000000000000000000000000000000000000000000000000000815260040160405180910390fd5b919050565b60008060009054906101000a900473ffffffffffffffffffffffffffffffffffffffff169050816000806101000a81548173ffffffffffffffffffffffffffffffffffffffff021916908373ffffffffffffffffffffffffffffffffffffffff1602179055508173ffffffffffffffffffffffffffffffffffffffff168173ffffffffffffffffffffffffffffffffffffffff167f8be0079c531659141344cd1fd0a4f28419497f9722a3daafe3b4186f6b6457e060405160405180910390a35050565b600033905090565b612ebf8160006131a4565b50565b612ecd848484610ca7565b60008373ffffffffffffffffffffffffffffffffffffffff163b14612f2f57612ef8848484846133f6565b612f2e576040517fd1a57ed600000000000000000000000000000000000000000000000000000000815260040160405180910390fd5b5b50505050565b606060006001612f4484613546565b01905060008167ffffffffffffffff811115612f6357612f62613f5c565b5b6040519080825280601f01601f191660200182016040528015612f955781602001600182028036833780820191505090505b509050600082602001820190505b600115612ff8578080600190039150507f3031323334353637383961626364656600000000000000000000000000000000600a86061a8153600a8581612fec57612feb614bfd565b5b04945060008503612fa3575b819350505050919050565b6000613065826040518060400160405280602081526020017f5361666545524332303a206c6f772d6c6576656c2063616c6c206661696c65648152508573ffffffffffffffffffffffffffffffffffffffff166136999092919063ffffffff16565b90506000815111156130c5578080602001905181019061308591906146b4565b6130c4576040517f08c379a00000000000000000000000000000000000000000000000000000000081526004016130bb90614c9e565b60405180910390fd5b5b505050565b50505050565b60008060e883901c905060e86130e78686846136b1565b62ffffff16901b9150509392505050565b60006001821460e11b9050919050565b600073ffffffffffffffffffffffffffffffffffffffff83169250814260a01b178317905092915050565b50505050565b60008060006007600085815260200190815260200160002090508092508254915050915091565b600073ffffffffffffffffffffffffffffffffffffffff8316925073ffffffffffffffffffffffffffffffffffffffff821691508382148383141790509392505050565b60006131af83612d1c565b905060008190506000806131c286613139565b91509150841561322b576131de81846131d96126f3565b613160565b61322a576131f3836131ee6126f3565b6123ac565b613229576040517f59c896be00000000000000000000000000000000000000000000000000000000815260040160405180910390fd5b5b5b6132398360008860016130ca565b801561324457600082555b600160806001901b03600660008573ffffffffffffffffffffffffffffffffffffffff1673ffffffffffffffffffffffffffffffffffffffff168152602001908152602001600020600082825401925050819055506132ec836132a9856000886130d0565b7c02000000000000000000000000000000000000000000000000000000007c01000000000000000000000000000000000000000000000000000000001717613108565b600560008881526020019081526020016000208190555060007c0200000000000000000000000000000000000000000000000000000000851603613372576000600187019050600060056000838152602001908152602001600020540361337057600154811461336f578460056000838152602001908152602001600020819055505b5b505b85600073ffffffffffffffffffffffffffffffffffffffff168473ffffffffffffffffffffffffffffffffffffffff167fddf252ad1be2c89b69c2b068fc378daa952ba7f163c4a11628f55a4df523b3ef60405160405180910390a46133dc836000886001613133565b600260008154809291906001019190505550505050505050565b60008373ffffffffffffffffffffffffffffffffffffffff1663150b7a0261341c6126f3565b8786866040518563ffffffff1660e01b815260040161343e9493929190614d13565b6020604051808303816000875af192505050801561347a57506040513d601f19601f820116820180604052508101906134779190614d74565b60015b6134f3573d80600081146134aa576040519150601f19603f3d011682016040523d82523d6000602084013e6134af565b606091505b5060008151036134eb576040517fd1a57ed600000000000000000000000000000000000000000000000000000000815260040160405180910390fd5b805181602001fd5b63150b7a0260e01b7bffffffffffffffffffffffffffffffffffffffffffffffffffffffff1916817bffffffffffffffffffffffffffffffffffffffffffffffffffffffff191614915050949350505050565b600080600090507a184f03e93ff9f4daa797ed6e38ed64bf6a1f01000000000000000083106135a4577a184f03e93ff9f4daa797ed6e38ed64bf6a1f010000000000000000838161359a57613599614bfd565b5b0492506040810190505b6d04ee2d6d415b85acef810000000083106135e1576d04ee2d6d415b85acef810000000083816135d7576135d6614bfd565b5b0492506020810190505b662386f26fc10000831061361057662386f26fc10000838161360657613605614bfd565b5b0492506010810190505b6305f5e1008310613639576305f5e100838161362f5761362e614bfd565b5b0492506008810190505b612710831061365e57612710838161365457613653614bfd565b5b0492506004810190505b60648310613681576064838161367757613676614bfd565b5b0492506002810190505b600a8310613690576001810190505b80915050919050565b60606136a884846000856136ba565b90509392505050565b60009392505050565b6060824710156136ff576040517f08c379a00000000000000000000000000000000000000000000000000000000081526004016136f690614e13565b60405180910390fd5b6000808673ffffffffffffffffffffffffffffffffffffffff1685876040516137289190614e6f565b60006040518083038185875af1925050503d8060008114613765576040519150601f19603f3d011682016040523d82523d6000602084013e61376a565b606091505b509150915061377b87838387613787565b92505050949350505050565b606083156137e95760008351036137e1576137a1856137fc565b6137e0576040517f08c379a00000000000000000000000000000000000000000000000000000000081526004016137d790614ed2565b60405180910390fd5b5b8290506137f4565b6137f3838361381f565b5b949350505050565b6000808273ffffffffffffffffffffffffffffffffffffffff163b119050919050565b6000825111156138325781518083602001fd5b806040517f08c379a00000000000000000000000000000000000000000000000000000000081526004016138669190613bf2565b60405180910390fd5b82805461387b906143ca565b90600052602060002090601f01602090048101928261389d57600085556138eb565b82601f106138ae57805485556138eb565b828001600101855582156138eb57600052602060002091601f016020900482015b828111156138ea5782548255916001019190600101906138cf565b5b5090506138f89190613a6d565b5090565b508054613908906143ca565b6000825580601f1061391a5750613939565b601f0160209004906000526020600020908101906139389190613a6d565b5b50565b828054613948906143ca565b90600052602060002090601f01602090048101928261396a57600085556139b1565b82601f1061398357805160ff19168380011785556139b1565b828001600101855582156139b1579182015b828111156139b0578251825591602001919060010190613995565b5b5090506139be9190613a6d565b5090565b50805460008255906000526020600020908101906139e09190613a6d565b50565b828054828255906000526020600020908101928215613a5c579160200282015b82811115613a5b5782518260006101000a81548173ffffffffffffffffffffffffffffffffffffffff021916908373ffffffffffffffffffffffffffffffffffffffff16021790555091602001919060010190613a03565b5b509050613a699190613a6d565b5090565b5b80821115613a86576000816000905550600101613a6e565b5090565b6000604051905090565b600080fd5b600080fd5b60007fffffffff0000000000000000000000000000000000000000000000000000000082169050919050565b613ad381613a9e565b8114613ade57600080fd5b50565b600081359050613af081613aca565b92915050565b600060208284031215613b0c57613b0b613a94565b5b6000613b1a84828501613ae1565b91505092915050565b60008115159050919050565b613b3881613b23565b82525050565b6000602082019050613b536000830184613b2f565b92915050565b600081519050919050565b600082825260208201905092915050565b60005b83811015613b93578082015181840152602081019050613b78565b83811115613ba2576000848401525b50505050565b6000601f19601f8301169050919050565b6000613bc482613b59565b613bce8185613b64565b9350613bde818560208601613b75565b613be781613ba8565b840191505092915050565b60006020820190508181036000830152613c0c8184613bb9565b905092915050565b6000819050919050565b613c2781613c14565b8114613c3257600080fd5b50565b600081359050613c4481613c1e565b92915050565b600060208284031215613c6057613c5f613a94565b5b6000613c6e84828501613c35565b91505092915050565b600073ffffffffffffffffffffffffffffffffffffffff82169050919050565b6000613ca282613c77565b9050919050565b613cb281613c97565b82525050565b6000602082019050613ccd6000830184613ca9565b92915050565b613cdc81613c97565b8114613ce757600080fd5b50565b600081359050613cf981613cd3565b92915050565b60008060408385031215613d1657613d15613a94565b5b6000613d2485828601613cea565b9250506020613d3585828601613c35565b9150509250929050565b613d4881613c14565b82525050565b6000602082019050613d636000830184613d3f565b92915050565b60008060408385031215613d8057613d7f613a94565b5b6000613d8e85828601613c35565b9250506020613d9f85828601613c35565b9150509250929050565b600080600060608486031215613dc257613dc1613a94565b5b6000613dd086828701613cea565b9350506020613de186828701613cea565b9250506040613df286828701613c35565b9150509250925092565b600060208284031215613e1257613e11613a94565b5b6000613e2084828501613cea565b91505092915050565b613e3281613b23565b8114613e3d57600080fd5b50565b600081359050613e4f81613e29565b92915050565b60008060408385031215613e6c57613e6b613a94565b5b6000613e7a85828601613c35565b9250506020613e8b85828601613e40565b9150509250929050565b600060e0820190508181036000830152613eaf818a613bb9565b9050613ebe6020830189613d3f565b613ecb6040830188613d3f565b8181036060830152613edd8187613bb9565b9050613eec6080830186613d3f565b613ef960a0830185613d3f565b613f0660c0830184613b2f565b98975050505050505050565b60008060408385031215613f2957613f28613a94565b5b6000613f3785828601613cea565b9250506020613f4885828601613e40565b9150509250929050565b600080fd5b600080fd5b7f4e487b7100000000000000000000000000000000000000000000000000000000600052604160045260246000fd5b613f9482613ba8565b810181811067ffffffffffffffff82111715613fb357613fb2613f5c565b5b80604052505050565b6000613fc6613a8a565b9050613fd28282613f8b565b919050565b600067ffffffffffffffff821115613ff257613ff1613f5c565b5b613ffb82613ba8565b9050602081019050919050565b82818337600083830152505050565b600061402a61402584613fd7565b613fbc565b90508281526020810184848401111561404657614045613f57565b5b614051848285614008565b509392505050565b600082601f83011261406e5761406d613f52565b5b813561407e848260208601614017565b91505092915050565b600080600080608085870312156140a1576140a0613a94565b5b60006140af87828801613cea565b94505060206140c087828801613cea565b93505060406140d187828801613c35565b925050606085013567ffffffffffffffff8111156140f2576140f1613a99565b5b6140fe87828801614059565b91505092959194509250565b600067ffffffffffffffff82111561412557614124613f5c565b5b61412e82613ba8565b9050602081019050919050565b600061414e6141498461410a565b613fbc565b90508281526020810184848401111561416a57614169613f57565b5b614175848285614008565b509392505050565b600082601f83011261419257614191613f52565b5b81356141a284826020860161413b565b91505092915050565b600080600080608085870312156141c5576141c4613a94565b5b600085013567ffffffffffffffff8111156141e3576141e2613a99565b5b6141ef8782880161417d565b945050602061420087828801613c35565b935050604085013567ffffffffffffffff81111561422157614220613a99565b5b61422d8782880161417d565b925050606061423e87828801613c35565b91505092959194509250565b6000806040838503121561426157614260613a94565b5b600061426f85828601613cea565b925050602061428085828601613cea565b9150509250929050565b600067ffffffffffffffff8211156142a5576142a4613f5c565b5b602082029050602081019050919050565b600080fd5b60006142ce6142c98461428a565b613fbc565b905080838252602082019050602084028301858111156142f1576142f06142b6565b5b835b8181101561431a57806143068882613cea565b8452602084019350506020810190506142f3565b5050509392505050565b600082601f83011261433957614338613f52565b5b81356143498482602086016142bb565b91505092915050565b60006020828403121561436857614367613a94565b5b600082013567ffffffffffffffff81111561438657614385613a99565b5b61439284828501614324565b91505092915050565b7f4e487b7100000000000000000000000000000000000000000000000000000000600052602260045260246000fd5b600060028204905060018216806143e257607f821691505b6020821081036143f5576143f461439b565b5b50919050565b7f626f784964206f7574206f662072616e67650000000000000000000000000000600082015250565b6000614431601283613b64565b915061443c826143fb565b602082019050919050565b6000602082019050818103600083015261446081614424565b9050919050565b7f4e487b7100000000000000000000000000000000000000000000000000000000600052603260045260246000fd5b7f4d696e74696e67206973206e6f7420656e61626c656400000000000000000000600082015250565b60006144cc601683613b64565b91506144d782614496565b602082019050919050565b600060208201905081810360008301526144fb816144bf565b9050919050565b7f43616e6e6f74206d696e74206d6f7265207468616e206d617820737570706c79600082015250565b6000614538602083613b64565b915061454382614502565b602082019050919050565b600060208201905081810360008301526145678161452b565b9050919050565b7f4e487b7100000000000000000000000000000000000000000000000000000000600052601160045260246000fd5b60006145a882613c14565b91506145b383613c14565b9250827fffffffffffffffffffffffffffffffffffffffffffffffffffffffffffffffff038211156145e8576145e761456e565b5b828201905092915050565b60006145fe82613c14565b915061460983613c14565b9250817fffffffffffffffffffffffffffffffffffffffffffffffffffffffffffffffff04831182151516156146425761464161456e565b5b828202905092915050565b600061465882613c14565b91506000820361466b5761466a61456e565b5b600182039050919050565b600060408201905061468b6000830185613ca9565b6146986020830184613ca9565b9392505050565b6000815190506146ae81613e29565b92915050565b6000602082840312156146ca576146c9613a94565b5b60006146d88482850161469f565b91505092915050565b6000815190506146f081613c1e565b92915050565b60006020828403121561470c5761470b613a94565b5b600061471a848285016146e1565b91505092915050565b60006040820190506147386000830185613ca9565b6147456020830184613d3f565b9392505050565b600061475782613c14565b915061476283613c14565b9250828210156147755761477461456e565b5b828203905092915050565b7f4e487b7100000000000000000000000000000000000000000000000000000000600052603160045260246000fd5b7f596f7520646f206e6f74206f776e207468697320426f78000000000000000000600082015250565b60006147e5601783613b64565b91506147f0826147af565b602082019050919050565b60006020820190508181036000830152614814816147d8565b9050919050565b7f6f70656e65722063616e6e6f7420626520736d61727420636f6e747261637400600082015250565b6000614851601f83613b64565b915061485c8261481b565b602082019050919050565b6000602082019050818103600083015261488081614844565b9050919050565b7f4552433732314d657461646174613a2055524920717565727920666f72206e6f60008201527f6e6578697374656e7420746f6b656e0000000000000000000000000000000000602082015250565b60006148e3602f83613b64565b91506148ee82614887565b604082019050919050565b60006020820190508181036000830152614912816148d6565b9050919050565b600081905092915050565b7f697066733a2f2f00000000000000000000000000000000000000000000000000600082015250565b600061495a600783614919565b915061496582614924565b600782019050919050565b60008190508160005260206000209050919050565b60008154614992816143ca565b61499c8186614919565b945060018216600081146149b757600181146149c8576149fb565b60ff198316865281860193506149fb565b6149d185614970565b60005b838110156149f3578154818901526001820191506020810190506149d4565b838801955050505b50505092915050565b7f2f00000000000000000000000000000000000000000000000000000000000000600082015250565b6000614a3a600183614919565b9150614a4582614a04565b600182019050919050565b6000614a5b82613b59565b614a658185614919565b9350614a75818560208601613b75565b80840191505092915050565b6000614a8c8261494d565b9150614a988286614985565b9150614aa382614a2d565b9150614aaf8285614a50565b9150614abb8284614985565b9150819050949350505050565b7f4f776e61626c653a206e6577206f776e657220697320746865207a65726f206160008201527f6464726573730000000000000000000000000000000000000000000000000000602082015250565b6000614b24602683613b64565b9150614b2f82614ac8565b604082019050919050565b60006020820190508181036000830152614b5381614b17565b9050919050565b6000606082019050614b6f6000830186613ca9565b614b7c6020830185613ca9565b614b896040830184613d3f565b949350505050565b7f4f776e61626c653a2063616c6c6572206973206e6f7420746865206f776e6572600082015250565b6000614bc7602083613b64565b9150614bd282614b91565b602082019050919050565b60006020820190508181036000830152614bf681614bba565b9050919050565b7f4e487b7100000000000000000000000000000000000000000000000000000000600052601260045260246000fd5b7f5361666545524332303a204552433230206f7065726174696f6e20646964206e60008201527f6f74207375636365656400000000000000000000000000000000000000000000602082015250565b6000614c88602a83613b64565b9150614c9382614c2c565b604082019050919050565b60006020820190508181036000830152614cb781614c7b565b9050919050565b600081519050919050565b600082825260208201905092915050565b6000614ce582614cbe565b614cef8185614cc9565b9350614cff818560208601613b75565b614d0881613ba8565b840191505092915050565b6000608082019050614d286000830187613ca9565b614d356020830186613ca9565b614d426040830185613d3f565b8181036060830152614d548184614cda565b905095945050505050565b600081519050614d6e81613aca565b92915050565b600060208284031215614d8a57614d89613a94565b5b6000614d9884828501614d5f565b91505092915050565b7f416464726573733a20696e73756666696369656e742062616c616e636520666f60008201527f722063616c6c0000000000000000000000000000000000000000000000000000602082015250565b6000614dfd602683613b64565b9150614e0882614da1565b604082019050919050565b60006020820190508181036000830152614e2c81614df0565b9050919050565b600081905092915050565b6000614e4982614cbe565b614e538185614e33565b9350614e63818560208601613b75565b80840191505092915050565b6000614e7b8284614e3e565b915081905092915050565b7f416464726573733a2063616c6c20746f206e6f6e2d636f6e7472616374000000600082015250565b6000614ebc601d83613b64565b9150614ec782614e86565b602082019050919050565b60006020820190508181036000830152614eeb81614eaf565b905091905056fe697066733a2f2f516d5a37727a6e3876716e61374435344e35556e61636f61725048423663595a735266775666796d634c384532332fa26469706673582212204f22382f8cf48fbf9ffdb4b99ad84d7f845b827753dc5f98d74793c4e55c00bf64736f6c634300080d0033",
  "linkReferences": {},
  "deployedLinkReferences": {}
}