{
  "_format": "hh-sol-artifact-1",
  "contractName": "NftBox",
  "sourceName": "src/backend/contracts/NftBox.sol",
  "abi": [
    {
      "inputs": [
        {
          "internalType": "address",
          "name": "_usdcAddress",
          "type": "address"
        },
        {
          "internalType": "address",
          "name": "_sneakerAddress",
          "type": "address"
        },
        {
          "internalType": "address",
          "name": "_eggAddress",
          "type": "address"
        }
      ],
      "stateMutability": "nonpayable",
      "type": "constructor"
    },
    {
      "inputs": [],
      "name": "ApprovalCallerNotOwnerNorApproved",
      "type": "error"
    },
    {
      "inputs": [],
      "name": "ApprovalQueryForNonexistentToken",
      "type": "error"
    },
    {
      "inputs": [],
      "name": "ApproveToCaller",
      "type": "error"
    },
    {
      "inputs": [],
      "name": "BalanceQueryForZeroAddress",
      "type": "error"
    },
    {
      "inputs": [],
      "name": "MintERC2309QuantityExceedsLimit",
      "type": "error"
    },
    {
      "inputs": [],
      "name": "MintToZeroAddress",
      "type": "error"
    },
    {
      "inputs": [],
      "name": "MintZeroQuantity",
      "type": "error"
    },
    {
      "inputs": [
        {
          "internalType": "address",
          "name": "operator",
          "type": "address"
        }
      ],
      "name": "OperatorNotAllowed",
      "type": "error"
    },
    {
      "inputs": [],
      "name": "OwnerQueryForNonexistentToken",
      "type": "error"
    },
    {
      "inputs": [],
      "name": "OwnershipNotInitializedForExtraData",
      "type": "error"
    },
    {
      "inputs": [],
      "name": "TransferCallerNotOwnerNorApproved",
      "type": "error"
    },
    {
      "inputs": [],
      "name": "TransferFromIncorrectOwner",
      "type": "error"
    },
    {
      "inputs": [],
      "name": "TransferToNonERC721ReceiverImplementer",
      "type": "error"
    },
    {
      "inputs": [],
      "name": "TransferToZeroAddress",
      "type": "error"
    },
    {
      "inputs": [],
      "name": "URIQueryForNonexistentToken",
      "type": "error"
    },
    {
      "anonymous": false,
      "inputs": [
        {
          "indexed": true,
          "internalType": "address",
          "name": "owner",
          "type": "address"
        },
        {
          "indexed": true,
          "internalType": "address",
          "name": "approved",
          "type": "address"
        },
        {
          "indexed": true,
          "internalType": "uint256",
          "name": "tokenId",
          "type": "uint256"
        }
      ],
      "name": "Approval",
      "type": "event"
    },
    {
      "anonymous": false,
      "inputs": [
        {
          "indexed": true,
          "internalType": "address",
          "name": "owner",
          "type": "address"
        },
        {
          "indexed": true,
          "internalType": "address",
          "name": "operator",
          "type": "address"
        },
        {
          "indexed": false,
          "internalType": "bool",
          "name": "approved",
          "type": "bool"
        }
      ],
      "name": "ApprovalForAll",
      "type": "event"
    },
    {
      "anonymous": false,
      "inputs": [
        {
          "indexed": true,
          "internalType": "uint256",
          "name": "fromTokenId",
          "type": "uint256"
        },
        {
          "indexed": false,
          "internalType": "uint256",
          "name": "toTokenId",
          "type": "uint256"
        },
        {
          "indexed": true,
          "internalType": "address",
          "name": "from",
          "type": "address"
        },
        {
          "indexed": true,
          "internalType": "address",
          "name": "to",
          "type": "address"
        }
      ],
      "name": "ConsecutiveTransfer",
      "type": "event"
    },
    {
      "anonymous": false,
      "inputs": [
        {
          "indexed": false,
          "internalType": "address",
          "name": "user",
          "type": "address"
        }
      ],
      "name": "MintSuccessful",
      "type": "event"
    },
    {
      "anonymous": false,
      "inputs": [
        {
          "indexed": true,
          "internalType": "address",
          "name": "previousOwner",
          "type": "address"
        },
        {
          "indexed": true,
          "internalType": "address",
          "name": "newOwner",
          "type": "address"
        }
      ],
      "name": "OwnershipTransferred",
      "type": "event"
    },
    {
      "anonymous": false,
      "inputs": [
        {
          "indexed": true,
          "internalType": "address",
          "name": "from",
          "type": "address"
        },
        {
          "indexed": true,
          "internalType": "address",
          "name": "to",
          "type": "address"
        },
        {
          "indexed": true,
          "internalType": "uint256",
          "name": "tokenId",
          "type": "uint256"
        }
      ],
      "name": "Transfer",
      "type": "event"
    },
    {
      "inputs": [],
      "name": "USDCAddress",
      "outputs": [
        {
          "internalType": "address",
          "name": "",
          "type": "address"
        }
      ],
      "stateMutability": "view",
      "type": "function"
    },
    {
      "inputs": [
        {
          "internalType": "string",
          "name": "_name",
          "type": "string"
        },
        {
          "internalType": "uint256",
          "name": "_price",
          "type": "uint256"
        },
        {
          "internalType": "uint256",
          "name": "_maxSupply",
          "type": "uint256"
        },
        {
          "internalType": "bool",
          "name": "_rareOnly",
          "type": "bool"
        }
      ],
      "name": "addMysteryBox",
      "outputs": [],
      "stateMutability": "nonpayable",
      "type": "function"
    },
    {
      "inputs": [
        {
          "internalType": "uint256",
          "name": "_boxId",
          "type": "uint256"
        },
        {
          "internalType": "uint256",
          "name": "_supply",
          "type": "uint256"
        }
      ],
      "name": "addSupply",
      "outputs": [],
      "stateMutability": "nonpayable",
      "type": "function"
    },
    {
      "inputs": [
        {
          "internalType": "address",
          "name": "_user",
          "type": "address"
        },
        {
          "internalType": "uint256",
          "name": "_quantity",
          "type": "uint256"
        }
      ],
      "name": "airdrop",
      "outputs": [],
      "stateMutability": "nonpayable",
      "type": "function"
    },
    {
      "inputs": [
        {
          "internalType": "address",
          "name": "to",
          "type": "address"
        },
        {
          "internalType": "uint256",
          "name": "tokenId",
          "type": "uint256"
        }
      ],
      "name": "approve",
      "outputs": [],
      "stateMutability": "nonpayable",
      "type": "function"
    },
    {
      "inputs": [
        {
          "internalType": "address",
          "name": "owner",
          "type": "address"
        }
      ],
      "name": "balanceOf",
      "outputs": [
        {
          "internalType": "uint256",
          "name": "",
          "type": "uint256"
        }
      ],
      "stateMutability": "view",
      "type": "function"
    },
    {
      "inputs": [],
      "name": "baseTokenURI",
      "outputs": [
        {
          "internalType": "string",
          "name": "",
          "type": "string"
        }
      ],
      "stateMutability": "view",
      "type": "function"
    },
    {
      "inputs": [
        {
          "internalType": "uint256",
          "name": "",
          "type": "uint256"
        }
      ],
      "name": "boxes",
      "outputs": [
        {
          "internalType": "string",
          "name": "name",
          "type": "string"
        },
        {
          "internalType": "uint256",
          "name": "price",
          "type": "uint256"
        },
        {
          "internalType": "uint256",
          "name": "burnAmount",
          "type": "uint256"
        },
        {
          "internalType": "uint256",
          "name": "maxSupply",
          "type": "uint256"
        },
        {
          "internalType": "uint256",
          "name": "remainingSupply",
          "type": "uint256"
        },
        {
          "internalType": "bool",
          "name": "mintEnabled",
          "type": "bool"
        },
        {
          "internalType": "bool",
          "name": "rareOnly",
          "type": "bool"
        }
      ],
      "stateMutability": "view",
      "type": "function"
    },
    {
      "inputs": [],
      "name": "contractURI",
      "outputs": [
        {
          "internalType": "string",
          "name": "",
          "type": "string"
        }
      ],
      "stateMutability": "view",
      "type": "function"
    },
    {
      "inputs": [],
      "name": "contractUri",
      "outputs": [
        {
          "internalType": "string",
          "name": "",
          "type": "string"
        }
      ],
      "stateMutability": "view",
      "type": "function"
    },
    {
      "inputs": [],
      "name": "eggAddress",
      "outputs": [
        {
          "internalType": "address",
          "name": "",
          "type": "address"
        }
      ],
      "stateMutability": "view",
      "type": "function"
    },
    {
      "inputs": [
        {
          "internalType": "uint256",
          "name": "tokenId",
          "type": "uint256"
        }
      ],
      "name": "getApproved",
      "outputs": [
        {
          "internalType": "address",
          "name": "",
          "type": "address"
        }
      ],
      "stateMutability": "view",
      "type": "function"
    },
    {
      "inputs": [
        {
          "internalType": "uint256",
          "name": "_boxId",
          "type": "uint256"
        }
      ],
      "name": "getMysteryBoxName",
      "outputs": [
        {
          "internalType": "string",
          "name": "",
          "type": "string"
        }
      ],
      "stateMutability": "view",
      "type": "function"
    },
    {
      "inputs": [
        {
          "internalType": "uint256",
          "name": "_boxId",
          "type": "uint256"
        }
      ],
      "name": "getMysteryBoxPrice",
      "outputs": [
        {
          "internalType": "uint256",
          "name": "",
          "type": "uint256"
        }
      ],
      "stateMutability": "view",
      "type": "function"
    },
    {
      "inputs": [
        {
          "internalType": "uint256",
          "name": "_boxId",
          "type": "uint256"
        }
      ],
      "name": "getPrice",
      "outputs": [
        {
          "internalType": "uint256",
          "name": "",
          "type": "uint256"
        }
      ],
      "stateMutability": "view",
      "type": "function"
    },
    {
      "inputs": [
        {
          "internalType": "address",
          "name": "owner",
          "type": "address"
        },
        {
          "internalType": "address",
          "name": "operator",
          "type": "address"
        }
      ],
      "name": "isApprovedForAll",
      "outputs": [
        {
          "internalType": "bool",
          "name": "",
          "type": "bool"
        }
      ],
      "stateMutability": "view",
      "type": "function"
    },
    {
      "inputs": [
        {
          "internalType": "address",
          "name": "_user",
          "type": "address"
        }
      ],
      "name": "isWhitelisted",
      "outputs": [
        {
          "internalType": "bool",
          "name": "",
          "type": "bool"
        }
      ],
      "stateMutability": "view",
      "type": "function"
    },
    {
      "inputs": [
        {
          "internalType": "uint256",
          "name": "_boxId",
          "type": "uint256"
        },
        {
          "internalType": "uint256",
          "name": "_quantity",
          "type": "uint256"
        }
      ],
      "name": "mint",
      "outputs": [],
      "stateMutability": "nonpayable",
      "type": "function"
    },
    {
      "inputs": [],
      "name": "name",
      "outputs": [
        {
          "internalType": "string",
          "name": "",
          "type": "string"
        }
      ],
      "stateMutability": "view",
      "type": "function"
    },
    {
      "inputs": [
        {
          "internalType": "uint256",
          "name": "_tokenId",
          "type": "uint256"
        }
      ],
      "name": "openBox",
      "outputs": [],
      "stateMutability": "nonpayable",
      "type": "function"
    },
    {
      "inputs": [],
      "name": "owner",
      "outputs": [
        {
          "internalType": "address",
          "name": "",
          "type": "address"
        }
      ],
      "stateMutability": "view",
      "type": "function"
    },
    {
      "inputs": [
        {
          "internalType": "uint256",
          "name": "tokenId",
          "type": "uint256"
        }
      ],
      "name": "ownerOf",
      "outputs": [
        {
          "internalType": "address",
          "name": "",
          "type": "address"
        }
      ],
      "stateMutability": "view",
      "type": "function"
    },
    {
      "inputs": [
        {
          "internalType": "uint256",
          "name": "_boxId",
          "type": "uint256"
        }
      ],
      "name": "removeMysteryBox",
      "outputs": [],
      "stateMutability": "nonpayable",
      "type": "function"
    },
    {
      "inputs": [],
      "name": "renounceOwnership",
      "outputs": [],
      "stateMutability": "nonpayable",
      "type": "function"
    },
    {
      "inputs": [
        {
          "internalType": "address",
          "name": "from",
          "type": "address"
        },
        {
          "internalType": "address",
          "name": "to",
          "type": "address"
        },
        {
          "internalType": "uint256",
          "name": "tokenId",
          "type": "uint256"
        }
      ],
      "name": "safeTransferFrom",
      "outputs": [],
      "stateMutability": "nonpayable",
      "type": "function"
    },
    {
      "inputs": [
        {
          "internalType": "address",
          "name": "from",
          "type": "address"
        },
        {
          "internalType": "address",
          "name": "to",
          "type": "address"
        },
        {
          "internalType": "uint256",
          "name": "tokenId",
          "type": "uint256"
        },
        {
          "internalType": "bytes",
          "name": "data",
          "type": "bytes"
        }
      ],
      "name": "safeTransferFrom",
      "outputs": [],
      "stateMutability": "nonpayable",
      "type": "function"
    },
    {
      "inputs": [
        {
          "internalType": "address",
          "name": "operator",
          "type": "address"
        },
        {
          "internalType": "bool",
          "name": "approved",
          "type": "bool"
        }
      ],
      "name": "setApprovalForAll",
      "outputs": [],
      "stateMutability": "nonpayable",
      "type": "function"
    },
    {
      "inputs": [
        {
          "internalType": "string",
          "name": "_uri",
          "type": "string"
        }
      ],
      "name": "setContractMetadata",
      "outputs": [],
      "stateMutability": "nonpayable",
      "type": "function"
    },
    {
      "inputs": [
        {
          "internalType": "string",
          "name": "_uri",
          "type": "string"
        }
      ],
      "name": "setMetadata",
      "outputs": [],
      "stateMutability": "nonpayable",
      "type": "function"
    },
    {
      "inputs": [
        {
          "internalType": "uint256",
          "name": "_boxId",
          "type": "uint256"
        },
        {
          "internalType": "bool",
          "name": "_state",
          "type": "bool"
        }
      ],
      "name": "setMintEnabled",
      "outputs": [],
      "stateMutability": "nonpayable",
      "type": "function"
    },
    {
      "inputs": [
        {
          "internalType": "uint256",
          "name": "_boxId",
          "type": "uint256"
        },
        {
          "internalType": "uint256",
          "name": "_price",
          "type": "uint256"
        }
      ],
      "name": "setPrice",
      "outputs": [],
      "stateMutability": "nonpayable",
      "type": "function"
    },
    {
      "inputs": [
        {
          "internalType": "address[]",
          "name": "_whitelist",
          "type": "address[]"
        }
      ],
      "name": "setWhitelist",
      "outputs": [],
      "stateMutability": "nonpayable",
      "type": "function"
    },
    {
      "inputs": [],
      "name": "sneakerAddress",
      "outputs": [
        {
          "internalType": "address",
          "name": "",
          "type": "address"
        }
      ],
      "stateMutability": "view",
      "type": "function"
    },
    {
      "inputs": [
        {
          "internalType": "bytes4",
          "name": "interfaceId",
          "type": "bytes4"
        }
      ],
      "name": "supportsInterface",
      "outputs": [
        {
          "internalType": "bool",
          "name": "",
          "type": "bool"
        }
      ],
      "stateMutability": "view",
      "type": "function"
    },
    {
      "inputs": [],
      "name": "symbol",
      "outputs": [
        {
          "internalType": "string",
          "name": "",
          "type": "string"
        }
      ],
      "stateMutability": "view",
      "type": "function"
    },
    {
      "inputs": [
        {
          "internalType": "uint256",
          "name": "_tokenId",
          "type": "uint256"
        }
      ],
      "name": "tokenURI",
      "outputs": [
        {
          "internalType": "string",
          "name": "",
          "type": "string"
        }
      ],
      "stateMutability": "view",
      "type": "function"
    },
    {
      "inputs": [],
      "name": "totalSupply",
      "outputs": [
        {
          "internalType": "uint256",
          "name": "",
          "type": "uint256"
        }
      ],
      "stateMutability": "view",
      "type": "function"
    },
    {
      "inputs": [
        {
          "internalType": "address",
          "name": "from",
          "type": "address"
        },
        {
          "internalType": "address",
          "name": "to",
          "type": "address"
        },
        {
          "internalType": "uint256",
          "name": "tokenId",
          "type": "uint256"
        }
      ],
      "name": "transferFrom",
      "outputs": [],
      "stateMutability": "nonpayable",
      "type": "function"
    },
    {
      "inputs": [
        {
          "internalType": "address",
          "name": "newOwner",
          "type": "address"
        }
      ],
      "name": "transferOwnership",
      "outputs": [],
      "stateMutability": "nonpayable",
      "type": "function"
    },
    {
      "inputs": [],
      "name": "uri",
      "outputs": [
        {
          "internalType": "string",
          "name": "",
          "type": "string"
        }
      ],
      "stateMutability": "view",
      "type": "function"
    },
    {
      "inputs": [],
      "name": "uriPrefix",
      "outputs": [
        {
          "internalType": "string",
          "name": "",
          "type": "string"
        }
      ],
      "stateMutability": "view",
      "type": "function"
    },
    {
      "inputs": [],
      "name": "uriSuffix",
      "outputs": [
        {
          "internalType": "string",
          "name": "",
          "type": "string"
        }
      ],
      "stateMutability": "view",
      "type": "function"
    },
    {
      "inputs": [],
      "name": "withdraw",
      "outputs": [],
      "stateMutability": "nonpayable",
      "type": "function"
    }
  ],
  "bytecode": "0x608060405260405180602001604052806000815250600990805190602001906200002b92919062000608565b506040518060400160405280600581526020017f2e6a736f6e000000000000000000000000000000000000000000000000000000815250600a90805190602001906200007992919062000608565b5060405180606001604052806036815260200162005aa160369139600b9080519060200190620000ab92919062000608565b5060405180606001604052806036815260200162005ad760369139600c9080519060200190620000dd92919062000608565b50348015620000eb57600080fd5b5060405162005b0d38038062005b0d833981810160405281019062000111919062000722565b733cc6cdda760b79bafa08df41ecfa224f810dceb660016040518060400160405280600b81526020017f4d79737465727920426f780000000000000000000000000000000000000000008152506040518060400160405280600281526020017f4d42000000000000000000000000000000000000000000000000000000000000815250620001b4620001a86200053360201b60201c565b6200053b60201b60201c565b8160039080519060200190620001cc92919062000608565b508060049080519060200190620001e592919062000608565b50620001f6620005ff60201b60201c565b600181905550505060006daaeb6d7670e522a718067333cd4e73ffffffffffffffffffffffffffffffffffffffff163b1115620003f3578015620002b9576daaeb6d7670e522a718067333cd4e73ffffffffffffffffffffffffffffffffffffffff16637d3e3dbe30846040518363ffffffff1660e01b81526004016200027f9291906200078f565b600060405180830381600087803b1580156200029a57600080fd5b505af1158015620002af573d6000803e3d6000fd5b50505050620003f2565b600073ffffffffffffffffffffffffffffffffffffffff168273ffffffffffffffffffffffffffffffffffffffff161462000373576daaeb6d7670e522a718067333cd4e73ffffffffffffffffffffffffffffffffffffffff1663a0af290330846040518363ffffffff1660e01b8152600401620003399291906200078f565b600060405180830381600087803b1580156200035457600080fd5b505af115801562000369573d6000803e3d6000fd5b50505050620003f1565b6daaeb6d7670e522a718067333cd4e73ffffffffffffffffffffffffffffffffffffffff16634420e486306040518263ffffffff1660e01b8152600401620003bc9190620007bc565b600060405180830381600087803b158015620003d757600080fd5b505af1158015620003ec573d6000803e3d6000fd5b505050505b5b5b5050600073ffffffffffffffffffffffffffffffffffffffff168373ffffffffffffffffffffffffffffffffffffffff160362000467576040517f08c379a00000000000000000000000000000000000000000000000000000000081526004016200045e906200083a565b60405180910390fd5b82600d60006101000a81548173ffffffffffffffffffffffffffffffffffffffff021916908373ffffffffffffffffffffffffffffffffffffffff16021790555081600e60006101000a81548173ffffffffffffffffffffffffffffffffffffffff021916908373ffffffffffffffffffffffffffffffffffffffff16021790555080600f60006101000a81548173ffffffffffffffffffffffffffffffffffffffff021916908373ffffffffffffffffffffffffffffffffffffffff160217905550505050620008c0565b600033905090565b60008060009054906101000a900473ffffffffffffffffffffffffffffffffffffffff169050816000806101000a81548173ffffffffffffffffffffffffffffffffffffffff021916908373ffffffffffffffffffffffffffffffffffffffff1602179055508173ffffffffffffffffffffffffffffffffffffffff168173ffffffffffffffffffffffffffffffffffffffff167f8be0079c531659141344cd1fd0a4f28419497f9722a3daafe3b4186f6b6457e060405160405180910390a35050565b60006001905090565b82805462000616906200088b565b90600052602060002090601f0160209004810192826200063a576000855562000686565b82601f106200065557805160ff191683800117855562000686565b8280016001018555821562000686579182015b828111156200068557825182559160200191906001019062000668565b5b50905062000695919062000699565b5090565b5b80821115620006b45760008160009055506001016200069a565b5090565b600080fd5b600073ffffffffffffffffffffffffffffffffffffffff82169050919050565b6000620006ea82620006bd565b9050919050565b620006fc81620006dd565b81146200070857600080fd5b50565b6000815190506200071c81620006f1565b92915050565b6000806000606084860312156200073e576200073d620006b8565b5b60006200074e868287016200070b565b935050602062000761868287016200070b565b925050604062000774868287016200070b565b9150509250925092565b6200078981620006dd565b82525050565b6000604082019050620007a660008301856200077e565b620007b560208301846200077e565b9392505050565b6000602082019050620007d360008301846200077e565b92915050565b600082825260208201905092915050565b7f496e76616c696420555344432061646472657373000000000000000000000000600082015250565b600062000822601483620007d9565b91506200082f82620007ea565b602082019050919050565b60006020820190508181036000830152620008558162000813565b9050919050565b7f4e487b7100000000000000000000000000000000000000000000000000000000600052602260045260246000fd5b60006002820490506001821680620008a457607f821691505b602082108103620008ba57620008b96200085c565b5b50919050565b6151d180620008d06000396000f3fe608060405234801561001057600080fd5b50600436106102695760003560e01c8063765f1b0c11610151578063d547cfb7116100c3578063eac989f811610087578063eac989f81461074e578063f2fde38b1461076c578063f421764814610788578063f7d97577146107a4578063fb6f7a9a146107c0578063fce55037146107de57610269565b8063d547cfb714610694578063e7572230146106b2578063e8a3d485146106e2578063e930320914610700578063e985e9c51461071e57610269565b8063a49a1e7d11610115578063a49a1e7d146105d6578063b1e5e2b7146105f2578063b88d4fde1461060e578063c0e24d5e1461062a578063c37845b214610648578063c87b56dd1461066457610269565b8063765f1b0c146105325780638ba4cc3c146105625780638da5cb5b1461057e57806395d89b411461059c578063a22cb465146105ba57610269565b806342842e0e116101ea57806362b99ad4116101ae57806362b99ad41461045e5780636352211e1461047c5780636ed5cf25146104ac57806370a08231146104c8578063715018a6146104f857806372fc44cc1461050257610269565b806342842e0e146103b657806349a9493c146103d25780634ed3faf2146103ee5780635503a0e8146104245780635631ce361461044257610269565b80631b2ef1ca116102315780631b2ef1ca1461032657806323b872dd146103425780632c7d86ba1461035e5780633af32abf1461037c5780633ccfd60b146103ac57610269565b806301ffc9a71461026e57806306fdde031461029e578063081812fc146102bc578063095ea7b3146102ec57806318160ddd14610308575b600080fd5b61028860048036038101906102839190613dfe565b6107fa565b6040516102959190613e46565b60405180910390f35b6102a661088c565b6040516102b39190613efa565b60405180910390f35b6102d660048036038101906102d19190613f52565b61091e565b6040516102e39190613fc0565b60405180910390f35b61030660048036038101906103019190614007565b61099d565b005b610310610ae1565b60405161031d9190614056565b60405180910390f35b610340600480360381019061033b9190614071565b610af8565b005b61035c600480360381019061035791906140b1565b610d5c565b005b610366610f3e565b6040516103739190613fc0565b60405180910390f35b61039660048036038101906103919190614104565b610f64565b6040516103a39190613e46565b60405180910390f35b6103b461100a565b005b6103d060048036038101906103cb91906140b1565b611281565b005b6103ec60048036038101906103e7919061415d565b611463565b005b61040860048036038101906104039190613f52565b6114f3565b60405161041b979695949392919061419d565b60405180910390f35b61042c6115e7565b6040516104399190613efa565b60405180910390f35b61045c60048036038101906104579190613f52565b611675565b005b610466611844565b6040516104739190613efa565b60405180910390f35b61049660048036038101906104919190613f52565b6118d2565b6040516104a39190613fc0565b60405180910390f35b6104c660048036038101906104c19190614348565b6118e4565b005b6104e260048036038101906104dd9190614104565b6119dd565b6040516104ef9190614056565b60405180910390f35b610500611a95565b005b61051c60048036038101906105179190613f52565b611aa9565b6040516105299190613efa565b60405180910390f35b61054c60048036038101906105479190613f52565b611ba7565b6040516105599190614056565b60405180910390f35b61057c60048036038101906105779190614007565b611c1d565b005b610586611c33565b6040516105939190613fc0565b60405180910390f35b6105a4611c5c565b6040516105b19190613efa565b60405180910390f35b6105d460048036038101906105cf91906143cb565b611cee565b005b6105f060048036038101906105eb919061440b565b611e65565b005b61060c60048036038101906106079190613f52565b611e87565b005b610628600480360381019061062391906144f5565b612119565b005b6106326122fe565b60405161063f9190613efa565b60405180910390f35b610662600480360381019061065d9190614071565b61238c565b005b61067e60048036038101906106799190613f52565b612457565b60405161068b9190613efa565b60405180910390f35b61069c61257a565b6040516106a99190613efa565b60405180910390f35b6106cc60048036038101906106c79190613f52565b612589565b6040516106d99190614056565b60405180910390f35b6106ea6125b8565b6040516106f79190613efa565b60405180910390f35b61070861264a565b6040516107159190613fc0565b60405180910390f35b61073860048036038101906107339190614578565b612670565b6040516107459190613e46565b60405180910390f35b610756612704565b6040516107639190613efa565b60405180910390f35b61078660048036038101906107819190614104565b612792565b005b6107a2600480360381019061079d9190614680565b612815565b005b6107be60048036038101906107b99190614071565b612845565b005b6107c86128c2565b6040516107d59190613fc0565b60405180910390f35b6107f860048036038101906107f3919061440b565b6128e8565b005b60006301ffc9a760e01b827bffffffffffffffffffffffffffffffffffffffffffffffffffffffff1916148061085557506380ac58cd60e01b827bffffffffffffffffffffffffffffffffffffffffffffffffffffffff1916145b806108855750635b5e139f60e01b827bffffffffffffffffffffffffffffffffffffffffffffffffffffffff1916145b9050919050565b60606003805461089b906146f8565b80601f01602080910402602001604051908101604052809291908181526020018280546108c7906146f8565b80156109145780601f106108e957610100808354040283529160200191610914565b820191906000526020600020905b8154815290600101906020018083116108f757829003601f168201915b5050505050905090565b60006109298261290a565b61095f576040517fcf4700e400000000000000000000000000000000000000000000000000000000815260040160405180910390fd5b6007600083815260200190815260200160002060000160009054906101000a900473ffffffffffffffffffffffffffffffffffffffff169050919050565b60006109a8826118d2565b90508073ffffffffffffffffffffffffffffffffffffffff166109c9612969565b73ffffffffffffffffffffffffffffffffffffffff1614610a2c576109f5816109f0612969565b612670565b610a2b576040517fcfb3b94200000000000000000000000000000000000000000000000000000000815260040160405180910390fd5b5b826007600084815260200190815260200160002060000160006101000a81548173ffffffffffffffffffffffffffffffffffffffff021916908373ffffffffffffffffffffffffffffffffffffffff160217905550818373ffffffffffffffffffffffffffffffffffffffff168273ffffffffffffffffffffffffffffffffffffffff167f8c5be1e5ebec7d5bd14f71427d1e84f3dd0314c0f7b2291e5b200ac8c7c3b92560405160405180910390a4505050565b6000610aeb612971565b6002546001540303905090565b6011805490508210610b3f576040517f08c379a0000000000000000000000000000000000000000000000000000000008152600401610b3690614775565b60405180910390fd5b60118281548110610b5357610b52614795565b5b906000526020600020906006020160050160009054906101000a900460ff16610bb1576040517f08c379a0000000000000000000000000000000000000000000000000000000008152600401610ba890614810565b60405180910390fd5b8060118381548110610bc657610bc5614795565b5b9060005260206000209060060201600401541015610c19576040517f08c379a0000000000000000000000000000000000000000000000000000000008152600401610c109061487c565b60405180910390fd5b60005b81811015610c6b57826012600083610c3261297a565b610c3a612971565b610c4491906148cb565b610c4e91906148cb565b815260200190815260200160002081905550806001019050610c1c565b50610c7533610f64565b610cdc57610cdb333083610c8886612589565b610c929190614921565b600d60009054906101000a900473ffffffffffffffffffffffffffffffffffffffff1673ffffffffffffffffffffffffffffffffffffffff1661298d909392919063ffffffff16565b5b610ce63382612a16565b60118281548110610cfa57610cf9614795565b5b90600052602060002090600602016004016000815480929190610d1c9061497b565b91905055507ff5535ccd9f40eb4bc73fac8710dbb2effbf3329da83f62b35d9aa88161bb85ca33604051610d509190613fc0565b60405180910390a15050565b8260006daaeb6d7670e522a718067333cd4e73ffffffffffffffffffffffffffffffffffffffff163b1115610f2c573373ffffffffffffffffffffffffffffffffffffffff168173ffffffffffffffffffffffffffffffffffffffff1603610dce57610dc9848484612bd2565b610f38565b6daaeb6d7670e522a718067333cd4e73ffffffffffffffffffffffffffffffffffffffff1663c617113430336040518363ffffffff1660e01b8152600401610e179291906149a4565b602060405180830381865afa158015610e34573d6000803e3d6000fd5b505050506040513d601f19601f82011682018060405250810190610e5891906149e2565b8015610eea57506daaeb6d7670e522a718067333cd4e73ffffffffffffffffffffffffffffffffffffffff1663c617113430836040518363ffffffff1660e01b8152600401610ea89291906149a4565b602060405180830381865afa158015610ec5573d6000803e3d6000fd5b505050506040513d601f19601f82011682018060405250810190610ee991906149e2565b5b610f2b57336040517fede71dcc000000000000000000000000000000000000000000000000000000008152600401610f229190613fc0565b60405180910390fd5b5b610f37848484612bd2565b5b50505050565b600e60009054906101000a900473ffffffffffffffffffffffffffffffffffffffff1681565b600080600090505b601080549050811015610fff578273ffffffffffffffffffffffffffffffffffffffff1660108281548110610fa457610fa3614795565b5b9060005260206000200160009054906101000a900473ffffffffffffffffffffffffffffffffffffffff1673ffffffffffffffffffffffffffffffffffffffff1603610ff4576001915050611005565b806001019050610f6c565b50600090505b919050565b611012612ef4565b3373ffffffffffffffffffffffffffffffffffffffff166108fc479081150290604051600060405180830381858888f19350505050158015611058573d6000803e3d6000fd5b50600d60009054906101000a900473ffffffffffffffffffffffffffffffffffffffff1673ffffffffffffffffffffffffffffffffffffffff1663095ea7b330600d60009054906101000a900473ffffffffffffffffffffffffffffffffffffffff1673ffffffffffffffffffffffffffffffffffffffff166370a08231306040518263ffffffff1660e01b81526004016110f39190613fc0565b602060405180830381865afa158015611110573d6000803e3d6000fd5b505050506040513d601f19601f820116820180604052508101906111349190614a24565b6040518363ffffffff1660e01b8152600401611151929190614a51565b6020604051808303816000875af1158015611170573d6000803e3d6000fd5b505050506040513d601f19601f8201168201806040525081019061119491906149e2565b5061127f3033600d60009054906101000a900473ffffffffffffffffffffffffffffffffffffffff1673ffffffffffffffffffffffffffffffffffffffff166370a08231306040518263ffffffff1660e01b81526004016111f59190613fc0565b602060405180830381865afa158015611212573d6000803e3d6000fd5b505050506040513d601f19601f820116820180604052508101906112369190614a24565b600d60009054906101000a900473ffffffffffffffffffffffffffffffffffffffff1673ffffffffffffffffffffffffffffffffffffffff1661298d909392919063ffffffff16565b565b8260006daaeb6d7670e522a718067333cd4e73ffffffffffffffffffffffffffffffffffffffff163b1115611451573373ffffffffffffffffffffffffffffffffffffffff168173ffffffffffffffffffffffffffffffffffffffff16036112f3576112ee848484612f72565b61145d565b6daaeb6d7670e522a718067333cd4e73ffffffffffffffffffffffffffffffffffffffff1663c617113430336040518363ffffffff1660e01b815260040161133c9291906149a4565b602060405180830381865afa158015611359573d6000803e3d6000fd5b505050506040513d601f19601f8201168201806040525081019061137d91906149e2565b801561140f57506daaeb6d7670e522a718067333cd4e73ffffffffffffffffffffffffffffffffffffffff1663c617113430836040518363ffffffff1660e01b81526004016113cd9291906149a4565b602060405180830381865afa1580156113ea573d6000803e3d6000fd5b505050506040513d601f19601f8201168201806040525081019061140e91906149e2565b5b61145057336040517fede71dcc0000000000000000000000000000000000000000000000000000000081526004016114479190613fc0565b60405180910390fd5b5b61145c848484612f72565b5b50505050565b61146b612ef4565b60118054905082106114b2576040517f08c379a00000000000000000000000000000000000000000000000000000000081526004016114a990614775565b60405180910390fd5b80601183815481106114c7576114c6614795565b5b906000526020600020906006020160050160006101000a81548160ff0219169083151502179055505050565b6011818154811061150357600080fd5b9060005260206000209060060201600091509050806000018054611526906146f8565b80601f0160208091040260200160405190810160405280929190818152602001828054611552906146f8565b801561159f5780601f106115745761010080835404028352916020019161159f565b820191906000526020600020905b81548152906001019060200180831161158257829003601f168201915b5050505050908060010154908060020154908060030154908060040154908060050160009054906101000a900460ff16908060050160019054906101000a900460ff16905087565b600a80546115f4906146f8565b80601f0160208091040260200160405190810160405280929190818152602001828054611620906146f8565b801561166d5780601f106116425761010080835404028352916020019161166d565b820191906000526020600020905b81548152906001019060200180831161165057829003601f168201915b505050505081565b61167d612ef4565b60118054905081106116c4576040517f08c379a00000000000000000000000000000000000000000000000000000000081526004016116bb90614775565b60405180910390fd5b601160016011805490506116d89190614a7a565b815481106116e9576116e8614795565b5b90600052602060002090600602016011828154811061170b5761170a614795565b5b9060005260206000209060060201600082018160000190805461172d906146f8565b611738929190613b77565b50600182015481600101556002820154816002015560038201548160030155600482015481600401556005820160009054906101000a900460ff168160050160006101000a81548160ff0219169083151502179055506005820160019054906101000a900460ff168160050160016101000a81548160ff02191690831515021790555090505060118054806117d0576117cf614aae565b5b6001900381819060005260206000209060060201600080820160006117f59190613c04565b60018201600090556002820160009055600382016000905560048201600090556005820160006101000a81549060ff02191690556005820160016101000a81549060ff02191690555050905550565b60098054611851906146f8565b80601f016020809104026020016040519081016040528092919081815260200182805461187d906146f8565b80156118ca5780601f1061189f576101008083540402835291602001916118ca565b820191906000526020600020905b8154815290600101906020018083116118ad57829003601f168201915b505050505081565b60006118dd82612f92565b9050919050565b6118ec612ef4565b60116040518060e00160405280868152602001858152602001600081526020018481526020018481526020016001151581526020018315158152509080600181540180825580915050600190039060005260206000209060060201600090919091909150600082015181600001908051906020019061196c929190613c44565b506020820151816001015560408201518160020155606082015181600301556080820151816004015560a08201518160050160006101000a81548160ff02191690831515021790555060c08201518160050160016101000a81548160ff021916908315150217905550505050505050565b60008073ffffffffffffffffffffffffffffffffffffffff168273ffffffffffffffffffffffffffffffffffffffff1603611a44576040517f8f4eb60400000000000000000000000000000000000000000000000000000000815260040160405180910390fd5b67ffffffffffffffff600660008473ffffffffffffffffffffffffffffffffffffffff1673ffffffffffffffffffffffffffffffffffffffff16815260200190815260200160002054169050919050565b611a9d612ef4565b611aa7600061305e565b565b60606011805490508210611af2576040517f08c379a0000000000000000000000000000000000000000000000000000000008152600401611ae990614775565b60405180910390fd5b60118281548110611b0657611b05614795565b5b90600052602060002090600602016000018054611b22906146f8565b80601f0160208091040260200160405190810160405280929190818152602001828054611b4e906146f8565b8015611b9b5780601f10611b7057610100808354040283529160200191611b9b565b820191906000526020600020905b815481529060010190602001808311611b7e57829003601f168201915b50505050509050919050565b60006011805490508210611bf0576040517f08c379a0000000000000000000000000000000000000000000000000000000008152600401611be790614775565b60405180910390fd5b60118281548110611c0457611c03614795565b5b9060005260206000209060060201600101549050919050565b611c25612ef4565b611c2f8282612a16565b5050565b60008060009054906101000a900473ffffffffffffffffffffffffffffffffffffffff16905090565b606060048054611c6b906146f8565b80601f0160208091040260200160405190810160405280929190818152602001828054611c97906146f8565b8015611ce45780601f10611cb957610100808354040283529160200191611ce4565b820191906000526020600020905b815481529060010190602001808311611cc757829003601f168201915b5050505050905090565b611cf6612969565b73ffffffffffffffffffffffffffffffffffffffff168273ffffffffffffffffffffffffffffffffffffffff1603611d5a576040517fb06307db00000000000000000000000000000000000000000000000000000000815260040160405180910390fd5b8060086000611d67612969565b73ffffffffffffffffffffffffffffffffffffffff1673ffffffffffffffffffffffffffffffffffffffff16815260200190815260200160002060008473ffffffffffffffffffffffffffffffffffffffff1673ffffffffffffffffffffffffffffffffffffffff16815260200190815260200160002060006101000a81548160ff0219169083151502179055508173ffffffffffffffffffffffffffffffffffffffff16611e14612969565b73ffffffffffffffffffffffffffffffffffffffff167f17307eab39ab6107e8899845ad3d59bd9653f200f220920489ca2b5937696c3183604051611e599190613e46565b60405180910390a35050565b611e6d612ef4565b80600b9080519060200190611e83929190613c44565b5050565b3373ffffffffffffffffffffffffffffffffffffffff16611ea7826118d2565b73ffffffffffffffffffffffffffffffffffffffff1614611efd576040517f08c379a0000000000000000000000000000000000000000000000000000000008152600401611ef490614b29565b60405180910390fd5b3273ffffffffffffffffffffffffffffffffffffffff16611f1c613122565b73ffffffffffffffffffffffffffffffffffffffff1614611f72576040517f08c379a0000000000000000000000000000000000000000000000000000000008152600401611f6990614b95565b60405180910390fd5b600060126000838152602001908152602001600020549050600e60009054906101000a900473ffffffffffffffffffffffffffffffffffffffff1673ffffffffffffffffffffffffffffffffffffffff16632bf7e4cf3360118481548110611fdd57611fdc614795565b5b906000526020600020906006020160050160019054906101000a900460ff166040518363ffffffff1660e01b8152600401612019929190614bb5565b600060405180830381600087803b15801561203357600080fd5b505af1158015612047573d6000803e3d6000fd5b50505050600f60009054906101000a900473ffffffffffffffffffffffffffffffffffffffff1673ffffffffffffffffffffffffffffffffffffffff16632bf7e4cf336011848154811061209e5761209d614795565b5b906000526020600020906006020160050160019054906101000a900460ff166040518363ffffffff1660e01b81526004016120da929190614bb5565b600060405180830381600087803b1580156120f457600080fd5b505af1158015612108573d6000803e3d6000fd5b505050506121158261312a565b5050565b8360006daaeb6d7670e522a718067333cd4e73ffffffffffffffffffffffffffffffffffffffff163b11156122ea573373ffffffffffffffffffffffffffffffffffffffff168173ffffffffffffffffffffffffffffffffffffffff160361218c5761218785858585613138565b6122f7565b6daaeb6d7670e522a718067333cd4e73ffffffffffffffffffffffffffffffffffffffff1663c617113430336040518363ffffffff1660e01b81526004016121d59291906149a4565b602060405180830381865afa1580156121f2573d6000803e3d6000fd5b505050506040513d601f19601f8201168201806040525081019061221691906149e2565b80156122a857506daaeb6d7670e522a718067333cd4e73ffffffffffffffffffffffffffffffffffffffff1663c617113430836040518363ffffffff1660e01b81526004016122669291906149a4565b602060405180830381865afa158015612283573d6000803e3d6000fd5b505050506040513d601f19601f820116820180604052508101906122a791906149e2565b5b6122e957336040517fede71dcc0000000000000000000000000000000000000000000000000000000081526004016122e09190613fc0565b60405180910390fd5b5b6122f685858585613138565b5b5050505050565b600c805461230b906146f8565b80601f0160208091040260200160405190810160405280929190818152602001828054612337906146f8565b80156123845780601f1061235957610100808354040283529160200191612384565b820191906000526020600020905b81548152906001019060200180831161236757829003601f168201915b505050505081565b612394612ef4565b60118054905082106123db576040517f08c379a00000000000000000000000000000000000000000000000000000000081526004016123d290614775565b60405180910390fd5b80601183815481106123f0576123ef614795565b5b9060005260206000209060060201600301600082825461241091906148cb565b92505081905550806011838154811061242c5761242b614795565b5b9060005260206000209060060201600401600082825461244c91906148cb565b925050819055505050565b60606124628261290a565b6124a1576040517f08c379a000000000000000000000000000000000000000000000000000000000815260040161249890614c50565b60405180910390fd5b6011805490506012600084815260200190815260200160002054106124fb576040517f08c379a00000000000000000000000000000000000000000000000000000000081526004016124f290614775565b60405180910390fd5b60006125056131ab565b905060008151116125255760405180602001604052806000815250612572565b8061254e6001601260008781526020019081526020016000205461254991906148cb565b61323d565b600a60405160200161256293929190614d40565b6040516020818303038152906040525b915050919050565b60606125846131ab565b905090565b60006011828154811061259f5761259e614795565b5b9060005260206000209060060201600101549050919050565b6060600c80546125c7906146f8565b80601f01602080910402602001604051908101604052809291908181526020018280546125f3906146f8565b80156126405780601f1061261557610100808354040283529160200191612640565b820191906000526020600020905b81548152906001019060200180831161262357829003601f168201915b5050505050905090565b600d60009054906101000a900473ffffffffffffffffffffffffffffffffffffffff1681565b6000600860008473ffffffffffffffffffffffffffffffffffffffff1673ffffffffffffffffffffffffffffffffffffffff16815260200190815260200160002060008373ffffffffffffffffffffffffffffffffffffffff1673ffffffffffffffffffffffffffffffffffffffff16815260200190815260200160002060009054906101000a900460ff16905092915050565b600b8054612711906146f8565b80601f016020809104026020016040519081016040528092919081815260200182805461273d906146f8565b801561278a5780601f1061275f5761010080835404028352916020019161278a565b820191906000526020600020905b81548152906001019060200180831161276d57829003601f168201915b505050505081565b61279a612ef4565b600073ffffffffffffffffffffffffffffffffffffffff168173ffffffffffffffffffffffffffffffffffffffff1603612809576040517f08c379a000000000000000000000000000000000000000000000000000000000815260040161280090614de3565b60405180910390fd5b6128128161305e565b50565b61281d612ef4565b6010600061282b9190613cca565b8060109080519060200190612841929190613ceb565b5050565b61284d612ef4565b6011805490508210612894576040517f08c379a000000000000000000000000000000000000000000000000000000000815260040161288b90614775565b60405180910390fd5b80601183815481106128a9576128a8614795565b5b9060005260206000209060060201600101819055505050565b600f60009054906101000a900473ffffffffffffffffffffffffffffffffffffffff1681565b6128f0612ef4565b80600c9080519060200190612906929190613c44565b5050565b600081612915612971565b11158015612924575060015482105b8015612962575060007c0100000000000000000000000000000000000000000000000000000000600560008581526020019081526020016000205416145b9050919050565b600033905090565b60006001905090565b6000612984612971565b60015403905090565b612a10846323b872dd60e01b8585856040516024016129ae93929190614e03565b604051602081830303815290604052907bffffffffffffffffffffffffffffffffffffffffffffffffffffffff19166020820180517bffffffffffffffffffffffffffffffffffffffffffffffffffffffff838183161783525050505061330b565b50505050565b6000600154905060008203612a57576040517fb562e8dd00000000000000000000000000000000000000000000000000000000815260040160405180910390fd5b612a6460008483856133d2565b600160406001901b178202600660008573ffffffffffffffffffffffffffffffffffffffff1673ffffffffffffffffffffffffffffffffffffffff16815260200190815260200160002060008282540192505081905550612adb83612acc60008660006133d8565b612ad585613400565b17613410565b6005600083815260200190815260200160002081905550600080838301905073ffffffffffffffffffffffffffffffffffffffff85169150828260007fddf252ad1be2c89b69c2b068fc378daa952ba7f163c4a11628f55a4df523b3ef600080a4600183015b818114612b7c57808360007fddf252ad1be2c89b69c2b068fc378daa952ba7f163c4a11628f55a4df523b3ef600080a4600181019050612b41565b5060008203612bb7576040517f2e07630000000000000000000000000000000000000000000000000000000000815260040160405180910390fd5b806001819055505050612bcd600084838561343b565b505050565b6000612bdd82612f92565b90508373ffffffffffffffffffffffffffffffffffffffff168173ffffffffffffffffffffffffffffffffffffffff1614612c44576040517fa114810000000000000000000000000000000000000000000000000000000000815260040160405180910390fd5b600080612c5084613441565b91509150612c668187612c61612969565b613468565b612cb257612c7b86612c76612969565b612670565b612cb1576040517f59c896be00000000000000000000000000000000000000000000000000000000815260040160405180910390fd5b5b600073ffffffffffffffffffffffffffffffffffffffff168573ffffffffffffffffffffffffffffffffffffffff1603612d18576040517fea553b3400000000000000000000000000000000000000000000000000000000815260040160405180910390fd5b612d2586868660016133d2565b8015612d3057600082555b600660008773ffffffffffffffffffffffffffffffffffffffff1673ffffffffffffffffffffffffffffffffffffffff168152602001908152602001600020600081546001900391905081905550600660008673ffffffffffffffffffffffffffffffffffffffff1673ffffffffffffffffffffffffffffffffffffffff1681526020019081526020016000206000815460010191905081905550612dfe85612dda8888876133d8565b7c020000000000000000000000000000000000000000000000000000000017613410565b600560008681526020019081526020016000208190555060007c0200000000000000000000000000000000000000000000000000000000841603612e845760006001850190506000600560008381526020019081526020016000205403612e82576001548114612e81578360056000838152602001908152602001600020819055505b5b505b838573ffffffffffffffffffffffffffffffffffffffff168773ffffffffffffffffffffffffffffffffffffffff167fddf252ad1be2c89b69c2b068fc378daa952ba7f163c4a11628f55a4df523b3ef60405160405180910390a4612eec868686600161343b565b505050505050565b612efc613122565b73ffffffffffffffffffffffffffffffffffffffff16612f1a611c33565b73ffffffffffffffffffffffffffffffffffffffff1614612f70576040517f08c379a0000000000000000000000000000000000000000000000000000000008152600401612f6790614e86565b60405180910390fd5b565b612f8d83838360405180602001604052806000815250612119565b505050565b60008082905080612fa1612971565b11613027576001548110156130265760006005600083815260200190815260200160002054905060007c0100000000000000000000000000000000000000000000000000000000821603613024575b6000810361301a576005600083600190039350838152602001908152602001600020549050612ff0565b8092505050613059565b505b5b6040517fdf2d9b4200000000000000000000000000000000000000000000000000000000815260040160405180910390fd5b919050565b60008060009054906101000a900473ffffffffffffffffffffffffffffffffffffffff169050816000806101000a81548173ffffffffffffffffffffffffffffffffffffffff021916908373ffffffffffffffffffffffffffffffffffffffff1602179055508173ffffffffffffffffffffffffffffffffffffffff168173ffffffffffffffffffffffffffffffffffffffff167f8be0079c531659141344cd1fd0a4f28419497f9722a3daafe3b4186f6b6457e060405160405180910390a35050565b600033905090565b6131358160006134ac565b50565b613143848484610d5c565b60008373ffffffffffffffffffffffffffffffffffffffff163b146131a55761316e848484846136fe565b6131a4576040517fd1a57ed600000000000000000000000000000000000000000000000000000000815260040160405180910390fd5b5b50505050565b6060600b80546131ba906146f8565b80601f01602080910402602001604051908101604052809291908181526020018280546131e6906146f8565b80156132335780601f1061320857610100808354040283529160200191613233565b820191906000526020600020905b81548152906001019060200180831161321657829003601f168201915b5050505050905090565b60606000600161324c8461384e565b01905060008167ffffffffffffffff81111561326b5761326a61421d565b5b6040519080825280601f01601f19166020018201604052801561329d5781602001600182028036833780820191505090505b509050600082602001820190505b600115613300578080600190039150507f3031323334353637383961626364656600000000000000000000000000000000600a86061a8153600a85816132f4576132f3614ea6565b5b049450600085036132ab575b819350505050919050565b600061336d826040518060400160405280602081526020017f5361666545524332303a206c6f772d6c6576656c2063616c6c206661696c65648152508573ffffffffffffffffffffffffffffffffffffffff166139a19092919063ffffffff16565b90506000815111156133cd578080602001905181019061338d91906149e2565b6133cc576040517f08c379a00000000000000000000000000000000000000000000000000000000081526004016133c390614f47565b60405180910390fd5b5b505050565b50505050565b60008060e883901c905060e86133ef8686846139b9565b62ffffff16901b9150509392505050565b60006001821460e11b9050919050565b600073ffffffffffffffffffffffffffffffffffffffff83169250814260a01b178317905092915050565b50505050565b60008060006007600085815260200190815260200160002090508092508254915050915091565b600073ffffffffffffffffffffffffffffffffffffffff8316925073ffffffffffffffffffffffffffffffffffffffff821691508382148383141790509392505050565b60006134b783612f92565b905060008190506000806134ca86613441565b915091508415613533576134e681846134e1612969565b613468565b613532576134fb836134f6612969565b612670565b613531576040517f59c896be00000000000000000000000000000000000000000000000000000000815260040160405180910390fd5b5b5b6135418360008860016133d2565b801561354c57600082555b600160806001901b03600660008573ffffffffffffffffffffffffffffffffffffffff1673ffffffffffffffffffffffffffffffffffffffff168152602001908152602001600020600082825401925050819055506135f4836135b1856000886133d8565b7c02000000000000000000000000000000000000000000000000000000007c01000000000000000000000000000000000000000000000000000000001717613410565b600560008881526020019081526020016000208190555060007c020000000000000000000000000000000000000000000000000000000085160361367a5760006001870190506000600560008381526020019081526020016000205403613678576001548114613677578460056000838152602001908152602001600020819055505b5b505b85600073ffffffffffffffffffffffffffffffffffffffff168473ffffffffffffffffffffffffffffffffffffffff167fddf252ad1be2c89b69c2b068fc378daa952ba7f163c4a11628f55a4df523b3ef60405160405180910390a46136e483600088600161343b565b600260008154809291906001019190505550505050505050565b60008373ffffffffffffffffffffffffffffffffffffffff1663150b7a02613724612969565b8786866040518563ffffffff1660e01b81526004016137469493929190614fbc565b6020604051808303816000875af192505050801561378257506040513d601f19601f8201168201806040525081019061377f919061501d565b60015b6137fb573d80600081146137b2576040519150601f19603f3d011682016040523d82523d6000602084013e6137b7565b606091505b5060008151036137f3576040517fd1a57ed600000000000000000000000000000000000000000000000000000000815260040160405180910390fd5b805181602001fd5b63150b7a0260e01b7bffffffffffffffffffffffffffffffffffffffffffffffffffffffff1916817bffffffffffffffffffffffffffffffffffffffffffffffffffffffff191614915050949350505050565b600080600090507a184f03e93ff9f4daa797ed6e38ed64bf6a1f01000000000000000083106138ac577a184f03e93ff9f4daa797ed6e38ed64bf6a1f01000000000000000083816138a2576138a1614ea6565b5b0492506040810190505b6d04ee2d6d415b85acef810000000083106138e9576d04ee2d6d415b85acef810000000083816138df576138de614ea6565b5b0492506020810190505b662386f26fc10000831061391857662386f26fc10000838161390e5761390d614ea6565b5b0492506010810190505b6305f5e1008310613941576305f5e100838161393757613936614ea6565b5b0492506008810190505b612710831061396657612710838161395c5761395b614ea6565b5b0492506004810190505b60648310613989576064838161397f5761397e614ea6565b5b0492506002810190505b600a8310613998576001810190505b80915050919050565b60606139b084846000856139c2565b90509392505050565b60009392505050565b606082471015613a07576040517f08c379a00000000000000000000000000000000000000000000000000000000081526004016139fe906150bc565b60405180910390fd5b6000808673ffffffffffffffffffffffffffffffffffffffff168587604051613a309190615118565b60006040518083038185875af1925050503d8060008114613a6d576040519150601f19603f3d011682016040523d82523d6000602084013e613a72565b606091505b5091509150613a8387838387613a8f565b92505050949350505050565b60608315613af1576000835103613ae957613aa985613b04565b613ae8576040517f08c379a0000000000000000000000000000000000000000000000000000000008152600401613adf9061517b565b60405180910390fd5b5b829050613afc565b613afb8383613b27565b5b949350505050565b6000808273ffffffffffffffffffffffffffffffffffffffff163b119050919050565b600082511115613b3a5781518083602001fd5b806040517f08c379a0000000000000000000000000000000000000000000000000000000008152600401613b6e9190613efa565b60405180910390fd5b828054613b83906146f8565b90600052602060002090601f016020900481019282613ba55760008555613bf3565b82601f10613bb65780548555613bf3565b82800160010185558215613bf357600052602060002091601f016020900482015b82811115613bf2578254825591600101919060010190613bd7565b5b509050613c009190613d75565b5090565b508054613c10906146f8565b6000825580601f10613c225750613c41565b601f016020900490600052602060002090810190613c409190613d75565b5b50565b828054613c50906146f8565b90600052602060002090601f016020900481019282613c725760008555613cb9565b82601f10613c8b57805160ff1916838001178555613cb9565b82800160010185558215613cb9579182015b82811115613cb8578251825591602001919060010190613c9d565b5b509050613cc69190613d75565b5090565b5080546000825590600052602060002090810190613ce89190613d75565b50565b828054828255906000526020600020908101928215613d64579160200282015b82811115613d635782518260006101000a81548173ffffffffffffffffffffffffffffffffffffffff021916908373ffffffffffffffffffffffffffffffffffffffff16021790555091602001919060010190613d0b565b5b509050613d719190613d75565b5090565b5b80821115613d8e576000816000905550600101613d76565b5090565b6000604051905090565b600080fd5b600080fd5b60007fffffffff0000000000000000000000000000000000000000000000000000000082169050919050565b613ddb81613da6565b8114613de657600080fd5b50565b600081359050613df881613dd2565b92915050565b600060208284031215613e1457613e13613d9c565b5b6000613e2284828501613de9565b91505092915050565b60008115159050919050565b613e4081613e2b565b82525050565b6000602082019050613e5b6000830184613e37565b92915050565b600081519050919050565b600082825260208201905092915050565b60005b83811015613e9b578082015181840152602081019050613e80565b83811115613eaa576000848401525b50505050565b6000601f19601f8301169050919050565b6000613ecc82613e61565b613ed68185613e6c565b9350613ee6818560208601613e7d565b613eef81613eb0565b840191505092915050565b60006020820190508181036000830152613f148184613ec1565b905092915050565b6000819050919050565b613f2f81613f1c565b8114613f3a57600080fd5b50565b600081359050613f4c81613f26565b92915050565b600060208284031215613f6857613f67613d9c565b5b6000613f7684828501613f3d565b91505092915050565b600073ffffffffffffffffffffffffffffffffffffffff82169050919050565b6000613faa82613f7f565b9050919050565b613fba81613f9f565b82525050565b6000602082019050613fd56000830184613fb1565b92915050565b613fe481613f9f565b8114613fef57600080fd5b50565b60008135905061400181613fdb565b92915050565b6000806040838503121561401e5761401d613d9c565b5b600061402c85828601613ff2565b925050602061403d85828601613f3d565b9150509250929050565b61405081613f1c565b82525050565b600060208201905061406b6000830184614047565b92915050565b6000806040838503121561408857614087613d9c565b5b600061409685828601613f3d565b92505060206140a785828601613f3d565b9150509250929050565b6000806000606084860312156140ca576140c9613d9c565b5b60006140d886828701613ff2565b93505060206140e986828701613ff2565b92505060406140fa86828701613f3d565b9150509250925092565b60006020828403121561411a57614119613d9c565b5b600061412884828501613ff2565b91505092915050565b61413a81613e2b565b811461414557600080fd5b50565b60008135905061415781614131565b92915050565b6000806040838503121561417457614173613d9c565b5b600061418285828601613f3d565b925050602061419385828601614148565b9150509250929050565b600060e08201905081810360008301526141b7818a613ec1565b90506141c66020830189614047565b6141d36040830188614047565b6141e06060830187614047565b6141ed6080830186614047565b6141fa60a0830185613e37565b61420760c0830184613e37565b98975050505050505050565b600080fd5b600080fd5b7f4e487b7100000000000000000000000000000000000000000000000000000000600052604160045260246000fd5b61425582613eb0565b810181811067ffffffffffffffff821117156142745761427361421d565b5b80604052505050565b6000614287613d92565b9050614293828261424c565b919050565b600067ffffffffffffffff8211156142b3576142b261421d565b5b6142bc82613eb0565b9050602081019050919050565b82818337600083830152505050565b60006142eb6142e684614298565b61427d565b90508281526020810184848401111561430757614306614218565b5b6143128482856142c9565b509392505050565b600082601f83011261432f5761432e614213565b5b813561433f8482602086016142d8565b91505092915050565b6000806000806080858703121561436257614361613d9c565b5b600085013567ffffffffffffffff8111156143805761437f613da1565b5b61438c8782880161431a565b945050602061439d87828801613f3d565b93505060406143ae87828801613f3d565b92505060606143bf87828801614148565b91505092959194509250565b600080604083850312156143e2576143e1613d9c565b5b60006143f085828601613ff2565b925050602061440185828601614148565b9150509250929050565b60006020828403121561442157614420613d9c565b5b600082013567ffffffffffffffff81111561443f5761443e613da1565b5b61444b8482850161431a565b91505092915050565b600067ffffffffffffffff82111561446f5761446e61421d565b5b61447882613eb0565b9050602081019050919050565b600061449861449384614454565b61427d565b9050828152602081018484840111156144b4576144b3614218565b5b6144bf8482856142c9565b509392505050565b600082601f8301126144dc576144db614213565b5b81356144ec848260208601614485565b91505092915050565b6000806000806080858703121561450f5761450e613d9c565b5b600061451d87828801613ff2565b945050602061452e87828801613ff2565b935050604061453f87828801613f3d565b925050606085013567ffffffffffffffff8111156145605761455f613da1565b5b61456c878288016144c7565b91505092959194509250565b6000806040838503121561458f5761458e613d9c565b5b600061459d85828601613ff2565b92505060206145ae85828601613ff2565b9150509250929050565b600067ffffffffffffffff8211156145d3576145d261421d565b5b602082029050602081019050919050565b600080fd5b60006145fc6145f7846145b8565b61427d565b9050808382526020820190506020840283018581111561461f5761461e6145e4565b5b835b8181101561464857806146348882613ff2565b845260208401935050602081019050614621565b5050509392505050565b600082601f83011261466757614666614213565b5b81356146778482602086016145e9565b91505092915050565b60006020828403121561469657614695613d9c565b5b600082013567ffffffffffffffff8111156146b4576146b3613da1565b5b6146c084828501614652565b91505092915050565b7f4e487b7100000000000000000000000000000000000000000000000000000000600052602260045260246000fd5b6000600282049050600182168061471057607f821691505b602082108103614723576147226146c9565b5b50919050565b7f626f784964206f7574206f662072616e67650000000000000000000000000000600082015250565b600061475f601283613e6c565b915061476a82614729565b602082019050919050565b6000602082019050818103600083015261478e81614752565b9050919050565b7f4e487b7100000000000000000000000000000000000000000000000000000000600052603260045260246000fd5b7f4d696e74696e67206973206e6f7420656e61626c656400000000000000000000600082015250565b60006147fa601683613e6c565b9150614805826147c4565b602082019050919050565b60006020820190508181036000830152614829816147ed565b9050919050565b7f43616e6e6f74206d696e74206d6f7265207468616e206d617820737570706c79600082015250565b6000614866602083613e6c565b915061487182614830565b602082019050919050565b6000602082019050818103600083015261489581614859565b9050919050565b7f4e487b7100000000000000000000000000000000000000000000000000000000600052601160045260246000fd5b60006148d682613f1c565b91506148e183613f1c565b9250827fffffffffffffffffffffffffffffffffffffffffffffffffffffffffffffffff038211156149165761491561489c565b5b828201905092915050565b600061492c82613f1c565b915061493783613f1c565b9250817fffffffffffffffffffffffffffffffffffffffffffffffffffffffffffffffff04831182151516156149705761496f61489c565b5b828202905092915050565b600061498682613f1c565b9150600082036149995761499861489c565b5b600182039050919050565b60006040820190506149b96000830185613fb1565b6149c66020830184613fb1565b9392505050565b6000815190506149dc81614131565b92915050565b6000602082840312156149f8576149f7613d9c565b5b6000614a06848285016149cd565b91505092915050565b600081519050614a1e81613f26565b92915050565b600060208284031215614a3a57614a39613d9c565b5b6000614a4884828501614a0f565b91505092915050565b6000604082019050614a666000830185613fb1565b614a736020830184614047565b9392505050565b6000614a8582613f1c565b9150614a9083613f1c565b925082821015614aa357614aa261489c565b5b828203905092915050565b7f4e487b7100000000000000000000000000000000000000000000000000000000600052603160045260246000fd5b7f596f7520646f206e6f74206f776e207468697320426f78000000000000000000600082015250565b6000614b13601783613e6c565b9150614b1e82614add565b602082019050919050565b60006020820190508181036000830152614b4281614b06565b9050919050565b7f6f70656e65722063616e6e6f7420626520736d61727420636f6e747261637400600082015250565b6000614b7f601f83613e6c565b9150614b8a82614b49565b602082019050919050565b60006020820190508181036000830152614bae81614b72565b9050919050565b6000604082019050614bca6000830185613fb1565b614bd76020830184613e37565b9392505050565b7f4552433732314d657461646174613a2055524920717565727920666f72206e6f60008201527f6e6578697374656e7420746f6b656e0000000000000000000000000000000000602082015250565b6000614c3a602f83613e6c565b9150614c4582614bde565b604082019050919050565b60006020820190508181036000830152614c6981614c2d565b9050919050565b600081905092915050565b6000614c8682613e61565b614c908185614c70565b9350614ca0818560208601613e7d565b80840191505092915050565b60008190508160005260206000209050919050565b60008154614cce816146f8565b614cd88186614c70565b94506001821660008114614cf35760018114614d0457614d37565b60ff19831686528186019350614d37565b614d0d85614cac565b60005b83811015614d2f57815481890152600182019150602081019050614d10565b838801955050505b50505092915050565b6000614d4c8286614c7b565b9150614d588285614c7b565b9150614d648284614cc1565b9150819050949350505050565b7f4f776e61626c653a206e6577206f776e657220697320746865207a65726f206160008201527f6464726573730000000000000000000000000000000000000000000000000000602082015250565b6000614dcd602683613e6c565b9150614dd882614d71565b604082019050919050565b60006020820190508181036000830152614dfc81614dc0565b9050919050565b6000606082019050614e186000830186613fb1565b614e256020830185613fb1565b614e326040830184614047565b949350505050565b7f4f776e61626c653a2063616c6c6572206973206e6f7420746865206f776e6572600082015250565b6000614e70602083613e6c565b9150614e7b82614e3a565b602082019050919050565b60006020820190508181036000830152614e9f81614e63565b9050919050565b7f4e487b7100000000000000000000000000000000000000000000000000000000600052601260045260246000fd5b7f5361666545524332303a204552433230206f7065726174696f6e20646964206e60008201527f6f74207375636365656400000000000000000000000000000000000000000000602082015250565b6000614f31602a83613e6c565b9150614f3c82614ed5565b604082019050919050565b60006020820190508181036000830152614f6081614f24565b9050919050565b600081519050919050565b600082825260208201905092915050565b6000614f8e82614f67565b614f988185614f72565b9350614fa8818560208601613e7d565b614fb181613eb0565b840191505092915050565b6000608082019050614fd16000830187613fb1565b614fde6020830186613fb1565b614feb6040830185614047565b8181036060830152614ffd8184614f83565b905095945050505050565b60008151905061501781613dd2565b92915050565b60006020828403121561503357615032613d9c565b5b600061504184828501615008565b91505092915050565b7f416464726573733a20696e73756666696369656e742062616c616e636520666f60008201527f722063616c6c0000000000000000000000000000000000000000000000000000602082015250565b60006150a6602683613e6c565b91506150b18261504a565b604082019050919050565b600060208201905081810360008301526150d581615099565b9050919050565b600081905092915050565b60006150f282614f67565b6150fc81856150dc565b935061510c818560208601613e7d565b80840191505092915050565b600061512482846150e7565b915081905092915050565b7f416464726573733a2063616c6c20746f206e6f6e2d636f6e7472616374000000600082015250565b6000615165601d83613e6c565b91506151708261512f565b602082019050919050565b6000602082019050818103600083015261519481615158565b905091905056fea26469706673582212205d50b0a6ba659382a96575c29057526816d8699eb8027d65141432ad7ff0455964736f6c634300080d0033697066733a2f2f516d55326e424250765a3248726731386f4433364e4b43763536374569466b386b713179636b4d446f57756f43772f697066733a2f2f516d5a37727a6e3876716e61374435344e35556e61636f61725048423663595a735266775666796d634c384532332f",
  "linkReferences": {},
  "deployedLinkReferences": {}
}