{
  "_format": "hh-sol-artifact-1",
  "contractName": "NftBox",
  "sourceName": "src/backend/contracts/NftBox.sol",
  "abi": [
    {
      "inputs": [
        {
          "internalType": "address",
          "name": "_usdcAddress",
          "type": "address"
        },
        {
          "internalType": "address",
          "name": "_sneakerAddress",
          "type": "address"
        },
        {
          "internalType": "address",
          "name": "_eggAddress",
          "type": "address"
        }
      ],
      "stateMutability": "nonpayable",
      "type": "constructor"
    },
    {
      "inputs": [],
      "name": "ApprovalCallerNotOwnerNorApproved",
      "type": "error"
    },
    {
      "inputs": [],
      "name": "ApprovalQueryForNonexistentToken",
      "type": "error"
    },
    {
      "inputs": [],
      "name": "ApproveToCaller",
      "type": "error"
    },
    {
      "inputs": [],
      "name": "BalanceQueryForZeroAddress",
      "type": "error"
    },
    {
      "inputs": [],
      "name": "MintERC2309QuantityExceedsLimit",
      "type": "error"
    },
    {
      "inputs": [],
      "name": "MintToZeroAddress",
      "type": "error"
    },
    {
      "inputs": [],
      "name": "MintZeroQuantity",
      "type": "error"
    },
    {
      "inputs": [
        {
          "internalType": "address",
          "name": "operator",
          "type": "address"
        }
      ],
      "name": "OperatorNotAllowed",
      "type": "error"
    },
    {
      "inputs": [],
      "name": "OwnerQueryForNonexistentToken",
      "type": "error"
    },
    {
      "inputs": [],
      "name": "OwnershipNotInitializedForExtraData",
      "type": "error"
    },
    {
      "inputs": [],
      "name": "TransferCallerNotOwnerNorApproved",
      "type": "error"
    },
    {
      "inputs": [],
      "name": "TransferFromIncorrectOwner",
      "type": "error"
    },
    {
      "inputs": [],
      "name": "TransferToNonERC721ReceiverImplementer",
      "type": "error"
    },
    {
      "inputs": [],
      "name": "TransferToZeroAddress",
      "type": "error"
    },
    {
      "inputs": [],
      "name": "URIQueryForNonexistentToken",
      "type": "error"
    },
    {
      "anonymous": false,
      "inputs": [
        {
          "indexed": true,
          "internalType": "address",
          "name": "owner",
          "type": "address"
        },
        {
          "indexed": true,
          "internalType": "address",
          "name": "approved",
          "type": "address"
        },
        {
          "indexed": true,
          "internalType": "uint256",
          "name": "tokenId",
          "type": "uint256"
        }
      ],
      "name": "Approval",
      "type": "event"
    },
    {
      "anonymous": false,
      "inputs": [
        {
          "indexed": true,
          "internalType": "address",
          "name": "owner",
          "type": "address"
        },
        {
          "indexed": true,
          "internalType": "address",
          "name": "operator",
          "type": "address"
        },
        {
          "indexed": false,
          "internalType": "bool",
          "name": "approved",
          "type": "bool"
        }
      ],
      "name": "ApprovalForAll",
      "type": "event"
    },
    {
      "anonymous": false,
      "inputs": [
        {
          "indexed": true,
          "internalType": "uint256",
          "name": "fromTokenId",
          "type": "uint256"
        },
        {
          "indexed": false,
          "internalType": "uint256",
          "name": "toTokenId",
          "type": "uint256"
        },
        {
          "indexed": true,
          "internalType": "address",
          "name": "from",
          "type": "address"
        },
        {
          "indexed": true,
          "internalType": "address",
          "name": "to",
          "type": "address"
        }
      ],
      "name": "ConsecutiveTransfer",
      "type": "event"
    },
    {
      "anonymous": false,
      "inputs": [
        {
          "indexed": false,
          "internalType": "address",
          "name": "user",
          "type": "address"
        }
      ],
      "name": "MintSuccessful",
      "type": "event"
    },
    {
      "anonymous": false,
      "inputs": [
        {
          "indexed": true,
          "internalType": "address",
          "name": "previousOwner",
          "type": "address"
        },
        {
          "indexed": true,
          "internalType": "address",
          "name": "newOwner",
          "type": "address"
        }
      ],
      "name": "OwnershipTransferred",
      "type": "event"
    },
    {
      "anonymous": false,
      "inputs": [
        {
          "indexed": true,
          "internalType": "address",
          "name": "from",
          "type": "address"
        },
        {
          "indexed": true,
          "internalType": "address",
          "name": "to",
          "type": "address"
        },
        {
          "indexed": true,
          "internalType": "uint256",
          "name": "tokenId",
          "type": "uint256"
        }
      ],
      "name": "Transfer",
      "type": "event"
    },
    {
      "inputs": [],
      "name": "USDCAddress",
      "outputs": [
        {
          "internalType": "address",
          "name": "",
          "type": "address"
        }
      ],
      "stateMutability": "view",
      "type": "function"
    },
    {
      "inputs": [
        {
          "internalType": "string",
          "name": "_name",
          "type": "string"
        },
        {
          "internalType": "uint256",
          "name": "_price",
          "type": "uint256"
        },
        {
          "internalType": "uint256",
          "name": "_maxSupply",
          "type": "uint256"
        },
        {
          "internalType": "bool",
          "name": "_rareOnly",
          "type": "bool"
        }
      ],
      "name": "addMysteryBox",
      "outputs": [],
      "stateMutability": "nonpayable",
      "type": "function"
    },
    {
      "inputs": [
        {
          "internalType": "uint256",
          "name": "_boxId",
          "type": "uint256"
        },
        {
          "internalType": "uint256",
          "name": "_supply",
          "type": "uint256"
        }
      ],
      "name": "addSupply",
      "outputs": [],
      "stateMutability": "nonpayable",
      "type": "function"
    },
    {
      "inputs": [
        {
          "internalType": "address",
          "name": "_user",
          "type": "address"
        },
        {
          "internalType": "uint256",
          "name": "_quantity",
          "type": "uint256"
        }
      ],
      "name": "airdrop",
      "outputs": [],
      "stateMutability": "nonpayable",
      "type": "function"
    },
    {
      "inputs": [],
      "name": "amountMinted",
      "outputs": [
        {
          "internalType": "uint256",
          "name": "",
          "type": "uint256"
        }
      ],
      "stateMutability": "view",
      "type": "function"
    },
    {
      "inputs": [
        {
          "internalType": "address",
          "name": "to",
          "type": "address"
        },
        {
          "internalType": "uint256",
          "name": "tokenId",
          "type": "uint256"
        }
      ],
      "name": "approve",
      "outputs": [],
      "stateMutability": "nonpayable",
      "type": "function"
    },
    {
      "inputs": [
        {
          "internalType": "address",
          "name": "owner",
          "type": "address"
        }
      ],
      "name": "balanceOf",
      "outputs": [
        {
          "internalType": "uint256",
          "name": "",
          "type": "uint256"
        }
      ],
      "stateMutability": "view",
      "type": "function"
    },
    {
      "inputs": [],
      "name": "baseTokenURI",
      "outputs": [
        {
          "internalType": "string",
          "name": "",
          "type": "string"
        }
      ],
      "stateMutability": "view",
      "type": "function"
    },
    {
      "inputs": [
        {
          "internalType": "uint256",
          "name": "",
          "type": "uint256"
        }
      ],
      "name": "boxes",
      "outputs": [
        {
          "internalType": "string",
          "name": "name",
          "type": "string"
        },
        {
          "internalType": "uint256",
          "name": "price",
          "type": "uint256"
        },
        {
          "internalType": "uint256",
          "name": "burnAmount",
          "type": "uint256"
        },
        {
          "internalType": "uint256",
          "name": "maxSupply",
          "type": "uint256"
        },
        {
          "internalType": "uint256",
          "name": "remainingSupply",
          "type": "uint256"
        },
        {
          "internalType": "bool",
          "name": "mintEnabled",
          "type": "bool"
        },
        {
          "internalType": "bool",
          "name": "rareOnly",
          "type": "bool"
        }
      ],
      "stateMutability": "view",
      "type": "function"
    },
    {
      "inputs": [],
      "name": "contractURI",
      "outputs": [
        {
          "internalType": "string",
          "name": "",
          "type": "string"
        }
      ],
      "stateMutability": "view",
      "type": "function"
    },
    {
      "inputs": [],
      "name": "contractUri",
      "outputs": [
        {
          "internalType": "string",
          "name": "",
          "type": "string"
        }
      ],
      "stateMutability": "view",
      "type": "function"
    },
    {
      "inputs": [],
      "name": "eggAddress",
      "outputs": [
        {
          "internalType": "address",
          "name": "",
          "type": "address"
        }
      ],
      "stateMutability": "view",
      "type": "function"
    },
    {
      "inputs": [
        {
          "internalType": "uint256",
          "name": "tokenId",
          "type": "uint256"
        }
      ],
      "name": "getApproved",
      "outputs": [
        {
          "internalType": "address",
          "name": "",
          "type": "address"
        }
      ],
      "stateMutability": "view",
      "type": "function"
    },
    {
      "inputs": [
        {
          "internalType": "uint256",
          "name": "_boxId",
          "type": "uint256"
        }
      ],
      "name": "getMysteryBoxName",
      "outputs": [
        {
          "internalType": "string",
          "name": "",
          "type": "string"
        }
      ],
      "stateMutability": "view",
      "type": "function"
    },
    {
      "inputs": [
        {
          "internalType": "uint256",
          "name": "_boxId",
          "type": "uint256"
        }
      ],
      "name": "getMysteryBoxPrice",
      "outputs": [
        {
          "internalType": "uint256",
          "name": "",
          "type": "uint256"
        }
      ],
      "stateMutability": "view",
      "type": "function"
    },
    {
      "inputs": [
        {
          "internalType": "uint256",
          "name": "_boxId",
          "type": "uint256"
        }
      ],
      "name": "getPrice",
      "outputs": [
        {
          "internalType": "uint256",
          "name": "",
          "type": "uint256"
        }
      ],
      "stateMutability": "view",
      "type": "function"
    },
    {
      "inputs": [
        {
          "internalType": "address",
          "name": "owner",
          "type": "address"
        },
        {
          "internalType": "address",
          "name": "operator",
          "type": "address"
        }
      ],
      "name": "isApprovedForAll",
      "outputs": [
        {
          "internalType": "bool",
          "name": "",
          "type": "bool"
        }
      ],
      "stateMutability": "view",
      "type": "function"
    },
    {
      "inputs": [
        {
          "internalType": "address",
          "name": "_user",
          "type": "address"
        }
      ],
      "name": "isWhitelisted",
      "outputs": [
        {
          "internalType": "bool",
          "name": "",
          "type": "bool"
        }
      ],
      "stateMutability": "view",
      "type": "function"
    },
    {
      "inputs": [],
      "name": "maxSupply",
      "outputs": [
        {
          "internalType": "uint256",
          "name": "",
          "type": "uint256"
        }
      ],
      "stateMutability": "view",
      "type": "function"
    },
    {
      "inputs": [
        {
          "internalType": "uint256",
          "name": "_boxId",
          "type": "uint256"
        },
        {
          "internalType": "uint256",
          "name": "_quantity",
          "type": "uint256"
        }
      ],
      "name": "mint",
      "outputs": [],
      "stateMutability": "nonpayable",
      "type": "function"
    },
    {
      "inputs": [],
      "name": "name",
      "outputs": [
        {
          "internalType": "string",
          "name": "",
          "type": "string"
        }
      ],
      "stateMutability": "view",
      "type": "function"
    },
    {
      "inputs": [
        {
          "internalType": "uint256",
          "name": "_tokenId",
          "type": "uint256"
        }
      ],
      "name": "openBox",
      "outputs": [],
      "stateMutability": "nonpayable",
      "type": "function"
    },
    {
      "inputs": [],
      "name": "owner",
      "outputs": [
        {
          "internalType": "address",
          "name": "",
          "type": "address"
        }
      ],
      "stateMutability": "view",
      "type": "function"
    },
    {
      "inputs": [
        {
          "internalType": "uint256",
          "name": "tokenId",
          "type": "uint256"
        }
      ],
      "name": "ownerOf",
      "outputs": [
        {
          "internalType": "address",
          "name": "",
          "type": "address"
        }
      ],
      "stateMutability": "view",
      "type": "function"
    },
    {
      "inputs": [],
      "name": "publicMintEnabled",
      "outputs": [
        {
          "internalType": "bool",
          "name": "",
          "type": "bool"
        }
      ],
      "stateMutability": "view",
      "type": "function"
    },
    {
      "inputs": [
        {
          "internalType": "uint256",
          "name": "_boxId",
          "type": "uint256"
        }
      ],
      "name": "removeMysteryBox",
      "outputs": [],
      "stateMutability": "nonpayable",
      "type": "function"
    },
    {
      "inputs": [],
      "name": "renounceOwnership",
      "outputs": [],
      "stateMutability": "nonpayable",
      "type": "function"
    },
    {
      "inputs": [
        {
          "internalType": "address",
          "name": "from",
          "type": "address"
        },
        {
          "internalType": "address",
          "name": "to",
          "type": "address"
        },
        {
          "internalType": "uint256",
          "name": "tokenId",
          "type": "uint256"
        }
      ],
      "name": "safeTransferFrom",
      "outputs": [],
      "stateMutability": "nonpayable",
      "type": "function"
    },
    {
      "inputs": [
        {
          "internalType": "address",
          "name": "from",
          "type": "address"
        },
        {
          "internalType": "address",
          "name": "to",
          "type": "address"
        },
        {
          "internalType": "uint256",
          "name": "tokenId",
          "type": "uint256"
        },
        {
          "internalType": "bytes",
          "name": "data",
          "type": "bytes"
        }
      ],
      "name": "safeTransferFrom",
      "outputs": [],
      "stateMutability": "nonpayable",
      "type": "function"
    },
    {
      "inputs": [
        {
          "internalType": "address",
          "name": "operator",
          "type": "address"
        },
        {
          "internalType": "bool",
          "name": "approved",
          "type": "bool"
        }
      ],
      "name": "setApprovalForAll",
      "outputs": [],
      "stateMutability": "nonpayable",
      "type": "function"
    },
    {
      "inputs": [
        {
          "internalType": "string",
          "name": "_uri",
          "type": "string"
        }
      ],
      "name": "setContractMetadata",
      "outputs": [],
      "stateMutability": "nonpayable",
      "type": "function"
    },
    {
      "inputs": [
        {
          "internalType": "string",
          "name": "_uri",
          "type": "string"
        }
      ],
      "name": "setMetadata",
      "outputs": [],
      "stateMutability": "nonpayable",
      "type": "function"
    },
    {
      "inputs": [
        {
          "internalType": "uint256",
          "name": "_boxId",
          "type": "uint256"
        },
        {
          "internalType": "bool",
          "name": "_state",
          "type": "bool"
        }
      ],
      "name": "setMintEnabled",
      "outputs": [],
      "stateMutability": "nonpayable",
      "type": "function"
    },
    {
      "inputs": [
        {
          "internalType": "uint256",
          "name": "_boxId",
          "type": "uint256"
        },
        {
          "internalType": "uint256",
          "name": "_price",
          "type": "uint256"
        }
      ],
      "name": "setPrice",
      "outputs": [],
      "stateMutability": "nonpayable",
      "type": "function"
    },
    {
      "inputs": [
        {
          "internalType": "bool",
          "name": "_enabled",
          "type": "bool"
        }
      ],
      "name": "setPublicMintEnabled",
      "outputs": [],
      "stateMutability": "nonpayable",
      "type": "function"
    },
    {
      "inputs": [
        {
          "internalType": "address",
          "name": "_address",
          "type": "address"
        }
      ],
      "name": "setUSDCAddress",
      "outputs": [],
      "stateMutability": "nonpayable",
      "type": "function"
    },
    {
      "inputs": [
        {
          "internalType": "address[]",
          "name": "_whitelist",
          "type": "address[]"
        }
      ],
      "name": "setWhitelist",
      "outputs": [],
      "stateMutability": "nonpayable",
      "type": "function"
    },
    {
      "inputs": [
        {
          "internalType": "uint256",
          "name": "_discount",
          "type": "uint256"
        }
      ],
      "name": "setWhitelistDiscount",
      "outputs": [],
      "stateMutability": "nonpayable",
      "type": "function"
    },
    {
      "inputs": [
        {
          "internalType": "bool",
          "name": "_enabled",
          "type": "bool"
        }
      ],
      "name": "setWhitelistMintEnabled",
      "outputs": [],
      "stateMutability": "nonpayable",
      "type": "function"
    },
    {
      "inputs": [],
      "name": "sneakerAddress",
      "outputs": [
        {
          "internalType": "address",
          "name": "",
          "type": "address"
        }
      ],
      "stateMutability": "view",
      "type": "function"
    },
    {
      "inputs": [
        {
          "internalType": "bytes4",
          "name": "interfaceId",
          "type": "bytes4"
        }
      ],
      "name": "supportsInterface",
      "outputs": [
        {
          "internalType": "bool",
          "name": "",
          "type": "bool"
        }
      ],
      "stateMutability": "view",
      "type": "function"
    },
    {
      "inputs": [],
      "name": "symbol",
      "outputs": [
        {
          "internalType": "string",
          "name": "",
          "type": "string"
        }
      ],
      "stateMutability": "view",
      "type": "function"
    },
    {
      "inputs": [
        {
          "internalType": "uint256",
          "name": "_tokenId",
          "type": "uint256"
        }
      ],
      "name": "tokenURI",
      "outputs": [
        {
          "internalType": "string",
          "name": "",
          "type": "string"
        }
      ],
      "stateMutability": "view",
      "type": "function"
    },
    {
      "inputs": [],
      "name": "totalSupply",
      "outputs": [
        {
          "internalType": "uint256",
          "name": "",
          "type": "uint256"
        }
      ],
      "stateMutability": "view",
      "type": "function"
    },
    {
      "inputs": [
        {
          "internalType": "address",
          "name": "from",
          "type": "address"
        },
        {
          "internalType": "address",
          "name": "to",
          "type": "address"
        },
        {
          "internalType": "uint256",
          "name": "tokenId",
          "type": "uint256"
        }
      ],
      "name": "transferFrom",
      "outputs": [],
      "stateMutability": "nonpayable",
      "type": "function"
    },
    {
      "inputs": [
        {
          "internalType": "address",
          "name": "newOwner",
          "type": "address"
        }
      ],
      "name": "transferOwnership",
      "outputs": [],
      "stateMutability": "nonpayable",
      "type": "function"
    },
    {
      "inputs": [],
      "name": "uri",
      "outputs": [
        {
          "internalType": "string",
          "name": "",
          "type": "string"
        }
      ],
      "stateMutability": "view",
      "type": "function"
    },
    {
      "inputs": [],
      "name": "uriPrefix",
      "outputs": [
        {
          "internalType": "string",
          "name": "",
          "type": "string"
        }
      ],
      "stateMutability": "view",
      "type": "function"
    },
    {
      "inputs": [],
      "name": "uriSuffix",
      "outputs": [
        {
          "internalType": "string",
          "name": "",
          "type": "string"
        }
      ],
      "stateMutability": "view",
      "type": "function"
    },
    {
      "inputs": [],
      "name": "whitelistDiscount",
      "outputs": [
        {
          "internalType": "uint256",
          "name": "",
          "type": "uint256"
        }
      ],
      "stateMutability": "view",
      "type": "function"
    },
    {
      "inputs": [],
      "name": "whitelistMintEnabled",
      "outputs": [
        {
          "internalType": "bool",
          "name": "",
          "type": "bool"
        }
      ],
      "stateMutability": "view",
      "type": "function"
    },
    {
      "inputs": [],
      "name": "withdraw",
      "outputs": [],
      "stateMutability": "nonpayable",
      "type": "function"
    }
  ],
  "bytecode": "0x608060405260405180602001604052806000815250600990805190602001906200002b9291906200064e565b506040518060400160405280600581526020017f2e6a736f6e000000000000000000000000000000000000000000000000000000815250600a9080519060200190620000799291906200064e565b5060405180606001604052806036815260200162005fdb60369139600b9080519060200190620000ab9291906200064e565b506040518060600160405280603681526020016200601160369139600c9080519060200190620000dd9291906200064e565b5061271060105560006011556001601260006101000a81548160ff0219169083151502179055506001601260016101000a81548160ff02191690831515021790555060146013553480156200013157600080fd5b506040516200604738038062006047833981810160405281019062000157919062000768565b733cc6cdda760b79bafa08df41ecfa224f810dceb660016040518060400160405280600b81526020017f4d79737465727920426f780000000000000000000000000000000000000000008152506040518060400160405280600281526020017f4d42000000000000000000000000000000000000000000000000000000000000815250620001fa620001ee6200057960201b60201c565b6200058160201b60201c565b8160039080519060200190620002129291906200064e565b5080600490805190602001906200022b9291906200064e565b506200023c6200064560201b60201c565b600181905550505060006daaeb6d7670e522a718067333cd4e73ffffffffffffffffffffffffffffffffffffffff163b111562000439578015620002ff576daaeb6d7670e522a718067333cd4e73ffffffffffffffffffffffffffffffffffffffff16637d3e3dbe30846040518363ffffffff1660e01b8152600401620002c5929190620007d5565b600060405180830381600087803b158015620002e057600080fd5b505af1158015620002f5573d6000803e3d6000fd5b5050505062000438565b600073ffffffffffffffffffffffffffffffffffffffff168273ffffffffffffffffffffffffffffffffffffffff1614620003b9576daaeb6d7670e522a718067333cd4e73ffffffffffffffffffffffffffffffffffffffff1663a0af290330846040518363ffffffff1660e01b81526004016200037f929190620007d5565b600060405180830381600087803b1580156200039a57600080fd5b505af1158015620003af573d6000803e3d6000fd5b5050505062000437565b6daaeb6d7670e522a718067333cd4e73ffffffffffffffffffffffffffffffffffffffff16634420e486306040518263ffffffff1660e01b815260040162000402919062000802565b600060405180830381600087803b1580156200041d57600080fd5b505af115801562000432573d6000803e3d6000fd5b505050505b5b5b5050600073ffffffffffffffffffffffffffffffffffffffff168373ffffffffffffffffffffffffffffffffffffffff1603620004ad576040517f08c379a0000000000000000000000000000000000000000000000000000000008152600401620004a49062000880565b60405180910390fd5b82600d60006101000a81548173ffffffffffffffffffffffffffffffffffffffff021916908373ffffffffffffffffffffffffffffffffffffffff16021790555081600e60006101000a81548173ffffffffffffffffffffffffffffffffffffffff021916908373ffffffffffffffffffffffffffffffffffffffff16021790555080600f60006101000a81548173ffffffffffffffffffffffffffffffffffffffff021916908373ffffffffffffffffffffffffffffffffffffffff16021790555050505062000906565b600033905090565b60008060009054906101000a900473ffffffffffffffffffffffffffffffffffffffff169050816000806101000a81548173ffffffffffffffffffffffffffffffffffffffff021916908373ffffffffffffffffffffffffffffffffffffffff1602179055508173ffffffffffffffffffffffffffffffffffffffff168173ffffffffffffffffffffffffffffffffffffffff167f8be0079c531659141344cd1fd0a4f28419497f9722a3daafe3b4186f6b6457e060405160405180910390a35050565b60006001905090565b8280546200065c90620008d1565b90600052602060002090601f016020900481019282620006805760008555620006cc565b82601f106200069b57805160ff1916838001178555620006cc565b82800160010185558215620006cc579182015b82811115620006cb578251825591602001919060010190620006ae565b5b509050620006db9190620006df565b5090565b5b80821115620006fa576000816000905550600101620006e0565b5090565b600080fd5b600073ffffffffffffffffffffffffffffffffffffffff82169050919050565b6000620007308262000703565b9050919050565b620007428162000723565b81146200074e57600080fd5b50565b600081519050620007628162000737565b92915050565b600080600060608486031215620007845762000783620006fe565b5b6000620007948682870162000751565b9350506020620007a78682870162000751565b9250506040620007ba8682870162000751565b9150509250925092565b620007cf8162000723565b82525050565b6000604082019050620007ec6000830185620007c4565b620007fb6020830184620007c4565b9392505050565b6000602082019050620008196000830184620007c4565b92915050565b600082825260208201905092915050565b7f496e76616c696420555344432061646472657373000000000000000000000000600082015250565b6000620008686014836200081f565b9150620008758262000830565b602082019050919050565b600060208201905081810360008301526200089b8162000859565b9050919050565b7f4e487b7100000000000000000000000000000000000000000000000000000000600052602260045260246000fd5b60006002820490506001821680620008ea57607f821691505b6020821081036200090057620008ff620008a2565b5b50919050565b6156c580620009166000396000f3fe608060405234801561001057600080fd5b506004361061030c5760003560e01c80637af284d51161019d578063c87b56dd116100e9578063e985e9c5116100a2578063f42176481161007c578063f421764814610931578063f7d975771461094d578063fb6f7a9a14610969578063fce55037146109875761030c565b8063e985e9c5146108c7578063eac989f8146108f7578063f2fde38b146109155761030c565b8063c87b56dd146107ef578063d547cfb71461081f578063d5abeb011461083d578063e75722301461085b578063e8a3d4851461088b578063e9303209146108a95761030c565b8063a49a1e7d11610156578063b767a09811610130578063b767a0981461077d578063b88d4fde14610799578063c0e24d5e146107b5578063c37845b2146107d35761030c565b8063a49a1e7d14610729578063aaf5bfc314610745578063b1e5e2b7146107615761030c565b80637af284d51461067b578063818668d7146106995780638ba4cc3c146106b55780638da5cb5b146106d157806395d89b41146106ef578063a22cb4651461070d5761030c565b806349a9493c1161025c5780636b1926291161021557806370a08231116101ef57806370a08231146105e1578063715018a61461061157806372fc44cc1461061b578063765f1b0c1461064b5761030c565b80636b192629146105895780636caede3d146105a75780636ed5cf25146105c55761030c565b806349a9493c146104af5780634ed3faf2146104cb5780635503a0e8146105015780635631ce361461051f57806362b99ad41461053b5780636352211e146105595761030c565b80631b2ef1ca116102c95780633222e738116102a35780633222e7381461043d5780633af32abf146104595780633ccfd60b1461048957806342842e0e146104935761030c565b80631b2ef1ca146103e757806323b872dd146104035780632c7d86ba1461041f5761030c565b806301ffc9a71461031157806306fdde0314610341578063081812fc1461035f578063095ea7b31461038f5780630f4161aa146103ab57806318160ddd146103c9575b600080fd5b61032b60048036038101906103269190614196565b6109a3565b60405161033891906141de565b60405180910390f35b610349610a35565b6040516103569190614292565b60405180910390f35b610379600480360381019061037491906142ea565b610ac7565b6040516103869190614358565b60405180910390f35b6103a960048036038101906103a4919061439f565b610b46565b005b6103b3610c8a565b6040516103c091906141de565b60405180910390f35b6103d1610c9d565b6040516103de91906143ee565b60405180910390f35b61040160048036038101906103fc9190614409565b610cb4565b005b61041d60048036038101906104189190614449565b611027565b005b610427611209565b6040516104349190614358565b60405180910390f35b610457600480360381019061045291906142ea565b61122f565b005b610473600480360381019061046e919061449c565b611241565b60405161048091906141de565b60405180910390f35b6104916112e7565b005b6104ad60048036038101906104a89190614449565b61155e565b005b6104c960048036038101906104c491906144f5565b611740565b005b6104e560048036038101906104e091906142ea565b6117d0565b6040516104f89796959493929190614535565b60405180910390f35b6105096118c4565b6040516105169190614292565b60405180910390f35b610539600480360381019061053491906142ea565b611952565b005b610543611b21565b6040516105509190614292565b60405180910390f35b610573600480360381019061056e91906142ea565b611baf565b6040516105809190614358565b60405180910390f35b610591611bc1565b60405161059e91906143ee565b60405180910390f35b6105af611bc7565b6040516105bc91906141de565b60405180910390f35b6105df60048036038101906105da91906146e0565b611bda565b005b6105fb60048036038101906105f6919061449c565b611cd3565b60405161060891906143ee565b60405180910390f35b610619611d8b565b005b610635600480360381019061063091906142ea565b611d9f565b6040516106429190614292565b60405180910390f35b610665600480360381019061066091906142ea565b611e9d565b60405161067291906143ee565b60405180910390f35b610683611f13565b60405161069091906143ee565b60405180910390f35b6106b360048036038101906106ae9190614763565b611f19565b005b6106cf60048036038101906106ca919061439f565b611f3e565b005b6106d9611f54565b6040516106e69190614358565b60405180910390f35b6106f7611f7d565b6040516107049190614292565b60405180910390f35b61072760048036038101906107229190614790565b61200f565b005b610743600480360381019061073e91906147d0565b612186565b005b61075f600480360381019061075a919061449c565b6121a8565b005b61077b600480360381019061077691906142ea565b6121f4565b005b61079760048036038101906107929190614763565b612486565b005b6107b360048036038101906107ae91906148ba565b6124ab565b005b6107bd612690565b6040516107ca9190614292565b60405180910390f35b6107ed60048036038101906107e89190614409565b61271e565b005b610809600480360381019061080491906142ea565b6127e9565b6040516108169190614292565b60405180910390f35b61082761290c565b6040516108349190614292565b60405180910390f35b61084561291b565b60405161085291906143ee565b60405180910390f35b610875600480360381019061087091906142ea565b612921565b60405161088291906143ee565b60405180910390f35b610893612950565b6040516108a09190614292565b60405180910390f35b6108b16129e2565b6040516108be9190614358565b60405180910390f35b6108e160048036038101906108dc919061493d565b612a08565b6040516108ee91906141de565b60405180910390f35b6108ff612a9c565b60405161090c9190614292565b60405180910390f35b61092f600480360381019061092a919061449c565b612b2a565b005b61094b60048036038101906109469190614a45565b612bad565b005b61096760048036038101906109629190614409565b612bdd565b005b610971612c5a565b60405161097e9190614358565b60405180910390f35b6109a1600480360381019061099c91906147d0565b612c80565b005b60006301ffc9a760e01b827bffffffffffffffffffffffffffffffffffffffffffffffffffffffff191614806109fe57506380ac58cd60e01b827bffffffffffffffffffffffffffffffffffffffffffffffffffffffff1916145b80610a2e5750635b5e139f60e01b827bffffffffffffffffffffffffffffffffffffffffffffffffffffffff1916145b9050919050565b606060038054610a4490614abd565b80601f0160208091040260200160405190810160405280929190818152602001828054610a7090614abd565b8015610abd5780601f10610a9257610100808354040283529160200191610abd565b820191906000526020600020905b815481529060010190602001808311610aa057829003601f168201915b5050505050905090565b6000610ad282612ca2565b610b08576040517fcf4700e400000000000000000000000000000000000000000000000000000000815260040160405180910390fd5b6007600083815260200190815260200160002060000160009054906101000a900473ffffffffffffffffffffffffffffffffffffffff169050919050565b6000610b5182611baf565b90508073ffffffffffffffffffffffffffffffffffffffff16610b72612d01565b73ffffffffffffffffffffffffffffffffffffffff1614610bd557610b9e81610b99612d01565b612a08565b610bd4576040517fcfb3b94200000000000000000000000000000000000000000000000000000000815260040160405180910390fd5b5b826007600084815260200190815260200160002060000160006101000a81548173ffffffffffffffffffffffffffffffffffffffff021916908373ffffffffffffffffffffffffffffffffffffffff160217905550818373ffffffffffffffffffffffffffffffffffffffff168273ffffffffffffffffffffffffffffffffffffffff167f8c5be1e5ebec7d5bd14f71427d1e84f3dd0314c0f7b2291e5b200ac8c7c3b92560405160405180910390a4505050565b601260009054906101000a900460ff1681565b6000610ca7612d09565b6002546001540303905090565b60105481601154610cc59190614b1d565b1115610d06576040517f08c379a0000000000000000000000000000000000000000000000000000000008152600401610cfd90614be5565b60405180910390fd5b6015805490508210610d4d576040517f08c379a0000000000000000000000000000000000000000000000000000000008152600401610d4490614c51565b60405180910390fd5b60158281548110610d6157610d60614c71565b5b906000526020600020906006020160050160009054906101000a900460ff16610dbf576040517f08c379a0000000000000000000000000000000000000000000000000000000008152600401610db690614cec565b60405180910390fd5b8060158381548110610dd457610dd3614c71565b5b9060005260206000209060060201600401541015610e27576040517f08c379a0000000000000000000000000000000000000000000000000000000008152600401610e1e90614d58565b60405180910390fd5b6000610e3233611241565b9050601260009054906101000a900460ff1680610e645750808015610e635750601260019054906101000a900460ff165b5b610ea3576040517f08c379a0000000000000000000000000000000000000000000000000000000008152600401610e9a90614dc4565b60405180910390fd5b60005b82811015610ef557836016600083610ebc612d12565b610ec4612d09565b610ece9190614b1d565b610ed89190614b1d565b815260200190815260200160002081905550806001019050610ea6565b50600082610f0285612921565b610f0c9190614de4565b90508115610f3d5760646013546064610f259190614e3e565b82610f309190614de4565b610f3a9190614ea1565b90505b610f8c333083600d60009054906101000a900473ffffffffffffffffffffffffffffffffffffffff1673ffffffffffffffffffffffffffffffffffffffff16612d25909392919063ffffffff16565b610f963384612dae565b60158481548110610faa57610fa9614c71565b5b90600052602060002090600602016004016000815480929190610fcc90614ed2565b91905055508260116000828254610fe39190614b1d565b925050819055507ff5535ccd9f40eb4bc73fac8710dbb2effbf3329da83f62b35d9aa88161bb85ca336040516110199190614358565b60405180910390a150505050565b8260006daaeb6d7670e522a718067333cd4e73ffffffffffffffffffffffffffffffffffffffff163b11156111f7573373ffffffffffffffffffffffffffffffffffffffff168173ffffffffffffffffffffffffffffffffffffffff160361109957611094848484612f6a565b611203565b6daaeb6d7670e522a718067333cd4e73ffffffffffffffffffffffffffffffffffffffff1663c617113430336040518363ffffffff1660e01b81526004016110e2929190614efb565b602060405180830381865afa1580156110ff573d6000803e3d6000fd5b505050506040513d601f19601f820116820180604052508101906111239190614f39565b80156111b557506daaeb6d7670e522a718067333cd4e73ffffffffffffffffffffffffffffffffffffffff1663c617113430836040518363ffffffff1660e01b8152600401611173929190614efb565b602060405180830381865afa158015611190573d6000803e3d6000fd5b505050506040513d601f19601f820116820180604052508101906111b49190614f39565b5b6111f657336040517fede71dcc0000000000000000000000000000000000000000000000000000000081526004016111ed9190614358565b60405180910390fd5b5b611202848484612f6a565b5b50505050565b600e60009054906101000a900473ffffffffffffffffffffffffffffffffffffffff1681565b61123761328c565b8060138190555050565b600080600090505b6014805490508110156112dc578273ffffffffffffffffffffffffffffffffffffffff166014828154811061128157611280614c71565b5b9060005260206000200160009054906101000a900473ffffffffffffffffffffffffffffffffffffffff1673ffffffffffffffffffffffffffffffffffffffff16036112d15760019150506112e2565b806001019050611249565b50600090505b919050565b6112ef61328c565b3373ffffffffffffffffffffffffffffffffffffffff166108fc479081150290604051600060405180830381858888f19350505050158015611335573d6000803e3d6000fd5b50600d60009054906101000a900473ffffffffffffffffffffffffffffffffffffffff1673ffffffffffffffffffffffffffffffffffffffff1663095ea7b330600d60009054906101000a900473ffffffffffffffffffffffffffffffffffffffff1673ffffffffffffffffffffffffffffffffffffffff166370a08231306040518263ffffffff1660e01b81526004016113d09190614358565b602060405180830381865afa1580156113ed573d6000803e3d6000fd5b505050506040513d601f19601f820116820180604052508101906114119190614f7b565b6040518363ffffffff1660e01b815260040161142e929190614fa8565b6020604051808303816000875af115801561144d573d6000803e3d6000fd5b505050506040513d601f19601f820116820180604052508101906114719190614f39565b5061155c3033600d60009054906101000a900473ffffffffffffffffffffffffffffffffffffffff1673ffffffffffffffffffffffffffffffffffffffff166370a08231306040518263ffffffff1660e01b81526004016114d29190614358565b602060405180830381865afa1580156114ef573d6000803e3d6000fd5b505050506040513d601f19601f820116820180604052508101906115139190614f7b565b600d60009054906101000a900473ffffffffffffffffffffffffffffffffffffffff1673ffffffffffffffffffffffffffffffffffffffff16612d25909392919063ffffffff16565b565b8260006daaeb6d7670e522a718067333cd4e73ffffffffffffffffffffffffffffffffffffffff163b111561172e573373ffffffffffffffffffffffffffffffffffffffff168173ffffffffffffffffffffffffffffffffffffffff16036115d0576115cb84848461330a565b61173a565b6daaeb6d7670e522a718067333cd4e73ffffffffffffffffffffffffffffffffffffffff1663c617113430336040518363ffffffff1660e01b8152600401611619929190614efb565b602060405180830381865afa158015611636573d6000803e3d6000fd5b505050506040513d601f19601f8201168201806040525081019061165a9190614f39565b80156116ec57506daaeb6d7670e522a718067333cd4e73ffffffffffffffffffffffffffffffffffffffff1663c617113430836040518363ffffffff1660e01b81526004016116aa929190614efb565b602060405180830381865afa1580156116c7573d6000803e3d6000fd5b505050506040513d601f19601f820116820180604052508101906116eb9190614f39565b5b61172d57336040517fede71dcc0000000000000000000000000000000000000000000000000000000081526004016117249190614358565b60405180910390fd5b5b61173984848461330a565b5b50505050565b61174861328c565b601580549050821061178f576040517f08c379a000000000000000000000000000000000000000000000000000000000815260040161178690614c51565b60405180910390fd5b80601583815481106117a4576117a3614c71565b5b906000526020600020906006020160050160006101000a81548160ff0219169083151502179055505050565b601581815481106117e057600080fd5b906000526020600020906006020160009150905080600001805461180390614abd565b80601f016020809104026020016040519081016040528092919081815260200182805461182f90614abd565b801561187c5780601f106118515761010080835404028352916020019161187c565b820191906000526020600020905b81548152906001019060200180831161185f57829003601f168201915b5050505050908060010154908060020154908060030154908060040154908060050160009054906101000a900460ff16908060050160019054906101000a900460ff16905087565b600a80546118d190614abd565b80601f01602080910402602001604051908101604052809291908181526020018280546118fd90614abd565b801561194a5780601f1061191f5761010080835404028352916020019161194a565b820191906000526020600020905b81548152906001019060200180831161192d57829003601f168201915b505050505081565b61195a61328c565b60158054905081106119a1576040517f08c379a000000000000000000000000000000000000000000000000000000000815260040161199890614c51565b60405180910390fd5b601560016015805490506119b59190614e3e565b815481106119c6576119c5614c71565b5b9060005260206000209060060201601582815481106119e8576119e7614c71565b5b90600052602060002090600602016000820181600001908054611a0a90614abd565b611a15929190613f0f565b50600182015481600101556002820154816002015560038201548160030155600482015481600401556005820160009054906101000a900460ff168160050160006101000a81548160ff0219169083151502179055506005820160019054906101000a900460ff168160050160016101000a81548160ff0219169083151502179055509050506015805480611aad57611aac614fd1565b5b600190038181906000526020600020906006020160008082016000611ad29190613f9c565b60018201600090556002820160009055600382016000905560048201600090556005820160006101000a81549060ff02191690556005820160016101000a81549060ff02191690555050905550565b60098054611b2e90614abd565b80601f0160208091040260200160405190810160405280929190818152602001828054611b5a90614abd565b8015611ba75780601f10611b7c57610100808354040283529160200191611ba7565b820191906000526020600020905b815481529060010190602001808311611b8a57829003601f168201915b505050505081565b6000611bba8261332a565b9050919050565b60135481565b601260019054906101000a900460ff1681565b611be261328c565b60156040518060e001604052808681526020018581526020016000815260200184815260200184815260200160011515815260200183151581525090806001815401808255809150506001900390600052602060002090600602016000909190919091506000820151816000019080519060200190611c62929190613fdc565b506020820151816001015560408201518160020155606082015181600301556080820151816004015560a08201518160050160006101000a81548160ff02191690831515021790555060c08201518160050160016101000a81548160ff021916908315150217905550505050505050565b60008073ffffffffffffffffffffffffffffffffffffffff168273ffffffffffffffffffffffffffffffffffffffff1603611d3a576040517f8f4eb60400000000000000000000000000000000000000000000000000000000815260040160405180910390fd5b67ffffffffffffffff600660008473ffffffffffffffffffffffffffffffffffffffff1673ffffffffffffffffffffffffffffffffffffffff16815260200190815260200160002054169050919050565b611d9361328c565b611d9d60006133f6565b565b60606015805490508210611de8576040517f08c379a0000000000000000000000000000000000000000000000000000000008152600401611ddf90614c51565b60405180910390fd5b60158281548110611dfc57611dfb614c71565b5b90600052602060002090600602016000018054611e1890614abd565b80601f0160208091040260200160405190810160405280929190818152602001828054611e4490614abd565b8015611e915780601f10611e6657610100808354040283529160200191611e91565b820191906000526020600020905b815481529060010190602001808311611e7457829003601f168201915b50505050509050919050565b60006015805490508210611ee6576040517f08c379a0000000000000000000000000000000000000000000000000000000008152600401611edd90614c51565b60405180910390fd5b60158281548110611efa57611ef9614c71565b5b9060005260206000209060060201600101549050919050565b60115481565b611f2161328c565b80601260006101000a81548160ff02191690831515021790555050565b611f4661328c565b611f508282612dae565b5050565b60008060009054906101000a900473ffffffffffffffffffffffffffffffffffffffff16905090565b606060048054611f8c90614abd565b80601f0160208091040260200160405190810160405280929190818152602001828054611fb890614abd565b80156120055780601f10611fda57610100808354040283529160200191612005565b820191906000526020600020905b815481529060010190602001808311611fe857829003601f168201915b5050505050905090565b612017612d01565b73ffffffffffffffffffffffffffffffffffffffff168273ffffffffffffffffffffffffffffffffffffffff160361207b576040517fb06307db00000000000000000000000000000000000000000000000000000000815260040160405180910390fd5b8060086000612088612d01565b73ffffffffffffffffffffffffffffffffffffffff1673ffffffffffffffffffffffffffffffffffffffff16815260200190815260200160002060008473ffffffffffffffffffffffffffffffffffffffff1673ffffffffffffffffffffffffffffffffffffffff16815260200190815260200160002060006101000a81548160ff0219169083151502179055508173ffffffffffffffffffffffffffffffffffffffff16612135612d01565b73ffffffffffffffffffffffffffffffffffffffff167f17307eab39ab6107e8899845ad3d59bd9653f200f220920489ca2b5937696c318360405161217a91906141de565b60405180910390a35050565b61218e61328c565b80600b90805190602001906121a4929190613fdc565b5050565b6121b061328c565b80600d60006101000a81548173ffffffffffffffffffffffffffffffffffffffff021916908373ffffffffffffffffffffffffffffffffffffffff16021790555050565b3373ffffffffffffffffffffffffffffffffffffffff1661221482611baf565b73ffffffffffffffffffffffffffffffffffffffff161461226a576040517f08c379a00000000000000000000000000000000000000000000000000000000081526004016122619061504c565b60405180910390fd5b3273ffffffffffffffffffffffffffffffffffffffff166122896134ba565b73ffffffffffffffffffffffffffffffffffffffff16146122df576040517f08c379a00000000000000000000000000000000000000000000000000000000081526004016122d6906150b8565b60405180910390fd5b600060166000838152602001908152602001600020549050600e60009054906101000a900473ffffffffffffffffffffffffffffffffffffffff1673ffffffffffffffffffffffffffffffffffffffff16632bf7e4cf336015848154811061234a57612349614c71565b5b906000526020600020906006020160050160019054906101000a900460ff166040518363ffffffff1660e01b81526004016123869291906150d8565b600060405180830381600087803b1580156123a057600080fd5b505af11580156123b4573d6000803e3d6000fd5b50505050600f60009054906101000a900473ffffffffffffffffffffffffffffffffffffffff1673ffffffffffffffffffffffffffffffffffffffff16632bf7e4cf336015848154811061240b5761240a614c71565b5b906000526020600020906006020160050160019054906101000a900460ff166040518363ffffffff1660e01b81526004016124479291906150d8565b600060405180830381600087803b15801561246157600080fd5b505af1158015612475573d6000803e3d6000fd5b50505050612482826134c2565b5050565b61248e61328c565b80601260016101000a81548160ff02191690831515021790555050565b8360006daaeb6d7670e522a718067333cd4e73ffffffffffffffffffffffffffffffffffffffff163b111561267c573373ffffffffffffffffffffffffffffffffffffffff168173ffffffffffffffffffffffffffffffffffffffff160361251e57612519858585856134d0565b612689565b6daaeb6d7670e522a718067333cd4e73ffffffffffffffffffffffffffffffffffffffff1663c617113430336040518363ffffffff1660e01b8152600401612567929190614efb565b602060405180830381865afa158015612584573d6000803e3d6000fd5b505050506040513d601f19601f820116820180604052508101906125a89190614f39565b801561263a57506daaeb6d7670e522a718067333cd4e73ffffffffffffffffffffffffffffffffffffffff1663c617113430836040518363ffffffff1660e01b81526004016125f8929190614efb565b602060405180830381865afa158015612615573d6000803e3d6000fd5b505050506040513d601f19601f820116820180604052508101906126399190614f39565b5b61267b57336040517fede71dcc0000000000000000000000000000000000000000000000000000000081526004016126729190614358565b60405180910390fd5b5b612688858585856134d0565b5b5050505050565b600c805461269d90614abd565b80601f01602080910402602001604051908101604052809291908181526020018280546126c990614abd565b80156127165780601f106126eb57610100808354040283529160200191612716565b820191906000526020600020905b8154815290600101906020018083116126f957829003601f168201915b505050505081565b61272661328c565b601580549050821061276d576040517f08c379a000000000000000000000000000000000000000000000000000000000815260040161276490614c51565b60405180910390fd5b806015838154811061278257612781614c71565b5b906000526020600020906006020160030160008282546127a29190614b1d565b9250508190555080601583815481106127be576127bd614c71565b5b906000526020600020906006020160040160008282546127de9190614b1d565b925050819055505050565b60606127f482612ca2565b612833576040517f08c379a000000000000000000000000000000000000000000000000000000000815260040161282a90615173565b60405180910390fd5b60158054905060166000848152602001908152602001600020541061288d576040517f08c379a000000000000000000000000000000000000000000000000000000000815260040161288490614c51565b60405180910390fd5b6000612897613543565b905060008151116128b75760405180602001604052806000815250612904565b806128e0600160166000878152602001908152602001600020546128db9190614b1d565b6135d5565b600a6040516020016128f493929190615263565b6040516020818303038152906040525b915050919050565b6060612916613543565b905090565b60105481565b60006015828154811061293757612936614c71565b5b9060005260206000209060060201600101549050919050565b6060600c805461295f90614abd565b80601f016020809104026020016040519081016040528092919081815260200182805461298b90614abd565b80156129d85780601f106129ad576101008083540402835291602001916129d8565b820191906000526020600020905b8154815290600101906020018083116129bb57829003601f168201915b5050505050905090565b600d60009054906101000a900473ffffffffffffffffffffffffffffffffffffffff1681565b6000600860008473ffffffffffffffffffffffffffffffffffffffff1673ffffffffffffffffffffffffffffffffffffffff16815260200190815260200160002060008373ffffffffffffffffffffffffffffffffffffffff1673ffffffffffffffffffffffffffffffffffffffff16815260200190815260200160002060009054906101000a900460ff16905092915050565b600b8054612aa990614abd565b80601f0160208091040260200160405190810160405280929190818152602001828054612ad590614abd565b8015612b225780601f10612af757610100808354040283529160200191612b22565b820191906000526020600020905b815481529060010190602001808311612b0557829003601f168201915b505050505081565b612b3261328c565b600073ffffffffffffffffffffffffffffffffffffffff168173ffffffffffffffffffffffffffffffffffffffff1603612ba1576040517f08c379a0000000000000000000000000000000000000000000000000000000008152600401612b9890615306565b60405180910390fd5b612baa816133f6565b50565b612bb561328c565b60146000612bc39190614062565b8060149080519060200190612bd9929190614083565b5050565b612be561328c565b6015805490508210612c2c576040517f08c379a0000000000000000000000000000000000000000000000000000000008152600401612c2390614c51565b60405180910390fd5b8060158381548110612c4157612c40614c71565b5b9060005260206000209060060201600101819055505050565b600f60009054906101000a900473ffffffffffffffffffffffffffffffffffffffff1681565b612c8861328c565b80600c9080519060200190612c9e929190613fdc565b5050565b600081612cad612d09565b11158015612cbc575060015482105b8015612cfa575060007c0100000000000000000000000000000000000000000000000000000000600560008581526020019081526020016000205416145b9050919050565b600033905090565b60006001905090565b6000612d1c612d09565b60015403905090565b612da8846323b872dd60e01b858585604051602401612d4693929190615326565b604051602081830303815290604052907bffffffffffffffffffffffffffffffffffffffffffffffffffffffff19166020820180517bffffffffffffffffffffffffffffffffffffffffffffffffffffffff83818316178352505050506136a3565b50505050565b6000600154905060008203612def576040517fb562e8dd00000000000000000000000000000000000000000000000000000000815260040160405180910390fd5b612dfc600084838561376a565b600160406001901b178202600660008573ffffffffffffffffffffffffffffffffffffffff1673ffffffffffffffffffffffffffffffffffffffff16815260200190815260200160002060008282540192505081905550612e7383612e646000866000613770565b612e6d85613798565b176137a8565b6005600083815260200190815260200160002081905550600080838301905073ffffffffffffffffffffffffffffffffffffffff85169150828260007fddf252ad1be2c89b69c2b068fc378daa952ba7f163c4a11628f55a4df523b3ef600080a4600183015b818114612f1457808360007fddf252ad1be2c89b69c2b068fc378daa952ba7f163c4a11628f55a4df523b3ef600080a4600181019050612ed9565b5060008203612f4f576040517f2e07630000000000000000000000000000000000000000000000000000000000815260040160405180910390fd5b806001819055505050612f6560008483856137d3565b505050565b6000612f758261332a565b90508373ffffffffffffffffffffffffffffffffffffffff168173ffffffffffffffffffffffffffffffffffffffff1614612fdc576040517fa114810000000000000000000000000000000000000000000000000000000000815260040160405180910390fd5b600080612fe8846137d9565b91509150612ffe8187612ff9612d01565b613800565b61304a576130138661300e612d01565b612a08565b613049576040517f59c896be00000000000000000000000000000000000000000000000000000000815260040160405180910390fd5b5b600073ffffffffffffffffffffffffffffffffffffffff168573ffffffffffffffffffffffffffffffffffffffff16036130b0576040517fea553b3400000000000000000000000000000000000000000000000000000000815260040160405180910390fd5b6130bd868686600161376a565b80156130c857600082555b600660008773ffffffffffffffffffffffffffffffffffffffff1673ffffffffffffffffffffffffffffffffffffffff168152602001908152602001600020600081546001900391905081905550600660008673ffffffffffffffffffffffffffffffffffffffff1673ffffffffffffffffffffffffffffffffffffffff168152602001908152602001600020600081546001019190508190555061319685613172888887613770565b7c0200000000000000000000000000000000000000000000000000000000176137a8565b600560008681526020019081526020016000208190555060007c020000000000000000000000000000000000000000000000000000000084160361321c576000600185019050600060056000838152602001908152602001600020540361321a576001548114613219578360056000838152602001908152602001600020819055505b5b505b838573ffffffffffffffffffffffffffffffffffffffff168773ffffffffffffffffffffffffffffffffffffffff167fddf252ad1be2c89b69c2b068fc378daa952ba7f163c4a11628f55a4df523b3ef60405160405180910390a461328486868660016137d3565b505050505050565b6132946134ba565b73ffffffffffffffffffffffffffffffffffffffff166132b2611f54565b73ffffffffffffffffffffffffffffffffffffffff1614613308576040517f08c379a00000000000000000000000000000000000000000000000000000000081526004016132ff906153a9565b60405180910390fd5b565b613325838383604051806020016040528060008152506124ab565b505050565b60008082905080613339612d09565b116133bf576001548110156133be5760006005600083815260200190815260200160002054905060007c01000000000000000000000000000000000000000000000000000000008216036133bc575b600081036133b2576005600083600190039350838152602001908152602001600020549050613388565b80925050506133f1565b505b5b6040517fdf2d9b4200000000000000000000000000000000000000000000000000000000815260040160405180910390fd5b919050565b60008060009054906101000a900473ffffffffffffffffffffffffffffffffffffffff169050816000806101000a81548173ffffffffffffffffffffffffffffffffffffffff021916908373ffffffffffffffffffffffffffffffffffffffff1602179055508173ffffffffffffffffffffffffffffffffffffffff168173ffffffffffffffffffffffffffffffffffffffff167f8be0079c531659141344cd1fd0a4f28419497f9722a3daafe3b4186f6b6457e060405160405180910390a35050565b600033905090565b6134cd816000613844565b50565b6134db848484611027565b60008373ffffffffffffffffffffffffffffffffffffffff163b1461353d5761350684848484613a96565b61353c576040517fd1a57ed600000000000000000000000000000000000000000000000000000000815260040160405180910390fd5b5b50505050565b6060600b805461355290614abd565b80601f016020809104026020016040519081016040528092919081815260200182805461357e90614abd565b80156135cb5780601f106135a0576101008083540402835291602001916135cb565b820191906000526020600020905b8154815290600101906020018083116135ae57829003601f168201915b5050505050905090565b6060600060016135e484613be6565b01905060008167ffffffffffffffff811115613603576136026145b5565b5b6040519080825280601f01601f1916602001820160405280156136355781602001600182028036833780820191505090505b509050600082602001820190505b600115613698578080600190039150507f3031323334353637383961626364656600000000000000000000000000000000600a86061a8153600a858161368c5761368b614e72565b5b04945060008503613643575b819350505050919050565b6000613705826040518060400160405280602081526020017f5361666545524332303a206c6f772d6c6576656c2063616c6c206661696c65648152508573ffffffffffffffffffffffffffffffffffffffff16613d399092919063ffffffff16565b905060008151111561376557808060200190518101906137259190614f39565b613764576040517f08c379a000000000000000000000000000000000000000000000000000000000815260040161375b9061543b565b60405180910390fd5b5b505050565b50505050565b60008060e883901c905060e8613787868684613d51565b62ffffff16901b9150509392505050565b60006001821460e11b9050919050565b600073ffffffffffffffffffffffffffffffffffffffff83169250814260a01b178317905092915050565b50505050565b60008060006007600085815260200190815260200160002090508092508254915050915091565b600073ffffffffffffffffffffffffffffffffffffffff8316925073ffffffffffffffffffffffffffffffffffffffff821691508382148383141790509392505050565b600061384f8361332a565b90506000819050600080613862866137d9565b9150915084156138cb5761387e8184613879612d01565b613800565b6138ca576138938361388e612d01565b612a08565b6138c9576040517f59c896be00000000000000000000000000000000000000000000000000000000815260040160405180910390fd5b5b5b6138d983600088600161376a565b80156138e457600082555b600160806001901b03600660008573ffffffffffffffffffffffffffffffffffffffff1673ffffffffffffffffffffffffffffffffffffffff1681526020019081526020016000206000828254019250508190555061398c8361394985600088613770565b7c02000000000000000000000000000000000000000000000000000000007c010000000000000000000000000000000000000000000000000000000017176137a8565b600560008881526020019081526020016000208190555060007c0200000000000000000000000000000000000000000000000000000000851603613a125760006001870190506000600560008381526020019081526020016000205403613a10576001548114613a0f578460056000838152602001908152602001600020819055505b5b505b85600073ffffffffffffffffffffffffffffffffffffffff168473ffffffffffffffffffffffffffffffffffffffff167fddf252ad1be2c89b69c2b068fc378daa952ba7f163c4a11628f55a4df523b3ef60405160405180910390a4613a7c8360008860016137d3565b600260008154809291906001019190505550505050505050565b60008373ffffffffffffffffffffffffffffffffffffffff1663150b7a02613abc612d01565b8786866040518563ffffffff1660e01b8152600401613ade94939291906154b0565b6020604051808303816000875af1925050508015613b1a57506040513d601f19601f82011682018060405250810190613b179190615511565b60015b613b93573d8060008114613b4a576040519150601f19603f3d011682016040523d82523d6000602084013e613b4f565b606091505b506000815103613b8b576040517fd1a57ed600000000000000000000000000000000000000000000000000000000815260040160405180910390fd5b805181602001fd5b63150b7a0260e01b7bffffffffffffffffffffffffffffffffffffffffffffffffffffffff1916817bffffffffffffffffffffffffffffffffffffffffffffffffffffffff191614915050949350505050565b600080600090507a184f03e93ff9f4daa797ed6e38ed64bf6a1f0100000000000000008310613c44577a184f03e93ff9f4daa797ed6e38ed64bf6a1f0100000000000000008381613c3a57613c39614e72565b5b0492506040810190505b6d04ee2d6d415b85acef81000000008310613c81576d04ee2d6d415b85acef81000000008381613c7757613c76614e72565b5b0492506020810190505b662386f26fc100008310613cb057662386f26fc100008381613ca657613ca5614e72565b5b0492506010810190505b6305f5e1008310613cd9576305f5e1008381613ccf57613cce614e72565b5b0492506008810190505b6127108310613cfe576127108381613cf457613cf3614e72565b5b0492506004810190505b60648310613d215760648381613d1757613d16614e72565b5b0492506002810190505b600a8310613d30576001810190505b80915050919050565b6060613d488484600085613d5a565b90509392505050565b60009392505050565b606082471015613d9f576040517f08c379a0000000000000000000000000000000000000000000000000000000008152600401613d96906155b0565b60405180910390fd5b6000808673ffffffffffffffffffffffffffffffffffffffff168587604051613dc8919061560c565b60006040518083038185875af1925050503d8060008114613e05576040519150601f19603f3d011682016040523d82523d6000602084013e613e0a565b606091505b5091509150613e1b87838387613e27565b92505050949350505050565b60608315613e89576000835103613e8157613e4185613e9c565b613e80576040517f08c379a0000000000000000000000000000000000000000000000000000000008152600401613e779061566f565b60405180910390fd5b5b829050613e94565b613e938383613ebf565b5b949350505050565b6000808273ffffffffffffffffffffffffffffffffffffffff163b119050919050565b600082511115613ed25781518083602001fd5b806040517f08c379a0000000000000000000000000000000000000000000000000000000008152600401613f069190614292565b60405180910390fd5b828054613f1b90614abd565b90600052602060002090601f016020900481019282613f3d5760008555613f8b565b82601f10613f4e5780548555613f8b565b82800160010185558215613f8b57600052602060002091601f016020900482015b82811115613f8a578254825591600101919060010190613f6f565b5b509050613f98919061410d565b5090565b508054613fa890614abd565b6000825580601f10613fba5750613fd9565b601f016020900490600052602060002090810190613fd8919061410d565b5b50565b828054613fe890614abd565b90600052602060002090601f01602090048101928261400a5760008555614051565b82601f1061402357805160ff1916838001178555614051565b82800160010185558215614051579182015b82811115614050578251825591602001919060010190614035565b5b50905061405e919061410d565b5090565b5080546000825590600052602060002090810190614080919061410d565b50565b8280548282559060005260206000209081019282156140fc579160200282015b828111156140fb5782518260006101000a81548173ffffffffffffffffffffffffffffffffffffffff021916908373ffffffffffffffffffffffffffffffffffffffff160217905550916020019190600101906140a3565b5b509050614109919061410d565b5090565b5b8082111561412657600081600090555060010161410e565b5090565b6000604051905090565b600080fd5b600080fd5b60007fffffffff0000000000000000000000000000000000000000000000000000000082169050919050565b6141738161413e565b811461417e57600080fd5b50565b6000813590506141908161416a565b92915050565b6000602082840312156141ac576141ab614134565b5b60006141ba84828501614181565b91505092915050565b60008115159050919050565b6141d8816141c3565b82525050565b60006020820190506141f360008301846141cf565b92915050565b600081519050919050565b600082825260208201905092915050565b60005b83811015614233578082015181840152602081019050614218565b83811115614242576000848401525b50505050565b6000601f19601f8301169050919050565b6000614264826141f9565b61426e8185614204565b935061427e818560208601614215565b61428781614248565b840191505092915050565b600060208201905081810360008301526142ac8184614259565b905092915050565b6000819050919050565b6142c7816142b4565b81146142d257600080fd5b50565b6000813590506142e4816142be565b92915050565b600060208284031215614300576142ff614134565b5b600061430e848285016142d5565b91505092915050565b600073ffffffffffffffffffffffffffffffffffffffff82169050919050565b600061434282614317565b9050919050565b61435281614337565b82525050565b600060208201905061436d6000830184614349565b92915050565b61437c81614337565b811461438757600080fd5b50565b60008135905061439981614373565b92915050565b600080604083850312156143b6576143b5614134565b5b60006143c48582860161438a565b92505060206143d5858286016142d5565b9150509250929050565b6143e8816142b4565b82525050565b600060208201905061440360008301846143df565b92915050565b600080604083850312156144205761441f614134565b5b600061442e858286016142d5565b925050602061443f858286016142d5565b9150509250929050565b60008060006060848603121561446257614461614134565b5b60006144708682870161438a565b93505060206144818682870161438a565b9250506040614492868287016142d5565b9150509250925092565b6000602082840312156144b2576144b1614134565b5b60006144c08482850161438a565b91505092915050565b6144d2816141c3565b81146144dd57600080fd5b50565b6000813590506144ef816144c9565b92915050565b6000806040838503121561450c5761450b614134565b5b600061451a858286016142d5565b925050602061452b858286016144e0565b9150509250929050565b600060e082019050818103600083015261454f818a614259565b905061455e60208301896143df565b61456b60408301886143df565b61457860608301876143df565b61458560808301866143df565b61459260a08301856141cf565b61459f60c08301846141cf565b98975050505050505050565b600080fd5b600080fd5b7f4e487b7100000000000000000000000000000000000000000000000000000000600052604160045260246000fd5b6145ed82614248565b810181811067ffffffffffffffff8211171561460c5761460b6145b5565b5b80604052505050565b600061461f61412a565b905061462b82826145e4565b919050565b600067ffffffffffffffff82111561464b5761464a6145b5565b5b61465482614248565b9050602081019050919050565b82818337600083830152505050565b600061468361467e84614630565b614615565b90508281526020810184848401111561469f5761469e6145b0565b5b6146aa848285614661565b509392505050565b600082601f8301126146c7576146c66145ab565b5b81356146d7848260208601614670565b91505092915050565b600080600080608085870312156146fa576146f9614134565b5b600085013567ffffffffffffffff81111561471857614717614139565b5b614724878288016146b2565b9450506020614735878288016142d5565b9350506040614746878288016142d5565b9250506060614757878288016144e0565b91505092959194509250565b60006020828403121561477957614778614134565b5b6000614787848285016144e0565b91505092915050565b600080604083850312156147a7576147a6614134565b5b60006147b58582860161438a565b92505060206147c6858286016144e0565b9150509250929050565b6000602082840312156147e6576147e5614134565b5b600082013567ffffffffffffffff81111561480457614803614139565b5b614810848285016146b2565b91505092915050565b600067ffffffffffffffff821115614834576148336145b5565b5b61483d82614248565b9050602081019050919050565b600061485d61485884614819565b614615565b905082815260208101848484011115614879576148786145b0565b5b614884848285614661565b509392505050565b600082601f8301126148a1576148a06145ab565b5b81356148b184826020860161484a565b91505092915050565b600080600080608085870312156148d4576148d3614134565b5b60006148e28782880161438a565b94505060206148f38782880161438a565b9350506040614904878288016142d5565b925050606085013567ffffffffffffffff81111561492557614924614139565b5b6149318782880161488c565b91505092959194509250565b6000806040838503121561495457614953614134565b5b60006149628582860161438a565b92505060206149738582860161438a565b9150509250929050565b600067ffffffffffffffff821115614998576149976145b5565b5b602082029050602081019050919050565b600080fd5b60006149c16149bc8461497d565b614615565b905080838252602082019050602084028301858111156149e4576149e36149a9565b5b835b81811015614a0d57806149f9888261438a565b8452602084019350506020810190506149e6565b5050509392505050565b600082601f830112614a2c57614a2b6145ab565b5b8135614a3c8482602086016149ae565b91505092915050565b600060208284031215614a5b57614a5a614134565b5b600082013567ffffffffffffffff811115614a7957614a78614139565b5b614a8584828501614a17565b91505092915050565b7f4e487b7100000000000000000000000000000000000000000000000000000000600052602260045260246000fd5b60006002820490506001821680614ad557607f821691505b602082108103614ae857614ae7614a8e565b5b50919050565b7f4e487b7100000000000000000000000000000000000000000000000000000000600052601160045260246000fd5b6000614b28826142b4565b9150614b33836142b4565b9250827fffffffffffffffffffffffffffffffffffffffffffffffffffffffffffffffff03821115614b6857614b67614aee565b5b828201905092915050565b7f43616e2774206d696e74206d6f7265207468616e20746f74616c20737570706c60008201527f7900000000000000000000000000000000000000000000000000000000000000602082015250565b6000614bcf602183614204565b9150614bda82614b73565b604082019050919050565b60006020820190508181036000830152614bfe81614bc2565b9050919050565b7f626f784964206f7574206f662072616e67650000000000000000000000000000600082015250565b6000614c3b601283614204565b9150614c4682614c05565b602082019050919050565b60006020820190508181036000830152614c6a81614c2e565b9050919050565b7f4e487b7100000000000000000000000000000000000000000000000000000000600052603260045260246000fd5b7f4d696e74696e67206973206e6f7420656e61626c656400000000000000000000600082015250565b6000614cd6601683614204565b9150614ce182614ca0565b602082019050919050565b60006020820190508181036000830152614d0581614cc9565b9050919050565b7f43616e6e6f74206d696e74206d6f7265207468616e206d617820737570706c79600082015250565b6000614d42602083614204565b9150614d4d82614d0c565b602082019050919050565b60006020820190508181036000830152614d7181614d35565b9050919050565b7f4d696e742064697361626c656400000000000000000000000000000000000000600082015250565b6000614dae600d83614204565b9150614db982614d78565b602082019050919050565b60006020820190508181036000830152614ddd81614da1565b9050919050565b6000614def826142b4565b9150614dfa836142b4565b9250817fffffffffffffffffffffffffffffffffffffffffffffffffffffffffffffffff0483118215151615614e3357614e32614aee565b5b828202905092915050565b6000614e49826142b4565b9150614e54836142b4565b925082821015614e6757614e66614aee565b5b828203905092915050565b7f4e487b7100000000000000000000000000000000000000000000000000000000600052601260045260246000fd5b6000614eac826142b4565b9150614eb7836142b4565b925082614ec757614ec6614e72565b5b828204905092915050565b6000614edd826142b4565b915060008203614ef057614eef614aee565b5b600182039050919050565b6000604082019050614f106000830185614349565b614f1d6020830184614349565b9392505050565b600081519050614f33816144c9565b92915050565b600060208284031215614f4f57614f4e614134565b5b6000614f5d84828501614f24565b91505092915050565b600081519050614f75816142be565b92915050565b600060208284031215614f9157614f90614134565b5b6000614f9f84828501614f66565b91505092915050565b6000604082019050614fbd6000830185614349565b614fca60208301846143df565b9392505050565b7f4e487b7100000000000000000000000000000000000000000000000000000000600052603160045260246000fd5b7f596f7520646f206e6f74206f776e207468697320426f78000000000000000000600082015250565b6000615036601783614204565b915061504182615000565b602082019050919050565b6000602082019050818103600083015261506581615029565b9050919050565b7f6f70656e65722063616e6e6f7420626520736d61727420636f6e747261637400600082015250565b60006150a2601f83614204565b91506150ad8261506c565b602082019050919050565b600060208201905081810360008301526150d181615095565b9050919050565b60006040820190506150ed6000830185614349565b6150fa60208301846141cf565b9392505050565b7f4552433732314d657461646174613a2055524920717565727920666f72206e6f60008201527f6e6578697374656e7420746f6b656e0000000000000000000000000000000000602082015250565b600061515d602f83614204565b915061516882615101565b604082019050919050565b6000602082019050818103600083015261518c81615150565b9050919050565b600081905092915050565b60006151a9826141f9565b6151b38185615193565b93506151c3818560208601614215565b80840191505092915050565b60008190508160005260206000209050919050565b600081546151f181614abd565b6151fb8186615193565b9450600182166000811461521657600181146152275761525a565b60ff1983168652818601935061525a565b615230856151cf565b60005b8381101561525257815481890152600182019150602081019050615233565b838801955050505b50505092915050565b600061526f828661519e565b915061527b828561519e565b915061528782846151e4565b9150819050949350505050565b7f4f776e61626c653a206e6577206f776e657220697320746865207a65726f206160008201527f6464726573730000000000000000000000000000000000000000000000000000602082015250565b60006152f0602683614204565b91506152fb82615294565b604082019050919050565b6000602082019050818103600083015261531f816152e3565b9050919050565b600060608201905061533b6000830186614349565b6153486020830185614349565b61535560408301846143df565b949350505050565b7f4f776e61626c653a2063616c6c6572206973206e6f7420746865206f776e6572600082015250565b6000615393602083614204565b915061539e8261535d565b602082019050919050565b600060208201905081810360008301526153c281615386565b9050919050565b7f5361666545524332303a204552433230206f7065726174696f6e20646964206e60008201527f6f74207375636365656400000000000000000000000000000000000000000000602082015250565b6000615425602a83614204565b9150615430826153c9565b604082019050919050565b6000602082019050818103600083015261545481615418565b9050919050565b600081519050919050565b600082825260208201905092915050565b60006154828261545b565b61548c8185615466565b935061549c818560208601614215565b6154a581614248565b840191505092915050565b60006080820190506154c56000830187614349565b6154d26020830186614349565b6154df60408301856143df565b81810360608301526154f18184615477565b905095945050505050565b60008151905061550b8161416a565b92915050565b60006020828403121561552757615526614134565b5b6000615535848285016154fc565b91505092915050565b7f416464726573733a20696e73756666696369656e742062616c616e636520666f60008201527f722063616c6c0000000000000000000000000000000000000000000000000000602082015250565b600061559a602683614204565b91506155a58261553e565b604082019050919050565b600060208201905081810360008301526155c98161558d565b9050919050565b600081905092915050565b60006155e68261545b565b6155f081856155d0565b9350615600818560208601614215565b80840191505092915050565b600061561882846155db565b915081905092915050565b7f416464726573733a2063616c6c20746f206e6f6e2d636f6e7472616374000000600082015250565b6000615659601d83614204565b915061566482615623565b602082019050919050565b600060208201905081810360008301526156888161564c565b905091905056fea2646970667358221220356cbabd9dca1b34898c874943dc5cfbb855e64a01300885e1f923401bb7842764736f6c634300080d0033697066733a2f2f516d664e733434554b624c426639395a5a6b755451726b6f4541657a746a78596b6d4c4131544b417347325433472f697066733a2f2f516d5a37727a6e3876716e61374435344e35556e61636f61725048423663595a735266775666796d634c384532332f",
  "linkReferences": {},
  "deployedLinkReferences": {}
}