{
  "_format": "hh-sol-artifact-1",
  "contractName": "NftBox",
  "sourceName": "src/backend/contracts/NftBox.sol",
  "abi": [
    {
      "inputs": [
        {
          "internalType": "address",
          "name": "_usdcAddress",
          "type": "address"
        },
        {
          "internalType": "address",
          "name": "_sneakerAddress",
          "type": "address"
        },
        {
          "internalType": "address",
          "name": "_eggAddress",
          "type": "address"
        }
      ],
      "stateMutability": "nonpayable",
      "type": "constructor"
    },
    {
      "inputs": [],
      "name": "ApprovalCallerNotOwnerNorApproved",
      "type": "error"
    },
    {
      "inputs": [],
      "name": "ApprovalQueryForNonexistentToken",
      "type": "error"
    },
    {
      "inputs": [],
      "name": "ApproveToCaller",
      "type": "error"
    },
    {
      "inputs": [],
      "name": "BalanceQueryForZeroAddress",
      "type": "error"
    },
    {
      "inputs": [],
      "name": "MintERC2309QuantityExceedsLimit",
      "type": "error"
    },
    {
      "inputs": [],
      "name": "MintToZeroAddress",
      "type": "error"
    },
    {
      "inputs": [],
      "name": "MintZeroQuantity",
      "type": "error"
    },
    {
      "inputs": [
        {
          "internalType": "address",
          "name": "operator",
          "type": "address"
        }
      ],
      "name": "OperatorNotAllowed",
      "type": "error"
    },
    {
      "inputs": [],
      "name": "OwnerQueryForNonexistentToken",
      "type": "error"
    },
    {
      "inputs": [],
      "name": "OwnershipNotInitializedForExtraData",
      "type": "error"
    },
    {
      "inputs": [],
      "name": "TransferCallerNotOwnerNorApproved",
      "type": "error"
    },
    {
      "inputs": [],
      "name": "TransferFromIncorrectOwner",
      "type": "error"
    },
    {
      "inputs": [],
      "name": "TransferToNonERC721ReceiverImplementer",
      "type": "error"
    },
    {
      "inputs": [],
      "name": "TransferToZeroAddress",
      "type": "error"
    },
    {
      "inputs": [],
      "name": "URIQueryForNonexistentToken",
      "type": "error"
    },
    {
      "anonymous": false,
      "inputs": [
        {
          "indexed": true,
          "internalType": "address",
          "name": "owner",
          "type": "address"
        },
        {
          "indexed": true,
          "internalType": "address",
          "name": "approved",
          "type": "address"
        },
        {
          "indexed": true,
          "internalType": "uint256",
          "name": "tokenId",
          "type": "uint256"
        }
      ],
      "name": "Approval",
      "type": "event"
    },
    {
      "anonymous": false,
      "inputs": [
        {
          "indexed": true,
          "internalType": "address",
          "name": "owner",
          "type": "address"
        },
        {
          "indexed": true,
          "internalType": "address",
          "name": "operator",
          "type": "address"
        },
        {
          "indexed": false,
          "internalType": "bool",
          "name": "approved",
          "type": "bool"
        }
      ],
      "name": "ApprovalForAll",
      "type": "event"
    },
    {
      "anonymous": false,
      "inputs": [
        {
          "indexed": true,
          "internalType": "uint256",
          "name": "fromTokenId",
          "type": "uint256"
        },
        {
          "indexed": false,
          "internalType": "uint256",
          "name": "toTokenId",
          "type": "uint256"
        },
        {
          "indexed": true,
          "internalType": "address",
          "name": "from",
          "type": "address"
        },
        {
          "indexed": true,
          "internalType": "address",
          "name": "to",
          "type": "address"
        }
      ],
      "name": "ConsecutiveTransfer",
      "type": "event"
    },
    {
      "anonymous": false,
      "inputs": [
        {
          "indexed": false,
          "internalType": "address",
          "name": "user",
          "type": "address"
        }
      ],
      "name": "MintSuccessful",
      "type": "event"
    },
    {
      "anonymous": false,
      "inputs": [
        {
          "indexed": true,
          "internalType": "address",
          "name": "previousOwner",
          "type": "address"
        },
        {
          "indexed": true,
          "internalType": "address",
          "name": "newOwner",
          "type": "address"
        }
      ],
      "name": "OwnershipTransferred",
      "type": "event"
    },
    {
      "anonymous": false,
      "inputs": [
        {
          "indexed": true,
          "internalType": "address",
          "name": "from",
          "type": "address"
        },
        {
          "indexed": true,
          "internalType": "address",
          "name": "to",
          "type": "address"
        },
        {
          "indexed": true,
          "internalType": "uint256",
          "name": "tokenId",
          "type": "uint256"
        }
      ],
      "name": "Transfer",
      "type": "event"
    },
    {
      "inputs": [],
      "name": "USDCAddress",
      "outputs": [
        {
          "internalType": "address",
          "name": "",
          "type": "address"
        }
      ],
      "stateMutability": "view",
      "type": "function"
    },
    {
      "inputs": [
        {
          "internalType": "string",
          "name": "_name",
          "type": "string"
        },
        {
          "internalType": "uint256",
          "name": "_price",
          "type": "uint256"
        },
        {
          "internalType": "string",
          "name": "_cid",
          "type": "string"
        },
        {
          "internalType": "uint256",
          "name": "_maxSupply",
          "type": "uint256"
        }
      ],
      "name": "addMysteryBox",
      "outputs": [],
      "stateMutability": "nonpayable",
      "type": "function"
    },
    {
      "inputs": [
        {
          "internalType": "address",
          "name": "_user",
          "type": "address"
        },
        {
          "internalType": "uint256",
          "name": "_quantity",
          "type": "uint256"
        }
      ],
      "name": "airdrop",
      "outputs": [],
      "stateMutability": "nonpayable",
      "type": "function"
    },
    {
      "inputs": [
        {
          "internalType": "address",
          "name": "to",
          "type": "address"
        },
        {
          "internalType": "uint256",
          "name": "tokenId",
          "type": "uint256"
        }
      ],
      "name": "approve",
      "outputs": [],
      "stateMutability": "nonpayable",
      "type": "function"
    },
    {
      "inputs": [
        {
          "internalType": "address",
          "name": "owner",
          "type": "address"
        }
      ],
      "name": "balanceOf",
      "outputs": [
        {
          "internalType": "uint256",
          "name": "",
          "type": "uint256"
        }
      ],
      "stateMutability": "view",
      "type": "function"
    },
    {
      "inputs": [
        {
          "internalType": "uint256",
          "name": "",
          "type": "uint256"
        }
      ],
      "name": "boxes",
      "outputs": [
        {
          "internalType": "string",
          "name": "name",
          "type": "string"
        },
        {
          "internalType": "uint256",
          "name": "price",
          "type": "uint256"
        },
        {
          "internalType": "uint256",
          "name": "burnAmount",
          "type": "uint256"
        },
        {
          "internalType": "string",
          "name": "cid",
          "type": "string"
        },
        {
          "internalType": "uint256",
          "name": "maxSupply",
          "type": "uint256"
        },
        {
          "internalType": "uint256",
          "name": "remainingSupply",
          "type": "uint256"
        },
        {
          "internalType": "bool",
          "name": "mintEnabled",
          "type": "bool"
        }
      ],
      "stateMutability": "view",
      "type": "function"
    },
    {
      "inputs": [],
      "name": "contractURI",
      "outputs": [
        {
          "internalType": "string",
          "name": "",
          "type": "string"
        }
      ],
      "stateMutability": "pure",
      "type": "function"
    },
    {
      "inputs": [],
      "name": "eggAddress",
      "outputs": [
        {
          "internalType": "address",
          "name": "",
          "type": "address"
        }
      ],
      "stateMutability": "view",
      "type": "function"
    },
    {
      "inputs": [
        {
          "internalType": "uint256",
          "name": "tokenId",
          "type": "uint256"
        }
      ],
      "name": "getApproved",
      "outputs": [
        {
          "internalType": "address",
          "name": "",
          "type": "address"
        }
      ],
      "stateMutability": "view",
      "type": "function"
    },
    {
      "inputs": [
        {
          "internalType": "uint256",
          "name": "_boxId",
          "type": "uint256"
        }
      ],
      "name": "getMysteryBoxCid",
      "outputs": [
        {
          "internalType": "string",
          "name": "",
          "type": "string"
        }
      ],
      "stateMutability": "view",
      "type": "function"
    },
    {
      "inputs": [
        {
          "internalType": "uint256",
          "name": "_boxId",
          "type": "uint256"
        }
      ],
      "name": "getMysteryBoxName",
      "outputs": [
        {
          "internalType": "string",
          "name": "",
          "type": "string"
        }
      ],
      "stateMutability": "view",
      "type": "function"
    },
    {
      "inputs": [
        {
          "internalType": "uint256",
          "name": "_boxId",
          "type": "uint256"
        }
      ],
      "name": "getMysteryBoxPrice",
      "outputs": [
        {
          "internalType": "uint256",
          "name": "",
          "type": "uint256"
        }
      ],
      "stateMutability": "view",
      "type": "function"
    },
    {
      "inputs": [
        {
          "internalType": "uint256",
          "name": "_boxId",
          "type": "uint256"
        }
      ],
      "name": "getPrice",
      "outputs": [
        {
          "internalType": "uint256",
          "name": "",
          "type": "uint256"
        }
      ],
      "stateMutability": "view",
      "type": "function"
    },
    {
      "inputs": [
        {
          "internalType": "address",
          "name": "owner",
          "type": "address"
        },
        {
          "internalType": "address",
          "name": "operator",
          "type": "address"
        }
      ],
      "name": "isApprovedForAll",
      "outputs": [
        {
          "internalType": "bool",
          "name": "",
          "type": "bool"
        }
      ],
      "stateMutability": "view",
      "type": "function"
    },
    {
      "inputs": [
        {
          "internalType": "address",
          "name": "_user",
          "type": "address"
        }
      ],
      "name": "isWhitelisted",
      "outputs": [
        {
          "internalType": "bool",
          "name": "",
          "type": "bool"
        }
      ],
      "stateMutability": "view",
      "type": "function"
    },
    {
      "inputs": [
        {
          "internalType": "uint256",
          "name": "_boxId",
          "type": "uint256"
        },
        {
          "internalType": "uint256",
          "name": "_quantity",
          "type": "uint256"
        }
      ],
      "name": "mint",
      "outputs": [],
      "stateMutability": "nonpayable",
      "type": "function"
    },
    {
      "inputs": [],
      "name": "name",
      "outputs": [
        {
          "internalType": "string",
          "name": "",
          "type": "string"
        }
      ],
      "stateMutability": "view",
      "type": "function"
    },
    {
      "inputs": [
        {
          "internalType": "uint256",
          "name": "_tokenId",
          "type": "uint256"
        }
      ],
      "name": "openBox",
      "outputs": [],
      "stateMutability": "nonpayable",
      "type": "function"
    },
    {
      "inputs": [],
      "name": "owner",
      "outputs": [
        {
          "internalType": "address",
          "name": "",
          "type": "address"
        }
      ],
      "stateMutability": "view",
      "type": "function"
    },
    {
      "inputs": [
        {
          "internalType": "uint256",
          "name": "tokenId",
          "type": "uint256"
        }
      ],
      "name": "ownerOf",
      "outputs": [
        {
          "internalType": "address",
          "name": "",
          "type": "address"
        }
      ],
      "stateMutability": "view",
      "type": "function"
    },
    {
      "inputs": [
        {
          "internalType": "uint256",
          "name": "_boxId",
          "type": "uint256"
        }
      ],
      "name": "removeMysteryBox",
      "outputs": [],
      "stateMutability": "nonpayable",
      "type": "function"
    },
    {
      "inputs": [],
      "name": "renounceOwnership",
      "outputs": [],
      "stateMutability": "nonpayable",
      "type": "function"
    },
    {
      "inputs": [
        {
          "internalType": "address",
          "name": "from",
          "type": "address"
        },
        {
          "internalType": "address",
          "name": "to",
          "type": "address"
        },
        {
          "internalType": "uint256",
          "name": "tokenId",
          "type": "uint256"
        }
      ],
      "name": "safeTransferFrom",
      "outputs": [],
      "stateMutability": "nonpayable",
      "type": "function"
    },
    {
      "inputs": [
        {
          "internalType": "address",
          "name": "from",
          "type": "address"
        },
        {
          "internalType": "address",
          "name": "to",
          "type": "address"
        },
        {
          "internalType": "uint256",
          "name": "tokenId",
          "type": "uint256"
        },
        {
          "internalType": "bytes",
          "name": "data",
          "type": "bytes"
        }
      ],
      "name": "safeTransferFrom",
      "outputs": [],
      "stateMutability": "nonpayable",
      "type": "function"
    },
    {
      "inputs": [
        {
          "internalType": "address",
          "name": "operator",
          "type": "address"
        },
        {
          "internalType": "bool",
          "name": "approved",
          "type": "bool"
        }
      ],
      "name": "setApprovalForAll",
      "outputs": [],
      "stateMutability": "nonpayable",
      "type": "function"
    },
    {
      "inputs": [
        {
          "internalType": "uint256",
          "name": "_boxId",
          "type": "uint256"
        },
        {
          "internalType": "bool",
          "name": "_state",
          "type": "bool"
        }
      ],
      "name": "setMintEnabled",
      "outputs": [],
      "stateMutability": "nonpayable",
      "type": "function"
    },
    {
      "inputs": [
        {
          "internalType": "uint256",
          "name": "_boxId",
          "type": "uint256"
        },
        {
          "internalType": "uint256",
          "name": "_price",
          "type": "uint256"
        }
      ],
      "name": "setPrice",
      "outputs": [],
      "stateMutability": "nonpayable",
      "type": "function"
    },
    {
      "inputs": [
        {
          "internalType": "address[]",
          "name": "_whitelist",
          "type": "address[]"
        }
      ],
      "name": "setWhitelist",
      "outputs": [],
      "stateMutability": "nonpayable",
      "type": "function"
    },
    {
      "inputs": [],
      "name": "sneakerAddress",
      "outputs": [
        {
          "internalType": "address",
          "name": "",
          "type": "address"
        }
      ],
      "stateMutability": "view",
      "type": "function"
    },
    {
      "inputs": [
        {
          "internalType": "bytes4",
          "name": "interfaceId",
          "type": "bytes4"
        }
      ],
      "name": "supportsInterface",
      "outputs": [
        {
          "internalType": "bool",
          "name": "",
          "type": "bool"
        }
      ],
      "stateMutability": "view",
      "type": "function"
    },
    {
      "inputs": [],
      "name": "symbol",
      "outputs": [
        {
          "internalType": "string",
          "name": "",
          "type": "string"
        }
      ],
      "stateMutability": "view",
      "type": "function"
    },
    {
      "inputs": [
        {
          "internalType": "uint256",
          "name": "_tokenId",
          "type": "uint256"
        }
      ],
      "name": "tokenURI",
      "outputs": [
        {
          "internalType": "string",
          "name": "",
          "type": "string"
        }
      ],
      "stateMutability": "view",
      "type": "function"
    },
    {
      "inputs": [],
      "name": "totalSupply",
      "outputs": [
        {
          "internalType": "uint256",
          "name": "",
          "type": "uint256"
        }
      ],
      "stateMutability": "view",
      "type": "function"
    },
    {
      "inputs": [
        {
          "internalType": "address",
          "name": "from",
          "type": "address"
        },
        {
          "internalType": "address",
          "name": "to",
          "type": "address"
        },
        {
          "internalType": "uint256",
          "name": "tokenId",
          "type": "uint256"
        }
      ],
      "name": "transferFrom",
      "outputs": [],
      "stateMutability": "nonpayable",
      "type": "function"
    },
    {
      "inputs": [
        {
          "internalType": "address",
          "name": "newOwner",
          "type": "address"
        }
      ],
      "name": "transferOwnership",
      "outputs": [],
      "stateMutability": "nonpayable",
      "type": "function"
    },
    {
      "inputs": [],
      "name": "uriPrefix",
      "outputs": [
        {
          "internalType": "string",
          "name": "",
          "type": "string"
        }
      ],
      "stateMutability": "view",
      "type": "function"
    },
    {
      "inputs": [],
      "name": "uriSuffix",
      "outputs": [
        {
          "internalType": "string",
          "name": "",
          "type": "string"
        }
      ],
      "stateMutability": "view",
      "type": "function"
    },
    {
      "inputs": [],
      "name": "withdraw",
      "outputs": [],
      "stateMutability": "nonpayable",
      "type": "function"
    }
  ],
  "bytecode": "0x608060405260405180602001604052806000815250600990805190602001906200002b929190620005a4565b506040518060400160405280600581526020017f2e6a736f6e000000000000000000000000000000000000000000000000000000815250600a908051906020019062000079929190620005a4565b503480156200008757600080fd5b50604051620054db380380620054db8339818101604052810190620000ad9190620006be565b733cc6cdda760b79bafa08df41ecfa224f810dceb660016040518060400160405280600b81526020017f4d79737465727920426f780000000000000000000000000000000000000000008152506040518060400160405280600281526020017f4d420000000000000000000000000000000000000000000000000000000000008152506200015062000144620004cf60201b60201c565b620004d760201b60201c565b816003908051906020019062000168929190620005a4565b50806004908051906020019062000181929190620005a4565b50620001926200059b60201b60201c565b600181905550505060006daaeb6d7670e522a718067333cd4e73ffffffffffffffffffffffffffffffffffffffff163b11156200038f57801562000255576daaeb6d7670e522a718067333cd4e73ffffffffffffffffffffffffffffffffffffffff16637d3e3dbe30846040518363ffffffff1660e01b81526004016200021b9291906200072b565b600060405180830381600087803b1580156200023657600080fd5b505af11580156200024b573d6000803e3d6000fd5b505050506200038e565b600073ffffffffffffffffffffffffffffffffffffffff168273ffffffffffffffffffffffffffffffffffffffff16146200030f576daaeb6d7670e522a718067333cd4e73ffffffffffffffffffffffffffffffffffffffff1663a0af290330846040518363ffffffff1660e01b8152600401620002d59291906200072b565b600060405180830381600087803b158015620002f057600080fd5b505af115801562000305573d6000803e3d6000fd5b505050506200038d565b6daaeb6d7670e522a718067333cd4e73ffffffffffffffffffffffffffffffffffffffff16634420e486306040518263ffffffff1660e01b815260040162000358919062000758565b600060405180830381600087803b1580156200037357600080fd5b505af115801562000388573d6000803e3d6000fd5b505050505b5b5b5050600073ffffffffffffffffffffffffffffffffffffffff168373ffffffffffffffffffffffffffffffffffffffff160362000403576040517f08c379a0000000000000000000000000000000000000000000000000000000008152600401620003fa90620007d6565b60405180910390fd5b82600b60006101000a81548173ffffffffffffffffffffffffffffffffffffffff021916908373ffffffffffffffffffffffffffffffffffffffff16021790555081600c60006101000a81548173ffffffffffffffffffffffffffffffffffffffff021916908373ffffffffffffffffffffffffffffffffffffffff16021790555080600d60006101000a81548173ffffffffffffffffffffffffffffffffffffffff021916908373ffffffffffffffffffffffffffffffffffffffff1602179055505050506200085c565b600033905090565b60008060009054906101000a900473ffffffffffffffffffffffffffffffffffffffff169050816000806101000a81548173ffffffffffffffffffffffffffffffffffffffff021916908373ffffffffffffffffffffffffffffffffffffffff1602179055508173ffffffffffffffffffffffffffffffffffffffff168173ffffffffffffffffffffffffffffffffffffffff167f8be0079c531659141344cd1fd0a4f28419497f9722a3daafe3b4186f6b6457e060405160405180910390a35050565b60006001905090565b828054620005b29062000827565b90600052602060002090601f016020900481019282620005d6576000855562000622565b82601f10620005f157805160ff191683800117855562000622565b8280016001018555821562000622579182015b828111156200062157825182559160200191906001019062000604565b5b50905062000631919062000635565b5090565b5b808211156200065057600081600090555060010162000636565b5090565b600080fd5b600073ffffffffffffffffffffffffffffffffffffffff82169050919050565b6000620006868262000659565b9050919050565b620006988162000679565b8114620006a457600080fd5b50565b600081519050620006b8816200068d565b92915050565b600080600060608486031215620006da57620006d962000654565b5b6000620006ea86828701620006a7565b9350506020620006fd86828701620006a7565b92505060406200071086828701620006a7565b9150509250925092565b620007258162000679565b82525050565b60006040820190506200074260008301856200071a565b6200075160208301846200071a565b9392505050565b60006020820190506200076f60008301846200071a565b92915050565b600082825260208201905092915050565b7f496e76616c696420555344432061646472657373000000000000000000000000600082015250565b6000620007be60148362000775565b9150620007cb8262000786565b602082019050919050565b60006020820190508181036000830152620007f181620007af565b9050919050565b7f4e487b7100000000000000000000000000000000000000000000000000000000600052602260045260246000fd5b600060028204905060018216806200084057607f821691505b602082108103620008565762000855620007f8565b5b50919050565b614c6f806200086c6000396000f3fe608060405234801561001057600080fd5b50600436106102325760003560e01c806372fc44cc11610130578063c87b56dd116100b8578063ebbc9a0b1161007c578063ebbc9a0b146106a3578063f2fde38b146106d3578063f4217648146106ef578063f7d975771461070b578063fb6f7a9a1461072757610232565b8063c87b56dd146105d7578063e757223014610607578063e8a3d48514610637578063e930320914610655578063e985e9c51461067357610232565b806395d89b41116100ff57806395d89b4114610549578063a22cb46514610567578063b1e5e2b714610583578063b88d4fde1461059f578063c5087cac146105bb57610232565b806372fc44cc146104af578063765f1b0c146104df5780638ba4cc3c1461050f5780638da5cb5b1461052b57610232565b80633ccfd60b116101be5780635631ce36116101825780635631ce361461040b57806362b99ad4146104275780636352211e1461044557806370a0823114610475578063715018a6146104a557610232565b80633ccfd60b1461037557806342842e0e1461037f57806349a9493c1461039b5780634ed3faf2146103b75780635503a0e8146103ed57610232565b806318160ddd1161020557806318160ddd146102d15780631b2ef1ca146102ef57806323b872dd1461030b5780632c7d86ba146103275780633af32abf1461034557610232565b806301ffc9a71461023757806306fdde0314610267578063081812fc14610285578063095ea7b3146102b5575b600080fd5b610251600480360381019061024c91906138cb565b610745565b60405161025e9190613913565b60405180910390f35b61026f6107d7565b60405161027c91906139c7565b60405180910390f35b61029f600480360381019061029a9190613a1f565b610869565b6040516102ac9190613a8d565b60405180910390f35b6102cf60048036038101906102ca9190613ad4565b6108e8565b005b6102d9610a2c565b6040516102e69190613b23565b60405180910390f35b61030960048036038101906103049190613b3e565b610a43565b005b61032560048036038101906103209190613b7e565b610ca7565b005b61032f610e89565b60405161033c9190613a8d565b60405180910390f35b61035f600480360381019061035a9190613bd1565b610eaf565b60405161036c9190613913565b60405180910390f35b61037d610f55565b005b61039960048036038101906103949190613b7e565b6111cc565b005b6103b560048036038101906103b09190613c2a565b6113ae565b005b6103d160048036038101906103cc9190613a1f565b61143e565b6040516103e49796959493929190613c6a565b60405180910390f35b6103f56115ad565b60405161040291906139c7565b60405180910390f35b61042560048036038101906104209190613a1f565b61163b565b005b61042f6117f9565b60405161043c91906139c7565b60405180910390f35b61045f600480360381019061045a9190613a1f565b611887565b60405161046c9190613a8d565b60405180910390f35b61048f600480360381019061048a9190613bd1565b611899565b60405161049c9190613b23565b60405180910390f35b6104ad611951565b005b6104c960048036038101906104c49190613a1f565b611965565b6040516104d691906139c7565b60405180910390f35b6104f960048036038101906104f49190613a1f565b611a63565b6040516105069190613b23565b60405180910390f35b61052960048036038101906105249190613ad4565b611ad9565b005b610533611aef565b6040516105409190613a8d565b60405180910390f35b610551611b18565b60405161055e91906139c7565b60405180910390f35b610581600480360381019061057c9190613ce7565b611baa565b005b61059d60048036038101906105989190613a1f565b611d21565b005b6105b960048036038101906105b49190613e5c565b611f4f565b005b6105d560048036038101906105d09190613f80565b612134565b005b6105f160048036038101906105ec9190613a1f565b612228565b6040516105fe91906139c7565b60405180910390f35b610621600480360381019061061c9190613a1f565b61232d565b60405161062e9190613b23565b60405180910390f35b61063f61235c565b60405161064c91906139c7565b60405180910390f35b61065d61237c565b60405161066a9190613a8d565b60405180910390f35b61068d6004803603810190610688919061401f565b6123a2565b60405161069a9190613913565b60405180910390f35b6106bd60048036038101906106b89190613a1f565b612436565b6040516106ca91906139c7565b60405180910390f35b6106ed60048036038101906106e89190613bd1565b612534565b005b61070960048036038101906107049190614127565b6125b7565b005b61072560048036038101906107209190613b3e565b6125e7565b005b61072f612664565b60405161073c9190613a8d565b60405180910390f35b60006301ffc9a760e01b827bffffffffffffffffffffffffffffffffffffffffffffffffffffffff191614806107a057506380ac58cd60e01b827bffffffffffffffffffffffffffffffffffffffffffffffffffffffff1916145b806107d05750635b5e139f60e01b827bffffffffffffffffffffffffffffffffffffffffffffffffffffffff1916145b9050919050565b6060600380546107e69061419f565b80601f01602080910402602001604051908101604052809291908181526020018280546108129061419f565b801561085f5780601f106108345761010080835404028352916020019161085f565b820191906000526020600020905b81548152906001019060200180831161084257829003601f168201915b5050505050905090565b60006108748261268a565b6108aa576040517fcf4700e400000000000000000000000000000000000000000000000000000000815260040160405180910390fd5b6007600083815260200190815260200160002060000160009054906101000a900473ffffffffffffffffffffffffffffffffffffffff169050919050565b60006108f382611887565b90508073ffffffffffffffffffffffffffffffffffffffff166109146126e9565b73ffffffffffffffffffffffffffffffffffffffff1614610977576109408161093b6126e9565b6123a2565b610976576040517fcfb3b94200000000000000000000000000000000000000000000000000000000815260040160405180910390fd5b5b826007600084815260200190815260200160002060000160006101000a81548173ffffffffffffffffffffffffffffffffffffffff021916908373ffffffffffffffffffffffffffffffffffffffff160217905550818373ffffffffffffffffffffffffffffffffffffffff168273ffffffffffffffffffffffffffffffffffffffff167f8c5be1e5ebec7d5bd14f71427d1e84f3dd0314c0f7b2291e5b200ac8c7c3b92560405160405180910390a4505050565b6000610a366126f1565b6002546001540303905090565b600f805490508210610a8a576040517f08c379a0000000000000000000000000000000000000000000000000000000008152600401610a819061421c565b60405180910390fd5b600f8281548110610a9e57610a9d61423c565b5b906000526020600020906007020160060160009054906101000a900460ff16610afc576040517f08c379a0000000000000000000000000000000000000000000000000000000008152600401610af3906142b7565b60405180910390fd5b80600f8381548110610b1157610b1061423c565b5b9060005260206000209060070201600501541015610b64576040517f08c379a0000000000000000000000000000000000000000000000000000000008152600401610b5b90614323565b60405180910390fd5b60005b81811015610bb657826010600083610b7d6126fa565b610b856126f1565b610b8f9190614372565b610b999190614372565b815260200190815260200160002081905550806001019050610b67565b50610bc033610eaf565b610c2757610c26333083610bd38661232d565b610bdd91906143c8565b600b60009054906101000a900473ffffffffffffffffffffffffffffffffffffffff1673ffffffffffffffffffffffffffffffffffffffff1661270d909392919063ffffffff16565b5b610c313382612796565b600f8281548110610c4557610c4461423c565b5b90600052602060002090600702016005016000815480929190610c6790614422565b91905055507ff5535ccd9f40eb4bc73fac8710dbb2effbf3329da83f62b35d9aa88161bb85ca33604051610c9b9190613a8d565b60405180910390a15050565b8260006daaeb6d7670e522a718067333cd4e73ffffffffffffffffffffffffffffffffffffffff163b1115610e77573373ffffffffffffffffffffffffffffffffffffffff168173ffffffffffffffffffffffffffffffffffffffff1603610d1957610d14848484612952565b610e83565b6daaeb6d7670e522a718067333cd4e73ffffffffffffffffffffffffffffffffffffffff1663c617113430336040518363ffffffff1660e01b8152600401610d6292919061444b565b602060405180830381865afa158015610d7f573d6000803e3d6000fd5b505050506040513d601f19601f82011682018060405250810190610da39190614489565b8015610e3557506daaeb6d7670e522a718067333cd4e73ffffffffffffffffffffffffffffffffffffffff1663c617113430836040518363ffffffff1660e01b8152600401610df392919061444b565b602060405180830381865afa158015610e10573d6000803e3d6000fd5b505050506040513d601f19601f82011682018060405250810190610e349190614489565b5b610e7657336040517fede71dcc000000000000000000000000000000000000000000000000000000008152600401610e6d9190613a8d565b60405180910390fd5b5b610e82848484612952565b5b50505050565b600c60009054906101000a900473ffffffffffffffffffffffffffffffffffffffff1681565b600080600090505b600e80549050811015610f4a578273ffffffffffffffffffffffffffffffffffffffff16600e8281548110610eef57610eee61423c565b5b9060005260206000200160009054906101000a900473ffffffffffffffffffffffffffffffffffffffff1673ffffffffffffffffffffffffffffffffffffffff1603610f3f576001915050610f50565b806001019050610eb7565b50600090505b919050565b610f5d612c74565b3373ffffffffffffffffffffffffffffffffffffffff166108fc479081150290604051600060405180830381858888f19350505050158015610fa3573d6000803e3d6000fd5b50600b60009054906101000a900473ffffffffffffffffffffffffffffffffffffffff1673ffffffffffffffffffffffffffffffffffffffff1663095ea7b330600b60009054906101000a900473ffffffffffffffffffffffffffffffffffffffff1673ffffffffffffffffffffffffffffffffffffffff166370a08231306040518263ffffffff1660e01b815260040161103e9190613a8d565b602060405180830381865afa15801561105b573d6000803e3d6000fd5b505050506040513d601f19601f8201168201806040525081019061107f91906144cb565b6040518363ffffffff1660e01b815260040161109c9291906144f8565b6020604051808303816000875af11580156110bb573d6000803e3d6000fd5b505050506040513d601f19601f820116820180604052508101906110df9190614489565b506111ca3033600b60009054906101000a900473ffffffffffffffffffffffffffffffffffffffff1673ffffffffffffffffffffffffffffffffffffffff166370a08231306040518263ffffffff1660e01b81526004016111409190613a8d565b602060405180830381865afa15801561115d573d6000803e3d6000fd5b505050506040513d601f19601f8201168201806040525081019061118191906144cb565b600b60009054906101000a900473ffffffffffffffffffffffffffffffffffffffff1673ffffffffffffffffffffffffffffffffffffffff1661270d909392919063ffffffff16565b565b8260006daaeb6d7670e522a718067333cd4e73ffffffffffffffffffffffffffffffffffffffff163b111561139c573373ffffffffffffffffffffffffffffffffffffffff168173ffffffffffffffffffffffffffffffffffffffff160361123e57611239848484612cf2565b6113a8565b6daaeb6d7670e522a718067333cd4e73ffffffffffffffffffffffffffffffffffffffff1663c617113430336040518363ffffffff1660e01b815260040161128792919061444b565b602060405180830381865afa1580156112a4573d6000803e3d6000fd5b505050506040513d601f19601f820116820180604052508101906112c89190614489565b801561135a57506daaeb6d7670e522a718067333cd4e73ffffffffffffffffffffffffffffffffffffffff1663c617113430836040518363ffffffff1660e01b815260040161131892919061444b565b602060405180830381865afa158015611335573d6000803e3d6000fd5b505050506040513d601f19601f820116820180604052508101906113599190614489565b5b61139b57336040517fede71dcc0000000000000000000000000000000000000000000000000000000081526004016113929190613a8d565b60405180910390fd5b5b6113a7848484612cf2565b5b50505050565b6113b6612c74565b600f8054905082106113fd576040517f08c379a00000000000000000000000000000000000000000000000000000000081526004016113f49061421c565b60405180910390fd5b80600f83815481106114125761141161423c565b5b906000526020600020906007020160060160006101000a81548160ff0219169083151502179055505050565b600f818154811061144e57600080fd5b90600052602060002090600702016000915090508060000180546114719061419f565b80601f016020809104026020016040519081016040528092919081815260200182805461149d9061419f565b80156114ea5780601f106114bf576101008083540402835291602001916114ea565b820191906000526020600020905b8154815290600101906020018083116114cd57829003601f168201915b50505050509080600101549080600201549080600301805461150b9061419f565b80601f01602080910402602001604051908101604052809291908181526020018280546115379061419f565b80156115845780601f1061155957610100808354040283529160200191611584565b820191906000526020600020905b81548152906001019060200180831161156757829003601f168201915b5050505050908060040154908060050154908060060160009054906101000a900460ff16905087565b600a80546115ba9061419f565b80601f01602080910402602001604051908101604052809291908181526020018280546115e69061419f565b80156116335780601f1061160857610100808354040283529160200191611633565b820191906000526020600020905b81548152906001019060200180831161161657829003601f168201915b505050505081565b611643612c74565b600f80549050811061168a576040517f08c379a00000000000000000000000000000000000000000000000000000000081526004016116819061421c565b60405180910390fd5b600f6001600f8054905061169e9190614521565b815481106116af576116ae61423c565b5b9060005260206000209060070201600f82815481106116d1576116d061423c565b5b906000526020600020906007020160008201816000019080546116f39061419f565b6116fe929190613644565b50600182015481600101556002820154816002015560038201816003019080546117279061419f565b611732929190613644565b5060048201548160040155600582015481600501556006820160009054906101000a900460ff168160060160006101000a81548160ff021916908315150217905550905050600f80548061178957611788614555565b5b6001900381819060005260206000209060070201600080820160006117ae91906136d1565b600182016000905560028201600090556003820160006117ce91906136d1565b600482016000905560058201600090556006820160006101000a81549060ff02191690555050905550565b600980546118069061419f565b80601f01602080910402602001604051908101604052809291908181526020018280546118329061419f565b801561187f5780601f106118545761010080835404028352916020019161187f565b820191906000526020600020905b81548152906001019060200180831161186257829003601f168201915b505050505081565b600061189282612d12565b9050919050565b60008073ffffffffffffffffffffffffffffffffffffffff168273ffffffffffffffffffffffffffffffffffffffff1603611900576040517f8f4eb60400000000000000000000000000000000000000000000000000000000815260040160405180910390fd5b67ffffffffffffffff600660008473ffffffffffffffffffffffffffffffffffffffff1673ffffffffffffffffffffffffffffffffffffffff16815260200190815260200160002054169050919050565b611959612c74565b6119636000612dde565b565b6060600f8054905082106119ae576040517f08c379a00000000000000000000000000000000000000000000000000000000081526004016119a59061421c565b60405180910390fd5b600f82815481106119c2576119c161423c565b5b906000526020600020906007020160000180546119de9061419f565b80601f0160208091040260200160405190810160405280929190818152602001828054611a0a9061419f565b8015611a575780601f10611a2c57610100808354040283529160200191611a57565b820191906000526020600020905b815481529060010190602001808311611a3a57829003601f168201915b50505050509050919050565b6000600f805490508210611aac576040517f08c379a0000000000000000000000000000000000000000000000000000000008152600401611aa39061421c565b60405180910390fd5b600f8281548110611ac057611abf61423c565b5b9060005260206000209060070201600101549050919050565b611ae1612c74565b611aeb8282612796565b5050565b60008060009054906101000a900473ffffffffffffffffffffffffffffffffffffffff16905090565b606060048054611b279061419f565b80601f0160208091040260200160405190810160405280929190818152602001828054611b539061419f565b8015611ba05780601f10611b7557610100808354040283529160200191611ba0565b820191906000526020600020905b815481529060010190602001808311611b8357829003601f168201915b5050505050905090565b611bb26126e9565b73ffffffffffffffffffffffffffffffffffffffff168273ffffffffffffffffffffffffffffffffffffffff1603611c16576040517fb06307db00000000000000000000000000000000000000000000000000000000815260040160405180910390fd5b8060086000611c236126e9565b73ffffffffffffffffffffffffffffffffffffffff1673ffffffffffffffffffffffffffffffffffffffff16815260200190815260200160002060008473ffffffffffffffffffffffffffffffffffffffff1673ffffffffffffffffffffffffffffffffffffffff16815260200190815260200160002060006101000a81548160ff0219169083151502179055508173ffffffffffffffffffffffffffffffffffffffff16611cd06126e9565b73ffffffffffffffffffffffffffffffffffffffff167f17307eab39ab6107e8899845ad3d59bd9653f200f220920489ca2b5937696c3183604051611d159190613913565b60405180910390a35050565b3373ffffffffffffffffffffffffffffffffffffffff16611d4182611887565b73ffffffffffffffffffffffffffffffffffffffff1614611d97576040517f08c379a0000000000000000000000000000000000000000000000000000000008152600401611d8e906145d0565b60405180910390fd5b3273ffffffffffffffffffffffffffffffffffffffff16611db6612ea2565b73ffffffffffffffffffffffffffffffffffffffff1614611e0c576040517f08c379a0000000000000000000000000000000000000000000000000000000008152600401611e039061463c565b60405180910390fd5b600060106000838152602001908152602001600020549050600c60009054906101000a900473ffffffffffffffffffffffffffffffffffffffff1673ffffffffffffffffffffffffffffffffffffffff166391ff7e0133836040518363ffffffff1660e01b8152600401611e819291906144f8565b600060405180830381600087803b158015611e9b57600080fd5b505af1158015611eaf573d6000803e3d6000fd5b50505050600d60009054906101000a900473ffffffffffffffffffffffffffffffffffffffff1673ffffffffffffffffffffffffffffffffffffffff166391ff7e0133836040518363ffffffff1660e01b8152600401611f109291906144f8565b600060405180830381600087803b158015611f2a57600080fd5b505af1158015611f3e573d6000803e3d6000fd5b50505050611f4b82612eaa565b5050565b8360006daaeb6d7670e522a718067333cd4e73ffffffffffffffffffffffffffffffffffffffff163b1115612120573373ffffffffffffffffffffffffffffffffffffffff168173ffffffffffffffffffffffffffffffffffffffff1603611fc257611fbd85858585612eb8565b61212d565b6daaeb6d7670e522a718067333cd4e73ffffffffffffffffffffffffffffffffffffffff1663c617113430336040518363ffffffff1660e01b815260040161200b92919061444b565b602060405180830381865afa158015612028573d6000803e3d6000fd5b505050506040513d601f19601f8201168201806040525081019061204c9190614489565b80156120de57506daaeb6d7670e522a718067333cd4e73ffffffffffffffffffffffffffffffffffffffff1663c617113430836040518363ffffffff1660e01b815260040161209c92919061444b565b602060405180830381865afa1580156120b9573d6000803e3d6000fd5b505050506040513d601f19601f820116820180604052508101906120dd9190614489565b5b61211f57336040517fede71dcc0000000000000000000000000000000000000000000000000000000081526004016121169190613a8d565b60405180910390fd5b5b61212c85858585612eb8565b5b5050505050565b61213c612c74565b600f6040518060e001604052808681526020018581526020016000815260200184815260200183815260200183815260200160011515815250908060018154018082558091505060019003906000526020600020906007020160009091909190915060008201518160000190805190602001906121ba929190613711565b50602082015181600101556040820151816002015560608201518160030190805190602001906121eb929190613711565b506080820151816004015560a0820151816005015560c08201518160060160006101000a81548160ff021916908315150217905550505050505050565b60606122338261268a565b612272576040517f08c379a0000000000000000000000000000000000000000000000000000000008152600401612269906146ce565b60405180910390fd5b600f805490506010600084815260200190815260200160002054106122cc576040517f08c379a00000000000000000000000000000000000000000000000000000000081526004016122c39061421c565b60405180910390fd5b600f6010600084815260200190815260200160002054815481106122f3576122f261423c565b5b9060005260206000209060070201600301600a6040516020016123179291906147d9565b6040516020818303038152906040529050919050565b6000600f82815481106123435761234261423c565b5b9060005260206000209060070201600101549050919050565b6060604051806060016040528060368152602001614c0460369139905090565b600b60009054906101000a900473ffffffffffffffffffffffffffffffffffffffff1681565b6000600860008473ffffffffffffffffffffffffffffffffffffffff1673ffffffffffffffffffffffffffffffffffffffff16815260200190815260200160002060008373ffffffffffffffffffffffffffffffffffffffff1673ffffffffffffffffffffffffffffffffffffffff16815260200190815260200160002060009054906101000a900460ff16905092915050565b6060600f80549050821061247f576040517f08c379a00000000000000000000000000000000000000000000000000000000081526004016124769061421c565b60405180910390fd5b600f82815481106124935761249261423c565b5b906000526020600020906007020160030180546124af9061419f565b80601f01602080910402602001604051908101604052809291908181526020018280546124db9061419f565b80156125285780601f106124fd57610100808354040283529160200191612528565b820191906000526020600020905b81548152906001019060200180831161250b57829003601f168201915b50505050509050919050565b61253c612c74565b600073ffffffffffffffffffffffffffffffffffffffff168173ffffffffffffffffffffffffffffffffffffffff16036125ab576040517f08c379a00000000000000000000000000000000000000000000000000000000081526004016125a29061487a565b60405180910390fd5b6125b481612dde565b50565b6125bf612c74565b600e60006125cd9190613797565b80600e90805190602001906125e39291906137b8565b5050565b6125ef612c74565b600f805490508210612636576040517f08c379a000000000000000000000000000000000000000000000000000000000815260040161262d9061421c565b60405180910390fd5b80600f838154811061264b5761264a61423c565b5b9060005260206000209060070201600101819055505050565b600d60009054906101000a900473ffffffffffffffffffffffffffffffffffffffff1681565b6000816126956126f1565b111580156126a4575060015482105b80156126e2575060007c0100000000000000000000000000000000000000000000000000000000600560008581526020019081526020016000205416145b9050919050565b600033905090565b60006001905090565b60006127046126f1565b60015403905090565b612790846323b872dd60e01b85858560405160240161272e9392919061489a565b604051602081830303815290604052907bffffffffffffffffffffffffffffffffffffffffffffffffffffffff19166020820180517bffffffffffffffffffffffffffffffffffffffffffffffffffffffff8381831617835250505050612f2b565b50505050565b60006001549050600082036127d7576040517fb562e8dd00000000000000000000000000000000000000000000000000000000815260040160405180910390fd5b6127e46000848385612ff2565b600160406001901b178202600660008573ffffffffffffffffffffffffffffffffffffffff1673ffffffffffffffffffffffffffffffffffffffff1681526020019081526020016000206000828254019250508190555061285b8361284c6000866000612ff8565b61285585613020565b17613030565b6005600083815260200190815260200160002081905550600080838301905073ffffffffffffffffffffffffffffffffffffffff85169150828260007fddf252ad1be2c89b69c2b068fc378daa952ba7f163c4a11628f55a4df523b3ef600080a4600183015b8181146128fc57808360007fddf252ad1be2c89b69c2b068fc378daa952ba7f163c4a11628f55a4df523b3ef600080a46001810190506128c1565b5060008203612937576040517f2e07630000000000000000000000000000000000000000000000000000000000815260040160405180910390fd5b80600181905550505061294d600084838561305b565b505050565b600061295d82612d12565b90508373ffffffffffffffffffffffffffffffffffffffff168173ffffffffffffffffffffffffffffffffffffffff16146129c4576040517fa114810000000000000000000000000000000000000000000000000000000000815260040160405180910390fd5b6000806129d084613061565b915091506129e681876129e16126e9565b613088565b612a32576129fb866129f66126e9565b6123a2565b612a31576040517f59c896be00000000000000000000000000000000000000000000000000000000815260040160405180910390fd5b5b600073ffffffffffffffffffffffffffffffffffffffff168573ffffffffffffffffffffffffffffffffffffffff1603612a98576040517fea553b3400000000000000000000000000000000000000000000000000000000815260040160405180910390fd5b612aa58686866001612ff2565b8015612ab057600082555b600660008773ffffffffffffffffffffffffffffffffffffffff1673ffffffffffffffffffffffffffffffffffffffff168152602001908152602001600020600081546001900391905081905550600660008673ffffffffffffffffffffffffffffffffffffffff1673ffffffffffffffffffffffffffffffffffffffff1681526020019081526020016000206000815460010191905081905550612b7e85612b5a888887612ff8565b7c020000000000000000000000000000000000000000000000000000000017613030565b600560008681526020019081526020016000208190555060007c0200000000000000000000000000000000000000000000000000000000841603612c045760006001850190506000600560008381526020019081526020016000205403612c02576001548114612c01578360056000838152602001908152602001600020819055505b5b505b838573ffffffffffffffffffffffffffffffffffffffff168773ffffffffffffffffffffffffffffffffffffffff167fddf252ad1be2c89b69c2b068fc378daa952ba7f163c4a11628f55a4df523b3ef60405160405180910390a4612c6c868686600161305b565b505050505050565b612c7c612ea2565b73ffffffffffffffffffffffffffffffffffffffff16612c9a611aef565b73ffffffffffffffffffffffffffffffffffffffff1614612cf0576040517f08c379a0000000000000000000000000000000000000000000000000000000008152600401612ce79061491d565b60405180910390fd5b565b612d0d83838360405180602001604052806000815250611f4f565b505050565b60008082905080612d216126f1565b11612da757600154811015612da65760006005600083815260200190815260200160002054905060007c0100000000000000000000000000000000000000000000000000000000821603612da4575b60008103612d9a576005600083600190039350838152602001908152602001600020549050612d70565b8092505050612dd9565b505b5b6040517fdf2d9b4200000000000000000000000000000000000000000000000000000000815260040160405180910390fd5b919050565b60008060009054906101000a900473ffffffffffffffffffffffffffffffffffffffff169050816000806101000a81548173ffffffffffffffffffffffffffffffffffffffff021916908373ffffffffffffffffffffffffffffffffffffffff1602179055508173ffffffffffffffffffffffffffffffffffffffff168173ffffffffffffffffffffffffffffffffffffffff167f8be0079c531659141344cd1fd0a4f28419497f9722a3daafe3b4186f6b6457e060405160405180910390a35050565b600033905090565b612eb58160006130cc565b50565b612ec3848484610ca7565b60008373ffffffffffffffffffffffffffffffffffffffff163b14612f2557612eee8484848461331e565b612f24576040517fd1a57ed600000000000000000000000000000000000000000000000000000000815260040160405180910390fd5b5b50505050565b6000612f8d826040518060400160405280602081526020017f5361666545524332303a206c6f772d6c6576656c2063616c6c206661696c65648152508573ffffffffffffffffffffffffffffffffffffffff1661346e9092919063ffffffff16565b9050600081511115612fed5780806020019051810190612fad9190614489565b612fec576040517f08c379a0000000000000000000000000000000000000000000000000000000008152600401612fe3906149af565b60405180910390fd5b5b505050565b50505050565b60008060e883901c905060e861300f868684613486565b62ffffff16901b9150509392505050565b60006001821460e11b9050919050565b600073ffffffffffffffffffffffffffffffffffffffff83169250814260a01b178317905092915050565b50505050565b60008060006007600085815260200190815260200160002090508092508254915050915091565b600073ffffffffffffffffffffffffffffffffffffffff8316925073ffffffffffffffffffffffffffffffffffffffff821691508382148383141790509392505050565b60006130d783612d12565b905060008190506000806130ea86613061565b9150915084156131535761310681846131016126e9565b613088565b6131525761311b836131166126e9565b6123a2565b613151576040517f59c896be00000000000000000000000000000000000000000000000000000000815260040160405180910390fd5b5b5b613161836000886001612ff2565b801561316c57600082555b600160806001901b03600660008573ffffffffffffffffffffffffffffffffffffffff1673ffffffffffffffffffffffffffffffffffffffff16815260200190815260200160002060008282540192505081905550613214836131d185600088612ff8565b7c02000000000000000000000000000000000000000000000000000000007c01000000000000000000000000000000000000000000000000000000001717613030565b600560008881526020019081526020016000208190555060007c020000000000000000000000000000000000000000000000000000000085160361329a5760006001870190506000600560008381526020019081526020016000205403613298576001548114613297578460056000838152602001908152602001600020819055505b5b505b85600073ffffffffffffffffffffffffffffffffffffffff168473ffffffffffffffffffffffffffffffffffffffff167fddf252ad1be2c89b69c2b068fc378daa952ba7f163c4a11628f55a4df523b3ef60405160405180910390a461330483600088600161305b565b600260008154809291906001019190505550505050505050565b60008373ffffffffffffffffffffffffffffffffffffffff1663150b7a026133446126e9565b8786866040518563ffffffff1660e01b81526004016133669493929190614a24565b6020604051808303816000875af19250505080156133a257506040513d601f19601f8201168201806040525081019061339f9190614a85565b60015b61341b573d80600081146133d2576040519150601f19603f3d011682016040523d82523d6000602084013e6133d7565b606091505b506000815103613413576040517fd1a57ed600000000000000000000000000000000000000000000000000000000815260040160405180910390fd5b805181602001fd5b63150b7a0260e01b7bffffffffffffffffffffffffffffffffffffffffffffffffffffffff1916817bffffffffffffffffffffffffffffffffffffffffffffffffffffffff191614915050949350505050565b606061347d848460008561348f565b90509392505050565b60009392505050565b6060824710156134d4576040517f08c379a00000000000000000000000000000000000000000000000000000000081526004016134cb90614b24565b60405180910390fd5b6000808673ffffffffffffffffffffffffffffffffffffffff1685876040516134fd9190614b80565b60006040518083038185875af1925050503d806000811461353a576040519150601f19603f3d011682016040523d82523d6000602084013e61353f565b606091505b50915091506135508783838761355c565b92505050949350505050565b606083156135be5760008351036135b657613576856135d1565b6135b5576040517f08c379a00000000000000000000000000000000000000000000000000000000081526004016135ac90614be3565b60405180910390fd5b5b8290506135c9565b6135c883836135f4565b5b949350505050565b6000808273ffffffffffffffffffffffffffffffffffffffff163b119050919050565b6000825111156136075781518083602001fd5b806040517f08c379a000000000000000000000000000000000000000000000000000000000815260040161363b91906139c7565b60405180910390fd5b8280546136509061419f565b90600052602060002090601f01602090048101928261367257600085556136c0565b82601f1061368357805485556136c0565b828001600101855582156136c057600052602060002091601f016020900482015b828111156136bf5782548255916001019190600101906136a4565b5b5090506136cd9190613842565b5090565b5080546136dd9061419f565b6000825580601f106136ef575061370e565b601f01602090049060005260206000209081019061370d9190613842565b5b50565b82805461371d9061419f565b90600052602060002090601f01602090048101928261373f5760008555613786565b82601f1061375857805160ff1916838001178555613786565b82800160010185558215613786579182015b8281111561378557825182559160200191906001019061376a565b5b5090506137939190613842565b5090565b50805460008255906000526020600020908101906137b59190613842565b50565b828054828255906000526020600020908101928215613831579160200282015b828111156138305782518260006101000a81548173ffffffffffffffffffffffffffffffffffffffff021916908373ffffffffffffffffffffffffffffffffffffffff160217905550916020019190600101906137d8565b5b50905061383e9190613842565b5090565b5b8082111561385b576000816000905550600101613843565b5090565b6000604051905090565b600080fd5b600080fd5b60007fffffffff0000000000000000000000000000000000000000000000000000000082169050919050565b6138a881613873565b81146138b357600080fd5b50565b6000813590506138c58161389f565b92915050565b6000602082840312156138e1576138e0613869565b5b60006138ef848285016138b6565b91505092915050565b60008115159050919050565b61390d816138f8565b82525050565b60006020820190506139286000830184613904565b92915050565b600081519050919050565b600082825260208201905092915050565b60005b8381101561396857808201518184015260208101905061394d565b83811115613977576000848401525b50505050565b6000601f19601f8301169050919050565b60006139998261392e565b6139a38185613939565b93506139b381856020860161394a565b6139bc8161397d565b840191505092915050565b600060208201905081810360008301526139e1818461398e565b905092915050565b6000819050919050565b6139fc816139e9565b8114613a0757600080fd5b50565b600081359050613a19816139f3565b92915050565b600060208284031215613a3557613a34613869565b5b6000613a4384828501613a0a565b91505092915050565b600073ffffffffffffffffffffffffffffffffffffffff82169050919050565b6000613a7782613a4c565b9050919050565b613a8781613a6c565b82525050565b6000602082019050613aa26000830184613a7e565b92915050565b613ab181613a6c565b8114613abc57600080fd5b50565b600081359050613ace81613aa8565b92915050565b60008060408385031215613aeb57613aea613869565b5b6000613af985828601613abf565b9250506020613b0a85828601613a0a565b9150509250929050565b613b1d816139e9565b82525050565b6000602082019050613b386000830184613b14565b92915050565b60008060408385031215613b5557613b54613869565b5b6000613b6385828601613a0a565b9250506020613b7485828601613a0a565b9150509250929050565b600080600060608486031215613b9757613b96613869565b5b6000613ba586828701613abf565b9350506020613bb686828701613abf565b9250506040613bc786828701613a0a565b9150509250925092565b600060208284031215613be757613be6613869565b5b6000613bf584828501613abf565b91505092915050565b613c07816138f8565b8114613c1257600080fd5b50565b600081359050613c2481613bfe565b92915050565b60008060408385031215613c4157613c40613869565b5b6000613c4f85828601613a0a565b9250506020613c6085828601613c15565b9150509250929050565b600060e0820190508181036000830152613c84818a61398e565b9050613c936020830189613b14565b613ca06040830188613b14565b8181036060830152613cb2818761398e565b9050613cc16080830186613b14565b613cce60a0830185613b14565b613cdb60c0830184613904565b98975050505050505050565b60008060408385031215613cfe57613cfd613869565b5b6000613d0c85828601613abf565b9250506020613d1d85828601613c15565b9150509250929050565b600080fd5b600080fd5b7f4e487b7100000000000000000000000000000000000000000000000000000000600052604160045260246000fd5b613d698261397d565b810181811067ffffffffffffffff82111715613d8857613d87613d31565b5b80604052505050565b6000613d9b61385f565b9050613da78282613d60565b919050565b600067ffffffffffffffff821115613dc757613dc6613d31565b5b613dd08261397d565b9050602081019050919050565b82818337600083830152505050565b6000613dff613dfa84613dac565b613d91565b905082815260208101848484011115613e1b57613e1a613d2c565b5b613e26848285613ddd565b509392505050565b600082601f830112613e4357613e42613d27565b5b8135613e53848260208601613dec565b91505092915050565b60008060008060808587031215613e7657613e75613869565b5b6000613e8487828801613abf565b9450506020613e9587828801613abf565b9350506040613ea687828801613a0a565b925050606085013567ffffffffffffffff811115613ec757613ec661386e565b5b613ed387828801613e2e565b91505092959194509250565b600067ffffffffffffffff821115613efa57613ef9613d31565b5b613f038261397d565b9050602081019050919050565b6000613f23613f1e84613edf565b613d91565b905082815260208101848484011115613f3f57613f3e613d2c565b5b613f4a848285613ddd565b509392505050565b600082601f830112613f6757613f66613d27565b5b8135613f77848260208601613f10565b91505092915050565b60008060008060808587031215613f9a57613f99613869565b5b600085013567ffffffffffffffff811115613fb857613fb761386e565b5b613fc487828801613f52565b9450506020613fd587828801613a0a565b935050604085013567ffffffffffffffff811115613ff657613ff561386e565b5b61400287828801613f52565b925050606061401387828801613a0a565b91505092959194509250565b6000806040838503121561403657614035613869565b5b600061404485828601613abf565b925050602061405585828601613abf565b9150509250929050565b600067ffffffffffffffff82111561407a57614079613d31565b5b602082029050602081019050919050565b600080fd5b60006140a361409e8461405f565b613d91565b905080838252602082019050602084028301858111156140c6576140c561408b565b5b835b818110156140ef57806140db8882613abf565b8452602084019350506020810190506140c8565b5050509392505050565b600082601f83011261410e5761410d613d27565b5b813561411e848260208601614090565b91505092915050565b60006020828403121561413d5761413c613869565b5b600082013567ffffffffffffffff81111561415b5761415a61386e565b5b614167848285016140f9565b91505092915050565b7f4e487b7100000000000000000000000000000000000000000000000000000000600052602260045260246000fd5b600060028204905060018216806141b757607f821691505b6020821081036141ca576141c9614170565b5b50919050565b7f626f784964206f7574206f662072616e67650000000000000000000000000000600082015250565b6000614206601283613939565b9150614211826141d0565b602082019050919050565b60006020820190508181036000830152614235816141f9565b9050919050565b7f4e487b7100000000000000000000000000000000000000000000000000000000600052603260045260246000fd5b7f4d696e74696e67206973206e6f7420656e61626c656400000000000000000000600082015250565b60006142a1601683613939565b91506142ac8261426b565b602082019050919050565b600060208201905081810360008301526142d081614294565b9050919050565b7f43616e6e6f74206d696e74206d6f7265207468616e206d617820737570706c79600082015250565b600061430d602083613939565b9150614318826142d7565b602082019050919050565b6000602082019050818103600083015261433c81614300565b9050919050565b7f4e487b7100000000000000000000000000000000000000000000000000000000600052601160045260246000fd5b600061437d826139e9565b9150614388836139e9565b9250827fffffffffffffffffffffffffffffffffffffffffffffffffffffffffffffffff038211156143bd576143bc614343565b5b828201905092915050565b60006143d3826139e9565b91506143de836139e9565b9250817fffffffffffffffffffffffffffffffffffffffffffffffffffffffffffffffff048311821515161561441757614416614343565b5b828202905092915050565b600061442d826139e9565b9150600082036144405761443f614343565b5b600182039050919050565b60006040820190506144606000830185613a7e565b61446d6020830184613a7e565b9392505050565b60008151905061448381613bfe565b92915050565b60006020828403121561449f5761449e613869565b5b60006144ad84828501614474565b91505092915050565b6000815190506144c5816139f3565b92915050565b6000602082840312156144e1576144e0613869565b5b60006144ef848285016144b6565b91505092915050565b600060408201905061450d6000830185613a7e565b61451a6020830184613b14565b9392505050565b600061452c826139e9565b9150614537836139e9565b92508282101561454a57614549614343565b5b828203905092915050565b7f4e487b7100000000000000000000000000000000000000000000000000000000600052603160045260246000fd5b7f596f7520646f206e6f74206f776e207468697320426f78000000000000000000600082015250565b60006145ba601783613939565b91506145c582614584565b602082019050919050565b600060208201905081810360008301526145e9816145ad565b9050919050565b7f6f70656e65722063616e6e6f7420626520736d61727420636f6e747261637400600082015250565b6000614626601f83613939565b9150614631826145f0565b602082019050919050565b6000602082019050818103600083015261465581614619565b9050919050565b7f4552433732314d657461646174613a2055524920717565727920666f72206e6f60008201527f6e6578697374656e7420746f6b656e0000000000000000000000000000000000602082015250565b60006146b8602f83613939565b91506146c38261465c565b604082019050919050565b600060208201905081810360008301526146e7816146ab565b9050919050565b600081905092915050565b7f697066733a2f2f00000000000000000000000000000000000000000000000000600082015250565b600061472f6007836146ee565b915061473a826146f9565b600782019050919050565b60008190508160005260206000209050919050565b600081546147678161419f565b61477181866146ee565b9450600182166000811461478c576001811461479d576147d0565b60ff198316865281860193506147d0565b6147a685614745565b60005b838110156147c8578154818901526001820191506020810190506147a9565b838801955050505b50505092915050565b60006147e482614722565b91506147f0828561475a565b91506147fc828461475a565b91508190509392505050565b7f4f776e61626c653a206e6577206f776e657220697320746865207a65726f206160008201527f6464726573730000000000000000000000000000000000000000000000000000602082015250565b6000614864602683613939565b915061486f82614808565b604082019050919050565b6000602082019050818103600083015261489381614857565b9050919050565b60006060820190506148af6000830186613a7e565b6148bc6020830185613a7e565b6148c96040830184613b14565b949350505050565b7f4f776e61626c653a2063616c6c6572206973206e6f7420746865206f776e6572600082015250565b6000614907602083613939565b9150614912826148d1565b602082019050919050565b60006020820190508181036000830152614936816148fa565b9050919050565b7f5361666545524332303a204552433230206f7065726174696f6e20646964206e60008201527f6f74207375636365656400000000000000000000000000000000000000000000602082015250565b6000614999602a83613939565b91506149a48261493d565b604082019050919050565b600060208201905081810360008301526149c88161498c565b9050919050565b600081519050919050565b600082825260208201905092915050565b60006149f6826149cf565b614a0081856149da565b9350614a1081856020860161394a565b614a198161397d565b840191505092915050565b6000608082019050614a396000830187613a7e565b614a466020830186613a7e565b614a536040830185613b14565b8181036060830152614a6581846149eb565b905095945050505050565b600081519050614a7f8161389f565b92915050565b600060208284031215614a9b57614a9a613869565b5b6000614aa984828501614a70565b91505092915050565b7f416464726573733a20696e73756666696369656e742062616c616e636520666f60008201527f722063616c6c0000000000000000000000000000000000000000000000000000602082015250565b6000614b0e602683613939565b9150614b1982614ab2565b604082019050919050565b60006020820190508181036000830152614b3d81614b01565b9050919050565b600081905092915050565b6000614b5a826149cf565b614b648185614b44565b9350614b7481856020860161394a565b80840191505092915050565b6000614b8c8284614b4f565b915081905092915050565b7f416464726573733a2063616c6c20746f206e6f6e2d636f6e7472616374000000600082015250565b6000614bcd601d83613939565b9150614bd882614b97565b602082019050919050565b60006020820190508181036000830152614bfc81614bc0565b905091905056fe697066733a2f2f516d5a37727a6e3876716e61374435344e35556e61636f61725048423663595a735266775666796d634c384532332fa26469706673582212200479d3e521519e8d3253767c3e6de94fa962eefbf0a5d0a952abfded602c469e64736f6c634300080d0033",
  "linkReferences": {},
  "deployedLinkReferences": {}
}