{
  "_format": "hh-sol-artifact-1",
  "contractName": "NftBox",
  "sourceName": "src/backend/contracts/NftBox.sol",
  "abi": [
    {
      "inputs": [
        {
          "internalType": "address",
          "name": "_usdcAddress",
          "type": "address"
        },
        {
          "internalType": "address",
          "name": "_sneakerAddress",
          "type": "address"
        },
        {
          "internalType": "address",
          "name": "_eggAddress",
          "type": "address"
        }
      ],
      "stateMutability": "nonpayable",
      "type": "constructor"
    },
    {
      "inputs": [],
      "name": "ApprovalCallerNotOwnerNorApproved",
      "type": "error"
    },
    {
      "inputs": [],
      "name": "ApprovalQueryForNonexistentToken",
      "type": "error"
    },
    {
      "inputs": [],
      "name": "ApproveToCaller",
      "type": "error"
    },
    {
      "inputs": [],
      "name": "BalanceQueryForZeroAddress",
      "type": "error"
    },
    {
      "inputs": [],
      "name": "MintERC2309QuantityExceedsLimit",
      "type": "error"
    },
    {
      "inputs": [],
      "name": "MintToZeroAddress",
      "type": "error"
    },
    {
      "inputs": [],
      "name": "MintZeroQuantity",
      "type": "error"
    },
    {
      "inputs": [
        {
          "internalType": "address",
          "name": "operator",
          "type": "address"
        }
      ],
      "name": "OperatorNotAllowed",
      "type": "error"
    },
    {
      "inputs": [],
      "name": "OwnerQueryForNonexistentToken",
      "type": "error"
    },
    {
      "inputs": [],
      "name": "OwnershipNotInitializedForExtraData",
      "type": "error"
    },
    {
      "inputs": [],
      "name": "TransferCallerNotOwnerNorApproved",
      "type": "error"
    },
    {
      "inputs": [],
      "name": "TransferFromIncorrectOwner",
      "type": "error"
    },
    {
      "inputs": [],
      "name": "TransferToNonERC721ReceiverImplementer",
      "type": "error"
    },
    {
      "inputs": [],
      "name": "TransferToZeroAddress",
      "type": "error"
    },
    {
      "inputs": [],
      "name": "URIQueryForNonexistentToken",
      "type": "error"
    },
    {
      "anonymous": false,
      "inputs": [
        {
          "indexed": true,
          "internalType": "address",
          "name": "owner",
          "type": "address"
        },
        {
          "indexed": true,
          "internalType": "address",
          "name": "approved",
          "type": "address"
        },
        {
          "indexed": true,
          "internalType": "uint256",
          "name": "tokenId",
          "type": "uint256"
        }
      ],
      "name": "Approval",
      "type": "event"
    },
    {
      "anonymous": false,
      "inputs": [
        {
          "indexed": true,
          "internalType": "address",
          "name": "owner",
          "type": "address"
        },
        {
          "indexed": true,
          "internalType": "address",
          "name": "operator",
          "type": "address"
        },
        {
          "indexed": false,
          "internalType": "bool",
          "name": "approved",
          "type": "bool"
        }
      ],
      "name": "ApprovalForAll",
      "type": "event"
    },
    {
      "anonymous": false,
      "inputs": [
        {
          "indexed": true,
          "internalType": "uint256",
          "name": "fromTokenId",
          "type": "uint256"
        },
        {
          "indexed": false,
          "internalType": "uint256",
          "name": "toTokenId",
          "type": "uint256"
        },
        {
          "indexed": true,
          "internalType": "address",
          "name": "from",
          "type": "address"
        },
        {
          "indexed": true,
          "internalType": "address",
          "name": "to",
          "type": "address"
        }
      ],
      "name": "ConsecutiveTransfer",
      "type": "event"
    },
    {
      "anonymous": false,
      "inputs": [
        {
          "indexed": false,
          "internalType": "address",
          "name": "user",
          "type": "address"
        }
      ],
      "name": "MintSuccessful",
      "type": "event"
    },
    {
      "anonymous": false,
      "inputs": [
        {
          "indexed": true,
          "internalType": "address",
          "name": "previousOwner",
          "type": "address"
        },
        {
          "indexed": true,
          "internalType": "address",
          "name": "newOwner",
          "type": "address"
        }
      ],
      "name": "OwnershipTransferred",
      "type": "event"
    },
    {
      "anonymous": false,
      "inputs": [
        {
          "indexed": true,
          "internalType": "address",
          "name": "from",
          "type": "address"
        },
        {
          "indexed": true,
          "internalType": "address",
          "name": "to",
          "type": "address"
        },
        {
          "indexed": true,
          "internalType": "uint256",
          "name": "tokenId",
          "type": "uint256"
        }
      ],
      "name": "Transfer",
      "type": "event"
    },
    {
      "inputs": [],
      "name": "USDCAddress",
      "outputs": [
        {
          "internalType": "address",
          "name": "",
          "type": "address"
        }
      ],
      "stateMutability": "view",
      "type": "function"
    },
    {
      "inputs": [
        {
          "internalType": "string",
          "name": "_name",
          "type": "string"
        },
        {
          "internalType": "uint256",
          "name": "_price",
          "type": "uint256"
        },
        {
          "internalType": "string",
          "name": "_cid",
          "type": "string"
        },
        {
          "internalType": "uint256",
          "name": "_maxSupply",
          "type": "uint256"
        }
      ],
      "name": "addMysteryBox",
      "outputs": [],
      "stateMutability": "nonpayable",
      "type": "function"
    },
    {
      "inputs": [
        {
          "internalType": "address",
          "name": "_user",
          "type": "address"
        },
        {
          "internalType": "uint256",
          "name": "_quantity",
          "type": "uint256"
        }
      ],
      "name": "airdrop",
      "outputs": [],
      "stateMutability": "nonpayable",
      "type": "function"
    },
    {
      "inputs": [
        {
          "internalType": "address",
          "name": "to",
          "type": "address"
        },
        {
          "internalType": "uint256",
          "name": "tokenId",
          "type": "uint256"
        }
      ],
      "name": "approve",
      "outputs": [],
      "stateMutability": "nonpayable",
      "type": "function"
    },
    {
      "inputs": [
        {
          "internalType": "address",
          "name": "owner",
          "type": "address"
        }
      ],
      "name": "balanceOf",
      "outputs": [
        {
          "internalType": "uint256",
          "name": "",
          "type": "uint256"
        }
      ],
      "stateMutability": "view",
      "type": "function"
    },
    {
      "inputs": [
        {
          "internalType": "uint256",
          "name": "",
          "type": "uint256"
        }
      ],
      "name": "boxes",
      "outputs": [
        {
          "internalType": "string",
          "name": "name",
          "type": "string"
        },
        {
          "internalType": "uint256",
          "name": "price",
          "type": "uint256"
        },
        {
          "internalType": "uint256",
          "name": "burnAmount",
          "type": "uint256"
        },
        {
          "internalType": "string",
          "name": "cid",
          "type": "string"
        },
        {
          "internalType": "uint256",
          "name": "maxSupply",
          "type": "uint256"
        },
        {
          "internalType": "uint256",
          "name": "remainingSupply",
          "type": "uint256"
        },
        {
          "internalType": "bool",
          "name": "mintEnabled",
          "type": "bool"
        }
      ],
      "stateMutability": "view",
      "type": "function"
    },
    {
      "inputs": [],
      "name": "contractURI",
      "outputs": [
        {
          "internalType": "string",
          "name": "",
          "type": "string"
        }
      ],
      "stateMutability": "pure",
      "type": "function"
    },
    {
      "inputs": [],
      "name": "eggAddress",
      "outputs": [
        {
          "internalType": "address",
          "name": "",
          "type": "address"
        }
      ],
      "stateMutability": "view",
      "type": "function"
    },
    {
      "inputs": [
        {
          "internalType": "uint256",
          "name": "tokenId",
          "type": "uint256"
        }
      ],
      "name": "getApproved",
      "outputs": [
        {
          "internalType": "address",
          "name": "",
          "type": "address"
        }
      ],
      "stateMutability": "view",
      "type": "function"
    },
    {
      "inputs": [
        {
          "internalType": "uint256",
          "name": "_boxId",
          "type": "uint256"
        }
      ],
      "name": "getMysteryBoxCid",
      "outputs": [
        {
          "internalType": "string",
          "name": "",
          "type": "string"
        }
      ],
      "stateMutability": "view",
      "type": "function"
    },
    {
      "inputs": [
        {
          "internalType": "uint256",
          "name": "_boxId",
          "type": "uint256"
        }
      ],
      "name": "getMysteryBoxName",
      "outputs": [
        {
          "internalType": "string",
          "name": "",
          "type": "string"
        }
      ],
      "stateMutability": "view",
      "type": "function"
    },
    {
      "inputs": [
        {
          "internalType": "uint256",
          "name": "_boxId",
          "type": "uint256"
        }
      ],
      "name": "getMysteryBoxPrice",
      "outputs": [
        {
          "internalType": "uint256",
          "name": "",
          "type": "uint256"
        }
      ],
      "stateMutability": "view",
      "type": "function"
    },
    {
      "inputs": [
        {
          "internalType": "uint256",
          "name": "_boxId",
          "type": "uint256"
        }
      ],
      "name": "getPrice",
      "outputs": [
        {
          "internalType": "uint256",
          "name": "",
          "type": "uint256"
        }
      ],
      "stateMutability": "view",
      "type": "function"
    },
    {
      "inputs": [
        {
          "internalType": "address",
          "name": "owner",
          "type": "address"
        },
        {
          "internalType": "address",
          "name": "operator",
          "type": "address"
        }
      ],
      "name": "isApprovedForAll",
      "outputs": [
        {
          "internalType": "bool",
          "name": "",
          "type": "bool"
        }
      ],
      "stateMutability": "view",
      "type": "function"
    },
    {
      "inputs": [
        {
          "internalType": "address",
          "name": "_user",
          "type": "address"
        }
      ],
      "name": "isWhitelisted",
      "outputs": [
        {
          "internalType": "bool",
          "name": "",
          "type": "bool"
        }
      ],
      "stateMutability": "view",
      "type": "function"
    },
    {
      "inputs": [
        {
          "internalType": "uint256",
          "name": "_boxId",
          "type": "uint256"
        },
        {
          "internalType": "uint256",
          "name": "_quantity",
          "type": "uint256"
        }
      ],
      "name": "mint",
      "outputs": [],
      "stateMutability": "nonpayable",
      "type": "function"
    },
    {
      "inputs": [],
      "name": "name",
      "outputs": [
        {
          "internalType": "string",
          "name": "",
          "type": "string"
        }
      ],
      "stateMutability": "view",
      "type": "function"
    },
    {
      "inputs": [
        {
          "internalType": "uint256",
          "name": "_tokenId",
          "type": "uint256"
        }
      ],
      "name": "openBox",
      "outputs": [],
      "stateMutability": "nonpayable",
      "type": "function"
    },
    {
      "inputs": [],
      "name": "owner",
      "outputs": [
        {
          "internalType": "address",
          "name": "",
          "type": "address"
        }
      ],
      "stateMutability": "view",
      "type": "function"
    },
    {
      "inputs": [
        {
          "internalType": "uint256",
          "name": "tokenId",
          "type": "uint256"
        }
      ],
      "name": "ownerOf",
      "outputs": [
        {
          "internalType": "address",
          "name": "",
          "type": "address"
        }
      ],
      "stateMutability": "view",
      "type": "function"
    },
    {
      "inputs": [],
      "name": "renounceOwnership",
      "outputs": [],
      "stateMutability": "nonpayable",
      "type": "function"
    },
    {
      "inputs": [
        {
          "internalType": "address",
          "name": "from",
          "type": "address"
        },
        {
          "internalType": "address",
          "name": "to",
          "type": "address"
        },
        {
          "internalType": "uint256",
          "name": "tokenId",
          "type": "uint256"
        }
      ],
      "name": "safeTransferFrom",
      "outputs": [],
      "stateMutability": "nonpayable",
      "type": "function"
    },
    {
      "inputs": [
        {
          "internalType": "address",
          "name": "from",
          "type": "address"
        },
        {
          "internalType": "address",
          "name": "to",
          "type": "address"
        },
        {
          "internalType": "uint256",
          "name": "tokenId",
          "type": "uint256"
        },
        {
          "internalType": "bytes",
          "name": "data",
          "type": "bytes"
        }
      ],
      "name": "safeTransferFrom",
      "outputs": [],
      "stateMutability": "nonpayable",
      "type": "function"
    },
    {
      "inputs": [
        {
          "internalType": "address",
          "name": "operator",
          "type": "address"
        },
        {
          "internalType": "bool",
          "name": "approved",
          "type": "bool"
        }
      ],
      "name": "setApprovalForAll",
      "outputs": [],
      "stateMutability": "nonpayable",
      "type": "function"
    },
    {
      "inputs": [
        {
          "internalType": "uint256",
          "name": "_boxId",
          "type": "uint256"
        },
        {
          "internalType": "bool",
          "name": "_state",
          "type": "bool"
        }
      ],
      "name": "setMintEnabled",
      "outputs": [],
      "stateMutability": "nonpayable",
      "type": "function"
    },
    {
      "inputs": [
        {
          "internalType": "uint256",
          "name": "_boxId",
          "type": "uint256"
        },
        {
          "internalType": "uint256",
          "name": "_price",
          "type": "uint256"
        }
      ],
      "name": "setPrice",
      "outputs": [],
      "stateMutability": "nonpayable",
      "type": "function"
    },
    {
      "inputs": [
        {
          "internalType": "address[]",
          "name": "_whitelist",
          "type": "address[]"
        }
      ],
      "name": "setWhitelist",
      "outputs": [],
      "stateMutability": "nonpayable",
      "type": "function"
    },
    {
      "inputs": [],
      "name": "sneakerAddress",
      "outputs": [
        {
          "internalType": "address",
          "name": "",
          "type": "address"
        }
      ],
      "stateMutability": "view",
      "type": "function"
    },
    {
      "inputs": [
        {
          "internalType": "bytes4",
          "name": "interfaceId",
          "type": "bytes4"
        }
      ],
      "name": "supportsInterface",
      "outputs": [
        {
          "internalType": "bool",
          "name": "",
          "type": "bool"
        }
      ],
      "stateMutability": "view",
      "type": "function"
    },
    {
      "inputs": [],
      "name": "symbol",
      "outputs": [
        {
          "internalType": "string",
          "name": "",
          "type": "string"
        }
      ],
      "stateMutability": "view",
      "type": "function"
    },
    {
      "inputs": [
        {
          "internalType": "uint256",
          "name": "_tokenId",
          "type": "uint256"
        }
      ],
      "name": "tokenURI",
      "outputs": [
        {
          "internalType": "string",
          "name": "",
          "type": "string"
        }
      ],
      "stateMutability": "view",
      "type": "function"
    },
    {
      "inputs": [],
      "name": "totalSupply",
      "outputs": [
        {
          "internalType": "uint256",
          "name": "",
          "type": "uint256"
        }
      ],
      "stateMutability": "view",
      "type": "function"
    },
    {
      "inputs": [
        {
          "internalType": "address",
          "name": "from",
          "type": "address"
        },
        {
          "internalType": "address",
          "name": "to",
          "type": "address"
        },
        {
          "internalType": "uint256",
          "name": "tokenId",
          "type": "uint256"
        }
      ],
      "name": "transferFrom",
      "outputs": [],
      "stateMutability": "nonpayable",
      "type": "function"
    },
    {
      "inputs": [
        {
          "internalType": "address",
          "name": "newOwner",
          "type": "address"
        }
      ],
      "name": "transferOwnership",
      "outputs": [],
      "stateMutability": "nonpayable",
      "type": "function"
    },
    {
      "inputs": [],
      "name": "uriPrefix",
      "outputs": [
        {
          "internalType": "string",
          "name": "",
          "type": "string"
        }
      ],
      "stateMutability": "view",
      "type": "function"
    },
    {
      "inputs": [],
      "name": "uriSuffix",
      "outputs": [
        {
          "internalType": "string",
          "name": "",
          "type": "string"
        }
      ],
      "stateMutability": "view",
      "type": "function"
    },
    {
      "inputs": [],
      "name": "withdraw",
      "outputs": [],
      "stateMutability": "nonpayable",
      "type": "function"
    }
  ],
  "bytecode": "0x608060405260405180602001604052806000815250600990805190602001906200002b929190620005a4565b506040518060400160405280600581526020017f2e6a736f6e000000000000000000000000000000000000000000000000000000815250600a908051906020019062000079929190620005a4565b503480156200008757600080fd5b50604051620054b5380380620054b58339818101604052810190620000ad9190620006be565b733cc6cdda760b79bafa08df41ecfa224f810dceb660016040518060400160405280600b81526020017f4d79737465727920426f780000000000000000000000000000000000000000008152506040518060400160405280600281526020017f4d420000000000000000000000000000000000000000000000000000000000008152506200015062000144620004cf60201b60201c565b620004d760201b60201c565b816003908051906020019062000168929190620005a4565b50806004908051906020019062000181929190620005a4565b50620001926200059b60201b60201c565b600181905550505060006daaeb6d7670e522a718067333cd4e73ffffffffffffffffffffffffffffffffffffffff163b11156200038f57801562000255576daaeb6d7670e522a718067333cd4e73ffffffffffffffffffffffffffffffffffffffff16637d3e3dbe30846040518363ffffffff1660e01b81526004016200021b9291906200072b565b600060405180830381600087803b1580156200023657600080fd5b505af11580156200024b573d6000803e3d6000fd5b505050506200038e565b600073ffffffffffffffffffffffffffffffffffffffff168273ffffffffffffffffffffffffffffffffffffffff16146200030f576daaeb6d7670e522a718067333cd4e73ffffffffffffffffffffffffffffffffffffffff1663a0af290330846040518363ffffffff1660e01b8152600401620002d59291906200072b565b600060405180830381600087803b158015620002f057600080fd5b505af115801562000305573d6000803e3d6000fd5b505050506200038d565b6daaeb6d7670e522a718067333cd4e73ffffffffffffffffffffffffffffffffffffffff16634420e486306040518263ffffffff1660e01b815260040162000358919062000758565b600060405180830381600087803b1580156200037357600080fd5b505af115801562000388573d6000803e3d6000fd5b505050505b5b5b5050600073ffffffffffffffffffffffffffffffffffffffff168373ffffffffffffffffffffffffffffffffffffffff160362000403576040517f08c379a0000000000000000000000000000000000000000000000000000000008152600401620003fa90620007d6565b60405180910390fd5b82600b60006101000a81548173ffffffffffffffffffffffffffffffffffffffff021916908373ffffffffffffffffffffffffffffffffffffffff16021790555081600c60006101000a81548173ffffffffffffffffffffffffffffffffffffffff021916908373ffffffffffffffffffffffffffffffffffffffff16021790555080600d60006101000a81548173ffffffffffffffffffffffffffffffffffffffff021916908373ffffffffffffffffffffffffffffffffffffffff1602179055505050506200085c565b600033905090565b60008060009054906101000a900473ffffffffffffffffffffffffffffffffffffffff169050816000806101000a81548173ffffffffffffffffffffffffffffffffffffffff021916908373ffffffffffffffffffffffffffffffffffffffff1602179055508173ffffffffffffffffffffffffffffffffffffffff168173ffffffffffffffffffffffffffffffffffffffff167f8be0079c531659141344cd1fd0a4f28419497f9722a3daafe3b4186f6b6457e060405160405180910390a35050565b60006001905090565b828054620005b29062000827565b90600052602060002090601f016020900481019282620005d6576000855562000622565b82601f10620005f157805160ff191683800117855562000622565b8280016001018555821562000622579182015b828111156200062157825182559160200191906001019062000604565b5b50905062000631919062000635565b5090565b5b808211156200065057600081600090555060010162000636565b5090565b600080fd5b600073ffffffffffffffffffffffffffffffffffffffff82169050919050565b6000620006868262000659565b9050919050565b620006988162000679565b8114620006a457600080fd5b50565b600081519050620006b8816200068d565b92915050565b600080600060608486031215620006da57620006d962000654565b5b6000620006ea86828701620006a7565b9350506020620006fd86828701620006a7565b92505060406200071086828701620006a7565b9150509250925092565b620007258162000679565b82525050565b60006040820190506200074260008301856200071a565b6200075160208301846200071a565b9392505050565b60006020820190506200076f60008301846200071a565b92915050565b600082825260208201905092915050565b7f496e76616c696420555344432061646472657373000000000000000000000000600082015250565b6000620007be60148362000775565b9150620007cb8262000786565b602082019050919050565b60006020820190508181036000830152620007f181620007af565b9050919050565b7f4e487b7100000000000000000000000000000000000000000000000000000000600052602260045260246000fd5b600060028204905060018216806200084057607f821691505b602082108103620008565762000855620007f8565b5b50919050565b614c49806200086c6000396000f3fe608060405234801561001057600080fd5b50600436106102275760003560e01c806372fc44cc11610130578063c87b56dd116100b8578063ebbc9a0b1161007c578063ebbc9a0b1461067c578063f2fde38b146106ac578063f4217648146106c8578063f7d97577146106e4578063fb6f7a9a1461070057610227565b8063c87b56dd146105b0578063e7572230146105e0578063e8a3d48514610610578063e93032091461062e578063e985e9c51461064c57610227565b806395d89b41116100ff57806395d89b4114610522578063a22cb46514610540578063b1e5e2b71461055c578063b88d4fde14610578578063c5087cac1461059457610227565b806372fc44cc14610488578063765f1b0c146104b85780638ba4cc3c146104e85780638da5cb5b1461050457610227565b80633ccfd60b116101b35780635503a0e8116101825780635503a0e8146103e257806362b99ad4146104005780636352211e1461041e57806370a082311461044e578063715018a61461047e57610227565b80633ccfd60b1461036a57806342842e0e1461037457806349a9493c146103905780634ed3faf2146103ac57610227565b806318160ddd116101fa57806318160ddd146102c65780631b2ef1ca146102e457806323b872dd146103005780632c7d86ba1461031c5780633af32abf1461033a57610227565b806301ffc9a71461022c57806306fdde031461025c578063081812fc1461027a578063095ea7b3146102aa575b600080fd5b61024660048036038101906102419190613844565b61071e565b604051610253919061388c565b60405180910390f35b6102646107b0565b6040516102719190613940565b60405180910390f35b610294600480360381019061028f9190613998565b610842565b6040516102a19190613a06565b60405180910390f35b6102c460048036038101906102bf9190613a4d565b6108c1565b005b6102ce610a05565b6040516102db9190613a9c565b60405180910390f35b6102fe60048036038101906102f99190613ab7565b610a1c565b005b61031a60048036038101906103159190613af7565b610c80565b005b610324610e62565b6040516103319190613a06565b60405180910390f35b610354600480360381019061034f9190613b4a565b610e88565b604051610361919061388c565b60405180910390f35b610372610f2e565b005b61038e60048036038101906103899190613af7565b6111a5565b005b6103aa60048036038101906103a59190613ba3565b611387565b005b6103c660048036038101906103c19190613998565b611417565b6040516103d99796959493929190613be3565b60405180910390f35b6103ea611586565b6040516103f79190613940565b60405180910390f35b610408611614565b6040516104159190613940565b60405180910390f35b61043860048036038101906104339190613998565b6116a2565b6040516104459190613a06565b60405180910390f35b61046860048036038101906104639190613b4a565b6116b4565b6040516104759190613a9c565b60405180910390f35b61048661176c565b005b6104a2600480360381019061049d9190613998565b611780565b6040516104af9190613940565b60405180910390f35b6104d260048036038101906104cd9190613998565b61187e565b6040516104df9190613a9c565b60405180910390f35b61050260048036038101906104fd9190613a4d565b6118f4565b005b61050c61190a565b6040516105199190613a06565b60405180910390f35b61052a611933565b6040516105379190613940565b60405180910390f35b61055a60048036038101906105559190613c60565b6119c5565b005b61057660048036038101906105719190613998565b611b3c565b005b610592600480360381019061058d9190613dd5565b611d6a565b005b6105ae60048036038101906105a99190613ef9565b611f4f565b005b6105ca60048036038101906105c59190613998565b612043565b6040516105d79190613940565b60405180910390f35b6105fa60048036038101906105f59190613998565b612152565b6040516106079190613a9c565b60405180910390f35b610618612181565b6040516106259190613940565b60405180910390f35b6106366121a1565b6040516106439190613a06565b60405180910390f35b61066660048036038101906106619190613f98565b6121c7565b604051610673919061388c565b60405180910390f35b61069660048036038101906106919190613998565b61225b565b6040516106a39190613940565b60405180910390f35b6106c660048036038101906106c19190613b4a565b612359565b005b6106e260048036038101906106dd91906140a0565b6123dc565b005b6106fe60048036038101906106f99190613ab7565b61240c565b005b610708612489565b6040516107159190613a06565b60405180910390f35b60006301ffc9a760e01b827bffffffffffffffffffffffffffffffffffffffffffffffffffffffff1916148061077957506380ac58cd60e01b827bffffffffffffffffffffffffffffffffffffffffffffffffffffffff1916145b806107a95750635b5e139f60e01b827bffffffffffffffffffffffffffffffffffffffffffffffffffffffff1916145b9050919050565b6060600380546107bf90614118565b80601f01602080910402602001604051908101604052809291908181526020018280546107eb90614118565b80156108385780601f1061080d57610100808354040283529160200191610838565b820191906000526020600020905b81548152906001019060200180831161081b57829003601f168201915b5050505050905090565b600061084d826124af565b610883576040517fcf4700e400000000000000000000000000000000000000000000000000000000815260040160405180910390fd5b6007600083815260200190815260200160002060000160009054906101000a900473ffffffffffffffffffffffffffffffffffffffff169050919050565b60006108cc826116a2565b90508073ffffffffffffffffffffffffffffffffffffffff166108ed61250e565b73ffffffffffffffffffffffffffffffffffffffff1614610950576109198161091461250e565b6121c7565b61094f576040517fcfb3b94200000000000000000000000000000000000000000000000000000000815260040160405180910390fd5b5b826007600084815260200190815260200160002060000160006101000a81548173ffffffffffffffffffffffffffffffffffffffff021916908373ffffffffffffffffffffffffffffffffffffffff160217905550818373ffffffffffffffffffffffffffffffffffffffff168273ffffffffffffffffffffffffffffffffffffffff167f8c5be1e5ebec7d5bd14f71427d1e84f3dd0314c0f7b2291e5b200ac8c7c3b92560405160405180910390a4505050565b6000610a0f612516565b6002546001540303905090565b600f805490508210610a63576040517f08c379a0000000000000000000000000000000000000000000000000000000008152600401610a5a90614195565b60405180910390fd5b600f8281548110610a7757610a766141b5565b5b906000526020600020906007020160060160009054906101000a900460ff16610ad5576040517f08c379a0000000000000000000000000000000000000000000000000000000008152600401610acc90614230565b60405180910390fd5b80600f8381548110610aea57610ae96141b5565b5b9060005260206000209060070201600501541015610b3d576040517f08c379a0000000000000000000000000000000000000000000000000000000008152600401610b349061429c565b60405180910390fd5b60005b81811015610b8f57826010600083610b5661251f565b610b5e612516565b610b6891906142eb565b610b7291906142eb565b815260200190815260200160002081905550806001019050610b40565b50610b9933610e88565b610c0057610bff333083610bac86612152565b610bb69190614341565b600b60009054906101000a900473ffffffffffffffffffffffffffffffffffffffff1673ffffffffffffffffffffffffffffffffffffffff16612532909392919063ffffffff16565b5b610c0a33826125bb565b600f8281548110610c1e57610c1d6141b5565b5b90600052602060002090600702016005016000815480929190610c409061439b565b91905055507ff5535ccd9f40eb4bc73fac8710dbb2effbf3329da83f62b35d9aa88161bb85ca33604051610c749190613a06565b60405180910390a15050565b8260006daaeb6d7670e522a718067333cd4e73ffffffffffffffffffffffffffffffffffffffff163b1115610e50573373ffffffffffffffffffffffffffffffffffffffff168173ffffffffffffffffffffffffffffffffffffffff1603610cf257610ced848484612777565b610e5c565b6daaeb6d7670e522a718067333cd4e73ffffffffffffffffffffffffffffffffffffffff1663c617113430336040518363ffffffff1660e01b8152600401610d3b9291906143c4565b602060405180830381865afa158015610d58573d6000803e3d6000fd5b505050506040513d601f19601f82011682018060405250810190610d7c9190614402565b8015610e0e57506daaeb6d7670e522a718067333cd4e73ffffffffffffffffffffffffffffffffffffffff1663c617113430836040518363ffffffff1660e01b8152600401610dcc9291906143c4565b602060405180830381865afa158015610de9573d6000803e3d6000fd5b505050506040513d601f19601f82011682018060405250810190610e0d9190614402565b5b610e4f57336040517fede71dcc000000000000000000000000000000000000000000000000000000008152600401610e469190613a06565b60405180910390fd5b5b610e5b848484612777565b5b50505050565b600c60009054906101000a900473ffffffffffffffffffffffffffffffffffffffff1681565b600080600090505b600e80549050811015610f23578273ffffffffffffffffffffffffffffffffffffffff16600e8281548110610ec857610ec76141b5565b5b9060005260206000200160009054906101000a900473ffffffffffffffffffffffffffffffffffffffff1673ffffffffffffffffffffffffffffffffffffffff1603610f18576001915050610f29565b806001019050610e90565b50600090505b919050565b610f36612a99565b3373ffffffffffffffffffffffffffffffffffffffff166108fc479081150290604051600060405180830381858888f19350505050158015610f7c573d6000803e3d6000fd5b50600b60009054906101000a900473ffffffffffffffffffffffffffffffffffffffff1673ffffffffffffffffffffffffffffffffffffffff1663095ea7b330600b60009054906101000a900473ffffffffffffffffffffffffffffffffffffffff1673ffffffffffffffffffffffffffffffffffffffff166370a08231306040518263ffffffff1660e01b81526004016110179190613a06565b602060405180830381865afa158015611034573d6000803e3d6000fd5b505050506040513d601f19601f820116820180604052508101906110589190614444565b6040518363ffffffff1660e01b8152600401611075929190614471565b6020604051808303816000875af1158015611094573d6000803e3d6000fd5b505050506040513d601f19601f820116820180604052508101906110b89190614402565b506111a33033600b60009054906101000a900473ffffffffffffffffffffffffffffffffffffffff1673ffffffffffffffffffffffffffffffffffffffff166370a08231306040518263ffffffff1660e01b81526004016111199190613a06565b602060405180830381865afa158015611136573d6000803e3d6000fd5b505050506040513d601f19601f8201168201806040525081019061115a9190614444565b600b60009054906101000a900473ffffffffffffffffffffffffffffffffffffffff1673ffffffffffffffffffffffffffffffffffffffff16612532909392919063ffffffff16565b565b8260006daaeb6d7670e522a718067333cd4e73ffffffffffffffffffffffffffffffffffffffff163b1115611375573373ffffffffffffffffffffffffffffffffffffffff168173ffffffffffffffffffffffffffffffffffffffff160361121757611212848484612b17565b611381565b6daaeb6d7670e522a718067333cd4e73ffffffffffffffffffffffffffffffffffffffff1663c617113430336040518363ffffffff1660e01b81526004016112609291906143c4565b602060405180830381865afa15801561127d573d6000803e3d6000fd5b505050506040513d601f19601f820116820180604052508101906112a19190614402565b801561133357506daaeb6d7670e522a718067333cd4e73ffffffffffffffffffffffffffffffffffffffff1663c617113430836040518363ffffffff1660e01b81526004016112f19291906143c4565b602060405180830381865afa15801561130e573d6000803e3d6000fd5b505050506040513d601f19601f820116820180604052508101906113329190614402565b5b61137457336040517fede71dcc00000000000000000000000000000000000000000000000000000000815260040161136b9190613a06565b60405180910390fd5b5b611380848484612b17565b5b50505050565b61138f612a99565b600f8054905082106113d6576040517f08c379a00000000000000000000000000000000000000000000000000000000081526004016113cd90614195565b60405180910390fd5b80600f83815481106113eb576113ea6141b5565b5b906000526020600020906007020160060160006101000a81548160ff0219169083151502179055505050565b600f818154811061142757600080fd5b906000526020600020906007020160009150905080600001805461144a90614118565b80601f016020809104026020016040519081016040528092919081815260200182805461147690614118565b80156114c35780601f10611498576101008083540402835291602001916114c3565b820191906000526020600020905b8154815290600101906020018083116114a657829003601f168201915b5050505050908060010154908060020154908060030180546114e490614118565b80601f016020809104026020016040519081016040528092919081815260200182805461151090614118565b801561155d5780601f106115325761010080835404028352916020019161155d565b820191906000526020600020905b81548152906001019060200180831161154057829003601f168201915b5050505050908060040154908060050154908060060160009054906101000a900460ff16905087565b600a805461159390614118565b80601f01602080910402602001604051908101604052809291908181526020018280546115bf90614118565b801561160c5780601f106115e15761010080835404028352916020019161160c565b820191906000526020600020905b8154815290600101906020018083116115ef57829003601f168201915b505050505081565b6009805461162190614118565b80601f016020809104026020016040519081016040528092919081815260200182805461164d90614118565b801561169a5780601f1061166f5761010080835404028352916020019161169a565b820191906000526020600020905b81548152906001019060200180831161167d57829003601f168201915b505050505081565b60006116ad82612b37565b9050919050565b60008073ffffffffffffffffffffffffffffffffffffffff168273ffffffffffffffffffffffffffffffffffffffff160361171b576040517f8f4eb60400000000000000000000000000000000000000000000000000000000815260040160405180910390fd5b67ffffffffffffffff600660008473ffffffffffffffffffffffffffffffffffffffff1673ffffffffffffffffffffffffffffffffffffffff16815260200190815260200160002054169050919050565b611774612a99565b61177e6000612c03565b565b6060600f8054905082106117c9576040517f08c379a00000000000000000000000000000000000000000000000000000000081526004016117c090614195565b60405180910390fd5b600f82815481106117dd576117dc6141b5565b5b906000526020600020906007020160000180546117f990614118565b80601f016020809104026020016040519081016040528092919081815260200182805461182590614118565b80156118725780601f1061184757610100808354040283529160200191611872565b820191906000526020600020905b81548152906001019060200180831161185557829003601f168201915b50505050509050919050565b6000600f8054905082106118c7576040517f08c379a00000000000000000000000000000000000000000000000000000000081526004016118be90614195565b60405180910390fd5b600f82815481106118db576118da6141b5565b5b9060005260206000209060070201600101549050919050565b6118fc612a99565b61190682826125bb565b5050565b60008060009054906101000a900473ffffffffffffffffffffffffffffffffffffffff16905090565b60606004805461194290614118565b80601f016020809104026020016040519081016040528092919081815260200182805461196e90614118565b80156119bb5780601f10611990576101008083540402835291602001916119bb565b820191906000526020600020905b81548152906001019060200180831161199e57829003601f168201915b5050505050905090565b6119cd61250e565b73ffffffffffffffffffffffffffffffffffffffff168273ffffffffffffffffffffffffffffffffffffffff1603611a31576040517fb06307db00000000000000000000000000000000000000000000000000000000815260040160405180910390fd5b8060086000611a3e61250e565b73ffffffffffffffffffffffffffffffffffffffff1673ffffffffffffffffffffffffffffffffffffffff16815260200190815260200160002060008473ffffffffffffffffffffffffffffffffffffffff1673ffffffffffffffffffffffffffffffffffffffff16815260200190815260200160002060006101000a81548160ff0219169083151502179055508173ffffffffffffffffffffffffffffffffffffffff16611aeb61250e565b73ffffffffffffffffffffffffffffffffffffffff167f17307eab39ab6107e8899845ad3d59bd9653f200f220920489ca2b5937696c3183604051611b30919061388c565b60405180910390a35050565b3373ffffffffffffffffffffffffffffffffffffffff16611b5c826116a2565b73ffffffffffffffffffffffffffffffffffffffff1614611bb2576040517f08c379a0000000000000000000000000000000000000000000000000000000008152600401611ba9906144e6565b60405180910390fd5b3273ffffffffffffffffffffffffffffffffffffffff16611bd1612cc7565b73ffffffffffffffffffffffffffffffffffffffff1614611c27576040517f08c379a0000000000000000000000000000000000000000000000000000000008152600401611c1e90614552565b60405180910390fd5b600060106000838152602001908152602001600020549050600c60009054906101000a900473ffffffffffffffffffffffffffffffffffffffff1673ffffffffffffffffffffffffffffffffffffffff166391ff7e0133836040518363ffffffff1660e01b8152600401611c9c929190614471565b600060405180830381600087803b158015611cb657600080fd5b505af1158015611cca573d6000803e3d6000fd5b50505050600d60009054906101000a900473ffffffffffffffffffffffffffffffffffffffff1673ffffffffffffffffffffffffffffffffffffffff166391ff7e0133836040518363ffffffff1660e01b8152600401611d2b929190614471565b600060405180830381600087803b158015611d4557600080fd5b505af1158015611d59573d6000803e3d6000fd5b50505050611d6682612ccf565b5050565b8360006daaeb6d7670e522a718067333cd4e73ffffffffffffffffffffffffffffffffffffffff163b1115611f3b573373ffffffffffffffffffffffffffffffffffffffff168173ffffffffffffffffffffffffffffffffffffffff1603611ddd57611dd885858585612cdd565b611f48565b6daaeb6d7670e522a718067333cd4e73ffffffffffffffffffffffffffffffffffffffff1663c617113430336040518363ffffffff1660e01b8152600401611e269291906143c4565b602060405180830381865afa158015611e43573d6000803e3d6000fd5b505050506040513d601f19601f82011682018060405250810190611e679190614402565b8015611ef957506daaeb6d7670e522a718067333cd4e73ffffffffffffffffffffffffffffffffffffffff1663c617113430836040518363ffffffff1660e01b8152600401611eb79291906143c4565b602060405180830381865afa158015611ed4573d6000803e3d6000fd5b505050506040513d601f19601f82011682018060405250810190611ef89190614402565b5b611f3a57336040517fede71dcc000000000000000000000000000000000000000000000000000000008152600401611f319190613a06565b60405180910390fd5b5b611f4785858585612cdd565b5b5050505050565b611f57612a99565b600f6040518060e00160405280868152602001858152602001600081526020018481526020018381526020018381526020016001151581525090806001815401808255809150506001900390600052602060002090600702016000909190919091506000820151816000019080519060200190611fd592919061368a565b506020820151816001015560408201518160020155606082015181600301908051906020019061200692919061368a565b506080820151816004015560a0820151816005015560c08201518160060160006101000a81548160ff021916908315150217905550505050505050565b606061204e826124af565b61208d576040517f08c379a0000000000000000000000000000000000000000000000000000000008152600401612084906145e4565b60405180910390fd5b600f805490506010600084815260200190815260200160002054106120e7576040517f08c379a00000000000000000000000000000000000000000000000000000000081526004016120de90614195565b60405180910390fd5b600f60106000848152602001908152602001600020548154811061210e5761210d6141b5565b5b906000526020600020906007020160030161212883612d50565b600a60405160200161213c9392919061476c565b6040516020818303038152906040529050919050565b6000600f8281548110612168576121676141b5565b5b9060005260206000209060070201600101549050919050565b6060604051806060016040528060368152602001614bde60369139905090565b600b60009054906101000a900473ffffffffffffffffffffffffffffffffffffffff1681565b6000600860008473ffffffffffffffffffffffffffffffffffffffff1673ffffffffffffffffffffffffffffffffffffffff16815260200190815260200160002060008373ffffffffffffffffffffffffffffffffffffffff1673ffffffffffffffffffffffffffffffffffffffff16815260200190815260200160002060009054906101000a900460ff16905092915050565b6060600f8054905082106122a4576040517f08c379a000000000000000000000000000000000000000000000000000000000815260040161229b90614195565b60405180910390fd5b600f82815481106122b8576122b76141b5565b5b906000526020600020906007020160030180546122d490614118565b80601f016020809104026020016040519081016040528092919081815260200182805461230090614118565b801561234d5780601f106123225761010080835404028352916020019161234d565b820191906000526020600020905b81548152906001019060200180831161233057829003601f168201915b50505050509050919050565b612361612a99565b600073ffffffffffffffffffffffffffffffffffffffff168173ffffffffffffffffffffffffffffffffffffffff16036123d0576040517f08c379a00000000000000000000000000000000000000000000000000000000081526004016123c790614825565b60405180910390fd5b6123d981612c03565b50565b6123e4612a99565b600e60006123f29190613710565b80600e9080519060200190612408929190613731565b5050565b612414612a99565b600f80549050821061245b576040517f08c379a000000000000000000000000000000000000000000000000000000000815260040161245290614195565b60405180910390fd5b80600f83815481106124705761246f6141b5565b5b9060005260206000209060070201600101819055505050565b600d60009054906101000a900473ffffffffffffffffffffffffffffffffffffffff1681565b6000816124ba612516565b111580156124c9575060015482105b8015612507575060007c0100000000000000000000000000000000000000000000000000000000600560008581526020019081526020016000205416145b9050919050565b600033905090565b60006001905090565b6000612529612516565b60015403905090565b6125b5846323b872dd60e01b85858560405160240161255393929190614845565b604051602081830303815290604052907bffffffffffffffffffffffffffffffffffffffffffffffffffffffff19166020820180517bffffffffffffffffffffffffffffffffffffffffffffffffffffffff8381831617835250505050612e1e565b50505050565b60006001549050600082036125fc576040517fb562e8dd00000000000000000000000000000000000000000000000000000000815260040160405180910390fd5b6126096000848385612ee5565b600160406001901b178202600660008573ffffffffffffffffffffffffffffffffffffffff1673ffffffffffffffffffffffffffffffffffffffff16815260200190815260200160002060008282540192505081905550612680836126716000866000612eeb565b61267a85612f13565b17612f23565b6005600083815260200190815260200160002081905550600080838301905073ffffffffffffffffffffffffffffffffffffffff85169150828260007fddf252ad1be2c89b69c2b068fc378daa952ba7f163c4a11628f55a4df523b3ef600080a4600183015b81811461272157808360007fddf252ad1be2c89b69c2b068fc378daa952ba7f163c4a11628f55a4df523b3ef600080a46001810190506126e6565b506000820361275c576040517f2e07630000000000000000000000000000000000000000000000000000000000815260040160405180910390fd5b8060018190555050506127726000848385612f4e565b505050565b600061278282612b37565b90508373ffffffffffffffffffffffffffffffffffffffff168173ffffffffffffffffffffffffffffffffffffffff16146127e9576040517fa114810000000000000000000000000000000000000000000000000000000000815260040160405180910390fd5b6000806127f584612f54565b9150915061280b818761280661250e565b612f7b565b612857576128208661281b61250e565b6121c7565b612856576040517f59c896be00000000000000000000000000000000000000000000000000000000815260040160405180910390fd5b5b600073ffffffffffffffffffffffffffffffffffffffff168573ffffffffffffffffffffffffffffffffffffffff16036128bd576040517fea553b3400000000000000000000000000000000000000000000000000000000815260040160405180910390fd5b6128ca8686866001612ee5565b80156128d557600082555b600660008773ffffffffffffffffffffffffffffffffffffffff1673ffffffffffffffffffffffffffffffffffffffff168152602001908152602001600020600081546001900391905081905550600660008673ffffffffffffffffffffffffffffffffffffffff1673ffffffffffffffffffffffffffffffffffffffff16815260200190815260200160002060008154600101919050819055506129a38561297f888887612eeb565b7c020000000000000000000000000000000000000000000000000000000017612f23565b600560008681526020019081526020016000208190555060007c0200000000000000000000000000000000000000000000000000000000841603612a295760006001850190506000600560008381526020019081526020016000205403612a27576001548114612a26578360056000838152602001908152602001600020819055505b5b505b838573ffffffffffffffffffffffffffffffffffffffff168773ffffffffffffffffffffffffffffffffffffffff167fddf252ad1be2c89b69c2b068fc378daa952ba7f163c4a11628f55a4df523b3ef60405160405180910390a4612a918686866001612f4e565b505050505050565b612aa1612cc7565b73ffffffffffffffffffffffffffffffffffffffff16612abf61190a565b73ffffffffffffffffffffffffffffffffffffffff1614612b15576040517f08c379a0000000000000000000000000000000000000000000000000000000008152600401612b0c906148c8565b60405180910390fd5b565b612b3283838360405180602001604052806000815250611d6a565b505050565b60008082905080612b46612516565b11612bcc57600154811015612bcb5760006005600083815260200190815260200160002054905060007c0100000000000000000000000000000000000000000000000000000000821603612bc9575b60008103612bbf576005600083600190039350838152602001908152602001600020549050612b95565b8092505050612bfe565b505b5b6040517fdf2d9b4200000000000000000000000000000000000000000000000000000000815260040160405180910390fd5b919050565b60008060009054906101000a900473ffffffffffffffffffffffffffffffffffffffff169050816000806101000a81548173ffffffffffffffffffffffffffffffffffffffff021916908373ffffffffffffffffffffffffffffffffffffffff1602179055508173ffffffffffffffffffffffffffffffffffffffff168173ffffffffffffffffffffffffffffffffffffffff167f8be0079c531659141344cd1fd0a4f28419497f9722a3daafe3b4186f6b6457e060405160405180910390a35050565b600033905090565b612cda816000612fbf565b50565b612ce8848484610c80565b60008373ffffffffffffffffffffffffffffffffffffffff163b14612d4a57612d1384848484613211565b612d49576040517fd1a57ed600000000000000000000000000000000000000000000000000000000815260040160405180910390fd5b5b50505050565b606060006001612d5f84613361565b01905060008167ffffffffffffffff811115612d7e57612d7d613caa565b5b6040519080825280601f01601f191660200182016040528015612db05781602001600182028036833780820191505090505b509050600082602001820190505b600115612e13578080600190039150507f3031323334353637383961626364656600000000000000000000000000000000600a86061a8153600a8581612e0757612e066148e8565b5b04945060008503612dbe575b819350505050919050565b6000612e80826040518060400160405280602081526020017f5361666545524332303a206c6f772d6c6576656c2063616c6c206661696c65648152508573ffffffffffffffffffffffffffffffffffffffff166134b49092919063ffffffff16565b9050600081511115612ee05780806020019051810190612ea09190614402565b612edf576040517f08c379a0000000000000000000000000000000000000000000000000000000008152600401612ed690614989565b60405180910390fd5b5b505050565b50505050565b60008060e883901c905060e8612f028686846134cc565b62ffffff16901b9150509392505050565b60006001821460e11b9050919050565b600073ffffffffffffffffffffffffffffffffffffffff83169250814260a01b178317905092915050565b50505050565b60008060006007600085815260200190815260200160002090508092508254915050915091565b600073ffffffffffffffffffffffffffffffffffffffff8316925073ffffffffffffffffffffffffffffffffffffffff821691508382148383141790509392505050565b6000612fca83612b37565b90506000819050600080612fdd86612f54565b91509150841561304657612ff98184612ff461250e565b612f7b565b6130455761300e8361300961250e565b6121c7565b613044576040517f59c896be00000000000000000000000000000000000000000000000000000000815260040160405180910390fd5b5b5b613054836000886001612ee5565b801561305f57600082555b600160806001901b03600660008573ffffffffffffffffffffffffffffffffffffffff1673ffffffffffffffffffffffffffffffffffffffff16815260200190815260200160002060008282540192505081905550613107836130c485600088612eeb565b7c02000000000000000000000000000000000000000000000000000000007c01000000000000000000000000000000000000000000000000000000001717612f23565b600560008881526020019081526020016000208190555060007c020000000000000000000000000000000000000000000000000000000085160361318d576000600187019050600060056000838152602001908152602001600020540361318b57600154811461318a578460056000838152602001908152602001600020819055505b5b505b85600073ffffffffffffffffffffffffffffffffffffffff168473ffffffffffffffffffffffffffffffffffffffff167fddf252ad1be2c89b69c2b068fc378daa952ba7f163c4a11628f55a4df523b3ef60405160405180910390a46131f7836000886001612f4e565b600260008154809291906001019190505550505050505050565b60008373ffffffffffffffffffffffffffffffffffffffff1663150b7a0261323761250e565b8786866040518563ffffffff1660e01b815260040161325994939291906149fe565b6020604051808303816000875af192505050801561329557506040513d601f19601f820116820180604052508101906132929190614a5f565b60015b61330e573d80600081146132c5576040519150601f19603f3d011682016040523d82523d6000602084013e6132ca565b606091505b506000815103613306576040517fd1a57ed600000000000000000000000000000000000000000000000000000000815260040160405180910390fd5b805181602001fd5b63150b7a0260e01b7bffffffffffffffffffffffffffffffffffffffffffffffffffffffff1916817bffffffffffffffffffffffffffffffffffffffffffffffffffffffff191614915050949350505050565b600080600090507a184f03e93ff9f4daa797ed6e38ed64bf6a1f01000000000000000083106133bf577a184f03e93ff9f4daa797ed6e38ed64bf6a1f01000000000000000083816133b5576133b46148e8565b5b0492506040810190505b6d04ee2d6d415b85acef810000000083106133fc576d04ee2d6d415b85acef810000000083816133f2576133f16148e8565b5b0492506020810190505b662386f26fc10000831061342b57662386f26fc100008381613421576134206148e8565b5b0492506010810190505b6305f5e1008310613454576305f5e100838161344a576134496148e8565b5b0492506008810190505b612710831061347957612710838161346f5761346e6148e8565b5b0492506004810190505b6064831061349c5760648381613492576134916148e8565b5b0492506002810190505b600a83106134ab576001810190505b80915050919050565b60606134c384846000856134d5565b90509392505050565b60009392505050565b60608247101561351a576040517f08c379a000000000000000000000000000000000000000000000000000000000815260040161351190614afe565b60405180910390fd5b6000808673ffffffffffffffffffffffffffffffffffffffff1685876040516135439190614b5a565b60006040518083038185875af1925050503d8060008114613580576040519150601f19603f3d011682016040523d82523d6000602084013e613585565b606091505b5091509150613596878383876135a2565b92505050949350505050565b606083156136045760008351036135fc576135bc85613617565b6135fb576040517f08c379a00000000000000000000000000000000000000000000000000000000081526004016135f290614bbd565b60405180910390fd5b5b82905061360f565b61360e838361363a565b5b949350505050565b6000808273ffffffffffffffffffffffffffffffffffffffff163b119050919050565b60008251111561364d5781518083602001fd5b806040517f08c379a00000000000000000000000000000000000000000000000000000000081526004016136819190613940565b60405180910390fd5b82805461369690614118565b90600052602060002090601f0160209004810192826136b857600085556136ff565b82601f106136d157805160ff19168380011785556136ff565b828001600101855582156136ff579182015b828111156136fe5782518255916020019190600101906136e3565b5b50905061370c91906137bb565b5090565b508054600082559060005260206000209081019061372e91906137bb565b50565b8280548282559060005260206000209081019282156137aa579160200282015b828111156137a95782518260006101000a81548173ffffffffffffffffffffffffffffffffffffffff021916908373ffffffffffffffffffffffffffffffffffffffff16021790555091602001919060010190613751565b5b5090506137b791906137bb565b5090565b5b808211156137d45760008160009055506001016137bc565b5090565b6000604051905090565b600080fd5b600080fd5b60007fffffffff0000000000000000000000000000000000000000000000000000000082169050919050565b613821816137ec565b811461382c57600080fd5b50565b60008135905061383e81613818565b92915050565b60006020828403121561385a576138596137e2565b5b60006138688482850161382f565b91505092915050565b60008115159050919050565b61388681613871565b82525050565b60006020820190506138a1600083018461387d565b92915050565b600081519050919050565b600082825260208201905092915050565b60005b838110156138e15780820151818401526020810190506138c6565b838111156138f0576000848401525b50505050565b6000601f19601f8301169050919050565b6000613912826138a7565b61391c81856138b2565b935061392c8185602086016138c3565b613935816138f6565b840191505092915050565b6000602082019050818103600083015261395a8184613907565b905092915050565b6000819050919050565b61397581613962565b811461398057600080fd5b50565b6000813590506139928161396c565b92915050565b6000602082840312156139ae576139ad6137e2565b5b60006139bc84828501613983565b91505092915050565b600073ffffffffffffffffffffffffffffffffffffffff82169050919050565b60006139f0826139c5565b9050919050565b613a00816139e5565b82525050565b6000602082019050613a1b60008301846139f7565b92915050565b613a2a816139e5565b8114613a3557600080fd5b50565b600081359050613a4781613a21565b92915050565b60008060408385031215613a6457613a636137e2565b5b6000613a7285828601613a38565b9250506020613a8385828601613983565b9150509250929050565b613a9681613962565b82525050565b6000602082019050613ab16000830184613a8d565b92915050565b60008060408385031215613ace57613acd6137e2565b5b6000613adc85828601613983565b9250506020613aed85828601613983565b9150509250929050565b600080600060608486031215613b1057613b0f6137e2565b5b6000613b1e86828701613a38565b9350506020613b2f86828701613a38565b9250506040613b4086828701613983565b9150509250925092565b600060208284031215613b6057613b5f6137e2565b5b6000613b6e84828501613a38565b91505092915050565b613b8081613871565b8114613b8b57600080fd5b50565b600081359050613b9d81613b77565b92915050565b60008060408385031215613bba57613bb96137e2565b5b6000613bc885828601613983565b9250506020613bd985828601613b8e565b9150509250929050565b600060e0820190508181036000830152613bfd818a613907565b9050613c0c6020830189613a8d565b613c196040830188613a8d565b8181036060830152613c2b8187613907565b9050613c3a6080830186613a8d565b613c4760a0830185613a8d565b613c5460c083018461387d565b98975050505050505050565b60008060408385031215613c7757613c766137e2565b5b6000613c8585828601613a38565b9250506020613c9685828601613b8e565b9150509250929050565b600080fd5b600080fd5b7f4e487b7100000000000000000000000000000000000000000000000000000000600052604160045260246000fd5b613ce2826138f6565b810181811067ffffffffffffffff82111715613d0157613d00613caa565b5b80604052505050565b6000613d146137d8565b9050613d208282613cd9565b919050565b600067ffffffffffffffff821115613d4057613d3f613caa565b5b613d49826138f6565b9050602081019050919050565b82818337600083830152505050565b6000613d78613d7384613d25565b613d0a565b905082815260208101848484011115613d9457613d93613ca5565b5b613d9f848285613d56565b509392505050565b600082601f830112613dbc57613dbb613ca0565b5b8135613dcc848260208601613d65565b91505092915050565b60008060008060808587031215613def57613dee6137e2565b5b6000613dfd87828801613a38565b9450506020613e0e87828801613a38565b9350506040613e1f87828801613983565b925050606085013567ffffffffffffffff811115613e4057613e3f6137e7565b5b613e4c87828801613da7565b91505092959194509250565b600067ffffffffffffffff821115613e7357613e72613caa565b5b613e7c826138f6565b9050602081019050919050565b6000613e9c613e9784613e58565b613d0a565b905082815260208101848484011115613eb857613eb7613ca5565b5b613ec3848285613d56565b509392505050565b600082601f830112613ee057613edf613ca0565b5b8135613ef0848260208601613e89565b91505092915050565b60008060008060808587031215613f1357613f126137e2565b5b600085013567ffffffffffffffff811115613f3157613f306137e7565b5b613f3d87828801613ecb565b9450506020613f4e87828801613983565b935050604085013567ffffffffffffffff811115613f6f57613f6e6137e7565b5b613f7b87828801613ecb565b9250506060613f8c87828801613983565b91505092959194509250565b60008060408385031215613faf57613fae6137e2565b5b6000613fbd85828601613a38565b9250506020613fce85828601613a38565b9150509250929050565b600067ffffffffffffffff821115613ff357613ff2613caa565b5b602082029050602081019050919050565b600080fd5b600061401c61401784613fd8565b613d0a565b9050808382526020820190506020840283018581111561403f5761403e614004565b5b835b8181101561406857806140548882613a38565b845260208401935050602081019050614041565b5050509392505050565b600082601f83011261408757614086613ca0565b5b8135614097848260208601614009565b91505092915050565b6000602082840312156140b6576140b56137e2565b5b600082013567ffffffffffffffff8111156140d4576140d36137e7565b5b6140e084828501614072565b91505092915050565b7f4e487b7100000000000000000000000000000000000000000000000000000000600052602260045260246000fd5b6000600282049050600182168061413057607f821691505b602082108103614143576141426140e9565b5b50919050565b7f626f784964206f7574206f662072616e67650000000000000000000000000000600082015250565b600061417f6012836138b2565b915061418a82614149565b602082019050919050565b600060208201905081810360008301526141ae81614172565b9050919050565b7f4e487b7100000000000000000000000000000000000000000000000000000000600052603260045260246000fd5b7f4d696e74696e67206973206e6f7420656e61626c656400000000000000000000600082015250565b600061421a6016836138b2565b9150614225826141e4565b602082019050919050565b600060208201905081810360008301526142498161420d565b9050919050565b7f43616e6e6f74206d696e74206d6f7265207468616e206d617820737570706c79600082015250565b60006142866020836138b2565b915061429182614250565b602082019050919050565b600060208201905081810360008301526142b581614279565b9050919050565b7f4e487b7100000000000000000000000000000000000000000000000000000000600052601160045260246000fd5b60006142f682613962565b915061430183613962565b9250827fffffffffffffffffffffffffffffffffffffffffffffffffffffffffffffffff03821115614336576143356142bc565b5b828201905092915050565b600061434c82613962565b915061435783613962565b9250817fffffffffffffffffffffffffffffffffffffffffffffffffffffffffffffffff04831182151516156143905761438f6142bc565b5b828202905092915050565b60006143a682613962565b9150600082036143b9576143b86142bc565b5b600182039050919050565b60006040820190506143d960008301856139f7565b6143e660208301846139f7565b9392505050565b6000815190506143fc81613b77565b92915050565b600060208284031215614418576144176137e2565b5b6000614426848285016143ed565b91505092915050565b60008151905061443e8161396c565b92915050565b60006020828403121561445a576144596137e2565b5b60006144688482850161442f565b91505092915050565b600060408201905061448660008301856139f7565b6144936020830184613a8d565b9392505050565b7f596f7520646f206e6f74206f776e207468697320426f78000000000000000000600082015250565b60006144d06017836138b2565b91506144db8261449a565b602082019050919050565b600060208201905081810360008301526144ff816144c3565b9050919050565b7f6f70656e65722063616e6e6f7420626520736d61727420636f6e747261637400600082015250565b600061453c601f836138b2565b915061454782614506565b602082019050919050565b6000602082019050818103600083015261456b8161452f565b9050919050565b7f4552433732314d657461646174613a2055524920717565727920666f72206e6f60008201527f6e6578697374656e7420746f6b656e0000000000000000000000000000000000602082015250565b60006145ce602f836138b2565b91506145d982614572565b604082019050919050565b600060208201905081810360008301526145fd816145c1565b9050919050565b600081905092915050565b7f697066733a2f2f00000000000000000000000000000000000000000000000000600082015250565b6000614645600783614604565b91506146508261460f565b600782019050919050565b60008190508160005260206000209050919050565b6000815461467d81614118565b6146878186614604565b945060018216600081146146a257600181146146b3576146e6565b60ff198316865281860193506146e6565b6146bc8561465b565b60005b838110156146de578154818901526001820191506020810190506146bf565b838801955050505b50505092915050565b7f2f00000000000000000000000000000000000000000000000000000000000000600082015250565b6000614725600183614604565b9150614730826146ef565b600182019050919050565b6000614746826138a7565b6147508185614604565b93506147608185602086016138c3565b80840191505092915050565b600061477782614638565b91506147838286614670565b915061478e82614718565b915061479a828561473b565b91506147a68284614670565b9150819050949350505050565b7f4f776e61626c653a206e6577206f776e657220697320746865207a65726f206160008201527f6464726573730000000000000000000000000000000000000000000000000000602082015250565b600061480f6026836138b2565b915061481a826147b3565b604082019050919050565b6000602082019050818103600083015261483e81614802565b9050919050565b600060608201905061485a60008301866139f7565b61486760208301856139f7565b6148746040830184613a8d565b949350505050565b7f4f776e61626c653a2063616c6c6572206973206e6f7420746865206f776e6572600082015250565b60006148b26020836138b2565b91506148bd8261487c565b602082019050919050565b600060208201905081810360008301526148e1816148a5565b9050919050565b7f4e487b7100000000000000000000000000000000000000000000000000000000600052601260045260246000fd5b7f5361666545524332303a204552433230206f7065726174696f6e20646964206e60008201527f6f74207375636365656400000000000000000000000000000000000000000000602082015250565b6000614973602a836138b2565b915061497e82614917565b604082019050919050565b600060208201905081810360008301526149a281614966565b9050919050565b600081519050919050565b600082825260208201905092915050565b60006149d0826149a9565b6149da81856149b4565b93506149ea8185602086016138c3565b6149f3816138f6565b840191505092915050565b6000608082019050614a1360008301876139f7565b614a2060208301866139f7565b614a2d6040830185613a8d565b8181036060830152614a3f81846149c5565b905095945050505050565b600081519050614a5981613818565b92915050565b600060208284031215614a7557614a746137e2565b5b6000614a8384828501614a4a565b91505092915050565b7f416464726573733a20696e73756666696369656e742062616c616e636520666f60008201527f722063616c6c0000000000000000000000000000000000000000000000000000602082015250565b6000614ae86026836138b2565b9150614af382614a8c565b604082019050919050565b60006020820190508181036000830152614b1781614adb565b9050919050565b600081905092915050565b6000614b34826149a9565b614b3e8185614b1e565b9350614b4e8185602086016138c3565b80840191505092915050565b6000614b668284614b29565b915081905092915050565b7f416464726573733a2063616c6c20746f206e6f6e2d636f6e7472616374000000600082015250565b6000614ba7601d836138b2565b9150614bb282614b71565b602082019050919050565b60006020820190508181036000830152614bd681614b9a565b905091905056fe697066733a2f2f516d5a37727a6e3876716e61374435344e35556e61636f61725048423663595a735266775666796d634c384532332fa2646970667358221220064707b8f0f3dc3c5161f6262d8290acab9ff6793368cdb481bf2ac7764ef61564736f6c634300080d0033",
  "linkReferences": {},
  "deployedLinkReferences": {}
}