{
  "_format": "hh-sol-artifact-1",
  "contractName": "NftBox",
  "sourceName": "src/backend/contracts/NftBox.sol",
  "abi": [
    {
      "inputs": [
        {
          "internalType": "address",
          "name": "_usdcAddress",
          "type": "address"
        },
        {
          "internalType": "address",
          "name": "_sneakerAddress",
          "type": "address"
        },
        {
          "internalType": "address",
          "name": "_eggAddress",
          "type": "address"
        }
      ],
      "stateMutability": "nonpayable",
      "type": "constructor"
    },
    {
      "inputs": [],
      "name": "ApprovalCallerNotOwnerNorApproved",
      "type": "error"
    },
    {
      "inputs": [],
      "name": "ApprovalQueryForNonexistentToken",
      "type": "error"
    },
    {
      "inputs": [],
      "name": "ApproveToCaller",
      "type": "error"
    },
    {
      "inputs": [],
      "name": "BalanceQueryForZeroAddress",
      "type": "error"
    },
    {
      "inputs": [],
      "name": "MintERC2309QuantityExceedsLimit",
      "type": "error"
    },
    {
      "inputs": [],
      "name": "MintToZeroAddress",
      "type": "error"
    },
    {
      "inputs": [],
      "name": "MintZeroQuantity",
      "type": "error"
    },
    {
      "inputs": [
        {
          "internalType": "address",
          "name": "operator",
          "type": "address"
        }
      ],
      "name": "OperatorNotAllowed",
      "type": "error"
    },
    {
      "inputs": [],
      "name": "OwnerQueryForNonexistentToken",
      "type": "error"
    },
    {
      "inputs": [],
      "name": "OwnershipNotInitializedForExtraData",
      "type": "error"
    },
    {
      "inputs": [],
      "name": "TransferCallerNotOwnerNorApproved",
      "type": "error"
    },
    {
      "inputs": [],
      "name": "TransferFromIncorrectOwner",
      "type": "error"
    },
    {
      "inputs": [],
      "name": "TransferToNonERC721ReceiverImplementer",
      "type": "error"
    },
    {
      "inputs": [],
      "name": "TransferToZeroAddress",
      "type": "error"
    },
    {
      "inputs": [],
      "name": "URIQueryForNonexistentToken",
      "type": "error"
    },
    {
      "anonymous": false,
      "inputs": [
        {
          "indexed": true,
          "internalType": "address",
          "name": "owner",
          "type": "address"
        },
        {
          "indexed": true,
          "internalType": "address",
          "name": "approved",
          "type": "address"
        },
        {
          "indexed": true,
          "internalType": "uint256",
          "name": "tokenId",
          "type": "uint256"
        }
      ],
      "name": "Approval",
      "type": "event"
    },
    {
      "anonymous": false,
      "inputs": [
        {
          "indexed": true,
          "internalType": "address",
          "name": "owner",
          "type": "address"
        },
        {
          "indexed": true,
          "internalType": "address",
          "name": "operator",
          "type": "address"
        },
        {
          "indexed": false,
          "internalType": "bool",
          "name": "approved",
          "type": "bool"
        }
      ],
      "name": "ApprovalForAll",
      "type": "event"
    },
    {
      "anonymous": false,
      "inputs": [
        {
          "indexed": true,
          "internalType": "uint256",
          "name": "fromTokenId",
          "type": "uint256"
        },
        {
          "indexed": false,
          "internalType": "uint256",
          "name": "toTokenId",
          "type": "uint256"
        },
        {
          "indexed": true,
          "internalType": "address",
          "name": "from",
          "type": "address"
        },
        {
          "indexed": true,
          "internalType": "address",
          "name": "to",
          "type": "address"
        }
      ],
      "name": "ConsecutiveTransfer",
      "type": "event"
    },
    {
      "anonymous": false,
      "inputs": [
        {
          "indexed": false,
          "internalType": "address",
          "name": "user",
          "type": "address"
        }
      ],
      "name": "MintSuccessful",
      "type": "event"
    },
    {
      "anonymous": false,
      "inputs": [
        {
          "indexed": true,
          "internalType": "address",
          "name": "previousOwner",
          "type": "address"
        },
        {
          "indexed": true,
          "internalType": "address",
          "name": "newOwner",
          "type": "address"
        }
      ],
      "name": "OwnershipTransferred",
      "type": "event"
    },
    {
      "anonymous": false,
      "inputs": [
        {
          "indexed": true,
          "internalType": "address",
          "name": "from",
          "type": "address"
        },
        {
          "indexed": true,
          "internalType": "address",
          "name": "to",
          "type": "address"
        },
        {
          "indexed": true,
          "internalType": "uint256",
          "name": "tokenId",
          "type": "uint256"
        }
      ],
      "name": "Transfer",
      "type": "event"
    },
    {
      "inputs": [],
      "name": "USDCAddress",
      "outputs": [
        {
          "internalType": "address",
          "name": "",
          "type": "address"
        }
      ],
      "stateMutability": "view",
      "type": "function"
    },
    {
      "inputs": [
        {
          "internalType": "string",
          "name": "_name",
          "type": "string"
        },
        {
          "internalType": "uint256",
          "name": "_price",
          "type": "uint256"
        },
        {
          "internalType": "uint256",
          "name": "_maxSupply",
          "type": "uint256"
        },
        {
          "internalType": "bool",
          "name": "_rareOnly",
          "type": "bool"
        }
      ],
      "name": "addMysteryBox",
      "outputs": [],
      "stateMutability": "nonpayable",
      "type": "function"
    },
    {
      "inputs": [
        {
          "internalType": "uint256",
          "name": "_boxId",
          "type": "uint256"
        },
        {
          "internalType": "uint256",
          "name": "_supply",
          "type": "uint256"
        }
      ],
      "name": "addSupply",
      "outputs": [],
      "stateMutability": "nonpayable",
      "type": "function"
    },
    {
      "inputs": [
        {
          "internalType": "address",
          "name": "_user",
          "type": "address"
        },
        {
          "internalType": "uint256",
          "name": "_quantity",
          "type": "uint256"
        }
      ],
      "name": "airdrop",
      "outputs": [],
      "stateMutability": "nonpayable",
      "type": "function"
    },
    {
      "inputs": [
        {
          "internalType": "address",
          "name": "to",
          "type": "address"
        },
        {
          "internalType": "uint256",
          "name": "tokenId",
          "type": "uint256"
        }
      ],
      "name": "approve",
      "outputs": [],
      "stateMutability": "nonpayable",
      "type": "function"
    },
    {
      "inputs": [
        {
          "internalType": "address",
          "name": "owner",
          "type": "address"
        }
      ],
      "name": "balanceOf",
      "outputs": [
        {
          "internalType": "uint256",
          "name": "",
          "type": "uint256"
        }
      ],
      "stateMutability": "view",
      "type": "function"
    },
    {
      "inputs": [],
      "name": "baseTokenURI",
      "outputs": [
        {
          "internalType": "string",
          "name": "",
          "type": "string"
        }
      ],
      "stateMutability": "view",
      "type": "function"
    },
    {
      "inputs": [
        {
          "internalType": "uint256",
          "name": "",
          "type": "uint256"
        }
      ],
      "name": "boxes",
      "outputs": [
        {
          "internalType": "string",
          "name": "name",
          "type": "string"
        },
        {
          "internalType": "uint256",
          "name": "price",
          "type": "uint256"
        },
        {
          "internalType": "uint256",
          "name": "burnAmount",
          "type": "uint256"
        },
        {
          "internalType": "uint256",
          "name": "maxSupply",
          "type": "uint256"
        },
        {
          "internalType": "uint256",
          "name": "remainingSupply",
          "type": "uint256"
        },
        {
          "internalType": "bool",
          "name": "mintEnabled",
          "type": "bool"
        },
        {
          "internalType": "bool",
          "name": "rareOnly",
          "type": "bool"
        }
      ],
      "stateMutability": "view",
      "type": "function"
    },
    {
      "inputs": [],
      "name": "contractURI",
      "outputs": [
        {
          "internalType": "string",
          "name": "",
          "type": "string"
        }
      ],
      "stateMutability": "view",
      "type": "function"
    },
    {
      "inputs": [],
      "name": "contractUri",
      "outputs": [
        {
          "internalType": "string",
          "name": "",
          "type": "string"
        }
      ],
      "stateMutability": "view",
      "type": "function"
    },
    {
      "inputs": [],
      "name": "eggAddress",
      "outputs": [
        {
          "internalType": "address",
          "name": "",
          "type": "address"
        }
      ],
      "stateMutability": "view",
      "type": "function"
    },
    {
      "inputs": [
        {
          "internalType": "uint256",
          "name": "tokenId",
          "type": "uint256"
        }
      ],
      "name": "getApproved",
      "outputs": [
        {
          "internalType": "address",
          "name": "",
          "type": "address"
        }
      ],
      "stateMutability": "view",
      "type": "function"
    },
    {
      "inputs": [
        {
          "internalType": "uint256",
          "name": "_boxId",
          "type": "uint256"
        }
      ],
      "name": "getMysteryBoxName",
      "outputs": [
        {
          "internalType": "string",
          "name": "",
          "type": "string"
        }
      ],
      "stateMutability": "view",
      "type": "function"
    },
    {
      "inputs": [
        {
          "internalType": "uint256",
          "name": "_boxId",
          "type": "uint256"
        }
      ],
      "name": "getMysteryBoxPrice",
      "outputs": [
        {
          "internalType": "uint256",
          "name": "",
          "type": "uint256"
        }
      ],
      "stateMutability": "view",
      "type": "function"
    },
    {
      "inputs": [
        {
          "internalType": "uint256",
          "name": "_boxId",
          "type": "uint256"
        }
      ],
      "name": "getPrice",
      "outputs": [
        {
          "internalType": "uint256",
          "name": "",
          "type": "uint256"
        }
      ],
      "stateMutability": "view",
      "type": "function"
    },
    {
      "inputs": [
        {
          "internalType": "address",
          "name": "owner",
          "type": "address"
        },
        {
          "internalType": "address",
          "name": "operator",
          "type": "address"
        }
      ],
      "name": "isApprovedForAll",
      "outputs": [
        {
          "internalType": "bool",
          "name": "",
          "type": "bool"
        }
      ],
      "stateMutability": "view",
      "type": "function"
    },
    {
      "inputs": [
        {
          "internalType": "address",
          "name": "_user",
          "type": "address"
        }
      ],
      "name": "isWhitelisted",
      "outputs": [
        {
          "internalType": "bool",
          "name": "",
          "type": "bool"
        }
      ],
      "stateMutability": "view",
      "type": "function"
    },
    {
      "inputs": [
        {
          "internalType": "uint256",
          "name": "_boxId",
          "type": "uint256"
        },
        {
          "internalType": "uint256",
          "name": "_quantity",
          "type": "uint256"
        }
      ],
      "name": "mint",
      "outputs": [],
      "stateMutability": "nonpayable",
      "type": "function"
    },
    {
      "inputs": [],
      "name": "name",
      "outputs": [
        {
          "internalType": "string",
          "name": "",
          "type": "string"
        }
      ],
      "stateMutability": "view",
      "type": "function"
    },
    {
      "inputs": [
        {
          "internalType": "uint256",
          "name": "_tokenId",
          "type": "uint256"
        }
      ],
      "name": "openBox",
      "outputs": [],
      "stateMutability": "nonpayable",
      "type": "function"
    },
    {
      "inputs": [],
      "name": "owner",
      "outputs": [
        {
          "internalType": "address",
          "name": "",
          "type": "address"
        }
      ],
      "stateMutability": "view",
      "type": "function"
    },
    {
      "inputs": [
        {
          "internalType": "uint256",
          "name": "tokenId",
          "type": "uint256"
        }
      ],
      "name": "ownerOf",
      "outputs": [
        {
          "internalType": "address",
          "name": "",
          "type": "address"
        }
      ],
      "stateMutability": "view",
      "type": "function"
    },
    {
      "inputs": [],
      "name": "publicMintEnabled",
      "outputs": [
        {
          "internalType": "bool",
          "name": "",
          "type": "bool"
        }
      ],
      "stateMutability": "view",
      "type": "function"
    },
    {
      "inputs": [
        {
          "internalType": "uint256",
          "name": "_boxId",
          "type": "uint256"
        }
      ],
      "name": "removeMysteryBox",
      "outputs": [],
      "stateMutability": "nonpayable",
      "type": "function"
    },
    {
      "inputs": [],
      "name": "renounceOwnership",
      "outputs": [],
      "stateMutability": "nonpayable",
      "type": "function"
    },
    {
      "inputs": [
        {
          "internalType": "address",
          "name": "from",
          "type": "address"
        },
        {
          "internalType": "address",
          "name": "to",
          "type": "address"
        },
        {
          "internalType": "uint256",
          "name": "tokenId",
          "type": "uint256"
        }
      ],
      "name": "safeTransferFrom",
      "outputs": [],
      "stateMutability": "nonpayable",
      "type": "function"
    },
    {
      "inputs": [
        {
          "internalType": "address",
          "name": "from",
          "type": "address"
        },
        {
          "internalType": "address",
          "name": "to",
          "type": "address"
        },
        {
          "internalType": "uint256",
          "name": "tokenId",
          "type": "uint256"
        },
        {
          "internalType": "bytes",
          "name": "data",
          "type": "bytes"
        }
      ],
      "name": "safeTransferFrom",
      "outputs": [],
      "stateMutability": "nonpayable",
      "type": "function"
    },
    {
      "inputs": [
        {
          "internalType": "address",
          "name": "operator",
          "type": "address"
        },
        {
          "internalType": "bool",
          "name": "approved",
          "type": "bool"
        }
      ],
      "name": "setApprovalForAll",
      "outputs": [],
      "stateMutability": "nonpayable",
      "type": "function"
    },
    {
      "inputs": [
        {
          "internalType": "string",
          "name": "_uri",
          "type": "string"
        }
      ],
      "name": "setContractMetadata",
      "outputs": [],
      "stateMutability": "nonpayable",
      "type": "function"
    },
    {
      "inputs": [
        {
          "internalType": "string",
          "name": "_uri",
          "type": "string"
        }
      ],
      "name": "setMetadata",
      "outputs": [],
      "stateMutability": "nonpayable",
      "type": "function"
    },
    {
      "inputs": [
        {
          "internalType": "uint256",
          "name": "_boxId",
          "type": "uint256"
        },
        {
          "internalType": "bool",
          "name": "_state",
          "type": "bool"
        }
      ],
      "name": "setMintEnabled",
      "outputs": [],
      "stateMutability": "nonpayable",
      "type": "function"
    },
    {
      "inputs": [
        {
          "internalType": "uint256",
          "name": "_boxId",
          "type": "uint256"
        },
        {
          "internalType": "uint256",
          "name": "_price",
          "type": "uint256"
        }
      ],
      "name": "setPrice",
      "outputs": [],
      "stateMutability": "nonpayable",
      "type": "function"
    },
    {
      "inputs": [
        {
          "internalType": "bool",
          "name": "_enabled",
          "type": "bool"
        }
      ],
      "name": "setPublicMintEnabled",
      "outputs": [],
      "stateMutability": "nonpayable",
      "type": "function"
    },
    {
      "inputs": [
        {
          "internalType": "address",
          "name": "_address",
          "type": "address"
        }
      ],
      "name": "setUSDCAddress",
      "outputs": [],
      "stateMutability": "nonpayable",
      "type": "function"
    },
    {
      "inputs": [
        {
          "internalType": "address[]",
          "name": "_whitelist",
          "type": "address[]"
        }
      ],
      "name": "setWhitelist",
      "outputs": [],
      "stateMutability": "nonpayable",
      "type": "function"
    },
    {
      "inputs": [
        {
          "internalType": "uint256",
          "name": "_discount",
          "type": "uint256"
        }
      ],
      "name": "setWhitelistDiscount",
      "outputs": [],
      "stateMutability": "nonpayable",
      "type": "function"
    },
    {
      "inputs": [
        {
          "internalType": "bool",
          "name": "_enabled",
          "type": "bool"
        }
      ],
      "name": "setWhitelistMintEnabled",
      "outputs": [],
      "stateMutability": "nonpayable",
      "type": "function"
    },
    {
      "inputs": [],
      "name": "sneakerAddress",
      "outputs": [
        {
          "internalType": "address",
          "name": "",
          "type": "address"
        }
      ],
      "stateMutability": "view",
      "type": "function"
    },
    {
      "inputs": [
        {
          "internalType": "bytes4",
          "name": "interfaceId",
          "type": "bytes4"
        }
      ],
      "name": "supportsInterface",
      "outputs": [
        {
          "internalType": "bool",
          "name": "",
          "type": "bool"
        }
      ],
      "stateMutability": "view",
      "type": "function"
    },
    {
      "inputs": [],
      "name": "symbol",
      "outputs": [
        {
          "internalType": "string",
          "name": "",
          "type": "string"
        }
      ],
      "stateMutability": "view",
      "type": "function"
    },
    {
      "inputs": [
        {
          "internalType": "uint256",
          "name": "_tokenId",
          "type": "uint256"
        }
      ],
      "name": "tokenURI",
      "outputs": [
        {
          "internalType": "string",
          "name": "",
          "type": "string"
        }
      ],
      "stateMutability": "view",
      "type": "function"
    },
    {
      "inputs": [],
      "name": "totalSupply",
      "outputs": [
        {
          "internalType": "uint256",
          "name": "",
          "type": "uint256"
        }
      ],
      "stateMutability": "view",
      "type": "function"
    },
    {
      "inputs": [
        {
          "internalType": "address",
          "name": "from",
          "type": "address"
        },
        {
          "internalType": "address",
          "name": "to",
          "type": "address"
        },
        {
          "internalType": "uint256",
          "name": "tokenId",
          "type": "uint256"
        }
      ],
      "name": "transferFrom",
      "outputs": [],
      "stateMutability": "nonpayable",
      "type": "function"
    },
    {
      "inputs": [
        {
          "internalType": "address",
          "name": "newOwner",
          "type": "address"
        }
      ],
      "name": "transferOwnership",
      "outputs": [],
      "stateMutability": "nonpayable",
      "type": "function"
    },
    {
      "inputs": [],
      "name": "uri",
      "outputs": [
        {
          "internalType": "string",
          "name": "",
          "type": "string"
        }
      ],
      "stateMutability": "view",
      "type": "function"
    },
    {
      "inputs": [],
      "name": "uriPrefix",
      "outputs": [
        {
          "internalType": "string",
          "name": "",
          "type": "string"
        }
      ],
      "stateMutability": "view",
      "type": "function"
    },
    {
      "inputs": [],
      "name": "uriSuffix",
      "outputs": [
        {
          "internalType": "string",
          "name": "",
          "type": "string"
        }
      ],
      "stateMutability": "view",
      "type": "function"
    },
    {
      "inputs": [],
      "name": "whitelistDiscount",
      "outputs": [
        {
          "internalType": "uint256",
          "name": "",
          "type": "uint256"
        }
      ],
      "stateMutability": "view",
      "type": "function"
    },
    {
      "inputs": [],
      "name": "whitelistMintEnabled",
      "outputs": [
        {
          "internalType": "bool",
          "name": "",
          "type": "bool"
        }
      ],
      "stateMutability": "view",
      "type": "function"
    },
    {
      "inputs": [],
      "name": "withdraw",
      "outputs": [],
      "stateMutability": "nonpayable",
      "type": "function"
    }
  ],
  "bytecode": "0x608060405260405180602001604052806000815250600990805190602001906200002b92919062000643565b506040518060400160405280600581526020017f2e6a736f6e000000000000000000000000000000000000000000000000000000815250600a90805190602001906200007992919062000643565b5060405180606001604052806036815260200162005e5560369139600b9080519060200190620000ab92919062000643565b5060405180606001604052806036815260200162005e8b60369139600c9080519060200190620000dd92919062000643565b506001600f60146101000a81548160ff0219169083151502179055506001600f60156101000a81548160ff02191690831515021790555060146010553480156200012657600080fd5b5060405162005ec138038062005ec183398181016040528101906200014c91906200075d565b733cc6cdda760b79bafa08df41ecfa224f810dceb660016040518060400160405280600b81526020017f4d79737465727920426f780000000000000000000000000000000000000000008152506040518060400160405280600281526020017f4d42000000000000000000000000000000000000000000000000000000000000815250620001ef620001e36200056e60201b60201c565b6200057660201b60201c565b81600390805190602001906200020792919062000643565b5080600490805190602001906200022092919062000643565b50620002316200063a60201b60201c565b600181905550505060006daaeb6d7670e522a718067333cd4e73ffffffffffffffffffffffffffffffffffffffff163b11156200042e578015620002f4576daaeb6d7670e522a718067333cd4e73ffffffffffffffffffffffffffffffffffffffff16637d3e3dbe30846040518363ffffffff1660e01b8152600401620002ba929190620007ca565b600060405180830381600087803b158015620002d557600080fd5b505af1158015620002ea573d6000803e3d6000fd5b505050506200042d565b600073ffffffffffffffffffffffffffffffffffffffff168273ffffffffffffffffffffffffffffffffffffffff1614620003ae576daaeb6d7670e522a718067333cd4e73ffffffffffffffffffffffffffffffffffffffff1663a0af290330846040518363ffffffff1660e01b815260040162000374929190620007ca565b600060405180830381600087803b1580156200038f57600080fd5b505af1158015620003a4573d6000803e3d6000fd5b505050506200042c565b6daaeb6d7670e522a718067333cd4e73ffffffffffffffffffffffffffffffffffffffff16634420e486306040518263ffffffff1660e01b8152600401620003f79190620007f7565b600060405180830381600087803b1580156200041257600080fd5b505af115801562000427573d6000803e3d6000fd5b505050505b5b5b5050600073ffffffffffffffffffffffffffffffffffffffff168373ffffffffffffffffffffffffffffffffffffffff1603620004a2576040517f08c379a0000000000000000000000000000000000000000000000000000000008152600401620004999062000875565b60405180910390fd5b82600d60006101000a81548173ffffffffffffffffffffffffffffffffffffffff021916908373ffffffffffffffffffffffffffffffffffffffff16021790555081600e60006101000a81548173ffffffffffffffffffffffffffffffffffffffff021916908373ffffffffffffffffffffffffffffffffffffffff16021790555080600f60006101000a81548173ffffffffffffffffffffffffffffffffffffffff021916908373ffffffffffffffffffffffffffffffffffffffff160217905550505050620008fb565b600033905090565b60008060009054906101000a900473ffffffffffffffffffffffffffffffffffffffff169050816000806101000a81548173ffffffffffffffffffffffffffffffffffffffff021916908373ffffffffffffffffffffffffffffffffffffffff1602179055508173ffffffffffffffffffffffffffffffffffffffff168173ffffffffffffffffffffffffffffffffffffffff167f8be0079c531659141344cd1fd0a4f28419497f9722a3daafe3b4186f6b6457e060405160405180910390a35050565b60006001905090565b8280546200065190620008c6565b90600052602060002090601f016020900481019282620006755760008555620006c1565b82601f106200069057805160ff1916838001178555620006c1565b82800160010185558215620006c1579182015b82811115620006c0578251825591602001919060010190620006a3565b5b509050620006d09190620006d4565b5090565b5b80821115620006ef576000816000905550600101620006d5565b5090565b600080fd5b600073ffffffffffffffffffffffffffffffffffffffff82169050919050565b60006200072582620006f8565b9050919050565b620007378162000718565b81146200074357600080fd5b50565b60008151905062000757816200072c565b92915050565b600080600060608486031215620007795762000778620006f3565b5b6000620007898682870162000746565b93505060206200079c8682870162000746565b9250506040620007af8682870162000746565b9150509250925092565b620007c48162000718565b82525050565b6000604082019050620007e16000830185620007b9565b620007f06020830184620007b9565b9392505050565b60006020820190506200080e6000830184620007b9565b92915050565b600082825260208201905092915050565b7f496e76616c696420555344432061646472657373000000000000000000000000600082015250565b60006200085d60148362000814565b91506200086a8262000825565b602082019050919050565b6000602082019050818103600083015262000890816200084e565b9050919050565b7f4e487b7100000000000000000000000000000000000000000000000000000000600052602260045260246000fd5b60006002820490506001821680620008df57607f821691505b602082108103620008f557620008f462000897565b5b50919050565b61554a806200090b6000396000f3fe608060405234801561001057600080fd5b50600436106102d65760003560e01c8063765f1b0c11610182578063c37845b2116100e9578063e985e9c5116100a2578063f42176481161007c578063f4217648146108bf578063f7d97577146108db578063fb6f7a9a146108f7578063fce5503714610915576102d6565b8063e985e9c514610855578063eac989f814610885578063f2fde38b146108a3576102d6565b8063c37845b21461077f578063c87b56dd1461079b578063d547cfb7146107cb578063e7572230146107e9578063e8a3d48514610819578063e930320914610837576102d6565b8063a49a1e7d1161013b578063a49a1e7d146106d5578063aaf5bfc3146106f1578063b1e5e2b71461070d578063b767a09814610729578063b88d4fde14610745578063c0e24d5e14610761576102d6565b8063765f1b0c14610615578063818668d7146106455780638ba4cc3c146106615780638da5cb5b1461067d57806395d89b411461069b578063a22cb465146106b9576102d6565b806342842e0e116102415780636352211e116101fa5780636ed5cf25116101d45780636ed5cf251461058f57806370a08231146105ab578063715018a6146105db57806372fc44cc146105e5576102d6565b80636352211e146105235780636b192629146105535780636caede3d14610571576102d6565b806342842e0e1461045d57806349a9493c146104795780634ed3faf2146104955780635503a0e8146104cb5780635631ce36146104e957806362b99ad414610505576102d6565b80631b2ef1ca116102935780631b2ef1ca146103b157806323b872dd146103cd5780632c7d86ba146103e95780633222e738146104075780633af32abf146104235780633ccfd60b14610453576102d6565b806301ffc9a7146102db57806306fdde031461030b578063081812fc14610329578063095ea7b3146103595780630f4161aa1461037557806318160ddd14610393575b600080fd5b6102f560048036038101906102f091906140ad565b610931565b60405161030291906140f5565b60405180910390f35b6103136109c3565b60405161032091906141a9565b60405180910390f35b610343600480360381019061033e9190614201565b610a55565b604051610350919061426f565b60405180910390f35b610373600480360381019061036e91906142b6565b610ad4565b005b61037d610c18565b60405161038a91906140f5565b60405180910390f35b61039b610c2b565b6040516103a89190614305565b60405180910390f35b6103cb60048036038101906103c69190614320565b610c42565b005b6103e760048036038101906103e29190614360565b610f4a565b005b6103f161112c565b6040516103fe919061426f565b60405180910390f35b610421600480360381019061041c9190614201565b611152565b005b61043d600480360381019061043891906143b3565b611164565b60405161044a91906140f5565b60405180910390f35b61045b61120a565b005b61047760048036038101906104729190614360565b611481565b005b610493600480360381019061048e919061440c565b611663565b005b6104af60048036038101906104aa9190614201565b6116f3565b6040516104c2979695949392919061444c565b60405180910390f35b6104d36117e7565b6040516104e091906141a9565b60405180910390f35b61050360048036038101906104fe9190614201565b611875565b005b61050d611a44565b60405161051a91906141a9565b60405180910390f35b61053d60048036038101906105389190614201565b611ad2565b60405161054a919061426f565b60405180910390f35b61055b611ae4565b6040516105689190614305565b60405180910390f35b610579611aea565b60405161058691906140f5565b60405180910390f35b6105a960048036038101906105a491906145f7565b611afd565b005b6105c560048036038101906105c091906143b3565b611bf6565b6040516105d29190614305565b60405180910390f35b6105e3611cae565b005b6105ff60048036038101906105fa9190614201565b611cc2565b60405161060c91906141a9565b60405180910390f35b61062f600480360381019061062a9190614201565b611dc0565b60405161063c9190614305565b60405180910390f35b61065f600480360381019061065a919061467a565b611e36565b005b61067b600480360381019061067691906142b6565b611e5b565b005b610685611e71565b604051610692919061426f565b60405180910390f35b6106a3611e9a565b6040516106b091906141a9565b60405180910390f35b6106d360048036038101906106ce91906146a7565b611f2c565b005b6106ef60048036038101906106ea91906146e7565b6120a3565b005b61070b600480360381019061070691906143b3565b6120c5565b005b61072760048036038101906107229190614201565b612111565b005b610743600480360381019061073e919061467a565b6123a3565b005b61075f600480360381019061075a91906147d1565b6123c8565b005b6107696125ad565b60405161077691906141a9565b60405180910390f35b61079960048036038101906107949190614320565b61263b565b005b6107b560048036038101906107b09190614201565b612706565b6040516107c291906141a9565b60405180910390f35b6107d3612829565b6040516107e091906141a9565b60405180910390f35b61080360048036038101906107fe9190614201565b612838565b6040516108109190614305565b60405180910390f35b610821612867565b60405161082e91906141a9565b60405180910390f35b61083f6128f9565b60405161084c919061426f565b60405180910390f35b61086f600480360381019061086a9190614854565b61291f565b60405161087c91906140f5565b60405180910390f35b61088d6129b3565b60405161089a91906141a9565b60405180910390f35b6108bd60048036038101906108b891906143b3565b612a41565b005b6108d960048036038101906108d4919061495c565b612ac4565b005b6108f560048036038101906108f09190614320565b612af4565b005b6108ff612b71565b60405161090c919061426f565b60405180910390f35b61092f600480360381019061092a91906146e7565b612b97565b005b60006301ffc9a760e01b827bffffffffffffffffffffffffffffffffffffffffffffffffffffffff1916148061098c57506380ac58cd60e01b827bffffffffffffffffffffffffffffffffffffffffffffffffffffffff1916145b806109bc5750635b5e139f60e01b827bffffffffffffffffffffffffffffffffffffffffffffffffffffffff1916145b9050919050565b6060600380546109d2906149d4565b80601f01602080910402602001604051908101604052809291908181526020018280546109fe906149d4565b8015610a4b5780601f10610a2057610100808354040283529160200191610a4b565b820191906000526020600020905b815481529060010190602001808311610a2e57829003601f168201915b5050505050905090565b6000610a6082612bb9565b610a96576040517fcf4700e400000000000000000000000000000000000000000000000000000000815260040160405180910390fd5b6007600083815260200190815260200160002060000160009054906101000a900473ffffffffffffffffffffffffffffffffffffffff169050919050565b6000610adf82611ad2565b90508073ffffffffffffffffffffffffffffffffffffffff16610b00612c18565b73ffffffffffffffffffffffffffffffffffffffff1614610b6357610b2c81610b27612c18565b61291f565b610b62576040517fcfb3b94200000000000000000000000000000000000000000000000000000000815260040160405180910390fd5b5b826007600084815260200190815260200160002060000160006101000a81548173ffffffffffffffffffffffffffffffffffffffff021916908373ffffffffffffffffffffffffffffffffffffffff160217905550818373ffffffffffffffffffffffffffffffffffffffff168273ffffffffffffffffffffffffffffffffffffffff167f8c5be1e5ebec7d5bd14f71427d1e84f3dd0314c0f7b2291e5b200ac8c7c3b92560405160405180910390a4505050565b600f60149054906101000a900460ff1681565b6000610c35612c20565b6002546001540303905090565b6012805490508210610c89576040517f08c379a0000000000000000000000000000000000000000000000000000000008152600401610c8090614a51565b60405180910390fd5b60128281548110610c9d57610c9c614a71565b5b906000526020600020906006020160050160009054906101000a900460ff16610cfb576040517f08c379a0000000000000000000000000000000000000000000000000000000008152600401610cf290614aec565b60405180910390fd5b8060128381548110610d1057610d0f614a71565b5b9060005260206000209060060201600401541015610d63576040517f08c379a0000000000000000000000000000000000000000000000000000000008152600401610d5a90614b58565b60405180910390fd5b6000610d6e33611164565b9050600f60149054906101000a900460ff1680610da05750808015610d9f5750600f60159054906101000a900460ff165b5b610ddf576040517f08c379a0000000000000000000000000000000000000000000000000000000008152600401610dd690614bc4565b60405180910390fd5b60005b82811015610e3157836013600083610df8612c29565b610e00612c20565b610e0a9190614c13565b610e149190614c13565b815260200190815260200160002081905550806001019050610de2565b50600082610e3e85612838565b610e489190614c69565b90508115610e795760646010546064610e619190614cc3565b82610e6c9190614c69565b610e769190614d26565b90505b610ec8333083600d60009054906101000a900473ffffffffffffffffffffffffffffffffffffffff1673ffffffffffffffffffffffffffffffffffffffff16612c3c909392919063ffffffff16565b610ed23384612cc5565b60128481548110610ee657610ee5614a71565b5b90600052602060002090600602016004016000815480929190610f0890614d57565b91905055507ff5535ccd9f40eb4bc73fac8710dbb2effbf3329da83f62b35d9aa88161bb85ca33604051610f3c919061426f565b60405180910390a150505050565b8260006daaeb6d7670e522a718067333cd4e73ffffffffffffffffffffffffffffffffffffffff163b111561111a573373ffffffffffffffffffffffffffffffffffffffff168173ffffffffffffffffffffffffffffffffffffffff1603610fbc57610fb7848484612e81565b611126565b6daaeb6d7670e522a718067333cd4e73ffffffffffffffffffffffffffffffffffffffff1663c617113430336040518363ffffffff1660e01b8152600401611005929190614d80565b602060405180830381865afa158015611022573d6000803e3d6000fd5b505050506040513d601f19601f820116820180604052508101906110469190614dbe565b80156110d857506daaeb6d7670e522a718067333cd4e73ffffffffffffffffffffffffffffffffffffffff1663c617113430836040518363ffffffff1660e01b8152600401611096929190614d80565b602060405180830381865afa1580156110b3573d6000803e3d6000fd5b505050506040513d601f19601f820116820180604052508101906110d79190614dbe565b5b61111957336040517fede71dcc000000000000000000000000000000000000000000000000000000008152600401611110919061426f565b60405180910390fd5b5b611125848484612e81565b5b50505050565b600e60009054906101000a900473ffffffffffffffffffffffffffffffffffffffff1681565b61115a6131a3565b8060108190555050565b600080600090505b6011805490508110156111ff578273ffffffffffffffffffffffffffffffffffffffff16601182815481106111a4576111a3614a71565b5b9060005260206000200160009054906101000a900473ffffffffffffffffffffffffffffffffffffffff1673ffffffffffffffffffffffffffffffffffffffff16036111f4576001915050611205565b80600101905061116c565b50600090505b919050565b6112126131a3565b3373ffffffffffffffffffffffffffffffffffffffff166108fc479081150290604051600060405180830381858888f19350505050158015611258573d6000803e3d6000fd5b50600d60009054906101000a900473ffffffffffffffffffffffffffffffffffffffff1673ffffffffffffffffffffffffffffffffffffffff1663095ea7b330600d60009054906101000a900473ffffffffffffffffffffffffffffffffffffffff1673ffffffffffffffffffffffffffffffffffffffff166370a08231306040518263ffffffff1660e01b81526004016112f3919061426f565b602060405180830381865afa158015611310573d6000803e3d6000fd5b505050506040513d601f19601f820116820180604052508101906113349190614e00565b6040518363ffffffff1660e01b8152600401611351929190614e2d565b6020604051808303816000875af1158015611370573d6000803e3d6000fd5b505050506040513d601f19601f820116820180604052508101906113949190614dbe565b5061147f3033600d60009054906101000a900473ffffffffffffffffffffffffffffffffffffffff1673ffffffffffffffffffffffffffffffffffffffff166370a08231306040518263ffffffff1660e01b81526004016113f5919061426f565b602060405180830381865afa158015611412573d6000803e3d6000fd5b505050506040513d601f19601f820116820180604052508101906114369190614e00565b600d60009054906101000a900473ffffffffffffffffffffffffffffffffffffffff1673ffffffffffffffffffffffffffffffffffffffff16612c3c909392919063ffffffff16565b565b8260006daaeb6d7670e522a718067333cd4e73ffffffffffffffffffffffffffffffffffffffff163b1115611651573373ffffffffffffffffffffffffffffffffffffffff168173ffffffffffffffffffffffffffffffffffffffff16036114f3576114ee848484613221565b61165d565b6daaeb6d7670e522a718067333cd4e73ffffffffffffffffffffffffffffffffffffffff1663c617113430336040518363ffffffff1660e01b815260040161153c929190614d80565b602060405180830381865afa158015611559573d6000803e3d6000fd5b505050506040513d601f19601f8201168201806040525081019061157d9190614dbe565b801561160f57506daaeb6d7670e522a718067333cd4e73ffffffffffffffffffffffffffffffffffffffff1663c617113430836040518363ffffffff1660e01b81526004016115cd929190614d80565b602060405180830381865afa1580156115ea573d6000803e3d6000fd5b505050506040513d601f19601f8201168201806040525081019061160e9190614dbe565b5b61165057336040517fede71dcc000000000000000000000000000000000000000000000000000000008152600401611647919061426f565b60405180910390fd5b5b61165c848484613221565b5b50505050565b61166b6131a3565b60128054905082106116b2576040517f08c379a00000000000000000000000000000000000000000000000000000000081526004016116a990614a51565b60405180910390fd5b80601283815481106116c7576116c6614a71565b5b906000526020600020906006020160050160006101000a81548160ff0219169083151502179055505050565b6012818154811061170357600080fd5b9060005260206000209060060201600091509050806000018054611726906149d4565b80601f0160208091040260200160405190810160405280929190818152602001828054611752906149d4565b801561179f5780601f106117745761010080835404028352916020019161179f565b820191906000526020600020905b81548152906001019060200180831161178257829003601f168201915b5050505050908060010154908060020154908060030154908060040154908060050160009054906101000a900460ff16908060050160019054906101000a900460ff16905087565b600a80546117f4906149d4565b80601f0160208091040260200160405190810160405280929190818152602001828054611820906149d4565b801561186d5780601f106118425761010080835404028352916020019161186d565b820191906000526020600020905b81548152906001019060200180831161185057829003601f168201915b505050505081565b61187d6131a3565b60128054905081106118c4576040517f08c379a00000000000000000000000000000000000000000000000000000000081526004016118bb90614a51565b60405180910390fd5b601260016012805490506118d89190614cc3565b815481106118e9576118e8614a71565b5b90600052602060002090600602016012828154811061190b5761190a614a71565b5b9060005260206000209060060201600082018160000190805461192d906149d4565b611938929190613e26565b50600182015481600101556002820154816002015560038201548160030155600482015481600401556005820160009054906101000a900460ff168160050160006101000a81548160ff0219169083151502179055506005820160019054906101000a900460ff168160050160016101000a81548160ff02191690831515021790555090505060128054806119d0576119cf614e56565b5b6001900381819060005260206000209060060201600080820160006119f59190613eb3565b60018201600090556002820160009055600382016000905560048201600090556005820160006101000a81549060ff02191690556005820160016101000a81549060ff02191690555050905550565b60098054611a51906149d4565b80601f0160208091040260200160405190810160405280929190818152602001828054611a7d906149d4565b8015611aca5780601f10611a9f57610100808354040283529160200191611aca565b820191906000526020600020905b815481529060010190602001808311611aad57829003601f168201915b505050505081565b6000611add82613241565b9050919050565b60105481565b600f60159054906101000a900460ff1681565b611b056131a3565b60126040518060e001604052808681526020018581526020016000815260200184815260200184815260200160011515815260200183151581525090806001815401808255809150506001900390600052602060002090600602016000909190919091506000820151816000019080519060200190611b85929190613ef3565b506020820151816001015560408201518160020155606082015181600301556080820151816004015560a08201518160050160006101000a81548160ff02191690831515021790555060c08201518160050160016101000a81548160ff021916908315150217905550505050505050565b60008073ffffffffffffffffffffffffffffffffffffffff168273ffffffffffffffffffffffffffffffffffffffff1603611c5d576040517f8f4eb60400000000000000000000000000000000000000000000000000000000815260040160405180910390fd5b67ffffffffffffffff600660008473ffffffffffffffffffffffffffffffffffffffff1673ffffffffffffffffffffffffffffffffffffffff16815260200190815260200160002054169050919050565b611cb66131a3565b611cc0600061330d565b565b60606012805490508210611d0b576040517f08c379a0000000000000000000000000000000000000000000000000000000008152600401611d0290614a51565b60405180910390fd5b60128281548110611d1f57611d1e614a71565b5b90600052602060002090600602016000018054611d3b906149d4565b80601f0160208091040260200160405190810160405280929190818152602001828054611d67906149d4565b8015611db45780601f10611d8957610100808354040283529160200191611db4565b820191906000526020600020905b815481529060010190602001808311611d9757829003601f168201915b50505050509050919050565b60006012805490508210611e09576040517f08c379a0000000000000000000000000000000000000000000000000000000008152600401611e0090614a51565b60405180910390fd5b60128281548110611e1d57611e1c614a71565b5b9060005260206000209060060201600101549050919050565b611e3e6131a3565b80600f60146101000a81548160ff02191690831515021790555050565b611e636131a3565b611e6d8282612cc5565b5050565b60008060009054906101000a900473ffffffffffffffffffffffffffffffffffffffff16905090565b606060048054611ea9906149d4565b80601f0160208091040260200160405190810160405280929190818152602001828054611ed5906149d4565b8015611f225780601f10611ef757610100808354040283529160200191611f22565b820191906000526020600020905b815481529060010190602001808311611f0557829003601f168201915b5050505050905090565b611f34612c18565b73ffffffffffffffffffffffffffffffffffffffff168273ffffffffffffffffffffffffffffffffffffffff1603611f98576040517fb06307db00000000000000000000000000000000000000000000000000000000815260040160405180910390fd5b8060086000611fa5612c18565b73ffffffffffffffffffffffffffffffffffffffff1673ffffffffffffffffffffffffffffffffffffffff16815260200190815260200160002060008473ffffffffffffffffffffffffffffffffffffffff1673ffffffffffffffffffffffffffffffffffffffff16815260200190815260200160002060006101000a81548160ff0219169083151502179055508173ffffffffffffffffffffffffffffffffffffffff16612052612c18565b73ffffffffffffffffffffffffffffffffffffffff167f17307eab39ab6107e8899845ad3d59bd9653f200f220920489ca2b5937696c318360405161209791906140f5565b60405180910390a35050565b6120ab6131a3565b80600b90805190602001906120c1929190613ef3565b5050565b6120cd6131a3565b80600d60006101000a81548173ffffffffffffffffffffffffffffffffffffffff021916908373ffffffffffffffffffffffffffffffffffffffff16021790555050565b3373ffffffffffffffffffffffffffffffffffffffff1661213182611ad2565b73ffffffffffffffffffffffffffffffffffffffff1614612187576040517f08c379a000000000000000000000000000000000000000000000000000000000815260040161217e90614ed1565b60405180910390fd5b3273ffffffffffffffffffffffffffffffffffffffff166121a66133d1565b73ffffffffffffffffffffffffffffffffffffffff16146121fc576040517f08c379a00000000000000000000000000000000000000000000000000000000081526004016121f390614f3d565b60405180910390fd5b600060136000838152602001908152602001600020549050600e60009054906101000a900473ffffffffffffffffffffffffffffffffffffffff1673ffffffffffffffffffffffffffffffffffffffff16632bf7e4cf336012848154811061226757612266614a71565b5b906000526020600020906006020160050160019054906101000a900460ff166040518363ffffffff1660e01b81526004016122a3929190614f5d565b600060405180830381600087803b1580156122bd57600080fd5b505af11580156122d1573d6000803e3d6000fd5b50505050600f60009054906101000a900473ffffffffffffffffffffffffffffffffffffffff1673ffffffffffffffffffffffffffffffffffffffff16632bf7e4cf336012848154811061232857612327614a71565b5b906000526020600020906006020160050160019054906101000a900460ff166040518363ffffffff1660e01b8152600401612364929190614f5d565b600060405180830381600087803b15801561237e57600080fd5b505af1158015612392573d6000803e3d6000fd5b5050505061239f826133d9565b5050565b6123ab6131a3565b80600f60156101000a81548160ff02191690831515021790555050565b8360006daaeb6d7670e522a718067333cd4e73ffffffffffffffffffffffffffffffffffffffff163b1115612599573373ffffffffffffffffffffffffffffffffffffffff168173ffffffffffffffffffffffffffffffffffffffff160361243b57612436858585856133e7565b6125a6565b6daaeb6d7670e522a718067333cd4e73ffffffffffffffffffffffffffffffffffffffff1663c617113430336040518363ffffffff1660e01b8152600401612484929190614d80565b602060405180830381865afa1580156124a1573d6000803e3d6000fd5b505050506040513d601f19601f820116820180604052508101906124c59190614dbe565b801561255757506daaeb6d7670e522a718067333cd4e73ffffffffffffffffffffffffffffffffffffffff1663c617113430836040518363ffffffff1660e01b8152600401612515929190614d80565b602060405180830381865afa158015612532573d6000803e3d6000fd5b505050506040513d601f19601f820116820180604052508101906125569190614dbe565b5b61259857336040517fede71dcc00000000000000000000000000000000000000000000000000000000815260040161258f919061426f565b60405180910390fd5b5b6125a5858585856133e7565b5b5050505050565b600c80546125ba906149d4565b80601f01602080910402602001604051908101604052809291908181526020018280546125e6906149d4565b80156126335780601f1061260857610100808354040283529160200191612633565b820191906000526020600020905b81548152906001019060200180831161261657829003601f168201915b505050505081565b6126436131a3565b601280549050821061268a576040517f08c379a000000000000000000000000000000000000000000000000000000000815260040161268190614a51565b60405180910390fd5b806012838154811061269f5761269e614a71565b5b906000526020600020906006020160030160008282546126bf9190614c13565b9250508190555080601283815481106126db576126da614a71565b5b906000526020600020906006020160040160008282546126fb9190614c13565b925050819055505050565b606061271182612bb9565b612750576040517f08c379a000000000000000000000000000000000000000000000000000000000815260040161274790614ff8565b60405180910390fd5b6012805490506013600084815260200190815260200160002054106127aa576040517f08c379a00000000000000000000000000000000000000000000000000000000081526004016127a190614a51565b60405180910390fd5b60006127b461345a565b905060008151116127d45760405180602001604052806000815250612821565b806127fd600160136000878152602001908152602001600020546127f89190614c13565b6134ec565b600a604051602001612811939291906150e8565b6040516020818303038152906040525b915050919050565b606061283361345a565b905090565b60006012828154811061284e5761284d614a71565b5b9060005260206000209060060201600101549050919050565b6060600c8054612876906149d4565b80601f01602080910402602001604051908101604052809291908181526020018280546128a2906149d4565b80156128ef5780601f106128c4576101008083540402835291602001916128ef565b820191906000526020600020905b8154815290600101906020018083116128d257829003601f168201915b5050505050905090565b600d60009054906101000a900473ffffffffffffffffffffffffffffffffffffffff1681565b6000600860008473ffffffffffffffffffffffffffffffffffffffff1673ffffffffffffffffffffffffffffffffffffffff16815260200190815260200160002060008373ffffffffffffffffffffffffffffffffffffffff1673ffffffffffffffffffffffffffffffffffffffff16815260200190815260200160002060009054906101000a900460ff16905092915050565b600b80546129c0906149d4565b80601f01602080910402602001604051908101604052809291908181526020018280546129ec906149d4565b8015612a395780601f10612a0e57610100808354040283529160200191612a39565b820191906000526020600020905b815481529060010190602001808311612a1c57829003601f168201915b505050505081565b612a496131a3565b600073ffffffffffffffffffffffffffffffffffffffff168173ffffffffffffffffffffffffffffffffffffffff1603612ab8576040517f08c379a0000000000000000000000000000000000000000000000000000000008152600401612aaf9061518b565b60405180910390fd5b612ac18161330d565b50565b612acc6131a3565b60116000612ada9190613f79565b8060119080519060200190612af0929190613f9a565b5050565b612afc6131a3565b6012805490508210612b43576040517f08c379a0000000000000000000000000000000000000000000000000000000008152600401612b3a90614a51565b60405180910390fd5b8060128381548110612b5857612b57614a71565b5b9060005260206000209060060201600101819055505050565b600f60009054906101000a900473ffffffffffffffffffffffffffffffffffffffff1681565b612b9f6131a3565b80600c9080519060200190612bb5929190613ef3565b5050565b600081612bc4612c20565b11158015612bd3575060015482105b8015612c11575060007c0100000000000000000000000000000000000000000000000000000000600560008581526020019081526020016000205416145b9050919050565b600033905090565b60006001905090565b6000612c33612c20565b60015403905090565b612cbf846323b872dd60e01b858585604051602401612c5d939291906151ab565b604051602081830303815290604052907bffffffffffffffffffffffffffffffffffffffffffffffffffffffff19166020820180517bffffffffffffffffffffffffffffffffffffffffffffffffffffffff83818316178352505050506135ba565b50505050565b6000600154905060008203612d06576040517fb562e8dd00000000000000000000000000000000000000000000000000000000815260040160405180910390fd5b612d136000848385613681565b600160406001901b178202600660008573ffffffffffffffffffffffffffffffffffffffff1673ffffffffffffffffffffffffffffffffffffffff16815260200190815260200160002060008282540192505081905550612d8a83612d7b6000866000613687565b612d84856136af565b176136bf565b6005600083815260200190815260200160002081905550600080838301905073ffffffffffffffffffffffffffffffffffffffff85169150828260007fddf252ad1be2c89b69c2b068fc378daa952ba7f163c4a11628f55a4df523b3ef600080a4600183015b818114612e2b57808360007fddf252ad1be2c89b69c2b068fc378daa952ba7f163c4a11628f55a4df523b3ef600080a4600181019050612df0565b5060008203612e66576040517f2e07630000000000000000000000000000000000000000000000000000000000815260040160405180910390fd5b806001819055505050612e7c60008483856136ea565b505050565b6000612e8c82613241565b90508373ffffffffffffffffffffffffffffffffffffffff168173ffffffffffffffffffffffffffffffffffffffff1614612ef3576040517fa114810000000000000000000000000000000000000000000000000000000000815260040160405180910390fd5b600080612eff846136f0565b91509150612f158187612f10612c18565b613717565b612f6157612f2a86612f25612c18565b61291f565b612f60576040517f59c896be00000000000000000000000000000000000000000000000000000000815260040160405180910390fd5b5b600073ffffffffffffffffffffffffffffffffffffffff168573ffffffffffffffffffffffffffffffffffffffff1603612fc7576040517fea553b3400000000000000000000000000000000000000000000000000000000815260040160405180910390fd5b612fd48686866001613681565b8015612fdf57600082555b600660008773ffffffffffffffffffffffffffffffffffffffff1673ffffffffffffffffffffffffffffffffffffffff168152602001908152602001600020600081546001900391905081905550600660008673ffffffffffffffffffffffffffffffffffffffff1673ffffffffffffffffffffffffffffffffffffffff16815260200190815260200160002060008154600101919050819055506130ad85613089888887613687565b7c0200000000000000000000000000000000000000000000000000000000176136bf565b600560008681526020019081526020016000208190555060007c02000000000000000000000000000000000000000000000000000000008416036131335760006001850190506000600560008381526020019081526020016000205403613131576001548114613130578360056000838152602001908152602001600020819055505b5b505b838573ffffffffffffffffffffffffffffffffffffffff168773ffffffffffffffffffffffffffffffffffffffff167fddf252ad1be2c89b69c2b068fc378daa952ba7f163c4a11628f55a4df523b3ef60405160405180910390a461319b86868660016136ea565b505050505050565b6131ab6133d1565b73ffffffffffffffffffffffffffffffffffffffff166131c9611e71565b73ffffffffffffffffffffffffffffffffffffffff161461321f576040517f08c379a00000000000000000000000000000000000000000000000000000000081526004016132169061522e565b60405180910390fd5b565b61323c838383604051806020016040528060008152506123c8565b505050565b60008082905080613250612c20565b116132d6576001548110156132d55760006005600083815260200190815260200160002054905060007c01000000000000000000000000000000000000000000000000000000008216036132d3575b600081036132c957600560008360019003935083815260200190815260200160002054905061329f565b8092505050613308565b505b5b6040517fdf2d9b4200000000000000000000000000000000000000000000000000000000815260040160405180910390fd5b919050565b60008060009054906101000a900473ffffffffffffffffffffffffffffffffffffffff169050816000806101000a81548173ffffffffffffffffffffffffffffffffffffffff021916908373ffffffffffffffffffffffffffffffffffffffff1602179055508173ffffffffffffffffffffffffffffffffffffffff168173ffffffffffffffffffffffffffffffffffffffff167f8be0079c531659141344cd1fd0a4f28419497f9722a3daafe3b4186f6b6457e060405160405180910390a35050565b600033905090565b6133e481600061375b565b50565b6133f2848484610f4a565b60008373ffffffffffffffffffffffffffffffffffffffff163b146134545761341d848484846139ad565b613453576040517fd1a57ed600000000000000000000000000000000000000000000000000000000815260040160405180910390fd5b5b50505050565b6060600b8054613469906149d4565b80601f0160208091040260200160405190810160405280929190818152602001828054613495906149d4565b80156134e25780601f106134b7576101008083540402835291602001916134e2565b820191906000526020600020905b8154815290600101906020018083116134c557829003601f168201915b5050505050905090565b6060600060016134fb84613afd565b01905060008167ffffffffffffffff81111561351a576135196144cc565b5b6040519080825280601f01601f19166020018201604052801561354c5781602001600182028036833780820191505090505b509050600082602001820190505b6001156135af578080600190039150507f3031323334353637383961626364656600000000000000000000000000000000600a86061a8153600a85816135a3576135a2614cf7565b5b0494506000850361355a575b819350505050919050565b600061361c826040518060400160405280602081526020017f5361666545524332303a206c6f772d6c6576656c2063616c6c206661696c65648152508573ffffffffffffffffffffffffffffffffffffffff16613c509092919063ffffffff16565b905060008151111561367c578080602001905181019061363c9190614dbe565b61367b576040517f08c379a0000000000000000000000000000000000000000000000000000000008152600401613672906152c0565b60405180910390fd5b5b505050565b50505050565b60008060e883901c905060e861369e868684613c68565b62ffffff16901b9150509392505050565b60006001821460e11b9050919050565b600073ffffffffffffffffffffffffffffffffffffffff83169250814260a01b178317905092915050565b50505050565b60008060006007600085815260200190815260200160002090508092508254915050915091565b600073ffffffffffffffffffffffffffffffffffffffff8316925073ffffffffffffffffffffffffffffffffffffffff821691508382148383141790509392505050565b600061376683613241565b90506000819050600080613779866136f0565b9150915084156137e2576137958184613790612c18565b613717565b6137e1576137aa836137a5612c18565b61291f565b6137e0576040517f59c896be00000000000000000000000000000000000000000000000000000000815260040160405180910390fd5b5b5b6137f0836000886001613681565b80156137fb57600082555b600160806001901b03600660008573ffffffffffffffffffffffffffffffffffffffff1673ffffffffffffffffffffffffffffffffffffffff168152602001908152602001600020600082825401925050819055506138a38361386085600088613687565b7c02000000000000000000000000000000000000000000000000000000007c010000000000000000000000000000000000000000000000000000000017176136bf565b600560008881526020019081526020016000208190555060007c02000000000000000000000000000000000000000000000000000000008516036139295760006001870190506000600560008381526020019081526020016000205403613927576001548114613926578460056000838152602001908152602001600020819055505b5b505b85600073ffffffffffffffffffffffffffffffffffffffff168473ffffffffffffffffffffffffffffffffffffffff167fddf252ad1be2c89b69c2b068fc378daa952ba7f163c4a11628f55a4df523b3ef60405160405180910390a46139938360008860016136ea565b600260008154809291906001019190505550505050505050565b60008373ffffffffffffffffffffffffffffffffffffffff1663150b7a026139d3612c18565b8786866040518563ffffffff1660e01b81526004016139f59493929190615335565b6020604051808303816000875af1925050508015613a3157506040513d601f19601f82011682018060405250810190613a2e9190615396565b60015b613aaa573d8060008114613a61576040519150601f19603f3d011682016040523d82523d6000602084013e613a66565b606091505b506000815103613aa2576040517fd1a57ed600000000000000000000000000000000000000000000000000000000815260040160405180910390fd5b805181602001fd5b63150b7a0260e01b7bffffffffffffffffffffffffffffffffffffffffffffffffffffffff1916817bffffffffffffffffffffffffffffffffffffffffffffffffffffffff191614915050949350505050565b600080600090507a184f03e93ff9f4daa797ed6e38ed64bf6a1f0100000000000000008310613b5b577a184f03e93ff9f4daa797ed6e38ed64bf6a1f0100000000000000008381613b5157613b50614cf7565b5b0492506040810190505b6d04ee2d6d415b85acef81000000008310613b98576d04ee2d6d415b85acef81000000008381613b8e57613b8d614cf7565b5b0492506020810190505b662386f26fc100008310613bc757662386f26fc100008381613bbd57613bbc614cf7565b5b0492506010810190505b6305f5e1008310613bf0576305f5e1008381613be657613be5614cf7565b5b0492506008810190505b6127108310613c15576127108381613c0b57613c0a614cf7565b5b0492506004810190505b60648310613c385760648381613c2e57613c2d614cf7565b5b0492506002810190505b600a8310613c47576001810190505b80915050919050565b6060613c5f8484600085613c71565b90509392505050565b60009392505050565b606082471015613cb6576040517f08c379a0000000000000000000000000000000000000000000000000000000008152600401613cad90615435565b60405180910390fd5b6000808673ffffffffffffffffffffffffffffffffffffffff168587604051613cdf9190615491565b60006040518083038185875af1925050503d8060008114613d1c576040519150601f19603f3d011682016040523d82523d6000602084013e613d21565b606091505b5091509150613d3287838387613d3e565b92505050949350505050565b60608315613da0576000835103613d9857613d5885613db3565b613d97576040517f08c379a0000000000000000000000000000000000000000000000000000000008152600401613d8e906154f4565b60405180910390fd5b5b829050613dab565b613daa8383613dd6565b5b949350505050565b6000808273ffffffffffffffffffffffffffffffffffffffff163b119050919050565b600082511115613de95781518083602001fd5b806040517f08c379a0000000000000000000000000000000000000000000000000000000008152600401613e1d91906141a9565b60405180910390fd5b828054613e32906149d4565b90600052602060002090601f016020900481019282613e545760008555613ea2565b82601f10613e655780548555613ea2565b82800160010185558215613ea257600052602060002091601f016020900482015b82811115613ea1578254825591600101919060010190613e86565b5b509050613eaf9190614024565b5090565b508054613ebf906149d4565b6000825580601f10613ed15750613ef0565b601f016020900490600052602060002090810190613eef9190614024565b5b50565b828054613eff906149d4565b90600052602060002090601f016020900481019282613f215760008555613f68565b82601f10613f3a57805160ff1916838001178555613f68565b82800160010185558215613f68579182015b82811115613f67578251825591602001919060010190613f4c565b5b509050613f759190614024565b5090565b5080546000825590600052602060002090810190613f979190614024565b50565b828054828255906000526020600020908101928215614013579160200282015b828111156140125782518260006101000a81548173ffffffffffffffffffffffffffffffffffffffff021916908373ffffffffffffffffffffffffffffffffffffffff16021790555091602001919060010190613fba565b5b5090506140209190614024565b5090565b5b8082111561403d576000816000905550600101614025565b5090565b6000604051905090565b600080fd5b600080fd5b60007fffffffff0000000000000000000000000000000000000000000000000000000082169050919050565b61408a81614055565b811461409557600080fd5b50565b6000813590506140a781614081565b92915050565b6000602082840312156140c3576140c261404b565b5b60006140d184828501614098565b91505092915050565b60008115159050919050565b6140ef816140da565b82525050565b600060208201905061410a60008301846140e6565b92915050565b600081519050919050565b600082825260208201905092915050565b60005b8381101561414a57808201518184015260208101905061412f565b83811115614159576000848401525b50505050565b6000601f19601f8301169050919050565b600061417b82614110565b614185818561411b565b935061419581856020860161412c565b61419e8161415f565b840191505092915050565b600060208201905081810360008301526141c38184614170565b905092915050565b6000819050919050565b6141de816141cb565b81146141e957600080fd5b50565b6000813590506141fb816141d5565b92915050565b6000602082840312156142175761421661404b565b5b6000614225848285016141ec565b91505092915050565b600073ffffffffffffffffffffffffffffffffffffffff82169050919050565b60006142598261422e565b9050919050565b6142698161424e565b82525050565b60006020820190506142846000830184614260565b92915050565b6142938161424e565b811461429e57600080fd5b50565b6000813590506142b08161428a565b92915050565b600080604083850312156142cd576142cc61404b565b5b60006142db858286016142a1565b92505060206142ec858286016141ec565b9150509250929050565b6142ff816141cb565b82525050565b600060208201905061431a60008301846142f6565b92915050565b600080604083850312156143375761433661404b565b5b6000614345858286016141ec565b9250506020614356858286016141ec565b9150509250929050565b6000806000606084860312156143795761437861404b565b5b6000614387868287016142a1565b9350506020614398868287016142a1565b92505060406143a9868287016141ec565b9150509250925092565b6000602082840312156143c9576143c861404b565b5b60006143d7848285016142a1565b91505092915050565b6143e9816140da565b81146143f457600080fd5b50565b600081359050614406816143e0565b92915050565b600080604083850312156144235761442261404b565b5b6000614431858286016141ec565b9250506020614442858286016143f7565b9150509250929050565b600060e0820190508181036000830152614466818a614170565b905061447560208301896142f6565b61448260408301886142f6565b61448f60608301876142f6565b61449c60808301866142f6565b6144a960a08301856140e6565b6144b660c08301846140e6565b98975050505050505050565b600080fd5b600080fd5b7f4e487b7100000000000000000000000000000000000000000000000000000000600052604160045260246000fd5b6145048261415f565b810181811067ffffffffffffffff82111715614523576145226144cc565b5b80604052505050565b6000614536614041565b905061454282826144fb565b919050565b600067ffffffffffffffff821115614562576145616144cc565b5b61456b8261415f565b9050602081019050919050565b82818337600083830152505050565b600061459a61459584614547565b61452c565b9050828152602081018484840111156145b6576145b56144c7565b5b6145c1848285614578565b509392505050565b600082601f8301126145de576145dd6144c2565b5b81356145ee848260208601614587565b91505092915050565b600080600080608085870312156146115761461061404b565b5b600085013567ffffffffffffffff81111561462f5761462e614050565b5b61463b878288016145c9565b945050602061464c878288016141ec565b935050604061465d878288016141ec565b925050606061466e878288016143f7565b91505092959194509250565b6000602082840312156146905761468f61404b565b5b600061469e848285016143f7565b91505092915050565b600080604083850312156146be576146bd61404b565b5b60006146cc858286016142a1565b92505060206146dd858286016143f7565b9150509250929050565b6000602082840312156146fd576146fc61404b565b5b600082013567ffffffffffffffff81111561471b5761471a614050565b5b614727848285016145c9565b91505092915050565b600067ffffffffffffffff82111561474b5761474a6144cc565b5b6147548261415f565b9050602081019050919050565b600061477461476f84614730565b61452c565b9050828152602081018484840111156147905761478f6144c7565b5b61479b848285614578565b509392505050565b600082601f8301126147b8576147b76144c2565b5b81356147c8848260208601614761565b91505092915050565b600080600080608085870312156147eb576147ea61404b565b5b60006147f9878288016142a1565b945050602061480a878288016142a1565b935050604061481b878288016141ec565b925050606085013567ffffffffffffffff81111561483c5761483b614050565b5b614848878288016147a3565b91505092959194509250565b6000806040838503121561486b5761486a61404b565b5b6000614879858286016142a1565b925050602061488a858286016142a1565b9150509250929050565b600067ffffffffffffffff8211156148af576148ae6144cc565b5b602082029050602081019050919050565b600080fd5b60006148d86148d384614894565b61452c565b905080838252602082019050602084028301858111156148fb576148fa6148c0565b5b835b81811015614924578061491088826142a1565b8452602084019350506020810190506148fd565b5050509392505050565b600082601f830112614943576149426144c2565b5b81356149538482602086016148c5565b91505092915050565b6000602082840312156149725761497161404b565b5b600082013567ffffffffffffffff8111156149905761498f614050565b5b61499c8482850161492e565b91505092915050565b7f4e487b7100000000000000000000000000000000000000000000000000000000600052602260045260246000fd5b600060028204905060018216806149ec57607f821691505b6020821081036149ff576149fe6149a5565b5b50919050565b7f626f784964206f7574206f662072616e67650000000000000000000000000000600082015250565b6000614a3b60128361411b565b9150614a4682614a05565b602082019050919050565b60006020820190508181036000830152614a6a81614a2e565b9050919050565b7f4e487b7100000000000000000000000000000000000000000000000000000000600052603260045260246000fd5b7f4d696e74696e67206973206e6f7420656e61626c656400000000000000000000600082015250565b6000614ad660168361411b565b9150614ae182614aa0565b602082019050919050565b60006020820190508181036000830152614b0581614ac9565b9050919050565b7f43616e6e6f74206d696e74206d6f7265207468616e206d617820737570706c79600082015250565b6000614b4260208361411b565b9150614b4d82614b0c565b602082019050919050565b60006020820190508181036000830152614b7181614b35565b9050919050565b7f4d696e742064697361626c656400000000000000000000000000000000000000600082015250565b6000614bae600d8361411b565b9150614bb982614b78565b602082019050919050565b60006020820190508181036000830152614bdd81614ba1565b9050919050565b7f4e487b7100000000000000000000000000000000000000000000000000000000600052601160045260246000fd5b6000614c1e826141cb565b9150614c29836141cb565b9250827fffffffffffffffffffffffffffffffffffffffffffffffffffffffffffffffff03821115614c5e57614c5d614be4565b5b828201905092915050565b6000614c74826141cb565b9150614c7f836141cb565b9250817fffffffffffffffffffffffffffffffffffffffffffffffffffffffffffffffff0483118215151615614cb857614cb7614be4565b5b828202905092915050565b6000614cce826141cb565b9150614cd9836141cb565b925082821015614cec57614ceb614be4565b5b828203905092915050565b7f4e487b7100000000000000000000000000000000000000000000000000000000600052601260045260246000fd5b6000614d31826141cb565b9150614d3c836141cb565b925082614d4c57614d4b614cf7565b5b828204905092915050565b6000614d62826141cb565b915060008203614d7557614d74614be4565b5b600182039050919050565b6000604082019050614d956000830185614260565b614da26020830184614260565b9392505050565b600081519050614db8816143e0565b92915050565b600060208284031215614dd457614dd361404b565b5b6000614de284828501614da9565b91505092915050565b600081519050614dfa816141d5565b92915050565b600060208284031215614e1657614e1561404b565b5b6000614e2484828501614deb565b91505092915050565b6000604082019050614e426000830185614260565b614e4f60208301846142f6565b9392505050565b7f4e487b7100000000000000000000000000000000000000000000000000000000600052603160045260246000fd5b7f596f7520646f206e6f74206f776e207468697320426f78000000000000000000600082015250565b6000614ebb60178361411b565b9150614ec682614e85565b602082019050919050565b60006020820190508181036000830152614eea81614eae565b9050919050565b7f6f70656e65722063616e6e6f7420626520736d61727420636f6e747261637400600082015250565b6000614f27601f8361411b565b9150614f3282614ef1565b602082019050919050565b60006020820190508181036000830152614f5681614f1a565b9050919050565b6000604082019050614f726000830185614260565b614f7f60208301846140e6565b9392505050565b7f4552433732314d657461646174613a2055524920717565727920666f72206e6f60008201527f6e6578697374656e7420746f6b656e0000000000000000000000000000000000602082015250565b6000614fe2602f8361411b565b9150614fed82614f86565b604082019050919050565b6000602082019050818103600083015261501181614fd5565b9050919050565b600081905092915050565b600061502e82614110565b6150388185615018565b935061504881856020860161412c565b80840191505092915050565b60008190508160005260206000209050919050565b60008154615076816149d4565b6150808186615018565b9450600182166000811461509b57600181146150ac576150df565b60ff198316865281860193506150df565b6150b585615054565b60005b838110156150d7578154818901526001820191506020810190506150b8565b838801955050505b50505092915050565b60006150f48286615023565b91506151008285615023565b915061510c8284615069565b9150819050949350505050565b7f4f776e61626c653a206e6577206f776e657220697320746865207a65726f206160008201527f6464726573730000000000000000000000000000000000000000000000000000602082015250565b600061517560268361411b565b915061518082615119565b604082019050919050565b600060208201905081810360008301526151a481615168565b9050919050565b60006060820190506151c06000830186614260565b6151cd6020830185614260565b6151da60408301846142f6565b949350505050565b7f4f776e61626c653a2063616c6c6572206973206e6f7420746865206f776e6572600082015250565b600061521860208361411b565b9150615223826151e2565b602082019050919050565b600060208201905081810360008301526152478161520b565b9050919050565b7f5361666545524332303a204552433230206f7065726174696f6e20646964206e60008201527f6f74207375636365656400000000000000000000000000000000000000000000602082015250565b60006152aa602a8361411b565b91506152b58261524e565b604082019050919050565b600060208201905081810360008301526152d98161529d565b9050919050565b600081519050919050565b600082825260208201905092915050565b6000615307826152e0565b61531181856152eb565b935061532181856020860161412c565b61532a8161415f565b840191505092915050565b600060808201905061534a6000830187614260565b6153576020830186614260565b61536460408301856142f6565b818103606083015261537681846152fc565b905095945050505050565b60008151905061539081614081565b92915050565b6000602082840312156153ac576153ab61404b565b5b60006153ba84828501615381565b91505092915050565b7f416464726573733a20696e73756666696369656e742062616c616e636520666f60008201527f722063616c6c0000000000000000000000000000000000000000000000000000602082015250565b600061541f60268361411b565b915061542a826153c3565b604082019050919050565b6000602082019050818103600083015261544e81615412565b9050919050565b600081905092915050565b600061546b826152e0565b6154758185615455565b935061548581856020860161412c565b80840191505092915050565b600061549d8284615460565b915081905092915050565b7f416464726573733a2063616c6c20746f206e6f6e2d636f6e7472616374000000600082015250565b60006154de601d8361411b565b91506154e9826154a8565b602082019050919050565b6000602082019050818103600083015261550d816154d1565b905091905056fea26469706673582212206e9159b0b2b4a81de1a6004fa51ba60b08c366ac5a82e82dc74a1f778d81c3f664736f6c634300080d0033697066733a2f2f516d6375784a667355683972616f5753316a5132454e6b5336703877567434534b57566b5667334e7341733865592f697066733a2f2f516d5a37727a6e3876716e61374435344e35556e61636f61725048423663595a735266775666796d634c384532332f",
  "linkReferences": {},
  "deployedLinkReferences": {}
}