{
  "_format": "hh-sol-artifact-1",
  "contractName": "NftEgg",
  "sourceName": "src/backend/contracts/NftEgg.sol",
  "abi": [
    {
      "inputs": [],
      "stateMutability": "nonpayable",
      "type": "constructor"
    },
    {
      "inputs": [],
      "name": "ApprovalCallerNotOwnerNorApproved",
      "type": "error"
    },
    {
      "inputs": [],
      "name": "ApprovalQueryForNonexistentToken",
      "type": "error"
    },
    {
      "inputs": [],
      "name": "ApproveToCaller",
      "type": "error"
    },
    {
      "inputs": [],
      "name": "BalanceQueryForZeroAddress",
      "type": "error"
    },
    {
      "inputs": [],
      "name": "MintERC2309QuantityExceedsLimit",
      "type": "error"
    },
    {
      "inputs": [],
      "name": "MintToZeroAddress",
      "type": "error"
    },
    {
      "inputs": [],
      "name": "MintZeroQuantity",
      "type": "error"
    },
    {
      "inputs": [
        {
          "internalType": "address",
          "name": "operator",
          "type": "address"
        }
      ],
      "name": "OperatorNotAllowed",
      "type": "error"
    },
    {
      "inputs": [],
      "name": "OwnerQueryForNonexistentToken",
      "type": "error"
    },
    {
      "inputs": [],
      "name": "OwnershipNotInitializedForExtraData",
      "type": "error"
    },
    {
      "inputs": [],
      "name": "TransferCallerNotOwnerNorApproved",
      "type": "error"
    },
    {
      "inputs": [],
      "name": "TransferFromIncorrectOwner",
      "type": "error"
    },
    {
      "inputs": [],
      "name": "TransferToNonERC721ReceiverImplementer",
      "type": "error"
    },
    {
      "inputs": [],
      "name": "TransferToZeroAddress",
      "type": "error"
    },
    {
      "inputs": [],
      "name": "URIQueryForNonexistentToken",
      "type": "error"
    },
    {
      "anonymous": false,
      "inputs": [
        {
          "indexed": true,
          "internalType": "address",
          "name": "owner",
          "type": "address"
        },
        {
          "indexed": true,
          "internalType": "address",
          "name": "approved",
          "type": "address"
        },
        {
          "indexed": true,
          "internalType": "uint256",
          "name": "tokenId",
          "type": "uint256"
        }
      ],
      "name": "Approval",
      "type": "event"
    },
    {
      "anonymous": false,
      "inputs": [
        {
          "indexed": true,
          "internalType": "address",
          "name": "owner",
          "type": "address"
        },
        {
          "indexed": true,
          "internalType": "address",
          "name": "operator",
          "type": "address"
        },
        {
          "indexed": false,
          "internalType": "bool",
          "name": "approved",
          "type": "bool"
        }
      ],
      "name": "ApprovalForAll",
      "type": "event"
    },
    {
      "anonymous": false,
      "inputs": [
        {
          "indexed": true,
          "internalType": "uint256",
          "name": "fromTokenId",
          "type": "uint256"
        },
        {
          "indexed": false,
          "internalType": "uint256",
          "name": "toTokenId",
          "type": "uint256"
        },
        {
          "indexed": true,
          "internalType": "address",
          "name": "from",
          "type": "address"
        },
        {
          "indexed": true,
          "internalType": "address",
          "name": "to",
          "type": "address"
        }
      ],
      "name": "ConsecutiveTransfer",
      "type": "event"
    },
    {
      "anonymous": false,
      "inputs": [
        {
          "indexed": false,
          "internalType": "address",
          "name": "user",
          "type": "address"
        },
        {
          "indexed": false,
          "internalType": "uint256",
          "name": "metadata",
          "type": "uint256"
        }
      ],
      "name": "MintSuccessful",
      "type": "event"
    },
    {
      "anonymous": false,
      "inputs": [
        {
          "indexed": true,
          "internalType": "address",
          "name": "previousOwner",
          "type": "address"
        },
        {
          "indexed": true,
          "internalType": "address",
          "name": "newOwner",
          "type": "address"
        }
      ],
      "name": "OwnershipTransferred",
      "type": "event"
    },
    {
      "anonymous": false,
      "inputs": [
        {
          "indexed": true,
          "internalType": "address",
          "name": "from",
          "type": "address"
        },
        {
          "indexed": true,
          "internalType": "address",
          "name": "to",
          "type": "address"
        },
        {
          "indexed": true,
          "internalType": "uint256",
          "name": "tokenId",
          "type": "uint256"
        }
      ],
      "name": "Transfer",
      "type": "event"
    },
    {
      "inputs": [
        {
          "internalType": "address",
          "name": "to",
          "type": "address"
        },
        {
          "internalType": "uint256",
          "name": "tokenId",
          "type": "uint256"
        }
      ],
      "name": "approve",
      "outputs": [],
      "stateMutability": "nonpayable",
      "type": "function"
    },
    {
      "inputs": [
        {
          "internalType": "address",
          "name": "owner",
          "type": "address"
        }
      ],
      "name": "balanceOf",
      "outputs": [
        {
          "internalType": "uint256",
          "name": "",
          "type": "uint256"
        }
      ],
      "stateMutability": "view",
      "type": "function"
    },
    {
      "inputs": [],
      "name": "baseTokenURI",
      "outputs": [
        {
          "internalType": "string",
          "name": "",
          "type": "string"
        }
      ],
      "stateMutability": "pure",
      "type": "function"
    },
    {
      "inputs": [],
      "name": "burnAmount",
      "outputs": [
        {
          "internalType": "uint256",
          "name": "",
          "type": "uint256"
        }
      ],
      "stateMutability": "view",
      "type": "function"
    },
    {
      "inputs": [
        {
          "internalType": "uint256",
          "name": "_tokenId",
          "type": "uint256"
        }
      ],
      "name": "burnFromEquip",
      "outputs": [],
      "stateMutability": "nonpayable",
      "type": "function"
    },
    {
      "inputs": [],
      "name": "contractURI",
      "outputs": [
        {
          "internalType": "string",
          "name": "",
          "type": "string"
        }
      ],
      "stateMutability": "pure",
      "type": "function"
    },
    {
      "inputs": [
        {
          "internalType": "uint256",
          "name": "tokenId",
          "type": "uint256"
        }
      ],
      "name": "getApproved",
      "outputs": [
        {
          "internalType": "address",
          "name": "",
          "type": "address"
        }
      ],
      "stateMutability": "view",
      "type": "function"
    },
    {
      "inputs": [],
      "name": "getPrice",
      "outputs": [
        {
          "internalType": "uint256",
          "name": "",
          "type": "uint256"
        }
      ],
      "stateMutability": "view",
      "type": "function"
    },
    {
      "inputs": [
        {
          "internalType": "uint256",
          "name": "_tokenId",
          "type": "uint256"
        }
      ],
      "name": "idToMetadata",
      "outputs": [
        {
          "internalType": "uint256",
          "name": "",
          "type": "uint256"
        }
      ],
      "stateMutability": "view",
      "type": "function"
    },
    {
      "inputs": [
        {
          "internalType": "address",
          "name": "owner",
          "type": "address"
        },
        {
          "internalType": "address",
          "name": "operator",
          "type": "address"
        }
      ],
      "name": "isApprovedForAll",
      "outputs": [
        {
          "internalType": "bool",
          "name": "",
          "type": "bool"
        }
      ],
      "stateMutability": "view",
      "type": "function"
    },
    {
      "inputs": [
        {
          "internalType": "uint256",
          "name": "_metadata",
          "type": "uint256"
        }
      ],
      "name": "isOnePercentRarity",
      "outputs": [
        {
          "internalType": "bool",
          "name": "",
          "type": "bool"
        }
      ],
      "stateMutability": "view",
      "type": "function"
    },
    {
      "inputs": [
        {
          "internalType": "uint256",
          "name": "quantity",
          "type": "uint256"
        },
        {
          "internalType": "uint256",
          "name": "_metadataId",
          "type": "uint256"
        }
      ],
      "name": "mint",
      "outputs": [],
      "stateMutability": "payable",
      "type": "function"
    },
    {
      "inputs": [],
      "name": "mintEnabled",
      "outputs": [
        {
          "internalType": "bool",
          "name": "",
          "type": "bool"
        }
      ],
      "stateMutability": "view",
      "type": "function"
    },
    {
      "inputs": [
        {
          "internalType": "address",
          "name": "_user",
          "type": "address"
        },
        {
          "internalType": "uint256",
          "name": "_boxId",
          "type": "uint256"
        }
      ],
      "name": "mintFromBox",
      "outputs": [],
      "stateMutability": "nonpayable",
      "type": "function"
    },
    {
      "inputs": [],
      "name": "name",
      "outputs": [
        {
          "internalType": "string",
          "name": "",
          "type": "string"
        }
      ],
      "stateMutability": "view",
      "type": "function"
    },
    {
      "inputs": [],
      "name": "onePercentRarityAvailable",
      "outputs": [
        {
          "internalType": "bool",
          "name": "",
          "type": "bool"
        }
      ],
      "stateMutability": "view",
      "type": "function"
    },
    {
      "inputs": [],
      "name": "owner",
      "outputs": [
        {
          "internalType": "address",
          "name": "",
          "type": "address"
        }
      ],
      "stateMutability": "view",
      "type": "function"
    },
    {
      "inputs": [
        {
          "internalType": "uint256",
          "name": "tokenId",
          "type": "uint256"
        }
      ],
      "name": "ownerOf",
      "outputs": [
        {
          "internalType": "address",
          "name": "",
          "type": "address"
        }
      ],
      "stateMutability": "view",
      "type": "function"
    },
    {
      "inputs": [],
      "name": "price",
      "outputs": [
        {
          "internalType": "uint256",
          "name": "",
          "type": "uint256"
        }
      ],
      "stateMutability": "view",
      "type": "function"
    },
    {
      "inputs": [],
      "name": "rareFirstId",
      "outputs": [
        {
          "internalType": "uint256",
          "name": "",
          "type": "uint256"
        }
      ],
      "stateMutability": "view",
      "type": "function"
    },
    {
      "inputs": [],
      "name": "rareLastId",
      "outputs": [
        {
          "internalType": "uint256",
          "name": "",
          "type": "uint256"
        }
      ],
      "stateMutability": "view",
      "type": "function"
    },
    {
      "inputs": [],
      "name": "renounceOwnership",
      "outputs": [],
      "stateMutability": "nonpayable",
      "type": "function"
    },
    {
      "inputs": [
        {
          "internalType": "address",
          "name": "from",
          "type": "address"
        },
        {
          "internalType": "address",
          "name": "to",
          "type": "address"
        },
        {
          "internalType": "uint256",
          "name": "tokenId",
          "type": "uint256"
        }
      ],
      "name": "safeTransferFrom",
      "outputs": [],
      "stateMutability": "nonpayable",
      "type": "function"
    },
    {
      "inputs": [
        {
          "internalType": "address",
          "name": "from",
          "type": "address"
        },
        {
          "internalType": "address",
          "name": "to",
          "type": "address"
        },
        {
          "internalType": "uint256",
          "name": "tokenId",
          "type": "uint256"
        },
        {
          "internalType": "bytes",
          "name": "data",
          "type": "bytes"
        }
      ],
      "name": "safeTransferFrom",
      "outputs": [],
      "stateMutability": "nonpayable",
      "type": "function"
    },
    {
      "inputs": [
        {
          "internalType": "address",
          "name": "operator",
          "type": "address"
        },
        {
          "internalType": "bool",
          "name": "approved",
          "type": "bool"
        }
      ],
      "name": "setApprovalForAll",
      "outputs": [],
      "stateMutability": "nonpayable",
      "type": "function"
    },
    {
      "inputs": [
        {
          "internalType": "address",
          "name": "_address",
          "type": "address"
        }
      ],
      "name": "setBoxAddress",
      "outputs": [],
      "stateMutability": "nonpayable",
      "type": "function"
    },
    {
      "inputs": [
        {
          "internalType": "address",
          "name": "_address",
          "type": "address"
        }
      ],
      "name": "setEquipAddress",
      "outputs": [],
      "stateMutability": "nonpayable",
      "type": "function"
    },
    {
      "inputs": [
        {
          "internalType": "bool",
          "name": "_state",
          "type": "bool"
        }
      ],
      "name": "setMintEnabled",
      "outputs": [],
      "stateMutability": "nonpayable",
      "type": "function"
    },
    {
      "inputs": [
        {
          "internalType": "uint256",
          "name": "_price",
          "type": "uint256"
        }
      ],
      "name": "setPrice",
      "outputs": [],
      "stateMutability": "nonpayable",
      "type": "function"
    },
    {
      "inputs": [
        {
          "internalType": "uint256[]",
          "name": "_remainingEggs",
          "type": "uint256[]"
        }
      ],
      "name": "setRemainingEggs",
      "outputs": [],
      "stateMutability": "nonpayable",
      "type": "function"
    },
    {
      "inputs": [
        {
          "internalType": "bytes4",
          "name": "interfaceId",
          "type": "bytes4"
        }
      ],
      "name": "supportsInterface",
      "outputs": [
        {
          "internalType": "bool",
          "name": "",
          "type": "bool"
        }
      ],
      "stateMutability": "view",
      "type": "function"
    },
    {
      "inputs": [],
      "name": "symbol",
      "outputs": [
        {
          "internalType": "string",
          "name": "",
          "type": "string"
        }
      ],
      "stateMutability": "view",
      "type": "function"
    },
    {
      "inputs": [
        {
          "internalType": "uint256",
          "name": "_tokenId",
          "type": "uint256"
        }
      ],
      "name": "tokenURI",
      "outputs": [
        {
          "internalType": "string",
          "name": "",
          "type": "string"
        }
      ],
      "stateMutability": "view",
      "type": "function"
    },
    {
      "inputs": [],
      "name": "totalSupply",
      "outputs": [
        {
          "internalType": "uint256",
          "name": "",
          "type": "uint256"
        }
      ],
      "stateMutability": "view",
      "type": "function"
    },
    {
      "inputs": [
        {
          "internalType": "address",
          "name": "from",
          "type": "address"
        },
        {
          "internalType": "address",
          "name": "to",
          "type": "address"
        },
        {
          "internalType": "uint256",
          "name": "tokenId",
          "type": "uint256"
        }
      ],
      "name": "transferFrom",
      "outputs": [],
      "stateMutability": "nonpayable",
      "type": "function"
    },
    {
      "inputs": [
        {
          "internalType": "address",
          "name": "newOwner",
          "type": "address"
        }
      ],
      "name": "transferOwnership",
      "outputs": [],
      "stateMutability": "nonpayable",
      "type": "function"
    },
    {
      "inputs": [],
      "name": "uriPrefix",
      "outputs": [
        {
          "internalType": "string",
          "name": "",
          "type": "string"
        }
      ],
      "stateMutability": "view",
      "type": "function"
    },
    {
      "inputs": [],
      "name": "uriSuffix",
      "outputs": [
        {
          "internalType": "string",
          "name": "",
          "type": "string"
        }
      ],
      "stateMutability": "view",
      "type": "function"
    },
    {
      "inputs": [],
      "name": "withdraw",
      "outputs": [],
      "stateMutability": "nonpayable",
      "type": "function"
    }
  ],
  "bytecode": "0x608060405260405180602001604052806000815250600b90805190602001906200002b9291906200085b565b506040518060400160405280600581526020017f2e6a736f6e000000000000000000000000000000000000000000000000000000815250600c9080519060200190620000799291906200085b565b506019600e55601f600f5560006011553480156200009657600080fd5b50733cc6cdda760b79bafa08df41ecfa224f810dceb660016040518060400160405280600381526020017f45676700000000000000000000000000000000000000000000000000000000008152506040518060400160405280600381526020017f45474700000000000000000000000000000000000000000000000000000000008152506200013a6200012e6200078660201b60201c565b6200078e60201b60201c565b8160039080519060200190620001529291906200085b565b5080600490805190602001906200016b9291906200085b565b506200017c6200085260201b60201c565b600181905550505060006daaeb6d7670e522a718067333cd4e73ffffffffffffffffffffffffffffffffffffffff163b1115620003795780156200023f576daaeb6d7670e522a718067333cd4e73ffffffffffffffffffffffffffffffffffffffff16637d3e3dbe30846040518363ffffffff1660e01b815260040162000205929190620009a7565b600060405180830381600087803b1580156200022057600080fd5b505af115801562000235573d6000803e3d6000fd5b5050505062000378565b600073ffffffffffffffffffffffffffffffffffffffff168273ffffffffffffffffffffffffffffffffffffffff1614620002f9576daaeb6d7670e522a718067333cd4e73ffffffffffffffffffffffffffffffffffffffff1663a0af290330846040518363ffffffff1660e01b8152600401620002bf929190620009a7565b600060405180830381600087803b158015620002da57600080fd5b505af1158015620002ef573d6000803e3d6000fd5b5050505062000377565b6daaeb6d7670e522a718067333cd4e73ffffffffffffffffffffffffffffffffffffffff16634420e486306040518263ffffffff1660e01b8152600401620003429190620009d4565b600060405180830381600087803b1580156200035d57600080fd5b505af115801562000372573d6000803e3d6000fd5b505050505b5b5b505060405180610c800160405280600160ff168152602001600160ff168152602001600160ff168152602001600160ff168152602001600160ff168152602001600160ff168152602001600160ff168152602001600160ff168152602001600160ff168152602001600160ff168152602001600160ff168152602001600160ff168152602001600160ff168152602001600260ff168152602001600260ff168152602001600260ff168152602001600260ff168152602001600260ff168152602001600260ff168152602001600260ff168152602001600260ff168152602001600260ff168152602001600260ff168152602001600360ff168152602001600360ff168152602001600360ff168152602001600360ff168152602001600360ff168152602001600460ff168152602001600460ff168152602001600460ff168152602001600460ff168152602001600460ff168152602001600560ff168152602001600560ff168152602001600560ff168152602001600660ff168152602001600660ff168152602001600660ff168152602001600760ff168152602001600760ff168152602001600760ff168152602001600860ff168152602001600860ff168152602001600860ff168152602001600960ff168152602001600960ff168152602001600960ff168152602001600a60ff168152602001600a60ff168152602001600a60ff168152602001600b60ff168152602001600b60ff168152602001600b60ff168152602001600c60ff168152602001600c60ff168152602001600c60ff168152602001600d60ff168152602001600d60ff168152602001600d60ff168152602001600e60ff168152602001600e60ff168152602001600e60ff168152602001600f60ff168152602001600f60ff168152602001600f60ff168152602001601060ff168152602001601060ff168152602001601060ff168152602001601160ff168152602001601160ff168152602001601160ff168152602001601260ff168152602001601260ff168152602001601260ff168152602001601360ff168152602001601360ff168152602001601360ff168152602001601460ff168152602001601460ff168152602001601460ff168152602001601560ff168152602001601560ff168152602001601560ff168152602001601660ff168152602001601660ff168152602001601660ff168152602001601760ff168152602001601760ff168152602001601760ff168152602001601860ff168152602001601860ff168152602001601860ff168152602001601960ff168152602001601a60ff168152602001601b60ff168152602001601c60ff168152602001601d60ff168152602001601e60ff168152602001601f60ff1681525060129060646200077f929190620008ec565b5062000a55565b600033905090565b60008060009054906101000a900473ffffffffffffffffffffffffffffffffffffffff169050816000806101000a81548173ffffffffffffffffffffffffffffffffffffffff021916908373ffffffffffffffffffffffffffffffffffffffff1602179055508173ffffffffffffffffffffffffffffffffffffffff168173ffffffffffffffffffffffffffffffffffffffff167f8be0079c531659141344cd1fd0a4f28419497f9722a3daafe3b4186f6b6457e060405160405180910390a35050565b60006001905090565b828054620008699062000a20565b90600052602060002090601f0160209004810192826200088d5760008555620008d9565b82601f10620008a857805160ff1916838001178555620008d9565b82800160010185558215620008d9579182015b82811115620008d8578251825591602001919060010190620008bb565b5b509050620008e8919062000943565b5090565b82805482825590600052602060002090810192821562000930579160200282015b828111156200092f578251829060ff169055916020019190600101906200090d565b5b5090506200093f919062000943565b5090565b5b808211156200095e57600081600090555060010162000944565b5090565b600073ffffffffffffffffffffffffffffffffffffffff82169050919050565b60006200098f8262000962565b9050919050565b620009a18162000982565b82525050565b6000604082019050620009be600083018562000996565b620009cd602083018462000996565b9392505050565b6000602082019050620009eb600083018462000996565b92915050565b7f4e487b7100000000000000000000000000000000000000000000000000000000600052602260045260246000fd5b6000600282049050600182168062000a3957607f821691505b60208210810362000a4f5762000a4e620009f1565b5b50919050565b6141288062000a656000396000f3fe6080604052600436106102305760003560e01c80638da5cb5b1161012e578063c87b56dd116100ab578063e8a3d4851161006f578063e8a3d4851461080a578063e985e9c514610835578063f2fde38b14610872578063f307101a1461089b578063f46a04eb146108d857610230565b8063c87b56dd14610723578063d123973014610760578063d547cfb71461078b578063dc5eb76d146107b6578063e59d0581146107e157610230565b8063a035b1fe116100f2578063a035b1fe14610654578063a22cb4651461067f578063afa20f54146106a8578063b88d4fde146106d1578063c254cc7b146106fa57610230565b80638da5cb5b1461058157806391b7f5ed146105ac57806391ff7e01146105d557806395d89b41146105fe57806398d5fdca1461062957610230565b80633ccfd60b116101bc57806362b99ad41161018057806362b99ad41461049a5780636352211e146104c557806370a0823114610502578063715018a61461053f578063796547011461055657610230565b80633ccfd60b146103d957806342842e0e146103f0578063486a7e6b146104195780635503a0e8146104445780635aba27af1461046f57610230565b8063095ea7b311610203578063095ea7b31461030357806318160ddd1461032c5780631b2ef1ca1461035757806323b872dd146103735780633a34c4801461039c57610230565b806301ffc9a71461023557806304b5085e1461027257806306fdde031461029b578063081812fc146102c6575b600080fd5b34801561024157600080fd5b5061025c60048036038101906102579190612f1b565b610901565b6040516102699190612f63565b60405180910390f35b34801561027e57600080fd5b5061029960048036038101906102949190612fb4565b610993565b005b3480156102a757600080fd5b506102b0610a2f565b6040516102bd919061307a565b60405180910390f35b3480156102d257600080fd5b506102ed60048036038101906102e89190612fb4565b610ac1565b6040516102fa91906130dd565b60405180910390f35b34801561030f57600080fd5b5061032a60048036038101906103259190613124565b610b40565b005b34801561033857600080fd5b50610341610c84565b60405161034e9190613173565b60405180910390f35b610371600480360381019061036c919061318e565b610c9b565b005b34801561037f57600080fd5b5061039a600480360381019061039591906131ce565b610dce565b005b3480156103a857600080fd5b506103c360048036038101906103be9190612fb4565b610fb0565b6040516103d09190612f63565b60405180910390f35b3480156103e557600080fd5b506103ee610fcd565b005b3480156103fc57600080fd5b50610417600480360381019061041291906131ce565b61101e565b005b34801561042557600080fd5b5061042e611200565b60405161043b9190613173565b60405180910390f35b34801561045057600080fd5b50610459611206565b604051610466919061307a565b60405180910390f35b34801561047b57600080fd5b50610484611294565b6040516104919190612f63565b60405180910390f35b3480156104a657600080fd5b506104af6112f6565b6040516104bc919061307a565b60405180910390f35b3480156104d157600080fd5b506104ec60048036038101906104e79190612fb4565b611384565b6040516104f991906130dd565b60405180910390f35b34801561050e57600080fd5b5061052960048036038101906105249190613221565b611396565b6040516105369190613173565b60405180910390f35b34801561054b57600080fd5b5061055461144e565b005b34801561056257600080fd5b5061056b611462565b6040516105789190613173565b60405180910390f35b34801561058d57600080fd5b50610596611468565b6040516105a391906130dd565b60405180910390f35b3480156105b857600080fd5b506105d360048036038101906105ce9190612fb4565b611491565b005b3480156105e157600080fd5b506105fc60048036038101906105f79190613124565b6114a3565b005b34801561060a57600080fd5b50610613611822565b604051610620919061307a565b60405180910390f35b34801561063557600080fd5b5061063e6118b4565b60405161064b9190613173565b60405180910390f35b34801561066057600080fd5b506106696118be565b6040516106769190613173565b60405180910390f35b34801561068b57600080fd5b506106a660048036038101906106a1919061327a565b6118c4565b005b3480156106b457600080fd5b506106cf60048036038101906106ca9190613221565b611a3b565b005b3480156106dd57600080fd5b506106f860048036038101906106f391906133ef565b611a87565b005b34801561070657600080fd5b50610721600480360381019061071c9190613221565b611c6c565b005b34801561072f57600080fd5b5061074a60048036038101906107459190612fb4565b611cb8565b604051610757919061307a565b60405180910390f35b34801561076c57600080fd5b50610775611d75565b6040516107829190612f63565b60405180910390f35b34801561079757600080fd5b506107a0611d88565b6040516107ad919061307a565b60405180910390f35b3480156107c257600080fd5b506107cb611d97565b6040516107d89190613173565b60405180910390f35b3480156107ed57600080fd5b506108086004803603810190610803919061353a565b611d9d565b005b34801561081657600080fd5b5061081f611dcd565b60405161082c919061307a565b60405180910390f35b34801561084157600080fd5b5061085c60048036038101906108579190613583565b611ded565b6040516108699190612f63565b60405180910390f35b34801561087e57600080fd5b5061089960048036038101906108949190613221565b611e81565b005b3480156108a757600080fd5b506108c260048036038101906108bd9190612fb4565b611f04565b6040516108cf9190613173565b60405180910390f35b3480156108e457600080fd5b506108ff60048036038101906108fa91906135c3565b611f21565b005b60006301ffc9a760e01b827bffffffffffffffffffffffffffffffffffffffffffffffffffffffff1916148061095c57506380ac58cd60e01b827bffffffffffffffffffffffffffffffffffffffffffffffffffffffff1916145b8061098c5750635b5e139f60e01b827bffffffffffffffffffffffffffffffffffffffffffffffffffffffff1916145b9050919050565b600a60009054906101000a900473ffffffffffffffffffffffffffffffffffffffff1673ffffffffffffffffffffffffffffffffffffffff163373ffffffffffffffffffffffffffffffffffffffff1614610a23576040517f08c379a0000000000000000000000000000000000000000000000000000000008152600401610a1a90613662565b60405180910390fd5b610a2c81611f46565b50565b606060038054610a3e906136b1565b80601f0160208091040260200160405190810160405280929190818152602001828054610a6a906136b1565b8015610ab75780601f10610a8c57610100808354040283529160200191610ab7565b820191906000526020600020905b815481529060010190602001808311610a9a57829003601f168201915b5050505050905090565b6000610acc82611f54565b610b02576040517fcf4700e400000000000000000000000000000000000000000000000000000000815260040160405180910390fd5b6007600083815260200190815260200160002060000160009054906101000a900473ffffffffffffffffffffffffffffffffffffffff169050919050565b6000610b4b82611384565b90508073ffffffffffffffffffffffffffffffffffffffff16610b6c611fb3565b73ffffffffffffffffffffffffffffffffffffffff1614610bcf57610b9881610b93611fb3565b611ded565b610bce576040517fcfb3b94200000000000000000000000000000000000000000000000000000000815260040160405180910390fd5b5b826007600084815260200190815260200160002060000160006101000a81548173ffffffffffffffffffffffffffffffffffffffff021916908373ffffffffffffffffffffffffffffffffffffffff160217905550818373ffffffffffffffffffffffffffffffffffffffff168273ffffffffffffffffffffffffffffffffffffffff167f8c5be1e5ebec7d5bd14f71427d1e84f3dd0314c0f7b2291e5b200ac8c7c3b92560405160405180910390a4505050565b6000610c8e611fbb565b6002546001540303905090565b601060009054906101000a900460ff16610cea576040517f08c379a0000000000000000000000000000000000000000000000000000000008152600401610ce19061372e565b60405180910390fd5b600060128054905011610d32576040517f08c379a0000000000000000000000000000000000000000000000000000000008152600401610d299061379a565b60405180910390fd5b81610d3b6118b4565b610d4591906137e9565b341015610d87576040517f08c379a0000000000000000000000000000000000000000000000000000000008152600401610d7e906138b5565b60405180910390fd5b610d913383611fc4565b7f76020ece75bf679c701e656fcffc7e3df8354859b3b0eb7fee42b1378023bb313382604051610dc29291906138d5565b60405180910390a15050565b8260006daaeb6d7670e522a718067333cd4e73ffffffffffffffffffffffffffffffffffffffff163b1115610f9e573373ffffffffffffffffffffffffffffffffffffffff168173ffffffffffffffffffffffffffffffffffffffff1603610e4057610e3b848484612180565b610faa565b6daaeb6d7670e522a718067333cd4e73ffffffffffffffffffffffffffffffffffffffff1663c617113430336040518363ffffffff1660e01b8152600401610e899291906138fe565b602060405180830381865afa158015610ea6573d6000803e3d6000fd5b505050506040513d601f19601f82011682018060405250810190610eca919061393c565b8015610f5c57506daaeb6d7670e522a718067333cd4e73ffffffffffffffffffffffffffffffffffffffff1663c617113430836040518363ffffffff1660e01b8152600401610f1a9291906138fe565b602060405180830381865afa158015610f37573d6000803e3d6000fd5b505050506040513d601f19601f82011682018060405250810190610f5b919061393c565b5b610f9d57336040517fede71dcc000000000000000000000000000000000000000000000000000000008152600401610f9491906130dd565b60405180910390fd5b5b610fa9848484612180565b5b50505050565b6000600e548210158015610fc65750600f548211155b9050919050565b610fd56124a2565b3373ffffffffffffffffffffffffffffffffffffffff166108fc479081150290604051600060405180830381858888f1935050505015801561101b573d6000803e3d6000fd5b50565b8260006daaeb6d7670e522a718067333cd4e73ffffffffffffffffffffffffffffffffffffffff163b11156111ee573373ffffffffffffffffffffffffffffffffffffffff168173ffffffffffffffffffffffffffffffffffffffff16036110905761108b848484612520565b6111fa565b6daaeb6d7670e522a718067333cd4e73ffffffffffffffffffffffffffffffffffffffff1663c617113430336040518363ffffffff1660e01b81526004016110d99291906138fe565b602060405180830381865afa1580156110f6573d6000803e3d6000fd5b505050506040513d601f19601f8201168201806040525081019061111a919061393c565b80156111ac57506daaeb6d7670e522a718067333cd4e73ffffffffffffffffffffffffffffffffffffffff1663c617113430836040518363ffffffff1660e01b815260040161116a9291906138fe565b602060405180830381865afa158015611187573d6000803e3d6000fd5b505050506040513d601f19601f820116820180604052508101906111ab919061393c565b5b6111ed57336040517fede71dcc0000000000000000000000000000000000000000000000000000000081526004016111e491906130dd565b60405180910390fd5b5b6111f9848484612520565b5b50505050565b600d5481565b600c8054611213906136b1565b80601f016020809104026020016040519081016040528092919081815260200182805461123f906136b1565b801561128c5780601f106112615761010080835404028352916020019161128c565b820191906000526020600020905b81548152906001019060200180831161126f57829003601f168201915b505050505081565b600080601280549050905060005b818110156112ec576112d1601282815481106112c1576112c0613969565b5b9060005260206000200154610fb0565b156112e1576001925050506112f3565b8060010190506112a2565b5060009150505b90565b600b8054611303906136b1565b80601f016020809104026020016040519081016040528092919081815260200182805461132f906136b1565b801561137c5780601f106113515761010080835404028352916020019161137c565b820191906000526020600020905b81548152906001019060200180831161135f57829003601f168201915b505050505081565b600061138f82612540565b9050919050565b60008073ffffffffffffffffffffffffffffffffffffffff168273ffffffffffffffffffffffffffffffffffffffff16036113fd576040517f8f4eb60400000000000000000000000000000000000000000000000000000000815260040160405180910390fd5b67ffffffffffffffff600660008473ffffffffffffffffffffffffffffffffffffffff1673ffffffffffffffffffffffffffffffffffffffff16815260200190815260200160002054169050919050565b6114566124a2565b611460600061260c565b565b600e5481565b60008060009054906101000a900473ffffffffffffffffffffffffffffffffffffffff16905090565b6114996124a2565b8060118190555050565b600960009054906101000a900473ffffffffffffffffffffffffffffffffffffffff1673ffffffffffffffffffffffffffffffffffffffff163373ffffffffffffffffffffffffffffffffffffffff1614611533576040517f08c379a000000000000000000000000000000000000000000000000000000000815260040161152a90613a0a565b60405180910390fd5b60006012805490501161157b576040517f08c379a00000000000000000000000000000000000000000000000000000000081526004016115729061379a565b60405180910390fd5b3273ffffffffffffffffffffffffffffffffffffffff168273ffffffffffffffffffffffffffffffffffffffff16146115e9576040517f08c379a00000000000000000000000000000000000000000000000000000000081526004016115e090613a76565b60405180910390fd5b6001811480156115fe57506115fc611294565b155b1561163e576040517f08c379a000000000000000000000000000000000000000000000000000000000815260040161163590613b08565b60405180910390fd5b60006116486126d0565b6001436116559190613b28565b404460405160200161166993929190613bf0565b6040516020818303038152906040528051906020012060001c9050600060128054905090506001830361170c576000805b828110156116e1576116c9601282815481106116b9576116b8613969565b5b9060005260206000200154610fb0565b156116d6578091506116e1565b80600101905061169a565b5080826116ee9190613b28565b836116f99190613c5c565b816117049190613c8d565b92505061171b565b80826117189190613c5c565b91505b60006012838154811061173157611730613969565b5b90600052602060002001549050611749856001611fc4565b80601360006117566126d8565b8152602001908152602001600020819055506012600160128054905061177c9190613b28565b8154811061178d5761178c613969565b5b9060005260206000200154601284815481106117ac576117ab613969565b5b906000526020600020018190555060128054806117cc576117cb613ce3565b5b600190038181906000526020600020016000905590557f76020ece75bf679c701e656fcffc7e3df8354859b3b0eb7fee42b1378023bb3133826040516118139291906138d5565b60405180910390a15050505050565b606060048054611831906136b1565b80601f016020809104026020016040519081016040528092919081815260200182805461185d906136b1565b80156118aa5780601f1061187f576101008083540402835291602001916118aa565b820191906000526020600020905b81548152906001019060200180831161188d57829003601f168201915b5050505050905090565b6000601154905090565b60115481565b6118cc611fb3565b73ffffffffffffffffffffffffffffffffffffffff168273ffffffffffffffffffffffffffffffffffffffff1603611930576040517fb06307db00000000000000000000000000000000000000000000000000000000815260040160405180910390fd5b806008600061193d611fb3565b73ffffffffffffffffffffffffffffffffffffffff1673ffffffffffffffffffffffffffffffffffffffff16815260200190815260200160002060008473ffffffffffffffffffffffffffffffffffffffff1673ffffffffffffffffffffffffffffffffffffffff16815260200190815260200160002060006101000a81548160ff0219169083151502179055508173ffffffffffffffffffffffffffffffffffffffff166119ea611fb3565b73ffffffffffffffffffffffffffffffffffffffff167f17307eab39ab6107e8899845ad3d59bd9653f200f220920489ca2b5937696c3183604051611a2f9190612f63565b60405180910390a35050565b611a436124a2565b80600a60006101000a81548173ffffffffffffffffffffffffffffffffffffffff021916908373ffffffffffffffffffffffffffffffffffffffff16021790555050565b8360006daaeb6d7670e522a718067333cd4e73ffffffffffffffffffffffffffffffffffffffff163b1115611c58573373ffffffffffffffffffffffffffffffffffffffff168173ffffffffffffffffffffffffffffffffffffffff1603611afa57611af5858585856126eb565b611c65565b6daaeb6d7670e522a718067333cd4e73ffffffffffffffffffffffffffffffffffffffff1663c617113430336040518363ffffffff1660e01b8152600401611b439291906138fe565b602060405180830381865afa158015611b60573d6000803e3d6000fd5b505050506040513d601f19601f82011682018060405250810190611b84919061393c565b8015611c1657506daaeb6d7670e522a718067333cd4e73ffffffffffffffffffffffffffffffffffffffff1663c617113430836040518363ffffffff1660e01b8152600401611bd49291906138fe565b602060405180830381865afa158015611bf1573d6000803e3d6000fd5b505050506040513d601f19601f82011682018060405250810190611c15919061393c565b5b611c5757336040517fede71dcc000000000000000000000000000000000000000000000000000000008152600401611c4e91906130dd565b60405180910390fd5b5b611c64858585856126eb565b5b5050505050565b611c746124a2565b80600960006101000a81548173ffffffffffffffffffffffffffffffffffffffff021916908373ffffffffffffffffffffffffffffffffffffffff16021790555050565b6060611cc382611f54565b611d02576040517f08c379a0000000000000000000000000000000000000000000000000000000008152600401611cf990613d84565b60405180910390fd5b6000611d0c61275e565b90506000815111611d2c5760405180602001604052806000815250611d6d565b80611d49601360008681526020019081526020016000205461277e565b600c604051602001611d5d93929190613e74565b6040516020818303038152906040525b915050919050565b601060009054906101000a900460ff1681565b6060611d9261275e565b905090565b600f5481565b611da56124a2565b60126000611db39190612e24565b8060129080519060200190611dc9929190612e45565b5050565b60606040518060600160405280603681526020016140bd60369139905090565b6000600860008473ffffffffffffffffffffffffffffffffffffffff1673ffffffffffffffffffffffffffffffffffffffff16815260200190815260200160002060008373ffffffffffffffffffffffffffffffffffffffff1673ffffffffffffffffffffffffffffffffffffffff16815260200190815260200160002060009054906101000a900460ff16905092915050565b611e896124a2565b600073ffffffffffffffffffffffffffffffffffffffff168173ffffffffffffffffffffffffffffffffffffffff1603611ef8576040517f08c379a0000000000000000000000000000000000000000000000000000000008152600401611eef90613f17565b60405180910390fd5b611f018161260c565b50565b600060136000838152602001908152602001600020549050919050565b611f296124a2565b80601060006101000a81548160ff02191690831515021790555050565b611f5181600061284c565b50565b600081611f5f611fbb565b11158015611f6e575060015482105b8015611fac575060007c0100000000000000000000000000000000000000000000000000000000600560008581526020019081526020016000205416145b9050919050565b600033905090565b60006001905090565b6000600154905060008203612005576040517fb562e8dd00000000000000000000000000000000000000000000000000000000815260040160405180910390fd5b6120126000848385612a9e565b600160406001901b178202600660008573ffffffffffffffffffffffffffffffffffffffff1673ffffffffffffffffffffffffffffffffffffffff168152602001908152602001600020600082825401925050819055506120898361207a6000866000612aa4565b61208385612acc565b17612adc565b6005600083815260200190815260200160002081905550600080838301905073ffffffffffffffffffffffffffffffffffffffff85169150828260007fddf252ad1be2c89b69c2b068fc378daa952ba7f163c4a11628f55a4df523b3ef600080a4600183015b81811461212a57808360007fddf252ad1be2c89b69c2b068fc378daa952ba7f163c4a11628f55a4df523b3ef600080a46001810190506120ef565b5060008203612165576040517f2e07630000000000000000000000000000000000000000000000000000000000815260040160405180910390fd5b80600181905550505061217b6000848385612b07565b505050565b600061218b82612540565b90508373ffffffffffffffffffffffffffffffffffffffff168173ffffffffffffffffffffffffffffffffffffffff16146121f2576040517fa114810000000000000000000000000000000000000000000000000000000000815260040160405180910390fd5b6000806121fe84612b0d565b91509150612214818761220f611fb3565b612b34565b6122605761222986612224611fb3565b611ded565b61225f576040517f59c896be00000000000000000000000000000000000000000000000000000000815260040160405180910390fd5b5b600073ffffffffffffffffffffffffffffffffffffffff168573ffffffffffffffffffffffffffffffffffffffff16036122c6576040517fea553b3400000000000000000000000000000000000000000000000000000000815260040160405180910390fd5b6122d38686866001612a9e565b80156122de57600082555b600660008773ffffffffffffffffffffffffffffffffffffffff1673ffffffffffffffffffffffffffffffffffffffff168152602001908152602001600020600081546001900391905081905550600660008673ffffffffffffffffffffffffffffffffffffffff1673ffffffffffffffffffffffffffffffffffffffff16815260200190815260200160002060008154600101919050819055506123ac85612388888887612aa4565b7c020000000000000000000000000000000000000000000000000000000017612adc565b600560008681526020019081526020016000208190555060007c0200000000000000000000000000000000000000000000000000000000841603612432576000600185019050600060056000838152602001908152602001600020540361243057600154811461242f578360056000838152602001908152602001600020819055505b5b505b838573ffffffffffffffffffffffffffffffffffffffff168773ffffffffffffffffffffffffffffffffffffffff167fddf252ad1be2c89b69c2b068fc378daa952ba7f163c4a11628f55a4df523b3ef60405160405180910390a461249a8686866001612b07565b505050505050565b6124aa6126d0565b73ffffffffffffffffffffffffffffffffffffffff166124c8611468565b73ffffffffffffffffffffffffffffffffffffffff161461251e576040517f08c379a000000000000000000000000000000000000000000000000000000000815260040161251590613f83565b60405180910390fd5b565b61253b83838360405180602001604052806000815250611a87565b505050565b6000808290508061254f611fbb565b116125d5576001548110156125d45760006005600083815260200190815260200160002054905060007c01000000000000000000000000000000000000000000000000000000008216036125d2575b600081036125c857600560008360019003935083815260200190815260200160002054905061259e565b8092505050612607565b505b5b6040517fdf2d9b4200000000000000000000000000000000000000000000000000000000815260040160405180910390fd5b919050565b60008060009054906101000a900473ffffffffffffffffffffffffffffffffffffffff169050816000806101000a81548173ffffffffffffffffffffffffffffffffffffffff021916908373ffffffffffffffffffffffffffffffffffffffff1602179055508173ffffffffffffffffffffffffffffffffffffffff168173ffffffffffffffffffffffffffffffffffffffff167f8be0079c531659141344cd1fd0a4f28419497f9722a3daafe3b4186f6b6457e060405160405180910390a35050565b600033905090565b60006126e2611fbb565b60015403905090565b6126f6848484610dce565b60008373ffffffffffffffffffffffffffffffffffffffff163b146127585761272184848484612b78565b612757576040517fd1a57ed600000000000000000000000000000000000000000000000000000000815260040160405180910390fd5b5b50505050565b606060405180606001604052806036815260200161408760369139905090565b60606000600161278d84612cc8565b01905060008167ffffffffffffffff8111156127ac576127ab6132c4565b5b6040519080825280601f01601f1916602001820160405280156127de5781602001600182028036833780820191505090505b509050600082602001820190505b600115612841578080600190039150507f3031323334353637383961626364656600000000000000000000000000000000600a86061a8153600a858161283557612834613c2d565b5b049450600085036127ec575b819350505050919050565b600061285783612540565b9050600081905060008061286a86612b0d565b9150915084156128d3576128868184612881611fb3565b612b34565b6128d25761289b83612896611fb3565b611ded565b6128d1576040517f59c896be00000000000000000000000000000000000000000000000000000000815260040160405180910390fd5b5b5b6128e1836000886001612a9e565b80156128ec57600082555b600160806001901b03600660008573ffffffffffffffffffffffffffffffffffffffff1673ffffffffffffffffffffffffffffffffffffffff168152602001908152602001600020600082825401925050819055506129948361295185600088612aa4565b7c02000000000000000000000000000000000000000000000000000000007c01000000000000000000000000000000000000000000000000000000001717612adc565b600560008881526020019081526020016000208190555060007c0200000000000000000000000000000000000000000000000000000000851603612a1a5760006001870190506000600560008381526020019081526020016000205403612a18576001548114612a17578460056000838152602001908152602001600020819055505b5b505b85600073ffffffffffffffffffffffffffffffffffffffff168473ffffffffffffffffffffffffffffffffffffffff167fddf252ad1be2c89b69c2b068fc378daa952ba7f163c4a11628f55a4df523b3ef60405160405180910390a4612a84836000886001612b07565b600260008154809291906001019190505550505050505050565b50505050565b60008060e883901c905060e8612abb868684612e1b565b62ffffff16901b9150509392505050565b60006001821460e11b9050919050565b600073ffffffffffffffffffffffffffffffffffffffff83169250814260a01b178317905092915050565b50505050565b60008060006007600085815260200190815260200160002090508092508254915050915091565b600073ffffffffffffffffffffffffffffffffffffffff8316925073ffffffffffffffffffffffffffffffffffffffff821691508382148383141790509392505050565b60008373ffffffffffffffffffffffffffffffffffffffff1663150b7a02612b9e611fb3565b8786866040518563ffffffff1660e01b8152600401612bc09493929190613ff8565b6020604051808303816000875af1925050508015612bfc57506040513d601f19601f82011682018060405250810190612bf99190614059565b60015b612c75573d8060008114612c2c576040519150601f19603f3d011682016040523d82523d6000602084013e612c31565b606091505b506000815103612c6d576040517fd1a57ed600000000000000000000000000000000000000000000000000000000815260040160405180910390fd5b805181602001fd5b63150b7a0260e01b7bffffffffffffffffffffffffffffffffffffffffffffffffffffffff1916817bffffffffffffffffffffffffffffffffffffffffffffffffffffffff191614915050949350505050565b600080600090507a184f03e93ff9f4daa797ed6e38ed64bf6a1f0100000000000000008310612d26577a184f03e93ff9f4daa797ed6e38ed64bf6a1f0100000000000000008381612d1c57612d1b613c2d565b5b0492506040810190505b6d04ee2d6d415b85acef81000000008310612d63576d04ee2d6d415b85acef81000000008381612d5957612d58613c2d565b5b0492506020810190505b662386f26fc100008310612d9257662386f26fc100008381612d8857612d87613c2d565b5b0492506010810190505b6305f5e1008310612dbb576305f5e1008381612db157612db0613c2d565b5b0492506008810190505b6127108310612de0576127108381612dd657612dd5613c2d565b5b0492506004810190505b60648310612e035760648381612df957612df8613c2d565b5b0492506002810190505b600a8310612e12576001810190505b80915050919050565b60009392505050565b5080546000825590600052602060002090810190612e429190612e92565b50565b828054828255906000526020600020908101928215612e81579160200282015b82811115612e80578251825591602001919060010190612e65565b5b509050612e8e9190612e92565b5090565b5b80821115612eab576000816000905550600101612e93565b5090565b6000604051905090565b600080fd5b600080fd5b60007fffffffff0000000000000000000000000000000000000000000000000000000082169050919050565b612ef881612ec3565b8114612f0357600080fd5b50565b600081359050612f1581612eef565b92915050565b600060208284031215612f3157612f30612eb9565b5b6000612f3f84828501612f06565b91505092915050565b60008115159050919050565b612f5d81612f48565b82525050565b6000602082019050612f786000830184612f54565b92915050565b6000819050919050565b612f9181612f7e565b8114612f9c57600080fd5b50565b600081359050612fae81612f88565b92915050565b600060208284031215612fca57612fc9612eb9565b5b6000612fd884828501612f9f565b91505092915050565b600081519050919050565b600082825260208201905092915050565b60005b8381101561301b578082015181840152602081019050613000565b8381111561302a576000848401525b50505050565b6000601f19601f8301169050919050565b600061304c82612fe1565b6130568185612fec565b9350613066818560208601612ffd565b61306f81613030565b840191505092915050565b600060208201905081810360008301526130948184613041565b905092915050565b600073ffffffffffffffffffffffffffffffffffffffff82169050919050565b60006130c78261309c565b9050919050565b6130d7816130bc565b82525050565b60006020820190506130f260008301846130ce565b92915050565b613101816130bc565b811461310c57600080fd5b50565b60008135905061311e816130f8565b92915050565b6000806040838503121561313b5761313a612eb9565b5b60006131498582860161310f565b925050602061315a85828601612f9f565b9150509250929050565b61316d81612f7e565b82525050565b60006020820190506131886000830184613164565b92915050565b600080604083850312156131a5576131a4612eb9565b5b60006131b385828601612f9f565b92505060206131c485828601612f9f565b9150509250929050565b6000806000606084860312156131e7576131e6612eb9565b5b60006131f58682870161310f565b93505060206132068682870161310f565b925050604061321786828701612f9f565b9150509250925092565b60006020828403121561323757613236612eb9565b5b60006132458482850161310f565b91505092915050565b61325781612f48565b811461326257600080fd5b50565b6000813590506132748161324e565b92915050565b6000806040838503121561329157613290612eb9565b5b600061329f8582860161310f565b92505060206132b085828601613265565b9150509250929050565b600080fd5b600080fd5b7f4e487b7100000000000000000000000000000000000000000000000000000000600052604160045260246000fd5b6132fc82613030565b810181811067ffffffffffffffff8211171561331b5761331a6132c4565b5b80604052505050565b600061332e612eaf565b905061333a82826132f3565b919050565b600067ffffffffffffffff82111561335a576133596132c4565b5b61336382613030565b9050602081019050919050565b82818337600083830152505050565b600061339261338d8461333f565b613324565b9050828152602081018484840111156133ae576133ad6132bf565b5b6133b9848285613370565b509392505050565b600082601f8301126133d6576133d56132ba565b5b81356133e684826020860161337f565b91505092915050565b6000806000806080858703121561340957613408612eb9565b5b60006134178782880161310f565b94505060206134288782880161310f565b935050604061343987828801612f9f565b925050606085013567ffffffffffffffff81111561345a57613459612ebe565b5b613466878288016133c1565b91505092959194509250565b600067ffffffffffffffff82111561348d5761348c6132c4565b5b602082029050602081019050919050565b600080fd5b60006134b66134b184613472565b613324565b905080838252602082019050602084028301858111156134d9576134d861349e565b5b835b8181101561350257806134ee8882612f9f565b8452602084019350506020810190506134db565b5050509392505050565b600082601f830112613521576135206132ba565b5b81356135318482602086016134a3565b91505092915050565b6000602082840312156135505761354f612eb9565b5b600082013567ffffffffffffffff81111561356e5761356d612ebe565b5b61357a8482850161350c565b91505092915050565b6000806040838503121561359a57613599612eb9565b5b60006135a88582860161310f565b92505060206135b98582860161310f565b9150509250929050565b6000602082840312156135d9576135d8612eb9565b5b60006135e784828501613265565b91505092915050565b7f4f6e6c792074686520457175697020736d61727420636f6e747261637420636160008201527f6e206275726e2066726f6d206571756970000000000000000000000000000000602082015250565b600061364c603183612fec565b9150613657826135f0565b604082019050919050565b6000602082019050818103600083015261367b8161363f565b9050919050565b7f4e487b7100000000000000000000000000000000000000000000000000000000600052602260045260246000fd5b600060028204905060018216806136c957607f821691505b6020821081036136dc576136db613682565b5b50919050565b7f4d696e74696e67206973206e6f7420656e61626c656400000000000000000000600082015250565b6000613718601683612fec565b9150613723826136e2565b602082019050919050565b600060208201905081810360008301526137478161370b565b9050919050565b7f4e6f2072656d61696e696e672045676773000000000000000000000000000000600082015250565b6000613784601183612fec565b915061378f8261374e565b602082019050919050565b600060208201905081810360008301526137b381613777565b9050919050565b7f4e487b7100000000000000000000000000000000000000000000000000000000600052601160045260246000fd5b60006137f482612f7e565b91506137ff83612f7e565b9250817fffffffffffffffffffffffffffffffffffffffffffffffffffffffffffffffff0483118215151615613838576138376137ba565b5b828202905092915050565b7f4e6f7420656e6f756768204554482073656e743b20636865636b20707269636560008201527f2100000000000000000000000000000000000000000000000000000000000000602082015250565b600061389f602183612fec565b91506138aa82613843565b604082019050919050565b600060208201905081810360008301526138ce81613892565b9050919050565b60006040820190506138ea60008301856130ce565b6138f76020830184613164565b9392505050565b600060408201905061391360008301856130ce565b61392060208301846130ce565b9392505050565b6000815190506139368161324e565b92915050565b60006020828403121561395257613951612eb9565b5b600061396084828501613927565b91505092915050565b7f4e487b7100000000000000000000000000000000000000000000000000000000600052603260045260246000fd5b7f4f6e6c792074686520426f7820736d61727420636f6e74726163742063616e2060008201527f6d696e7400000000000000000000000000000000000000000000000000000000602082015250565b60006139f4602483612fec565b91506139ff82613998565b604082019050919050565b60006020820190508181036000830152613a23816139e7565b9050919050565b7f6f70656e65722063616e6e6f7420626520736d61727420636f6e747261637400600082015250565b6000613a60601f83612fec565b9150613a6b82613a2a565b602082019050919050565b60006020820190508181036000830152613a8f81613a53565b9050919050565b7f4e6f206d6f7265206f6e652070657263656e742072617269746965732061766160008201527f696c61626c650000000000000000000000000000000000000000000000000000602082015250565b6000613af2602683612fec565b9150613afd82613a96565b604082019050919050565b60006020820190508181036000830152613b2181613ae5565b9050919050565b6000613b3382612f7e565b9150613b3e83612f7e565b925082821015613b5157613b506137ba565b5b828203905092915050565b60008160601b9050919050565b6000613b7482613b5c565b9050919050565b6000613b8682613b69565b9050919050565b613b9e613b99826130bc565b613b7b565b82525050565b6000819050919050565b6000819050919050565b613bc9613bc482613ba4565b613bae565b82525050565b6000819050919050565b613bea613be582612f7e565b613bcf565b82525050565b6000613bfc8286613b8d565b601482019150613c0c8285613bb8565b602082019150613c1c8284613bd9565b602082019150819050949350505050565b7f4e487b7100000000000000000000000000000000000000000000000000000000600052601260045260246000fd5b6000613c6782612f7e565b9150613c7283612f7e565b925082613c8257613c81613c2d565b5b828206905092915050565b6000613c9882612f7e565b9150613ca383612f7e565b9250827fffffffffffffffffffffffffffffffffffffffffffffffffffffffffffffffff03821115613cd857613cd76137ba565b5b828201905092915050565b7f4e487b7100000000000000000000000000000000000000000000000000000000600052603160045260246000fd5b7f4552433732314d657461646174613a2055524920717565727920666f72206e6f60008201527f6e6578697374656e7420746f6b656e0000000000000000000000000000000000602082015250565b6000613d6e602f83612fec565b9150613d7982613d12565b604082019050919050565b60006020820190508181036000830152613d9d81613d61565b9050919050565b600081905092915050565b6000613dba82612fe1565b613dc48185613da4565b9350613dd4818560208601612ffd565b80840191505092915050565b60008190508160005260206000209050919050565b60008154613e02816136b1565b613e0c8186613da4565b94506001821660008114613e275760018114613e3857613e6b565b60ff19831686528186019350613e6b565b613e4185613de0565b60005b83811015613e6357815481890152600182019150602081019050613e44565b838801955050505b50505092915050565b6000613e808286613daf565b9150613e8c8285613daf565b9150613e988284613df5565b9150819050949350505050565b7f4f776e61626c653a206e6577206f776e657220697320746865207a65726f206160008201527f6464726573730000000000000000000000000000000000000000000000000000602082015250565b6000613f01602683612fec565b9150613f0c82613ea5565b604082019050919050565b60006020820190508181036000830152613f3081613ef4565b9050919050565b7f4f776e61626c653a2063616c6c6572206973206e6f7420746865206f776e6572600082015250565b6000613f6d602083612fec565b9150613f7882613f37565b602082019050919050565b60006020820190508181036000830152613f9c81613f60565b9050919050565b600081519050919050565b600082825260208201905092915050565b6000613fca82613fa3565b613fd48185613fae565b9350613fe4818560208601612ffd565b613fed81613030565b840191505092915050565b600060808201905061400d60008301876130ce565b61401a60208301866130ce565b6140276040830185613164565b81810360608301526140398184613fbf565b905095945050505050565b60008151905061405381612eef565b92915050565b60006020828403121561406f5761406e612eb9565b5b600061407d84828501614044565b9150509291505056fe697066733a2f2f516d4e625751525672747248353555655461676e61514875747366394672426845664275456f6a6957503345556f2f697066733a2f2f516d615663544c626d6d593143557377464243426370766741386959643759456d6141726165463739626638675a2fa26469706673582212200e69b2badf9534b7052d9adfb5e762c53fcc400efc7ae41fc684de2581746e1b64736f6c634300080d0033",
  "linkReferences": {},
  "deployedLinkReferences": {}
}