{
  "_format": "hh-sol-artifact-1",
  "contractName": "NftEgg",
  "sourceName": "src/backend/contracts/NftEgg.sol",
  "abi": [
    {
      "inputs": [],
      "stateMutability": "nonpayable",
      "type": "constructor"
    },
    {
      "inputs": [],
      "name": "ApprovalCallerNotOwnerNorApproved",
      "type": "error"
    },
    {
      "inputs": [],
      "name": "ApprovalQueryForNonexistentToken",
      "type": "error"
    },
    {
      "inputs": [],
      "name": "ApproveToCaller",
      "type": "error"
    },
    {
      "inputs": [],
      "name": "BalanceQueryForZeroAddress",
      "type": "error"
    },
    {
      "inputs": [],
      "name": "MintERC2309QuantityExceedsLimit",
      "type": "error"
    },
    {
      "inputs": [],
      "name": "MintToZeroAddress",
      "type": "error"
    },
    {
      "inputs": [],
      "name": "MintZeroQuantity",
      "type": "error"
    },
    {
      "inputs": [
        {
          "internalType": "address",
          "name": "operator",
          "type": "address"
        }
      ],
      "name": "OperatorNotAllowed",
      "type": "error"
    },
    {
      "inputs": [],
      "name": "OwnerQueryForNonexistentToken",
      "type": "error"
    },
    {
      "inputs": [],
      "name": "OwnershipNotInitializedForExtraData",
      "type": "error"
    },
    {
      "inputs": [],
      "name": "TransferCallerNotOwnerNorApproved",
      "type": "error"
    },
    {
      "inputs": [],
      "name": "TransferFromIncorrectOwner",
      "type": "error"
    },
    {
      "inputs": [],
      "name": "TransferToNonERC721ReceiverImplementer",
      "type": "error"
    },
    {
      "inputs": [],
      "name": "TransferToZeroAddress",
      "type": "error"
    },
    {
      "inputs": [],
      "name": "URIQueryForNonexistentToken",
      "type": "error"
    },
    {
      "anonymous": false,
      "inputs": [
        {
          "indexed": true,
          "internalType": "address",
          "name": "owner",
          "type": "address"
        },
        {
          "indexed": true,
          "internalType": "address",
          "name": "approved",
          "type": "address"
        },
        {
          "indexed": true,
          "internalType": "uint256",
          "name": "tokenId",
          "type": "uint256"
        }
      ],
      "name": "Approval",
      "type": "event"
    },
    {
      "anonymous": false,
      "inputs": [
        {
          "indexed": true,
          "internalType": "address",
          "name": "owner",
          "type": "address"
        },
        {
          "indexed": true,
          "internalType": "address",
          "name": "operator",
          "type": "address"
        },
        {
          "indexed": false,
          "internalType": "bool",
          "name": "approved",
          "type": "bool"
        }
      ],
      "name": "ApprovalForAll",
      "type": "event"
    },
    {
      "anonymous": false,
      "inputs": [
        {
          "indexed": true,
          "internalType": "uint256",
          "name": "fromTokenId",
          "type": "uint256"
        },
        {
          "indexed": false,
          "internalType": "uint256",
          "name": "toTokenId",
          "type": "uint256"
        },
        {
          "indexed": true,
          "internalType": "address",
          "name": "from",
          "type": "address"
        },
        {
          "indexed": true,
          "internalType": "address",
          "name": "to",
          "type": "address"
        }
      ],
      "name": "ConsecutiveTransfer",
      "type": "event"
    },
    {
      "anonymous": false,
      "inputs": [
        {
          "indexed": false,
          "internalType": "address",
          "name": "user",
          "type": "address"
        },
        {
          "indexed": false,
          "internalType": "uint256",
          "name": "metadata",
          "type": "uint256"
        }
      ],
      "name": "MintSuccessful",
      "type": "event"
    },
    {
      "anonymous": false,
      "inputs": [
        {
          "indexed": true,
          "internalType": "address",
          "name": "previousOwner",
          "type": "address"
        },
        {
          "indexed": true,
          "internalType": "address",
          "name": "newOwner",
          "type": "address"
        }
      ],
      "name": "OwnershipTransferred",
      "type": "event"
    },
    {
      "anonymous": false,
      "inputs": [
        {
          "indexed": true,
          "internalType": "address",
          "name": "from",
          "type": "address"
        },
        {
          "indexed": true,
          "internalType": "address",
          "name": "to",
          "type": "address"
        },
        {
          "indexed": true,
          "internalType": "uint256",
          "name": "tokenId",
          "type": "uint256"
        }
      ],
      "name": "Transfer",
      "type": "event"
    },
    {
      "inputs": [
        {
          "internalType": "address",
          "name": "_user",
          "type": "address"
        },
        {
          "internalType": "uint256",
          "name": "_metadata",
          "type": "uint256"
        }
      ],
      "name": "airdrop",
      "outputs": [],
      "stateMutability": "nonpayable",
      "type": "function"
    },
    {
      "inputs": [
        {
          "internalType": "address",
          "name": "to",
          "type": "address"
        },
        {
          "internalType": "uint256",
          "name": "tokenId",
          "type": "uint256"
        }
      ],
      "name": "approve",
      "outputs": [],
      "stateMutability": "nonpayable",
      "type": "function"
    },
    {
      "inputs": [
        {
          "internalType": "address",
          "name": "owner",
          "type": "address"
        }
      ],
      "name": "balanceOf",
      "outputs": [
        {
          "internalType": "uint256",
          "name": "",
          "type": "uint256"
        }
      ],
      "stateMutability": "view",
      "type": "function"
    },
    {
      "inputs": [],
      "name": "baseTokenURI",
      "outputs": [
        {
          "internalType": "string",
          "name": "",
          "type": "string"
        }
      ],
      "stateMutability": "view",
      "type": "function"
    },
    {
      "inputs": [],
      "name": "burnAmount",
      "outputs": [
        {
          "internalType": "uint256",
          "name": "",
          "type": "uint256"
        }
      ],
      "stateMutability": "view",
      "type": "function"
    },
    {
      "inputs": [
        {
          "internalType": "uint256",
          "name": "_tokenId",
          "type": "uint256"
        }
      ],
      "name": "burnFromEquip",
      "outputs": [],
      "stateMutability": "nonpayable",
      "type": "function"
    },
    {
      "inputs": [],
      "name": "contractURI",
      "outputs": [
        {
          "internalType": "string",
          "name": "",
          "type": "string"
        }
      ],
      "stateMutability": "view",
      "type": "function"
    },
    {
      "inputs": [],
      "name": "contractUri",
      "outputs": [
        {
          "internalType": "string",
          "name": "",
          "type": "string"
        }
      ],
      "stateMutability": "view",
      "type": "function"
    },
    {
      "inputs": [
        {
          "internalType": "uint256",
          "name": "tokenId",
          "type": "uint256"
        }
      ],
      "name": "getApproved",
      "outputs": [
        {
          "internalType": "address",
          "name": "",
          "type": "address"
        }
      ],
      "stateMutability": "view",
      "type": "function"
    },
    {
      "inputs": [],
      "name": "getPrice",
      "outputs": [
        {
          "internalType": "uint256",
          "name": "",
          "type": "uint256"
        }
      ],
      "stateMutability": "view",
      "type": "function"
    },
    {
      "inputs": [
        {
          "internalType": "uint256",
          "name": "_tokenId",
          "type": "uint256"
        }
      ],
      "name": "idToMetadata",
      "outputs": [
        {
          "internalType": "uint256",
          "name": "",
          "type": "uint256"
        }
      ],
      "stateMutability": "view",
      "type": "function"
    },
    {
      "inputs": [
        {
          "internalType": "address",
          "name": "owner",
          "type": "address"
        },
        {
          "internalType": "address",
          "name": "operator",
          "type": "address"
        }
      ],
      "name": "isApprovedForAll",
      "outputs": [
        {
          "internalType": "bool",
          "name": "",
          "type": "bool"
        }
      ],
      "stateMutability": "view",
      "type": "function"
    },
    {
      "inputs": [
        {
          "internalType": "uint256",
          "name": "_metadata",
          "type": "uint256"
        }
      ],
      "name": "isOnePercentRarity",
      "outputs": [
        {
          "internalType": "bool",
          "name": "",
          "type": "bool"
        }
      ],
      "stateMutability": "view",
      "type": "function"
    },
    {
      "inputs": [
        {
          "internalType": "uint256",
          "name": "quantity",
          "type": "uint256"
        },
        {
          "internalType": "uint256",
          "name": "_metadataId",
          "type": "uint256"
        }
      ],
      "name": "mint",
      "outputs": [],
      "stateMutability": "payable",
      "type": "function"
    },
    {
      "inputs": [],
      "name": "mintEnabled",
      "outputs": [
        {
          "internalType": "bool",
          "name": "",
          "type": "bool"
        }
      ],
      "stateMutability": "view",
      "type": "function"
    },
    {
      "inputs": [
        {
          "internalType": "address",
          "name": "_user",
          "type": "address"
        },
        {
          "internalType": "bool",
          "name": "_rareOnly",
          "type": "bool"
        }
      ],
      "name": "mintFromBox",
      "outputs": [],
      "stateMutability": "nonpayable",
      "type": "function"
    },
    {
      "inputs": [],
      "name": "name",
      "outputs": [
        {
          "internalType": "string",
          "name": "",
          "type": "string"
        }
      ],
      "stateMutability": "view",
      "type": "function"
    },
    {
      "inputs": [],
      "name": "onePercentRarityAvailable",
      "outputs": [
        {
          "internalType": "bool",
          "name": "",
          "type": "bool"
        }
      ],
      "stateMutability": "view",
      "type": "function"
    },
    {
      "inputs": [],
      "name": "owner",
      "outputs": [
        {
          "internalType": "address",
          "name": "",
          "type": "address"
        }
      ],
      "stateMutability": "view",
      "type": "function"
    },
    {
      "inputs": [
        {
          "internalType": "uint256",
          "name": "tokenId",
          "type": "uint256"
        }
      ],
      "name": "ownerOf",
      "outputs": [
        {
          "internalType": "address",
          "name": "",
          "type": "address"
        }
      ],
      "stateMutability": "view",
      "type": "function"
    },
    {
      "inputs": [],
      "name": "price",
      "outputs": [
        {
          "internalType": "uint256",
          "name": "",
          "type": "uint256"
        }
      ],
      "stateMutability": "view",
      "type": "function"
    },
    {
      "inputs": [],
      "name": "rareFirstId",
      "outputs": [
        {
          "internalType": "uint256",
          "name": "",
          "type": "uint256"
        }
      ],
      "stateMutability": "view",
      "type": "function"
    },
    {
      "inputs": [],
      "name": "rareLastId",
      "outputs": [
        {
          "internalType": "uint256",
          "name": "",
          "type": "uint256"
        }
      ],
      "stateMutability": "view",
      "type": "function"
    },
    {
      "inputs": [
        {
          "internalType": "uint256",
          "name": "",
          "type": "uint256"
        }
      ],
      "name": "remainingEggs",
      "outputs": [
        {
          "internalType": "uint256",
          "name": "",
          "type": "uint256"
        }
      ],
      "stateMutability": "view",
      "type": "function"
    },
    {
      "inputs": [],
      "name": "renounceOwnership",
      "outputs": [],
      "stateMutability": "nonpayable",
      "type": "function"
    },
    {
      "inputs": [
        {
          "internalType": "address",
          "name": "from",
          "type": "address"
        },
        {
          "internalType": "address",
          "name": "to",
          "type": "address"
        },
        {
          "internalType": "uint256",
          "name": "tokenId",
          "type": "uint256"
        }
      ],
      "name": "safeTransferFrom",
      "outputs": [],
      "stateMutability": "nonpayable",
      "type": "function"
    },
    {
      "inputs": [
        {
          "internalType": "address",
          "name": "from",
          "type": "address"
        },
        {
          "internalType": "address",
          "name": "to",
          "type": "address"
        },
        {
          "internalType": "uint256",
          "name": "tokenId",
          "type": "uint256"
        },
        {
          "internalType": "bytes",
          "name": "data",
          "type": "bytes"
        }
      ],
      "name": "safeTransferFrom",
      "outputs": [],
      "stateMutability": "nonpayable",
      "type": "function"
    },
    {
      "inputs": [
        {
          "internalType": "address",
          "name": "operator",
          "type": "address"
        },
        {
          "internalType": "bool",
          "name": "approved",
          "type": "bool"
        }
      ],
      "name": "setApprovalForAll",
      "outputs": [],
      "stateMutability": "nonpayable",
      "type": "function"
    },
    {
      "inputs": [
        {
          "internalType": "address",
          "name": "_address",
          "type": "address"
        }
      ],
      "name": "setBoxAddress",
      "outputs": [],
      "stateMutability": "nonpayable",
      "type": "function"
    },
    {
      "inputs": [
        {
          "internalType": "string",
          "name": "_uri",
          "type": "string"
        }
      ],
      "name": "setContractMetadata",
      "outputs": [],
      "stateMutability": "nonpayable",
      "type": "function"
    },
    {
      "inputs": [
        {
          "internalType": "address",
          "name": "_address",
          "type": "address"
        }
      ],
      "name": "setEquipAddress",
      "outputs": [],
      "stateMutability": "nonpayable",
      "type": "function"
    },
    {
      "inputs": [
        {
          "internalType": "string",
          "name": "_uri",
          "type": "string"
        }
      ],
      "name": "setMetadata",
      "outputs": [],
      "stateMutability": "nonpayable",
      "type": "function"
    },
    {
      "inputs": [
        {
          "internalType": "bool",
          "name": "_state",
          "type": "bool"
        }
      ],
      "name": "setMintEnabled",
      "outputs": [],
      "stateMutability": "nonpayable",
      "type": "function"
    },
    {
      "inputs": [
        {
          "internalType": "uint256",
          "name": "_price",
          "type": "uint256"
        }
      ],
      "name": "setPrice",
      "outputs": [],
      "stateMutability": "nonpayable",
      "type": "function"
    },
    {
      "inputs": [
        {
          "internalType": "uint256",
          "name": "_rareFirstId",
          "type": "uint256"
        }
      ],
      "name": "setRareFirstId",
      "outputs": [],
      "stateMutability": "nonpayable",
      "type": "function"
    },
    {
      "inputs": [
        {
          "internalType": "uint256",
          "name": "_rareLastId",
          "type": "uint256"
        }
      ],
      "name": "setRareLastId",
      "outputs": [],
      "stateMutability": "nonpayable",
      "type": "function"
    },
    {
      "inputs": [
        {
          "internalType": "uint256[]",
          "name": "_remainingEggs",
          "type": "uint256[]"
        }
      ],
      "name": "setRemainingEggs",
      "outputs": [],
      "stateMutability": "nonpayable",
      "type": "function"
    },
    {
      "inputs": [
        {
          "internalType": "bytes4",
          "name": "interfaceId",
          "type": "bytes4"
        }
      ],
      "name": "supportsInterface",
      "outputs": [
        {
          "internalType": "bool",
          "name": "",
          "type": "bool"
        }
      ],
      "stateMutability": "view",
      "type": "function"
    },
    {
      "inputs": [],
      "name": "symbol",
      "outputs": [
        {
          "internalType": "string",
          "name": "",
          "type": "string"
        }
      ],
      "stateMutability": "view",
      "type": "function"
    },
    {
      "inputs": [
        {
          "internalType": "uint256",
          "name": "_tokenId",
          "type": "uint256"
        }
      ],
      "name": "tokenURI",
      "outputs": [
        {
          "internalType": "string",
          "name": "",
          "type": "string"
        }
      ],
      "stateMutability": "view",
      "type": "function"
    },
    {
      "inputs": [],
      "name": "totalSupply",
      "outputs": [
        {
          "internalType": "uint256",
          "name": "",
          "type": "uint256"
        }
      ],
      "stateMutability": "view",
      "type": "function"
    },
    {
      "inputs": [
        {
          "internalType": "address",
          "name": "from",
          "type": "address"
        },
        {
          "internalType": "address",
          "name": "to",
          "type": "address"
        },
        {
          "internalType": "uint256",
          "name": "tokenId",
          "type": "uint256"
        }
      ],
      "name": "transferFrom",
      "outputs": [],
      "stateMutability": "nonpayable",
      "type": "function"
    },
    {
      "inputs": [
        {
          "internalType": "address",
          "name": "newOwner",
          "type": "address"
        }
      ],
      "name": "transferOwnership",
      "outputs": [],
      "stateMutability": "nonpayable",
      "type": "function"
    },
    {
      "inputs": [],
      "name": "uri",
      "outputs": [
        {
          "internalType": "string",
          "name": "",
          "type": "string"
        }
      ],
      "stateMutability": "view",
      "type": "function"
    },
    {
      "inputs": [],
      "name": "uriPrefix",
      "outputs": [
        {
          "internalType": "string",
          "name": "",
          "type": "string"
        }
      ],
      "stateMutability": "view",
      "type": "function"
    },
    {
      "inputs": [],
      "name": "uriSuffix",
      "outputs": [
        {
          "internalType": "string",
          "name": "",
          "type": "string"
        }
      ],
      "stateMutability": "view",
      "type": "function"
    },
    {
      "inputs": [],
      "name": "withdraw",
      "outputs": [],
      "stateMutability": "nonpayable",
      "type": "function"
    }
  ],
  "bytecode": "0x608060405260405180602001604052806000815250600b90805190602001906200002b929190620008bf565b506040518060400160405280600581526020017f2e6a736f6e000000000000000000000000000000000000000000000000000000815250600c908051906020019062000079929190620008bf565b506040518060600160405280603681526020016200518960369139600d9080519060200190620000ab929190620008bf565b50604051806060016040528060368152602001620051bf60369139600e9080519060200190620000dd929190620008bf565b506019601055601f6011556000601355348015620000fa57600080fd5b50733cc6cdda760b79bafa08df41ecfa224f810dceb660016040518060400160405280600381526020017f45676700000000000000000000000000000000000000000000000000000000008152506040518060400160405280600381526020017f45474700000000000000000000000000000000000000000000000000000000008152506200019e62000192620007ea60201b60201c565b620007f260201b60201c565b8160039080519060200190620001b6929190620008bf565b508060049080519060200190620001cf929190620008bf565b50620001e0620008b660201b60201c565b600181905550505060006daaeb6d7670e522a718067333cd4e73ffffffffffffffffffffffffffffffffffffffff163b1115620003dd578015620002a3576daaeb6d7670e522a718067333cd4e73ffffffffffffffffffffffffffffffffffffffff16637d3e3dbe30846040518363ffffffff1660e01b81526004016200026992919062000a0b565b600060405180830381600087803b1580156200028457600080fd5b505af115801562000299573d6000803e3d6000fd5b50505050620003dc565b600073ffffffffffffffffffffffffffffffffffffffff168273ffffffffffffffffffffffffffffffffffffffff16146200035d576daaeb6d7670e522a718067333cd4e73ffffffffffffffffffffffffffffffffffffffff1663a0af290330846040518363ffffffff1660e01b81526004016200032392919062000a0b565b600060405180830381600087803b1580156200033e57600080fd5b505af115801562000353573d6000803e3d6000fd5b50505050620003db565b6daaeb6d7670e522a718067333cd4e73ffffffffffffffffffffffffffffffffffffffff16634420e486306040518263ffffffff1660e01b8152600401620003a6919062000a38565b600060405180830381600087803b158015620003c157600080fd5b505af1158015620003d6573d6000803e3d6000fd5b505050505b5b5b505060405180610c800160405280600160ff168152602001600160ff168152602001600160ff168152602001600160ff168152602001600160ff168152602001600160ff168152602001600160ff168152602001600160ff168152602001600160ff168152602001600160ff168152602001600160ff168152602001600160ff168152602001600160ff168152602001600260ff168152602001600260ff168152602001600260ff168152602001600260ff168152602001600260ff168152602001600260ff168152602001600260ff168152602001600260ff168152602001600260ff168152602001600260ff168152602001600360ff168152602001600360ff168152602001600360ff168152602001600360ff168152602001600360ff168152602001600460ff168152602001600460ff168152602001600460ff168152602001600460ff168152602001600460ff168152602001600560ff168152602001600560ff168152602001600560ff168152602001600660ff168152602001600660ff168152602001600660ff168152602001600760ff168152602001600760ff168152602001600760ff168152602001600860ff168152602001600860ff168152602001600860ff168152602001600960ff168152602001600960ff168152602001600960ff168152602001600a60ff168152602001600a60ff168152602001600a60ff168152602001600b60ff168152602001600b60ff168152602001600b60ff168152602001600c60ff168152602001600c60ff168152602001600c60ff168152602001600d60ff168152602001600d60ff168152602001600d60ff168152602001600e60ff168152602001600e60ff168152602001600e60ff168152602001600f60ff168152602001600f60ff168152602001600f60ff168152602001601060ff168152602001601060ff168152602001601060ff168152602001601160ff168152602001601160ff168152602001601160ff168152602001601260ff168152602001601260ff168152602001601260ff168152602001601360ff168152602001601360ff168152602001601360ff168152602001601460ff168152602001601460ff168152602001601460ff168152602001601560ff168152602001601560ff168152602001601560ff168152602001601660ff168152602001601660ff168152602001601660ff168152602001601760ff168152602001601760ff168152602001601760ff168152602001601860ff168152602001601860ff168152602001601860ff168152602001601960ff168152602001601a60ff168152602001601b60ff168152602001601c60ff168152602001601d60ff168152602001601e60ff168152602001601f60ff168152506014906064620007e392919062000950565b5062000ab9565b600033905090565b60008060009054906101000a900473ffffffffffffffffffffffffffffffffffffffff169050816000806101000a81548173ffffffffffffffffffffffffffffffffffffffff021916908373ffffffffffffffffffffffffffffffffffffffff1602179055508173ffffffffffffffffffffffffffffffffffffffff168173ffffffffffffffffffffffffffffffffffffffff167f8be0079c531659141344cd1fd0a4f28419497f9722a3daafe3b4186f6b6457e060405160405180910390a35050565b60006001905090565b828054620008cd9062000a84565b90600052602060002090601f016020900481019282620008f157600085556200093d565b82601f106200090c57805160ff19168380011785556200093d565b828001600101855582156200093d579182015b828111156200093c5782518255916020019190600101906200091f565b5b5090506200094c9190620009a7565b5090565b82805482825590600052602060002090810192821562000994579160200282015b8281111562000993578251829060ff1690559160200191906001019062000971565b5b509050620009a39190620009a7565b5090565b5b80821115620009c2576000816000905550600101620009a8565b5090565b600073ffffffffffffffffffffffffffffffffffffffff82169050919050565b6000620009f382620009c6565b9050919050565b62000a0581620009e6565b82525050565b600060408201905062000a226000830185620009fa565b62000a316020830184620009fa565b9392505050565b600060208201905062000a4f6000830184620009fa565b92915050565b7f4e487b7100000000000000000000000000000000000000000000000000000000600052602260045260246000fd5b6000600282049050600182168062000a9d57607f821691505b60208210810362000ab35762000ab262000a55565b5b50919050565b6146c08062000ac96000396000f3fe6080604052600436106102885760003560e01c806391b7f5ed1161015a578063d1239730116100c1578063e985e9c51161007a578063e985e9c514610999578063eac989f8146109d6578063f2fde38b14610a01578063f307101a14610a2a578063f46a04eb14610a67578063fce5503714610a9057610288565b8063d12397301461089b578063d547cfb7146108c6578063dc5eb76d146108f1578063e59d05811461091c578063e5fcc53514610945578063e8a3d4851461096e57610288565b8063a49a1e7d11610113578063a49a1e7d1461078f578063afa20f54146107b8578063b88d4fde146107e1578063c0e24d5e1461080a578063c254cc7b14610835578063c87b56dd1461085e57610288565b806391b7f5ed1461067f57806395d89b41146106a857806398d5fdca146106d35780639ec268bd146106fe578063a035b1fe1461073b578063a22cb4651461076657610288565b806342842e0e116101fe5780636437785f116101b75780636437785f1461058357806370a08231146105ac578063715018a6146105e957806379654701146106005780638ba4cc3c1461062b5780638da5cb5b1461065457610288565b806342842e0e14610471578063486a7e6b1461049a5780635503a0e8146104c55780635aba27af146104f057806362b99ad41461051b5780636352211e1461054657610288565b806318160ddd1161025057806318160ddd146103845780631b2ef1ca146103af57806323b872dd146103cb5780632bf7e4cf146103f45780633a34c4801461041d5780633ccfd60b1461045a57610288565b806301ffc9a71461028d57806304b5085e146102ca57806306fdde03146102f3578063081812fc1461031e578063095ea7b31461035b575b600080fd5b34801561029957600080fd5b506102b460048036038101906102af9190613435565b610ab9565b6040516102c1919061347d565b60405180910390f35b3480156102d657600080fd5b506102f160048036038101906102ec91906134ce565b610b4b565b005b3480156102ff57600080fd5b50610308610be7565b6040516103159190613594565b60405180910390f35b34801561032a57600080fd5b50610345600480360381019061034091906134ce565b610c79565b60405161035291906135f7565b60405180910390f35b34801561036757600080fd5b50610382600480360381019061037d919061363e565b610cf8565b005b34801561039057600080fd5b50610399610e3c565b6040516103a6919061368d565b60405180910390f35b6103c960048036038101906103c491906136a8565b610e53565b005b3480156103d757600080fd5b506103f260048036038101906103ed91906136e8565b610fa5565b005b34801561040057600080fd5b5061041b60048036038101906104169190613767565b611187565b005b34801561042957600080fd5b50610444600480360381019061043f91906134ce565b611501565b604051610451919061347d565b60405180910390f35b34801561046657600080fd5b5061046f61151e565b005b34801561047d57600080fd5b50610498600480360381019061049391906136e8565b61156f565b005b3480156104a657600080fd5b506104af611751565b6040516104bc919061368d565b60405180910390f35b3480156104d157600080fd5b506104da611757565b6040516104e79190613594565b60405180910390f35b3480156104fc57600080fd5b506105056117e5565b604051610512919061347d565b60405180910390f35b34801561052757600080fd5b50610530611847565b60405161053d9190613594565b60405180910390f35b34801561055257600080fd5b5061056d600480360381019061056891906134ce565b6118d5565b60405161057a91906135f7565b60405180910390f35b34801561058f57600080fd5b506105aa60048036038101906105a591906134ce565b6118e7565b005b3480156105b857600080fd5b506105d360048036038101906105ce91906137a7565b6118f9565b6040516105e0919061368d565b60405180910390f35b3480156105f557600080fd5b506105fe6119b1565b005b34801561060c57600080fd5b506106156119c5565b604051610622919061368d565b60405180910390f35b34801561063757600080fd5b50610652600480360381019061064d919061363e565b6119cb565b005b34801561066057600080fd5b50610669611a01565b60405161067691906135f7565b60405180910390f35b34801561068b57600080fd5b506106a660048036038101906106a191906134ce565b611a2a565b005b3480156106b457600080fd5b506106bd611a3c565b6040516106ca9190613594565b60405180910390f35b3480156106df57600080fd5b506106e8611ace565b6040516106f5919061368d565b60405180910390f35b34801561070a57600080fd5b50610725600480360381019061072091906134ce565b611ad8565b604051610732919061368d565b60405180910390f35b34801561074757600080fd5b50610750611afc565b60405161075d919061368d565b60405180910390f35b34801561077257600080fd5b5061078d60048036038101906107889190613767565b611b02565b005b34801561079b57600080fd5b506107b660048036038101906107b19190613909565b611c79565b005b3480156107c457600080fd5b506107df60048036038101906107da91906137a7565b611c9b565b005b3480156107ed57600080fd5b50610808600480360381019061080391906139f3565b611ce7565b005b34801561081657600080fd5b5061081f611ecc565b60405161082c9190613594565b60405180910390f35b34801561084157600080fd5b5061085c600480360381019061085791906137a7565b611f5a565b005b34801561086a57600080fd5b50610885600480360381019061088091906134ce565b611fa6565b6040516108929190613594565b60405180910390f35b3480156108a757600080fd5b506108b0612063565b6040516108bd919061347d565b60405180910390f35b3480156108d257600080fd5b506108db612076565b6040516108e89190613594565b60405180910390f35b3480156108fd57600080fd5b50610906612085565b604051610913919061368d565b60405180910390f35b34801561092857600080fd5b50610943600480360381019061093e9190613b3e565b61208b565b005b34801561095157600080fd5b5061096c600480360381019061096791906134ce565b6120bb565b005b34801561097a57600080fd5b506109836120cd565b6040516109909190613594565b60405180910390f35b3480156109a557600080fd5b506109c060048036038101906109bb9190613b87565b61215f565b6040516109cd919061347d565b60405180910390f35b3480156109e257600080fd5b506109eb6121f3565b6040516109f89190613594565b60405180910390f35b348015610a0d57600080fd5b50610a286004803603810190610a2391906137a7565b612281565b005b348015610a3657600080fd5b50610a516004803603810190610a4c91906134ce565b612304565b604051610a5e919061368d565b60405180910390f35b348015610a7357600080fd5b50610a8e6004803603810190610a899190613bc7565b612321565b005b348015610a9c57600080fd5b50610ab76004803603810190610ab29190613909565b612346565b005b60006301ffc9a760e01b827bffffffffffffffffffffffffffffffffffffffffffffffffffffffff19161480610b1457506380ac58cd60e01b827bffffffffffffffffffffffffffffffffffffffffffffffffffffffff1916145b80610b445750635b5e139f60e01b827bffffffffffffffffffffffffffffffffffffffffffffffffffffffff1916145b9050919050565b600a60009054906101000a900473ffffffffffffffffffffffffffffffffffffffff1673ffffffffffffffffffffffffffffffffffffffff163373ffffffffffffffffffffffffffffffffffffffff1614610bdb576040517f08c379a0000000000000000000000000000000000000000000000000000000008152600401610bd290613c66565b60405180910390fd5b610be481612368565b50565b606060038054610bf690613cb5565b80601f0160208091040260200160405190810160405280929190818152602001828054610c2290613cb5565b8015610c6f5780601f10610c4457610100808354040283529160200191610c6f565b820191906000526020600020905b815481529060010190602001808311610c5257829003601f168201915b5050505050905090565b6000610c8482612376565b610cba576040517fcf4700e400000000000000000000000000000000000000000000000000000000815260040160405180910390fd5b6007600083815260200190815260200160002060000160009054906101000a900473ffffffffffffffffffffffffffffffffffffffff169050919050565b6000610d03826118d5565b90508073ffffffffffffffffffffffffffffffffffffffff16610d246123d5565b73ffffffffffffffffffffffffffffffffffffffff1614610d8757610d5081610d4b6123d5565b61215f565b610d86576040517fcfb3b94200000000000000000000000000000000000000000000000000000000815260040160405180910390fd5b5b826007600084815260200190815260200160002060000160006101000a81548173ffffffffffffffffffffffffffffffffffffffff021916908373ffffffffffffffffffffffffffffffffffffffff160217905550818373ffffffffffffffffffffffffffffffffffffffff168273ffffffffffffffffffffffffffffffffffffffff167f8c5be1e5ebec7d5bd14f71427d1e84f3dd0314c0f7b2291e5b200ac8c7c3b92560405160405180910390a4505050565b6000610e466123dd565b6002546001540303905090565b601260009054906101000a900460ff16610ea2576040517f08c379a0000000000000000000000000000000000000000000000000000000008152600401610e9990613d32565b60405180910390fd5b600060148054905011610eea576040517f08c379a0000000000000000000000000000000000000000000000000000000008152600401610ee190613d9e565b60405180910390fd5b81610ef3611ace565b610efd9190613ded565b341015610f3f576040517f08c379a0000000000000000000000000000000000000000000000000000000008152600401610f3690613eb9565b60405180910390fd5b610f4933836123e6565b8060156000610f566125a2565b8152602001908152602001600020819055507f76020ece75bf679c701e656fcffc7e3df8354859b3b0eb7fee42b1378023bb313382604051610f99929190613ed9565b60405180910390a15050565b8260006daaeb6d7670e522a718067333cd4e73ffffffffffffffffffffffffffffffffffffffff163b1115611175573373ffffffffffffffffffffffffffffffffffffffff168173ffffffffffffffffffffffffffffffffffffffff1603611017576110128484846125b5565b611181565b6daaeb6d7670e522a718067333cd4e73ffffffffffffffffffffffffffffffffffffffff1663c617113430336040518363ffffffff1660e01b8152600401611060929190613f02565b602060405180830381865afa15801561107d573d6000803e3d6000fd5b505050506040513d601f19601f820116820180604052508101906110a19190613f40565b801561113357506daaeb6d7670e522a718067333cd4e73ffffffffffffffffffffffffffffffffffffffff1663c617113430836040518363ffffffff1660e01b81526004016110f1929190613f02565b602060405180830381865afa15801561110e573d6000803e3d6000fd5b505050506040513d601f19601f820116820180604052508101906111329190613f40565b5b61117457336040517fede71dcc00000000000000000000000000000000000000000000000000000000815260040161116b91906135f7565b60405180910390fd5b5b6111808484846125b5565b5b50505050565b600960009054906101000a900473ffffffffffffffffffffffffffffffffffffffff1673ffffffffffffffffffffffffffffffffffffffff163373ffffffffffffffffffffffffffffffffffffffff1614611217576040517f08c379a000000000000000000000000000000000000000000000000000000000815260040161120e90613fdf565b60405180910390fd5b60006014805490501161125f576040517f08c379a000000000000000000000000000000000000000000000000000000000815260040161125690613d9e565b60405180910390fd5b3273ffffffffffffffffffffffffffffffffffffffff168273ffffffffffffffffffffffffffffffffffffffff16146112cd576040517f08c379a00000000000000000000000000000000000000000000000000000000081526004016112c49061404b565b60405180910390fd5b8080156112df57506112dd6117e5565b155b1561131f576040517f08c379a0000000000000000000000000000000000000000000000000000000008152600401611316906140dd565b60405180910390fd5b60006113296128d7565b60014361133691906140fd565b404460405160200161134a939291906141c5565b6040516020818303038152906040528051906020012060001c90506000601480549050905082156113eb576000805b828110156113c0576113a86014828154811061139857611397614202565b5b9060005260206000200154611501565b156113b5578091506113c0565b806001019050611379565b5080826113cd91906140fd565b836113d89190614260565b816113e39190614291565b9250506113fa565b80826113f79190614260565b91505b6000601483815481106114105761140f614202565b5b906000526020600020015490506114288560016123e6565b80601560006114356125a2565b8152602001908152602001600020819055506014600160148054905061145b91906140fd565b8154811061146c5761146b614202565b5b90600052602060002001546014848154811061148b5761148a614202565b5b906000526020600020018190555060148054806114ab576114aa6142e7565b5b600190038181906000526020600020016000905590557f76020ece75bf679c701e656fcffc7e3df8354859b3b0eb7fee42b1378023bb3185826040516114f2929190613ed9565b60405180910390a15050505050565b6000601054821015801561151757506011548211155b9050919050565b6115266128df565b3373ffffffffffffffffffffffffffffffffffffffff166108fc479081150290604051600060405180830381858888f1935050505015801561156c573d6000803e3d6000fd5b50565b8260006daaeb6d7670e522a718067333cd4e73ffffffffffffffffffffffffffffffffffffffff163b111561173f573373ffffffffffffffffffffffffffffffffffffffff168173ffffffffffffffffffffffffffffffffffffffff16036115e1576115dc84848461295d565b61174b565b6daaeb6d7670e522a718067333cd4e73ffffffffffffffffffffffffffffffffffffffff1663c617113430336040518363ffffffff1660e01b815260040161162a929190613f02565b602060405180830381865afa158015611647573d6000803e3d6000fd5b505050506040513d601f19601f8201168201806040525081019061166b9190613f40565b80156116fd57506daaeb6d7670e522a718067333cd4e73ffffffffffffffffffffffffffffffffffffffff1663c617113430836040518363ffffffff1660e01b81526004016116bb929190613f02565b602060405180830381865afa1580156116d8573d6000803e3d6000fd5b505050506040513d601f19601f820116820180604052508101906116fc9190613f40565b5b61173e57336040517fede71dcc00000000000000000000000000000000000000000000000000000000815260040161173591906135f7565b60405180910390fd5b5b61174a84848461295d565b5b50505050565b600f5481565b600c805461176490613cb5565b80601f016020809104026020016040519081016040528092919081815260200182805461179090613cb5565b80156117dd5780601f106117b2576101008083540402835291602001916117dd565b820191906000526020600020905b8154815290600101906020018083116117c057829003601f168201915b505050505081565b600080601480549050905060005b8181101561183d576118226014828154811061181257611811614202565b5b9060005260206000200154611501565b1561183257600192505050611844565b8060010190506117f3565b5060009150505b90565b600b805461185490613cb5565b80601f016020809104026020016040519081016040528092919081815260200182805461188090613cb5565b80156118cd5780601f106118a2576101008083540402835291602001916118cd565b820191906000526020600020905b8154815290600101906020018083116118b057829003601f168201915b505050505081565b60006118e08261297d565b9050919050565b6118ef6128df565b8060108190555050565b60008073ffffffffffffffffffffffffffffffffffffffff168273ffffffffffffffffffffffffffffffffffffffff1603611960576040517f8f4eb60400000000000000000000000000000000000000000000000000000000815260040160405180910390fd5b67ffffffffffffffff600660008473ffffffffffffffffffffffffffffffffffffffff1673ffffffffffffffffffffffffffffffffffffffff16815260200190815260200160002054169050919050565b6119b96128df565b6119c36000612a49565b565b60105481565b6119d36128df565b6119de8260016123e6565b80601560006119eb6125a2565b8152602001908152602001600020819055505050565b60008060009054906101000a900473ffffffffffffffffffffffffffffffffffffffff16905090565b611a326128df565b8060138190555050565b606060048054611a4b90613cb5565b80601f0160208091040260200160405190810160405280929190818152602001828054611a7790613cb5565b8015611ac45780601f10611a9957610100808354040283529160200191611ac4565b820191906000526020600020905b815481529060010190602001808311611aa757829003601f168201915b5050505050905090565b6000601354905090565b60148181548110611ae857600080fd5b906000526020600020016000915090505481565b60135481565b611b0a6123d5565b73ffffffffffffffffffffffffffffffffffffffff168273ffffffffffffffffffffffffffffffffffffffff1603611b6e576040517fb06307db00000000000000000000000000000000000000000000000000000000815260040160405180910390fd5b8060086000611b7b6123d5565b73ffffffffffffffffffffffffffffffffffffffff1673ffffffffffffffffffffffffffffffffffffffff16815260200190815260200160002060008473ffffffffffffffffffffffffffffffffffffffff1673ffffffffffffffffffffffffffffffffffffffff16815260200190815260200160002060006101000a81548160ff0219169083151502179055508173ffffffffffffffffffffffffffffffffffffffff16611c286123d5565b73ffffffffffffffffffffffffffffffffffffffff167f17307eab39ab6107e8899845ad3d59bd9653f200f220920489ca2b5937696c3183604051611c6d919061347d565b60405180910390a35050565b611c816128df565b80600d9080519060200190611c979291906132b8565b5050565b611ca36128df565b80600a60006101000a81548173ffffffffffffffffffffffffffffffffffffffff021916908373ffffffffffffffffffffffffffffffffffffffff16021790555050565b8360006daaeb6d7670e522a718067333cd4e73ffffffffffffffffffffffffffffffffffffffff163b1115611eb8573373ffffffffffffffffffffffffffffffffffffffff168173ffffffffffffffffffffffffffffffffffffffff1603611d5a57611d5585858585612b0d565b611ec5565b6daaeb6d7670e522a718067333cd4e73ffffffffffffffffffffffffffffffffffffffff1663c617113430336040518363ffffffff1660e01b8152600401611da3929190613f02565b602060405180830381865afa158015611dc0573d6000803e3d6000fd5b505050506040513d601f19601f82011682018060405250810190611de49190613f40565b8015611e7657506daaeb6d7670e522a718067333cd4e73ffffffffffffffffffffffffffffffffffffffff1663c617113430836040518363ffffffff1660e01b8152600401611e34929190613f02565b602060405180830381865afa158015611e51573d6000803e3d6000fd5b505050506040513d601f19601f82011682018060405250810190611e759190613f40565b5b611eb757336040517fede71dcc000000000000000000000000000000000000000000000000000000008152600401611eae91906135f7565b60405180910390fd5b5b611ec485858585612b0d565b5b5050505050565b600e8054611ed990613cb5565b80601f0160208091040260200160405190810160405280929190818152602001828054611f0590613cb5565b8015611f525780601f10611f2757610100808354040283529160200191611f52565b820191906000526020600020905b815481529060010190602001808311611f3557829003601f168201915b505050505081565b611f626128df565b80600960006101000a81548173ffffffffffffffffffffffffffffffffffffffff021916908373ffffffffffffffffffffffffffffffffffffffff16021790555050565b6060611fb182612376565b611ff0576040517f08c379a0000000000000000000000000000000000000000000000000000000008152600401611fe790614388565b60405180910390fd5b6000611ffa612b80565b9050600081511161201a576040518060200160405280600081525061205b565b806120376015600086815260200190815260200160002054612c12565b600c60405160200161204b93929190614478565b6040516020818303038152906040525b915050919050565b601260009054906101000a900460ff1681565b6060612080612b80565b905090565b60115481565b6120936128df565b601460006120a1919061333e565b80601490805190602001906120b792919061335f565b5050565b6120c36128df565b8060118190555050565b6060600e80546120dc90613cb5565b80601f016020809104026020016040519081016040528092919081815260200182805461210890613cb5565b80156121555780601f1061212a57610100808354040283529160200191612155565b820191906000526020600020905b81548152906001019060200180831161213857829003601f168201915b5050505050905090565b6000600860008473ffffffffffffffffffffffffffffffffffffffff1673ffffffffffffffffffffffffffffffffffffffff16815260200190815260200160002060008373ffffffffffffffffffffffffffffffffffffffff1673ffffffffffffffffffffffffffffffffffffffff16815260200190815260200160002060009054906101000a900460ff16905092915050565b600d805461220090613cb5565b80601f016020809104026020016040519081016040528092919081815260200182805461222c90613cb5565b80156122795780601f1061224e57610100808354040283529160200191612279565b820191906000526020600020905b81548152906001019060200180831161225c57829003601f168201915b505050505081565b6122896128df565b600073ffffffffffffffffffffffffffffffffffffffff168173ffffffffffffffffffffffffffffffffffffffff16036122f8576040517f08c379a00000000000000000000000000000000000000000000000000000000081526004016122ef9061451b565b60405180910390fd5b61230181612a49565b50565b600060156000838152602001908152602001600020549050919050565b6123296128df565b80601260006101000a81548160ff02191690831515021790555050565b61234e6128df565b80600e90805190602001906123649291906132b8565b5050565b612373816000612ce0565b50565b6000816123816123dd565b11158015612390575060015482105b80156123ce575060007c0100000000000000000000000000000000000000000000000000000000600560008581526020019081526020016000205416145b9050919050565b600033905090565b60006001905090565b6000600154905060008203612427576040517fb562e8dd00000000000000000000000000000000000000000000000000000000815260040160405180910390fd5b6124346000848385612f32565b600160406001901b178202600660008573ffffffffffffffffffffffffffffffffffffffff1673ffffffffffffffffffffffffffffffffffffffff168152602001908152602001600020600082825401925050819055506124ab8361249c6000866000612f38565b6124a585612f60565b17612f70565b6005600083815260200190815260200160002081905550600080838301905073ffffffffffffffffffffffffffffffffffffffff85169150828260007fddf252ad1be2c89b69c2b068fc378daa952ba7f163c4a11628f55a4df523b3ef600080a4600183015b81811461254c57808360007fddf252ad1be2c89b69c2b068fc378daa952ba7f163c4a11628f55a4df523b3ef600080a4600181019050612511565b5060008203612587576040517f2e07630000000000000000000000000000000000000000000000000000000000815260040160405180910390fd5b80600181905550505061259d6000848385612f9b565b505050565b60006125ac6123dd565b60015403905090565b60006125c08261297d565b90508373ffffffffffffffffffffffffffffffffffffffff168173ffffffffffffffffffffffffffffffffffffffff1614612627576040517fa114810000000000000000000000000000000000000000000000000000000000815260040160405180910390fd5b60008061263384612fa1565b9150915061264981876126446123d5565b612fc8565b6126955761265e866126596123d5565b61215f565b612694576040517f59c896be00000000000000000000000000000000000000000000000000000000815260040160405180910390fd5b5b600073ffffffffffffffffffffffffffffffffffffffff168573ffffffffffffffffffffffffffffffffffffffff16036126fb576040517fea553b3400000000000000000000000000000000000000000000000000000000815260040160405180910390fd5b6127088686866001612f32565b801561271357600082555b600660008773ffffffffffffffffffffffffffffffffffffffff1673ffffffffffffffffffffffffffffffffffffffff168152602001908152602001600020600081546001900391905081905550600660008673ffffffffffffffffffffffffffffffffffffffff1673ffffffffffffffffffffffffffffffffffffffff16815260200190815260200160002060008154600101919050819055506127e1856127bd888887612f38565b7c020000000000000000000000000000000000000000000000000000000017612f70565b600560008681526020019081526020016000208190555060007c02000000000000000000000000000000000000000000000000000000008416036128675760006001850190506000600560008381526020019081526020016000205403612865576001548114612864578360056000838152602001908152602001600020819055505b5b505b838573ffffffffffffffffffffffffffffffffffffffff168773ffffffffffffffffffffffffffffffffffffffff167fddf252ad1be2c89b69c2b068fc378daa952ba7f163c4a11628f55a4df523b3ef60405160405180910390a46128cf8686866001612f9b565b505050505050565b600033905090565b6128e76128d7565b73ffffffffffffffffffffffffffffffffffffffff16612905611a01565b73ffffffffffffffffffffffffffffffffffffffff161461295b576040517f08c379a000000000000000000000000000000000000000000000000000000000815260040161295290614587565b60405180910390fd5b565b61297883838360405180602001604052806000815250611ce7565b505050565b6000808290508061298c6123dd565b11612a1257600154811015612a115760006005600083815260200190815260200160002054905060007c0100000000000000000000000000000000000000000000000000000000821603612a0f575b60008103612a055760056000836001900393508381526020019081526020016000205490506129db565b8092505050612a44565b505b5b6040517fdf2d9b4200000000000000000000000000000000000000000000000000000000815260040160405180910390fd5b919050565b60008060009054906101000a900473ffffffffffffffffffffffffffffffffffffffff169050816000806101000a81548173ffffffffffffffffffffffffffffffffffffffff021916908373ffffffffffffffffffffffffffffffffffffffff1602179055508173ffffffffffffffffffffffffffffffffffffffff168173ffffffffffffffffffffffffffffffffffffffff167f8be0079c531659141344cd1fd0a4f28419497f9722a3daafe3b4186f6b6457e060405160405180910390a35050565b612b18848484610fa5565b60008373ffffffffffffffffffffffffffffffffffffffff163b14612b7a57612b438484848461300c565b612b79576040517fd1a57ed600000000000000000000000000000000000000000000000000000000815260040160405180910390fd5b5b50505050565b6060600d8054612b8f90613cb5565b80601f0160208091040260200160405190810160405280929190818152602001828054612bbb90613cb5565b8015612c085780601f10612bdd57610100808354040283529160200191612c08565b820191906000526020600020905b815481529060010190602001808311612beb57829003601f168201915b5050505050905090565b606060006001612c218461315c565b01905060008167ffffffffffffffff811115612c4057612c3f6137de565b5b6040519080825280601f01601f191660200182016040528015612c725781602001600182028036833780820191505090505b509050600082602001820190505b600115612cd5578080600190039150507f3031323334353637383961626364656600000000000000000000000000000000600a86061a8153600a8581612cc957612cc8614231565b5b04945060008503612c80575b819350505050919050565b6000612ceb8361297d565b90506000819050600080612cfe86612fa1565b915091508415612d6757612d1a8184612d156123d5565b612fc8565b612d6657612d2f83612d2a6123d5565b61215f565b612d65576040517f59c896be00000000000000000000000000000000000000000000000000000000815260040160405180910390fd5b5b5b612d75836000886001612f32565b8015612d8057600082555b600160806001901b03600660008573ffffffffffffffffffffffffffffffffffffffff1673ffffffffffffffffffffffffffffffffffffffff16815260200190815260200160002060008282540192505081905550612e2883612de585600088612f38565b7c02000000000000000000000000000000000000000000000000000000007c01000000000000000000000000000000000000000000000000000000001717612f70565b600560008881526020019081526020016000208190555060007c0200000000000000000000000000000000000000000000000000000000851603612eae5760006001870190506000600560008381526020019081526020016000205403612eac576001548114612eab578460056000838152602001908152602001600020819055505b5b505b85600073ffffffffffffffffffffffffffffffffffffffff168473ffffffffffffffffffffffffffffffffffffffff167fddf252ad1be2c89b69c2b068fc378daa952ba7f163c4a11628f55a4df523b3ef60405160405180910390a4612f18836000886001612f9b565b600260008154809291906001019190505550505050505050565b50505050565b60008060e883901c905060e8612f4f8686846132af565b62ffffff16901b9150509392505050565b60006001821460e11b9050919050565b600073ffffffffffffffffffffffffffffffffffffffff83169250814260a01b178317905092915050565b50505050565b60008060006007600085815260200190815260200160002090508092508254915050915091565b600073ffffffffffffffffffffffffffffffffffffffff8316925073ffffffffffffffffffffffffffffffffffffffff821691508382148383141790509392505050565b60008373ffffffffffffffffffffffffffffffffffffffff1663150b7a026130326123d5565b8786866040518563ffffffff1660e01b815260040161305494939291906145fc565b6020604051808303816000875af192505050801561309057506040513d601f19601f8201168201806040525081019061308d919061465d565b60015b613109573d80600081146130c0576040519150601f19603f3d011682016040523d82523d6000602084013e6130c5565b606091505b506000815103613101576040517fd1a57ed600000000000000000000000000000000000000000000000000000000815260040160405180910390fd5b805181602001fd5b63150b7a0260e01b7bffffffffffffffffffffffffffffffffffffffffffffffffffffffff1916817bffffffffffffffffffffffffffffffffffffffffffffffffffffffff191614915050949350505050565b600080600090507a184f03e93ff9f4daa797ed6e38ed64bf6a1f01000000000000000083106131ba577a184f03e93ff9f4daa797ed6e38ed64bf6a1f01000000000000000083816131b0576131af614231565b5b0492506040810190505b6d04ee2d6d415b85acef810000000083106131f7576d04ee2d6d415b85acef810000000083816131ed576131ec614231565b5b0492506020810190505b662386f26fc10000831061322657662386f26fc10000838161321c5761321b614231565b5b0492506010810190505b6305f5e100831061324f576305f5e100838161324557613244614231565b5b0492506008810190505b612710831061327457612710838161326a57613269614231565b5b0492506004810190505b60648310613297576064838161328d5761328c614231565b5b0492506002810190505b600a83106132a6576001810190505b80915050919050565b60009392505050565b8280546132c490613cb5565b90600052602060002090601f0160209004810192826132e6576000855561332d565b82601f106132ff57805160ff191683800117855561332d565b8280016001018555821561332d579182015b8281111561332c578251825591602001919060010190613311565b5b50905061333a91906133ac565b5090565b508054600082559060005260206000209081019061335c91906133ac565b50565b82805482825590600052602060002090810192821561339b579160200282015b8281111561339a57825182559160200191906001019061337f565b5b5090506133a891906133ac565b5090565b5b808211156133c55760008160009055506001016133ad565b5090565b6000604051905090565b600080fd5b600080fd5b60007fffffffff0000000000000000000000000000000000000000000000000000000082169050919050565b613412816133dd565b811461341d57600080fd5b50565b60008135905061342f81613409565b92915050565b60006020828403121561344b5761344a6133d3565b5b600061345984828501613420565b91505092915050565b60008115159050919050565b61347781613462565b82525050565b6000602082019050613492600083018461346e565b92915050565b6000819050919050565b6134ab81613498565b81146134b657600080fd5b50565b6000813590506134c8816134a2565b92915050565b6000602082840312156134e4576134e36133d3565b5b60006134f2848285016134b9565b91505092915050565b600081519050919050565b600082825260208201905092915050565b60005b8381101561353557808201518184015260208101905061351a565b83811115613544576000848401525b50505050565b6000601f19601f8301169050919050565b6000613566826134fb565b6135708185613506565b9350613580818560208601613517565b6135898161354a565b840191505092915050565b600060208201905081810360008301526135ae818461355b565b905092915050565b600073ffffffffffffffffffffffffffffffffffffffff82169050919050565b60006135e1826135b6565b9050919050565b6135f1816135d6565b82525050565b600060208201905061360c60008301846135e8565b92915050565b61361b816135d6565b811461362657600080fd5b50565b60008135905061363881613612565b92915050565b60008060408385031215613655576136546133d3565b5b600061366385828601613629565b9250506020613674858286016134b9565b9150509250929050565b61368781613498565b82525050565b60006020820190506136a2600083018461367e565b92915050565b600080604083850312156136bf576136be6133d3565b5b60006136cd858286016134b9565b92505060206136de858286016134b9565b9150509250929050565b600080600060608486031215613701576137006133d3565b5b600061370f86828701613629565b935050602061372086828701613629565b9250506040613731868287016134b9565b9150509250925092565b61374481613462565b811461374f57600080fd5b50565b6000813590506137618161373b565b92915050565b6000806040838503121561377e5761377d6133d3565b5b600061378c85828601613629565b925050602061379d85828601613752565b9150509250929050565b6000602082840312156137bd576137bc6133d3565b5b60006137cb84828501613629565b91505092915050565b600080fd5b600080fd5b7f4e487b7100000000000000000000000000000000000000000000000000000000600052604160045260246000fd5b6138168261354a565b810181811067ffffffffffffffff82111715613835576138346137de565b5b80604052505050565b60006138486133c9565b9050613854828261380d565b919050565b600067ffffffffffffffff821115613874576138736137de565b5b61387d8261354a565b9050602081019050919050565b82818337600083830152505050565b60006138ac6138a784613859565b61383e565b9050828152602081018484840111156138c8576138c76137d9565b5b6138d384828561388a565b509392505050565b600082601f8301126138f0576138ef6137d4565b5b8135613900848260208601613899565b91505092915050565b60006020828403121561391f5761391e6133d3565b5b600082013567ffffffffffffffff81111561393d5761393c6133d8565b5b613949848285016138db565b91505092915050565b600067ffffffffffffffff82111561396d5761396c6137de565b5b6139768261354a565b9050602081019050919050565b600061399661399184613952565b61383e565b9050828152602081018484840111156139b2576139b16137d9565b5b6139bd84828561388a565b509392505050565b600082601f8301126139da576139d96137d4565b5b81356139ea848260208601613983565b91505092915050565b60008060008060808587031215613a0d57613a0c6133d3565b5b6000613a1b87828801613629565b9450506020613a2c87828801613629565b9350506040613a3d878288016134b9565b925050606085013567ffffffffffffffff811115613a5e57613a5d6133d8565b5b613a6a878288016139c5565b91505092959194509250565b600067ffffffffffffffff821115613a9157613a906137de565b5b602082029050602081019050919050565b600080fd5b6000613aba613ab584613a76565b61383e565b90508083825260208201905060208402830185811115613add57613adc613aa2565b5b835b81811015613b065780613af288826134b9565b845260208401935050602081019050613adf565b5050509392505050565b600082601f830112613b2557613b246137d4565b5b8135613b35848260208601613aa7565b91505092915050565b600060208284031215613b5457613b536133d3565b5b600082013567ffffffffffffffff811115613b7257613b716133d8565b5b613b7e84828501613b10565b91505092915050565b60008060408385031215613b9e57613b9d6133d3565b5b6000613bac85828601613629565b9250506020613bbd85828601613629565b9150509250929050565b600060208284031215613bdd57613bdc6133d3565b5b6000613beb84828501613752565b91505092915050565b7f4f6e6c792074686520457175697020736d61727420636f6e747261637420636160008201527f6e206275726e2066726f6d206571756970000000000000000000000000000000602082015250565b6000613c50603183613506565b9150613c5b82613bf4565b604082019050919050565b60006020820190508181036000830152613c7f81613c43565b9050919050565b7f4e487b7100000000000000000000000000000000000000000000000000000000600052602260045260246000fd5b60006002820490506001821680613ccd57607f821691505b602082108103613ce057613cdf613c86565b5b50919050565b7f4d696e74696e67206973206e6f7420656e61626c656400000000000000000000600082015250565b6000613d1c601683613506565b9150613d2782613ce6565b602082019050919050565b60006020820190508181036000830152613d4b81613d0f565b9050919050565b7f4e6f2072656d61696e696e672045676773000000000000000000000000000000600082015250565b6000613d88601183613506565b9150613d9382613d52565b602082019050919050565b60006020820190508181036000830152613db781613d7b565b9050919050565b7f4e487b7100000000000000000000000000000000000000000000000000000000600052601160045260246000fd5b6000613df882613498565b9150613e0383613498565b9250817fffffffffffffffffffffffffffffffffffffffffffffffffffffffffffffffff0483118215151615613e3c57613e3b613dbe565b5b828202905092915050565b7f4e6f7420656e6f756768204554482073656e743b20636865636b20707269636560008201527f2100000000000000000000000000000000000000000000000000000000000000602082015250565b6000613ea3602183613506565b9150613eae82613e47565b604082019050919050565b60006020820190508181036000830152613ed281613e96565b9050919050565b6000604082019050613eee60008301856135e8565b613efb602083018461367e565b9392505050565b6000604082019050613f1760008301856135e8565b613f2460208301846135e8565b9392505050565b600081519050613f3a8161373b565b92915050565b600060208284031215613f5657613f556133d3565b5b6000613f6484828501613f2b565b91505092915050565b7f4f6e6c792074686520426f7820736d61727420636f6e74726163742063616e2060008201527f6d696e7400000000000000000000000000000000000000000000000000000000602082015250565b6000613fc9602483613506565b9150613fd482613f6d565b604082019050919050565b60006020820190508181036000830152613ff881613fbc565b9050919050565b7f6f70656e65722063616e6e6f7420626520736d61727420636f6e747261637400600082015250565b6000614035601f83613506565b915061404082613fff565b602082019050919050565b6000602082019050818103600083015261406481614028565b9050919050565b7f4e6f206d6f7265206f6e652070657263656e742072617269746965732061766160008201527f696c61626c650000000000000000000000000000000000000000000000000000602082015250565b60006140c7602683613506565b91506140d28261406b565b604082019050919050565b600060208201905081810360008301526140f6816140ba565b9050919050565b600061410882613498565b915061411383613498565b92508282101561412657614125613dbe565b5b828203905092915050565b60008160601b9050919050565b600061414982614131565b9050919050565b600061415b8261413e565b9050919050565b61417361416e826135d6565b614150565b82525050565b6000819050919050565b6000819050919050565b61419e61419982614179565b614183565b82525050565b6000819050919050565b6141bf6141ba82613498565b6141a4565b82525050565b60006141d18286614162565b6014820191506141e1828561418d565b6020820191506141f182846141ae565b602082019150819050949350505050565b7f4e487b7100000000000000000000000000000000000000000000000000000000600052603260045260246000fd5b7f4e487b7100000000000000000000000000000000000000000000000000000000600052601260045260246000fd5b600061426b82613498565b915061427683613498565b92508261428657614285614231565b5b828206905092915050565b600061429c82613498565b91506142a783613498565b9250827fffffffffffffffffffffffffffffffffffffffffffffffffffffffffffffffff038211156142dc576142db613dbe565b5b828201905092915050565b7f4e487b7100000000000000000000000000000000000000000000000000000000600052603160045260246000fd5b7f4552433732314d657461646174613a2055524920717565727920666f72206e6f60008201527f6e6578697374656e7420746f6b656e0000000000000000000000000000000000602082015250565b6000614372602f83613506565b915061437d82614316565b604082019050919050565b600060208201905081810360008301526143a181614365565b9050919050565b600081905092915050565b60006143be826134fb565b6143c881856143a8565b93506143d8818560208601613517565b80840191505092915050565b60008190508160005260206000209050919050565b6000815461440681613cb5565b61441081866143a8565b9450600182166000811461442b576001811461443c5761446f565b60ff1983168652818601935061446f565b614445856143e4565b60005b8381101561446757815481890152600182019150602081019050614448565b838801955050505b50505092915050565b600061448482866143b3565b915061449082856143b3565b915061449c82846143f9565b9150819050949350505050565b7f4f776e61626c653a206e6577206f776e657220697320746865207a65726f206160008201527f6464726573730000000000000000000000000000000000000000000000000000602082015250565b6000614505602683613506565b9150614510826144a9565b604082019050919050565b60006020820190508181036000830152614534816144f8565b9050919050565b7f4f776e61626c653a2063616c6c6572206973206e6f7420746865206f776e6572600082015250565b6000614571602083613506565b915061457c8261453b565b602082019050919050565b600060208201905081810360008301526145a081614564565b9050919050565b600081519050919050565b600082825260208201905092915050565b60006145ce826145a7565b6145d881856145b2565b93506145e8818560208601613517565b6145f18161354a565b840191505092915050565b600060808201905061461160008301876135e8565b61461e60208301866135e8565b61462b604083018561367e565b818103606083015261463d81846145c3565b905095945050505050565b60008151905061465781613409565b92915050565b600060208284031215614673576146726133d3565b5b600061468184828501614648565b9150509291505056fea26469706673582212208f75932d935b3e8093edf5e8d9886f38f3af56a2ba848ff6e7f603ff0028931864736f6c634300080d0033697066733a2f2f516d5247617166684d62656f32613634764a77375635413557435561704334455066647142786b726978793251612f697066733a2f2f516d615663544c626d6d593143557377464243426370766741386959643759456d6141726165463739626638675a2f",
  "linkReferences": {},
  "deployedLinkReferences": {}
}