{
  "_format": "hh-sol-artifact-1",
  "contractName": "NftEgg",
  "sourceName": "src/backend/contracts/NftEgg.sol",
  "abi": [
    {
      "inputs": [],
      "stateMutability": "nonpayable",
      "type": "constructor"
    },
    {
      "inputs": [],
      "name": "ApprovalCallerNotOwnerNorApproved",
      "type": "error"
    },
    {
      "inputs": [],
      "name": "ApprovalQueryForNonexistentToken",
      "type": "error"
    },
    {
      "inputs": [],
      "name": "ApproveToCaller",
      "type": "error"
    },
    {
      "inputs": [],
      "name": "BalanceQueryForZeroAddress",
      "type": "error"
    },
    {
      "inputs": [],
      "name": "MintERC2309QuantityExceedsLimit",
      "type": "error"
    },
    {
      "inputs": [],
      "name": "MintToZeroAddress",
      "type": "error"
    },
    {
      "inputs": [],
      "name": "MintZeroQuantity",
      "type": "error"
    },
    {
      "inputs": [
        {
          "internalType": "address",
          "name": "operator",
          "type": "address"
        }
      ],
      "name": "OperatorNotAllowed",
      "type": "error"
    },
    {
      "inputs": [],
      "name": "OwnerQueryForNonexistentToken",
      "type": "error"
    },
    {
      "inputs": [],
      "name": "OwnershipNotInitializedForExtraData",
      "type": "error"
    },
    {
      "inputs": [],
      "name": "TransferCallerNotOwnerNorApproved",
      "type": "error"
    },
    {
      "inputs": [],
      "name": "TransferFromIncorrectOwner",
      "type": "error"
    },
    {
      "inputs": [],
      "name": "TransferToNonERC721ReceiverImplementer",
      "type": "error"
    },
    {
      "inputs": [],
      "name": "TransferToZeroAddress",
      "type": "error"
    },
    {
      "inputs": [],
      "name": "URIQueryForNonexistentToken",
      "type": "error"
    },
    {
      "anonymous": false,
      "inputs": [
        {
          "indexed": true,
          "internalType": "address",
          "name": "owner",
          "type": "address"
        },
        {
          "indexed": true,
          "internalType": "address",
          "name": "approved",
          "type": "address"
        },
        {
          "indexed": true,
          "internalType": "uint256",
          "name": "tokenId",
          "type": "uint256"
        }
      ],
      "name": "Approval",
      "type": "event"
    },
    {
      "anonymous": false,
      "inputs": [
        {
          "indexed": true,
          "internalType": "address",
          "name": "owner",
          "type": "address"
        },
        {
          "indexed": true,
          "internalType": "address",
          "name": "operator",
          "type": "address"
        },
        {
          "indexed": false,
          "internalType": "bool",
          "name": "approved",
          "type": "bool"
        }
      ],
      "name": "ApprovalForAll",
      "type": "event"
    },
    {
      "anonymous": false,
      "inputs": [
        {
          "indexed": true,
          "internalType": "uint256",
          "name": "fromTokenId",
          "type": "uint256"
        },
        {
          "indexed": false,
          "internalType": "uint256",
          "name": "toTokenId",
          "type": "uint256"
        },
        {
          "indexed": true,
          "internalType": "address",
          "name": "from",
          "type": "address"
        },
        {
          "indexed": true,
          "internalType": "address",
          "name": "to",
          "type": "address"
        }
      ],
      "name": "ConsecutiveTransfer",
      "type": "event"
    },
    {
      "anonymous": false,
      "inputs": [
        {
          "indexed": false,
          "internalType": "address",
          "name": "user",
          "type": "address"
        }
      ],
      "name": "MintSuccessful",
      "type": "event"
    },
    {
      "anonymous": false,
      "inputs": [
        {
          "indexed": true,
          "internalType": "address",
          "name": "previousOwner",
          "type": "address"
        },
        {
          "indexed": true,
          "internalType": "address",
          "name": "newOwner",
          "type": "address"
        }
      ],
      "name": "OwnershipTransferred",
      "type": "event"
    },
    {
      "anonymous": false,
      "inputs": [
        {
          "indexed": true,
          "internalType": "address",
          "name": "from",
          "type": "address"
        },
        {
          "indexed": true,
          "internalType": "address",
          "name": "to",
          "type": "address"
        },
        {
          "indexed": true,
          "internalType": "uint256",
          "name": "tokenId",
          "type": "uint256"
        }
      ],
      "name": "Transfer",
      "type": "event"
    },
    {
      "inputs": [
        {
          "internalType": "address",
          "name": "to",
          "type": "address"
        },
        {
          "internalType": "uint256",
          "name": "tokenId",
          "type": "uint256"
        }
      ],
      "name": "approve",
      "outputs": [],
      "stateMutability": "nonpayable",
      "type": "function"
    },
    {
      "inputs": [
        {
          "internalType": "address",
          "name": "owner",
          "type": "address"
        }
      ],
      "name": "balanceOf",
      "outputs": [
        {
          "internalType": "uint256",
          "name": "",
          "type": "uint256"
        }
      ],
      "stateMutability": "view",
      "type": "function"
    },
    {
      "inputs": [],
      "name": "baseTokenURI",
      "outputs": [
        {
          "internalType": "string",
          "name": "",
          "type": "string"
        }
      ],
      "stateMutability": "pure",
      "type": "function"
    },
    {
      "inputs": [],
      "name": "burnAmount",
      "outputs": [
        {
          "internalType": "uint256",
          "name": "",
          "type": "uint256"
        }
      ],
      "stateMutability": "view",
      "type": "function"
    },
    {
      "inputs": [
        {
          "internalType": "uint256",
          "name": "_tokenId",
          "type": "uint256"
        }
      ],
      "name": "burnFromEquip",
      "outputs": [],
      "stateMutability": "nonpayable",
      "type": "function"
    },
    {
      "inputs": [],
      "name": "contractURI",
      "outputs": [
        {
          "internalType": "string",
          "name": "",
          "type": "string"
        }
      ],
      "stateMutability": "pure",
      "type": "function"
    },
    {
      "inputs": [
        {
          "internalType": "uint256",
          "name": "tokenId",
          "type": "uint256"
        }
      ],
      "name": "getApproved",
      "outputs": [
        {
          "internalType": "address",
          "name": "",
          "type": "address"
        }
      ],
      "stateMutability": "view",
      "type": "function"
    },
    {
      "inputs": [],
      "name": "getPrice",
      "outputs": [
        {
          "internalType": "uint256",
          "name": "",
          "type": "uint256"
        }
      ],
      "stateMutability": "view",
      "type": "function"
    },
    {
      "inputs": [
        {
          "internalType": "uint256",
          "name": "_tokenId",
          "type": "uint256"
        }
      ],
      "name": "idToMetadata",
      "outputs": [
        {
          "internalType": "uint256",
          "name": "",
          "type": "uint256"
        }
      ],
      "stateMutability": "view",
      "type": "function"
    },
    {
      "inputs": [
        {
          "internalType": "address",
          "name": "owner",
          "type": "address"
        },
        {
          "internalType": "address",
          "name": "operator",
          "type": "address"
        }
      ],
      "name": "isApprovedForAll",
      "outputs": [
        {
          "internalType": "bool",
          "name": "",
          "type": "bool"
        }
      ],
      "stateMutability": "view",
      "type": "function"
    },
    {
      "inputs": [
        {
          "internalType": "uint256",
          "name": "_metadata",
          "type": "uint256"
        }
      ],
      "name": "isOnePercentRarity",
      "outputs": [
        {
          "internalType": "bool",
          "name": "",
          "type": "bool"
        }
      ],
      "stateMutability": "view",
      "type": "function"
    },
    {
      "inputs": [
        {
          "internalType": "uint256",
          "name": "quantity",
          "type": "uint256"
        }
      ],
      "name": "mint",
      "outputs": [],
      "stateMutability": "payable",
      "type": "function"
    },
    {
      "inputs": [],
      "name": "mintEnabled",
      "outputs": [
        {
          "internalType": "bool",
          "name": "",
          "type": "bool"
        }
      ],
      "stateMutability": "view",
      "type": "function"
    },
    {
      "inputs": [
        {
          "internalType": "address",
          "name": "_user",
          "type": "address"
        },
        {
          "internalType": "uint256",
          "name": "_boxId",
          "type": "uint256"
        }
      ],
      "name": "mintFromBox",
      "outputs": [],
      "stateMutability": "nonpayable",
      "type": "function"
    },
    {
      "inputs": [],
      "name": "name",
      "outputs": [
        {
          "internalType": "string",
          "name": "",
          "type": "string"
        }
      ],
      "stateMutability": "view",
      "type": "function"
    },
    {
      "inputs": [],
      "name": "onePercentRarityAvailable",
      "outputs": [
        {
          "internalType": "bool",
          "name": "",
          "type": "bool"
        }
      ],
      "stateMutability": "view",
      "type": "function"
    },
    {
      "inputs": [],
      "name": "owner",
      "outputs": [
        {
          "internalType": "address",
          "name": "",
          "type": "address"
        }
      ],
      "stateMutability": "view",
      "type": "function"
    },
    {
      "inputs": [
        {
          "internalType": "uint256",
          "name": "tokenId",
          "type": "uint256"
        }
      ],
      "name": "ownerOf",
      "outputs": [
        {
          "internalType": "address",
          "name": "",
          "type": "address"
        }
      ],
      "stateMutability": "view",
      "type": "function"
    },
    {
      "inputs": [],
      "name": "price",
      "outputs": [
        {
          "internalType": "uint256",
          "name": "",
          "type": "uint256"
        }
      ],
      "stateMutability": "view",
      "type": "function"
    },
    {
      "inputs": [],
      "name": "rareFirstId",
      "outputs": [
        {
          "internalType": "uint256",
          "name": "",
          "type": "uint256"
        }
      ],
      "stateMutability": "view",
      "type": "function"
    },
    {
      "inputs": [],
      "name": "rareLastId",
      "outputs": [
        {
          "internalType": "uint256",
          "name": "",
          "type": "uint256"
        }
      ],
      "stateMutability": "view",
      "type": "function"
    },
    {
      "inputs": [],
      "name": "renounceOwnership",
      "outputs": [],
      "stateMutability": "nonpayable",
      "type": "function"
    },
    {
      "inputs": [
        {
          "internalType": "address",
          "name": "from",
          "type": "address"
        },
        {
          "internalType": "address",
          "name": "to",
          "type": "address"
        },
        {
          "internalType": "uint256",
          "name": "tokenId",
          "type": "uint256"
        }
      ],
      "name": "safeTransferFrom",
      "outputs": [],
      "stateMutability": "nonpayable",
      "type": "function"
    },
    {
      "inputs": [
        {
          "internalType": "address",
          "name": "from",
          "type": "address"
        },
        {
          "internalType": "address",
          "name": "to",
          "type": "address"
        },
        {
          "internalType": "uint256",
          "name": "tokenId",
          "type": "uint256"
        },
        {
          "internalType": "bytes",
          "name": "data",
          "type": "bytes"
        }
      ],
      "name": "safeTransferFrom",
      "outputs": [],
      "stateMutability": "nonpayable",
      "type": "function"
    },
    {
      "inputs": [
        {
          "internalType": "address",
          "name": "operator",
          "type": "address"
        },
        {
          "internalType": "bool",
          "name": "approved",
          "type": "bool"
        }
      ],
      "name": "setApprovalForAll",
      "outputs": [],
      "stateMutability": "nonpayable",
      "type": "function"
    },
    {
      "inputs": [
        {
          "internalType": "address",
          "name": "_address",
          "type": "address"
        }
      ],
      "name": "setBoxAddress",
      "outputs": [],
      "stateMutability": "nonpayable",
      "type": "function"
    },
    {
      "inputs": [
        {
          "internalType": "address",
          "name": "_address",
          "type": "address"
        }
      ],
      "name": "setEquipAddress",
      "outputs": [],
      "stateMutability": "nonpayable",
      "type": "function"
    },
    {
      "inputs": [
        {
          "internalType": "bool",
          "name": "_state",
          "type": "bool"
        }
      ],
      "name": "setMintEnabled",
      "outputs": [],
      "stateMutability": "nonpayable",
      "type": "function"
    },
    {
      "inputs": [
        {
          "internalType": "uint256",
          "name": "_price",
          "type": "uint256"
        }
      ],
      "name": "setPrice",
      "outputs": [],
      "stateMutability": "nonpayable",
      "type": "function"
    },
    {
      "inputs": [
        {
          "internalType": "uint256[]",
          "name": "_remainingEggs",
          "type": "uint256[]"
        }
      ],
      "name": "setRemainingEggs",
      "outputs": [],
      "stateMutability": "nonpayable",
      "type": "function"
    },
    {
      "inputs": [
        {
          "internalType": "bytes4",
          "name": "interfaceId",
          "type": "bytes4"
        }
      ],
      "name": "supportsInterface",
      "outputs": [
        {
          "internalType": "bool",
          "name": "",
          "type": "bool"
        }
      ],
      "stateMutability": "view",
      "type": "function"
    },
    {
      "inputs": [],
      "name": "symbol",
      "outputs": [
        {
          "internalType": "string",
          "name": "",
          "type": "string"
        }
      ],
      "stateMutability": "view",
      "type": "function"
    },
    {
      "inputs": [
        {
          "internalType": "uint256",
          "name": "_tokenId",
          "type": "uint256"
        }
      ],
      "name": "tokenURI",
      "outputs": [
        {
          "internalType": "string",
          "name": "",
          "type": "string"
        }
      ],
      "stateMutability": "view",
      "type": "function"
    },
    {
      "inputs": [],
      "name": "totalSupply",
      "outputs": [
        {
          "internalType": "uint256",
          "name": "",
          "type": "uint256"
        }
      ],
      "stateMutability": "view",
      "type": "function"
    },
    {
      "inputs": [
        {
          "internalType": "address",
          "name": "from",
          "type": "address"
        },
        {
          "internalType": "address",
          "name": "to",
          "type": "address"
        },
        {
          "internalType": "uint256",
          "name": "tokenId",
          "type": "uint256"
        }
      ],
      "name": "transferFrom",
      "outputs": [],
      "stateMutability": "nonpayable",
      "type": "function"
    },
    {
      "inputs": [
        {
          "internalType": "address",
          "name": "newOwner",
          "type": "address"
        }
      ],
      "name": "transferOwnership",
      "outputs": [],
      "stateMutability": "nonpayable",
      "type": "function"
    },
    {
      "inputs": [],
      "name": "uriPrefix",
      "outputs": [
        {
          "internalType": "string",
          "name": "",
          "type": "string"
        }
      ],
      "stateMutability": "view",
      "type": "function"
    },
    {
      "inputs": [],
      "name": "uriSuffix",
      "outputs": [
        {
          "internalType": "string",
          "name": "",
          "type": "string"
        }
      ],
      "stateMutability": "view",
      "type": "function"
    },
    {
      "inputs": [],
      "name": "withdraw",
      "outputs": [],
      "stateMutability": "nonpayable",
      "type": "function"
    }
  ],
  "bytecode": "0x608060405260405180602001604052806000815250600b90805190602001906200002b9291906200085b565b506040518060400160405280600581526020017f2e6a736f6e000000000000000000000000000000000000000000000000000000815250600c9080519060200190620000799291906200085b565b506019600e55601f600f5560006011553480156200009657600080fd5b50733cc6cdda760b79bafa08df41ecfa224f810dceb660016040518060400160405280600381526020017f45676700000000000000000000000000000000000000000000000000000000008152506040518060400160405280600381526020017f45474700000000000000000000000000000000000000000000000000000000008152506200013a6200012e6200078660201b60201c565b6200078e60201b60201c565b8160039080519060200190620001529291906200085b565b5080600490805190602001906200016b9291906200085b565b506200017c6200085260201b60201c565b600181905550505060006daaeb6d7670e522a718067333cd4e73ffffffffffffffffffffffffffffffffffffffff163b1115620003795780156200023f576daaeb6d7670e522a718067333cd4e73ffffffffffffffffffffffffffffffffffffffff16637d3e3dbe30846040518363ffffffff1660e01b815260040162000205929190620009a7565b600060405180830381600087803b1580156200022057600080fd5b505af115801562000235573d6000803e3d6000fd5b5050505062000378565b600073ffffffffffffffffffffffffffffffffffffffff168273ffffffffffffffffffffffffffffffffffffffff1614620002f9576daaeb6d7670e522a718067333cd4e73ffffffffffffffffffffffffffffffffffffffff1663a0af290330846040518363ffffffff1660e01b8152600401620002bf929190620009a7565b600060405180830381600087803b158015620002da57600080fd5b505af1158015620002ef573d6000803e3d6000fd5b5050505062000377565b6daaeb6d7670e522a718067333cd4e73ffffffffffffffffffffffffffffffffffffffff16634420e486306040518263ffffffff1660e01b8152600401620003429190620009d4565b600060405180830381600087803b1580156200035d57600080fd5b505af115801562000372573d6000803e3d6000fd5b505050505b5b5b505060405180610c800160405280600160ff168152602001600160ff168152602001600160ff168152602001600160ff168152602001600160ff168152602001600160ff168152602001600160ff168152602001600160ff168152602001600160ff168152602001600160ff168152602001600160ff168152602001600160ff168152602001600160ff168152602001600260ff168152602001600260ff168152602001600260ff168152602001600260ff168152602001600260ff168152602001600260ff168152602001600260ff168152602001600260ff168152602001600260ff168152602001600260ff168152602001600360ff168152602001600360ff168152602001600360ff168152602001600360ff168152602001600360ff168152602001600460ff168152602001600460ff168152602001600460ff168152602001600460ff168152602001600460ff168152602001600560ff168152602001600560ff168152602001600560ff168152602001600660ff168152602001600660ff168152602001600660ff168152602001600760ff168152602001600760ff168152602001600760ff168152602001600860ff168152602001600860ff168152602001600860ff168152602001600960ff168152602001600960ff168152602001600960ff168152602001600a60ff168152602001600a60ff168152602001600a60ff168152602001600b60ff168152602001600b60ff168152602001600b60ff168152602001600c60ff168152602001600c60ff168152602001600c60ff168152602001600d60ff168152602001600d60ff168152602001600d60ff168152602001600e60ff168152602001600e60ff168152602001600e60ff168152602001600f60ff168152602001600f60ff168152602001600f60ff168152602001601060ff168152602001601060ff168152602001601060ff168152602001601160ff168152602001601160ff168152602001601160ff168152602001601260ff168152602001601260ff168152602001601260ff168152602001601360ff168152602001601360ff168152602001601360ff168152602001601460ff168152602001601460ff168152602001601460ff168152602001601560ff168152602001601560ff168152602001601560ff168152602001601660ff168152602001601660ff168152602001601660ff168152602001601760ff168152602001601760ff168152602001601760ff168152602001601860ff168152602001601860ff168152602001601860ff168152602001601960ff168152602001601a60ff168152602001601b60ff168152602001601c60ff168152602001601d60ff168152602001601e60ff168152602001601f60ff1681525060129060646200077f929190620008ec565b5062000a55565b600033905090565b60008060009054906101000a900473ffffffffffffffffffffffffffffffffffffffff169050816000806101000a81548173ffffffffffffffffffffffffffffffffffffffff021916908373ffffffffffffffffffffffffffffffffffffffff1602179055508173ffffffffffffffffffffffffffffffffffffffff168173ffffffffffffffffffffffffffffffffffffffff167f8be0079c531659141344cd1fd0a4f28419497f9722a3daafe3b4186f6b6457e060405160405180910390a35050565b60006001905090565b828054620008699062000a20565b90600052602060002090601f0160209004810192826200088d5760008555620008d9565b82601f10620008a857805160ff1916838001178555620008d9565b82800160010185558215620008d9579182015b82811115620008d8578251825591602001919060010190620008bb565b5b509050620008e8919062000943565b5090565b82805482825590600052602060002090810192821562000930579160200282015b828111156200092f578251829060ff169055916020019190600101906200090d565b5b5090506200093f919062000943565b5090565b5b808211156200095e57600081600090555060010162000944565b5090565b600073ffffffffffffffffffffffffffffffffffffffff82169050919050565b60006200098f8262000962565b9050919050565b620009a18162000982565b82525050565b6000604082019050620009be600083018562000996565b620009cd602083018462000996565b9392505050565b6000602082019050620009eb600083018462000996565b92915050565b7f4e487b7100000000000000000000000000000000000000000000000000000000600052602260045260246000fd5b6000600282049050600182168062000a3957607f821691505b60208210810362000a4f5762000a4e620009f1565b5b50919050565b6140a78062000a656000396000f3fe6080604052600436106102305760003560e01c806391b7f5ed1161012e578063c87b56dd116100ab578063e8a3d4851161006f578063e8a3d4851461080a578063e985e9c514610835578063f2fde38b14610872578063f307101a1461089b578063f46a04eb146108d857610230565b8063c87b56dd14610723578063d123973014610760578063d547cfb71461078b578063dc5eb76d146107b6578063e59d0581146107e157610230565b8063a0712d68116100f2578063a0712d6814610663578063a22cb4651461067f578063afa20f54146106a8578063b88d4fde146106d1578063c254cc7b146106fa57610230565b806391b7f5ed1461059057806391ff7e01146105b957806395d89b41146105e257806398d5fdca1461060d578063a035b1fe1461063857610230565b806342842e0e116101bc5780636352211e116101805780636352211e146104a957806370a08231146104e6578063715018a614610523578063796547011461053a5780638da5cb5b1461056557610230565b806342842e0e146103d4578063486a7e6b146103fd5780635503a0e8146104285780635aba27af1461045357806362b99ad41461047e57610230565b8063095ea7b311610203578063095ea7b31461030357806318160ddd1461032c57806323b872dd146103575780633a34c480146103805780633ccfd60b146103bd57610230565b806301ffc9a71461023557806304b5085e1461027257806306fdde031461029b578063081812fc146102c6575b600080fd5b34801561024157600080fd5b5061025c60048036038101906102579190612f03565b610901565b6040516102699190612f4b565b60405180910390f35b34801561027e57600080fd5b5061029960048036038101906102949190612f9c565b610993565b005b3480156102a757600080fd5b506102b0610a2f565b6040516102bd9190613062565b60405180910390f35b3480156102d257600080fd5b506102ed60048036038101906102e89190612f9c565b610ac1565b6040516102fa91906130c5565b60405180910390f35b34801561030f57600080fd5b5061032a6004803603810190610325919061310c565b610b40565b005b34801561033857600080fd5b50610341610c84565b60405161034e919061315b565b60405180910390f35b34801561036357600080fd5b5061037e60048036038101906103799190613176565b610c9b565b005b34801561038c57600080fd5b506103a760048036038101906103a29190612f9c565b610e7d565b6040516103b49190612f4b565b60405180910390f35b3480156103c957600080fd5b506103d2610e9a565b005b3480156103e057600080fd5b506103fb60048036038101906103f69190613176565b610eeb565b005b34801561040957600080fd5b506104126110cd565b60405161041f919061315b565b60405180910390f35b34801561043457600080fd5b5061043d6110d3565b60405161044a9190613062565b60405180910390f35b34801561045f57600080fd5b50610468611161565b6040516104759190612f4b565b60405180910390f35b34801561048a57600080fd5b506104936111c3565b6040516104a09190613062565b60405180910390f35b3480156104b557600080fd5b506104d060048036038101906104cb9190612f9c565b611251565b6040516104dd91906130c5565b60405180910390f35b3480156104f257600080fd5b5061050d600480360381019061050891906131c9565b611263565b60405161051a919061315b565b60405180910390f35b34801561052f57600080fd5b5061053861131b565b005b34801561054657600080fd5b5061054f61132f565b60405161055c919061315b565b60405180910390f35b34801561057157600080fd5b5061057a611335565b60405161058791906130c5565b60405180910390f35b34801561059c57600080fd5b506105b760048036038101906105b29190612f9c565b61135e565b005b3480156105c557600080fd5b506105e060048036038101906105db919061310c565b611370565b005b3480156105ee57600080fd5b506105f76116ed565b6040516106049190613062565b60405180910390f35b34801561061957600080fd5b5061062261177f565b60405161062f919061315b565b60405180910390f35b34801561064457600080fd5b5061064d611789565b60405161065a919061315b565b60405180910390f35b61067d60048036038101906106789190612f9c565b61178f565b005b34801561068b57600080fd5b506106a660048036038101906106a19190613222565b6118bf565b005b3480156106b457600080fd5b506106cf60048036038101906106ca91906131c9565b611a36565b005b3480156106dd57600080fd5b506106f860048036038101906106f39190613397565b611a82565b005b34801561070657600080fd5b50610721600480360381019061071c91906131c9565b611c67565b005b34801561072f57600080fd5b5061074a60048036038101906107459190612f9c565b611cb3565b6040516107579190613062565b60405180910390f35b34801561076c57600080fd5b50610775611d70565b6040516107829190612f4b565b60405180910390f35b34801561079757600080fd5b506107a0611d83565b6040516107ad9190613062565b60405180910390f35b3480156107c257600080fd5b506107cb611d92565b6040516107d8919061315b565b60405180910390f35b3480156107ed57600080fd5b50610808600480360381019061080391906134e2565b611d98565b005b34801561081657600080fd5b5061081f611dc8565b60405161082c9190613062565b60405180910390f35b34801561084157600080fd5b5061085c6004803603810190610857919061352b565b611de8565b6040516108699190612f4b565b60405180910390f35b34801561087e57600080fd5b50610899600480360381019061089491906131c9565b611e7c565b005b3480156108a757600080fd5b506108c260048036038101906108bd9190612f9c565b611eff565b6040516108cf919061315b565b60405180910390f35b3480156108e457600080fd5b506108ff60048036038101906108fa919061356b565b611f1c565b005b60006301ffc9a760e01b827bffffffffffffffffffffffffffffffffffffffffffffffffffffffff1916148061095c57506380ac58cd60e01b827bffffffffffffffffffffffffffffffffffffffffffffffffffffffff1916145b8061098c5750635b5e139f60e01b827bffffffffffffffffffffffffffffffffffffffffffffffffffffffff1916145b9050919050565b600a60009054906101000a900473ffffffffffffffffffffffffffffffffffffffff1673ffffffffffffffffffffffffffffffffffffffff163373ffffffffffffffffffffffffffffffffffffffff1614610a23576040517f08c379a0000000000000000000000000000000000000000000000000000000008152600401610a1a9061360a565b60405180910390fd5b610a2c81611f41565b50565b606060038054610a3e90613659565b80601f0160208091040260200160405190810160405280929190818152602001828054610a6a90613659565b8015610ab75780601f10610a8c57610100808354040283529160200191610ab7565b820191906000526020600020905b815481529060010190602001808311610a9a57829003601f168201915b5050505050905090565b6000610acc82611f4f565b610b02576040517fcf4700e400000000000000000000000000000000000000000000000000000000815260040160405180910390fd5b6007600083815260200190815260200160002060000160009054906101000a900473ffffffffffffffffffffffffffffffffffffffff169050919050565b6000610b4b82611251565b90508073ffffffffffffffffffffffffffffffffffffffff16610b6c611fae565b73ffffffffffffffffffffffffffffffffffffffff1614610bcf57610b9881610b93611fae565b611de8565b610bce576040517fcfb3b94200000000000000000000000000000000000000000000000000000000815260040160405180910390fd5b5b826007600084815260200190815260200160002060000160006101000a81548173ffffffffffffffffffffffffffffffffffffffff021916908373ffffffffffffffffffffffffffffffffffffffff160217905550818373ffffffffffffffffffffffffffffffffffffffff168273ffffffffffffffffffffffffffffffffffffffff167f8c5be1e5ebec7d5bd14f71427d1e84f3dd0314c0f7b2291e5b200ac8c7c3b92560405160405180910390a4505050565b6000610c8e611fb6565b6002546001540303905090565b8260006daaeb6d7670e522a718067333cd4e73ffffffffffffffffffffffffffffffffffffffff163b1115610e6b573373ffffffffffffffffffffffffffffffffffffffff168173ffffffffffffffffffffffffffffffffffffffff1603610d0d57610d08848484611fbf565b610e77565b6daaeb6d7670e522a718067333cd4e73ffffffffffffffffffffffffffffffffffffffff1663c617113430336040518363ffffffff1660e01b8152600401610d5692919061368a565b602060405180830381865afa158015610d73573d6000803e3d6000fd5b505050506040513d601f19601f82011682018060405250810190610d9791906136c8565b8015610e2957506daaeb6d7670e522a718067333cd4e73ffffffffffffffffffffffffffffffffffffffff1663c617113430836040518363ffffffff1660e01b8152600401610de792919061368a565b602060405180830381865afa158015610e04573d6000803e3d6000fd5b505050506040513d601f19601f82011682018060405250810190610e2891906136c8565b5b610e6a57336040517fede71dcc000000000000000000000000000000000000000000000000000000008152600401610e6191906130c5565b60405180910390fd5b5b610e76848484611fbf565b5b50505050565b6000600e548210158015610e935750600f548211155b9050919050565b610ea26122e1565b3373ffffffffffffffffffffffffffffffffffffffff166108fc479081150290604051600060405180830381858888f19350505050158015610ee8573d6000803e3d6000fd5b50565b8260006daaeb6d7670e522a718067333cd4e73ffffffffffffffffffffffffffffffffffffffff163b11156110bb573373ffffffffffffffffffffffffffffffffffffffff168173ffffffffffffffffffffffffffffffffffffffff1603610f5d57610f5884848461235f565b6110c7565b6daaeb6d7670e522a718067333cd4e73ffffffffffffffffffffffffffffffffffffffff1663c617113430336040518363ffffffff1660e01b8152600401610fa692919061368a565b602060405180830381865afa158015610fc3573d6000803e3d6000fd5b505050506040513d601f19601f82011682018060405250810190610fe791906136c8565b801561107957506daaeb6d7670e522a718067333cd4e73ffffffffffffffffffffffffffffffffffffffff1663c617113430836040518363ffffffff1660e01b815260040161103792919061368a565b602060405180830381865afa158015611054573d6000803e3d6000fd5b505050506040513d601f19601f8201168201806040525081019061107891906136c8565b5b6110ba57336040517fede71dcc0000000000000000000000000000000000000000000000000000000081526004016110b191906130c5565b60405180910390fd5b5b6110c684848461235f565b5b50505050565b600d5481565b600c80546110e090613659565b80601f016020809104026020016040519081016040528092919081815260200182805461110c90613659565b80156111595780601f1061112e57610100808354040283529160200191611159565b820191906000526020600020905b81548152906001019060200180831161113c57829003601f168201915b505050505081565b600080601280549050905060005b818110156111b95761119e6012828154811061118e5761118d6136f5565b5b9060005260206000200154610e7d565b156111ae576001925050506111c0565b80600101905061116f565b5060009150505b90565b600b80546111d090613659565b80601f01602080910402602001604051908101604052809291908181526020018280546111fc90613659565b80156112495780601f1061121e57610100808354040283529160200191611249565b820191906000526020600020905b81548152906001019060200180831161122c57829003601f168201915b505050505081565b600061125c8261237f565b9050919050565b60008073ffffffffffffffffffffffffffffffffffffffff168273ffffffffffffffffffffffffffffffffffffffff16036112ca576040517f8f4eb60400000000000000000000000000000000000000000000000000000000815260040160405180910390fd5b67ffffffffffffffff600660008473ffffffffffffffffffffffffffffffffffffffff1673ffffffffffffffffffffffffffffffffffffffff16815260200190815260200160002054169050919050565b6113236122e1565b61132d600061244b565b565b600e5481565b60008060009054906101000a900473ffffffffffffffffffffffffffffffffffffffff16905090565b6113666122e1565b8060118190555050565b600960009054906101000a900473ffffffffffffffffffffffffffffffffffffffff1673ffffffffffffffffffffffffffffffffffffffff163373ffffffffffffffffffffffffffffffffffffffff1614611400576040517f08c379a00000000000000000000000000000000000000000000000000000000081526004016113f790613796565b60405180910390fd5b600060128054905011611448576040517f08c379a000000000000000000000000000000000000000000000000000000000815260040161143f90613802565b60405180910390fd5b3273ffffffffffffffffffffffffffffffffffffffff168273ffffffffffffffffffffffffffffffffffffffff16146114b6576040517f08c379a00000000000000000000000000000000000000000000000000000000081526004016114ad9061386e565b60405180910390fd5b6001811480156114cb57506114c9611161565b155b1561150b576040517f08c379a000000000000000000000000000000000000000000000000000000000815260040161150290613900565b60405180910390fd5b600061151561250f565b600143611522919061394f565b404460405160200161153693929190613a17565b6040516020818303038152906040528051906020012060001c905060006012805490509050600183036115d9576000805b828110156115ae5761159660128281548110611586576115856136f5565b5b9060005260206000200154610e7d565b156115a3578091506115ae565b806001019050611567565b5080826115bb919061394f565b836115c69190613a83565b816115d19190613ab4565b9250506115e8565b80826115e59190613a83565b91505b6000601283815481106115fe576115fd6136f5565b5b90600052602060002001549050611616856001612517565b8060136000611623610c84565b81526020019081526020016000208190555060126001601280549050611649919061394f565b8154811061165a576116596136f5565b5b906000526020600020015460128481548110611679576116786136f5565b5b9060005260206000200181905550601280548061169957611698613b0a565b5b600190038181906000526020600020016000905590557ff5535ccd9f40eb4bc73fac8710dbb2effbf3329da83f62b35d9aa88161bb85ca336040516116de91906130c5565b60405180910390a15050505050565b6060600480546116fc90613659565b80601f016020809104026020016040519081016040528092919081815260200182805461172890613659565b80156117755780601f1061174a57610100808354040283529160200191611775565b820191906000526020600020905b81548152906001019060200180831161175857829003601f168201915b5050505050905090565b6000601154905090565b60115481565b601060009054906101000a900460ff166117de576040517f08c379a00000000000000000000000000000000000000000000000000000000081526004016117d590613b85565b60405180910390fd5b600060128054905011611826576040517f08c379a000000000000000000000000000000000000000000000000000000000815260040161181d90613802565b60405180910390fd5b8061182f61177f565b6118399190613ba5565b34101561187b576040517f08c379a000000000000000000000000000000000000000000000000000000000815260040161187290613c71565b60405180910390fd5b6118853382612517565b7ff5535ccd9f40eb4bc73fac8710dbb2effbf3329da83f62b35d9aa88161bb85ca336040516118b491906130c5565b60405180910390a150565b6118c7611fae565b73ffffffffffffffffffffffffffffffffffffffff168273ffffffffffffffffffffffffffffffffffffffff160361192b576040517fb06307db00000000000000000000000000000000000000000000000000000000815260040160405180910390fd5b8060086000611938611fae565b73ffffffffffffffffffffffffffffffffffffffff1673ffffffffffffffffffffffffffffffffffffffff16815260200190815260200160002060008473ffffffffffffffffffffffffffffffffffffffff1673ffffffffffffffffffffffffffffffffffffffff16815260200190815260200160002060006101000a81548160ff0219169083151502179055508173ffffffffffffffffffffffffffffffffffffffff166119e5611fae565b73ffffffffffffffffffffffffffffffffffffffff167f17307eab39ab6107e8899845ad3d59bd9653f200f220920489ca2b5937696c3183604051611a2a9190612f4b565b60405180910390a35050565b611a3e6122e1565b80600a60006101000a81548173ffffffffffffffffffffffffffffffffffffffff021916908373ffffffffffffffffffffffffffffffffffffffff16021790555050565b8360006daaeb6d7670e522a718067333cd4e73ffffffffffffffffffffffffffffffffffffffff163b1115611c53573373ffffffffffffffffffffffffffffffffffffffff168173ffffffffffffffffffffffffffffffffffffffff1603611af557611af0858585856126d3565b611c60565b6daaeb6d7670e522a718067333cd4e73ffffffffffffffffffffffffffffffffffffffff1663c617113430336040518363ffffffff1660e01b8152600401611b3e92919061368a565b602060405180830381865afa158015611b5b573d6000803e3d6000fd5b505050506040513d601f19601f82011682018060405250810190611b7f91906136c8565b8015611c1157506daaeb6d7670e522a718067333cd4e73ffffffffffffffffffffffffffffffffffffffff1663c617113430836040518363ffffffff1660e01b8152600401611bcf92919061368a565b602060405180830381865afa158015611bec573d6000803e3d6000fd5b505050506040513d601f19601f82011682018060405250810190611c1091906136c8565b5b611c5257336040517fede71dcc000000000000000000000000000000000000000000000000000000008152600401611c4991906130c5565b60405180910390fd5b5b611c5f858585856126d3565b5b5050505050565b611c6f6122e1565b80600960006101000a81548173ffffffffffffffffffffffffffffffffffffffff021916908373ffffffffffffffffffffffffffffffffffffffff16021790555050565b6060611cbe82611f4f565b611cfd576040517f08c379a0000000000000000000000000000000000000000000000000000000008152600401611cf490613d03565b60405180910390fd5b6000611d07612746565b90506000815111611d275760405180602001604052806000815250611d68565b80611d446013600086815260200190815260200160002054612766565b600c604051602001611d5893929190613df3565b6040516020818303038152906040525b915050919050565b601060009054906101000a900460ff1681565b6060611d8d612746565b905090565b600f5481565b611da06122e1565b60126000611dae9190612e0c565b8060129080519060200190611dc4929190612e2d565b5050565b606060405180606001604052806036815260200161403c60369139905090565b6000600860008473ffffffffffffffffffffffffffffffffffffffff1673ffffffffffffffffffffffffffffffffffffffff16815260200190815260200160002060008373ffffffffffffffffffffffffffffffffffffffff1673ffffffffffffffffffffffffffffffffffffffff16815260200190815260200160002060009054906101000a900460ff16905092915050565b611e846122e1565b600073ffffffffffffffffffffffffffffffffffffffff168173ffffffffffffffffffffffffffffffffffffffff1603611ef3576040517f08c379a0000000000000000000000000000000000000000000000000000000008152600401611eea90613e96565b60405180910390fd5b611efc8161244b565b50565b600060136000838152602001908152602001600020549050919050565b611f246122e1565b80601060006101000a81548160ff02191690831515021790555050565b611f4c816000612834565b50565b600081611f5a611fb6565b11158015611f69575060015482105b8015611fa7575060007c0100000000000000000000000000000000000000000000000000000000600560008581526020019081526020016000205416145b9050919050565b600033905090565b60006001905090565b6000611fca8261237f565b90508373ffffffffffffffffffffffffffffffffffffffff168173ffffffffffffffffffffffffffffffffffffffff1614612031576040517fa114810000000000000000000000000000000000000000000000000000000000815260040160405180910390fd5b60008061203d84612a86565b91509150612053818761204e611fae565b612aad565b61209f5761206886612063611fae565b611de8565b61209e576040517f59c896be00000000000000000000000000000000000000000000000000000000815260040160405180910390fd5b5b600073ffffffffffffffffffffffffffffffffffffffff168573ffffffffffffffffffffffffffffffffffffffff1603612105576040517fea553b3400000000000000000000000000000000000000000000000000000000815260040160405180910390fd5b6121128686866001612af1565b801561211d57600082555b600660008773ffffffffffffffffffffffffffffffffffffffff1673ffffffffffffffffffffffffffffffffffffffff168152602001908152602001600020600081546001900391905081905550600660008673ffffffffffffffffffffffffffffffffffffffff1673ffffffffffffffffffffffffffffffffffffffff16815260200190815260200160002060008154600101919050819055506121eb856121c7888887612af7565b7c020000000000000000000000000000000000000000000000000000000017612b1f565b600560008681526020019081526020016000208190555060007c0200000000000000000000000000000000000000000000000000000000841603612271576000600185019050600060056000838152602001908152602001600020540361226f57600154811461226e578360056000838152602001908152602001600020819055505b5b505b838573ffffffffffffffffffffffffffffffffffffffff168773ffffffffffffffffffffffffffffffffffffffff167fddf252ad1be2c89b69c2b068fc378daa952ba7f163c4a11628f55a4df523b3ef60405160405180910390a46122d98686866001612b4a565b505050505050565b6122e961250f565b73ffffffffffffffffffffffffffffffffffffffff16612307611335565b73ffffffffffffffffffffffffffffffffffffffff161461235d576040517f08c379a000000000000000000000000000000000000000000000000000000000815260040161235490613f02565b60405180910390fd5b565b61237a83838360405180602001604052806000815250611a82565b505050565b6000808290508061238e611fb6565b11612414576001548110156124135760006005600083815260200190815260200160002054905060007c0100000000000000000000000000000000000000000000000000000000821603612411575b600081036124075760056000836001900393508381526020019081526020016000205490506123dd565b8092505050612446565b505b5b6040517fdf2d9b4200000000000000000000000000000000000000000000000000000000815260040160405180910390fd5b919050565b60008060009054906101000a900473ffffffffffffffffffffffffffffffffffffffff169050816000806101000a81548173ffffffffffffffffffffffffffffffffffffffff021916908373ffffffffffffffffffffffffffffffffffffffff1602179055508173ffffffffffffffffffffffffffffffffffffffff168173ffffffffffffffffffffffffffffffffffffffff167f8be0079c531659141344cd1fd0a4f28419497f9722a3daafe3b4186f6b6457e060405160405180910390a35050565b600033905090565b6000600154905060008203612558576040517fb562e8dd00000000000000000000000000000000000000000000000000000000815260040160405180910390fd5b6125656000848385612af1565b600160406001901b178202600660008573ffffffffffffffffffffffffffffffffffffffff1673ffffffffffffffffffffffffffffffffffffffff168152602001908152602001600020600082825401925050819055506125dc836125cd6000866000612af7565b6125d685612b50565b17612b1f565b6005600083815260200190815260200160002081905550600080838301905073ffffffffffffffffffffffffffffffffffffffff85169150828260007fddf252ad1be2c89b69c2b068fc378daa952ba7f163c4a11628f55a4df523b3ef600080a4600183015b81811461267d57808360007fddf252ad1be2c89b69c2b068fc378daa952ba7f163c4a11628f55a4df523b3ef600080a4600181019050612642565b50600082036126b8576040517f2e07630000000000000000000000000000000000000000000000000000000000815260040160405180910390fd5b8060018190555050506126ce6000848385612b4a565b505050565b6126de848484610c9b565b60008373ffffffffffffffffffffffffffffffffffffffff163b146127405761270984848484612b60565b61273f576040517fd1a57ed600000000000000000000000000000000000000000000000000000000815260040160405180910390fd5b5b50505050565b606060405180606001604052806036815260200161400660369139905090565b60606000600161277584612cb0565b01905060008167ffffffffffffffff8111156127945761279361326c565b5b6040519080825280601f01601f1916602001820160405280156127c65781602001600182028036833780820191505090505b509050600082602001820190505b600115612829578080600190039150507f3031323334353637383961626364656600000000000000000000000000000000600a86061a8153600a858161281d5761281c613a54565b5b049450600085036127d4575b819350505050919050565b600061283f8361237f565b9050600081905060008061285286612a86565b9150915084156128bb5761286e8184612869611fae565b612aad565b6128ba576128838361287e611fae565b611de8565b6128b9576040517f59c896be00000000000000000000000000000000000000000000000000000000815260040160405180910390fd5b5b5b6128c9836000886001612af1565b80156128d457600082555b600160806001901b03600660008573ffffffffffffffffffffffffffffffffffffffff1673ffffffffffffffffffffffffffffffffffffffff1681526020019081526020016000206000828254019250508190555061297c8361293985600088612af7565b7c02000000000000000000000000000000000000000000000000000000007c01000000000000000000000000000000000000000000000000000000001717612b1f565b600560008881526020019081526020016000208190555060007c0200000000000000000000000000000000000000000000000000000000851603612a025760006001870190506000600560008381526020019081526020016000205403612a005760015481146129ff578460056000838152602001908152602001600020819055505b5b505b85600073ffffffffffffffffffffffffffffffffffffffff168473ffffffffffffffffffffffffffffffffffffffff167fddf252ad1be2c89b69c2b068fc378daa952ba7f163c4a11628f55a4df523b3ef60405160405180910390a4612a6c836000886001612b4a565b600260008154809291906001019190505550505050505050565b60008060006007600085815260200190815260200160002090508092508254915050915091565b600073ffffffffffffffffffffffffffffffffffffffff8316925073ffffffffffffffffffffffffffffffffffffffff821691508382148383141790509392505050565b50505050565b60008060e883901c905060e8612b0e868684612e03565b62ffffff16901b9150509392505050565b600073ffffffffffffffffffffffffffffffffffffffff83169250814260a01b178317905092915050565b50505050565b60006001821460e11b9050919050565b60008373ffffffffffffffffffffffffffffffffffffffff1663150b7a02612b86611fae565b8786866040518563ffffffff1660e01b8152600401612ba89493929190613f77565b6020604051808303816000875af1925050508015612be457506040513d601f19601f82011682018060405250810190612be19190613fd8565b60015b612c5d573d8060008114612c14576040519150601f19603f3d011682016040523d82523d6000602084013e612c19565b606091505b506000815103612c55576040517fd1a57ed600000000000000000000000000000000000000000000000000000000815260040160405180910390fd5b805181602001fd5b63150b7a0260e01b7bffffffffffffffffffffffffffffffffffffffffffffffffffffffff1916817bffffffffffffffffffffffffffffffffffffffffffffffffffffffff191614915050949350505050565b600080600090507a184f03e93ff9f4daa797ed6e38ed64bf6a1f0100000000000000008310612d0e577a184f03e93ff9f4daa797ed6e38ed64bf6a1f0100000000000000008381612d0457612d03613a54565b5b0492506040810190505b6d04ee2d6d415b85acef81000000008310612d4b576d04ee2d6d415b85acef81000000008381612d4157612d40613a54565b5b0492506020810190505b662386f26fc100008310612d7a57662386f26fc100008381612d7057612d6f613a54565b5b0492506010810190505b6305f5e1008310612da3576305f5e1008381612d9957612d98613a54565b5b0492506008810190505b6127108310612dc8576127108381612dbe57612dbd613a54565b5b0492506004810190505b60648310612deb5760648381612de157612de0613a54565b5b0492506002810190505b600a8310612dfa576001810190505b80915050919050565b60009392505050565b5080546000825590600052602060002090810190612e2a9190612e7a565b50565b828054828255906000526020600020908101928215612e69579160200282015b82811115612e68578251825591602001919060010190612e4d565b5b509050612e769190612e7a565b5090565b5b80821115612e93576000816000905550600101612e7b565b5090565b6000604051905090565b600080fd5b600080fd5b60007fffffffff0000000000000000000000000000000000000000000000000000000082169050919050565b612ee081612eab565b8114612eeb57600080fd5b50565b600081359050612efd81612ed7565b92915050565b600060208284031215612f1957612f18612ea1565b5b6000612f2784828501612eee565b91505092915050565b60008115159050919050565b612f4581612f30565b82525050565b6000602082019050612f606000830184612f3c565b92915050565b6000819050919050565b612f7981612f66565b8114612f8457600080fd5b50565b600081359050612f9681612f70565b92915050565b600060208284031215612fb257612fb1612ea1565b5b6000612fc084828501612f87565b91505092915050565b600081519050919050565b600082825260208201905092915050565b60005b83811015613003578082015181840152602081019050612fe8565b83811115613012576000848401525b50505050565b6000601f19601f8301169050919050565b600061303482612fc9565b61303e8185612fd4565b935061304e818560208601612fe5565b61305781613018565b840191505092915050565b6000602082019050818103600083015261307c8184613029565b905092915050565b600073ffffffffffffffffffffffffffffffffffffffff82169050919050565b60006130af82613084565b9050919050565b6130bf816130a4565b82525050565b60006020820190506130da60008301846130b6565b92915050565b6130e9816130a4565b81146130f457600080fd5b50565b600081359050613106816130e0565b92915050565b6000806040838503121561312357613122612ea1565b5b6000613131858286016130f7565b925050602061314285828601612f87565b9150509250929050565b61315581612f66565b82525050565b6000602082019050613170600083018461314c565b92915050565b60008060006060848603121561318f5761318e612ea1565b5b600061319d868287016130f7565b93505060206131ae868287016130f7565b92505060406131bf86828701612f87565b9150509250925092565b6000602082840312156131df576131de612ea1565b5b60006131ed848285016130f7565b91505092915050565b6131ff81612f30565b811461320a57600080fd5b50565b60008135905061321c816131f6565b92915050565b6000806040838503121561323957613238612ea1565b5b6000613247858286016130f7565b92505060206132588582860161320d565b9150509250929050565b600080fd5b600080fd5b7f4e487b7100000000000000000000000000000000000000000000000000000000600052604160045260246000fd5b6132a482613018565b810181811067ffffffffffffffff821117156132c3576132c261326c565b5b80604052505050565b60006132d6612e97565b90506132e2828261329b565b919050565b600067ffffffffffffffff8211156133025761330161326c565b5b61330b82613018565b9050602081019050919050565b82818337600083830152505050565b600061333a613335846132e7565b6132cc565b90508281526020810184848401111561335657613355613267565b5b613361848285613318565b509392505050565b600082601f83011261337e5761337d613262565b5b813561338e848260208601613327565b91505092915050565b600080600080608085870312156133b1576133b0612ea1565b5b60006133bf878288016130f7565b94505060206133d0878288016130f7565b93505060406133e187828801612f87565b925050606085013567ffffffffffffffff81111561340257613401612ea6565b5b61340e87828801613369565b91505092959194509250565b600067ffffffffffffffff8211156134355761343461326c565b5b602082029050602081019050919050565b600080fd5b600061345e6134598461341a565b6132cc565b9050808382526020820190506020840283018581111561348157613480613446565b5b835b818110156134aa57806134968882612f87565b845260208401935050602081019050613483565b5050509392505050565b600082601f8301126134c9576134c8613262565b5b81356134d984826020860161344b565b91505092915050565b6000602082840312156134f8576134f7612ea1565b5b600082013567ffffffffffffffff81111561351657613515612ea6565b5b613522848285016134b4565b91505092915050565b6000806040838503121561354257613541612ea1565b5b6000613550858286016130f7565b9250506020613561858286016130f7565b9150509250929050565b60006020828403121561358157613580612ea1565b5b600061358f8482850161320d565b91505092915050565b7f4f6e6c792074686520457175697020736d61727420636f6e747261637420636160008201527f6e206275726e2066726f6d206571756970000000000000000000000000000000602082015250565b60006135f4603183612fd4565b91506135ff82613598565b604082019050919050565b60006020820190508181036000830152613623816135e7565b9050919050565b7f4e487b7100000000000000000000000000000000000000000000000000000000600052602260045260246000fd5b6000600282049050600182168061367157607f821691505b6020821081036136845761368361362a565b5b50919050565b600060408201905061369f60008301856130b6565b6136ac60208301846130b6565b9392505050565b6000815190506136c2816131f6565b92915050565b6000602082840312156136de576136dd612ea1565b5b60006136ec848285016136b3565b91505092915050565b7f4e487b7100000000000000000000000000000000000000000000000000000000600052603260045260246000fd5b7f4f6e6c792074686520426f7820736d61727420636f6e74726163742063616e2060008201527f6d696e7400000000000000000000000000000000000000000000000000000000602082015250565b6000613780602483612fd4565b915061378b82613724565b604082019050919050565b600060208201905081810360008301526137af81613773565b9050919050565b7f4e6f2072656d61696e696e672045676773000000000000000000000000000000600082015250565b60006137ec601183612fd4565b91506137f7826137b6565b602082019050919050565b6000602082019050818103600083015261381b816137df565b9050919050565b7f6f70656e65722063616e6e6f7420626520736d61727420636f6e747261637400600082015250565b6000613858601f83612fd4565b915061386382613822565b602082019050919050565b600060208201905081810360008301526138878161384b565b9050919050565b7f4e6f206d6f7265206f6e652070657263656e742072617269746965732061766160008201527f696c61626c650000000000000000000000000000000000000000000000000000602082015250565b60006138ea602683612fd4565b91506138f58261388e565b604082019050919050565b60006020820190508181036000830152613919816138dd565b9050919050565b7f4e487b7100000000000000000000000000000000000000000000000000000000600052601160045260246000fd5b600061395a82612f66565b915061396583612f66565b92508282101561397857613977613920565b5b828203905092915050565b60008160601b9050919050565b600061399b82613983565b9050919050565b60006139ad82613990565b9050919050565b6139c56139c0826130a4565b6139a2565b82525050565b6000819050919050565b6000819050919050565b6139f06139eb826139cb565b6139d5565b82525050565b6000819050919050565b613a11613a0c82612f66565b6139f6565b82525050565b6000613a2382866139b4565b601482019150613a3382856139df565b602082019150613a438284613a00565b602082019150819050949350505050565b7f4e487b7100000000000000000000000000000000000000000000000000000000600052601260045260246000fd5b6000613a8e82612f66565b9150613a9983612f66565b925082613aa957613aa8613a54565b5b828206905092915050565b6000613abf82612f66565b9150613aca83612f66565b9250827fffffffffffffffffffffffffffffffffffffffffffffffffffffffffffffffff03821115613aff57613afe613920565b5b828201905092915050565b7f4e487b7100000000000000000000000000000000000000000000000000000000600052603160045260246000fd5b7f4d696e74696e67206973206e6f7420656e61626c656400000000000000000000600082015250565b6000613b6f601683612fd4565b9150613b7a82613b39565b602082019050919050565b60006020820190508181036000830152613b9e81613b62565b9050919050565b6000613bb082612f66565b9150613bbb83612f66565b9250817fffffffffffffffffffffffffffffffffffffffffffffffffffffffffffffffff0483118215151615613bf457613bf3613920565b5b828202905092915050565b7f4e6f7420656e6f756768204554482073656e743b20636865636b20707269636560008201527f2100000000000000000000000000000000000000000000000000000000000000602082015250565b6000613c5b602183612fd4565b9150613c6682613bff565b604082019050919050565b60006020820190508181036000830152613c8a81613c4e565b9050919050565b7f4552433732314d657461646174613a2055524920717565727920666f72206e6f60008201527f6e6578697374656e7420746f6b656e0000000000000000000000000000000000602082015250565b6000613ced602f83612fd4565b9150613cf882613c91565b604082019050919050565b60006020820190508181036000830152613d1c81613ce0565b9050919050565b600081905092915050565b6000613d3982612fc9565b613d438185613d23565b9350613d53818560208601612fe5565b80840191505092915050565b60008190508160005260206000209050919050565b60008154613d8181613659565b613d8b8186613d23565b94506001821660008114613da65760018114613db757613dea565b60ff19831686528186019350613dea565b613dc085613d5f565b60005b83811015613de257815481890152600182019150602081019050613dc3565b838801955050505b50505092915050565b6000613dff8286613d2e565b9150613e0b8285613d2e565b9150613e178284613d74565b9150819050949350505050565b7f4f776e61626c653a206e6577206f776e657220697320746865207a65726f206160008201527f6464726573730000000000000000000000000000000000000000000000000000602082015250565b6000613e80602683612fd4565b9150613e8b82613e24565b604082019050919050565b60006020820190508181036000830152613eaf81613e73565b9050919050565b7f4f776e61626c653a2063616c6c6572206973206e6f7420746865206f776e6572600082015250565b6000613eec602083612fd4565b9150613ef782613eb6565b602082019050919050565b60006020820190508181036000830152613f1b81613edf565b9050919050565b600081519050919050565b600082825260208201905092915050565b6000613f4982613f22565b613f538185613f2d565b9350613f63818560208601612fe5565b613f6c81613018565b840191505092915050565b6000608082019050613f8c60008301876130b6565b613f9960208301866130b6565b613fa6604083018561314c565b8181036060830152613fb88184613f3e565b905095945050505050565b600081519050613fd281612ed7565b92915050565b600060208284031215613fee57613fed612ea1565b5b6000613ffc84828501613fc3565b9150509291505056fe697066733a2f2f516d59566d6b47737362476f395a624d324844516833546a45796f72675a6a796a667161466a3336354c514d51512f697066733a2f2f516d615663544c626d6d593143557377464243426370766741386959643759456d6141726165463739626638675a2fa26469706673582212201c5583f9affd6112ba3dfd96850e359c3120d429dd3b3a012af52adfedbb12bb64736f6c634300080d0033",
  "linkReferences": {},
  "deployedLinkReferences": {}
}