{
  "_format": "hh-sol-artifact-1",
  "contractName": "NftEgg",
  "sourceName": "src/backend/contracts/NftEgg.sol",
  "abi": [
    {
      "inputs": [],
      "stateMutability": "nonpayable",
      "type": "constructor"
    },
    {
      "inputs": [],
      "name": "ApprovalCallerNotOwnerNorApproved",
      "type": "error"
    },
    {
      "inputs": [],
      "name": "ApprovalQueryForNonexistentToken",
      "type": "error"
    },
    {
      "inputs": [],
      "name": "ApproveToCaller",
      "type": "error"
    },
    {
      "inputs": [],
      "name": "BalanceQueryForZeroAddress",
      "type": "error"
    },
    {
      "inputs": [],
      "name": "MintERC2309QuantityExceedsLimit",
      "type": "error"
    },
    {
      "inputs": [],
      "name": "MintToZeroAddress",
      "type": "error"
    },
    {
      "inputs": [],
      "name": "MintZeroQuantity",
      "type": "error"
    },
    {
      "inputs": [
        {
          "internalType": "address",
          "name": "operator",
          "type": "address"
        }
      ],
      "name": "OperatorNotAllowed",
      "type": "error"
    },
    {
      "inputs": [],
      "name": "OwnerQueryForNonexistentToken",
      "type": "error"
    },
    {
      "inputs": [],
      "name": "OwnershipNotInitializedForExtraData",
      "type": "error"
    },
    {
      "inputs": [],
      "name": "TransferCallerNotOwnerNorApproved",
      "type": "error"
    },
    {
      "inputs": [],
      "name": "TransferFromIncorrectOwner",
      "type": "error"
    },
    {
      "inputs": [],
      "name": "TransferToNonERC721ReceiverImplementer",
      "type": "error"
    },
    {
      "inputs": [],
      "name": "TransferToZeroAddress",
      "type": "error"
    },
    {
      "inputs": [],
      "name": "URIQueryForNonexistentToken",
      "type": "error"
    },
    {
      "anonymous": false,
      "inputs": [
        {
          "indexed": true,
          "internalType": "address",
          "name": "owner",
          "type": "address"
        },
        {
          "indexed": true,
          "internalType": "address",
          "name": "approved",
          "type": "address"
        },
        {
          "indexed": true,
          "internalType": "uint256",
          "name": "tokenId",
          "type": "uint256"
        }
      ],
      "name": "Approval",
      "type": "event"
    },
    {
      "anonymous": false,
      "inputs": [
        {
          "indexed": true,
          "internalType": "address",
          "name": "owner",
          "type": "address"
        },
        {
          "indexed": true,
          "internalType": "address",
          "name": "operator",
          "type": "address"
        },
        {
          "indexed": false,
          "internalType": "bool",
          "name": "approved",
          "type": "bool"
        }
      ],
      "name": "ApprovalForAll",
      "type": "event"
    },
    {
      "anonymous": false,
      "inputs": [
        {
          "indexed": true,
          "internalType": "uint256",
          "name": "fromTokenId",
          "type": "uint256"
        },
        {
          "indexed": false,
          "internalType": "uint256",
          "name": "toTokenId",
          "type": "uint256"
        },
        {
          "indexed": true,
          "internalType": "address",
          "name": "from",
          "type": "address"
        },
        {
          "indexed": true,
          "internalType": "address",
          "name": "to",
          "type": "address"
        }
      ],
      "name": "ConsecutiveTransfer",
      "type": "event"
    },
    {
      "anonymous": false,
      "inputs": [
        {
          "indexed": false,
          "internalType": "address",
          "name": "user",
          "type": "address"
        }
      ],
      "name": "MintSuccessful",
      "type": "event"
    },
    {
      "anonymous": false,
      "inputs": [
        {
          "indexed": true,
          "internalType": "address",
          "name": "previousOwner",
          "type": "address"
        },
        {
          "indexed": true,
          "internalType": "address",
          "name": "newOwner",
          "type": "address"
        }
      ],
      "name": "OwnershipTransferred",
      "type": "event"
    },
    {
      "anonymous": false,
      "inputs": [
        {
          "indexed": true,
          "internalType": "address",
          "name": "from",
          "type": "address"
        },
        {
          "indexed": true,
          "internalType": "address",
          "name": "to",
          "type": "address"
        },
        {
          "indexed": true,
          "internalType": "uint256",
          "name": "tokenId",
          "type": "uint256"
        }
      ],
      "name": "Transfer",
      "type": "event"
    },
    {
      "inputs": [
        {
          "internalType": "address",
          "name": "to",
          "type": "address"
        },
        {
          "internalType": "uint256",
          "name": "tokenId",
          "type": "uint256"
        }
      ],
      "name": "approve",
      "outputs": [],
      "stateMutability": "nonpayable",
      "type": "function"
    },
    {
      "inputs": [
        {
          "internalType": "address",
          "name": "owner",
          "type": "address"
        }
      ],
      "name": "balanceOf",
      "outputs": [
        {
          "internalType": "uint256",
          "name": "",
          "type": "uint256"
        }
      ],
      "stateMutability": "view",
      "type": "function"
    },
    {
      "inputs": [],
      "name": "baseTokenURI",
      "outputs": [
        {
          "internalType": "string",
          "name": "",
          "type": "string"
        }
      ],
      "stateMutability": "pure",
      "type": "function"
    },
    {
      "inputs": [],
      "name": "burnAmount",
      "outputs": [
        {
          "internalType": "uint256",
          "name": "",
          "type": "uint256"
        }
      ],
      "stateMutability": "view",
      "type": "function"
    },
    {
      "inputs": [
        {
          "internalType": "uint256",
          "name": "_tokenId",
          "type": "uint256"
        }
      ],
      "name": "burnFromEquip",
      "outputs": [],
      "stateMutability": "nonpayable",
      "type": "function"
    },
    {
      "inputs": [],
      "name": "contractURI",
      "outputs": [
        {
          "internalType": "string",
          "name": "",
          "type": "string"
        }
      ],
      "stateMutability": "pure",
      "type": "function"
    },
    {
      "inputs": [
        {
          "internalType": "uint256",
          "name": "tokenId",
          "type": "uint256"
        }
      ],
      "name": "getApproved",
      "outputs": [
        {
          "internalType": "address",
          "name": "",
          "type": "address"
        }
      ],
      "stateMutability": "view",
      "type": "function"
    },
    {
      "inputs": [],
      "name": "getPrice",
      "outputs": [
        {
          "internalType": "uint256",
          "name": "",
          "type": "uint256"
        }
      ],
      "stateMutability": "view",
      "type": "function"
    },
    {
      "inputs": [
        {
          "internalType": "uint256",
          "name": "_tokenId",
          "type": "uint256"
        }
      ],
      "name": "idToMetadata",
      "outputs": [
        {
          "internalType": "uint256",
          "name": "",
          "type": "uint256"
        }
      ],
      "stateMutability": "view",
      "type": "function"
    },
    {
      "inputs": [
        {
          "internalType": "address",
          "name": "owner",
          "type": "address"
        },
        {
          "internalType": "address",
          "name": "operator",
          "type": "address"
        }
      ],
      "name": "isApprovedForAll",
      "outputs": [
        {
          "internalType": "bool",
          "name": "",
          "type": "bool"
        }
      ],
      "stateMutability": "view",
      "type": "function"
    },
    {
      "inputs": [
        {
          "internalType": "uint256",
          "name": "_metadata",
          "type": "uint256"
        }
      ],
      "name": "isOnePercentRarity",
      "outputs": [
        {
          "internalType": "bool",
          "name": "",
          "type": "bool"
        }
      ],
      "stateMutability": "view",
      "type": "function"
    },
    {
      "inputs": [
        {
          "internalType": "uint256",
          "name": "quantity",
          "type": "uint256"
        }
      ],
      "name": "mint",
      "outputs": [],
      "stateMutability": "payable",
      "type": "function"
    },
    {
      "inputs": [],
      "name": "mintEnabled",
      "outputs": [
        {
          "internalType": "bool",
          "name": "",
          "type": "bool"
        }
      ],
      "stateMutability": "view",
      "type": "function"
    },
    {
      "inputs": [
        {
          "internalType": "address",
          "name": "_user",
          "type": "address"
        },
        {
          "internalType": "uint256",
          "name": "_boxId",
          "type": "uint256"
        }
      ],
      "name": "mintFromBox",
      "outputs": [],
      "stateMutability": "nonpayable",
      "type": "function"
    },
    {
      "inputs": [],
      "name": "name",
      "outputs": [
        {
          "internalType": "string",
          "name": "",
          "type": "string"
        }
      ],
      "stateMutability": "view",
      "type": "function"
    },
    {
      "inputs": [],
      "name": "onePercentRarityAvailable",
      "outputs": [
        {
          "internalType": "bool",
          "name": "",
          "type": "bool"
        }
      ],
      "stateMutability": "view",
      "type": "function"
    },
    {
      "inputs": [],
      "name": "owner",
      "outputs": [
        {
          "internalType": "address",
          "name": "",
          "type": "address"
        }
      ],
      "stateMutability": "view",
      "type": "function"
    },
    {
      "inputs": [
        {
          "internalType": "uint256",
          "name": "tokenId",
          "type": "uint256"
        }
      ],
      "name": "ownerOf",
      "outputs": [
        {
          "internalType": "address",
          "name": "",
          "type": "address"
        }
      ],
      "stateMutability": "view",
      "type": "function"
    },
    {
      "inputs": [],
      "name": "price",
      "outputs": [
        {
          "internalType": "uint256",
          "name": "",
          "type": "uint256"
        }
      ],
      "stateMutability": "view",
      "type": "function"
    },
    {
      "inputs": [],
      "name": "rareFirstId",
      "outputs": [
        {
          "internalType": "uint256",
          "name": "",
          "type": "uint256"
        }
      ],
      "stateMutability": "view",
      "type": "function"
    },
    {
      "inputs": [],
      "name": "rareLastId",
      "outputs": [
        {
          "internalType": "uint256",
          "name": "",
          "type": "uint256"
        }
      ],
      "stateMutability": "view",
      "type": "function"
    },
    {
      "inputs": [],
      "name": "renounceOwnership",
      "outputs": [],
      "stateMutability": "nonpayable",
      "type": "function"
    },
    {
      "inputs": [
        {
          "internalType": "address",
          "name": "from",
          "type": "address"
        },
        {
          "internalType": "address",
          "name": "to",
          "type": "address"
        },
        {
          "internalType": "uint256",
          "name": "tokenId",
          "type": "uint256"
        }
      ],
      "name": "safeTransferFrom",
      "outputs": [],
      "stateMutability": "nonpayable",
      "type": "function"
    },
    {
      "inputs": [
        {
          "internalType": "address",
          "name": "from",
          "type": "address"
        },
        {
          "internalType": "address",
          "name": "to",
          "type": "address"
        },
        {
          "internalType": "uint256",
          "name": "tokenId",
          "type": "uint256"
        },
        {
          "internalType": "bytes",
          "name": "data",
          "type": "bytes"
        }
      ],
      "name": "safeTransferFrom",
      "outputs": [],
      "stateMutability": "nonpayable",
      "type": "function"
    },
    {
      "inputs": [
        {
          "internalType": "address",
          "name": "operator",
          "type": "address"
        },
        {
          "internalType": "bool",
          "name": "approved",
          "type": "bool"
        }
      ],
      "name": "setApprovalForAll",
      "outputs": [],
      "stateMutability": "nonpayable",
      "type": "function"
    },
    {
      "inputs": [
        {
          "internalType": "address",
          "name": "_address",
          "type": "address"
        }
      ],
      "name": "setBoxAddress",
      "outputs": [],
      "stateMutability": "nonpayable",
      "type": "function"
    },
    {
      "inputs": [
        {
          "internalType": "address",
          "name": "_address",
          "type": "address"
        }
      ],
      "name": "setEquipAddress",
      "outputs": [],
      "stateMutability": "nonpayable",
      "type": "function"
    },
    {
      "inputs": [
        {
          "internalType": "bool",
          "name": "_state",
          "type": "bool"
        }
      ],
      "name": "setMintEnabled",
      "outputs": [],
      "stateMutability": "nonpayable",
      "type": "function"
    },
    {
      "inputs": [
        {
          "internalType": "uint256",
          "name": "_price",
          "type": "uint256"
        }
      ],
      "name": "setPrice",
      "outputs": [],
      "stateMutability": "nonpayable",
      "type": "function"
    },
    {
      "inputs": [
        {
          "internalType": "uint256[]",
          "name": "_remainingEggs",
          "type": "uint256[]"
        }
      ],
      "name": "setRemainingEggs",
      "outputs": [],
      "stateMutability": "nonpayable",
      "type": "function"
    },
    {
      "inputs": [
        {
          "internalType": "bytes4",
          "name": "interfaceId",
          "type": "bytes4"
        }
      ],
      "name": "supportsInterface",
      "outputs": [
        {
          "internalType": "bool",
          "name": "",
          "type": "bool"
        }
      ],
      "stateMutability": "view",
      "type": "function"
    },
    {
      "inputs": [],
      "name": "symbol",
      "outputs": [
        {
          "internalType": "string",
          "name": "",
          "type": "string"
        }
      ],
      "stateMutability": "view",
      "type": "function"
    },
    {
      "inputs": [
        {
          "internalType": "uint256",
          "name": "_tokenId",
          "type": "uint256"
        }
      ],
      "name": "tokenURI",
      "outputs": [
        {
          "internalType": "string",
          "name": "",
          "type": "string"
        }
      ],
      "stateMutability": "view",
      "type": "function"
    },
    {
      "inputs": [],
      "name": "totalSupply",
      "outputs": [
        {
          "internalType": "uint256",
          "name": "",
          "type": "uint256"
        }
      ],
      "stateMutability": "view",
      "type": "function"
    },
    {
      "inputs": [
        {
          "internalType": "address",
          "name": "from",
          "type": "address"
        },
        {
          "internalType": "address",
          "name": "to",
          "type": "address"
        },
        {
          "internalType": "uint256",
          "name": "tokenId",
          "type": "uint256"
        }
      ],
      "name": "transferFrom",
      "outputs": [],
      "stateMutability": "nonpayable",
      "type": "function"
    },
    {
      "inputs": [
        {
          "internalType": "address",
          "name": "newOwner",
          "type": "address"
        }
      ],
      "name": "transferOwnership",
      "outputs": [],
      "stateMutability": "nonpayable",
      "type": "function"
    },
    {
      "inputs": [],
      "name": "uriPrefix",
      "outputs": [
        {
          "internalType": "string",
          "name": "",
          "type": "string"
        }
      ],
      "stateMutability": "view",
      "type": "function"
    },
    {
      "inputs": [],
      "name": "uriSuffix",
      "outputs": [
        {
          "internalType": "string",
          "name": "",
          "type": "string"
        }
      ],
      "stateMutability": "view",
      "type": "function"
    },
    {
      "inputs": [],
      "name": "withdraw",
      "outputs": [],
      "stateMutability": "nonpayable",
      "type": "function"
    }
  ],
  "bytecode": "0x608060405260405180602001604052806000815250600b90805190602001906200002b9291906200085b565b506040518060400160405280600581526020017f2e6a736f6e000000000000000000000000000000000000000000000000000000815250600c9080519060200190620000799291906200085b565b506019600e55601f600f5560006011553480156200009657600080fd5b50733cc6cdda760b79bafa08df41ecfa224f810dceb660016040518060400160405280600381526020017f45676700000000000000000000000000000000000000000000000000000000008152506040518060400160405280600381526020017f45474700000000000000000000000000000000000000000000000000000000008152506200013a6200012e6200078660201b60201c565b6200078e60201b60201c565b8160039080519060200190620001529291906200085b565b5080600490805190602001906200016b9291906200085b565b506200017c6200085260201b60201c565b600181905550505060006daaeb6d7670e522a718067333cd4e73ffffffffffffffffffffffffffffffffffffffff163b1115620003795780156200023f576daaeb6d7670e522a718067333cd4e73ffffffffffffffffffffffffffffffffffffffff16637d3e3dbe30846040518363ffffffff1660e01b815260040162000205929190620009a7565b600060405180830381600087803b1580156200022057600080fd5b505af115801562000235573d6000803e3d6000fd5b5050505062000378565b600073ffffffffffffffffffffffffffffffffffffffff168273ffffffffffffffffffffffffffffffffffffffff1614620002f9576daaeb6d7670e522a718067333cd4e73ffffffffffffffffffffffffffffffffffffffff1663a0af290330846040518363ffffffff1660e01b8152600401620002bf929190620009a7565b600060405180830381600087803b158015620002da57600080fd5b505af1158015620002ef573d6000803e3d6000fd5b5050505062000377565b6daaeb6d7670e522a718067333cd4e73ffffffffffffffffffffffffffffffffffffffff16634420e486306040518263ffffffff1660e01b8152600401620003429190620009d4565b600060405180830381600087803b1580156200035d57600080fd5b505af115801562000372573d6000803e3d6000fd5b505050505b5b5b505060405180610c800160405280600160ff168152602001600160ff168152602001600160ff168152602001600160ff168152602001600160ff168152602001600160ff168152602001600160ff168152602001600160ff168152602001600160ff168152602001600160ff168152602001600160ff168152602001600160ff168152602001600160ff168152602001600260ff168152602001600260ff168152602001600260ff168152602001600260ff168152602001600260ff168152602001600260ff168152602001600260ff168152602001600260ff168152602001600260ff168152602001600260ff168152602001600360ff168152602001600360ff168152602001600360ff168152602001600360ff168152602001600360ff168152602001600460ff168152602001600460ff168152602001600460ff168152602001600460ff168152602001600460ff168152602001600560ff168152602001600560ff168152602001600560ff168152602001600660ff168152602001600660ff168152602001600660ff168152602001600760ff168152602001600760ff168152602001600760ff168152602001600860ff168152602001600860ff168152602001600860ff168152602001600960ff168152602001600960ff168152602001600960ff168152602001600a60ff168152602001600a60ff168152602001600a60ff168152602001600b60ff168152602001600b60ff168152602001600b60ff168152602001600c60ff168152602001600c60ff168152602001600c60ff168152602001600d60ff168152602001600d60ff168152602001600d60ff168152602001600e60ff168152602001600e60ff168152602001600e60ff168152602001600f60ff168152602001600f60ff168152602001600f60ff168152602001601060ff168152602001601060ff168152602001601060ff168152602001601160ff168152602001601160ff168152602001601160ff168152602001601260ff168152602001601260ff168152602001601260ff168152602001601360ff168152602001601360ff168152602001601360ff168152602001601460ff168152602001601460ff168152602001601460ff168152602001601560ff168152602001601560ff168152602001601560ff168152602001601660ff168152602001601660ff168152602001601660ff168152602001601760ff168152602001601760ff168152602001601760ff168152602001601860ff168152602001601860ff168152602001601860ff168152602001601960ff168152602001601a60ff168152602001601b60ff168152602001601c60ff168152602001601d60ff168152602001601e60ff168152602001601f60ff1681525060129060646200077f929190620008ec565b5062000a55565b600033905090565b60008060009054906101000a900473ffffffffffffffffffffffffffffffffffffffff169050816000806101000a81548173ffffffffffffffffffffffffffffffffffffffff021916908373ffffffffffffffffffffffffffffffffffffffff1602179055508173ffffffffffffffffffffffffffffffffffffffff168173ffffffffffffffffffffffffffffffffffffffff167f8be0079c531659141344cd1fd0a4f28419497f9722a3daafe3b4186f6b6457e060405160405180910390a35050565b60006001905090565b828054620008699062000a20565b90600052602060002090601f0160209004810192826200088d5760008555620008d9565b82601f10620008a857805160ff1916838001178555620008d9565b82800160010185558215620008d9579182015b82811115620008d8578251825591602001919060010190620008bb565b5b509050620008e8919062000943565b5090565b82805482825590600052602060002090810192821562000930579160200282015b828111156200092f578251829060ff169055916020019190600101906200090d565b5b5090506200093f919062000943565b5090565b5b808211156200095e57600081600090555060010162000944565b5090565b600073ffffffffffffffffffffffffffffffffffffffff82169050919050565b60006200098f8262000962565b9050919050565b620009a18162000982565b82525050565b6000604082019050620009be600083018562000996565b620009cd602083018462000996565b9392505050565b6000602082019050620009eb600083018462000996565b92915050565b7f4e487b7100000000000000000000000000000000000000000000000000000000600052602260045260246000fd5b6000600282049050600182168062000a3957607f821691505b60208210810362000a4f5762000a4e620009f1565b5b50919050565b6140ba8062000a656000396000f3fe6080604052600436106102305760003560e01c806391b7f5ed1161012e578063c87b56dd116100ab578063e8a3d4851161006f578063e8a3d4851461080a578063e985e9c514610835578063f2fde38b14610872578063f307101a1461089b578063f46a04eb146108d857610230565b8063c87b56dd14610723578063d123973014610760578063d547cfb71461078b578063dc5eb76d146107b6578063e59d0581146107e157610230565b8063a0712d68116100f2578063a0712d6814610663578063a22cb4651461067f578063afa20f54146106a8578063b88d4fde146106d1578063c254cc7b146106fa57610230565b806391b7f5ed1461059057806391ff7e01146105b957806395d89b41146105e257806398d5fdca1461060d578063a035b1fe1461063857610230565b806342842e0e116101bc5780636352211e116101805780636352211e146104a957806370a08231146104e6578063715018a614610523578063796547011461053a5780638da5cb5b1461056557610230565b806342842e0e146103d4578063486a7e6b146103fd5780635503a0e8146104285780635aba27af1461045357806362b99ad41461047e57610230565b8063095ea7b311610203578063095ea7b31461030357806318160ddd1461032c57806323b872dd146103575780633a34c480146103805780633ccfd60b146103bd57610230565b806301ffc9a71461023557806304b5085e1461027257806306fdde031461029b578063081812fc146102c6575b600080fd5b34801561024157600080fd5b5061025c60048036038101906102579190612f16565b610901565b6040516102699190612f5e565b60405180910390f35b34801561027e57600080fd5b5061029960048036038101906102949190612faf565b610993565b005b3480156102a757600080fd5b506102b0610a2f565b6040516102bd9190613075565b60405180910390f35b3480156102d257600080fd5b506102ed60048036038101906102e89190612faf565b610ac1565b6040516102fa91906130d8565b60405180910390f35b34801561030f57600080fd5b5061032a6004803603810190610325919061311f565b610b40565b005b34801561033857600080fd5b50610341610c84565b60405161034e919061316e565b60405180910390f35b34801561036357600080fd5b5061037e60048036038101906103799190613189565b610c9b565b005b34801561038c57600080fd5b506103a760048036038101906103a29190612faf565b610e7d565b6040516103b49190612f5e565b60405180910390f35b3480156103c957600080fd5b506103d2610e9a565b005b3480156103e057600080fd5b506103fb60048036038101906103f69190613189565b610eeb565b005b34801561040957600080fd5b506104126110cd565b60405161041f919061316e565b60405180910390f35b34801561043457600080fd5b5061043d6110d3565b60405161044a9190613075565b60405180910390f35b34801561045f57600080fd5b50610468611161565b6040516104759190612f5e565b60405180910390f35b34801561048a57600080fd5b506104936111c3565b6040516104a09190613075565b60405180910390f35b3480156104b557600080fd5b506104d060048036038101906104cb9190612faf565b611251565b6040516104dd91906130d8565b60405180910390f35b3480156104f257600080fd5b5061050d600480360381019061050891906131dc565b611263565b60405161051a919061316e565b60405180910390f35b34801561052f57600080fd5b5061053861131b565b005b34801561054657600080fd5b5061054f61132f565b60405161055c919061316e565b60405180910390f35b34801561057157600080fd5b5061057a611335565b60405161058791906130d8565b60405180910390f35b34801561059c57600080fd5b506105b760048036038101906105b29190612faf565b61135e565b005b3480156105c557600080fd5b506105e060048036038101906105db919061311f565b611370565b005b3480156105ee57600080fd5b506105f76116ed565b6040516106049190613075565b60405180910390f35b34801561061957600080fd5b5061062261177f565b60405161062f919061316e565b60405180910390f35b34801561064457600080fd5b5061064d611789565b60405161065a919061316e565b60405180910390f35b61067d60048036038101906106789190612faf565b61178f565b005b34801561068b57600080fd5b506106a660048036038101906106a19190613235565b6118bf565b005b3480156106b457600080fd5b506106cf60048036038101906106ca91906131dc565b611a36565b005b3480156106dd57600080fd5b506106f860048036038101906106f391906133aa565b611a82565b005b34801561070657600080fd5b50610721600480360381019061071c91906131dc565b611c67565b005b34801561072f57600080fd5b5061074a60048036038101906107459190612faf565b611cb3565b6040516107579190613075565b60405180910390f35b34801561076c57600080fd5b50610775611d70565b6040516107829190612f5e565b60405180910390f35b34801561079757600080fd5b506107a0611d83565b6040516107ad9190613075565b60405180910390f35b3480156107c257600080fd5b506107cb611d92565b6040516107d8919061316e565b60405180910390f35b3480156107ed57600080fd5b50610808600480360381019061080391906134f5565b611d98565b005b34801561081657600080fd5b5061081f611dc8565b60405161082c9190613075565b60405180910390f35b34801561084157600080fd5b5061085c6004803603810190610857919061353e565b611de8565b6040516108699190612f5e565b60405180910390f35b34801561087e57600080fd5b50610899600480360381019061089491906131dc565b611e7c565b005b3480156108a757600080fd5b506108c260048036038101906108bd9190612faf565b611eff565b6040516108cf919061316e565b60405180910390f35b3480156108e457600080fd5b506108ff60048036038101906108fa919061357e565b611f1c565b005b60006301ffc9a760e01b827bffffffffffffffffffffffffffffffffffffffffffffffffffffffff1916148061095c57506380ac58cd60e01b827bffffffffffffffffffffffffffffffffffffffffffffffffffffffff1916145b8061098c5750635b5e139f60e01b827bffffffffffffffffffffffffffffffffffffffffffffffffffffffff1916145b9050919050565b600a60009054906101000a900473ffffffffffffffffffffffffffffffffffffffff1673ffffffffffffffffffffffffffffffffffffffff163373ffffffffffffffffffffffffffffffffffffffff1614610a23576040517f08c379a0000000000000000000000000000000000000000000000000000000008152600401610a1a9061361d565b60405180910390fd5b610a2c81611f41565b50565b606060038054610a3e9061366c565b80601f0160208091040260200160405190810160405280929190818152602001828054610a6a9061366c565b8015610ab75780601f10610a8c57610100808354040283529160200191610ab7565b820191906000526020600020905b815481529060010190602001808311610a9a57829003601f168201915b5050505050905090565b6000610acc82611f4f565b610b02576040517fcf4700e400000000000000000000000000000000000000000000000000000000815260040160405180910390fd5b6007600083815260200190815260200160002060000160009054906101000a900473ffffffffffffffffffffffffffffffffffffffff169050919050565b6000610b4b82611251565b90508073ffffffffffffffffffffffffffffffffffffffff16610b6c611fae565b73ffffffffffffffffffffffffffffffffffffffff1614610bcf57610b9881610b93611fae565b611de8565b610bce576040517fcfb3b94200000000000000000000000000000000000000000000000000000000815260040160405180910390fd5b5b826007600084815260200190815260200160002060000160006101000a81548173ffffffffffffffffffffffffffffffffffffffff021916908373ffffffffffffffffffffffffffffffffffffffff160217905550818373ffffffffffffffffffffffffffffffffffffffff168273ffffffffffffffffffffffffffffffffffffffff167f8c5be1e5ebec7d5bd14f71427d1e84f3dd0314c0f7b2291e5b200ac8c7c3b92560405160405180910390a4505050565b6000610c8e611fb6565b6002546001540303905090565b8260006daaeb6d7670e522a718067333cd4e73ffffffffffffffffffffffffffffffffffffffff163b1115610e6b573373ffffffffffffffffffffffffffffffffffffffff168173ffffffffffffffffffffffffffffffffffffffff1603610d0d57610d08848484611fbf565b610e77565b6daaeb6d7670e522a718067333cd4e73ffffffffffffffffffffffffffffffffffffffff1663c617113430336040518363ffffffff1660e01b8152600401610d5692919061369d565b602060405180830381865afa158015610d73573d6000803e3d6000fd5b505050506040513d601f19601f82011682018060405250810190610d9791906136db565b8015610e2957506daaeb6d7670e522a718067333cd4e73ffffffffffffffffffffffffffffffffffffffff1663c617113430836040518363ffffffff1660e01b8152600401610de792919061369d565b602060405180830381865afa158015610e04573d6000803e3d6000fd5b505050506040513d601f19601f82011682018060405250810190610e2891906136db565b5b610e6a57336040517fede71dcc000000000000000000000000000000000000000000000000000000008152600401610e6191906130d8565b60405180910390fd5b5b610e76848484611fbf565b5b50505050565b6000600e548210158015610e935750600f548211155b9050919050565b610ea26122e1565b3373ffffffffffffffffffffffffffffffffffffffff166108fc479081150290604051600060405180830381858888f19350505050158015610ee8573d6000803e3d6000fd5b50565b8260006daaeb6d7670e522a718067333cd4e73ffffffffffffffffffffffffffffffffffffffff163b11156110bb573373ffffffffffffffffffffffffffffffffffffffff168173ffffffffffffffffffffffffffffffffffffffff1603610f5d57610f5884848461235f565b6110c7565b6daaeb6d7670e522a718067333cd4e73ffffffffffffffffffffffffffffffffffffffff1663c617113430336040518363ffffffff1660e01b8152600401610fa692919061369d565b602060405180830381865afa158015610fc3573d6000803e3d6000fd5b505050506040513d601f19601f82011682018060405250810190610fe791906136db565b801561107957506daaeb6d7670e522a718067333cd4e73ffffffffffffffffffffffffffffffffffffffff1663c617113430836040518363ffffffff1660e01b815260040161103792919061369d565b602060405180830381865afa158015611054573d6000803e3d6000fd5b505050506040513d601f19601f8201168201806040525081019061107891906136db565b5b6110ba57336040517fede71dcc0000000000000000000000000000000000000000000000000000000081526004016110b191906130d8565b60405180910390fd5b5b6110c684848461235f565b5b50505050565b600d5481565b600c80546110e09061366c565b80601f016020809104026020016040519081016040528092919081815260200182805461110c9061366c565b80156111595780601f1061112e57610100808354040283529160200191611159565b820191906000526020600020905b81548152906001019060200180831161113c57829003601f168201915b505050505081565b600080601280549050905060005b818110156111b95761119e6012828154811061118e5761118d613708565b5b9060005260206000200154610e7d565b156111ae576001925050506111c0565b80600101905061116f565b5060009150505b90565b600b80546111d09061366c565b80601f01602080910402602001604051908101604052809291908181526020018280546111fc9061366c565b80156112495780601f1061121e57610100808354040283529160200191611249565b820191906000526020600020905b81548152906001019060200180831161122c57829003601f168201915b505050505081565b600061125c8261237f565b9050919050565b60008073ffffffffffffffffffffffffffffffffffffffff168273ffffffffffffffffffffffffffffffffffffffff16036112ca576040517f8f4eb60400000000000000000000000000000000000000000000000000000000815260040160405180910390fd5b67ffffffffffffffff600660008473ffffffffffffffffffffffffffffffffffffffff1673ffffffffffffffffffffffffffffffffffffffff16815260200190815260200160002054169050919050565b6113236122e1565b61132d600061244b565b565b600e5481565b60008060009054906101000a900473ffffffffffffffffffffffffffffffffffffffff16905090565b6113666122e1565b8060118190555050565b600960009054906101000a900473ffffffffffffffffffffffffffffffffffffffff1673ffffffffffffffffffffffffffffffffffffffff163373ffffffffffffffffffffffffffffffffffffffff1614611400576040517f08c379a00000000000000000000000000000000000000000000000000000000081526004016113f7906137a9565b60405180910390fd5b600060128054905011611448576040517f08c379a000000000000000000000000000000000000000000000000000000000815260040161143f90613815565b60405180910390fd5b3273ffffffffffffffffffffffffffffffffffffffff168273ffffffffffffffffffffffffffffffffffffffff16146114b6576040517f08c379a00000000000000000000000000000000000000000000000000000000081526004016114ad90613881565b60405180910390fd5b6001811480156114cb57506114c9611161565b155b1561150b576040517f08c379a000000000000000000000000000000000000000000000000000000000815260040161150290613913565b60405180910390fd5b600061151561250f565b6001436115229190613962565b404460405160200161153693929190613a2a565b6040516020818303038152906040528051906020012060001c905060006012805490509050600183036115d9576000805b828110156115ae576115966012828154811061158657611585613708565b5b9060005260206000200154610e7d565b156115a3578091506115ae565b806001019050611567565b5080826115bb9190613962565b836115c69190613a96565b816115d19190613ac7565b9250506115e8565b80826115e59190613a96565b91505b6000601283815481106115fe576115fd613708565b5b90600052602060002001549050611616856001612517565b80601360006116236126d3565b815260200190815260200160002081905550601260016012805490506116499190613962565b8154811061165a57611659613708565b5b90600052602060002001546012848154811061167957611678613708565b5b9060005260206000200181905550601280548061169957611698613b1d565b5b600190038181906000526020600020016000905590557ff5535ccd9f40eb4bc73fac8710dbb2effbf3329da83f62b35d9aa88161bb85ca336040516116de91906130d8565b60405180910390a15050505050565b6060600480546116fc9061366c565b80601f01602080910402602001604051908101604052809291908181526020018280546117289061366c565b80156117755780601f1061174a57610100808354040283529160200191611775565b820191906000526020600020905b81548152906001019060200180831161175857829003601f168201915b5050505050905090565b6000601154905090565b60115481565b601060009054906101000a900460ff166117de576040517f08c379a00000000000000000000000000000000000000000000000000000000081526004016117d590613b98565b60405180910390fd5b600060128054905011611826576040517f08c379a000000000000000000000000000000000000000000000000000000000815260040161181d90613815565b60405180910390fd5b8061182f61177f565b6118399190613bb8565b34101561187b576040517f08c379a000000000000000000000000000000000000000000000000000000000815260040161187290613c84565b60405180910390fd5b6118853382612517565b7ff5535ccd9f40eb4bc73fac8710dbb2effbf3329da83f62b35d9aa88161bb85ca336040516118b491906130d8565b60405180910390a150565b6118c7611fae565b73ffffffffffffffffffffffffffffffffffffffff168273ffffffffffffffffffffffffffffffffffffffff160361192b576040517fb06307db00000000000000000000000000000000000000000000000000000000815260040160405180910390fd5b8060086000611938611fae565b73ffffffffffffffffffffffffffffffffffffffff1673ffffffffffffffffffffffffffffffffffffffff16815260200190815260200160002060008473ffffffffffffffffffffffffffffffffffffffff1673ffffffffffffffffffffffffffffffffffffffff16815260200190815260200160002060006101000a81548160ff0219169083151502179055508173ffffffffffffffffffffffffffffffffffffffff166119e5611fae565b73ffffffffffffffffffffffffffffffffffffffff167f17307eab39ab6107e8899845ad3d59bd9653f200f220920489ca2b5937696c3183604051611a2a9190612f5e565b60405180910390a35050565b611a3e6122e1565b80600a60006101000a81548173ffffffffffffffffffffffffffffffffffffffff021916908373ffffffffffffffffffffffffffffffffffffffff16021790555050565b8360006daaeb6d7670e522a718067333cd4e73ffffffffffffffffffffffffffffffffffffffff163b1115611c53573373ffffffffffffffffffffffffffffffffffffffff168173ffffffffffffffffffffffffffffffffffffffff1603611af557611af0858585856126e6565b611c60565b6daaeb6d7670e522a718067333cd4e73ffffffffffffffffffffffffffffffffffffffff1663c617113430336040518363ffffffff1660e01b8152600401611b3e92919061369d565b602060405180830381865afa158015611b5b573d6000803e3d6000fd5b505050506040513d601f19601f82011682018060405250810190611b7f91906136db565b8015611c1157506daaeb6d7670e522a718067333cd4e73ffffffffffffffffffffffffffffffffffffffff1663c617113430836040518363ffffffff1660e01b8152600401611bcf92919061369d565b602060405180830381865afa158015611bec573d6000803e3d6000fd5b505050506040513d601f19601f82011682018060405250810190611c1091906136db565b5b611c5257336040517fede71dcc000000000000000000000000000000000000000000000000000000008152600401611c4991906130d8565b60405180910390fd5b5b611c5f858585856126e6565b5b5050505050565b611c6f6122e1565b80600960006101000a81548173ffffffffffffffffffffffffffffffffffffffff021916908373ffffffffffffffffffffffffffffffffffffffff16021790555050565b6060611cbe82611f4f565b611cfd576040517f08c379a0000000000000000000000000000000000000000000000000000000008152600401611cf490613d16565b60405180910390fd5b6000611d07612759565b90506000815111611d275760405180602001604052806000815250611d68565b80611d446013600086815260200190815260200160002054612779565b600c604051602001611d5893929190613e06565b6040516020818303038152906040525b915050919050565b601060009054906101000a900460ff1681565b6060611d8d612759565b905090565b600f5481565b611da06122e1565b60126000611dae9190612e1f565b8060129080519060200190611dc4929190612e40565b5050565b606060405180606001604052806036815260200161404f60369139905090565b6000600860008473ffffffffffffffffffffffffffffffffffffffff1673ffffffffffffffffffffffffffffffffffffffff16815260200190815260200160002060008373ffffffffffffffffffffffffffffffffffffffff1673ffffffffffffffffffffffffffffffffffffffff16815260200190815260200160002060009054906101000a900460ff16905092915050565b611e846122e1565b600073ffffffffffffffffffffffffffffffffffffffff168173ffffffffffffffffffffffffffffffffffffffff1603611ef3576040517f08c379a0000000000000000000000000000000000000000000000000000000008152600401611eea90613ea9565b60405180910390fd5b611efc8161244b565b50565b600060136000838152602001908152602001600020549050919050565b611f246122e1565b80601060006101000a81548160ff02191690831515021790555050565b611f4c816000612847565b50565b600081611f5a611fb6565b11158015611f69575060015482105b8015611fa7575060007c0100000000000000000000000000000000000000000000000000000000600560008581526020019081526020016000205416145b9050919050565b600033905090565b60006001905090565b6000611fca8261237f565b90508373ffffffffffffffffffffffffffffffffffffffff168173ffffffffffffffffffffffffffffffffffffffff1614612031576040517fa114810000000000000000000000000000000000000000000000000000000000815260040160405180910390fd5b60008061203d84612a99565b91509150612053818761204e611fae565b612ac0565b61209f5761206886612063611fae565b611de8565b61209e576040517f59c896be00000000000000000000000000000000000000000000000000000000815260040160405180910390fd5b5b600073ffffffffffffffffffffffffffffffffffffffff168573ffffffffffffffffffffffffffffffffffffffff1603612105576040517fea553b3400000000000000000000000000000000000000000000000000000000815260040160405180910390fd5b6121128686866001612b04565b801561211d57600082555b600660008773ffffffffffffffffffffffffffffffffffffffff1673ffffffffffffffffffffffffffffffffffffffff168152602001908152602001600020600081546001900391905081905550600660008673ffffffffffffffffffffffffffffffffffffffff1673ffffffffffffffffffffffffffffffffffffffff16815260200190815260200160002060008154600101919050819055506121eb856121c7888887612b0a565b7c020000000000000000000000000000000000000000000000000000000017612b32565b600560008681526020019081526020016000208190555060007c0200000000000000000000000000000000000000000000000000000000841603612271576000600185019050600060056000838152602001908152602001600020540361226f57600154811461226e578360056000838152602001908152602001600020819055505b5b505b838573ffffffffffffffffffffffffffffffffffffffff168773ffffffffffffffffffffffffffffffffffffffff167fddf252ad1be2c89b69c2b068fc378daa952ba7f163c4a11628f55a4df523b3ef60405160405180910390a46122d98686866001612b5d565b505050505050565b6122e961250f565b73ffffffffffffffffffffffffffffffffffffffff16612307611335565b73ffffffffffffffffffffffffffffffffffffffff161461235d576040517f08c379a000000000000000000000000000000000000000000000000000000000815260040161235490613f15565b60405180910390fd5b565b61237a83838360405180602001604052806000815250611a82565b505050565b6000808290508061238e611fb6565b11612414576001548110156124135760006005600083815260200190815260200160002054905060007c0100000000000000000000000000000000000000000000000000000000821603612411575b600081036124075760056000836001900393508381526020019081526020016000205490506123dd565b8092505050612446565b505b5b6040517fdf2d9b4200000000000000000000000000000000000000000000000000000000815260040160405180910390fd5b919050565b60008060009054906101000a900473ffffffffffffffffffffffffffffffffffffffff169050816000806101000a81548173ffffffffffffffffffffffffffffffffffffffff021916908373ffffffffffffffffffffffffffffffffffffffff1602179055508173ffffffffffffffffffffffffffffffffffffffff168173ffffffffffffffffffffffffffffffffffffffff167f8be0079c531659141344cd1fd0a4f28419497f9722a3daafe3b4186f6b6457e060405160405180910390a35050565b600033905090565b6000600154905060008203612558576040517fb562e8dd00000000000000000000000000000000000000000000000000000000815260040160405180910390fd5b6125656000848385612b04565b600160406001901b178202600660008573ffffffffffffffffffffffffffffffffffffffff1673ffffffffffffffffffffffffffffffffffffffff168152602001908152602001600020600082825401925050819055506125dc836125cd6000866000612b0a565b6125d685612b63565b17612b32565b6005600083815260200190815260200160002081905550600080838301905073ffffffffffffffffffffffffffffffffffffffff85169150828260007fddf252ad1be2c89b69c2b068fc378daa952ba7f163c4a11628f55a4df523b3ef600080a4600183015b81811461267d57808360007fddf252ad1be2c89b69c2b068fc378daa952ba7f163c4a11628f55a4df523b3ef600080a4600181019050612642565b50600082036126b8576040517f2e07630000000000000000000000000000000000000000000000000000000000815260040160405180910390fd5b8060018190555050506126ce6000848385612b5d565b505050565b60006126dd611fb6565b60015403905090565b6126f1848484610c9b565b60008373ffffffffffffffffffffffffffffffffffffffff163b146127535761271c84848484612b73565b612752576040517fd1a57ed600000000000000000000000000000000000000000000000000000000815260040160405180910390fd5b5b50505050565b606060405180606001604052806036815260200161401960369139905090565b60606000600161278884612cc3565b01905060008167ffffffffffffffff8111156127a7576127a661327f565b5b6040519080825280601f01601f1916602001820160405280156127d95781602001600182028036833780820191505090505b509050600082602001820190505b60011561283c578080600190039150507f3031323334353637383961626364656600000000000000000000000000000000600a86061a8153600a85816128305761282f613a67565b5b049450600085036127e7575b819350505050919050565b60006128528361237f565b9050600081905060008061286586612a99565b9150915084156128ce57612881818461287c611fae565b612ac0565b6128cd5761289683612891611fae565b611de8565b6128cc576040517f59c896be00000000000000000000000000000000000000000000000000000000815260040160405180910390fd5b5b5b6128dc836000886001612b04565b80156128e757600082555b600160806001901b03600660008573ffffffffffffffffffffffffffffffffffffffff1673ffffffffffffffffffffffffffffffffffffffff1681526020019081526020016000206000828254019250508190555061298f8361294c85600088612b0a565b7c02000000000000000000000000000000000000000000000000000000007c01000000000000000000000000000000000000000000000000000000001717612b32565b600560008881526020019081526020016000208190555060007c0200000000000000000000000000000000000000000000000000000000851603612a155760006001870190506000600560008381526020019081526020016000205403612a13576001548114612a12578460056000838152602001908152602001600020819055505b5b505b85600073ffffffffffffffffffffffffffffffffffffffff168473ffffffffffffffffffffffffffffffffffffffff167fddf252ad1be2c89b69c2b068fc378daa952ba7f163c4a11628f55a4df523b3ef60405160405180910390a4612a7f836000886001612b5d565b600260008154809291906001019190505550505050505050565b60008060006007600085815260200190815260200160002090508092508254915050915091565b600073ffffffffffffffffffffffffffffffffffffffff8316925073ffffffffffffffffffffffffffffffffffffffff821691508382148383141790509392505050565b50505050565b60008060e883901c905060e8612b21868684612e16565b62ffffff16901b9150509392505050565b600073ffffffffffffffffffffffffffffffffffffffff83169250814260a01b178317905092915050565b50505050565b60006001821460e11b9050919050565b60008373ffffffffffffffffffffffffffffffffffffffff1663150b7a02612b99611fae565b8786866040518563ffffffff1660e01b8152600401612bbb9493929190613f8a565b6020604051808303816000875af1925050508015612bf757506040513d601f19601f82011682018060405250810190612bf49190613feb565b60015b612c70573d8060008114612c27576040519150601f19603f3d011682016040523d82523d6000602084013e612c2c565b606091505b506000815103612c68576040517fd1a57ed600000000000000000000000000000000000000000000000000000000815260040160405180910390fd5b805181602001fd5b63150b7a0260e01b7bffffffffffffffffffffffffffffffffffffffffffffffffffffffff1916817bffffffffffffffffffffffffffffffffffffffffffffffffffffffff191614915050949350505050565b600080600090507a184f03e93ff9f4daa797ed6e38ed64bf6a1f0100000000000000008310612d21577a184f03e93ff9f4daa797ed6e38ed64bf6a1f0100000000000000008381612d1757612d16613a67565b5b0492506040810190505b6d04ee2d6d415b85acef81000000008310612d5e576d04ee2d6d415b85acef81000000008381612d5457612d53613a67565b5b0492506020810190505b662386f26fc100008310612d8d57662386f26fc100008381612d8357612d82613a67565b5b0492506010810190505b6305f5e1008310612db6576305f5e1008381612dac57612dab613a67565b5b0492506008810190505b6127108310612ddb576127108381612dd157612dd0613a67565b5b0492506004810190505b60648310612dfe5760648381612df457612df3613a67565b5b0492506002810190505b600a8310612e0d576001810190505b80915050919050565b60009392505050565b5080546000825590600052602060002090810190612e3d9190612e8d565b50565b828054828255906000526020600020908101928215612e7c579160200282015b82811115612e7b578251825591602001919060010190612e60565b5b509050612e899190612e8d565b5090565b5b80821115612ea6576000816000905550600101612e8e565b5090565b6000604051905090565b600080fd5b600080fd5b60007fffffffff0000000000000000000000000000000000000000000000000000000082169050919050565b612ef381612ebe565b8114612efe57600080fd5b50565b600081359050612f1081612eea565b92915050565b600060208284031215612f2c57612f2b612eb4565b5b6000612f3a84828501612f01565b91505092915050565b60008115159050919050565b612f5881612f43565b82525050565b6000602082019050612f736000830184612f4f565b92915050565b6000819050919050565b612f8c81612f79565b8114612f9757600080fd5b50565b600081359050612fa981612f83565b92915050565b600060208284031215612fc557612fc4612eb4565b5b6000612fd384828501612f9a565b91505092915050565b600081519050919050565b600082825260208201905092915050565b60005b83811015613016578082015181840152602081019050612ffb565b83811115613025576000848401525b50505050565b6000601f19601f8301169050919050565b600061304782612fdc565b6130518185612fe7565b9350613061818560208601612ff8565b61306a8161302b565b840191505092915050565b6000602082019050818103600083015261308f818461303c565b905092915050565b600073ffffffffffffffffffffffffffffffffffffffff82169050919050565b60006130c282613097565b9050919050565b6130d2816130b7565b82525050565b60006020820190506130ed60008301846130c9565b92915050565b6130fc816130b7565b811461310757600080fd5b50565b600081359050613119816130f3565b92915050565b6000806040838503121561313657613135612eb4565b5b60006131448582860161310a565b925050602061315585828601612f9a565b9150509250929050565b61316881612f79565b82525050565b6000602082019050613183600083018461315f565b92915050565b6000806000606084860312156131a2576131a1612eb4565b5b60006131b08682870161310a565b93505060206131c18682870161310a565b92505060406131d286828701612f9a565b9150509250925092565b6000602082840312156131f2576131f1612eb4565b5b60006132008482850161310a565b91505092915050565b61321281612f43565b811461321d57600080fd5b50565b60008135905061322f81613209565b92915050565b6000806040838503121561324c5761324b612eb4565b5b600061325a8582860161310a565b925050602061326b85828601613220565b9150509250929050565b600080fd5b600080fd5b7f4e487b7100000000000000000000000000000000000000000000000000000000600052604160045260246000fd5b6132b78261302b565b810181811067ffffffffffffffff821117156132d6576132d561327f565b5b80604052505050565b60006132e9612eaa565b90506132f582826132ae565b919050565b600067ffffffffffffffff8211156133155761331461327f565b5b61331e8261302b565b9050602081019050919050565b82818337600083830152505050565b600061334d613348846132fa565b6132df565b9050828152602081018484840111156133695761336861327a565b5b61337484828561332b565b509392505050565b600082601f83011261339157613390613275565b5b81356133a184826020860161333a565b91505092915050565b600080600080608085870312156133c4576133c3612eb4565b5b60006133d28782880161310a565b94505060206133e38782880161310a565b93505060406133f487828801612f9a565b925050606085013567ffffffffffffffff81111561341557613414612eb9565b5b6134218782880161337c565b91505092959194509250565b600067ffffffffffffffff8211156134485761344761327f565b5b602082029050602081019050919050565b600080fd5b600061347161346c8461342d565b6132df565b9050808382526020820190506020840283018581111561349457613493613459565b5b835b818110156134bd57806134a98882612f9a565b845260208401935050602081019050613496565b5050509392505050565b600082601f8301126134dc576134db613275565b5b81356134ec84826020860161345e565b91505092915050565b60006020828403121561350b5761350a612eb4565b5b600082013567ffffffffffffffff81111561352957613528612eb9565b5b613535848285016134c7565b91505092915050565b6000806040838503121561355557613554612eb4565b5b60006135638582860161310a565b92505060206135748582860161310a565b9150509250929050565b60006020828403121561359457613593612eb4565b5b60006135a284828501613220565b91505092915050565b7f4f6e6c792074686520457175697020736d61727420636f6e747261637420636160008201527f6e206275726e2066726f6d206571756970000000000000000000000000000000602082015250565b6000613607603183612fe7565b9150613612826135ab565b604082019050919050565b60006020820190508181036000830152613636816135fa565b9050919050565b7f4e487b7100000000000000000000000000000000000000000000000000000000600052602260045260246000fd5b6000600282049050600182168061368457607f821691505b6020821081036136975761369661363d565b5b50919050565b60006040820190506136b260008301856130c9565b6136bf60208301846130c9565b9392505050565b6000815190506136d581613209565b92915050565b6000602082840312156136f1576136f0612eb4565b5b60006136ff848285016136c6565b91505092915050565b7f4e487b7100000000000000000000000000000000000000000000000000000000600052603260045260246000fd5b7f4f6e6c792074686520426f7820736d61727420636f6e74726163742063616e2060008201527f6d696e7400000000000000000000000000000000000000000000000000000000602082015250565b6000613793602483612fe7565b915061379e82613737565b604082019050919050565b600060208201905081810360008301526137c281613786565b9050919050565b7f4e6f2072656d61696e696e672045676773000000000000000000000000000000600082015250565b60006137ff601183612fe7565b915061380a826137c9565b602082019050919050565b6000602082019050818103600083015261382e816137f2565b9050919050565b7f6f70656e65722063616e6e6f7420626520736d61727420636f6e747261637400600082015250565b600061386b601f83612fe7565b915061387682613835565b602082019050919050565b6000602082019050818103600083015261389a8161385e565b9050919050565b7f4e6f206d6f7265206f6e652070657263656e742072617269746965732061766160008201527f696c61626c650000000000000000000000000000000000000000000000000000602082015250565b60006138fd602683612fe7565b9150613908826138a1565b604082019050919050565b6000602082019050818103600083015261392c816138f0565b9050919050565b7f4e487b7100000000000000000000000000000000000000000000000000000000600052601160045260246000fd5b600061396d82612f79565b915061397883612f79565b92508282101561398b5761398a613933565b5b828203905092915050565b60008160601b9050919050565b60006139ae82613996565b9050919050565b60006139c0826139a3565b9050919050565b6139d86139d3826130b7565b6139b5565b82525050565b6000819050919050565b6000819050919050565b613a036139fe826139de565b6139e8565b82525050565b6000819050919050565b613a24613a1f82612f79565b613a09565b82525050565b6000613a3682866139c7565b601482019150613a4682856139f2565b602082019150613a568284613a13565b602082019150819050949350505050565b7f4e487b7100000000000000000000000000000000000000000000000000000000600052601260045260246000fd5b6000613aa182612f79565b9150613aac83612f79565b925082613abc57613abb613a67565b5b828206905092915050565b6000613ad282612f79565b9150613add83612f79565b9250827fffffffffffffffffffffffffffffffffffffffffffffffffffffffffffffffff03821115613b1257613b11613933565b5b828201905092915050565b7f4e487b7100000000000000000000000000000000000000000000000000000000600052603160045260246000fd5b7f4d696e74696e67206973206e6f7420656e61626c656400000000000000000000600082015250565b6000613b82601683612fe7565b9150613b8d82613b4c565b602082019050919050565b60006020820190508181036000830152613bb181613b75565b9050919050565b6000613bc382612f79565b9150613bce83612f79565b9250817fffffffffffffffffffffffffffffffffffffffffffffffffffffffffffffffff0483118215151615613c0757613c06613933565b5b828202905092915050565b7f4e6f7420656e6f756768204554482073656e743b20636865636b20707269636560008201527f2100000000000000000000000000000000000000000000000000000000000000602082015250565b6000613c6e602183612fe7565b9150613c7982613c12565b604082019050919050565b60006020820190508181036000830152613c9d81613c61565b9050919050565b7f4552433732314d657461646174613a2055524920717565727920666f72206e6f60008201527f6e6578697374656e7420746f6b656e0000000000000000000000000000000000602082015250565b6000613d00602f83612fe7565b9150613d0b82613ca4565b604082019050919050565b60006020820190508181036000830152613d2f81613cf3565b9050919050565b600081905092915050565b6000613d4c82612fdc565b613d568185613d36565b9350613d66818560208601612ff8565b80840191505092915050565b60008190508160005260206000209050919050565b60008154613d948161366c565b613d9e8186613d36565b94506001821660008114613db95760018114613dca57613dfd565b60ff19831686528186019350613dfd565b613dd385613d72565b60005b83811015613df557815481890152600182019150602081019050613dd6565b838801955050505b50505092915050565b6000613e128286613d41565b9150613e1e8285613d41565b9150613e2a8284613d87565b9150819050949350505050565b7f4f776e61626c653a206e6577206f776e657220697320746865207a65726f206160008201527f6464726573730000000000000000000000000000000000000000000000000000602082015250565b6000613e93602683612fe7565b9150613e9e82613e37565b604082019050919050565b60006020820190508181036000830152613ec281613e86565b9050919050565b7f4f776e61626c653a2063616c6c6572206973206e6f7420746865206f776e6572600082015250565b6000613eff602083612fe7565b9150613f0a82613ec9565b602082019050919050565b60006020820190508181036000830152613f2e81613ef2565b9050919050565b600081519050919050565b600082825260208201905092915050565b6000613f5c82613f35565b613f668185613f40565b9350613f76818560208601612ff8565b613f7f8161302b565b840191505092915050565b6000608082019050613f9f60008301876130c9565b613fac60208301866130c9565b613fb9604083018561315f565b8181036060830152613fcb8184613f51565b905095945050505050565b600081519050613fe581612eea565b92915050565b60006020828403121561400157614000612eb4565b5b600061400f84828501613fd6565b9150509291505056fe697066733a2f2f516d59566d6b47737362476f395a624d324844516833546a45796f72675a6a796a667161466a3336354c514d51512f697066733a2f2f516d615663544c626d6d593143557377464243426370766741386959643759456d6141726165463739626638675a2fa2646970667358221220f6de5385c547f6ff10c554ea961a46693cee2f38695f0c121eddef3071a4af4264736f6c634300080d0033",
  "linkReferences": {},
  "deployedLinkReferences": {}
}