{
  "_format": "hh-sol-artifact-1",
  "contractName": "NftEgg",
  "sourceName": "src/backend/contracts/NftEgg.sol",
  "abi": [
    {
      "inputs": [],
      "stateMutability": "nonpayable",
      "type": "constructor"
    },
    {
      "inputs": [],
      "name": "ApprovalCallerNotOwnerNorApproved",
      "type": "error"
    },
    {
      "inputs": [],
      "name": "ApprovalQueryForNonexistentToken",
      "type": "error"
    },
    {
      "inputs": [],
      "name": "ApproveToCaller",
      "type": "error"
    },
    {
      "inputs": [],
      "name": "BalanceQueryForZeroAddress",
      "type": "error"
    },
    {
      "inputs": [],
      "name": "MintERC2309QuantityExceedsLimit",
      "type": "error"
    },
    {
      "inputs": [],
      "name": "MintToZeroAddress",
      "type": "error"
    },
    {
      "inputs": [],
      "name": "MintZeroQuantity",
      "type": "error"
    },
    {
      "inputs": [
        {
          "internalType": "address",
          "name": "operator",
          "type": "address"
        }
      ],
      "name": "OperatorNotAllowed",
      "type": "error"
    },
    {
      "inputs": [],
      "name": "OwnerQueryForNonexistentToken",
      "type": "error"
    },
    {
      "inputs": [],
      "name": "OwnershipNotInitializedForExtraData",
      "type": "error"
    },
    {
      "inputs": [],
      "name": "TransferCallerNotOwnerNorApproved",
      "type": "error"
    },
    {
      "inputs": [],
      "name": "TransferFromIncorrectOwner",
      "type": "error"
    },
    {
      "inputs": [],
      "name": "TransferToNonERC721ReceiverImplementer",
      "type": "error"
    },
    {
      "inputs": [],
      "name": "TransferToZeroAddress",
      "type": "error"
    },
    {
      "inputs": [],
      "name": "URIQueryForNonexistentToken",
      "type": "error"
    },
    {
      "anonymous": false,
      "inputs": [
        {
          "indexed": true,
          "internalType": "address",
          "name": "owner",
          "type": "address"
        },
        {
          "indexed": true,
          "internalType": "address",
          "name": "approved",
          "type": "address"
        },
        {
          "indexed": true,
          "internalType": "uint256",
          "name": "tokenId",
          "type": "uint256"
        }
      ],
      "name": "Approval",
      "type": "event"
    },
    {
      "anonymous": false,
      "inputs": [
        {
          "indexed": true,
          "internalType": "address",
          "name": "owner",
          "type": "address"
        },
        {
          "indexed": true,
          "internalType": "address",
          "name": "operator",
          "type": "address"
        },
        {
          "indexed": false,
          "internalType": "bool",
          "name": "approved",
          "type": "bool"
        }
      ],
      "name": "ApprovalForAll",
      "type": "event"
    },
    {
      "anonymous": false,
      "inputs": [
        {
          "indexed": true,
          "internalType": "uint256",
          "name": "fromTokenId",
          "type": "uint256"
        },
        {
          "indexed": false,
          "internalType": "uint256",
          "name": "toTokenId",
          "type": "uint256"
        },
        {
          "indexed": true,
          "internalType": "address",
          "name": "from",
          "type": "address"
        },
        {
          "indexed": true,
          "internalType": "address",
          "name": "to",
          "type": "address"
        }
      ],
      "name": "ConsecutiveTransfer",
      "type": "event"
    },
    {
      "anonymous": false,
      "inputs": [
        {
          "indexed": false,
          "internalType": "address",
          "name": "user",
          "type": "address"
        },
        {
          "indexed": false,
          "internalType": "uint256",
          "name": "metadata",
          "type": "uint256"
        }
      ],
      "name": "MintSuccessful",
      "type": "event"
    },
    {
      "anonymous": false,
      "inputs": [
        {
          "indexed": true,
          "internalType": "address",
          "name": "previousOwner",
          "type": "address"
        },
        {
          "indexed": true,
          "internalType": "address",
          "name": "newOwner",
          "type": "address"
        }
      ],
      "name": "OwnershipTransferred",
      "type": "event"
    },
    {
      "anonymous": false,
      "inputs": [
        {
          "indexed": true,
          "internalType": "address",
          "name": "from",
          "type": "address"
        },
        {
          "indexed": true,
          "internalType": "address",
          "name": "to",
          "type": "address"
        },
        {
          "indexed": true,
          "internalType": "uint256",
          "name": "tokenId",
          "type": "uint256"
        }
      ],
      "name": "Transfer",
      "type": "event"
    },
    {
      "inputs": [
        {
          "internalType": "address",
          "name": "_user",
          "type": "address"
        },
        {
          "internalType": "uint256",
          "name": "_metadata",
          "type": "uint256"
        }
      ],
      "name": "airdrop",
      "outputs": [],
      "stateMutability": "nonpayable",
      "type": "function"
    },
    {
      "inputs": [
        {
          "internalType": "address",
          "name": "to",
          "type": "address"
        },
        {
          "internalType": "uint256",
          "name": "tokenId",
          "type": "uint256"
        }
      ],
      "name": "approve",
      "outputs": [],
      "stateMutability": "nonpayable",
      "type": "function"
    },
    {
      "inputs": [
        {
          "internalType": "address",
          "name": "owner",
          "type": "address"
        }
      ],
      "name": "balanceOf",
      "outputs": [
        {
          "internalType": "uint256",
          "name": "",
          "type": "uint256"
        }
      ],
      "stateMutability": "view",
      "type": "function"
    },
    {
      "inputs": [],
      "name": "baseTokenURI",
      "outputs": [
        {
          "internalType": "string",
          "name": "",
          "type": "string"
        }
      ],
      "stateMutability": "view",
      "type": "function"
    },
    {
      "inputs": [],
      "name": "burnAmount",
      "outputs": [
        {
          "internalType": "uint256",
          "name": "",
          "type": "uint256"
        }
      ],
      "stateMutability": "view",
      "type": "function"
    },
    {
      "inputs": [
        {
          "internalType": "uint256",
          "name": "_tokenId",
          "type": "uint256"
        }
      ],
      "name": "burnFromEquip",
      "outputs": [],
      "stateMutability": "nonpayable",
      "type": "function"
    },
    {
      "inputs": [],
      "name": "contractURI",
      "outputs": [
        {
          "internalType": "string",
          "name": "",
          "type": "string"
        }
      ],
      "stateMutability": "view",
      "type": "function"
    },
    {
      "inputs": [],
      "name": "contractUri",
      "outputs": [
        {
          "internalType": "string",
          "name": "",
          "type": "string"
        }
      ],
      "stateMutability": "view",
      "type": "function"
    },
    {
      "inputs": [
        {
          "internalType": "uint256",
          "name": "tokenId",
          "type": "uint256"
        }
      ],
      "name": "getApproved",
      "outputs": [
        {
          "internalType": "address",
          "name": "",
          "type": "address"
        }
      ],
      "stateMutability": "view",
      "type": "function"
    },
    {
      "inputs": [],
      "name": "getPrice",
      "outputs": [
        {
          "internalType": "uint256",
          "name": "",
          "type": "uint256"
        }
      ],
      "stateMutability": "view",
      "type": "function"
    },
    {
      "inputs": [
        {
          "internalType": "uint256",
          "name": "_tokenId",
          "type": "uint256"
        }
      ],
      "name": "idToMetadata",
      "outputs": [
        {
          "internalType": "uint256",
          "name": "",
          "type": "uint256"
        }
      ],
      "stateMutability": "view",
      "type": "function"
    },
    {
      "inputs": [
        {
          "internalType": "address",
          "name": "owner",
          "type": "address"
        },
        {
          "internalType": "address",
          "name": "operator",
          "type": "address"
        }
      ],
      "name": "isApprovedForAll",
      "outputs": [
        {
          "internalType": "bool",
          "name": "",
          "type": "bool"
        }
      ],
      "stateMutability": "view",
      "type": "function"
    },
    {
      "inputs": [
        {
          "internalType": "uint256",
          "name": "_metadata",
          "type": "uint256"
        }
      ],
      "name": "isOnePercentRarity",
      "outputs": [
        {
          "internalType": "bool",
          "name": "",
          "type": "bool"
        }
      ],
      "stateMutability": "view",
      "type": "function"
    },
    {
      "inputs": [
        {
          "internalType": "uint256",
          "name": "quantity",
          "type": "uint256"
        },
        {
          "internalType": "uint256",
          "name": "_metadataId",
          "type": "uint256"
        }
      ],
      "name": "mint",
      "outputs": [],
      "stateMutability": "payable",
      "type": "function"
    },
    {
      "inputs": [],
      "name": "mintEnabled",
      "outputs": [
        {
          "internalType": "bool",
          "name": "",
          "type": "bool"
        }
      ],
      "stateMutability": "view",
      "type": "function"
    },
    {
      "inputs": [
        {
          "internalType": "address",
          "name": "_user",
          "type": "address"
        },
        {
          "internalType": "bool",
          "name": "_rareOnly",
          "type": "bool"
        }
      ],
      "name": "mintFromBox",
      "outputs": [],
      "stateMutability": "nonpayable",
      "type": "function"
    },
    {
      "inputs": [],
      "name": "name",
      "outputs": [
        {
          "internalType": "string",
          "name": "",
          "type": "string"
        }
      ],
      "stateMutability": "view",
      "type": "function"
    },
    {
      "inputs": [],
      "name": "onePercentRarityAvailable",
      "outputs": [
        {
          "internalType": "bool",
          "name": "",
          "type": "bool"
        }
      ],
      "stateMutability": "view",
      "type": "function"
    },
    {
      "inputs": [],
      "name": "owner",
      "outputs": [
        {
          "internalType": "address",
          "name": "",
          "type": "address"
        }
      ],
      "stateMutability": "view",
      "type": "function"
    },
    {
      "inputs": [
        {
          "internalType": "uint256",
          "name": "tokenId",
          "type": "uint256"
        }
      ],
      "name": "ownerOf",
      "outputs": [
        {
          "internalType": "address",
          "name": "",
          "type": "address"
        }
      ],
      "stateMutability": "view",
      "type": "function"
    },
    {
      "inputs": [],
      "name": "price",
      "outputs": [
        {
          "internalType": "uint256",
          "name": "",
          "type": "uint256"
        }
      ],
      "stateMutability": "view",
      "type": "function"
    },
    {
      "inputs": [],
      "name": "rareFirstId",
      "outputs": [
        {
          "internalType": "uint256",
          "name": "",
          "type": "uint256"
        }
      ],
      "stateMutability": "view",
      "type": "function"
    },
    {
      "inputs": [],
      "name": "rareLastId",
      "outputs": [
        {
          "internalType": "uint256",
          "name": "",
          "type": "uint256"
        }
      ],
      "stateMutability": "view",
      "type": "function"
    },
    {
      "inputs": [
        {
          "internalType": "uint256",
          "name": "",
          "type": "uint256"
        }
      ],
      "name": "remainingEggs",
      "outputs": [
        {
          "internalType": "uint256",
          "name": "",
          "type": "uint256"
        }
      ],
      "stateMutability": "view",
      "type": "function"
    },
    {
      "inputs": [],
      "name": "renounceOwnership",
      "outputs": [],
      "stateMutability": "nonpayable",
      "type": "function"
    },
    {
      "inputs": [
        {
          "internalType": "address",
          "name": "from",
          "type": "address"
        },
        {
          "internalType": "address",
          "name": "to",
          "type": "address"
        },
        {
          "internalType": "uint256",
          "name": "tokenId",
          "type": "uint256"
        }
      ],
      "name": "safeTransferFrom",
      "outputs": [],
      "stateMutability": "nonpayable",
      "type": "function"
    },
    {
      "inputs": [
        {
          "internalType": "address",
          "name": "from",
          "type": "address"
        },
        {
          "internalType": "address",
          "name": "to",
          "type": "address"
        },
        {
          "internalType": "uint256",
          "name": "tokenId",
          "type": "uint256"
        },
        {
          "internalType": "bytes",
          "name": "data",
          "type": "bytes"
        }
      ],
      "name": "safeTransferFrom",
      "outputs": [],
      "stateMutability": "nonpayable",
      "type": "function"
    },
    {
      "inputs": [
        {
          "internalType": "address",
          "name": "operator",
          "type": "address"
        },
        {
          "internalType": "bool",
          "name": "approved",
          "type": "bool"
        }
      ],
      "name": "setApprovalForAll",
      "outputs": [],
      "stateMutability": "nonpayable",
      "type": "function"
    },
    {
      "inputs": [
        {
          "internalType": "address",
          "name": "_address",
          "type": "address"
        }
      ],
      "name": "setBoxAddress",
      "outputs": [],
      "stateMutability": "nonpayable",
      "type": "function"
    },
    {
      "inputs": [
        {
          "internalType": "string",
          "name": "_uri",
          "type": "string"
        }
      ],
      "name": "setContractMetadata",
      "outputs": [],
      "stateMutability": "nonpayable",
      "type": "function"
    },
    {
      "inputs": [
        {
          "internalType": "address",
          "name": "_address",
          "type": "address"
        }
      ],
      "name": "setEquipAddress",
      "outputs": [],
      "stateMutability": "nonpayable",
      "type": "function"
    },
    {
      "inputs": [
        {
          "internalType": "string",
          "name": "_uri",
          "type": "string"
        }
      ],
      "name": "setMetadata",
      "outputs": [],
      "stateMutability": "nonpayable",
      "type": "function"
    },
    {
      "inputs": [
        {
          "internalType": "bool",
          "name": "_state",
          "type": "bool"
        }
      ],
      "name": "setMintEnabled",
      "outputs": [],
      "stateMutability": "nonpayable",
      "type": "function"
    },
    {
      "inputs": [
        {
          "internalType": "uint256",
          "name": "_price",
          "type": "uint256"
        }
      ],
      "name": "setPrice",
      "outputs": [],
      "stateMutability": "nonpayable",
      "type": "function"
    },
    {
      "inputs": [
        {
          "internalType": "uint256",
          "name": "_rareFirstId",
          "type": "uint256"
        }
      ],
      "name": "setRareFirstId",
      "outputs": [],
      "stateMutability": "nonpayable",
      "type": "function"
    },
    {
      "inputs": [
        {
          "internalType": "uint256",
          "name": "_rareLastId",
          "type": "uint256"
        }
      ],
      "name": "setRareLastId",
      "outputs": [],
      "stateMutability": "nonpayable",
      "type": "function"
    },
    {
      "inputs": [
        {
          "internalType": "uint256[]",
          "name": "_remainingEggs",
          "type": "uint256[]"
        }
      ],
      "name": "setRemainingEggs",
      "outputs": [],
      "stateMutability": "nonpayable",
      "type": "function"
    },
    {
      "inputs": [
        {
          "internalType": "bytes4",
          "name": "interfaceId",
          "type": "bytes4"
        }
      ],
      "name": "supportsInterface",
      "outputs": [
        {
          "internalType": "bool",
          "name": "",
          "type": "bool"
        }
      ],
      "stateMutability": "view",
      "type": "function"
    },
    {
      "inputs": [],
      "name": "symbol",
      "outputs": [
        {
          "internalType": "string",
          "name": "",
          "type": "string"
        }
      ],
      "stateMutability": "view",
      "type": "function"
    },
    {
      "inputs": [
        {
          "internalType": "uint256",
          "name": "_tokenId",
          "type": "uint256"
        }
      ],
      "name": "tokenURI",
      "outputs": [
        {
          "internalType": "string",
          "name": "",
          "type": "string"
        }
      ],
      "stateMutability": "view",
      "type": "function"
    },
    {
      "inputs": [],
      "name": "totalSupply",
      "outputs": [
        {
          "internalType": "uint256",
          "name": "",
          "type": "uint256"
        }
      ],
      "stateMutability": "view",
      "type": "function"
    },
    {
      "inputs": [
        {
          "internalType": "address",
          "name": "from",
          "type": "address"
        },
        {
          "internalType": "address",
          "name": "to",
          "type": "address"
        },
        {
          "internalType": "uint256",
          "name": "tokenId",
          "type": "uint256"
        }
      ],
      "name": "transferFrom",
      "outputs": [],
      "stateMutability": "nonpayable",
      "type": "function"
    },
    {
      "inputs": [
        {
          "internalType": "address",
          "name": "newOwner",
          "type": "address"
        }
      ],
      "name": "transferOwnership",
      "outputs": [],
      "stateMutability": "nonpayable",
      "type": "function"
    },
    {
      "inputs": [],
      "name": "uri",
      "outputs": [
        {
          "internalType": "string",
          "name": "",
          "type": "string"
        }
      ],
      "stateMutability": "view",
      "type": "function"
    },
    {
      "inputs": [],
      "name": "uriPrefix",
      "outputs": [
        {
          "internalType": "string",
          "name": "",
          "type": "string"
        }
      ],
      "stateMutability": "view",
      "type": "function"
    },
    {
      "inputs": [],
      "name": "uriSuffix",
      "outputs": [
        {
          "internalType": "string",
          "name": "",
          "type": "string"
        }
      ],
      "stateMutability": "view",
      "type": "function"
    },
    {
      "inputs": [],
      "name": "withdraw",
      "outputs": [],
      "stateMutability": "nonpayable",
      "type": "function"
    }
  ],
  "bytecode": "0x608060405260405180602001604052806000815250600b90805190602001906200002b929190620008bf565b506040518060400160405280600581526020017f2e6a736f6e000000000000000000000000000000000000000000000000000000815250600c908051906020019062000079929190620008bf565b50604051806060016040528060368152602001620051ea60369139600d9080519060200190620000ab929190620008bf565b50604051806060016040528060368152602001620051b460369139600e9080519060200190620000dd929190620008bf565b506019601055601f6011556000601355348015620000fa57600080fd5b50733cc6cdda760b79bafa08df41ecfa224f810dceb660016040518060400160405280600381526020017f45676700000000000000000000000000000000000000000000000000000000008152506040518060400160405280600381526020017f45474700000000000000000000000000000000000000000000000000000000008152506200019e62000192620007ea60201b60201c565b620007f260201b60201c565b8160039080519060200190620001b6929190620008bf565b508060049080519060200190620001cf929190620008bf565b50620001e0620008b660201b60201c565b600181905550505060006daaeb6d7670e522a718067333cd4e73ffffffffffffffffffffffffffffffffffffffff163b1115620003dd578015620002a3576daaeb6d7670e522a718067333cd4e73ffffffffffffffffffffffffffffffffffffffff16637d3e3dbe30846040518363ffffffff1660e01b81526004016200026992919062000a0b565b600060405180830381600087803b1580156200028457600080fd5b505af115801562000299573d6000803e3d6000fd5b50505050620003dc565b600073ffffffffffffffffffffffffffffffffffffffff168273ffffffffffffffffffffffffffffffffffffffff16146200035d576daaeb6d7670e522a718067333cd4e73ffffffffffffffffffffffffffffffffffffffff1663a0af290330846040518363ffffffff1660e01b81526004016200032392919062000a0b565b600060405180830381600087803b1580156200033e57600080fd5b505af115801562000353573d6000803e3d6000fd5b50505050620003db565b6daaeb6d7670e522a718067333cd4e73ffffffffffffffffffffffffffffffffffffffff16634420e486306040518263ffffffff1660e01b8152600401620003a6919062000a38565b600060405180830381600087803b158015620003c157600080fd5b505af1158015620003d6573d6000803e3d6000fd5b505050505b5b5b505060405180610c800160405280600160ff168152602001600160ff168152602001600160ff168152602001600160ff168152602001600160ff168152602001600160ff168152602001600160ff168152602001600160ff168152602001600160ff168152602001600160ff168152602001600160ff168152602001600160ff168152602001600160ff168152602001600260ff168152602001600260ff168152602001600260ff168152602001600260ff168152602001600260ff168152602001600260ff168152602001600260ff168152602001600260ff168152602001600260ff168152602001600260ff168152602001600360ff168152602001600360ff168152602001600360ff168152602001600360ff168152602001600360ff168152602001600460ff168152602001600460ff168152602001600460ff168152602001600460ff168152602001600460ff168152602001600560ff168152602001600560ff168152602001600560ff168152602001600660ff168152602001600660ff168152602001600660ff168152602001600760ff168152602001600760ff168152602001600760ff168152602001600860ff168152602001600860ff168152602001600860ff168152602001600960ff168152602001600960ff168152602001600960ff168152602001600a60ff168152602001600a60ff168152602001600a60ff168152602001600b60ff168152602001600b60ff168152602001600b60ff168152602001600c60ff168152602001600c60ff168152602001600c60ff168152602001600d60ff168152602001600d60ff168152602001600d60ff168152602001600e60ff168152602001600e60ff168152602001600e60ff168152602001600f60ff168152602001600f60ff168152602001600f60ff168152602001601060ff168152602001601060ff168152602001601060ff168152602001601160ff168152602001601160ff168152602001601160ff168152602001601260ff168152602001601260ff168152602001601260ff168152602001601360ff168152602001601360ff168152602001601360ff168152602001601460ff168152602001601460ff168152602001601460ff168152602001601560ff168152602001601560ff168152602001601560ff168152602001601660ff168152602001601660ff168152602001601660ff168152602001601760ff168152602001601760ff168152602001601760ff168152602001601860ff168152602001601860ff168152602001601860ff168152602001601960ff168152602001601a60ff168152602001601b60ff168152602001601c60ff168152602001601d60ff168152602001601e60ff168152602001601f60ff168152506014906064620007e392919062000950565b5062000ab9565b600033905090565b60008060009054906101000a900473ffffffffffffffffffffffffffffffffffffffff169050816000806101000a81548173ffffffffffffffffffffffffffffffffffffffff021916908373ffffffffffffffffffffffffffffffffffffffff1602179055508173ffffffffffffffffffffffffffffffffffffffff168173ffffffffffffffffffffffffffffffffffffffff167f8be0079c531659141344cd1fd0a4f28419497f9722a3daafe3b4186f6b6457e060405160405180910390a35050565b60006001905090565b828054620008cd9062000a84565b90600052602060002090601f016020900481019282620008f157600085556200093d565b82601f106200090c57805160ff19168380011785556200093d565b828001600101855582156200093d579182015b828111156200093c5782518255916020019190600101906200091f565b5b5090506200094c9190620009a7565b5090565b82805482825590600052602060002090810192821562000994579160200282015b8281111562000993578251829060ff1690559160200191906001019062000971565b5b509050620009a39190620009a7565b5090565b5b80821115620009c2576000816000905550600101620009a8565b5090565b600073ffffffffffffffffffffffffffffffffffffffff82169050919050565b6000620009f382620009c6565b9050919050565b62000a0581620009e6565b82525050565b600060408201905062000a226000830185620009fa565b62000a316020830184620009fa565b9392505050565b600060208201905062000a4f6000830184620009fa565b92915050565b7f4e487b7100000000000000000000000000000000000000000000000000000000600052602260045260246000fd5b6000600282049050600182168062000a9d57607f821691505b60208210810362000ab35762000ab262000a55565b5b50919050565b6146eb8062000ac96000396000f3fe6080604052600436106102885760003560e01c806391b7f5ed1161015a578063d1239730116100c1578063e985e9c51161007a578063e985e9c514610999578063eac989f8146109d6578063f2fde38b14610a01578063f307101a14610a2a578063f46a04eb14610a67578063fce5503714610a9057610288565b8063d12397301461089b578063d547cfb7146108c6578063dc5eb76d146108f1578063e59d05811461091c578063e5fcc53514610945578063e8a3d4851461096e57610288565b8063a49a1e7d11610113578063a49a1e7d1461078f578063afa20f54146107b8578063b88d4fde146107e1578063c0e24d5e1461080a578063c254cc7b14610835578063c87b56dd1461085e57610288565b806391b7f5ed1461067f57806395d89b41146106a857806398d5fdca146106d35780639ec268bd146106fe578063a035b1fe1461073b578063a22cb4651461076657610288565b806342842e0e116101fe5780636437785f116101b75780636437785f1461058357806370a08231146105ac578063715018a6146105e957806379654701146106005780638ba4cc3c1461062b5780638da5cb5b1461065457610288565b806342842e0e14610471578063486a7e6b1461049a5780635503a0e8146104c55780635aba27af146104f057806362b99ad41461051b5780636352211e1461054657610288565b806318160ddd1161025057806318160ddd146103845780631b2ef1ca146103af57806323b872dd146103cb5780632bf7e4cf146103f45780633a34c4801461041d5780633ccfd60b1461045a57610288565b806301ffc9a71461028d57806304b5085e146102ca57806306fdde03146102f3578063081812fc1461031e578063095ea7b31461035b575b600080fd5b34801561029957600080fd5b506102b460048036038101906102af9190613460565b610ab9565b6040516102c191906134a8565b60405180910390f35b3480156102d657600080fd5b506102f160048036038101906102ec91906134f9565b610b4b565b005b3480156102ff57600080fd5b50610308610be7565b60405161031591906135bf565b60405180910390f35b34801561032a57600080fd5b50610345600480360381019061034091906134f9565b610c79565b6040516103529190613622565b60405180910390f35b34801561036757600080fd5b50610382600480360381019061037d9190613669565b610cf8565b005b34801561039057600080fd5b50610399610e3c565b6040516103a691906136b8565b60405180910390f35b6103c960048036038101906103c491906136d3565b610e53565b005b3480156103d757600080fd5b506103f260048036038101906103ed9190613713565b610fa5565b005b34801561040057600080fd5b5061041b60048036038101906104169190613792565b611187565b005b34801561042957600080fd5b50610444600480360381019061043f91906134f9565b61152c565b60405161045191906134a8565b60405180910390f35b34801561046657600080fd5b5061046f611549565b005b34801561047d57600080fd5b5061049860048036038101906104939190613713565b61159a565b005b3480156104a657600080fd5b506104af61177c565b6040516104bc91906136b8565b60405180910390f35b3480156104d157600080fd5b506104da611782565b6040516104e791906135bf565b60405180910390f35b3480156104fc57600080fd5b50610505611810565b60405161051291906134a8565b60405180910390f35b34801561052757600080fd5b50610530611872565b60405161053d91906135bf565b60405180910390f35b34801561055257600080fd5b5061056d600480360381019061056891906134f9565b611900565b60405161057a9190613622565b60405180910390f35b34801561058f57600080fd5b506105aa60048036038101906105a591906134f9565b611912565b005b3480156105b857600080fd5b506105d360048036038101906105ce91906137d2565b611924565b6040516105e091906136b8565b60405180910390f35b3480156105f557600080fd5b506105fe6119dc565b005b34801561060c57600080fd5b506106156119f0565b60405161062291906136b8565b60405180910390f35b34801561063757600080fd5b50610652600480360381019061064d9190613669565b6119f6565b005b34801561066057600080fd5b50610669611a2c565b6040516106769190613622565b60405180910390f35b34801561068b57600080fd5b506106a660048036038101906106a191906134f9565b611a55565b005b3480156106b457600080fd5b506106bd611a67565b6040516106ca91906135bf565b60405180910390f35b3480156106df57600080fd5b506106e8611af9565b6040516106f591906136b8565b60405180910390f35b34801561070a57600080fd5b50610725600480360381019061072091906134f9565b611b03565b60405161073291906136b8565b60405180910390f35b34801561074757600080fd5b50610750611b27565b60405161075d91906136b8565b60405180910390f35b34801561077257600080fd5b5061078d60048036038101906107889190613792565b611b2d565b005b34801561079b57600080fd5b506107b660048036038101906107b19190613934565b611ca4565b005b3480156107c457600080fd5b506107df60048036038101906107da91906137d2565b611cc6565b005b3480156107ed57600080fd5b5061080860048036038101906108039190613a1e565b611d12565b005b34801561081657600080fd5b5061081f611ef7565b60405161082c91906135bf565b60405180910390f35b34801561084157600080fd5b5061085c600480360381019061085791906137d2565b611f85565b005b34801561086a57600080fd5b50610885600480360381019061088091906134f9565b611fd1565b60405161089291906135bf565b60405180910390f35b3480156108a757600080fd5b506108b061208e565b6040516108bd91906134a8565b60405180910390f35b3480156108d257600080fd5b506108db6120a1565b6040516108e891906135bf565b60405180910390f35b3480156108fd57600080fd5b506109066120b0565b60405161091391906136b8565b60405180910390f35b34801561092857600080fd5b50610943600480360381019061093e9190613b69565b6120b6565b005b34801561095157600080fd5b5061096c600480360381019061096791906134f9565b6120e6565b005b34801561097a57600080fd5b506109836120f8565b60405161099091906135bf565b60405180910390f35b3480156109a557600080fd5b506109c060048036038101906109bb9190613bb2565b61218a565b6040516109cd91906134a8565b60405180910390f35b3480156109e257600080fd5b506109eb61221e565b6040516109f891906135bf565b60405180910390f35b348015610a0d57600080fd5b50610a286004803603810190610a2391906137d2565b6122ac565b005b348015610a3657600080fd5b50610a516004803603810190610a4c91906134f9565b61232f565b604051610a5e91906136b8565b60405180910390f35b348015610a7357600080fd5b50610a8e6004803603810190610a899190613bf2565b61234c565b005b348015610a9c57600080fd5b50610ab76004803603810190610ab29190613934565b612371565b005b60006301ffc9a760e01b827bffffffffffffffffffffffffffffffffffffffffffffffffffffffff19161480610b1457506380ac58cd60e01b827bffffffffffffffffffffffffffffffffffffffffffffffffffffffff1916145b80610b445750635b5e139f60e01b827bffffffffffffffffffffffffffffffffffffffffffffffffffffffff1916145b9050919050565b600a60009054906101000a900473ffffffffffffffffffffffffffffffffffffffff1673ffffffffffffffffffffffffffffffffffffffff163373ffffffffffffffffffffffffffffffffffffffff1614610bdb576040517f08c379a0000000000000000000000000000000000000000000000000000000008152600401610bd290613c91565b60405180910390fd5b610be481612393565b50565b606060038054610bf690613ce0565b80601f0160208091040260200160405190810160405280929190818152602001828054610c2290613ce0565b8015610c6f5780601f10610c4457610100808354040283529160200191610c6f565b820191906000526020600020905b815481529060010190602001808311610c5257829003601f168201915b5050505050905090565b6000610c84826123a1565b610cba576040517fcf4700e400000000000000000000000000000000000000000000000000000000815260040160405180910390fd5b6007600083815260200190815260200160002060000160009054906101000a900473ffffffffffffffffffffffffffffffffffffffff169050919050565b6000610d0382611900565b90508073ffffffffffffffffffffffffffffffffffffffff16610d24612400565b73ffffffffffffffffffffffffffffffffffffffff1614610d8757610d5081610d4b612400565b61218a565b610d86576040517fcfb3b94200000000000000000000000000000000000000000000000000000000815260040160405180910390fd5b5b826007600084815260200190815260200160002060000160006101000a81548173ffffffffffffffffffffffffffffffffffffffff021916908373ffffffffffffffffffffffffffffffffffffffff160217905550818373ffffffffffffffffffffffffffffffffffffffff168273ffffffffffffffffffffffffffffffffffffffff167f8c5be1e5ebec7d5bd14f71427d1e84f3dd0314c0f7b2291e5b200ac8c7c3b92560405160405180910390a4505050565b6000610e46612408565b6002546001540303905090565b601260009054906101000a900460ff16610ea2576040517f08c379a0000000000000000000000000000000000000000000000000000000008152600401610e9990613d5d565b60405180910390fd5b600060148054905011610eea576040517f08c379a0000000000000000000000000000000000000000000000000000000008152600401610ee190613dc9565b60405180910390fd5b81610ef3611af9565b610efd9190613e18565b341015610f3f576040517f08c379a0000000000000000000000000000000000000000000000000000000008152600401610f3690613ee4565b60405180910390fd5b610f493383612411565b8060156000610f566125cd565b8152602001908152602001600020819055507f76020ece75bf679c701e656fcffc7e3df8354859b3b0eb7fee42b1378023bb313382604051610f99929190613f04565b60405180910390a15050565b8260006daaeb6d7670e522a718067333cd4e73ffffffffffffffffffffffffffffffffffffffff163b1115611175573373ffffffffffffffffffffffffffffffffffffffff168173ffffffffffffffffffffffffffffffffffffffff1603611017576110128484846125e0565b611181565b6daaeb6d7670e522a718067333cd4e73ffffffffffffffffffffffffffffffffffffffff1663c617113430336040518363ffffffff1660e01b8152600401611060929190613f2d565b602060405180830381865afa15801561107d573d6000803e3d6000fd5b505050506040513d601f19601f820116820180604052508101906110a19190613f6b565b801561113357506daaeb6d7670e522a718067333cd4e73ffffffffffffffffffffffffffffffffffffffff1663c617113430836040518363ffffffff1660e01b81526004016110f1929190613f2d565b602060405180830381865afa15801561110e573d6000803e3d6000fd5b505050506040513d601f19601f820116820180604052508101906111329190613f6b565b5b61117457336040517fede71dcc00000000000000000000000000000000000000000000000000000000815260040161116b9190613622565b60405180910390fd5b5b6111808484846125e0565b5b50505050565b600960009054906101000a900473ffffffffffffffffffffffffffffffffffffffff1673ffffffffffffffffffffffffffffffffffffffff163373ffffffffffffffffffffffffffffffffffffffff1614611217576040517f08c379a000000000000000000000000000000000000000000000000000000000815260040161120e9061400a565b60405180910390fd5b60006014805490501161125f576040517f08c379a000000000000000000000000000000000000000000000000000000000815260040161125690613dc9565b60405180910390fd5b3273ffffffffffffffffffffffffffffffffffffffff168273ffffffffffffffffffffffffffffffffffffffff16146112cd576040517f08c379a00000000000000000000000000000000000000000000000000000000081526004016112c490614076565b60405180910390fd5b8080156112df57506112dd611810565b155b1561131f576040517f08c379a000000000000000000000000000000000000000000000000000000000815260040161131690614108565b60405180910390fd5b6000611329612902565b6001436113369190614128565b404460405160200161134a939291906141f0565b6040516020818303038152906040528051906020012060001c90506000601480549050905082156113eb576000805b828110156113c0576113a8601482815481106113985761139761422d565b5b906000526020600020015461152c565b156113b5578091506113c0565b806001019050611379565b5080826113cd9190614128565b836113d8919061428b565b816113e391906142bc565b9250506113fa565b80826113f7919061428b565b91505b6000601483815481106114105761140f61422d565b5b90600052602060002001549050611428856001612411565b80601560006114356125cd565b81526020019081526020016000208190555060018211156114c45760008390505b6001836114639190614128565b8110156114c257601460018261147991906142bc565b8154811061148a5761148961422d565b5b9060005260206000200154601482815481106114a9576114a861422d565b5b9060005260206000200181905550806001019050611456565b505b60148054806114d6576114d5614312565b5b600190038181906000526020600020016000905590557f76020ece75bf679c701e656fcffc7e3df8354859b3b0eb7fee42b1378023bb31858260405161151d929190613f04565b60405180910390a15050505050565b6000601054821015801561154257506011548211155b9050919050565b61155161290a565b3373ffffffffffffffffffffffffffffffffffffffff166108fc479081150290604051600060405180830381858888f19350505050158015611597573d6000803e3d6000fd5b50565b8260006daaeb6d7670e522a718067333cd4e73ffffffffffffffffffffffffffffffffffffffff163b111561176a573373ffffffffffffffffffffffffffffffffffffffff168173ffffffffffffffffffffffffffffffffffffffff160361160c57611607848484612988565b611776565b6daaeb6d7670e522a718067333cd4e73ffffffffffffffffffffffffffffffffffffffff1663c617113430336040518363ffffffff1660e01b8152600401611655929190613f2d565b602060405180830381865afa158015611672573d6000803e3d6000fd5b505050506040513d601f19601f820116820180604052508101906116969190613f6b565b801561172857506daaeb6d7670e522a718067333cd4e73ffffffffffffffffffffffffffffffffffffffff1663c617113430836040518363ffffffff1660e01b81526004016116e6929190613f2d565b602060405180830381865afa158015611703573d6000803e3d6000fd5b505050506040513d601f19601f820116820180604052508101906117279190613f6b565b5b61176957336040517fede71dcc0000000000000000000000000000000000000000000000000000000081526004016117609190613622565b60405180910390fd5b5b611775848484612988565b5b50505050565b600f5481565b600c805461178f90613ce0565b80601f01602080910402602001604051908101604052809291908181526020018280546117bb90613ce0565b80156118085780601f106117dd57610100808354040283529160200191611808565b820191906000526020600020905b8154815290600101906020018083116117eb57829003601f168201915b505050505081565b600080601480549050905060005b818110156118685761184d6014828154811061183d5761183c61422d565b5b906000526020600020015461152c565b1561185d5760019250505061186f565b80600101905061181e565b5060009150505b90565b600b805461187f90613ce0565b80601f01602080910402602001604051908101604052809291908181526020018280546118ab90613ce0565b80156118f85780601f106118cd576101008083540402835291602001916118f8565b820191906000526020600020905b8154815290600101906020018083116118db57829003601f168201915b505050505081565b600061190b826129a8565b9050919050565b61191a61290a565b8060108190555050565b60008073ffffffffffffffffffffffffffffffffffffffff168273ffffffffffffffffffffffffffffffffffffffff160361198b576040517f8f4eb60400000000000000000000000000000000000000000000000000000000815260040160405180910390fd5b67ffffffffffffffff600660008473ffffffffffffffffffffffffffffffffffffffff1673ffffffffffffffffffffffffffffffffffffffff16815260200190815260200160002054169050919050565b6119e461290a565b6119ee6000612a74565b565b60105481565b6119fe61290a565b611a09826001612411565b8060156000611a166125cd565b8152602001908152602001600020819055505050565b60008060009054906101000a900473ffffffffffffffffffffffffffffffffffffffff16905090565b611a5d61290a565b8060138190555050565b606060048054611a7690613ce0565b80601f0160208091040260200160405190810160405280929190818152602001828054611aa290613ce0565b8015611aef5780601f10611ac457610100808354040283529160200191611aef565b820191906000526020600020905b815481529060010190602001808311611ad257829003601f168201915b5050505050905090565b6000601354905090565b60148181548110611b1357600080fd5b906000526020600020016000915090505481565b60135481565b611b35612400565b73ffffffffffffffffffffffffffffffffffffffff168273ffffffffffffffffffffffffffffffffffffffff1603611b99576040517fb06307db00000000000000000000000000000000000000000000000000000000815260040160405180910390fd5b8060086000611ba6612400565b73ffffffffffffffffffffffffffffffffffffffff1673ffffffffffffffffffffffffffffffffffffffff16815260200190815260200160002060008473ffffffffffffffffffffffffffffffffffffffff1673ffffffffffffffffffffffffffffffffffffffff16815260200190815260200160002060006101000a81548160ff0219169083151502179055508173ffffffffffffffffffffffffffffffffffffffff16611c53612400565b73ffffffffffffffffffffffffffffffffffffffff167f17307eab39ab6107e8899845ad3d59bd9653f200f220920489ca2b5937696c3183604051611c9891906134a8565b60405180910390a35050565b611cac61290a565b80600d9080519060200190611cc29291906132e3565b5050565b611cce61290a565b80600a60006101000a81548173ffffffffffffffffffffffffffffffffffffffff021916908373ffffffffffffffffffffffffffffffffffffffff16021790555050565b8360006daaeb6d7670e522a718067333cd4e73ffffffffffffffffffffffffffffffffffffffff163b1115611ee3573373ffffffffffffffffffffffffffffffffffffffff168173ffffffffffffffffffffffffffffffffffffffff1603611d8557611d8085858585612b38565b611ef0565b6daaeb6d7670e522a718067333cd4e73ffffffffffffffffffffffffffffffffffffffff1663c617113430336040518363ffffffff1660e01b8152600401611dce929190613f2d565b602060405180830381865afa158015611deb573d6000803e3d6000fd5b505050506040513d601f19601f82011682018060405250810190611e0f9190613f6b565b8015611ea157506daaeb6d7670e522a718067333cd4e73ffffffffffffffffffffffffffffffffffffffff1663c617113430836040518363ffffffff1660e01b8152600401611e5f929190613f2d565b602060405180830381865afa158015611e7c573d6000803e3d6000fd5b505050506040513d601f19601f82011682018060405250810190611ea09190613f6b565b5b611ee257336040517fede71dcc000000000000000000000000000000000000000000000000000000008152600401611ed99190613622565b60405180910390fd5b5b611eef85858585612b38565b5b5050505050565b600e8054611f0490613ce0565b80601f0160208091040260200160405190810160405280929190818152602001828054611f3090613ce0565b8015611f7d5780601f10611f5257610100808354040283529160200191611f7d565b820191906000526020600020905b815481529060010190602001808311611f6057829003601f168201915b505050505081565b611f8d61290a565b80600960006101000a81548173ffffffffffffffffffffffffffffffffffffffff021916908373ffffffffffffffffffffffffffffffffffffffff16021790555050565b6060611fdc826123a1565b61201b576040517f08c379a0000000000000000000000000000000000000000000000000000000008152600401612012906143b3565b60405180910390fd5b6000612025612bab565b905060008151116120455760405180602001604052806000815250612086565b806120626015600086815260200190815260200160002054612c3d565b600c604051602001612076939291906144a3565b6040516020818303038152906040525b915050919050565b601260009054906101000a900460ff1681565b60606120ab612bab565b905090565b60115481565b6120be61290a565b601460006120cc9190613369565b80601490805190602001906120e292919061338a565b5050565b6120ee61290a565b8060118190555050565b6060600e805461210790613ce0565b80601f016020809104026020016040519081016040528092919081815260200182805461213390613ce0565b80156121805780601f1061215557610100808354040283529160200191612180565b820191906000526020600020905b81548152906001019060200180831161216357829003601f168201915b5050505050905090565b6000600860008473ffffffffffffffffffffffffffffffffffffffff1673ffffffffffffffffffffffffffffffffffffffff16815260200190815260200160002060008373ffffffffffffffffffffffffffffffffffffffff1673ffffffffffffffffffffffffffffffffffffffff16815260200190815260200160002060009054906101000a900460ff16905092915050565b600d805461222b90613ce0565b80601f016020809104026020016040519081016040528092919081815260200182805461225790613ce0565b80156122a45780601f10612279576101008083540402835291602001916122a4565b820191906000526020600020905b81548152906001019060200180831161228757829003601f168201915b505050505081565b6122b461290a565b600073ffffffffffffffffffffffffffffffffffffffff168173ffffffffffffffffffffffffffffffffffffffff1603612323576040517f08c379a000000000000000000000000000000000000000000000000000000000815260040161231a90614546565b60405180910390fd5b61232c81612a74565b50565b600060156000838152602001908152602001600020549050919050565b61235461290a565b80601260006101000a81548160ff02191690831515021790555050565b61237961290a565b80600e908051906020019061238f9291906132e3565b5050565b61239e816000612d0b565b50565b6000816123ac612408565b111580156123bb575060015482105b80156123f9575060007c0100000000000000000000000000000000000000000000000000000000600560008581526020019081526020016000205416145b9050919050565b600033905090565b60006001905090565b6000600154905060008203612452576040517fb562e8dd00000000000000000000000000000000000000000000000000000000815260040160405180910390fd5b61245f6000848385612f5d565b600160406001901b178202600660008573ffffffffffffffffffffffffffffffffffffffff1673ffffffffffffffffffffffffffffffffffffffff168152602001908152602001600020600082825401925050819055506124d6836124c76000866000612f63565b6124d085612f8b565b17612f9b565b6005600083815260200190815260200160002081905550600080838301905073ffffffffffffffffffffffffffffffffffffffff85169150828260007fddf252ad1be2c89b69c2b068fc378daa952ba7f163c4a11628f55a4df523b3ef600080a4600183015b81811461257757808360007fddf252ad1be2c89b69c2b068fc378daa952ba7f163c4a11628f55a4df523b3ef600080a460018101905061253c565b50600082036125b2576040517f2e07630000000000000000000000000000000000000000000000000000000000815260040160405180910390fd5b8060018190555050506125c86000848385612fc6565b505050565b60006125d7612408565b60015403905090565b60006125eb826129a8565b90508373ffffffffffffffffffffffffffffffffffffffff168173ffffffffffffffffffffffffffffffffffffffff1614612652576040517fa114810000000000000000000000000000000000000000000000000000000000815260040160405180910390fd5b60008061265e84612fcc565b91509150612674818761266f612400565b612ff3565b6126c05761268986612684612400565b61218a565b6126bf576040517f59c896be00000000000000000000000000000000000000000000000000000000815260040160405180910390fd5b5b600073ffffffffffffffffffffffffffffffffffffffff168573ffffffffffffffffffffffffffffffffffffffff1603612726576040517fea553b3400000000000000000000000000000000000000000000000000000000815260040160405180910390fd5b6127338686866001612f5d565b801561273e57600082555b600660008773ffffffffffffffffffffffffffffffffffffffff1673ffffffffffffffffffffffffffffffffffffffff168152602001908152602001600020600081546001900391905081905550600660008673ffffffffffffffffffffffffffffffffffffffff1673ffffffffffffffffffffffffffffffffffffffff168152602001908152602001600020600081546001019190508190555061280c856127e8888887612f63565b7c020000000000000000000000000000000000000000000000000000000017612f9b565b600560008681526020019081526020016000208190555060007c0200000000000000000000000000000000000000000000000000000000841603612892576000600185019050600060056000838152602001908152602001600020540361289057600154811461288f578360056000838152602001908152602001600020819055505b5b505b838573ffffffffffffffffffffffffffffffffffffffff168773ffffffffffffffffffffffffffffffffffffffff167fddf252ad1be2c89b69c2b068fc378daa952ba7f163c4a11628f55a4df523b3ef60405160405180910390a46128fa8686866001612fc6565b505050505050565b600033905090565b612912612902565b73ffffffffffffffffffffffffffffffffffffffff16612930611a2c565b73ffffffffffffffffffffffffffffffffffffffff1614612986576040517f08c379a000000000000000000000000000000000000000000000000000000000815260040161297d906145b2565b60405180910390fd5b565b6129a383838360405180602001604052806000815250611d12565b505050565b600080829050806129b7612408565b11612a3d57600154811015612a3c5760006005600083815260200190815260200160002054905060007c0100000000000000000000000000000000000000000000000000000000821603612a3a575b60008103612a30576005600083600190039350838152602001908152602001600020549050612a06565b8092505050612a6f565b505b5b6040517fdf2d9b4200000000000000000000000000000000000000000000000000000000815260040160405180910390fd5b919050565b60008060009054906101000a900473ffffffffffffffffffffffffffffffffffffffff169050816000806101000a81548173ffffffffffffffffffffffffffffffffffffffff021916908373ffffffffffffffffffffffffffffffffffffffff1602179055508173ffffffffffffffffffffffffffffffffffffffff168173ffffffffffffffffffffffffffffffffffffffff167f8be0079c531659141344cd1fd0a4f28419497f9722a3daafe3b4186f6b6457e060405160405180910390a35050565b612b43848484610fa5565b60008373ffffffffffffffffffffffffffffffffffffffff163b14612ba557612b6e84848484613037565b612ba4576040517fd1a57ed600000000000000000000000000000000000000000000000000000000815260040160405180910390fd5b5b50505050565b6060600d8054612bba90613ce0565b80601f0160208091040260200160405190810160405280929190818152602001828054612be690613ce0565b8015612c335780601f10612c0857610100808354040283529160200191612c33565b820191906000526020600020905b815481529060010190602001808311612c1657829003601f168201915b5050505050905090565b606060006001612c4c84613187565b01905060008167ffffffffffffffff811115612c6b57612c6a613809565b5b6040519080825280601f01601f191660200182016040528015612c9d5781602001600182028036833780820191505090505b509050600082602001820190505b600115612d00578080600190039150507f3031323334353637383961626364656600000000000000000000000000000000600a86061a8153600a8581612cf457612cf361425c565b5b04945060008503612cab575b819350505050919050565b6000612d16836129a8565b90506000819050600080612d2986612fcc565b915091508415612d9257612d458184612d40612400565b612ff3565b612d9157612d5a83612d55612400565b61218a565b612d90576040517f59c896be00000000000000000000000000000000000000000000000000000000815260040160405180910390fd5b5b5b612da0836000886001612f5d565b8015612dab57600082555b600160806001901b03600660008573ffffffffffffffffffffffffffffffffffffffff1673ffffffffffffffffffffffffffffffffffffffff16815260200190815260200160002060008282540192505081905550612e5383612e1085600088612f63565b7c02000000000000000000000000000000000000000000000000000000007c01000000000000000000000000000000000000000000000000000000001717612f9b565b600560008881526020019081526020016000208190555060007c0200000000000000000000000000000000000000000000000000000000851603612ed95760006001870190506000600560008381526020019081526020016000205403612ed7576001548114612ed6578460056000838152602001908152602001600020819055505b5b505b85600073ffffffffffffffffffffffffffffffffffffffff168473ffffffffffffffffffffffffffffffffffffffff167fddf252ad1be2c89b69c2b068fc378daa952ba7f163c4a11628f55a4df523b3ef60405160405180910390a4612f43836000886001612fc6565b600260008154809291906001019190505550505050505050565b50505050565b60008060e883901c905060e8612f7a8686846132da565b62ffffff16901b9150509392505050565b60006001821460e11b9050919050565b600073ffffffffffffffffffffffffffffffffffffffff83169250814260a01b178317905092915050565b50505050565b60008060006007600085815260200190815260200160002090508092508254915050915091565b600073ffffffffffffffffffffffffffffffffffffffff8316925073ffffffffffffffffffffffffffffffffffffffff821691508382148383141790509392505050565b60008373ffffffffffffffffffffffffffffffffffffffff1663150b7a0261305d612400565b8786866040518563ffffffff1660e01b815260040161307f9493929190614627565b6020604051808303816000875af19250505080156130bb57506040513d601f19601f820116820180604052508101906130b89190614688565b60015b613134573d80600081146130eb576040519150601f19603f3d011682016040523d82523d6000602084013e6130f0565b606091505b50600081510361312c576040517fd1a57ed600000000000000000000000000000000000000000000000000000000815260040160405180910390fd5b805181602001fd5b63150b7a0260e01b7bffffffffffffffffffffffffffffffffffffffffffffffffffffffff1916817bffffffffffffffffffffffffffffffffffffffffffffffffffffffff191614915050949350505050565b600080600090507a184f03e93ff9f4daa797ed6e38ed64bf6a1f01000000000000000083106131e5577a184f03e93ff9f4daa797ed6e38ed64bf6a1f01000000000000000083816131db576131da61425c565b5b0492506040810190505b6d04ee2d6d415b85acef81000000008310613222576d04ee2d6d415b85acef810000000083816132185761321761425c565b5b0492506020810190505b662386f26fc10000831061325157662386f26fc1000083816132475761324661425c565b5b0492506010810190505b6305f5e100831061327a576305f5e10083816132705761326f61425c565b5b0492506008810190505b612710831061329f5761271083816132955761329461425c565b5b0492506004810190505b606483106132c257606483816132b8576132b761425c565b5b0492506002810190505b600a83106132d1576001810190505b80915050919050565b60009392505050565b8280546132ef90613ce0565b90600052602060002090601f0160209004810192826133115760008555613358565b82601f1061332a57805160ff1916838001178555613358565b82800160010185558215613358579182015b8281111561335757825182559160200191906001019061333c565b5b50905061336591906133d7565b5090565b508054600082559060005260206000209081019061338791906133d7565b50565b8280548282559060005260206000209081019282156133c6579160200282015b828111156133c55782518255916020019190600101906133aa565b5b5090506133d391906133d7565b5090565b5b808211156133f05760008160009055506001016133d8565b5090565b6000604051905090565b600080fd5b600080fd5b60007fffffffff0000000000000000000000000000000000000000000000000000000082169050919050565b61343d81613408565b811461344857600080fd5b50565b60008135905061345a81613434565b92915050565b600060208284031215613476576134756133fe565b5b60006134848482850161344b565b91505092915050565b60008115159050919050565b6134a28161348d565b82525050565b60006020820190506134bd6000830184613499565b92915050565b6000819050919050565b6134d6816134c3565b81146134e157600080fd5b50565b6000813590506134f3816134cd565b92915050565b60006020828403121561350f5761350e6133fe565b5b600061351d848285016134e4565b91505092915050565b600081519050919050565b600082825260208201905092915050565b60005b83811015613560578082015181840152602081019050613545565b8381111561356f576000848401525b50505050565b6000601f19601f8301169050919050565b600061359182613526565b61359b8185613531565b93506135ab818560208601613542565b6135b481613575565b840191505092915050565b600060208201905081810360008301526135d98184613586565b905092915050565b600073ffffffffffffffffffffffffffffffffffffffff82169050919050565b600061360c826135e1565b9050919050565b61361c81613601565b82525050565b60006020820190506136376000830184613613565b92915050565b61364681613601565b811461365157600080fd5b50565b6000813590506136638161363d565b92915050565b600080604083850312156136805761367f6133fe565b5b600061368e85828601613654565b925050602061369f858286016134e4565b9150509250929050565b6136b2816134c3565b82525050565b60006020820190506136cd60008301846136a9565b92915050565b600080604083850312156136ea576136e96133fe565b5b60006136f8858286016134e4565b9250506020613709858286016134e4565b9150509250929050565b60008060006060848603121561372c5761372b6133fe565b5b600061373a86828701613654565b935050602061374b86828701613654565b925050604061375c868287016134e4565b9150509250925092565b61376f8161348d565b811461377a57600080fd5b50565b60008135905061378c81613766565b92915050565b600080604083850312156137a9576137a86133fe565b5b60006137b785828601613654565b92505060206137c88582860161377d565b9150509250929050565b6000602082840312156137e8576137e76133fe565b5b60006137f684828501613654565b91505092915050565b600080fd5b600080fd5b7f4e487b7100000000000000000000000000000000000000000000000000000000600052604160045260246000fd5b61384182613575565b810181811067ffffffffffffffff821117156138605761385f613809565b5b80604052505050565b60006138736133f4565b905061387f8282613838565b919050565b600067ffffffffffffffff82111561389f5761389e613809565b5b6138a882613575565b9050602081019050919050565b82818337600083830152505050565b60006138d76138d284613884565b613869565b9050828152602081018484840111156138f3576138f2613804565b5b6138fe8482856138b5565b509392505050565b600082601f83011261391b5761391a6137ff565b5b813561392b8482602086016138c4565b91505092915050565b60006020828403121561394a576139496133fe565b5b600082013567ffffffffffffffff81111561396857613967613403565b5b61397484828501613906565b91505092915050565b600067ffffffffffffffff82111561399857613997613809565b5b6139a182613575565b9050602081019050919050565b60006139c16139bc8461397d565b613869565b9050828152602081018484840111156139dd576139dc613804565b5b6139e88482856138b5565b509392505050565b600082601f830112613a0557613a046137ff565b5b8135613a158482602086016139ae565b91505092915050565b60008060008060808587031215613a3857613a376133fe565b5b6000613a4687828801613654565b9450506020613a5787828801613654565b9350506040613a68878288016134e4565b925050606085013567ffffffffffffffff811115613a8957613a88613403565b5b613a95878288016139f0565b91505092959194509250565b600067ffffffffffffffff821115613abc57613abb613809565b5b602082029050602081019050919050565b600080fd5b6000613ae5613ae084613aa1565b613869565b90508083825260208201905060208402830185811115613b0857613b07613acd565b5b835b81811015613b315780613b1d88826134e4565b845260208401935050602081019050613b0a565b5050509392505050565b600082601f830112613b5057613b4f6137ff565b5b8135613b60848260208601613ad2565b91505092915050565b600060208284031215613b7f57613b7e6133fe565b5b600082013567ffffffffffffffff811115613b9d57613b9c613403565b5b613ba984828501613b3b565b91505092915050565b60008060408385031215613bc957613bc86133fe565b5b6000613bd785828601613654565b9250506020613be885828601613654565b9150509250929050565b600060208284031215613c0857613c076133fe565b5b6000613c168482850161377d565b91505092915050565b7f4f6e6c792074686520457175697020736d61727420636f6e747261637420636160008201527f6e206275726e2066726f6d206571756970000000000000000000000000000000602082015250565b6000613c7b603183613531565b9150613c8682613c1f565b604082019050919050565b60006020820190508181036000830152613caa81613c6e565b9050919050565b7f4e487b7100000000000000000000000000000000000000000000000000000000600052602260045260246000fd5b60006002820490506001821680613cf857607f821691505b602082108103613d0b57613d0a613cb1565b5b50919050565b7f4d696e74696e67206973206e6f7420656e61626c656400000000000000000000600082015250565b6000613d47601683613531565b9150613d5282613d11565b602082019050919050565b60006020820190508181036000830152613d7681613d3a565b9050919050565b7f4e6f2072656d61696e696e672045676773000000000000000000000000000000600082015250565b6000613db3601183613531565b9150613dbe82613d7d565b602082019050919050565b60006020820190508181036000830152613de281613da6565b9050919050565b7f4e487b7100000000000000000000000000000000000000000000000000000000600052601160045260246000fd5b6000613e23826134c3565b9150613e2e836134c3565b9250817fffffffffffffffffffffffffffffffffffffffffffffffffffffffffffffffff0483118215151615613e6757613e66613de9565b5b828202905092915050565b7f4e6f7420656e6f756768204554482073656e743b20636865636b20707269636560008201527f2100000000000000000000000000000000000000000000000000000000000000602082015250565b6000613ece602183613531565b9150613ed982613e72565b604082019050919050565b60006020820190508181036000830152613efd81613ec1565b9050919050565b6000604082019050613f196000830185613613565b613f2660208301846136a9565b9392505050565b6000604082019050613f426000830185613613565b613f4f6020830184613613565b9392505050565b600081519050613f6581613766565b92915050565b600060208284031215613f8157613f806133fe565b5b6000613f8f84828501613f56565b91505092915050565b7f4f6e6c792074686520426f7820736d61727420636f6e74726163742063616e2060008201527f6d696e7400000000000000000000000000000000000000000000000000000000602082015250565b6000613ff4602483613531565b9150613fff82613f98565b604082019050919050565b6000602082019050818103600083015261402381613fe7565b9050919050565b7f6f70656e65722063616e6e6f7420626520736d61727420636f6e747261637400600082015250565b6000614060601f83613531565b915061406b8261402a565b602082019050919050565b6000602082019050818103600083015261408f81614053565b9050919050565b7f4e6f206d6f7265206f6e652070657263656e742072617269746965732061766160008201527f696c61626c650000000000000000000000000000000000000000000000000000602082015250565b60006140f2602683613531565b91506140fd82614096565b604082019050919050565b60006020820190508181036000830152614121816140e5565b9050919050565b6000614133826134c3565b915061413e836134c3565b92508282101561415157614150613de9565b5b828203905092915050565b60008160601b9050919050565b60006141748261415c565b9050919050565b600061418682614169565b9050919050565b61419e61419982613601565b61417b565b82525050565b6000819050919050565b6000819050919050565b6141c96141c4826141a4565b6141ae565b82525050565b6000819050919050565b6141ea6141e5826134c3565b6141cf565b82525050565b60006141fc828661418d565b60148201915061420c82856141b8565b60208201915061421c82846141d9565b602082019150819050949350505050565b7f4e487b7100000000000000000000000000000000000000000000000000000000600052603260045260246000fd5b7f4e487b7100000000000000000000000000000000000000000000000000000000600052601260045260246000fd5b6000614296826134c3565b91506142a1836134c3565b9250826142b1576142b061425c565b5b828206905092915050565b60006142c7826134c3565b91506142d2836134c3565b9250827fffffffffffffffffffffffffffffffffffffffffffffffffffffffffffffffff0382111561430757614306613de9565b5b828201905092915050565b7f4e487b7100000000000000000000000000000000000000000000000000000000600052603160045260246000fd5b7f4552433732314d657461646174613a2055524920717565727920666f72206e6f60008201527f6e6578697374656e7420746f6b656e0000000000000000000000000000000000602082015250565b600061439d602f83613531565b91506143a882614341565b604082019050919050565b600060208201905081810360008301526143cc81614390565b9050919050565b600081905092915050565b60006143e982613526565b6143f381856143d3565b9350614403818560208601613542565b80840191505092915050565b60008190508160005260206000209050919050565b6000815461443181613ce0565b61443b81866143d3565b9450600182166000811461445657600181146144675761449a565b60ff1983168652818601935061449a565b6144708561440f565b60005b8381101561449257815481890152600182019150602081019050614473565b838801955050505b50505092915050565b60006144af82866143de565b91506144bb82856143de565b91506144c78284614424565b9150819050949350505050565b7f4f776e61626c653a206e6577206f776e657220697320746865207a65726f206160008201527f6464726573730000000000000000000000000000000000000000000000000000602082015250565b6000614530602683613531565b915061453b826144d4565b604082019050919050565b6000602082019050818103600083015261455f81614523565b9050919050565b7f4f776e61626c653a2063616c6c6572206973206e6f7420746865206f776e6572600082015250565b600061459c602083613531565b91506145a782614566565b602082019050919050565b600060208201905081810360008301526145cb8161458f565b9050919050565b600081519050919050565b600082825260208201905092915050565b60006145f9826145d2565b61460381856145dd565b9350614613818560208601613542565b61461c81613575565b840191505092915050565b600060808201905061463c6000830187613613565b6146496020830186613613565b61465660408301856136a9565b818103606083015261466881846145ee565b905095945050505050565b60008151905061468281613434565b92915050565b60006020828403121561469e5761469d6133fe565b5b60006146ac84828501614673565b9150509291505056fea264697066735822122050ef5d2dc2fc0a6d2b327bee84b862db9efb75ce77c0848be75c4e7f3ac5c7b464736f6c634300080d0033697066733a2f2f516d615663544c626d6d593143557377464243426370766741386959643759456d6141726165463739626638675a2f697066733a2f2f516d506a3953697565436937546f37485371375933774c4e79393475615a334b67427a78363334436955727764542f",
  "linkReferences": {},
  "deployedLinkReferences": {}
}