{
  "_format": "hh-sol-artifact-1",
  "contractName": "NftEgg",
  "sourceName": "src/backend/contracts/NftEgg.sol",
  "abi": [
    {
      "inputs": [],
      "stateMutability": "nonpayable",
      "type": "constructor"
    },
    {
      "inputs": [],
      "name": "ApprovalCallerNotOwnerNorApproved",
      "type": "error"
    },
    {
      "inputs": [],
      "name": "ApprovalQueryForNonexistentToken",
      "type": "error"
    },
    {
      "inputs": [],
      "name": "ApproveToCaller",
      "type": "error"
    },
    {
      "inputs": [],
      "name": "BalanceQueryForZeroAddress",
      "type": "error"
    },
    {
      "inputs": [],
      "name": "MintERC2309QuantityExceedsLimit",
      "type": "error"
    },
    {
      "inputs": [],
      "name": "MintToZeroAddress",
      "type": "error"
    },
    {
      "inputs": [],
      "name": "MintZeroQuantity",
      "type": "error"
    },
    {
      "inputs": [
        {
          "internalType": "address",
          "name": "operator",
          "type": "address"
        }
      ],
      "name": "OperatorNotAllowed",
      "type": "error"
    },
    {
      "inputs": [],
      "name": "OwnerQueryForNonexistentToken",
      "type": "error"
    },
    {
      "inputs": [],
      "name": "OwnershipNotInitializedForExtraData",
      "type": "error"
    },
    {
      "inputs": [],
      "name": "TransferCallerNotOwnerNorApproved",
      "type": "error"
    },
    {
      "inputs": [],
      "name": "TransferFromIncorrectOwner",
      "type": "error"
    },
    {
      "inputs": [],
      "name": "TransferToNonERC721ReceiverImplementer",
      "type": "error"
    },
    {
      "inputs": [],
      "name": "TransferToZeroAddress",
      "type": "error"
    },
    {
      "inputs": [],
      "name": "URIQueryForNonexistentToken",
      "type": "error"
    },
    {
      "anonymous": false,
      "inputs": [
        {
          "indexed": true,
          "internalType": "address",
          "name": "owner",
          "type": "address"
        },
        {
          "indexed": true,
          "internalType": "address",
          "name": "approved",
          "type": "address"
        },
        {
          "indexed": true,
          "internalType": "uint256",
          "name": "tokenId",
          "type": "uint256"
        }
      ],
      "name": "Approval",
      "type": "event"
    },
    {
      "anonymous": false,
      "inputs": [
        {
          "indexed": true,
          "internalType": "address",
          "name": "owner",
          "type": "address"
        },
        {
          "indexed": true,
          "internalType": "address",
          "name": "operator",
          "type": "address"
        },
        {
          "indexed": false,
          "internalType": "bool",
          "name": "approved",
          "type": "bool"
        }
      ],
      "name": "ApprovalForAll",
      "type": "event"
    },
    {
      "anonymous": false,
      "inputs": [
        {
          "indexed": true,
          "internalType": "uint256",
          "name": "fromTokenId",
          "type": "uint256"
        },
        {
          "indexed": false,
          "internalType": "uint256",
          "name": "toTokenId",
          "type": "uint256"
        },
        {
          "indexed": true,
          "internalType": "address",
          "name": "from",
          "type": "address"
        },
        {
          "indexed": true,
          "internalType": "address",
          "name": "to",
          "type": "address"
        }
      ],
      "name": "ConsecutiveTransfer",
      "type": "event"
    },
    {
      "anonymous": false,
      "inputs": [
        {
          "indexed": false,
          "internalType": "address",
          "name": "user",
          "type": "address"
        },
        {
          "indexed": false,
          "internalType": "uint256",
          "name": "metadata",
          "type": "uint256"
        }
      ],
      "name": "MintSuccessful",
      "type": "event"
    },
    {
      "anonymous": false,
      "inputs": [
        {
          "indexed": true,
          "internalType": "address",
          "name": "previousOwner",
          "type": "address"
        },
        {
          "indexed": true,
          "internalType": "address",
          "name": "newOwner",
          "type": "address"
        }
      ],
      "name": "OwnershipTransferred",
      "type": "event"
    },
    {
      "anonymous": false,
      "inputs": [
        {
          "indexed": true,
          "internalType": "address",
          "name": "from",
          "type": "address"
        },
        {
          "indexed": true,
          "internalType": "address",
          "name": "to",
          "type": "address"
        },
        {
          "indexed": true,
          "internalType": "uint256",
          "name": "tokenId",
          "type": "uint256"
        }
      ],
      "name": "Transfer",
      "type": "event"
    },
    {
      "inputs": [
        {
          "internalType": "address",
          "name": "to",
          "type": "address"
        },
        {
          "internalType": "uint256",
          "name": "tokenId",
          "type": "uint256"
        }
      ],
      "name": "approve",
      "outputs": [],
      "stateMutability": "nonpayable",
      "type": "function"
    },
    {
      "inputs": [
        {
          "internalType": "address",
          "name": "owner",
          "type": "address"
        }
      ],
      "name": "balanceOf",
      "outputs": [
        {
          "internalType": "uint256",
          "name": "",
          "type": "uint256"
        }
      ],
      "stateMutability": "view",
      "type": "function"
    },
    {
      "inputs": [],
      "name": "baseTokenURI",
      "outputs": [
        {
          "internalType": "string",
          "name": "",
          "type": "string"
        }
      ],
      "stateMutability": "view",
      "type": "function"
    },
    {
      "inputs": [],
      "name": "burnAmount",
      "outputs": [
        {
          "internalType": "uint256",
          "name": "",
          "type": "uint256"
        }
      ],
      "stateMutability": "view",
      "type": "function"
    },
    {
      "inputs": [
        {
          "internalType": "uint256",
          "name": "_tokenId",
          "type": "uint256"
        }
      ],
      "name": "burnFromEquip",
      "outputs": [],
      "stateMutability": "nonpayable",
      "type": "function"
    },
    {
      "inputs": [],
      "name": "contractURI",
      "outputs": [
        {
          "internalType": "string",
          "name": "",
          "type": "string"
        }
      ],
      "stateMutability": "view",
      "type": "function"
    },
    {
      "inputs": [],
      "name": "contractUri",
      "outputs": [
        {
          "internalType": "string",
          "name": "",
          "type": "string"
        }
      ],
      "stateMutability": "view",
      "type": "function"
    },
    {
      "inputs": [
        {
          "internalType": "uint256",
          "name": "tokenId",
          "type": "uint256"
        }
      ],
      "name": "getApproved",
      "outputs": [
        {
          "internalType": "address",
          "name": "",
          "type": "address"
        }
      ],
      "stateMutability": "view",
      "type": "function"
    },
    {
      "inputs": [],
      "name": "getPrice",
      "outputs": [
        {
          "internalType": "uint256",
          "name": "",
          "type": "uint256"
        }
      ],
      "stateMutability": "view",
      "type": "function"
    },
    {
      "inputs": [
        {
          "internalType": "uint256",
          "name": "_tokenId",
          "type": "uint256"
        }
      ],
      "name": "idToMetadata",
      "outputs": [
        {
          "internalType": "uint256",
          "name": "",
          "type": "uint256"
        }
      ],
      "stateMutability": "view",
      "type": "function"
    },
    {
      "inputs": [
        {
          "internalType": "address",
          "name": "owner",
          "type": "address"
        },
        {
          "internalType": "address",
          "name": "operator",
          "type": "address"
        }
      ],
      "name": "isApprovedForAll",
      "outputs": [
        {
          "internalType": "bool",
          "name": "",
          "type": "bool"
        }
      ],
      "stateMutability": "view",
      "type": "function"
    },
    {
      "inputs": [
        {
          "internalType": "uint256",
          "name": "_metadata",
          "type": "uint256"
        }
      ],
      "name": "isOnePercentRarity",
      "outputs": [
        {
          "internalType": "bool",
          "name": "",
          "type": "bool"
        }
      ],
      "stateMutability": "view",
      "type": "function"
    },
    {
      "inputs": [
        {
          "internalType": "uint256",
          "name": "quantity",
          "type": "uint256"
        },
        {
          "internalType": "uint256",
          "name": "_metadataId",
          "type": "uint256"
        }
      ],
      "name": "mint",
      "outputs": [],
      "stateMutability": "payable",
      "type": "function"
    },
    {
      "inputs": [],
      "name": "mintEnabled",
      "outputs": [
        {
          "internalType": "bool",
          "name": "",
          "type": "bool"
        }
      ],
      "stateMutability": "view",
      "type": "function"
    },
    {
      "inputs": [
        {
          "internalType": "address",
          "name": "_user",
          "type": "address"
        },
        {
          "internalType": "bool",
          "name": "_rareOnly",
          "type": "bool"
        }
      ],
      "name": "mintFromBox",
      "outputs": [],
      "stateMutability": "nonpayable",
      "type": "function"
    },
    {
      "inputs": [],
      "name": "name",
      "outputs": [
        {
          "internalType": "string",
          "name": "",
          "type": "string"
        }
      ],
      "stateMutability": "view",
      "type": "function"
    },
    {
      "inputs": [],
      "name": "onePercentRarityAvailable",
      "outputs": [
        {
          "internalType": "bool",
          "name": "",
          "type": "bool"
        }
      ],
      "stateMutability": "view",
      "type": "function"
    },
    {
      "inputs": [],
      "name": "owner",
      "outputs": [
        {
          "internalType": "address",
          "name": "",
          "type": "address"
        }
      ],
      "stateMutability": "view",
      "type": "function"
    },
    {
      "inputs": [
        {
          "internalType": "uint256",
          "name": "tokenId",
          "type": "uint256"
        }
      ],
      "name": "ownerOf",
      "outputs": [
        {
          "internalType": "address",
          "name": "",
          "type": "address"
        }
      ],
      "stateMutability": "view",
      "type": "function"
    },
    {
      "inputs": [],
      "name": "price",
      "outputs": [
        {
          "internalType": "uint256",
          "name": "",
          "type": "uint256"
        }
      ],
      "stateMutability": "view",
      "type": "function"
    },
    {
      "inputs": [],
      "name": "rareFirstId",
      "outputs": [
        {
          "internalType": "uint256",
          "name": "",
          "type": "uint256"
        }
      ],
      "stateMutability": "view",
      "type": "function"
    },
    {
      "inputs": [],
      "name": "rareLastId",
      "outputs": [
        {
          "internalType": "uint256",
          "name": "",
          "type": "uint256"
        }
      ],
      "stateMutability": "view",
      "type": "function"
    },
    {
      "inputs": [
        {
          "internalType": "uint256",
          "name": "",
          "type": "uint256"
        }
      ],
      "name": "remainingEggs",
      "outputs": [
        {
          "internalType": "uint256",
          "name": "",
          "type": "uint256"
        }
      ],
      "stateMutability": "view",
      "type": "function"
    },
    {
      "inputs": [],
      "name": "renounceOwnership",
      "outputs": [],
      "stateMutability": "nonpayable",
      "type": "function"
    },
    {
      "inputs": [
        {
          "internalType": "address",
          "name": "from",
          "type": "address"
        },
        {
          "internalType": "address",
          "name": "to",
          "type": "address"
        },
        {
          "internalType": "uint256",
          "name": "tokenId",
          "type": "uint256"
        }
      ],
      "name": "safeTransferFrom",
      "outputs": [],
      "stateMutability": "nonpayable",
      "type": "function"
    },
    {
      "inputs": [
        {
          "internalType": "address",
          "name": "from",
          "type": "address"
        },
        {
          "internalType": "address",
          "name": "to",
          "type": "address"
        },
        {
          "internalType": "uint256",
          "name": "tokenId",
          "type": "uint256"
        },
        {
          "internalType": "bytes",
          "name": "data",
          "type": "bytes"
        }
      ],
      "name": "safeTransferFrom",
      "outputs": [],
      "stateMutability": "nonpayable",
      "type": "function"
    },
    {
      "inputs": [
        {
          "internalType": "address",
          "name": "operator",
          "type": "address"
        },
        {
          "internalType": "bool",
          "name": "approved",
          "type": "bool"
        }
      ],
      "name": "setApprovalForAll",
      "outputs": [],
      "stateMutability": "nonpayable",
      "type": "function"
    },
    {
      "inputs": [
        {
          "internalType": "address",
          "name": "_address",
          "type": "address"
        }
      ],
      "name": "setBoxAddress",
      "outputs": [],
      "stateMutability": "nonpayable",
      "type": "function"
    },
    {
      "inputs": [
        {
          "internalType": "string",
          "name": "_uri",
          "type": "string"
        }
      ],
      "name": "setContractMetadata",
      "outputs": [],
      "stateMutability": "nonpayable",
      "type": "function"
    },
    {
      "inputs": [
        {
          "internalType": "address",
          "name": "_address",
          "type": "address"
        }
      ],
      "name": "setEquipAddress",
      "outputs": [],
      "stateMutability": "nonpayable",
      "type": "function"
    },
    {
      "inputs": [
        {
          "internalType": "string",
          "name": "_uri",
          "type": "string"
        }
      ],
      "name": "setMetadata",
      "outputs": [],
      "stateMutability": "nonpayable",
      "type": "function"
    },
    {
      "inputs": [
        {
          "internalType": "bool",
          "name": "_state",
          "type": "bool"
        }
      ],
      "name": "setMintEnabled",
      "outputs": [],
      "stateMutability": "nonpayable",
      "type": "function"
    },
    {
      "inputs": [
        {
          "internalType": "uint256",
          "name": "_price",
          "type": "uint256"
        }
      ],
      "name": "setPrice",
      "outputs": [],
      "stateMutability": "nonpayable",
      "type": "function"
    },
    {
      "inputs": [
        {
          "internalType": "uint256",
          "name": "_rareFirstId",
          "type": "uint256"
        }
      ],
      "name": "setRareFirstId",
      "outputs": [],
      "stateMutability": "nonpayable",
      "type": "function"
    },
    {
      "inputs": [
        {
          "internalType": "uint256",
          "name": "_rareLastId",
          "type": "uint256"
        }
      ],
      "name": "setRareLastId",
      "outputs": [],
      "stateMutability": "nonpayable",
      "type": "function"
    },
    {
      "inputs": [
        {
          "internalType": "uint256[]",
          "name": "_remainingEggs",
          "type": "uint256[]"
        }
      ],
      "name": "setRemainingEggs",
      "outputs": [],
      "stateMutability": "nonpayable",
      "type": "function"
    },
    {
      "inputs": [
        {
          "internalType": "bytes4",
          "name": "interfaceId",
          "type": "bytes4"
        }
      ],
      "name": "supportsInterface",
      "outputs": [
        {
          "internalType": "bool",
          "name": "",
          "type": "bool"
        }
      ],
      "stateMutability": "view",
      "type": "function"
    },
    {
      "inputs": [],
      "name": "symbol",
      "outputs": [
        {
          "internalType": "string",
          "name": "",
          "type": "string"
        }
      ],
      "stateMutability": "view",
      "type": "function"
    },
    {
      "inputs": [
        {
          "internalType": "uint256",
          "name": "_tokenId",
          "type": "uint256"
        }
      ],
      "name": "tokenURI",
      "outputs": [
        {
          "internalType": "string",
          "name": "",
          "type": "string"
        }
      ],
      "stateMutability": "view",
      "type": "function"
    },
    {
      "inputs": [],
      "name": "totalSupply",
      "outputs": [
        {
          "internalType": "uint256",
          "name": "",
          "type": "uint256"
        }
      ],
      "stateMutability": "view",
      "type": "function"
    },
    {
      "inputs": [
        {
          "internalType": "address",
          "name": "from",
          "type": "address"
        },
        {
          "internalType": "address",
          "name": "to",
          "type": "address"
        },
        {
          "internalType": "uint256",
          "name": "tokenId",
          "type": "uint256"
        }
      ],
      "name": "transferFrom",
      "outputs": [],
      "stateMutability": "nonpayable",
      "type": "function"
    },
    {
      "inputs": [
        {
          "internalType": "address",
          "name": "newOwner",
          "type": "address"
        }
      ],
      "name": "transferOwnership",
      "outputs": [],
      "stateMutability": "nonpayable",
      "type": "function"
    },
    {
      "inputs": [],
      "name": "uri",
      "outputs": [
        {
          "internalType": "string",
          "name": "",
          "type": "string"
        }
      ],
      "stateMutability": "view",
      "type": "function"
    },
    {
      "inputs": [],
      "name": "uriPrefix",
      "outputs": [
        {
          "internalType": "string",
          "name": "",
          "type": "string"
        }
      ],
      "stateMutability": "view",
      "type": "function"
    },
    {
      "inputs": [],
      "name": "uriSuffix",
      "outputs": [
        {
          "internalType": "string",
          "name": "",
          "type": "string"
        }
      ],
      "stateMutability": "view",
      "type": "function"
    },
    {
      "inputs": [],
      "name": "withdraw",
      "outputs": [],
      "stateMutability": "nonpayable",
      "type": "function"
    }
  ],
  "bytecode": "0x608060405260405180602001604052806000815250600b90805190602001906200002b929190620008bf565b506040518060400160405280600581526020017f2e6a736f6e000000000000000000000000000000000000000000000000000000815250600c908051906020019062000079929190620008bf565b506040518060600160405280603681526020016200510060369139600d9080519060200190620000ab929190620008bf565b506040518060600160405280603681526020016200513660369139600e9080519060200190620000dd929190620008bf565b506019601055601f6011556000601355348015620000fa57600080fd5b50733cc6cdda760b79bafa08df41ecfa224f810dceb660016040518060400160405280600381526020017f45676700000000000000000000000000000000000000000000000000000000008152506040518060400160405280600381526020017f45474700000000000000000000000000000000000000000000000000000000008152506200019e62000192620007ea60201b60201c565b620007f260201b60201c565b8160039080519060200190620001b6929190620008bf565b508060049080519060200190620001cf929190620008bf565b50620001e0620008b660201b60201c565b600181905550505060006daaeb6d7670e522a718067333cd4e73ffffffffffffffffffffffffffffffffffffffff163b1115620003dd578015620002a3576daaeb6d7670e522a718067333cd4e73ffffffffffffffffffffffffffffffffffffffff16637d3e3dbe30846040518363ffffffff1660e01b81526004016200026992919062000a0b565b600060405180830381600087803b1580156200028457600080fd5b505af115801562000299573d6000803e3d6000fd5b50505050620003dc565b600073ffffffffffffffffffffffffffffffffffffffff168273ffffffffffffffffffffffffffffffffffffffff16146200035d576daaeb6d7670e522a718067333cd4e73ffffffffffffffffffffffffffffffffffffffff1663a0af290330846040518363ffffffff1660e01b81526004016200032392919062000a0b565b600060405180830381600087803b1580156200033e57600080fd5b505af115801562000353573d6000803e3d6000fd5b50505050620003db565b6daaeb6d7670e522a718067333cd4e73ffffffffffffffffffffffffffffffffffffffff16634420e486306040518263ffffffff1660e01b8152600401620003a6919062000a38565b600060405180830381600087803b158015620003c157600080fd5b505af1158015620003d6573d6000803e3d6000fd5b505050505b5b5b505060405180610c800160405280600160ff168152602001600160ff168152602001600160ff168152602001600160ff168152602001600160ff168152602001600160ff168152602001600160ff168152602001600160ff168152602001600160ff168152602001600160ff168152602001600160ff168152602001600160ff168152602001600160ff168152602001600260ff168152602001600260ff168152602001600260ff168152602001600260ff168152602001600260ff168152602001600260ff168152602001600260ff168152602001600260ff168152602001600260ff168152602001600260ff168152602001600360ff168152602001600360ff168152602001600360ff168152602001600360ff168152602001600360ff168152602001600460ff168152602001600460ff168152602001600460ff168152602001600460ff168152602001600460ff168152602001600560ff168152602001600560ff168152602001600560ff168152602001600660ff168152602001600660ff168152602001600660ff168152602001600760ff168152602001600760ff168152602001600760ff168152602001600860ff168152602001600860ff168152602001600860ff168152602001600960ff168152602001600960ff168152602001600960ff168152602001600a60ff168152602001600a60ff168152602001600a60ff168152602001600b60ff168152602001600b60ff168152602001600b60ff168152602001600c60ff168152602001600c60ff168152602001600c60ff168152602001600d60ff168152602001600d60ff168152602001600d60ff168152602001600e60ff168152602001600e60ff168152602001600e60ff168152602001600f60ff168152602001600f60ff168152602001600f60ff168152602001601060ff168152602001601060ff168152602001601060ff168152602001601160ff168152602001601160ff168152602001601160ff168152602001601260ff168152602001601260ff168152602001601260ff168152602001601360ff168152602001601360ff168152602001601360ff168152602001601460ff168152602001601460ff168152602001601460ff168152602001601560ff168152602001601560ff168152602001601560ff168152602001601660ff168152602001601660ff168152602001601660ff168152602001601760ff168152602001601760ff168152602001601760ff168152602001601860ff168152602001601860ff168152602001601860ff168152602001601960ff168152602001601a60ff168152602001601b60ff168152602001601c60ff168152602001601d60ff168152602001601e60ff168152602001601f60ff168152506014906064620007e392919062000950565b5062000ab9565b600033905090565b60008060009054906101000a900473ffffffffffffffffffffffffffffffffffffffff169050816000806101000a81548173ffffffffffffffffffffffffffffffffffffffff021916908373ffffffffffffffffffffffffffffffffffffffff1602179055508173ffffffffffffffffffffffffffffffffffffffff168173ffffffffffffffffffffffffffffffffffffffff167f8be0079c531659141344cd1fd0a4f28419497f9722a3daafe3b4186f6b6457e060405160405180910390a35050565b60006001905090565b828054620008cd9062000a84565b90600052602060002090601f016020900481019282620008f157600085556200093d565b82601f106200090c57805160ff19168380011785556200093d565b828001600101855582156200093d579182015b828111156200093c5782518255916020019190600101906200091f565b5b5090506200094c9190620009a7565b5090565b82805482825590600052602060002090810192821562000994579160200282015b8281111562000993578251829060ff1690559160200191906001019062000971565b5b509050620009a39190620009a7565b5090565b5b80821115620009c2576000816000905550600101620009a8565b5090565b600073ffffffffffffffffffffffffffffffffffffffff82169050919050565b6000620009f382620009c6565b9050919050565b62000a0581620009e6565b82525050565b600060408201905062000a226000830185620009fa565b62000a316020830184620009fa565b9392505050565b600060208201905062000a4f6000830184620009fa565b92915050565b7f4e487b7100000000000000000000000000000000000000000000000000000000600052602260045260246000fd5b6000600282049050600182168062000a9d57607f821691505b60208210810362000ab35762000ab262000a55565b5b50919050565b6146378062000ac96000396000f3fe60806040526004361061027d5760003560e01c806395d89b411161014f578063d1239730116100c1578063e985e9c51161007a578063e985e9c514610965578063eac989f8146109a2578063f2fde38b146109cd578063f307101a146109f6578063f46a04eb14610a33578063fce5503714610a5c5761027d565b8063d123973014610867578063d547cfb714610892578063dc5eb76d146108bd578063e59d0581146108e8578063e5fcc53514610911578063e8a3d4851461093a5761027d565b8063a49a1e7d11610113578063a49a1e7d1461075b578063afa20f5414610784578063b88d4fde146107ad578063c0e24d5e146107d6578063c254cc7b14610801578063c87b56dd1461082a5761027d565b806395d89b411461067457806398d5fdca1461069f5780639ec268bd146106ca578063a035b1fe14610707578063a22cb465146107325761027d565b806342842e0e116101f35780636437785f116101ac5780636437785f1461057857806370a08231146105a1578063715018a6146105de57806379654701146105f55780638da5cb5b1461062057806391b7f5ed1461064b5761027d565b806342842e0e14610466578063486a7e6b1461048f5780635503a0e8146104ba5780635aba27af146104e557806362b99ad4146105105780636352211e1461053b5761027d565b806318160ddd1161024557806318160ddd146103795780631b2ef1ca146103a457806323b872dd146103c05780632bf7e4cf146103e95780633a34c480146104125780633ccfd60b1461044f5761027d565b806301ffc9a71461028257806304b5085e146102bf57806306fdde03146102e8578063081812fc14610313578063095ea7b314610350575b600080fd5b34801561028e57600080fd5b506102a960048036038101906102a491906133ac565b610a85565b6040516102b691906133f4565b60405180910390f35b3480156102cb57600080fd5b506102e660048036038101906102e19190613445565b610b17565b005b3480156102f457600080fd5b506102fd610bb3565b60405161030a919061350b565b60405180910390f35b34801561031f57600080fd5b5061033a60048036038101906103359190613445565b610c45565b604051610347919061356e565b60405180910390f35b34801561035c57600080fd5b50610377600480360381019061037291906135b5565b610cc4565b005b34801561038557600080fd5b5061038e610e08565b60405161039b9190613604565b60405180910390f35b6103be60048036038101906103b9919061361f565b610e1f565b005b3480156103cc57600080fd5b506103e760048036038101906103e2919061365f565b610f52565b005b3480156103f557600080fd5b50610410600480360381019061040b91906136de565b611134565b005b34801561041e57600080fd5b5061043960048036038101906104349190613445565b6114ae565b60405161044691906133f4565b60405180910390f35b34801561045b57600080fd5b506104646114cb565b005b34801561047257600080fd5b5061048d6004803603810190610488919061365f565b61151c565b005b34801561049b57600080fd5b506104a46116fe565b6040516104b19190613604565b60405180910390f35b3480156104c657600080fd5b506104cf611704565b6040516104dc919061350b565b60405180910390f35b3480156104f157600080fd5b506104fa611792565b60405161050791906133f4565b60405180910390f35b34801561051c57600080fd5b506105256117f4565b604051610532919061350b565b60405180910390f35b34801561054757600080fd5b50610562600480360381019061055d9190613445565b611882565b60405161056f919061356e565b60405180910390f35b34801561058457600080fd5b5061059f600480360381019061059a9190613445565b611894565b005b3480156105ad57600080fd5b506105c860048036038101906105c3919061371e565b6118a6565b6040516105d59190613604565b60405180910390f35b3480156105ea57600080fd5b506105f361195e565b005b34801561060157600080fd5b5061060a611972565b6040516106179190613604565b60405180910390f35b34801561062c57600080fd5b50610635611978565b604051610642919061356e565b60405180910390f35b34801561065757600080fd5b50610672600480360381019061066d9190613445565b6119a1565b005b34801561068057600080fd5b506106896119b3565b604051610696919061350b565b60405180910390f35b3480156106ab57600080fd5b506106b4611a45565b6040516106c19190613604565b60405180910390f35b3480156106d657600080fd5b506106f160048036038101906106ec9190613445565b611a4f565b6040516106fe9190613604565b60405180910390f35b34801561071357600080fd5b5061071c611a73565b6040516107299190613604565b60405180910390f35b34801561073e57600080fd5b50610759600480360381019061075491906136de565b611a79565b005b34801561076757600080fd5b50610782600480360381019061077d9190613880565b611bf0565b005b34801561079057600080fd5b506107ab60048036038101906107a6919061371e565b611c12565b005b3480156107b957600080fd5b506107d460048036038101906107cf919061396a565b611c5e565b005b3480156107e257600080fd5b506107eb611e43565b6040516107f8919061350b565b60405180910390f35b34801561080d57600080fd5b506108286004803603810190610823919061371e565b611ed1565b005b34801561083657600080fd5b50610851600480360381019061084c9190613445565b611f1d565b60405161085e919061350b565b60405180910390f35b34801561087357600080fd5b5061087c611fda565b60405161088991906133f4565b60405180910390f35b34801561089e57600080fd5b506108a7611fed565b6040516108b4919061350b565b60405180910390f35b3480156108c957600080fd5b506108d2611ffc565b6040516108df9190613604565b60405180910390f35b3480156108f457600080fd5b5061090f600480360381019061090a9190613ab5565b612002565b005b34801561091d57600080fd5b5061093860048036038101906109339190613445565b612032565b005b34801561094657600080fd5b5061094f612044565b60405161095c919061350b565b60405180910390f35b34801561097157600080fd5b5061098c60048036038101906109879190613afe565b6120d6565b60405161099991906133f4565b60405180910390f35b3480156109ae57600080fd5b506109b761216a565b6040516109c4919061350b565b60405180910390f35b3480156109d957600080fd5b506109f460048036038101906109ef919061371e565b6121f8565b005b348015610a0257600080fd5b50610a1d6004803603810190610a189190613445565b61227b565b604051610a2a9190613604565b60405180910390f35b348015610a3f57600080fd5b50610a5a6004803603810190610a559190613b3e565b612298565b005b348015610a6857600080fd5b50610a836004803603810190610a7e9190613880565b6122bd565b005b60006301ffc9a760e01b827bffffffffffffffffffffffffffffffffffffffffffffffffffffffff19161480610ae057506380ac58cd60e01b827bffffffffffffffffffffffffffffffffffffffffffffffffffffffff1916145b80610b105750635b5e139f60e01b827bffffffffffffffffffffffffffffffffffffffffffffffffffffffff1916145b9050919050565b600a60009054906101000a900473ffffffffffffffffffffffffffffffffffffffff1673ffffffffffffffffffffffffffffffffffffffff163373ffffffffffffffffffffffffffffffffffffffff1614610ba7576040517f08c379a0000000000000000000000000000000000000000000000000000000008152600401610b9e90613bdd565b60405180910390fd5b610bb0816122df565b50565b606060038054610bc290613c2c565b80601f0160208091040260200160405190810160405280929190818152602001828054610bee90613c2c565b8015610c3b5780601f10610c1057610100808354040283529160200191610c3b565b820191906000526020600020905b815481529060010190602001808311610c1e57829003601f168201915b5050505050905090565b6000610c50826122ed565b610c86576040517fcf4700e400000000000000000000000000000000000000000000000000000000815260040160405180910390fd5b6007600083815260200190815260200160002060000160009054906101000a900473ffffffffffffffffffffffffffffffffffffffff169050919050565b6000610ccf82611882565b90508073ffffffffffffffffffffffffffffffffffffffff16610cf061234c565b73ffffffffffffffffffffffffffffffffffffffff1614610d5357610d1c81610d1761234c565b6120d6565b610d52576040517fcfb3b94200000000000000000000000000000000000000000000000000000000815260040160405180910390fd5b5b826007600084815260200190815260200160002060000160006101000a81548173ffffffffffffffffffffffffffffffffffffffff021916908373ffffffffffffffffffffffffffffffffffffffff160217905550818373ffffffffffffffffffffffffffffffffffffffff168273ffffffffffffffffffffffffffffffffffffffff167f8c5be1e5ebec7d5bd14f71427d1e84f3dd0314c0f7b2291e5b200ac8c7c3b92560405160405180910390a4505050565b6000610e12612354565b6002546001540303905090565b601260009054906101000a900460ff16610e6e576040517f08c379a0000000000000000000000000000000000000000000000000000000008152600401610e6590613ca9565b60405180910390fd5b600060148054905011610eb6576040517f08c379a0000000000000000000000000000000000000000000000000000000008152600401610ead90613d15565b60405180910390fd5b81610ebf611a45565b610ec99190613d64565b341015610f0b576040517f08c379a0000000000000000000000000000000000000000000000000000000008152600401610f0290613e30565b60405180910390fd5b610f15338361235d565b7f76020ece75bf679c701e656fcffc7e3df8354859b3b0eb7fee42b1378023bb313382604051610f46929190613e50565b60405180910390a15050565b8260006daaeb6d7670e522a718067333cd4e73ffffffffffffffffffffffffffffffffffffffff163b1115611122573373ffffffffffffffffffffffffffffffffffffffff168173ffffffffffffffffffffffffffffffffffffffff1603610fc457610fbf848484612519565b61112e565b6daaeb6d7670e522a718067333cd4e73ffffffffffffffffffffffffffffffffffffffff1663c617113430336040518363ffffffff1660e01b815260040161100d929190613e79565b602060405180830381865afa15801561102a573d6000803e3d6000fd5b505050506040513d601f19601f8201168201806040525081019061104e9190613eb7565b80156110e057506daaeb6d7670e522a718067333cd4e73ffffffffffffffffffffffffffffffffffffffff1663c617113430836040518363ffffffff1660e01b815260040161109e929190613e79565b602060405180830381865afa1580156110bb573d6000803e3d6000fd5b505050506040513d601f19601f820116820180604052508101906110df9190613eb7565b5b61112157336040517fede71dcc000000000000000000000000000000000000000000000000000000008152600401611118919061356e565b60405180910390fd5b5b61112d848484612519565b5b50505050565b600960009054906101000a900473ffffffffffffffffffffffffffffffffffffffff1673ffffffffffffffffffffffffffffffffffffffff163373ffffffffffffffffffffffffffffffffffffffff16146111c4576040517f08c379a00000000000000000000000000000000000000000000000000000000081526004016111bb90613f56565b60405180910390fd5b60006014805490501161120c576040517f08c379a000000000000000000000000000000000000000000000000000000000815260040161120390613d15565b60405180910390fd5b3273ffffffffffffffffffffffffffffffffffffffff168273ffffffffffffffffffffffffffffffffffffffff161461127a576040517f08c379a000000000000000000000000000000000000000000000000000000000815260040161127190613fc2565b60405180910390fd5b80801561128c575061128a611792565b155b156112cc576040517f08c379a00000000000000000000000000000000000000000000000000000000081526004016112c390614054565b60405180910390fd5b60006112d661283b565b6001436112e39190614074565b40446040516020016112f79392919061413c565b6040516020818303038152906040528051906020012060001c9050600060148054905090508215611398576000805b8281101561136d576113556014828154811061134557611344614179565b5b90600052602060002001546114ae565b156113625780915061136d565b806001019050611326565b50808261137a9190614074565b8361138591906141d7565b816113909190614208565b9250506113a7565b80826113a491906141d7565b91505b6000601483815481106113bd576113bc614179565b5b906000526020600020015490506113d585600161235d565b80601560006113e2612843565b815260200190815260200160002081905550601460016014805490506114089190614074565b8154811061141957611418614179565b5b90600052602060002001546014848154811061143857611437614179565b5b906000526020600020018190555060148054806114585761145761425e565b5b600190038181906000526020600020016000905590557f76020ece75bf679c701e656fcffc7e3df8354859b3b0eb7fee42b1378023bb31858260405161149f929190613e50565b60405180910390a15050505050565b600060105482101580156114c457506011548211155b9050919050565b6114d3612856565b3373ffffffffffffffffffffffffffffffffffffffff166108fc479081150290604051600060405180830381858888f19350505050158015611519573d6000803e3d6000fd5b50565b8260006daaeb6d7670e522a718067333cd4e73ffffffffffffffffffffffffffffffffffffffff163b11156116ec573373ffffffffffffffffffffffffffffffffffffffff168173ffffffffffffffffffffffffffffffffffffffff160361158e576115898484846128d4565b6116f8565b6daaeb6d7670e522a718067333cd4e73ffffffffffffffffffffffffffffffffffffffff1663c617113430336040518363ffffffff1660e01b81526004016115d7929190613e79565b602060405180830381865afa1580156115f4573d6000803e3d6000fd5b505050506040513d601f19601f820116820180604052508101906116189190613eb7565b80156116aa57506daaeb6d7670e522a718067333cd4e73ffffffffffffffffffffffffffffffffffffffff1663c617113430836040518363ffffffff1660e01b8152600401611668929190613e79565b602060405180830381865afa158015611685573d6000803e3d6000fd5b505050506040513d601f19601f820116820180604052508101906116a99190613eb7565b5b6116eb57336040517fede71dcc0000000000000000000000000000000000000000000000000000000081526004016116e2919061356e565b60405180910390fd5b5b6116f78484846128d4565b5b50505050565b600f5481565b600c805461171190613c2c565b80601f016020809104026020016040519081016040528092919081815260200182805461173d90613c2c565b801561178a5780601f1061175f5761010080835404028352916020019161178a565b820191906000526020600020905b81548152906001019060200180831161176d57829003601f168201915b505050505081565b600080601480549050905060005b818110156117ea576117cf601482815481106117bf576117be614179565b5b90600052602060002001546114ae565b156117df576001925050506117f1565b8060010190506117a0565b5060009150505b90565b600b805461180190613c2c565b80601f016020809104026020016040519081016040528092919081815260200182805461182d90613c2c565b801561187a5780601f1061184f5761010080835404028352916020019161187a565b820191906000526020600020905b81548152906001019060200180831161185d57829003601f168201915b505050505081565b600061188d826128f4565b9050919050565b61189c612856565b8060108190555050565b60008073ffffffffffffffffffffffffffffffffffffffff168273ffffffffffffffffffffffffffffffffffffffff160361190d576040517f8f4eb60400000000000000000000000000000000000000000000000000000000815260040160405180910390fd5b67ffffffffffffffff600660008473ffffffffffffffffffffffffffffffffffffffff1673ffffffffffffffffffffffffffffffffffffffff16815260200190815260200160002054169050919050565b611966612856565b61197060006129c0565b565b60105481565b60008060009054906101000a900473ffffffffffffffffffffffffffffffffffffffff16905090565b6119a9612856565b8060138190555050565b6060600480546119c290613c2c565b80601f01602080910402602001604051908101604052809291908181526020018280546119ee90613c2c565b8015611a3b5780601f10611a1057610100808354040283529160200191611a3b565b820191906000526020600020905b815481529060010190602001808311611a1e57829003601f168201915b5050505050905090565b6000601354905090565b60148181548110611a5f57600080fd5b906000526020600020016000915090505481565b60135481565b611a8161234c565b73ffffffffffffffffffffffffffffffffffffffff168273ffffffffffffffffffffffffffffffffffffffff1603611ae5576040517fb06307db00000000000000000000000000000000000000000000000000000000815260040160405180910390fd5b8060086000611af261234c565b73ffffffffffffffffffffffffffffffffffffffff1673ffffffffffffffffffffffffffffffffffffffff16815260200190815260200160002060008473ffffffffffffffffffffffffffffffffffffffff1673ffffffffffffffffffffffffffffffffffffffff16815260200190815260200160002060006101000a81548160ff0219169083151502179055508173ffffffffffffffffffffffffffffffffffffffff16611b9f61234c565b73ffffffffffffffffffffffffffffffffffffffff167f17307eab39ab6107e8899845ad3d59bd9653f200f220920489ca2b5937696c3183604051611be491906133f4565b60405180910390a35050565b611bf8612856565b80600d9080519060200190611c0e92919061322f565b5050565b611c1a612856565b80600a60006101000a81548173ffffffffffffffffffffffffffffffffffffffff021916908373ffffffffffffffffffffffffffffffffffffffff16021790555050565b8360006daaeb6d7670e522a718067333cd4e73ffffffffffffffffffffffffffffffffffffffff163b1115611e2f573373ffffffffffffffffffffffffffffffffffffffff168173ffffffffffffffffffffffffffffffffffffffff1603611cd157611ccc85858585612a84565b611e3c565b6daaeb6d7670e522a718067333cd4e73ffffffffffffffffffffffffffffffffffffffff1663c617113430336040518363ffffffff1660e01b8152600401611d1a929190613e79565b602060405180830381865afa158015611d37573d6000803e3d6000fd5b505050506040513d601f19601f82011682018060405250810190611d5b9190613eb7565b8015611ded57506daaeb6d7670e522a718067333cd4e73ffffffffffffffffffffffffffffffffffffffff1663c617113430836040518363ffffffff1660e01b8152600401611dab929190613e79565b602060405180830381865afa158015611dc8573d6000803e3d6000fd5b505050506040513d601f19601f82011682018060405250810190611dec9190613eb7565b5b611e2e57336040517fede71dcc000000000000000000000000000000000000000000000000000000008152600401611e25919061356e565b60405180910390fd5b5b611e3b85858585612a84565b5b5050505050565b600e8054611e5090613c2c565b80601f0160208091040260200160405190810160405280929190818152602001828054611e7c90613c2c565b8015611ec95780601f10611e9e57610100808354040283529160200191611ec9565b820191906000526020600020905b815481529060010190602001808311611eac57829003601f168201915b505050505081565b611ed9612856565b80600960006101000a81548173ffffffffffffffffffffffffffffffffffffffff021916908373ffffffffffffffffffffffffffffffffffffffff16021790555050565b6060611f28826122ed565b611f67576040517f08c379a0000000000000000000000000000000000000000000000000000000008152600401611f5e906142ff565b60405180910390fd5b6000611f71612af7565b90506000815111611f915760405180602001604052806000815250611fd2565b80611fae6015600086815260200190815260200160002054612b89565b600c604051602001611fc2939291906143ef565b6040516020818303038152906040525b915050919050565b601260009054906101000a900460ff1681565b6060611ff7612af7565b905090565b60115481565b61200a612856565b6014600061201891906132b5565b806014908051906020019061202e9291906132d6565b5050565b61203a612856565b8060118190555050565b6060600e805461205390613c2c565b80601f016020809104026020016040519081016040528092919081815260200182805461207f90613c2c565b80156120cc5780601f106120a1576101008083540402835291602001916120cc565b820191906000526020600020905b8154815290600101906020018083116120af57829003601f168201915b5050505050905090565b6000600860008473ffffffffffffffffffffffffffffffffffffffff1673ffffffffffffffffffffffffffffffffffffffff16815260200190815260200160002060008373ffffffffffffffffffffffffffffffffffffffff1673ffffffffffffffffffffffffffffffffffffffff16815260200190815260200160002060009054906101000a900460ff16905092915050565b600d805461217790613c2c565b80601f01602080910402602001604051908101604052809291908181526020018280546121a390613c2c565b80156121f05780601f106121c5576101008083540402835291602001916121f0565b820191906000526020600020905b8154815290600101906020018083116121d357829003601f168201915b505050505081565b612200612856565b600073ffffffffffffffffffffffffffffffffffffffff168173ffffffffffffffffffffffffffffffffffffffff160361226f576040517f08c379a000000000000000000000000000000000000000000000000000000000815260040161226690614492565b60405180910390fd5b612278816129c0565b50565b600060156000838152602001908152602001600020549050919050565b6122a0612856565b80601260006101000a81548160ff02191690831515021790555050565b6122c5612856565b80600e90805190602001906122db92919061322f565b5050565b6122ea816000612c57565b50565b6000816122f8612354565b11158015612307575060015482105b8015612345575060007c0100000000000000000000000000000000000000000000000000000000600560008581526020019081526020016000205416145b9050919050565b600033905090565b60006001905090565b600060015490506000820361239e576040517fb562e8dd00000000000000000000000000000000000000000000000000000000815260040160405180910390fd5b6123ab6000848385612ea9565b600160406001901b178202600660008573ffffffffffffffffffffffffffffffffffffffff1673ffffffffffffffffffffffffffffffffffffffff16815260200190815260200160002060008282540192505081905550612422836124136000866000612eaf565b61241c85612ed7565b17612ee7565b6005600083815260200190815260200160002081905550600080838301905073ffffffffffffffffffffffffffffffffffffffff85169150828260007fddf252ad1be2c89b69c2b068fc378daa952ba7f163c4a11628f55a4df523b3ef600080a4600183015b8181146124c357808360007fddf252ad1be2c89b69c2b068fc378daa952ba7f163c4a11628f55a4df523b3ef600080a4600181019050612488565b50600082036124fe576040517f2e07630000000000000000000000000000000000000000000000000000000000815260040160405180910390fd5b8060018190555050506125146000848385612f12565b505050565b6000612524826128f4565b90508373ffffffffffffffffffffffffffffffffffffffff168173ffffffffffffffffffffffffffffffffffffffff161461258b576040517fa114810000000000000000000000000000000000000000000000000000000000815260040160405180910390fd5b60008061259784612f18565b915091506125ad81876125a861234c565b612f3f565b6125f9576125c2866125bd61234c565b6120d6565b6125f8576040517f59c896be00000000000000000000000000000000000000000000000000000000815260040160405180910390fd5b5b600073ffffffffffffffffffffffffffffffffffffffff168573ffffffffffffffffffffffffffffffffffffffff160361265f576040517fea553b3400000000000000000000000000000000000000000000000000000000815260040160405180910390fd5b61266c8686866001612ea9565b801561267757600082555b600660008773ffffffffffffffffffffffffffffffffffffffff1673ffffffffffffffffffffffffffffffffffffffff168152602001908152602001600020600081546001900391905081905550600660008673ffffffffffffffffffffffffffffffffffffffff1673ffffffffffffffffffffffffffffffffffffffff168152602001908152602001600020600081546001019190508190555061274585612721888887612eaf565b7c020000000000000000000000000000000000000000000000000000000017612ee7565b600560008681526020019081526020016000208190555060007c02000000000000000000000000000000000000000000000000000000008416036127cb57600060018501905060006005600083815260200190815260200160002054036127c95760015481146127c8578360056000838152602001908152602001600020819055505b5b505b838573ffffffffffffffffffffffffffffffffffffffff168773ffffffffffffffffffffffffffffffffffffffff167fddf252ad1be2c89b69c2b068fc378daa952ba7f163c4a11628f55a4df523b3ef60405160405180910390a46128338686866001612f12565b505050505050565b600033905090565b600061284d612354565b60015403905090565b61285e61283b565b73ffffffffffffffffffffffffffffffffffffffff1661287c611978565b73ffffffffffffffffffffffffffffffffffffffff16146128d2576040517f08c379a00000000000000000000000000000000000000000000000000000000081526004016128c9906144fe565b60405180910390fd5b565b6128ef83838360405180602001604052806000815250611c5e565b505050565b60008082905080612903612354565b11612989576001548110156129885760006005600083815260200190815260200160002054905060007c0100000000000000000000000000000000000000000000000000000000821603612986575b6000810361297c576005600083600190039350838152602001908152602001600020549050612952565b80925050506129bb565b505b5b6040517fdf2d9b4200000000000000000000000000000000000000000000000000000000815260040160405180910390fd5b919050565b60008060009054906101000a900473ffffffffffffffffffffffffffffffffffffffff169050816000806101000a81548173ffffffffffffffffffffffffffffffffffffffff021916908373ffffffffffffffffffffffffffffffffffffffff1602179055508173ffffffffffffffffffffffffffffffffffffffff168173ffffffffffffffffffffffffffffffffffffffff167f8be0079c531659141344cd1fd0a4f28419497f9722a3daafe3b4186f6b6457e060405160405180910390a35050565b612a8f848484610f52565b60008373ffffffffffffffffffffffffffffffffffffffff163b14612af157612aba84848484612f83565b612af0576040517fd1a57ed600000000000000000000000000000000000000000000000000000000815260040160405180910390fd5b5b50505050565b6060600d8054612b0690613c2c565b80601f0160208091040260200160405190810160405280929190818152602001828054612b3290613c2c565b8015612b7f5780601f10612b5457610100808354040283529160200191612b7f565b820191906000526020600020905b815481529060010190602001808311612b6257829003601f168201915b5050505050905090565b606060006001612b98846130d3565b01905060008167ffffffffffffffff811115612bb757612bb6613755565b5b6040519080825280601f01601f191660200182016040528015612be95781602001600182028036833780820191505090505b509050600082602001820190505b600115612c4c578080600190039150507f3031323334353637383961626364656600000000000000000000000000000000600a86061a8153600a8581612c4057612c3f6141a8565b5b04945060008503612bf7575b819350505050919050565b6000612c62836128f4565b90506000819050600080612c7586612f18565b915091508415612cde57612c918184612c8c61234c565b612f3f565b612cdd57612ca683612ca161234c565b6120d6565b612cdc576040517f59c896be00000000000000000000000000000000000000000000000000000000815260040160405180910390fd5b5b5b612cec836000886001612ea9565b8015612cf757600082555b600160806001901b03600660008573ffffffffffffffffffffffffffffffffffffffff1673ffffffffffffffffffffffffffffffffffffffff16815260200190815260200160002060008282540192505081905550612d9f83612d5c85600088612eaf565b7c02000000000000000000000000000000000000000000000000000000007c01000000000000000000000000000000000000000000000000000000001717612ee7565b600560008881526020019081526020016000208190555060007c0200000000000000000000000000000000000000000000000000000000851603612e255760006001870190506000600560008381526020019081526020016000205403612e23576001548114612e22578460056000838152602001908152602001600020819055505b5b505b85600073ffffffffffffffffffffffffffffffffffffffff168473ffffffffffffffffffffffffffffffffffffffff167fddf252ad1be2c89b69c2b068fc378daa952ba7f163c4a11628f55a4df523b3ef60405160405180910390a4612e8f836000886001612f12565b600260008154809291906001019190505550505050505050565b50505050565b60008060e883901c905060e8612ec6868684613226565b62ffffff16901b9150509392505050565b60006001821460e11b9050919050565b600073ffffffffffffffffffffffffffffffffffffffff83169250814260a01b178317905092915050565b50505050565b60008060006007600085815260200190815260200160002090508092508254915050915091565b600073ffffffffffffffffffffffffffffffffffffffff8316925073ffffffffffffffffffffffffffffffffffffffff821691508382148383141790509392505050565b60008373ffffffffffffffffffffffffffffffffffffffff1663150b7a02612fa961234c565b8786866040518563ffffffff1660e01b8152600401612fcb9493929190614573565b6020604051808303816000875af192505050801561300757506040513d601f19601f8201168201806040525081019061300491906145d4565b60015b613080573d8060008114613037576040519150601f19603f3d011682016040523d82523d6000602084013e61303c565b606091505b506000815103613078576040517fd1a57ed600000000000000000000000000000000000000000000000000000000815260040160405180910390fd5b805181602001fd5b63150b7a0260e01b7bffffffffffffffffffffffffffffffffffffffffffffffffffffffff1916817bffffffffffffffffffffffffffffffffffffffffffffffffffffffff191614915050949350505050565b600080600090507a184f03e93ff9f4daa797ed6e38ed64bf6a1f0100000000000000008310613131577a184f03e93ff9f4daa797ed6e38ed64bf6a1f0100000000000000008381613127576131266141a8565b5b0492506040810190505b6d04ee2d6d415b85acef8100000000831061316e576d04ee2d6d415b85acef81000000008381613164576131636141a8565b5b0492506020810190505b662386f26fc10000831061319d57662386f26fc100008381613193576131926141a8565b5b0492506010810190505b6305f5e10083106131c6576305f5e10083816131bc576131bb6141a8565b5b0492506008810190505b61271083106131eb5761271083816131e1576131e06141a8565b5b0492506004810190505b6064831061320e5760648381613204576132036141a8565b5b0492506002810190505b600a831061321d576001810190505b80915050919050565b60009392505050565b82805461323b90613c2c565b90600052602060002090601f01602090048101928261325d57600085556132a4565b82601f1061327657805160ff19168380011785556132a4565b828001600101855582156132a4579182015b828111156132a3578251825591602001919060010190613288565b5b5090506132b19190613323565b5090565b50805460008255906000526020600020908101906132d39190613323565b50565b828054828255906000526020600020908101928215613312579160200282015b828111156133115782518255916020019190600101906132f6565b5b50905061331f9190613323565b5090565b5b8082111561333c576000816000905550600101613324565b5090565b6000604051905090565b600080fd5b600080fd5b60007fffffffff0000000000000000000000000000000000000000000000000000000082169050919050565b61338981613354565b811461339457600080fd5b50565b6000813590506133a681613380565b92915050565b6000602082840312156133c2576133c161334a565b5b60006133d084828501613397565b91505092915050565b60008115159050919050565b6133ee816133d9565b82525050565b600060208201905061340960008301846133e5565b92915050565b6000819050919050565b6134228161340f565b811461342d57600080fd5b50565b60008135905061343f81613419565b92915050565b60006020828403121561345b5761345a61334a565b5b600061346984828501613430565b91505092915050565b600081519050919050565b600082825260208201905092915050565b60005b838110156134ac578082015181840152602081019050613491565b838111156134bb576000848401525b50505050565b6000601f19601f8301169050919050565b60006134dd82613472565b6134e7818561347d565b93506134f781856020860161348e565b613500816134c1565b840191505092915050565b6000602082019050818103600083015261352581846134d2565b905092915050565b600073ffffffffffffffffffffffffffffffffffffffff82169050919050565b60006135588261352d565b9050919050565b6135688161354d565b82525050565b6000602082019050613583600083018461355f565b92915050565b6135928161354d565b811461359d57600080fd5b50565b6000813590506135af81613589565b92915050565b600080604083850312156135cc576135cb61334a565b5b60006135da858286016135a0565b92505060206135eb85828601613430565b9150509250929050565b6135fe8161340f565b82525050565b600060208201905061361960008301846135f5565b92915050565b600080604083850312156136365761363561334a565b5b600061364485828601613430565b925050602061365585828601613430565b9150509250929050565b6000806000606084860312156136785761367761334a565b5b6000613686868287016135a0565b9350506020613697868287016135a0565b92505060406136a886828701613430565b9150509250925092565b6136bb816133d9565b81146136c657600080fd5b50565b6000813590506136d8816136b2565b92915050565b600080604083850312156136f5576136f461334a565b5b6000613703858286016135a0565b9250506020613714858286016136c9565b9150509250929050565b6000602082840312156137345761373361334a565b5b6000613742848285016135a0565b91505092915050565b600080fd5b600080fd5b7f4e487b7100000000000000000000000000000000000000000000000000000000600052604160045260246000fd5b61378d826134c1565b810181811067ffffffffffffffff821117156137ac576137ab613755565b5b80604052505050565b60006137bf613340565b90506137cb8282613784565b919050565b600067ffffffffffffffff8211156137eb576137ea613755565b5b6137f4826134c1565b9050602081019050919050565b82818337600083830152505050565b600061382361381e846137d0565b6137b5565b90508281526020810184848401111561383f5761383e613750565b5b61384a848285613801565b509392505050565b600082601f8301126138675761386661374b565b5b8135613877848260208601613810565b91505092915050565b6000602082840312156138965761389561334a565b5b600082013567ffffffffffffffff8111156138b4576138b361334f565b5b6138c084828501613852565b91505092915050565b600067ffffffffffffffff8211156138e4576138e3613755565b5b6138ed826134c1565b9050602081019050919050565b600061390d613908846138c9565b6137b5565b90508281526020810184848401111561392957613928613750565b5b613934848285613801565b509392505050565b600082601f8301126139515761395061374b565b5b81356139618482602086016138fa565b91505092915050565b600080600080608085870312156139845761398361334a565b5b6000613992878288016135a0565b94505060206139a3878288016135a0565b93505060406139b487828801613430565b925050606085013567ffffffffffffffff8111156139d5576139d461334f565b5b6139e18782880161393c565b91505092959194509250565b600067ffffffffffffffff821115613a0857613a07613755565b5b602082029050602081019050919050565b600080fd5b6000613a31613a2c846139ed565b6137b5565b90508083825260208201905060208402830185811115613a5457613a53613a19565b5b835b81811015613a7d5780613a698882613430565b845260208401935050602081019050613a56565b5050509392505050565b600082601f830112613a9c57613a9b61374b565b5b8135613aac848260208601613a1e565b91505092915050565b600060208284031215613acb57613aca61334a565b5b600082013567ffffffffffffffff811115613ae957613ae861334f565b5b613af584828501613a87565b91505092915050565b60008060408385031215613b1557613b1461334a565b5b6000613b23858286016135a0565b9250506020613b34858286016135a0565b9150509250929050565b600060208284031215613b5457613b5361334a565b5b6000613b62848285016136c9565b91505092915050565b7f4f6e6c792074686520457175697020736d61727420636f6e747261637420636160008201527f6e206275726e2066726f6d206571756970000000000000000000000000000000602082015250565b6000613bc760318361347d565b9150613bd282613b6b565b604082019050919050565b60006020820190508181036000830152613bf681613bba565b9050919050565b7f4e487b7100000000000000000000000000000000000000000000000000000000600052602260045260246000fd5b60006002820490506001821680613c4457607f821691505b602082108103613c5757613c56613bfd565b5b50919050565b7f4d696e74696e67206973206e6f7420656e61626c656400000000000000000000600082015250565b6000613c9360168361347d565b9150613c9e82613c5d565b602082019050919050565b60006020820190508181036000830152613cc281613c86565b9050919050565b7f4e6f2072656d61696e696e672045676773000000000000000000000000000000600082015250565b6000613cff60118361347d565b9150613d0a82613cc9565b602082019050919050565b60006020820190508181036000830152613d2e81613cf2565b9050919050565b7f4e487b7100000000000000000000000000000000000000000000000000000000600052601160045260246000fd5b6000613d6f8261340f565b9150613d7a8361340f565b9250817fffffffffffffffffffffffffffffffffffffffffffffffffffffffffffffffff0483118215151615613db357613db2613d35565b5b828202905092915050565b7f4e6f7420656e6f756768204554482073656e743b20636865636b20707269636560008201527f2100000000000000000000000000000000000000000000000000000000000000602082015250565b6000613e1a60218361347d565b9150613e2582613dbe565b604082019050919050565b60006020820190508181036000830152613e4981613e0d565b9050919050565b6000604082019050613e65600083018561355f565b613e7260208301846135f5565b9392505050565b6000604082019050613e8e600083018561355f565b613e9b602083018461355f565b9392505050565b600081519050613eb1816136b2565b92915050565b600060208284031215613ecd57613ecc61334a565b5b6000613edb84828501613ea2565b91505092915050565b7f4f6e6c792074686520426f7820736d61727420636f6e74726163742063616e2060008201527f6d696e7400000000000000000000000000000000000000000000000000000000602082015250565b6000613f4060248361347d565b9150613f4b82613ee4565b604082019050919050565b60006020820190508181036000830152613f6f81613f33565b9050919050565b7f6f70656e65722063616e6e6f7420626520736d61727420636f6e747261637400600082015250565b6000613fac601f8361347d565b9150613fb782613f76565b602082019050919050565b60006020820190508181036000830152613fdb81613f9f565b9050919050565b7f4e6f206d6f7265206f6e652070657263656e742072617269746965732061766160008201527f696c61626c650000000000000000000000000000000000000000000000000000602082015250565b600061403e60268361347d565b915061404982613fe2565b604082019050919050565b6000602082019050818103600083015261406d81614031565b9050919050565b600061407f8261340f565b915061408a8361340f565b92508282101561409d5761409c613d35565b5b828203905092915050565b60008160601b9050919050565b60006140c0826140a8565b9050919050565b60006140d2826140b5565b9050919050565b6140ea6140e58261354d565b6140c7565b82525050565b6000819050919050565b6000819050919050565b614115614110826140f0565b6140fa565b82525050565b6000819050919050565b6141366141318261340f565b61411b565b82525050565b600061414882866140d9565b6014820191506141588285614104565b6020820191506141688284614125565b602082019150819050949350505050565b7f4e487b7100000000000000000000000000000000000000000000000000000000600052603260045260246000fd5b7f4e487b7100000000000000000000000000000000000000000000000000000000600052601260045260246000fd5b60006141e28261340f565b91506141ed8361340f565b9250826141fd576141fc6141a8565b5b828206905092915050565b60006142138261340f565b915061421e8361340f565b9250827fffffffffffffffffffffffffffffffffffffffffffffffffffffffffffffffff0382111561425357614252613d35565b5b828201905092915050565b7f4e487b7100000000000000000000000000000000000000000000000000000000600052603160045260246000fd5b7f4552433732314d657461646174613a2055524920717565727920666f72206e6f60008201527f6e6578697374656e7420746f6b656e0000000000000000000000000000000000602082015250565b60006142e9602f8361347d565b91506142f48261428d565b604082019050919050565b60006020820190508181036000830152614318816142dc565b9050919050565b600081905092915050565b600061433582613472565b61433f818561431f565b935061434f81856020860161348e565b80840191505092915050565b60008190508160005260206000209050919050565b6000815461437d81613c2c565b614387818661431f565b945060018216600081146143a257600181146143b3576143e6565b60ff198316865281860193506143e6565b6143bc8561435b565b60005b838110156143de578154818901526001820191506020810190506143bf565b838801955050505b50505092915050565b60006143fb828661432a565b9150614407828561432a565b91506144138284614370565b9150819050949350505050565b7f4f776e61626c653a206e6577206f776e657220697320746865207a65726f206160008201527f6464726573730000000000000000000000000000000000000000000000000000602082015250565b600061447c60268361347d565b915061448782614420565b604082019050919050565b600060208201905081810360008301526144ab8161446f565b9050919050565b7f4f776e61626c653a2063616c6c6572206973206e6f7420746865206f776e6572600082015250565b60006144e860208361347d565b91506144f3826144b2565b602082019050919050565b60006020820190508181036000830152614517816144db565b9050919050565b600081519050919050565b600082825260208201905092915050565b60006145458261451e565b61454f8185614529565b935061455f81856020860161348e565b614568816134c1565b840191505092915050565b6000608082019050614588600083018761355f565b614595602083018661355f565b6145a260408301856135f5565b81810360608301526145b4818461453a565b905095945050505050565b6000815190506145ce81613380565b92915050565b6000602082840312156145ea576145e961334a565b5b60006145f8848285016145bf565b9150509291505056fea2646970667358221220d4cd5b9fd83081c5804c26cef91303eb3672df9202653addfa82c89c3871be7c64736f6c634300080d0033697066733a2f2f516d525239315a7748654b68436d775331635731597645503979754736486a41714632347533634477366f6b61332f697066733a2f2f516d615663544c626d6d593143557377464243426370766741386959643759456d6141726165463739626638675a2f",
  "linkReferences": {},
  "deployedLinkReferences": {}
}