{
  "_format": "hh-sol-artifact-1",
  "contractName": "NftSneaker",
  "sourceName": "src/backend/contracts/NftSneaker.sol",
  "abi": [
    {
      "inputs": [],
      "stateMutability": "nonpayable",
      "type": "constructor"
    },
    {
      "inputs": [],
      "name": "ApprovalCallerNotOwnerNorApproved",
      "type": "error"
    },
    {
      "inputs": [],
      "name": "ApprovalQueryForNonexistentToken",
      "type": "error"
    },
    {
      "inputs": [],
      "name": "ApproveToCaller",
      "type": "error"
    },
    {
      "inputs": [],
      "name": "BalanceQueryForZeroAddress",
      "type": "error"
    },
    {
      "inputs": [],
      "name": "MintERC2309QuantityExceedsLimit",
      "type": "error"
    },
    {
      "inputs": [],
      "name": "MintToZeroAddress",
      "type": "error"
    },
    {
      "inputs": [],
      "name": "MintZeroQuantity",
      "type": "error"
    },
    {
      "inputs": [
        {
          "internalType": "address",
          "name": "operator",
          "type": "address"
        }
      ],
      "name": "OperatorNotAllowed",
      "type": "error"
    },
    {
      "inputs": [],
      "name": "OwnerQueryForNonexistentToken",
      "type": "error"
    },
    {
      "inputs": [],
      "name": "OwnershipNotInitializedForExtraData",
      "type": "error"
    },
    {
      "inputs": [],
      "name": "TransferCallerNotOwnerNorApproved",
      "type": "error"
    },
    {
      "inputs": [],
      "name": "TransferFromIncorrectOwner",
      "type": "error"
    },
    {
      "inputs": [],
      "name": "TransferToNonERC721ReceiverImplementer",
      "type": "error"
    },
    {
      "inputs": [],
      "name": "TransferToZeroAddress",
      "type": "error"
    },
    {
      "inputs": [],
      "name": "URIQueryForNonexistentToken",
      "type": "error"
    },
    {
      "anonymous": false,
      "inputs": [
        {
          "indexed": true,
          "internalType": "address",
          "name": "owner",
          "type": "address"
        },
        {
          "indexed": true,
          "internalType": "address",
          "name": "approved",
          "type": "address"
        },
        {
          "indexed": true,
          "internalType": "uint256",
          "name": "tokenId",
          "type": "uint256"
        }
      ],
      "name": "Approval",
      "type": "event"
    },
    {
      "anonymous": false,
      "inputs": [
        {
          "indexed": true,
          "internalType": "address",
          "name": "owner",
          "type": "address"
        },
        {
          "indexed": true,
          "internalType": "address",
          "name": "operator",
          "type": "address"
        },
        {
          "indexed": false,
          "internalType": "bool",
          "name": "approved",
          "type": "bool"
        }
      ],
      "name": "ApprovalForAll",
      "type": "event"
    },
    {
      "anonymous": false,
      "inputs": [
        {
          "indexed": true,
          "internalType": "uint256",
          "name": "fromTokenId",
          "type": "uint256"
        },
        {
          "indexed": false,
          "internalType": "uint256",
          "name": "toTokenId",
          "type": "uint256"
        },
        {
          "indexed": true,
          "internalType": "address",
          "name": "from",
          "type": "address"
        },
        {
          "indexed": true,
          "internalType": "address",
          "name": "to",
          "type": "address"
        }
      ],
      "name": "ConsecutiveTransfer",
      "type": "event"
    },
    {
      "anonymous": false,
      "inputs": [
        {
          "indexed": false,
          "internalType": "address",
          "name": "user",
          "type": "address"
        }
      ],
      "name": "MintSuccessful",
      "type": "event"
    },
    {
      "anonymous": false,
      "inputs": [
        {
          "indexed": true,
          "internalType": "address",
          "name": "previousOwner",
          "type": "address"
        },
        {
          "indexed": true,
          "internalType": "address",
          "name": "newOwner",
          "type": "address"
        }
      ],
      "name": "OwnershipTransferred",
      "type": "event"
    },
    {
      "anonymous": false,
      "inputs": [
        {
          "indexed": true,
          "internalType": "address",
          "name": "from",
          "type": "address"
        },
        {
          "indexed": true,
          "internalType": "address",
          "name": "to",
          "type": "address"
        },
        {
          "indexed": true,
          "internalType": "uint256",
          "name": "tokenId",
          "type": "uint256"
        }
      ],
      "name": "Transfer",
      "type": "event"
    },
    {
      "inputs": [
        {
          "internalType": "address",
          "name": "to",
          "type": "address"
        },
        {
          "internalType": "uint256",
          "name": "tokenId",
          "type": "uint256"
        }
      ],
      "name": "approve",
      "outputs": [],
      "stateMutability": "nonpayable",
      "type": "function"
    },
    {
      "inputs": [
        {
          "internalType": "address",
          "name": "owner",
          "type": "address"
        }
      ],
      "name": "balanceOf",
      "outputs": [
        {
          "internalType": "uint256",
          "name": "",
          "type": "uint256"
        }
      ],
      "stateMutability": "view",
      "type": "function"
    },
    {
      "inputs": [],
      "name": "baseTokenURI",
      "outputs": [
        {
          "internalType": "string",
          "name": "",
          "type": "string"
        }
      ],
      "stateMutability": "view",
      "type": "function"
    },
    {
      "inputs": [],
      "name": "burnAmount",
      "outputs": [
        {
          "internalType": "uint256",
          "name": "",
          "type": "uint256"
        }
      ],
      "stateMutability": "view",
      "type": "function"
    },
    {
      "inputs": [
        {
          "internalType": "uint256",
          "name": "_tokenId",
          "type": "uint256"
        }
      ],
      "name": "burnFromEquip",
      "outputs": [],
      "stateMutability": "nonpayable",
      "type": "function"
    },
    {
      "inputs": [],
      "name": "contractURI",
      "outputs": [
        {
          "internalType": "string",
          "name": "",
          "type": "string"
        }
      ],
      "stateMutability": "view",
      "type": "function"
    },
    {
      "inputs": [],
      "name": "contractUri",
      "outputs": [
        {
          "internalType": "string",
          "name": "",
          "type": "string"
        }
      ],
      "stateMutability": "view",
      "type": "function"
    },
    {
      "inputs": [
        {
          "internalType": "uint256",
          "name": "tokenId",
          "type": "uint256"
        }
      ],
      "name": "getApproved",
      "outputs": [
        {
          "internalType": "address",
          "name": "",
          "type": "address"
        }
      ],
      "stateMutability": "view",
      "type": "function"
    },
    {
      "inputs": [],
      "name": "getPrice",
      "outputs": [
        {
          "internalType": "uint256",
          "name": "",
          "type": "uint256"
        }
      ],
      "stateMutability": "view",
      "type": "function"
    },
    {
      "inputs": [
        {
          "internalType": "uint256",
          "name": "_tokenId",
          "type": "uint256"
        }
      ],
      "name": "idToMetadata",
      "outputs": [
        {
          "internalType": "uint256",
          "name": "",
          "type": "uint256"
        }
      ],
      "stateMutability": "view",
      "type": "function"
    },
    {
      "inputs": [
        {
          "internalType": "address",
          "name": "owner",
          "type": "address"
        },
        {
          "internalType": "address",
          "name": "operator",
          "type": "address"
        }
      ],
      "name": "isApprovedForAll",
      "outputs": [
        {
          "internalType": "bool",
          "name": "",
          "type": "bool"
        }
      ],
      "stateMutability": "view",
      "type": "function"
    },
    {
      "inputs": [],
      "name": "max_supply",
      "outputs": [
        {
          "internalType": "uint256",
          "name": "",
          "type": "uint256"
        }
      ],
      "stateMutability": "view",
      "type": "function"
    },
    {
      "inputs": [
        {
          "internalType": "uint256",
          "name": "quantity",
          "type": "uint256"
        }
      ],
      "name": "mint",
      "outputs": [],
      "stateMutability": "payable",
      "type": "function"
    },
    {
      "inputs": [],
      "name": "mintEnabled",
      "outputs": [
        {
          "internalType": "bool",
          "name": "",
          "type": "bool"
        }
      ],
      "stateMutability": "view",
      "type": "function"
    },
    {
      "inputs": [
        {
          "internalType": "address",
          "name": "_user",
          "type": "address"
        },
        {
          "internalType": "bool",
          "name": "_rareOnly",
          "type": "bool"
        }
      ],
      "name": "mintFromBox",
      "outputs": [],
      "stateMutability": "nonpayable",
      "type": "function"
    },
    {
      "inputs": [],
      "name": "name",
      "outputs": [
        {
          "internalType": "string",
          "name": "",
          "type": "string"
        }
      ],
      "stateMutability": "view",
      "type": "function"
    },
    {
      "inputs": [],
      "name": "owner",
      "outputs": [
        {
          "internalType": "address",
          "name": "",
          "type": "address"
        }
      ],
      "stateMutability": "view",
      "type": "function"
    },
    {
      "inputs": [
        {
          "internalType": "uint256",
          "name": "tokenId",
          "type": "uint256"
        }
      ],
      "name": "ownerOf",
      "outputs": [
        {
          "internalType": "address",
          "name": "",
          "type": "address"
        }
      ],
      "stateMutability": "view",
      "type": "function"
    },
    {
      "inputs": [],
      "name": "price",
      "outputs": [
        {
          "internalType": "uint256",
          "name": "",
          "type": "uint256"
        }
      ],
      "stateMutability": "view",
      "type": "function"
    },
    {
      "inputs": [],
      "name": "renounceOwnership",
      "outputs": [],
      "stateMutability": "nonpayable",
      "type": "function"
    },
    {
      "inputs": [
        {
          "internalType": "address",
          "name": "from",
          "type": "address"
        },
        {
          "internalType": "address",
          "name": "to",
          "type": "address"
        },
        {
          "internalType": "uint256",
          "name": "tokenId",
          "type": "uint256"
        }
      ],
      "name": "safeTransferFrom",
      "outputs": [],
      "stateMutability": "nonpayable",
      "type": "function"
    },
    {
      "inputs": [
        {
          "internalType": "address",
          "name": "from",
          "type": "address"
        },
        {
          "internalType": "address",
          "name": "to",
          "type": "address"
        },
        {
          "internalType": "uint256",
          "name": "tokenId",
          "type": "uint256"
        },
        {
          "internalType": "bytes",
          "name": "data",
          "type": "bytes"
        }
      ],
      "name": "safeTransferFrom",
      "outputs": [],
      "stateMutability": "nonpayable",
      "type": "function"
    },
    {
      "inputs": [
        {
          "internalType": "address",
          "name": "operator",
          "type": "address"
        },
        {
          "internalType": "bool",
          "name": "approved",
          "type": "bool"
        }
      ],
      "name": "setApprovalForAll",
      "outputs": [],
      "stateMutability": "nonpayable",
      "type": "function"
    },
    {
      "inputs": [
        {
          "internalType": "address",
          "name": "_address",
          "type": "address"
        }
      ],
      "name": "setBoxAddress",
      "outputs": [],
      "stateMutability": "nonpayable",
      "type": "function"
    },
    {
      "inputs": [
        {
          "internalType": "string",
          "name": "_uri",
          "type": "string"
        }
      ],
      "name": "setContractMetadata",
      "outputs": [],
      "stateMutability": "nonpayable",
      "type": "function"
    },
    {
      "inputs": [
        {
          "internalType": "address",
          "name": "_address",
          "type": "address"
        }
      ],
      "name": "setEquipAddress",
      "outputs": [],
      "stateMutability": "nonpayable",
      "type": "function"
    },
    {
      "inputs": [
        {
          "internalType": "uint256",
          "name": "_supply",
          "type": "uint256"
        }
      ],
      "name": "setMaxSupply",
      "outputs": [],
      "stateMutability": "nonpayable",
      "type": "function"
    },
    {
      "inputs": [
        {
          "internalType": "string",
          "name": "_uri",
          "type": "string"
        }
      ],
      "name": "setMetadata",
      "outputs": [],
      "stateMutability": "nonpayable",
      "type": "function"
    },
    {
      "inputs": [
        {
          "internalType": "bool",
          "name": "_state",
          "type": "bool"
        }
      ],
      "name": "setMintEnabled",
      "outputs": [],
      "stateMutability": "nonpayable",
      "type": "function"
    },
    {
      "inputs": [
        {
          "internalType": "uint256",
          "name": "_price",
          "type": "uint256"
        }
      ],
      "name": "setPrice",
      "outputs": [],
      "stateMutability": "nonpayable",
      "type": "function"
    },
    {
      "inputs": [
        {
          "internalType": "bytes4",
          "name": "interfaceId",
          "type": "bytes4"
        }
      ],
      "name": "supportsInterface",
      "outputs": [
        {
          "internalType": "bool",
          "name": "",
          "type": "bool"
        }
      ],
      "stateMutability": "view",
      "type": "function"
    },
    {
      "inputs": [],
      "name": "symbol",
      "outputs": [
        {
          "internalType": "string",
          "name": "",
          "type": "string"
        }
      ],
      "stateMutability": "view",
      "type": "function"
    },
    {
      "inputs": [
        {
          "internalType": "uint256",
          "name": "_tokenId",
          "type": "uint256"
        }
      ],
      "name": "tokenURI",
      "outputs": [
        {
          "internalType": "string",
          "name": "",
          "type": "string"
        }
      ],
      "stateMutability": "view",
      "type": "function"
    },
    {
      "inputs": [],
      "name": "totalSupply",
      "outputs": [
        {
          "internalType": "uint256",
          "name": "",
          "type": "uint256"
        }
      ],
      "stateMutability": "view",
      "type": "function"
    },
    {
      "inputs": [
        {
          "internalType": "address",
          "name": "from",
          "type": "address"
        },
        {
          "internalType": "address",
          "name": "to",
          "type": "address"
        },
        {
          "internalType": "uint256",
          "name": "tokenId",
          "type": "uint256"
        }
      ],
      "name": "transferFrom",
      "outputs": [],
      "stateMutability": "nonpayable",
      "type": "function"
    },
    {
      "inputs": [
        {
          "internalType": "address",
          "name": "newOwner",
          "type": "address"
        }
      ],
      "name": "transferOwnership",
      "outputs": [],
      "stateMutability": "nonpayable",
      "type": "function"
    },
    {
      "inputs": [],
      "name": "uri",
      "outputs": [
        {
          "internalType": "string",
          "name": "",
          "type": "string"
        }
      ],
      "stateMutability": "view",
      "type": "function"
    },
    {
      "inputs": [],
      "name": "uriPrefix",
      "outputs": [
        {
          "internalType": "string",
          "name": "",
          "type": "string"
        }
      ],
      "stateMutability": "view",
      "type": "function"
    },
    {
      "inputs": [],
      "name": "uriSuffix",
      "outputs": [
        {
          "internalType": "string",
          "name": "",
          "type": "string"
        }
      ],
      "stateMutability": "view",
      "type": "function"
    },
    {
      "inputs": [],
      "name": "withdraw",
      "outputs": [],
      "stateMutability": "nonpayable",
      "type": "function"
    }
  ],
  "bytecode": "0x608060405260405180602001604052806000815250600b90805190602001906200002b929190620004b5565b506040518060400160405280600581526020017f2e6a736f6e000000000000000000000000000000000000000000000000000000815250600c908051906020019062000079929190620004b5565b5060405180606001604052806036815260200162003f1360369139600d9080519060200190620000ab929190620004b5565b5060405180606001604052806036815260200162003edd60369139600e9080519060200190620000dd929190620004b5565b506064600f556000601255348015620000f557600080fd5b50733cc6cdda760b79bafa08df41ecfa224f810dceb660016040518060400160405280600d81526020017f426c616e6b20536e65616b6572000000000000000000000000000000000000008152506040518060400160405280600281526020017f4253000000000000000000000000000000000000000000000000000000000000815250620001996200018d620003e060201b60201c565b620003e860201b60201c565b8160039080519060200190620001b1929190620004b5565b508060049080519060200190620001ca929190620004b5565b50620001db620004ac60201b60201c565b600181905550505060006daaeb6d7670e522a718067333cd4e73ffffffffffffffffffffffffffffffffffffffff163b1115620003d85780156200029e576daaeb6d7670e522a718067333cd4e73ffffffffffffffffffffffffffffffffffffffff16637d3e3dbe30846040518363ffffffff1660e01b815260040162000264929190620005aa565b600060405180830381600087803b1580156200027f57600080fd5b505af115801562000294573d6000803e3d6000fd5b50505050620003d7565b600073ffffffffffffffffffffffffffffffffffffffff168273ffffffffffffffffffffffffffffffffffffffff161462000358576daaeb6d7670e522a718067333cd4e73ffffffffffffffffffffffffffffffffffffffff1663a0af290330846040518363ffffffff1660e01b81526004016200031e929190620005aa565b600060405180830381600087803b1580156200033957600080fd5b505af11580156200034e573d6000803e3d6000fd5b50505050620003d6565b6daaeb6d7670e522a718067333cd4e73ffffffffffffffffffffffffffffffffffffffff16634420e486306040518263ffffffff1660e01b8152600401620003a19190620005d7565b600060405180830381600087803b158015620003bc57600080fd5b505af1158015620003d1573d6000803e3d6000fd5b505050505b5b5b505062000658565b600033905090565b60008060009054906101000a900473ffffffffffffffffffffffffffffffffffffffff169050816000806101000a81548173ffffffffffffffffffffffffffffffffffffffff021916908373ffffffffffffffffffffffffffffffffffffffff1602179055508173ffffffffffffffffffffffffffffffffffffffff168173ffffffffffffffffffffffffffffffffffffffff167f8be0079c531659141344cd1fd0a4f28419497f9722a3daafe3b4186f6b6457e060405160405180910390a35050565b60006001905090565b828054620004c39062000623565b90600052602060002090601f016020900481019282620004e7576000855562000533565b82601f106200050257805160ff191683800117855562000533565b8280016001018555821562000533579182015b828111156200053257825182559160200191906001019062000515565b5b50905062000542919062000546565b5090565b5b808211156200056157600081600090555060010162000547565b5090565b600073ffffffffffffffffffffffffffffffffffffffff82169050919050565b6000620005928262000565565b9050919050565b620005a48162000585565b82525050565b6000604082019050620005c1600083018562000599565b620005d0602083018462000599565b9392505050565b6000602082019050620005ee600083018462000599565b92915050565b7f4e487b7100000000000000000000000000000000000000000000000000000000600052602260045260246000fd5b600060028204905060018216806200063c57607f821691505b602082108103620006525762000651620005f4565b5b50919050565b61387580620006686000396000f3fe60806040526004361061023b5760003560e01c806395d89b411161012e578063c87b56dd116100ab578063eac989f81161006f578063eac989f81461083e578063f2fde38b14610869578063f307101a14610892578063f46a04eb146108cf578063fce55037146108f85761023b565b8063c87b56dd14610743578063d123973014610780578063d547cfb7146107ab578063e8a3d485146107d6578063e985e9c5146108015761023b565b8063a49a1e7d116100f2578063a49a1e7d14610674578063afa20f541461069d578063b88d4fde146106c6578063c0e24d5e146106ef578063c254cc7b1461071a5761023b565b806395d89b41146105ae57806398d5fdca146105d9578063a035b1fe14610604578063a0712d681461062f578063a22cb4651461064b5761023b565b8063486a7e6b116101bc57806370a082311161018057806370a08231146104db578063715018a6146105185780638a333b501461052f5780638da5cb5b1461055a57806391b7f5ed146105855761023b565b8063486a7e6b146103f45780635503a0e81461041f57806362b99ad41461044a5780636352211e146104755780636f8b44b0146104b25761023b565b806318160ddd1161020357806318160ddd1461033757806323b872dd146103625780632bf7e4cf1461038b5780633ccfd60b146103b457806342842e0e146103cb5761023b565b806301ffc9a71461024057806304b5085e1461027d57806306fdde03146102a6578063081812fc146102d1578063095ea7b31461030e575b600080fd5b34801561024c57600080fd5b5061026760048036038101906102629190612bb8565b610921565b6040516102749190612c00565b60405180910390f35b34801561028957600080fd5b506102a4600480360381019061029f9190612c51565b6109b3565b005b3480156102b257600080fd5b506102bb610a4f565b6040516102c89190612d17565b60405180910390f35b3480156102dd57600080fd5b506102f860048036038101906102f39190612c51565b610ae1565b6040516103059190612d7a565b60405180910390f35b34801561031a57600080fd5b5061033560048036038101906103309190612dc1565b610b60565b005b34801561034357600080fd5b5061034c610ca4565b6040516103599190612e10565b60405180910390f35b34801561036e57600080fd5b5061038960048036038101906103849190612e2b565b610cbb565b005b34801561039757600080fd5b506103b260048036038101906103ad9190612eaa565b610e9d565b005b3480156103c057600080fd5b506103c9610fcb565b005b3480156103d757600080fd5b506103f260048036038101906103ed9190612e2b565b61101c565b005b34801561040057600080fd5b506104096111fe565b6040516104169190612e10565b60405180910390f35b34801561042b57600080fd5b50610434611204565b6040516104419190612d17565b60405180910390f35b34801561045657600080fd5b5061045f611292565b60405161046c9190612d17565b60405180910390f35b34801561048157600080fd5b5061049c60048036038101906104979190612c51565b611320565b6040516104a99190612d7a565b60405180910390f35b3480156104be57600080fd5b506104d960048036038101906104d49190612c51565b611332565b005b3480156104e757600080fd5b5061050260048036038101906104fd9190612eea565b611344565b60405161050f9190612e10565b60405180910390f35b34801561052457600080fd5b5061052d6113fc565b005b34801561053b57600080fd5b50610544611410565b6040516105519190612e10565b60405180910390f35b34801561056657600080fd5b5061056f611416565b60405161057c9190612d7a565b60405180910390f35b34801561059157600080fd5b506105ac60048036038101906105a79190612c51565b61143f565b005b3480156105ba57600080fd5b506105c3611451565b6040516105d09190612d17565b60405180910390f35b3480156105e557600080fd5b506105ee6114e3565b6040516105fb9190612e10565b60405180910390f35b34801561061057600080fd5b506106196114ed565b6040516106269190612e10565b60405180910390f35b61064960048036038101906106449190612c51565b6114f3565b005b34801561065757600080fd5b50610672600480360381019061066d9190612eaa565b611631565b005b34801561068057600080fd5b5061069b6004803603810190610696919061304c565b6117a8565b005b3480156106a957600080fd5b506106c460048036038101906106bf9190612eea565b6117ca565b005b3480156106d257600080fd5b506106ed60048036038101906106e89190613136565b611816565b005b3480156106fb57600080fd5b506107046119fb565b6040516107119190612d17565b60405180910390f35b34801561072657600080fd5b50610741600480360381019061073c9190612eea565b611a89565b005b34801561074f57600080fd5b5061076a60048036038101906107659190612c51565b611ad5565b6040516107779190612d17565b60405180910390f35b34801561078c57600080fd5b50610795611ae6565b6040516107a29190612c00565b60405180910390f35b3480156107b757600080fd5b506107c0611af9565b6040516107cd9190612d17565b60405180910390f35b3480156107e257600080fd5b506107eb611b08565b6040516107f89190612d17565b60405180910390f35b34801561080d57600080fd5b50610828600480360381019061082391906131b9565b611b9a565b6040516108359190612c00565b60405180910390f35b34801561084a57600080fd5b50610853611c2e565b6040516108609190612d17565b60405180910390f35b34801561087557600080fd5b50610890600480360381019061088b9190612eea565b611cbc565b005b34801561089e57600080fd5b506108b960048036038101906108b49190612c51565b611d3f565b6040516108c69190612e10565b60405180910390f35b3480156108db57600080fd5b506108f660048036038101906108f191906131f9565b611d46565b005b34801561090457600080fd5b5061091f600480360381019061091a919061304c565b611d6b565b005b60006301ffc9a760e01b827bffffffffffffffffffffffffffffffffffffffffffffffffffffffff1916148061097c57506380ac58cd60e01b827bffffffffffffffffffffffffffffffffffffffffffffffffffffffff1916145b806109ac5750635b5e139f60e01b827bffffffffffffffffffffffffffffffffffffffffffffffffffffffff1916145b9050919050565b600a60009054906101000a900473ffffffffffffffffffffffffffffffffffffffff1673ffffffffffffffffffffffffffffffffffffffff163373ffffffffffffffffffffffffffffffffffffffff1614610a43576040517f08c379a0000000000000000000000000000000000000000000000000000000008152600401610a3a90613298565b60405180910390fd5b610a4c81611d8d565b50565b606060038054610a5e906132e7565b80601f0160208091040260200160405190810160405280929190818152602001828054610a8a906132e7565b8015610ad75780601f10610aac57610100808354040283529160200191610ad7565b820191906000526020600020905b815481529060010190602001808311610aba57829003601f168201915b5050505050905090565b6000610aec82611d9b565b610b22576040517fcf4700e400000000000000000000000000000000000000000000000000000000815260040160405180910390fd5b6007600083815260200190815260200160002060000160009054906101000a900473ffffffffffffffffffffffffffffffffffffffff169050919050565b6000610b6b82611320565b90508073ffffffffffffffffffffffffffffffffffffffff16610b8c611dfa565b73ffffffffffffffffffffffffffffffffffffffff1614610bef57610bb881610bb3611dfa565b611b9a565b610bee576040517fcfb3b94200000000000000000000000000000000000000000000000000000000815260040160405180910390fd5b5b826007600084815260200190815260200160002060000160006101000a81548173ffffffffffffffffffffffffffffffffffffffff021916908373ffffffffffffffffffffffffffffffffffffffff160217905550818373ffffffffffffffffffffffffffffffffffffffff168273ffffffffffffffffffffffffffffffffffffffff167f8c5be1e5ebec7d5bd14f71427d1e84f3dd0314c0f7b2291e5b200ac8c7c3b92560405160405180910390a4505050565b6000610cae611e02565b6002546001540303905090565b8260006daaeb6d7670e522a718067333cd4e73ffffffffffffffffffffffffffffffffffffffff163b1115610e8b573373ffffffffffffffffffffffffffffffffffffffff168173ffffffffffffffffffffffffffffffffffffffff1603610d2d57610d28848484611e0b565b610e97565b6daaeb6d7670e522a718067333cd4e73ffffffffffffffffffffffffffffffffffffffff1663c617113430336040518363ffffffff1660e01b8152600401610d76929190613318565b602060405180830381865afa158015610d93573d6000803e3d6000fd5b505050506040513d601f19601f82011682018060405250810190610db79190613356565b8015610e4957506daaeb6d7670e522a718067333cd4e73ffffffffffffffffffffffffffffffffffffffff1663c617113430836040518363ffffffff1660e01b8152600401610e07929190613318565b602060405180830381865afa158015610e24573d6000803e3d6000fd5b505050506040513d601f19601f82011682018060405250810190610e489190613356565b5b610e8a57336040517fede71dcc000000000000000000000000000000000000000000000000000000008152600401610e819190612d7a565b60405180910390fd5b5b610e96848484611e0b565b5b50505050565b600960009054906101000a900473ffffffffffffffffffffffffffffffffffffffff1673ffffffffffffffffffffffffffffffffffffffff163373ffffffffffffffffffffffffffffffffffffffff1614610f2d576040517f08c379a0000000000000000000000000000000000000000000000000000000008152600401610f24906133f5565b60405180910390fd5b600f546001610f3a610ca4565b610f449190613444565b1115610f85576040517f08c379a0000000000000000000000000000000000000000000000000000000008152600401610f7c906134e6565b60405180910390fd5b610f9082600161212d565b7ff5535ccd9f40eb4bc73fac8710dbb2effbf3329da83f62b35d9aa88161bb85ca33604051610fbf9190612d7a565b60405180910390a15050565b610fd36122e9565b3373ffffffffffffffffffffffffffffffffffffffff166108fc479081150290604051600060405180830381858888f19350505050158015611019573d6000803e3d6000fd5b50565b8260006daaeb6d7670e522a718067333cd4e73ffffffffffffffffffffffffffffffffffffffff163b11156111ec573373ffffffffffffffffffffffffffffffffffffffff168173ffffffffffffffffffffffffffffffffffffffff160361108e57611089848484612367565b6111f8565b6daaeb6d7670e522a718067333cd4e73ffffffffffffffffffffffffffffffffffffffff1663c617113430336040518363ffffffff1660e01b81526004016110d7929190613318565b602060405180830381865afa1580156110f4573d6000803e3d6000fd5b505050506040513d601f19601f820116820180604052508101906111189190613356565b80156111aa57506daaeb6d7670e522a718067333cd4e73ffffffffffffffffffffffffffffffffffffffff1663c617113430836040518363ffffffff1660e01b8152600401611168929190613318565b602060405180830381865afa158015611185573d6000803e3d6000fd5b505050506040513d601f19601f820116820180604052508101906111a99190613356565b5b6111eb57336040517fede71dcc0000000000000000000000000000000000000000000000000000000081526004016111e29190612d7a565b60405180910390fd5b5b6111f7848484612367565b5b50505050565b60105481565b600c8054611211906132e7565b80601f016020809104026020016040519081016040528092919081815260200182805461123d906132e7565b801561128a5780601f1061125f5761010080835404028352916020019161128a565b820191906000526020600020905b81548152906001019060200180831161126d57829003601f168201915b505050505081565b600b805461129f906132e7565b80601f01602080910402602001604051908101604052809291908181526020018280546112cb906132e7565b80156113185780601f106112ed57610100808354040283529160200191611318565b820191906000526020600020905b8154815290600101906020018083116112fb57829003601f168201915b505050505081565b600061132b82612387565b9050919050565b61133a6122e9565b80600f8190555050565b60008073ffffffffffffffffffffffffffffffffffffffff168273ffffffffffffffffffffffffffffffffffffffff16036113ab576040517f8f4eb60400000000000000000000000000000000000000000000000000000000815260040160405180910390fd5b67ffffffffffffffff600660008473ffffffffffffffffffffffffffffffffffffffff1673ffffffffffffffffffffffffffffffffffffffff16815260200190815260200160002054169050919050565b6114046122e9565b61140e6000612453565b565b600f5481565b60008060009054906101000a900473ffffffffffffffffffffffffffffffffffffffff16905090565b6114476122e9565b8060128190555050565b606060048054611460906132e7565b80601f016020809104026020016040519081016040528092919081815260200182805461148c906132e7565b80156114d95780601f106114ae576101008083540402835291602001916114d9565b820191906000526020600020905b8154815290600101906020018083116114bc57829003601f168201915b5050505050905090565b6000601254905090565b60125481565b601160009054906101000a900460ff16611542576040517f08c379a000000000000000000000000000000000000000000000000000000000815260040161153990613552565b60405180910390fd5b600f548161154e610ca4565b6115589190613444565b10611598576040517f08c379a000000000000000000000000000000000000000000000000000000000815260040161158f906134e6565b60405180910390fd5b806115a16114e3565b6115ab9190613572565b3410156115ed576040517f08c379a00000000000000000000000000000000000000000000000000000000081526004016115e49061363e565b60405180910390fd5b6115f7338261212d565b7ff5535ccd9f40eb4bc73fac8710dbb2effbf3329da83f62b35d9aa88161bb85ca336040516116269190612d7a565b60405180910390a150565b611639611dfa565b73ffffffffffffffffffffffffffffffffffffffff168273ffffffffffffffffffffffffffffffffffffffff160361169d576040517fb06307db00000000000000000000000000000000000000000000000000000000815260040160405180910390fd5b80600860006116aa611dfa565b73ffffffffffffffffffffffffffffffffffffffff1673ffffffffffffffffffffffffffffffffffffffff16815260200190815260200160002060008473ffffffffffffffffffffffffffffffffffffffff1673ffffffffffffffffffffffffffffffffffffffff16815260200190815260200160002060006101000a81548160ff0219169083151502179055508173ffffffffffffffffffffffffffffffffffffffff16611757611dfa565b73ffffffffffffffffffffffffffffffffffffffff167f17307eab39ab6107e8899845ad3d59bd9653f200f220920489ca2b5937696c318360405161179c9190612c00565b60405180910390a35050565b6117b06122e9565b80600d90805190602001906117c6929190612aa9565b5050565b6117d26122e9565b80600a60006101000a81548173ffffffffffffffffffffffffffffffffffffffff021916908373ffffffffffffffffffffffffffffffffffffffff16021790555050565b8360006daaeb6d7670e522a718067333cd4e73ffffffffffffffffffffffffffffffffffffffff163b11156119e7573373ffffffffffffffffffffffffffffffffffffffff168173ffffffffffffffffffffffffffffffffffffffff16036118895761188485858585612517565b6119f4565b6daaeb6d7670e522a718067333cd4e73ffffffffffffffffffffffffffffffffffffffff1663c617113430336040518363ffffffff1660e01b81526004016118d2929190613318565b602060405180830381865afa1580156118ef573d6000803e3d6000fd5b505050506040513d601f19601f820116820180604052508101906119139190613356565b80156119a557506daaeb6d7670e522a718067333cd4e73ffffffffffffffffffffffffffffffffffffffff1663c617113430836040518363ffffffff1660e01b8152600401611963929190613318565b602060405180830381865afa158015611980573d6000803e3d6000fd5b505050506040513d601f19601f820116820180604052508101906119a49190613356565b5b6119e657336040517fede71dcc0000000000000000000000000000000000000000000000000000000081526004016119dd9190612d7a565b60405180910390fd5b5b6119f385858585612517565b5b5050505050565b600e8054611a08906132e7565b80601f0160208091040260200160405190810160405280929190818152602001828054611a34906132e7565b8015611a815780601f10611a5657610100808354040283529160200191611a81565b820191906000526020600020905b815481529060010190602001808311611a6457829003601f168201915b505050505081565b611a916122e9565b80600960006101000a81548173ffffffffffffffffffffffffffffffffffffffff021916908373ffffffffffffffffffffffffffffffffffffffff16021790555050565b6060611adf61258a565b9050919050565b601160009054906101000a900460ff1681565b6060611b0361258a565b905090565b6060600e8054611b17906132e7565b80601f0160208091040260200160405190810160405280929190818152602001828054611b43906132e7565b8015611b905780601f10611b6557610100808354040283529160200191611b90565b820191906000526020600020905b815481529060010190602001808311611b7357829003601f168201915b5050505050905090565b6000600860008473ffffffffffffffffffffffffffffffffffffffff1673ffffffffffffffffffffffffffffffffffffffff16815260200190815260200160002060008373ffffffffffffffffffffffffffffffffffffffff1673ffffffffffffffffffffffffffffffffffffffff16815260200190815260200160002060009054906101000a900460ff16905092915050565b600d8054611c3b906132e7565b80601f0160208091040260200160405190810160405280929190818152602001828054611c67906132e7565b8015611cb45780601f10611c8957610100808354040283529160200191611cb4565b820191906000526020600020905b815481529060010190602001808311611c9757829003601f168201915b505050505081565b611cc46122e9565b600073ffffffffffffffffffffffffffffffffffffffff168173ffffffffffffffffffffffffffffffffffffffff1603611d33576040517f08c379a0000000000000000000000000000000000000000000000000000000008152600401611d2a906136d0565b60405180910390fd5b611d3c81612453565b50565b6000919050565b611d4e6122e9565b80601160006101000a81548160ff02191690831515021790555050565b611d736122e9565b80600e9080519060200190611d89929190612aa9565b5050565b611d9881600061261c565b50565b600081611da6611e02565b11158015611db5575060015482105b8015611df3575060007c0100000000000000000000000000000000000000000000000000000000600560008581526020019081526020016000205416145b9050919050565b600033905090565b60006001905090565b6000611e1682612387565b90508373ffffffffffffffffffffffffffffffffffffffff168173ffffffffffffffffffffffffffffffffffffffff1614611e7d576040517fa114810000000000000000000000000000000000000000000000000000000000815260040160405180910390fd5b600080611e898461286e565b91509150611e9f8187611e9a611dfa565b612895565b611eeb57611eb486611eaf611dfa565b611b9a565b611eea576040517f59c896be00000000000000000000000000000000000000000000000000000000815260040160405180910390fd5b5b600073ffffffffffffffffffffffffffffffffffffffff168573ffffffffffffffffffffffffffffffffffffffff1603611f51576040517fea553b3400000000000000000000000000000000000000000000000000000000815260040160405180910390fd5b611f5e86868660016128d9565b8015611f6957600082555b600660008773ffffffffffffffffffffffffffffffffffffffff1673ffffffffffffffffffffffffffffffffffffffff168152602001908152602001600020600081546001900391905081905550600660008673ffffffffffffffffffffffffffffffffffffffff1673ffffffffffffffffffffffffffffffffffffffff1681526020019081526020016000206000815460010191905081905550612037856120138888876128df565b7c020000000000000000000000000000000000000000000000000000000017612907565b600560008681526020019081526020016000208190555060007c02000000000000000000000000000000000000000000000000000000008416036120bd57600060018501905060006005600083815260200190815260200160002054036120bb5760015481146120ba578360056000838152602001908152602001600020819055505b5b505b838573ffffffffffffffffffffffffffffffffffffffff168773ffffffffffffffffffffffffffffffffffffffff167fddf252ad1be2c89b69c2b068fc378daa952ba7f163c4a11628f55a4df523b3ef60405160405180910390a46121258686866001612932565b505050505050565b600060015490506000820361216e576040517fb562e8dd00000000000000000000000000000000000000000000000000000000815260040160405180910390fd5b61217b60008483856128d9565b600160406001901b178202600660008573ffffffffffffffffffffffffffffffffffffffff1673ffffffffffffffffffffffffffffffffffffffff168152602001908152602001600020600082825401925050819055506121f2836121e360008660006128df565b6121ec85612938565b17612907565b6005600083815260200190815260200160002081905550600080838301905073ffffffffffffffffffffffffffffffffffffffff85169150828260007fddf252ad1be2c89b69c2b068fc378daa952ba7f163c4a11628f55a4df523b3ef600080a4600183015b81811461229357808360007fddf252ad1be2c89b69c2b068fc378daa952ba7f163c4a11628f55a4df523b3ef600080a4600181019050612258565b50600082036122ce576040517f2e07630000000000000000000000000000000000000000000000000000000000815260040160405180910390fd5b8060018190555050506122e46000848385612932565b505050565b6122f1612948565b73ffffffffffffffffffffffffffffffffffffffff1661230f611416565b73ffffffffffffffffffffffffffffffffffffffff1614612365576040517f08c379a000000000000000000000000000000000000000000000000000000000815260040161235c9061373c565b60405180910390fd5b565b61238283838360405180602001604052806000815250611816565b505050565b60008082905080612396611e02565b1161241c5760015481101561241b5760006005600083815260200190815260200160002054905060007c0100000000000000000000000000000000000000000000000000000000821603612419575b6000810361240f5760056000836001900393508381526020019081526020016000205490506123e5565b809250505061244e565b505b5b6040517fdf2d9b4200000000000000000000000000000000000000000000000000000000815260040160405180910390fd5b919050565b60008060009054906101000a900473ffffffffffffffffffffffffffffffffffffffff169050816000806101000a81548173ffffffffffffffffffffffffffffffffffffffff021916908373ffffffffffffffffffffffffffffffffffffffff1602179055508173ffffffffffffffffffffffffffffffffffffffff168173ffffffffffffffffffffffffffffffffffffffff167f8be0079c531659141344cd1fd0a4f28419497f9722a3daafe3b4186f6b6457e060405160405180910390a35050565b612522848484610cbb565b60008373ffffffffffffffffffffffffffffffffffffffff163b146125845761254d84848484612950565b612583576040517fd1a57ed600000000000000000000000000000000000000000000000000000000815260040160405180910390fd5b5b50505050565b6060600d8054612599906132e7565b80601f01602080910402602001604051908101604052809291908181526020018280546125c5906132e7565b80156126125780601f106125e757610100808354040283529160200191612612565b820191906000526020600020905b8154815290600101906020018083116125f557829003601f168201915b5050505050905090565b600061262783612387565b9050600081905060008061263a8661286e565b9150915084156126a3576126568184612651611dfa565b612895565b6126a25761266b83612666611dfa565b611b9a565b6126a1576040517f59c896be00000000000000000000000000000000000000000000000000000000815260040160405180910390fd5b5b5b6126b18360008860016128d9565b80156126bc57600082555b600160806001901b03600660008573ffffffffffffffffffffffffffffffffffffffff1673ffffffffffffffffffffffffffffffffffffffff1681526020019081526020016000206000828254019250508190555061276483612721856000886128df565b7c02000000000000000000000000000000000000000000000000000000007c01000000000000000000000000000000000000000000000000000000001717612907565b600560008881526020019081526020016000208190555060007c02000000000000000000000000000000000000000000000000000000008516036127ea57600060018701905060006005600083815260200190815260200160002054036127e85760015481146127e7578460056000838152602001908152602001600020819055505b5b505b85600073ffffffffffffffffffffffffffffffffffffffff168473ffffffffffffffffffffffffffffffffffffffff167fddf252ad1be2c89b69c2b068fc378daa952ba7f163c4a11628f55a4df523b3ef60405160405180910390a4612854836000886001612932565b600260008154809291906001019190505550505050505050565b60008060006007600085815260200190815260200160002090508092508254915050915091565b600073ffffffffffffffffffffffffffffffffffffffff8316925073ffffffffffffffffffffffffffffffffffffffff821691508382148383141790509392505050565b50505050565b60008060e883901c905060e86128f6868684612aa0565b62ffffff16901b9150509392505050565b600073ffffffffffffffffffffffffffffffffffffffff83169250814260a01b178317905092915050565b50505050565b60006001821460e11b9050919050565b600033905090565b60008373ffffffffffffffffffffffffffffffffffffffff1663150b7a02612976611dfa565b8786866040518563ffffffff1660e01b815260040161299894939291906137b1565b6020604051808303816000875af19250505080156129d457506040513d601f19601f820116820180604052508101906129d19190613812565b60015b612a4d573d8060008114612a04576040519150601f19603f3d011682016040523d82523d6000602084013e612a09565b606091505b506000815103612a45576040517fd1a57ed600000000000000000000000000000000000000000000000000000000815260040160405180910390fd5b805181602001fd5b63150b7a0260e01b7bffffffffffffffffffffffffffffffffffffffffffffffffffffffff1916817bffffffffffffffffffffffffffffffffffffffffffffffffffffffff191614915050949350505050565b60009392505050565b828054612ab5906132e7565b90600052602060002090601f016020900481019282612ad75760008555612b1e565b82601f10612af057805160ff1916838001178555612b1e565b82800160010185558215612b1e579182015b82811115612b1d578251825591602001919060010190612b02565b5b509050612b2b9190612b2f565b5090565b5b80821115612b48576000816000905550600101612b30565b5090565b6000604051905090565b600080fd5b600080fd5b60007fffffffff0000000000000000000000000000000000000000000000000000000082169050919050565b612b9581612b60565b8114612ba057600080fd5b50565b600081359050612bb281612b8c565b92915050565b600060208284031215612bce57612bcd612b56565b5b6000612bdc84828501612ba3565b91505092915050565b60008115159050919050565b612bfa81612be5565b82525050565b6000602082019050612c156000830184612bf1565b92915050565b6000819050919050565b612c2e81612c1b565b8114612c3957600080fd5b50565b600081359050612c4b81612c25565b92915050565b600060208284031215612c6757612c66612b56565b5b6000612c7584828501612c3c565b91505092915050565b600081519050919050565b600082825260208201905092915050565b60005b83811015612cb8578082015181840152602081019050612c9d565b83811115612cc7576000848401525b50505050565b6000601f19601f8301169050919050565b6000612ce982612c7e565b612cf38185612c89565b9350612d03818560208601612c9a565b612d0c81612ccd565b840191505092915050565b60006020820190508181036000830152612d318184612cde565b905092915050565b600073ffffffffffffffffffffffffffffffffffffffff82169050919050565b6000612d6482612d39565b9050919050565b612d7481612d59565b82525050565b6000602082019050612d8f6000830184612d6b565b92915050565b612d9e81612d59565b8114612da957600080fd5b50565b600081359050612dbb81612d95565b92915050565b60008060408385031215612dd857612dd7612b56565b5b6000612de685828601612dac565b9250506020612df785828601612c3c565b9150509250929050565b612e0a81612c1b565b82525050565b6000602082019050612e256000830184612e01565b92915050565b600080600060608486031215612e4457612e43612b56565b5b6000612e5286828701612dac565b9350506020612e6386828701612dac565b9250506040612e7486828701612c3c565b9150509250925092565b612e8781612be5565b8114612e9257600080fd5b50565b600081359050612ea481612e7e565b92915050565b60008060408385031215612ec157612ec0612b56565b5b6000612ecf85828601612dac565b9250506020612ee085828601612e95565b9150509250929050565b600060208284031215612f0057612eff612b56565b5b6000612f0e84828501612dac565b91505092915050565b600080fd5b600080fd5b7f4e487b7100000000000000000000000000000000000000000000000000000000600052604160045260246000fd5b612f5982612ccd565b810181811067ffffffffffffffff82111715612f7857612f77612f21565b5b80604052505050565b6000612f8b612b4c565b9050612f978282612f50565b919050565b600067ffffffffffffffff821115612fb757612fb6612f21565b5b612fc082612ccd565b9050602081019050919050565b82818337600083830152505050565b6000612fef612fea84612f9c565b612f81565b90508281526020810184848401111561300b5761300a612f1c565b5b613016848285612fcd565b509392505050565b600082601f83011261303357613032612f17565b5b8135613043848260208601612fdc565b91505092915050565b60006020828403121561306257613061612b56565b5b600082013567ffffffffffffffff8111156130805761307f612b5b565b5b61308c8482850161301e565b91505092915050565b600067ffffffffffffffff8211156130b0576130af612f21565b5b6130b982612ccd565b9050602081019050919050565b60006130d96130d484613095565b612f81565b9050828152602081018484840111156130f5576130f4612f1c565b5b613100848285612fcd565b509392505050565b600082601f83011261311d5761311c612f17565b5b813561312d8482602086016130c6565b91505092915050565b600080600080608085870312156131505761314f612b56565b5b600061315e87828801612dac565b945050602061316f87828801612dac565b935050604061318087828801612c3c565b925050606085013567ffffffffffffffff8111156131a1576131a0612b5b565b5b6131ad87828801613108565b91505092959194509250565b600080604083850312156131d0576131cf612b56565b5b60006131de85828601612dac565b92505060206131ef85828601612dac565b9150509250929050565b60006020828403121561320f5761320e612b56565b5b600061321d84828501612e95565b91505092915050565b7f4f6e6c792074686520457175697020736d61727420636f6e747261637420636160008201527f6e206275726e2066726f6d206571756970000000000000000000000000000000602082015250565b6000613282603183612c89565b915061328d82613226565b604082019050919050565b600060208201905081810360008301526132b181613275565b9050919050565b7f4e487b7100000000000000000000000000000000000000000000000000000000600052602260045260246000fd5b600060028204905060018216806132ff57607f821691505b602082108103613312576133116132b8565b5b50919050565b600060408201905061332d6000830185612d6b565b61333a6020830184612d6b565b9392505050565b60008151905061335081612e7e565b92915050565b60006020828403121561336c5761336b612b56565b5b600061337a84828501613341565b91505092915050565b7f4f6e6c792074686520426f7820736d61727420636f6e74726163742063616e2060008201527f6d696e7400000000000000000000000000000000000000000000000000000000602082015250565b60006133df602483612c89565b91506133ea82613383565b604082019050919050565b6000602082019050818103600083015261340e816133d2565b9050919050565b7f4e487b7100000000000000000000000000000000000000000000000000000000600052601160045260246000fd5b600061344f82612c1b565b915061345a83612c1b565b9250827fffffffffffffffffffffffffffffffffffffffffffffffffffffffffffffffff0382111561348f5761348e613415565b5b828201905092915050565b7f43616e6e6f74206d696e74206d6f7265207468616e206d617820737570706c79600082015250565b60006134d0602083612c89565b91506134db8261349a565b602082019050919050565b600060208201905081810360008301526134ff816134c3565b9050919050565b7f4d696e74696e67206973206e6f7420656e61626c656400000000000000000000600082015250565b600061353c601683612c89565b915061354782613506565b602082019050919050565b6000602082019050818103600083015261356b8161352f565b9050919050565b600061357d82612c1b565b915061358883612c1b565b9250817fffffffffffffffffffffffffffffffffffffffffffffffffffffffffffffffff04831182151516156135c1576135c0613415565b5b828202905092915050565b7f4e6f7420656e6f756768204554482073656e743b20636865636b20707269636560008201527f2100000000000000000000000000000000000000000000000000000000000000602082015250565b6000613628602183612c89565b9150613633826135cc565b604082019050919050565b600060208201905081810360008301526136578161361b565b9050919050565b7f4f776e61626c653a206e6577206f776e657220697320746865207a65726f206160008201527f6464726573730000000000000000000000000000000000000000000000000000602082015250565b60006136ba602683612c89565b91506136c58261365e565b604082019050919050565b600060208201905081810360008301526136e9816136ad565b9050919050565b7f4f776e61626c653a2063616c6c6572206973206e6f7420746865206f776e6572600082015250565b6000613726602083612c89565b9150613731826136f0565b602082019050919050565b6000602082019050818103600083015261375581613719565b9050919050565b600081519050919050565b600082825260208201905092915050565b60006137838261375c565b61378d8185613767565b935061379d818560208601612c9a565b6137a681612ccd565b840191505092915050565b60006080820190506137c66000830187612d6b565b6137d36020830186612d6b565b6137e06040830185612e01565b81810360608301526137f28184613778565b905095945050505050565b60008151905061380c81612b8c565b92915050565b60006020828403121561382857613827612b56565b5b6000613836848285016137fd565b9150509291505056fea2646970667358221220f1731a1240c590eefbf284f4a18c21af8b8d05e20341f3883e93ee0baa347eb264736f6c634300080d0033697066733a2f2f516d646f6a66794d353172374c6b6a6934645a3937486b58454868544e48696b6f67726858773631535859624d382f697066733a2f2f516d58486935537033634a664e3254394d61506b6f4359677778676d5966736a73676d384277686668633846776f2f",
  "linkReferences": {},
  "deployedLinkReferences": {}
}