{
  "_format": "hh-sol-artifact-1",
  "contractName": "NftSneakerX",
  "sourceName": "src/backend/contracts/NftSneakerX.sol",
  "abi": [
    {
      "inputs": [],
      "stateMutability": "nonpayable",
      "type": "constructor"
    },
    {
      "inputs": [],
      "name": "ApprovalCallerNotOwnerNorApproved",
      "type": "error"
    },
    {
      "inputs": [],
      "name": "ApprovalQueryForNonexistentToken",
      "type": "error"
    },
    {
      "inputs": [],
      "name": "ApproveToCaller",
      "type": "error"
    },
    {
      "inputs": [],
      "name": "BalanceQueryForZeroAddress",
      "type": "error"
    },
    {
      "inputs": [],
      "name": "MintERC2309QuantityExceedsLimit",
      "type": "error"
    },
    {
      "inputs": [],
      "name": "MintToZeroAddress",
      "type": "error"
    },
    {
      "inputs": [],
      "name": "MintZeroQuantity",
      "type": "error"
    },
    {
      "inputs": [
        {
          "internalType": "address",
          "name": "operator",
          "type": "address"
        }
      ],
      "name": "OperatorNotAllowed",
      "type": "error"
    },
    {
      "inputs": [],
      "name": "OwnerQueryForNonexistentToken",
      "type": "error"
    },
    {
      "inputs": [],
      "name": "OwnershipNotInitializedForExtraData",
      "type": "error"
    },
    {
      "inputs": [],
      "name": "TransferCallerNotOwnerNorApproved",
      "type": "error"
    },
    {
      "inputs": [],
      "name": "TransferFromIncorrectOwner",
      "type": "error"
    },
    {
      "inputs": [],
      "name": "TransferToNonERC721ReceiverImplementer",
      "type": "error"
    },
    {
      "inputs": [],
      "name": "TransferToZeroAddress",
      "type": "error"
    },
    {
      "inputs": [],
      "name": "URIQueryForNonexistentToken",
      "type": "error"
    },
    {
      "anonymous": false,
      "inputs": [
        {
          "indexed": true,
          "internalType": "address",
          "name": "owner",
          "type": "address"
        },
        {
          "indexed": true,
          "internalType": "address",
          "name": "approved",
          "type": "address"
        },
        {
          "indexed": true,
          "internalType": "uint256",
          "name": "tokenId",
          "type": "uint256"
        }
      ],
      "name": "Approval",
      "type": "event"
    },
    {
      "anonymous": false,
      "inputs": [
        {
          "indexed": true,
          "internalType": "address",
          "name": "owner",
          "type": "address"
        },
        {
          "indexed": true,
          "internalType": "address",
          "name": "operator",
          "type": "address"
        },
        {
          "indexed": false,
          "internalType": "bool",
          "name": "approved",
          "type": "bool"
        }
      ],
      "name": "ApprovalForAll",
      "type": "event"
    },
    {
      "anonymous": false,
      "inputs": [
        {
          "indexed": true,
          "internalType": "uint256",
          "name": "fromTokenId",
          "type": "uint256"
        },
        {
          "indexed": false,
          "internalType": "uint256",
          "name": "toTokenId",
          "type": "uint256"
        },
        {
          "indexed": true,
          "internalType": "address",
          "name": "from",
          "type": "address"
        },
        {
          "indexed": true,
          "internalType": "address",
          "name": "to",
          "type": "address"
        }
      ],
      "name": "ConsecutiveTransfer",
      "type": "event"
    },
    {
      "anonymous": false,
      "inputs": [
        {
          "indexed": false,
          "internalType": "address",
          "name": "user",
          "type": "address"
        }
      ],
      "name": "MintSuccessful",
      "type": "event"
    },
    {
      "anonymous": false,
      "inputs": [
        {
          "indexed": true,
          "internalType": "address",
          "name": "previousOwner",
          "type": "address"
        },
        {
          "indexed": true,
          "internalType": "address",
          "name": "newOwner",
          "type": "address"
        }
      ],
      "name": "OwnershipTransferred",
      "type": "event"
    },
    {
      "anonymous": false,
      "inputs": [
        {
          "indexed": true,
          "internalType": "address",
          "name": "from",
          "type": "address"
        },
        {
          "indexed": true,
          "internalType": "address",
          "name": "to",
          "type": "address"
        },
        {
          "indexed": true,
          "internalType": "uint256",
          "name": "tokenId",
          "type": "uint256"
        }
      ],
      "name": "Transfer",
      "type": "event"
    },
    {
      "inputs": [
        {
          "internalType": "address",
          "name": "to",
          "type": "address"
        },
        {
          "internalType": "uint256",
          "name": "tokenId",
          "type": "uint256"
        }
      ],
      "name": "approve",
      "outputs": [],
      "stateMutability": "nonpayable",
      "type": "function"
    },
    {
      "inputs": [
        {
          "internalType": "address",
          "name": "owner",
          "type": "address"
        }
      ],
      "name": "balanceOf",
      "outputs": [
        {
          "internalType": "uint256",
          "name": "",
          "type": "uint256"
        }
      ],
      "stateMutability": "view",
      "type": "function"
    },
    {
      "inputs": [],
      "name": "baseTokenURI",
      "outputs": [
        {
          "internalType": "string",
          "name": "",
          "type": "string"
        }
      ],
      "stateMutability": "pure",
      "type": "function"
    },
    {
      "inputs": [],
      "name": "burnAmount",
      "outputs": [
        {
          "internalType": "uint256",
          "name": "",
          "type": "uint256"
        }
      ],
      "stateMutability": "view",
      "type": "function"
    },
    {
      "inputs": [],
      "name": "contractURI",
      "outputs": [
        {
          "internalType": "string",
          "name": "",
          "type": "string"
        }
      ],
      "stateMutability": "pure",
      "type": "function"
    },
    {
      "inputs": [
        {
          "internalType": "uint256",
          "name": "tokenId",
          "type": "uint256"
        }
      ],
      "name": "getApproved",
      "outputs": [
        {
          "internalType": "address",
          "name": "",
          "type": "address"
        }
      ],
      "stateMutability": "view",
      "type": "function"
    },
    {
      "inputs": [],
      "name": "getPrice",
      "outputs": [
        {
          "internalType": "uint256",
          "name": "",
          "type": "uint256"
        }
      ],
      "stateMutability": "view",
      "type": "function"
    },
    {
      "inputs": [
        {
          "internalType": "uint256",
          "name": "",
          "type": "uint256"
        }
      ],
      "name": "idToMetadata",
      "outputs": [
        {
          "internalType": "uint256",
          "name": "",
          "type": "uint256"
        }
      ],
      "stateMutability": "view",
      "type": "function"
    },
    {
      "inputs": [
        {
          "internalType": "address",
          "name": "owner",
          "type": "address"
        },
        {
          "internalType": "address",
          "name": "operator",
          "type": "address"
        }
      ],
      "name": "isApprovedForAll",
      "outputs": [
        {
          "internalType": "bool",
          "name": "",
          "type": "bool"
        }
      ],
      "stateMutability": "view",
      "type": "function"
    },
    {
      "inputs": [],
      "name": "max_supply",
      "outputs": [
        {
          "internalType": "uint256",
          "name": "",
          "type": "uint256"
        }
      ],
      "stateMutability": "view",
      "type": "function"
    },
    {
      "inputs": [
        {
          "internalType": "uint256",
          "name": "quantity",
          "type": "uint256"
        }
      ],
      "name": "mint",
      "outputs": [],
      "stateMutability": "payable",
      "type": "function"
    },
    {
      "inputs": [],
      "name": "mintEnabled",
      "outputs": [
        {
          "internalType": "bool",
          "name": "",
          "type": "bool"
        }
      ],
      "stateMutability": "view",
      "type": "function"
    },
    {
      "inputs": [
        {
          "internalType": "address",
          "name": "_user",
          "type": "address"
        },
        {
          "internalType": "uint256",
          "name": "_metadataId",
          "type": "uint256"
        }
      ],
      "name": "mintFromEquip",
      "outputs": [],
      "stateMutability": "nonpayable",
      "type": "function"
    },
    {
      "inputs": [],
      "name": "name",
      "outputs": [
        {
          "internalType": "string",
          "name": "",
          "type": "string"
        }
      ],
      "stateMutability": "view",
      "type": "function"
    },
    {
      "inputs": [],
      "name": "owner",
      "outputs": [
        {
          "internalType": "address",
          "name": "",
          "type": "address"
        }
      ],
      "stateMutability": "view",
      "type": "function"
    },
    {
      "inputs": [
        {
          "internalType": "uint256",
          "name": "tokenId",
          "type": "uint256"
        }
      ],
      "name": "ownerOf",
      "outputs": [
        {
          "internalType": "address",
          "name": "",
          "type": "address"
        }
      ],
      "stateMutability": "view",
      "type": "function"
    },
    {
      "inputs": [],
      "name": "price",
      "outputs": [
        {
          "internalType": "uint256",
          "name": "",
          "type": "uint256"
        }
      ],
      "stateMutability": "view",
      "type": "function"
    },
    {
      "inputs": [],
      "name": "renounceOwnership",
      "outputs": [],
      "stateMutability": "nonpayable",
      "type": "function"
    },
    {
      "inputs": [
        {
          "internalType": "address",
          "name": "from",
          "type": "address"
        },
        {
          "internalType": "address",
          "name": "to",
          "type": "address"
        },
        {
          "internalType": "uint256",
          "name": "tokenId",
          "type": "uint256"
        }
      ],
      "name": "safeTransferFrom",
      "outputs": [],
      "stateMutability": "nonpayable",
      "type": "function"
    },
    {
      "inputs": [
        {
          "internalType": "address",
          "name": "from",
          "type": "address"
        },
        {
          "internalType": "address",
          "name": "to",
          "type": "address"
        },
        {
          "internalType": "uint256",
          "name": "tokenId",
          "type": "uint256"
        },
        {
          "internalType": "bytes",
          "name": "data",
          "type": "bytes"
        }
      ],
      "name": "safeTransferFrom",
      "outputs": [],
      "stateMutability": "nonpayable",
      "type": "function"
    },
    {
      "inputs": [
        {
          "internalType": "address",
          "name": "operator",
          "type": "address"
        },
        {
          "internalType": "bool",
          "name": "approved",
          "type": "bool"
        }
      ],
      "name": "setApprovalForAll",
      "outputs": [],
      "stateMutability": "nonpayable",
      "type": "function"
    },
    {
      "inputs": [
        {
          "internalType": "address",
          "name": "_equipAddress",
          "type": "address"
        }
      ],
      "name": "setEquipAddress",
      "outputs": [],
      "stateMutability": "nonpayable",
      "type": "function"
    },
    {
      "inputs": [
        {
          "internalType": "bool",
          "name": "_state",
          "type": "bool"
        }
      ],
      "name": "setMintEnabled",
      "outputs": [],
      "stateMutability": "nonpayable",
      "type": "function"
    },
    {
      "inputs": [
        {
          "internalType": "uint256",
          "name": "_price",
          "type": "uint256"
        }
      ],
      "name": "setPrice",
      "outputs": [],
      "stateMutability": "nonpayable",
      "type": "function"
    },
    {
      "inputs": [
        {
          "internalType": "bytes4",
          "name": "interfaceId",
          "type": "bytes4"
        }
      ],
      "name": "supportsInterface",
      "outputs": [
        {
          "internalType": "bool",
          "name": "",
          "type": "bool"
        }
      ],
      "stateMutability": "view",
      "type": "function"
    },
    {
      "inputs": [],
      "name": "symbol",
      "outputs": [
        {
          "internalType": "string",
          "name": "",
          "type": "string"
        }
      ],
      "stateMutability": "view",
      "type": "function"
    },
    {
      "inputs": [
        {
          "internalType": "uint256",
          "name": "_tokenId",
          "type": "uint256"
        }
      ],
      "name": "tokenURI",
      "outputs": [
        {
          "internalType": "string",
          "name": "",
          "type": "string"
        }
      ],
      "stateMutability": "view",
      "type": "function"
    },
    {
      "inputs": [],
      "name": "totalSupply",
      "outputs": [
        {
          "internalType": "uint256",
          "name": "",
          "type": "uint256"
        }
      ],
      "stateMutability": "view",
      "type": "function"
    },
    {
      "inputs": [
        {
          "internalType": "address",
          "name": "from",
          "type": "address"
        },
        {
          "internalType": "address",
          "name": "to",
          "type": "address"
        },
        {
          "internalType": "uint256",
          "name": "tokenId",
          "type": "uint256"
        }
      ],
      "name": "transferFrom",
      "outputs": [],
      "stateMutability": "nonpayable",
      "type": "function"
    },
    {
      "inputs": [
        {
          "internalType": "address",
          "name": "newOwner",
          "type": "address"
        }
      ],
      "name": "transferOwnership",
      "outputs": [],
      "stateMutability": "nonpayable",
      "type": "function"
    },
    {
      "inputs": [],
      "name": "uriPrefix",
      "outputs": [
        {
          "internalType": "string",
          "name": "",
          "type": "string"
        }
      ],
      "stateMutability": "view",
      "type": "function"
    },
    {
      "inputs": [],
      "name": "uriSuffix",
      "outputs": [
        {
          "internalType": "string",
          "name": "",
          "type": "string"
        }
      ],
      "stateMutability": "view",
      "type": "function"
    },
    {
      "inputs": [],
      "name": "withdraw",
      "outputs": [],
      "stateMutability": "nonpayable",
      "type": "function"
    }
  ],
  "bytecode": "0x608060405260405180602001604052806000815250600a90805190602001906200002b92919062000451565b506040518060400160405280600581526020017f2e6a736f6e000000000000000000000000000000000000000000000000000000815250600b90805190602001906200007992919062000451565b506064600c556000600f553480156200009157600080fd5b50733cc6cdda760b79bafa08df41ecfa224f810dceb660016040518060400160405280600981526020017f536e65616b6572205800000000000000000000000000000000000000000000008152506040518060400160405280600281526020017f535800000000000000000000000000000000000000000000000000000000000081525062000135620001296200037c60201b60201c565b6200038460201b60201c565b81600390805190602001906200014d92919062000451565b5080600490805190602001906200016692919062000451565b50620001776200044860201b60201c565b600181905550505060006daaeb6d7670e522a718067333cd4e73ffffffffffffffffffffffffffffffffffffffff163b1115620003745780156200023a576daaeb6d7670e522a718067333cd4e73ffffffffffffffffffffffffffffffffffffffff16637d3e3dbe30846040518363ffffffff1660e01b81526004016200020092919062000546565b600060405180830381600087803b1580156200021b57600080fd5b505af115801562000230573d6000803e3d6000fd5b5050505062000373565b600073ffffffffffffffffffffffffffffffffffffffff168273ffffffffffffffffffffffffffffffffffffffff1614620002f4576daaeb6d7670e522a718067333cd4e73ffffffffffffffffffffffffffffffffffffffff1663a0af290330846040518363ffffffff1660e01b8152600401620002ba92919062000546565b600060405180830381600087803b158015620002d557600080fd5b505af1158015620002ea573d6000803e3d6000fd5b5050505062000372565b6daaeb6d7670e522a718067333cd4e73ffffffffffffffffffffffffffffffffffffffff16634420e486306040518263ffffffff1660e01b81526004016200033d919062000573565b600060405180830381600087803b1580156200035857600080fd5b505af11580156200036d573d6000803e3d6000fd5b505050505b5b5b5050620005f4565b600033905090565b60008060009054906101000a900473ffffffffffffffffffffffffffffffffffffffff169050816000806101000a81548173ffffffffffffffffffffffffffffffffffffffff021916908373ffffffffffffffffffffffffffffffffffffffff1602179055508173ffffffffffffffffffffffffffffffffffffffff168173ffffffffffffffffffffffffffffffffffffffff167f8be0079c531659141344cd1fd0a4f28419497f9722a3daafe3b4186f6b6457e060405160405180910390a35050565b60006001905090565b8280546200045f90620005bf565b90600052602060002090601f016020900481019282620004835760008555620004cf565b82601f106200049e57805160ff1916838001178555620004cf565b82800160010185558215620004cf579182015b82811115620004ce578251825591602001919060010190620004b1565b5b509050620004de9190620004e2565b5090565b5b80821115620004fd576000816000905550600101620004e3565b5090565b600073ffffffffffffffffffffffffffffffffffffffff82169050919050565b60006200052e8262000501565b9050919050565b620005408162000521565b82525050565b60006040820190506200055d600083018562000535565b6200056c602083018462000535565b9392505050565b60006020820190506200058a600083018462000535565b92915050565b7f4e487b7100000000000000000000000000000000000000000000000000000000600052602260045260246000fd5b60006002820490506001821680620005d857607f821691505b602082108103620005ee57620005ed62000590565b5b50919050565b61347380620006046000396000f3fe6080604052600436106101ee5760003560e01c806391b7f5ed1161010d578063b88d4fde116100a0578063e8a3d4851161006f578063e8a3d485146106ba578063e985e9c5146106e5578063f2fde38b14610722578063f307101a1461074b578063f46a04eb14610788576101ee565b8063b88d4fde146105fe578063c87b56dd14610627578063d123973014610664578063d547cfb71461068f576101ee565b8063a0712d68116100dc578063a0712d6814610567578063a22cb46514610583578063afa20f54146105ac578063b8829a4c146105d5576101ee565b806391b7f5ed146104bd57806395d89b41146104e657806398d5fdca14610511578063a035b1fe1461053c576101ee565b8063486a7e6b1161018557806370a082311161015457806370a0823114610413578063715018a6146104505780638a333b50146104675780638da5cb5b14610492576101ee565b8063486a7e6b146103555780635503a0e81461038057806362b99ad4146103ab5780636352211e146103d6576101ee565b806318160ddd116101c157806318160ddd146102c157806323b872dd146102ec5780633ccfd60b1461031557806342842e0e1461032c576101ee565b806301ffc9a7146101f357806306fdde0314610230578063081812fc1461025b578063095ea7b314610298575b600080fd5b3480156101ff57600080fd5b5061021a60048036038101906102159190612704565b6107b1565b604051610227919061274c565b60405180910390f35b34801561023c57600080fd5b50610245610843565b6040516102529190612800565b60405180910390f35b34801561026757600080fd5b50610282600480360381019061027d9190612858565b6108d5565b60405161028f91906128c6565b60405180910390f35b3480156102a457600080fd5b506102bf60048036038101906102ba919061290d565b610954565b005b3480156102cd57600080fd5b506102d6610a98565b6040516102e3919061295c565b60405180910390f35b3480156102f857600080fd5b50610313600480360381019061030e9190612977565b610aaf565b005b34801561032157600080fd5b5061032a610c91565b005b34801561033857600080fd5b50610353600480360381019061034e9190612977565b610ce2565b005b34801561036157600080fd5b5061036a610ec4565b604051610377919061295c565b60405180910390f35b34801561038c57600080fd5b50610395610eca565b6040516103a29190612800565b60405180910390f35b3480156103b757600080fd5b506103c0610f58565b6040516103cd9190612800565b60405180910390f35b3480156103e257600080fd5b506103fd60048036038101906103f89190612858565b610fe6565b60405161040a91906128c6565b60405180910390f35b34801561041f57600080fd5b5061043a600480360381019061043591906129ca565b610ff8565b604051610447919061295c565b60405180910390f35b34801561045c57600080fd5b506104656110b0565b005b34801561047357600080fd5b5061047c6110c4565b604051610489919061295c565b60405180910390f35b34801561049e57600080fd5b506104a76110ca565b6040516104b491906128c6565b60405180910390f35b3480156104c957600080fd5b506104e460048036038101906104df9190612858565b6110f3565b005b3480156104f257600080fd5b506104fb611105565b6040516105089190612800565b60405180910390f35b34801561051d57600080fd5b50610526611197565b604051610533919061295c565b60405180910390f35b34801561054857600080fd5b506105516111a1565b60405161055e919061295c565b60405180910390f35b610581600480360381019061057c9190612858565b6111a7565b005b34801561058f57600080fd5b506105aa60048036038101906105a59190612a23565b6112e5565b005b3480156105b857600080fd5b506105d360048036038101906105ce91906129ca565b61145c565b005b3480156105e157600080fd5b506105fc60048036038101906105f7919061290d565b6114a8565b005b34801561060a57600080fd5b5061062560048036038101906106209190612b98565b6115f5565b005b34801561063357600080fd5b5061064e60048036038101906106499190612858565b6117da565b60405161065b9190612800565b60405180910390f35b34801561067057600080fd5b50610679611897565b604051610686919061274c565b60405180910390f35b34801561069b57600080fd5b506106a46118aa565b6040516106b19190612800565b60405180910390f35b3480156106c657600080fd5b506106cf6118b9565b6040516106dc9190612800565b60405180910390f35b3480156106f157600080fd5b5061070c60048036038101906107079190612c1b565b6118d9565b604051610719919061274c565b60405180910390f35b34801561072e57600080fd5b50610749600480360381019061074491906129ca565b61196d565b005b34801561075757600080fd5b50610772600480360381019061076d9190612858565b6119f0565b60405161077f919061295c565b60405180910390f35b34801561079457600080fd5b506107af60048036038101906107aa9190612c5b565b611a08565b005b60006301ffc9a760e01b827bffffffffffffffffffffffffffffffffffffffffffffffffffffffff1916148061080c57506380ac58cd60e01b827bffffffffffffffffffffffffffffffffffffffffffffffffffffffff1916145b8061083c5750635b5e139f60e01b827bffffffffffffffffffffffffffffffffffffffffffffffffffffffff1916145b9050919050565b60606003805461085290612cb7565b80601f016020809104026020016040519081016040528092919081815260200182805461087e90612cb7565b80156108cb5780601f106108a0576101008083540402835291602001916108cb565b820191906000526020600020905b8154815290600101906020018083116108ae57829003601f168201915b5050505050905090565b60006108e082611a2d565b610916576040517fcf4700e400000000000000000000000000000000000000000000000000000000815260040160405180910390fd5b6007600083815260200190815260200160002060000160009054906101000a900473ffffffffffffffffffffffffffffffffffffffff169050919050565b600061095f82610fe6565b90508073ffffffffffffffffffffffffffffffffffffffff16610980611a8c565b73ffffffffffffffffffffffffffffffffffffffff16146109e3576109ac816109a7611a8c565b6118d9565b6109e2576040517fcfb3b94200000000000000000000000000000000000000000000000000000000815260040160405180910390fd5b5b826007600084815260200190815260200160002060000160006101000a81548173ffffffffffffffffffffffffffffffffffffffff021916908373ffffffffffffffffffffffffffffffffffffffff160217905550818373ffffffffffffffffffffffffffffffffffffffff168273ffffffffffffffffffffffffffffffffffffffff167f8c5be1e5ebec7d5bd14f71427d1e84f3dd0314c0f7b2291e5b200ac8c7c3b92560405160405180910390a4505050565b6000610aa2611a94565b6002546001540303905090565b8260006daaeb6d7670e522a718067333cd4e73ffffffffffffffffffffffffffffffffffffffff163b1115610c7f573373ffffffffffffffffffffffffffffffffffffffff168173ffffffffffffffffffffffffffffffffffffffff1603610b2157610b1c848484611a9d565b610c8b565b6daaeb6d7670e522a718067333cd4e73ffffffffffffffffffffffffffffffffffffffff1663c617113430336040518363ffffffff1660e01b8152600401610b6a929190612ce8565b602060405180830381865afa158015610b87573d6000803e3d6000fd5b505050506040513d601f19601f82011682018060405250810190610bab9190612d26565b8015610c3d57506daaeb6d7670e522a718067333cd4e73ffffffffffffffffffffffffffffffffffffffff1663c617113430836040518363ffffffff1660e01b8152600401610bfb929190612ce8565b602060405180830381865afa158015610c18573d6000803e3d6000fd5b505050506040513d601f19601f82011682018060405250810190610c3c9190612d26565b5b610c7e57336040517fede71dcc000000000000000000000000000000000000000000000000000000008152600401610c7591906128c6565b60405180910390fd5b5b610c8a848484611a9d565b5b50505050565b610c99611dbf565b3373ffffffffffffffffffffffffffffffffffffffff166108fc479081150290604051600060405180830381858888f19350505050158015610cdf573d6000803e3d6000fd5b50565b8260006daaeb6d7670e522a718067333cd4e73ffffffffffffffffffffffffffffffffffffffff163b1115610eb2573373ffffffffffffffffffffffffffffffffffffffff168173ffffffffffffffffffffffffffffffffffffffff1603610d5457610d4f848484611e3d565b610ebe565b6daaeb6d7670e522a718067333cd4e73ffffffffffffffffffffffffffffffffffffffff1663c617113430336040518363ffffffff1660e01b8152600401610d9d929190612ce8565b602060405180830381865afa158015610dba573d6000803e3d6000fd5b505050506040513d601f19601f82011682018060405250810190610dde9190612d26565b8015610e7057506daaeb6d7670e522a718067333cd4e73ffffffffffffffffffffffffffffffffffffffff1663c617113430836040518363ffffffff1660e01b8152600401610e2e929190612ce8565b602060405180830381865afa158015610e4b573d6000803e3d6000fd5b505050506040513d601f19601f82011682018060405250810190610e6f9190612d26565b5b610eb157336040517fede71dcc000000000000000000000000000000000000000000000000000000008152600401610ea891906128c6565b60405180910390fd5b5b610ebd848484611e3d565b5b50505050565b600d5481565b600b8054610ed790612cb7565b80601f0160208091040260200160405190810160405280929190818152602001828054610f0390612cb7565b8015610f505780601f10610f2557610100808354040283529160200191610f50565b820191906000526020600020905b815481529060010190602001808311610f3357829003601f168201915b505050505081565b600a8054610f6590612cb7565b80601f0160208091040260200160405190810160405280929190818152602001828054610f9190612cb7565b8015610fde5780601f10610fb357610100808354040283529160200191610fde565b820191906000526020600020905b815481529060010190602001808311610fc157829003601f168201915b505050505081565b6000610ff182611e5d565b9050919050565b60008073ffffffffffffffffffffffffffffffffffffffff168273ffffffffffffffffffffffffffffffffffffffff160361105f576040517f8f4eb60400000000000000000000000000000000000000000000000000000000815260040160405180910390fd5b67ffffffffffffffff600660008473ffffffffffffffffffffffffffffffffffffffff1673ffffffffffffffffffffffffffffffffffffffff16815260200190815260200160002054169050919050565b6110b8611dbf565b6110c26000611f29565b565b600c5481565b60008060009054906101000a900473ffffffffffffffffffffffffffffffffffffffff16905090565b6110fb611dbf565b80600f8190555050565b60606004805461111490612cb7565b80601f016020809104026020016040519081016040528092919081815260200182805461114090612cb7565b801561118d5780601f106111625761010080835404028352916020019161118d565b820191906000526020600020905b81548152906001019060200180831161117057829003601f168201915b5050505050905090565b6000600f54905090565b600f5481565b600e60009054906101000a900460ff166111f6576040517f08c379a00000000000000000000000000000000000000000000000000000000081526004016111ed90612d9f565b60405180910390fd5b600c5481611202610a98565b61120c9190612dee565b1061124c576040517f08c379a000000000000000000000000000000000000000000000000000000000815260040161124390612e90565b60405180910390fd5b80611255611197565b61125f9190612eb0565b3410156112a1576040517f08c379a000000000000000000000000000000000000000000000000000000000815260040161129890612f7c565b60405180910390fd5b6112ab3382611fed565b7ff5535ccd9f40eb4bc73fac8710dbb2effbf3329da83f62b35d9aa88161bb85ca336040516112da91906128c6565b60405180910390a150565b6112ed611a8c565b73ffffffffffffffffffffffffffffffffffffffff168273ffffffffffffffffffffffffffffffffffffffff1603611351576040517fb06307db00000000000000000000000000000000000000000000000000000000815260040160405180910390fd5b806008600061135e611a8c565b73ffffffffffffffffffffffffffffffffffffffff1673ffffffffffffffffffffffffffffffffffffffff16815260200190815260200160002060008473ffffffffffffffffffffffffffffffffffffffff1673ffffffffffffffffffffffffffffffffffffffff16815260200190815260200160002060006101000a81548160ff0219169083151502179055508173ffffffffffffffffffffffffffffffffffffffff1661140b611a8c565b73ffffffffffffffffffffffffffffffffffffffff167f17307eab39ab6107e8899845ad3d59bd9653f200f220920489ca2b5937696c3183604051611450919061274c565b60405180910390a35050565b611464611dbf565b80600960006101000a81548173ffffffffffffffffffffffffffffffffffffffff021916908373ffffffffffffffffffffffffffffffffffffffff16021790555050565b600960009054906101000a900473ffffffffffffffffffffffffffffffffffffffff1673ffffffffffffffffffffffffffffffffffffffff163373ffffffffffffffffffffffffffffffffffffffff1614611538576040517f08c379a000000000000000000000000000000000000000000000000000000000815260040161152f9061300e565b60405180910390fd5b600c546001611545610a98565b61154f9190612dee565b1115611590576040517f08c379a000000000000000000000000000000000000000000000000000000000815260040161158790612e90565b60405180910390fd5b61159b826001611fed565b80601060006115a8610a98565b8152602001908152602001600020819055507ff5535ccd9f40eb4bc73fac8710dbb2effbf3329da83f62b35d9aa88161bb85ca336040516115e991906128c6565b60405180910390a15050565b8360006daaeb6d7670e522a718067333cd4e73ffffffffffffffffffffffffffffffffffffffff163b11156117c6573373ffffffffffffffffffffffffffffffffffffffff168173ffffffffffffffffffffffffffffffffffffffff160361166857611663858585856121a9565b6117d3565b6daaeb6d7670e522a718067333cd4e73ffffffffffffffffffffffffffffffffffffffff1663c617113430336040518363ffffffff1660e01b81526004016116b1929190612ce8565b602060405180830381865afa1580156116ce573d6000803e3d6000fd5b505050506040513d601f19601f820116820180604052508101906116f29190612d26565b801561178457506daaeb6d7670e522a718067333cd4e73ffffffffffffffffffffffffffffffffffffffff1663c617113430836040518363ffffffff1660e01b8152600401611742929190612ce8565b602060405180830381865afa15801561175f573d6000803e3d6000fd5b505050506040513d601f19601f820116820180604052508101906117839190612d26565b5b6117c557336040517fede71dcc0000000000000000000000000000000000000000000000000000000081526004016117bc91906128c6565b60405180910390fd5b5b6117d2858585856121a9565b5b5050505050565b60606117e582611a2d565b611824576040517f08c379a000000000000000000000000000000000000000000000000000000000815260040161181b906130a0565b60405180910390fd5b600061182e61221c565b9050600081511161184e576040518060200160405280600081525061188f565b8061186b601060008681526020019081526020016000205461223c565b600b60405160200161187f93929190613190565b6040516020818303038152906040525b915050919050565b600e60009054906101000a900460ff1681565b60606118b461221c565b905090565b60606040518060600160405280603681526020016133d260369139905090565b6000600860008473ffffffffffffffffffffffffffffffffffffffff1673ffffffffffffffffffffffffffffffffffffffff16815260200190815260200160002060008373ffffffffffffffffffffffffffffffffffffffff1673ffffffffffffffffffffffffffffffffffffffff16815260200190815260200160002060009054906101000a900460ff16905092915050565b611975611dbf565b600073ffffffffffffffffffffffffffffffffffffffff168173ffffffffffffffffffffffffffffffffffffffff16036119e4576040517f08c379a00000000000000000000000000000000000000000000000000000000081526004016119db90613233565b60405180910390fd5b6119ed81611f29565b50565b60106020528060005260406000206000915090505481565b611a10611dbf565b80600e60006101000a81548160ff02191690831515021790555050565b600081611a38611a94565b11158015611a47575060015482105b8015611a85575060007c0100000000000000000000000000000000000000000000000000000000600560008581526020019081526020016000205416145b9050919050565b600033905090565b60006001905090565b6000611aa882611e5d565b90508373ffffffffffffffffffffffffffffffffffffffff168173ffffffffffffffffffffffffffffffffffffffff1614611b0f576040517fa114810000000000000000000000000000000000000000000000000000000000815260040160405180910390fd5b600080611b1b8461230a565b91509150611b318187611b2c611a8c565b612331565b611b7d57611b4686611b41611a8c565b6118d9565b611b7c576040517f59c896be00000000000000000000000000000000000000000000000000000000815260040160405180910390fd5b5b600073ffffffffffffffffffffffffffffffffffffffff168573ffffffffffffffffffffffffffffffffffffffff1603611be3576040517fea553b3400000000000000000000000000000000000000000000000000000000815260040160405180910390fd5b611bf08686866001612375565b8015611bfb57600082555b600660008773ffffffffffffffffffffffffffffffffffffffff1673ffffffffffffffffffffffffffffffffffffffff168152602001908152602001600020600081546001900391905081905550600660008673ffffffffffffffffffffffffffffffffffffffff1673ffffffffffffffffffffffffffffffffffffffff1681526020019081526020016000206000815460010191905081905550611cc985611ca588888761237b565b7c0200000000000000000000000000000000000000000000000000000000176123a3565b600560008681526020019081526020016000208190555060007c0200000000000000000000000000000000000000000000000000000000841603611d4f5760006001850190506000600560008381526020019081526020016000205403611d4d576001548114611d4c578360056000838152602001908152602001600020819055505b5b505b838573ffffffffffffffffffffffffffffffffffffffff168773ffffffffffffffffffffffffffffffffffffffff167fddf252ad1be2c89b69c2b068fc378daa952ba7f163c4a11628f55a4df523b3ef60405160405180910390a4611db786868660016123ce565b505050505050565b611dc76123d4565b73ffffffffffffffffffffffffffffffffffffffff16611de56110ca565b73ffffffffffffffffffffffffffffffffffffffff1614611e3b576040517f08c379a0000000000000000000000000000000000000000000000000000000008152600401611e329061329f565b60405180910390fd5b565b611e58838383604051806020016040528060008152506115f5565b505050565b60008082905080611e6c611a94565b11611ef257600154811015611ef15760006005600083815260200190815260200160002054905060007c0100000000000000000000000000000000000000000000000000000000821603611eef575b60008103611ee5576005600083600190039350838152602001908152602001600020549050611ebb565b8092505050611f24565b505b5b6040517fdf2d9b4200000000000000000000000000000000000000000000000000000000815260040160405180910390fd5b919050565b60008060009054906101000a900473ffffffffffffffffffffffffffffffffffffffff169050816000806101000a81548173ffffffffffffffffffffffffffffffffffffffff021916908373ffffffffffffffffffffffffffffffffffffffff1602179055508173ffffffffffffffffffffffffffffffffffffffff168173ffffffffffffffffffffffffffffffffffffffff167f8be0079c531659141344cd1fd0a4f28419497f9722a3daafe3b4186f6b6457e060405160405180910390a35050565b600060015490506000820361202e576040517fb562e8dd00000000000000000000000000000000000000000000000000000000815260040160405180910390fd5b61203b6000848385612375565b600160406001901b178202600660008573ffffffffffffffffffffffffffffffffffffffff1673ffffffffffffffffffffffffffffffffffffffff168152602001908152602001600020600082825401925050819055506120b2836120a3600086600061237b565b6120ac856123dc565b176123a3565b6005600083815260200190815260200160002081905550600080838301905073ffffffffffffffffffffffffffffffffffffffff85169150828260007fddf252ad1be2c89b69c2b068fc378daa952ba7f163c4a11628f55a4df523b3ef600080a4600183015b81811461215357808360007fddf252ad1be2c89b69c2b068fc378daa952ba7f163c4a11628f55a4df523b3ef600080a4600181019050612118565b506000820361218e576040517f2e07630000000000000000000000000000000000000000000000000000000000815260040160405180910390fd5b8060018190555050506121a460008483856123ce565b505050565b6121b4848484610aaf565b60008373ffffffffffffffffffffffffffffffffffffffff163b14612216576121df848484846123ec565b612215576040517fd1a57ed600000000000000000000000000000000000000000000000000000000815260040160405180910390fd5b5b50505050565b606060405180606001604052806036815260200161340860369139905090565b60606000600161224b8461253c565b01905060008167ffffffffffffffff81111561226a57612269612a6d565b5b6040519080825280601f01601f19166020018201604052801561229c5781602001600182028036833780820191505090505b509050600082602001820190505b6001156122ff578080600190039150507f3031323334353637383961626364656600000000000000000000000000000000600a86061a8153600a85816122f3576122f26132bf565b5b049450600085036122aa575b819350505050919050565b60008060006007600085815260200190815260200160002090508092508254915050915091565b600073ffffffffffffffffffffffffffffffffffffffff8316925073ffffffffffffffffffffffffffffffffffffffff821691508382148383141790509392505050565b50505050565b60008060e883901c905060e861239286868461268f565b62ffffff16901b9150509392505050565b600073ffffffffffffffffffffffffffffffffffffffff83169250814260a01b178317905092915050565b50505050565b600033905090565b60006001821460e11b9050919050565b60008373ffffffffffffffffffffffffffffffffffffffff1663150b7a02612412611a8c565b8786866040518563ffffffff1660e01b81526004016124349493929190613343565b6020604051808303816000875af192505050801561247057506040513d601f19601f8201168201806040525081019061246d91906133a4565b60015b6124e9573d80600081146124a0576040519150601f19603f3d011682016040523d82523d6000602084013e6124a5565b606091505b5060008151036124e1576040517fd1a57ed600000000000000000000000000000000000000000000000000000000815260040160405180910390fd5b805181602001fd5b63150b7a0260e01b7bffffffffffffffffffffffffffffffffffffffffffffffffffffffff1916817bffffffffffffffffffffffffffffffffffffffffffffffffffffffff191614915050949350505050565b600080600090507a184f03e93ff9f4daa797ed6e38ed64bf6a1f010000000000000000831061259a577a184f03e93ff9f4daa797ed6e38ed64bf6a1f01000000000000000083816125905761258f6132bf565b5b0492506040810190505b6d04ee2d6d415b85acef810000000083106125d7576d04ee2d6d415b85acef810000000083816125cd576125cc6132bf565b5b0492506020810190505b662386f26fc10000831061260657662386f26fc1000083816125fc576125fb6132bf565b5b0492506010810190505b6305f5e100831061262f576305f5e1008381612625576126246132bf565b5b0492506008810190505b612710831061265457612710838161264a576126496132bf565b5b0492506004810190505b60648310612677576064838161266d5761266c6132bf565b5b0492506002810190505b600a8310612686576001810190505b80915050919050565b60009392505050565b6000604051905090565b600080fd5b600080fd5b60007fffffffff0000000000000000000000000000000000000000000000000000000082169050919050565b6126e1816126ac565b81146126ec57600080fd5b50565b6000813590506126fe816126d8565b92915050565b60006020828403121561271a576127196126a2565b5b6000612728848285016126ef565b91505092915050565b60008115159050919050565b61274681612731565b82525050565b6000602082019050612761600083018461273d565b92915050565b600081519050919050565b600082825260208201905092915050565b60005b838110156127a1578082015181840152602081019050612786565b838111156127b0576000848401525b50505050565b6000601f19601f8301169050919050565b60006127d282612767565b6127dc8185612772565b93506127ec818560208601612783565b6127f5816127b6565b840191505092915050565b6000602082019050818103600083015261281a81846127c7565b905092915050565b6000819050919050565b61283581612822565b811461284057600080fd5b50565b6000813590506128528161282c565b92915050565b60006020828403121561286e5761286d6126a2565b5b600061287c84828501612843565b91505092915050565b600073ffffffffffffffffffffffffffffffffffffffff82169050919050565b60006128b082612885565b9050919050565b6128c0816128a5565b82525050565b60006020820190506128db60008301846128b7565b92915050565b6128ea816128a5565b81146128f557600080fd5b50565b600081359050612907816128e1565b92915050565b60008060408385031215612924576129236126a2565b5b6000612932858286016128f8565b925050602061294385828601612843565b9150509250929050565b61295681612822565b82525050565b6000602082019050612971600083018461294d565b92915050565b6000806000606084860312156129905761298f6126a2565b5b600061299e868287016128f8565b93505060206129af868287016128f8565b92505060406129c086828701612843565b9150509250925092565b6000602082840312156129e0576129df6126a2565b5b60006129ee848285016128f8565b91505092915050565b612a0081612731565b8114612a0b57600080fd5b50565b600081359050612a1d816129f7565b92915050565b60008060408385031215612a3a57612a396126a2565b5b6000612a48858286016128f8565b9250506020612a5985828601612a0e565b9150509250929050565b600080fd5b600080fd5b7f4e487b7100000000000000000000000000000000000000000000000000000000600052604160045260246000fd5b612aa5826127b6565b810181811067ffffffffffffffff82111715612ac457612ac3612a6d565b5b80604052505050565b6000612ad7612698565b9050612ae38282612a9c565b919050565b600067ffffffffffffffff821115612b0357612b02612a6d565b5b612b0c826127b6565b9050602081019050919050565b82818337600083830152505050565b6000612b3b612b3684612ae8565b612acd565b905082815260208101848484011115612b5757612b56612a68565b5b612b62848285612b19565b509392505050565b600082601f830112612b7f57612b7e612a63565b5b8135612b8f848260208601612b28565b91505092915050565b60008060008060808587031215612bb257612bb16126a2565b5b6000612bc0878288016128f8565b9450506020612bd1878288016128f8565b9350506040612be287828801612843565b925050606085013567ffffffffffffffff811115612c0357612c026126a7565b5b612c0f87828801612b6a565b91505092959194509250565b60008060408385031215612c3257612c316126a2565b5b6000612c40858286016128f8565b9250506020612c51858286016128f8565b9150509250929050565b600060208284031215612c7157612c706126a2565b5b6000612c7f84828501612a0e565b91505092915050565b7f4e487b7100000000000000000000000000000000000000000000000000000000600052602260045260246000fd5b60006002820490506001821680612ccf57607f821691505b602082108103612ce257612ce1612c88565b5b50919050565b6000604082019050612cfd60008301856128b7565b612d0a60208301846128b7565b9392505050565b600081519050612d20816129f7565b92915050565b600060208284031215612d3c57612d3b6126a2565b5b6000612d4a84828501612d11565b91505092915050565b7f4d696e74696e67206973206e6f7420656e61626c656400000000000000000000600082015250565b6000612d89601683612772565b9150612d9482612d53565b602082019050919050565b60006020820190508181036000830152612db881612d7c565b9050919050565b7f4e487b7100000000000000000000000000000000000000000000000000000000600052601160045260246000fd5b6000612df982612822565b9150612e0483612822565b9250827fffffffffffffffffffffffffffffffffffffffffffffffffffffffffffffffff03821115612e3957612e38612dbf565b5b828201905092915050565b7f43616e6e6f74206d696e74206d6f7265207468616e206d617820737570706c79600082015250565b6000612e7a602083612772565b9150612e8582612e44565b602082019050919050565b60006020820190508181036000830152612ea981612e6d565b9050919050565b6000612ebb82612822565b9150612ec683612822565b9250817fffffffffffffffffffffffffffffffffffffffffffffffffffffffffffffffff0483118215151615612eff57612efe612dbf565b5b828202905092915050565b7f4e6f7420656e6f756768204554482073656e743b20636865636b20707269636560008201527f2100000000000000000000000000000000000000000000000000000000000000602082015250565b6000612f66602183612772565b9150612f7182612f0a565b604082019050919050565b60006020820190508181036000830152612f9581612f59565b9050919050565b7f4f6e6c792074686520457175697020736d61727420636f6e747261637420636160008201527f6e206d696e740000000000000000000000000000000000000000000000000000602082015250565b6000612ff8602683612772565b915061300382612f9c565b604082019050919050565b6000602082019050818103600083015261302781612feb565b9050919050565b7f4552433732314d657461646174613a2055524920717565727920666f72206e6f60008201527f6e6578697374656e7420746f6b656e0000000000000000000000000000000000602082015250565b600061308a602f83612772565b91506130958261302e565b604082019050919050565b600060208201905081810360008301526130b98161307d565b9050919050565b600081905092915050565b60006130d682612767565b6130e081856130c0565b93506130f0818560208601612783565b80840191505092915050565b60008190508160005260206000209050919050565b6000815461311e81612cb7565b61312881866130c0565b94506001821660008114613143576001811461315457613187565b60ff19831686528186019350613187565b61315d856130fc565b60005b8381101561317f57815481890152600182019150602081019050613160565b838801955050505b50505092915050565b600061319c82866130cb565b91506131a882856130cb565b91506131b48284613111565b9150819050949350505050565b7f4f776e61626c653a206e6577206f776e657220697320746865207a65726f206160008201527f6464726573730000000000000000000000000000000000000000000000000000602082015250565b600061321d602683612772565b9150613228826131c1565b604082019050919050565b6000602082019050818103600083015261324c81613210565b9050919050565b7f4f776e61626c653a2063616c6c6572206973206e6f7420746865206f776e6572600082015250565b6000613289602083612772565b915061329482613253565b602082019050919050565b600060208201905081810360008301526132b88161327c565b9050919050565b7f4e487b7100000000000000000000000000000000000000000000000000000000600052601260045260246000fd5b600081519050919050565b600082825260208201905092915050565b6000613315826132ee565b61331f81856132f9565b935061332f818560208601612783565b613338816127b6565b840191505092915050565b600060808201905061335860008301876128b7565b61336560208301866128b7565b613372604083018561294d565b8181036060830152613384818461330a565b905095945050505050565b60008151905061339e816126d8565b92915050565b6000602082840312156133ba576133b96126a2565b5b60006133c88482850161338f565b9150509291505056fe697066733a2f2f516d5743467176475857595337755153757367527a4e7466324472756f6837596a74456b6e584553505a565641722f697066733a2f2f516d5938617363584e616b364173716d36535343653370337a6b69435766546147483546374e3173706d746a38782fa2646970667358221220edac5acc3e53110f70bd8aea837e50d40c4ccad4e00e2a09c54f2f62f6a0206364736f6c634300080d0033",
  "linkReferences": {},
  "deployedLinkReferences": {}
}