{
  "_format": "hh-sol-artifact-1",
  "contractName": "NftSneaker",
  "sourceName": "src/backend/contracts/NftSneaker.sol",
  "abi": [
    {
      "inputs": [],
      "stateMutability": "nonpayable",
      "type": "constructor"
    },
    {
      "inputs": [],
      "name": "ApprovalCallerNotOwnerNorApproved",
      "type": "error"
    },
    {
      "inputs": [],
      "name": "ApprovalQueryForNonexistentToken",
      "type": "error"
    },
    {
      "inputs": [],
      "name": "ApproveToCaller",
      "type": "error"
    },
    {
      "inputs": [],
      "name": "BalanceQueryForZeroAddress",
      "type": "error"
    },
    {
      "inputs": [],
      "name": "MintERC2309QuantityExceedsLimit",
      "type": "error"
    },
    {
      "inputs": [],
      "name": "MintToZeroAddress",
      "type": "error"
    },
    {
      "inputs": [],
      "name": "MintZeroQuantity",
      "type": "error"
    },
    {
      "inputs": [
        {
          "internalType": "address",
          "name": "operator",
          "type": "address"
        }
      ],
      "name": "OperatorNotAllowed",
      "type": "error"
    },
    {
      "inputs": [],
      "name": "OwnerQueryForNonexistentToken",
      "type": "error"
    },
    {
      "inputs": [],
      "name": "OwnershipNotInitializedForExtraData",
      "type": "error"
    },
    {
      "inputs": [],
      "name": "TransferCallerNotOwnerNorApproved",
      "type": "error"
    },
    {
      "inputs": [],
      "name": "TransferFromIncorrectOwner",
      "type": "error"
    },
    {
      "inputs": [],
      "name": "TransferToNonERC721ReceiverImplementer",
      "type": "error"
    },
    {
      "inputs": [],
      "name": "TransferToZeroAddress",
      "type": "error"
    },
    {
      "inputs": [],
      "name": "URIQueryForNonexistentToken",
      "type": "error"
    },
    {
      "anonymous": false,
      "inputs": [
        {
          "indexed": true,
          "internalType": "address",
          "name": "owner",
          "type": "address"
        },
        {
          "indexed": true,
          "internalType": "address",
          "name": "approved",
          "type": "address"
        },
        {
          "indexed": true,
          "internalType": "uint256",
          "name": "tokenId",
          "type": "uint256"
        }
      ],
      "name": "Approval",
      "type": "event"
    },
    {
      "anonymous": false,
      "inputs": [
        {
          "indexed": true,
          "internalType": "address",
          "name": "owner",
          "type": "address"
        },
        {
          "indexed": true,
          "internalType": "address",
          "name": "operator",
          "type": "address"
        },
        {
          "indexed": false,
          "internalType": "bool",
          "name": "approved",
          "type": "bool"
        }
      ],
      "name": "ApprovalForAll",
      "type": "event"
    },
    {
      "anonymous": false,
      "inputs": [
        {
          "indexed": true,
          "internalType": "uint256",
          "name": "fromTokenId",
          "type": "uint256"
        },
        {
          "indexed": false,
          "internalType": "uint256",
          "name": "toTokenId",
          "type": "uint256"
        },
        {
          "indexed": true,
          "internalType": "address",
          "name": "from",
          "type": "address"
        },
        {
          "indexed": true,
          "internalType": "address",
          "name": "to",
          "type": "address"
        }
      ],
      "name": "ConsecutiveTransfer",
      "type": "event"
    },
    {
      "anonymous": false,
      "inputs": [
        {
          "indexed": false,
          "internalType": "address",
          "name": "user",
          "type": "address"
        }
      ],
      "name": "MintSuccessful",
      "type": "event"
    },
    {
      "anonymous": false,
      "inputs": [
        {
          "indexed": true,
          "internalType": "address",
          "name": "previousOwner",
          "type": "address"
        },
        {
          "indexed": true,
          "internalType": "address",
          "name": "newOwner",
          "type": "address"
        }
      ],
      "name": "OwnershipTransferred",
      "type": "event"
    },
    {
      "anonymous": false,
      "inputs": [
        {
          "indexed": true,
          "internalType": "address",
          "name": "from",
          "type": "address"
        },
        {
          "indexed": true,
          "internalType": "address",
          "name": "to",
          "type": "address"
        },
        {
          "indexed": true,
          "internalType": "uint256",
          "name": "tokenId",
          "type": "uint256"
        }
      ],
      "name": "Transfer",
      "type": "event"
    },
    {
      "inputs": [
        {
          "internalType": "address",
          "name": "to",
          "type": "address"
        },
        {
          "internalType": "uint256",
          "name": "tokenId",
          "type": "uint256"
        }
      ],
      "name": "approve",
      "outputs": [],
      "stateMutability": "nonpayable",
      "type": "function"
    },
    {
      "inputs": [
        {
          "internalType": "address",
          "name": "owner",
          "type": "address"
        }
      ],
      "name": "balanceOf",
      "outputs": [
        {
          "internalType": "uint256",
          "name": "",
          "type": "uint256"
        }
      ],
      "stateMutability": "view",
      "type": "function"
    },
    {
      "inputs": [],
      "name": "baseTokenURI",
      "outputs": [
        {
          "internalType": "string",
          "name": "",
          "type": "string"
        }
      ],
      "stateMutability": "pure",
      "type": "function"
    },
    {
      "inputs": [],
      "name": "burnAmount",
      "outputs": [
        {
          "internalType": "uint256",
          "name": "",
          "type": "uint256"
        }
      ],
      "stateMutability": "view",
      "type": "function"
    },
    {
      "inputs": [
        {
          "internalType": "uint256",
          "name": "_tokenId",
          "type": "uint256"
        }
      ],
      "name": "burnFromEquip",
      "outputs": [],
      "stateMutability": "nonpayable",
      "type": "function"
    },
    {
      "inputs": [],
      "name": "contractURI",
      "outputs": [
        {
          "internalType": "string",
          "name": "",
          "type": "string"
        }
      ],
      "stateMutability": "pure",
      "type": "function"
    },
    {
      "inputs": [
        {
          "internalType": "uint256",
          "name": "tokenId",
          "type": "uint256"
        }
      ],
      "name": "getApproved",
      "outputs": [
        {
          "internalType": "address",
          "name": "",
          "type": "address"
        }
      ],
      "stateMutability": "view",
      "type": "function"
    },
    {
      "inputs": [],
      "name": "getPrice",
      "outputs": [
        {
          "internalType": "uint256",
          "name": "",
          "type": "uint256"
        }
      ],
      "stateMutability": "view",
      "type": "function"
    },
    {
      "inputs": [
        {
          "internalType": "uint256",
          "name": "_tokenId",
          "type": "uint256"
        }
      ],
      "name": "idToMetadata",
      "outputs": [
        {
          "internalType": "uint256",
          "name": "",
          "type": "uint256"
        }
      ],
      "stateMutability": "view",
      "type": "function"
    },
    {
      "inputs": [
        {
          "internalType": "address",
          "name": "owner",
          "type": "address"
        },
        {
          "internalType": "address",
          "name": "operator",
          "type": "address"
        }
      ],
      "name": "isApprovedForAll",
      "outputs": [
        {
          "internalType": "bool",
          "name": "",
          "type": "bool"
        }
      ],
      "stateMutability": "view",
      "type": "function"
    },
    {
      "inputs": [],
      "name": "max_supply",
      "outputs": [
        {
          "internalType": "uint256",
          "name": "",
          "type": "uint256"
        }
      ],
      "stateMutability": "view",
      "type": "function"
    },
    {
      "inputs": [
        {
          "internalType": "uint256",
          "name": "quantity",
          "type": "uint256"
        }
      ],
      "name": "mint",
      "outputs": [],
      "stateMutability": "payable",
      "type": "function"
    },
    {
      "inputs": [],
      "name": "mintEnabled",
      "outputs": [
        {
          "internalType": "bool",
          "name": "",
          "type": "bool"
        }
      ],
      "stateMutability": "view",
      "type": "function"
    },
    {
      "inputs": [
        {
          "internalType": "address",
          "name": "_user",
          "type": "address"
        },
        {
          "internalType": "uint256",
          "name": "_boxId",
          "type": "uint256"
        }
      ],
      "name": "mintFromBox",
      "outputs": [],
      "stateMutability": "nonpayable",
      "type": "function"
    },
    {
      "inputs": [],
      "name": "name",
      "outputs": [
        {
          "internalType": "string",
          "name": "",
          "type": "string"
        }
      ],
      "stateMutability": "view",
      "type": "function"
    },
    {
      "inputs": [],
      "name": "owner",
      "outputs": [
        {
          "internalType": "address",
          "name": "",
          "type": "address"
        }
      ],
      "stateMutability": "view",
      "type": "function"
    },
    {
      "inputs": [
        {
          "internalType": "uint256",
          "name": "tokenId",
          "type": "uint256"
        }
      ],
      "name": "ownerOf",
      "outputs": [
        {
          "internalType": "address",
          "name": "",
          "type": "address"
        }
      ],
      "stateMutability": "view",
      "type": "function"
    },
    {
      "inputs": [],
      "name": "price",
      "outputs": [
        {
          "internalType": "uint256",
          "name": "",
          "type": "uint256"
        }
      ],
      "stateMutability": "view",
      "type": "function"
    },
    {
      "inputs": [],
      "name": "renounceOwnership",
      "outputs": [],
      "stateMutability": "nonpayable",
      "type": "function"
    },
    {
      "inputs": [
        {
          "internalType": "address",
          "name": "from",
          "type": "address"
        },
        {
          "internalType": "address",
          "name": "to",
          "type": "address"
        },
        {
          "internalType": "uint256",
          "name": "tokenId",
          "type": "uint256"
        }
      ],
      "name": "safeTransferFrom",
      "outputs": [],
      "stateMutability": "nonpayable",
      "type": "function"
    },
    {
      "inputs": [
        {
          "internalType": "address",
          "name": "from",
          "type": "address"
        },
        {
          "internalType": "address",
          "name": "to",
          "type": "address"
        },
        {
          "internalType": "uint256",
          "name": "tokenId",
          "type": "uint256"
        },
        {
          "internalType": "bytes",
          "name": "data",
          "type": "bytes"
        }
      ],
      "name": "safeTransferFrom",
      "outputs": [],
      "stateMutability": "nonpayable",
      "type": "function"
    },
    {
      "inputs": [
        {
          "internalType": "address",
          "name": "operator",
          "type": "address"
        },
        {
          "internalType": "bool",
          "name": "approved",
          "type": "bool"
        }
      ],
      "name": "setApprovalForAll",
      "outputs": [],
      "stateMutability": "nonpayable",
      "type": "function"
    },
    {
      "inputs": [
        {
          "internalType": "address",
          "name": "_address",
          "type": "address"
        }
      ],
      "name": "setBoxAddress",
      "outputs": [],
      "stateMutability": "nonpayable",
      "type": "function"
    },
    {
      "inputs": [
        {
          "internalType": "address",
          "name": "_address",
          "type": "address"
        }
      ],
      "name": "setEquipAddress",
      "outputs": [],
      "stateMutability": "nonpayable",
      "type": "function"
    },
    {
      "inputs": [
        {
          "internalType": "uint256",
          "name": "_supply",
          "type": "uint256"
        }
      ],
      "name": "setMaxSupply",
      "outputs": [],
      "stateMutability": "nonpayable",
      "type": "function"
    },
    {
      "inputs": [
        {
          "internalType": "bool",
          "name": "_state",
          "type": "bool"
        }
      ],
      "name": "setMintEnabled",
      "outputs": [],
      "stateMutability": "nonpayable",
      "type": "function"
    },
    {
      "inputs": [
        {
          "internalType": "uint256",
          "name": "_price",
          "type": "uint256"
        }
      ],
      "name": "setPrice",
      "outputs": [],
      "stateMutability": "nonpayable",
      "type": "function"
    },
    {
      "inputs": [
        {
          "internalType": "bytes4",
          "name": "interfaceId",
          "type": "bytes4"
        }
      ],
      "name": "supportsInterface",
      "outputs": [
        {
          "internalType": "bool",
          "name": "",
          "type": "bool"
        }
      ],
      "stateMutability": "view",
      "type": "function"
    },
    {
      "inputs": [],
      "name": "symbol",
      "outputs": [
        {
          "internalType": "string",
          "name": "",
          "type": "string"
        }
      ],
      "stateMutability": "view",
      "type": "function"
    },
    {
      "inputs": [
        {
          "internalType": "uint256",
          "name": "_tokenId",
          "type": "uint256"
        }
      ],
      "name": "tokenURI",
      "outputs": [
        {
          "internalType": "string",
          "name": "",
          "type": "string"
        }
      ],
      "stateMutability": "view",
      "type": "function"
    },
    {
      "inputs": [],
      "name": "totalSupply",
      "outputs": [
        {
          "internalType": "uint256",
          "name": "",
          "type": "uint256"
        }
      ],
      "stateMutability": "view",
      "type": "function"
    },
    {
      "inputs": [
        {
          "internalType": "address",
          "name": "from",
          "type": "address"
        },
        {
          "internalType": "address",
          "name": "to",
          "type": "address"
        },
        {
          "internalType": "uint256",
          "name": "tokenId",
          "type": "uint256"
        }
      ],
      "name": "transferFrom",
      "outputs": [],
      "stateMutability": "nonpayable",
      "type": "function"
    },
    {
      "inputs": [
        {
          "internalType": "address",
          "name": "newOwner",
          "type": "address"
        }
      ],
      "name": "transferOwnership",
      "outputs": [],
      "stateMutability": "nonpayable",
      "type": "function"
    },
    {
      "inputs": [],
      "name": "uriPrefix",
      "outputs": [
        {
          "internalType": "string",
          "name": "",
          "type": "string"
        }
      ],
      "stateMutability": "view",
      "type": "function"
    },
    {
      "inputs": [],
      "name": "uriSuffix",
      "outputs": [
        {
          "internalType": "string",
          "name": "",
          "type": "string"
        }
      ],
      "stateMutability": "view",
      "type": "function"
    },
    {
      "inputs": [],
      "name": "withdraw",
      "outputs": [],
      "stateMutability": "nonpayable",
      "type": "function"
    }
  ],
  "bytecode": "0x608060405260405180602001604052806000815250600b90805190602001906200002b92919062000451565b506040518060400160405280600581526020017f2e6a736f6e000000000000000000000000000000000000000000000000000000815250600c90805190602001906200007992919062000451565b506064600d5560006010553480156200009157600080fd5b50733cc6cdda760b79bafa08df41ecfa224f810dceb660016040518060400160405280600d81526020017f426c616e6b20536e65616b6572000000000000000000000000000000000000008152506040518060400160405280600281526020017f425300000000000000000000000000000000000000000000000000000000000081525062000135620001296200037c60201b60201c565b6200038460201b60201c565b81600390805190602001906200014d92919062000451565b5080600490805190602001906200016692919062000451565b50620001776200044860201b60201c565b600181905550505060006daaeb6d7670e522a718067333cd4e73ffffffffffffffffffffffffffffffffffffffff163b1115620003745780156200023a576daaeb6d7670e522a718067333cd4e73ffffffffffffffffffffffffffffffffffffffff16637d3e3dbe30846040518363ffffffff1660e01b81526004016200020092919062000546565b600060405180830381600087803b1580156200021b57600080fd5b505af115801562000230573d6000803e3d6000fd5b5050505062000373565b600073ffffffffffffffffffffffffffffffffffffffff168273ffffffffffffffffffffffffffffffffffffffff1614620002f4576daaeb6d7670e522a718067333cd4e73ffffffffffffffffffffffffffffffffffffffff1663a0af290330846040518363ffffffff1660e01b8152600401620002ba92919062000546565b600060405180830381600087803b158015620002d557600080fd5b505af1158015620002ea573d6000803e3d6000fd5b5050505062000372565b6daaeb6d7670e522a718067333cd4e73ffffffffffffffffffffffffffffffffffffffff16634420e486306040518263ffffffff1660e01b81526004016200033d919062000573565b600060405180830381600087803b1580156200035857600080fd5b505af11580156200036d573d6000803e3d6000fd5b505050505b5b5b5050620005f4565b600033905090565b60008060009054906101000a900473ffffffffffffffffffffffffffffffffffffffff169050816000806101000a81548173ffffffffffffffffffffffffffffffffffffffff021916908373ffffffffffffffffffffffffffffffffffffffff1602179055508173ffffffffffffffffffffffffffffffffffffffff168173ffffffffffffffffffffffffffffffffffffffff167f8be0079c531659141344cd1fd0a4f28419497f9722a3daafe3b4186f6b6457e060405160405180910390a35050565b60006001905090565b8280546200045f90620005bf565b90600052602060002090601f016020900481019282620004835760008555620004cf565b82601f106200049e57805160ff1916838001178555620004cf565b82800160010185558215620004cf579182015b82811115620004ce578251825591602001919060010190620004b1565b5b509050620004de9190620004e2565b5090565b5b80821115620004fd576000816000905550600101620004e3565b5090565b600073ffffffffffffffffffffffffffffffffffffffff82169050919050565b60006200052e8262000501565b9050919050565b620005408162000521565b82525050565b60006040820190506200055d600083018562000535565b6200056c602083018462000535565b9392505050565b60006020820190506200058a600083018462000535565b92915050565b7f4e487b7100000000000000000000000000000000000000000000000000000000600052602260045260246000fd5b60006002820490506001821680620005d857607f821691505b602082108103620005ee57620005ed62000590565b5b50919050565b61343c80620006046000396000f3fe60806040526004361061020f5760003560e01c806391b7f5ed11610118578063c254cc7b116100a0578063e8a3d4851161006f578063e8a3d48514610756578063e985e9c514610781578063f2fde38b146107be578063f307101a146107e7578063f46a04eb146108245761020f565b8063c254cc7b1461069a578063c87b56dd146106c3578063d123973014610700578063d547cfb71461072b5761020f565b8063a035b1fe116100e7578063a035b1fe146105d8578063a0712d6814610603578063a22cb4651461061f578063afa20f5414610648578063b88d4fde146106715761020f565b806391b7f5ed1461053057806391ff7e011461055957806395d89b411461058257806398d5fdca146105ad5761020f565b8063486a7e6b1161019b5780636f8b44b01161016a5780636f8b44b01461045d57806370a0823114610486578063715018a6146104c35780638a333b50146104da5780638da5cb5b146105055761020f565b8063486a7e6b1461039f5780635503a0e8146103ca57806362b99ad4146103f55780636352211e146104205761020f565b8063095ea7b3116101e2578063095ea7b3146102e257806318160ddd1461030b57806323b872dd146103365780633ccfd60b1461035f57806342842e0e146103765761020f565b806301ffc9a71461021457806304b5085e1461025157806306fdde031461027a578063081812fc146102a5575b600080fd5b34801561022057600080fd5b5061023b600480360381019061023691906127fd565b61084d565b6040516102489190612845565b60405180910390f35b34801561025d57600080fd5b5061027860048036038101906102739190612896565b6108df565b005b34801561028657600080fd5b5061028f61097b565b60405161029c919061295c565b60405180910390f35b3480156102b157600080fd5b506102cc60048036038101906102c79190612896565b610a0d565b6040516102d991906129bf565b60405180910390f35b3480156102ee57600080fd5b5061030960048036038101906103049190612a06565b610a8c565b005b34801561031757600080fd5b50610320610bd0565b60405161032d9190612a55565b60405180910390f35b34801561034257600080fd5b5061035d60048036038101906103589190612a70565b610be7565b005b34801561036b57600080fd5b50610374610dc9565b005b34801561038257600080fd5b5061039d60048036038101906103989190612a70565b610e1a565b005b3480156103ab57600080fd5b506103b4610ffc565b6040516103c19190612a55565b60405180910390f35b3480156103d657600080fd5b506103df611002565b6040516103ec919061295c565b60405180910390f35b34801561040157600080fd5b5061040a611090565b604051610417919061295c565b60405180910390f35b34801561042c57600080fd5b5061044760048036038101906104429190612896565b61111e565b60405161045491906129bf565b60405180910390f35b34801561046957600080fd5b50610484600480360381019061047f9190612896565b611130565b005b34801561049257600080fd5b506104ad60048036038101906104a89190612ac3565b611142565b6040516104ba9190612a55565b60405180910390f35b3480156104cf57600080fd5b506104d86111fa565b005b3480156104e657600080fd5b506104ef61120e565b6040516104fc9190612a55565b60405180910390f35b34801561051157600080fd5b5061051a611214565b60405161052791906129bf565b60405180910390f35b34801561053c57600080fd5b5061055760048036038101906105529190612896565b61123d565b005b34801561056557600080fd5b50610580600480360381019061057b9190612a06565b61124f565b005b34801561058e57600080fd5b5061059761137d565b6040516105a4919061295c565b60405180910390f35b3480156105b957600080fd5b506105c261140f565b6040516105cf9190612a55565b60405180910390f35b3480156105e457600080fd5b506105ed611419565b6040516105fa9190612a55565b60405180910390f35b61061d60048036038101906106189190612896565b61141f565b005b34801561062b57600080fd5b5061064660048036038101906106419190612b1c565b61155d565b005b34801561065457600080fd5b5061066f600480360381019061066a9190612ac3565b6116d4565b005b34801561067d57600080fd5b5061069860048036038101906106939190612c91565b611720565b005b3480156106a657600080fd5b506106c160048036038101906106bc9190612ac3565b611905565b005b3480156106cf57600080fd5b506106ea60048036038101906106e59190612896565b611951565b6040516106f7919061295c565b60405180910390f35b34801561070c57600080fd5b50610715611962565b6040516107229190612845565b60405180910390f35b34801561073757600080fd5b50610740611975565b60405161074d919061295c565b60405180910390f35b34801561076257600080fd5b5061076b611984565b604051610778919061295c565b60405180910390f35b34801561078d57600080fd5b506107a860048036038101906107a39190612d14565b6119a4565b6040516107b59190612845565b60405180910390f35b3480156107ca57600080fd5b506107e560048036038101906107e09190612ac3565b611a38565b005b3480156107f357600080fd5b5061080e60048036038101906108099190612896565b611abb565b60405161081b9190612a55565b60405180910390f35b34801561083057600080fd5b5061084b60048036038101906108469190612d54565b611ac2565b005b60006301ffc9a760e01b827bffffffffffffffffffffffffffffffffffffffffffffffffffffffff191614806108a857506380ac58cd60e01b827bffffffffffffffffffffffffffffffffffffffffffffffffffffffff1916145b806108d85750635b5e139f60e01b827bffffffffffffffffffffffffffffffffffffffffffffffffffffffff1916145b9050919050565b600a60009054906101000a900473ffffffffffffffffffffffffffffffffffffffff1673ffffffffffffffffffffffffffffffffffffffff163373ffffffffffffffffffffffffffffffffffffffff161461096f576040517f08c379a000000000000000000000000000000000000000000000000000000000815260040161096690612df3565b60405180910390fd5b61097881611ae7565b50565b60606003805461098a90612e42565b80601f01602080910402602001604051908101604052809291908181526020018280546109b690612e42565b8015610a035780601f106109d857610100808354040283529160200191610a03565b820191906000526020600020905b8154815290600101906020018083116109e657829003601f168201915b5050505050905090565b6000610a1882611af5565b610a4e576040517fcf4700e400000000000000000000000000000000000000000000000000000000815260040160405180910390fd5b6007600083815260200190815260200160002060000160009054906101000a900473ffffffffffffffffffffffffffffffffffffffff169050919050565b6000610a978261111e565b90508073ffffffffffffffffffffffffffffffffffffffff16610ab8611b54565b73ffffffffffffffffffffffffffffffffffffffff1614610b1b57610ae481610adf611b54565b6119a4565b610b1a576040517fcfb3b94200000000000000000000000000000000000000000000000000000000815260040160405180910390fd5b5b826007600084815260200190815260200160002060000160006101000a81548173ffffffffffffffffffffffffffffffffffffffff021916908373ffffffffffffffffffffffffffffffffffffffff160217905550818373ffffffffffffffffffffffffffffffffffffffff168273ffffffffffffffffffffffffffffffffffffffff167f8c5be1e5ebec7d5bd14f71427d1e84f3dd0314c0f7b2291e5b200ac8c7c3b92560405160405180910390a4505050565b6000610bda611b5c565b6002546001540303905090565b8260006daaeb6d7670e522a718067333cd4e73ffffffffffffffffffffffffffffffffffffffff163b1115610db7573373ffffffffffffffffffffffffffffffffffffffff168173ffffffffffffffffffffffffffffffffffffffff1603610c5957610c54848484611b65565b610dc3565b6daaeb6d7670e522a718067333cd4e73ffffffffffffffffffffffffffffffffffffffff1663c617113430336040518363ffffffff1660e01b8152600401610ca2929190612e73565b602060405180830381865afa158015610cbf573d6000803e3d6000fd5b505050506040513d601f19601f82011682018060405250810190610ce39190612eb1565b8015610d7557506daaeb6d7670e522a718067333cd4e73ffffffffffffffffffffffffffffffffffffffff1663c617113430836040518363ffffffff1660e01b8152600401610d33929190612e73565b602060405180830381865afa158015610d50573d6000803e3d6000fd5b505050506040513d601f19601f82011682018060405250810190610d749190612eb1565b5b610db657336040517fede71dcc000000000000000000000000000000000000000000000000000000008152600401610dad91906129bf565b60405180910390fd5b5b610dc2848484611b65565b5b50505050565b610dd1611e87565b3373ffffffffffffffffffffffffffffffffffffffff166108fc479081150290604051600060405180830381858888f19350505050158015610e17573d6000803e3d6000fd5b50565b8260006daaeb6d7670e522a718067333cd4e73ffffffffffffffffffffffffffffffffffffffff163b1115610fea573373ffffffffffffffffffffffffffffffffffffffff168173ffffffffffffffffffffffffffffffffffffffff1603610e8c57610e87848484611f05565b610ff6565b6daaeb6d7670e522a718067333cd4e73ffffffffffffffffffffffffffffffffffffffff1663c617113430336040518363ffffffff1660e01b8152600401610ed5929190612e73565b602060405180830381865afa158015610ef2573d6000803e3d6000fd5b505050506040513d601f19601f82011682018060405250810190610f169190612eb1565b8015610fa857506daaeb6d7670e522a718067333cd4e73ffffffffffffffffffffffffffffffffffffffff1663c617113430836040518363ffffffff1660e01b8152600401610f66929190612e73565b602060405180830381865afa158015610f83573d6000803e3d6000fd5b505050506040513d601f19601f82011682018060405250810190610fa79190612eb1565b5b610fe957336040517fede71dcc000000000000000000000000000000000000000000000000000000008152600401610fe091906129bf565b60405180910390fd5b5b610ff5848484611f05565b5b50505050565b600e5481565b600c805461100f90612e42565b80601f016020809104026020016040519081016040528092919081815260200182805461103b90612e42565b80156110885780601f1061105d57610100808354040283529160200191611088565b820191906000526020600020905b81548152906001019060200180831161106b57829003601f168201915b505050505081565b600b805461109d90612e42565b80601f01602080910402602001604051908101604052809291908181526020018280546110c990612e42565b80156111165780601f106110eb57610100808354040283529160200191611116565b820191906000526020600020905b8154815290600101906020018083116110f957829003601f168201915b505050505081565b600061112982611f25565b9050919050565b611138611e87565b80600d8190555050565b60008073ffffffffffffffffffffffffffffffffffffffff168273ffffffffffffffffffffffffffffffffffffffff16036111a9576040517f8f4eb60400000000000000000000000000000000000000000000000000000000815260040160405180910390fd5b67ffffffffffffffff600660008473ffffffffffffffffffffffffffffffffffffffff1673ffffffffffffffffffffffffffffffffffffffff16815260200190815260200160002054169050919050565b611202611e87565b61120c6000611ff1565b565b600d5481565b60008060009054906101000a900473ffffffffffffffffffffffffffffffffffffffff16905090565b611245611e87565b8060108190555050565b600960009054906101000a900473ffffffffffffffffffffffffffffffffffffffff1673ffffffffffffffffffffffffffffffffffffffff163373ffffffffffffffffffffffffffffffffffffffff16146112df576040517f08c379a00000000000000000000000000000000000000000000000000000000081526004016112d690612f50565b60405180910390fd5b600d5460016112ec610bd0565b6112f69190612f9f565b1115611337576040517f08c379a000000000000000000000000000000000000000000000000000000000815260040161132e90613041565b60405180910390fd5b6113428260016120b5565b7ff5535ccd9f40eb4bc73fac8710dbb2effbf3329da83f62b35d9aa88161bb85ca3360405161137191906129bf565b60405180910390a15050565b60606004805461138c90612e42565b80601f01602080910402602001604051908101604052809291908181526020018280546113b890612e42565b80156114055780601f106113da57610100808354040283529160200191611405565b820191906000526020600020905b8154815290600101906020018083116113e857829003601f168201915b5050505050905090565b6000601054905090565b60105481565b600f60009054906101000a900460ff1661146e576040517f08c379a0000000000000000000000000000000000000000000000000000000008152600401611465906130ad565b60405180910390fd5b600d548161147a610bd0565b6114849190612f9f565b106114c4576040517f08c379a00000000000000000000000000000000000000000000000000000000081526004016114bb90613041565b60405180910390fd5b806114cd61140f565b6114d791906130cd565b341015611519576040517f08c379a000000000000000000000000000000000000000000000000000000000815260040161151090613199565b60405180910390fd5b61152333826120b5565b7ff5535ccd9f40eb4bc73fac8710dbb2effbf3329da83f62b35d9aa88161bb85ca3360405161155291906129bf565b60405180910390a150565b611565611b54565b73ffffffffffffffffffffffffffffffffffffffff168273ffffffffffffffffffffffffffffffffffffffff16036115c9576040517fb06307db00000000000000000000000000000000000000000000000000000000815260040160405180910390fd5b80600860006115d6611b54565b73ffffffffffffffffffffffffffffffffffffffff1673ffffffffffffffffffffffffffffffffffffffff16815260200190815260200160002060008473ffffffffffffffffffffffffffffffffffffffff1673ffffffffffffffffffffffffffffffffffffffff16815260200190815260200160002060006101000a81548160ff0219169083151502179055508173ffffffffffffffffffffffffffffffffffffffff16611683611b54565b73ffffffffffffffffffffffffffffffffffffffff167f17307eab39ab6107e8899845ad3d59bd9653f200f220920489ca2b5937696c31836040516116c89190612845565b60405180910390a35050565b6116dc611e87565b80600a60006101000a81548173ffffffffffffffffffffffffffffffffffffffff021916908373ffffffffffffffffffffffffffffffffffffffff16021790555050565b8360006daaeb6d7670e522a718067333cd4e73ffffffffffffffffffffffffffffffffffffffff163b11156118f1573373ffffffffffffffffffffffffffffffffffffffff168173ffffffffffffffffffffffffffffffffffffffff16036117935761178e85858585612271565b6118fe565b6daaeb6d7670e522a718067333cd4e73ffffffffffffffffffffffffffffffffffffffff1663c617113430336040518363ffffffff1660e01b81526004016117dc929190612e73565b602060405180830381865afa1580156117f9573d6000803e3d6000fd5b505050506040513d601f19601f8201168201806040525081019061181d9190612eb1565b80156118af57506daaeb6d7670e522a718067333cd4e73ffffffffffffffffffffffffffffffffffffffff1663c617113430836040518363ffffffff1660e01b815260040161186d929190612e73565b602060405180830381865afa15801561188a573d6000803e3d6000fd5b505050506040513d601f19601f820116820180604052508101906118ae9190612eb1565b5b6118f057336040517fede71dcc0000000000000000000000000000000000000000000000000000000081526004016118e791906129bf565b60405180910390fd5b5b6118fd85858585612271565b5b5050505050565b61190d611e87565b80600960006101000a81548173ffffffffffffffffffffffffffffffffffffffff021916908373ffffffffffffffffffffffffffffffffffffffff16021790555050565b606061195b6122e4565b9050919050565b600f60009054906101000a900460ff1681565b606061197f6122e4565b905090565b606060405180606001604052806036815260200161339b60369139905090565b6000600860008473ffffffffffffffffffffffffffffffffffffffff1673ffffffffffffffffffffffffffffffffffffffff16815260200190815260200160002060008373ffffffffffffffffffffffffffffffffffffffff1673ffffffffffffffffffffffffffffffffffffffff16815260200190815260200160002060009054906101000a900460ff16905092915050565b611a40611e87565b600073ffffffffffffffffffffffffffffffffffffffff168173ffffffffffffffffffffffffffffffffffffffff1603611aaf576040517f08c379a0000000000000000000000000000000000000000000000000000000008152600401611aa69061322b565b60405180910390fd5b611ab881611ff1565b50565b6000919050565b611aca611e87565b80600f60006101000a81548160ff02191690831515021790555050565b611af2816000612304565b50565b600081611b00611b5c565b11158015611b0f575060015482105b8015611b4d575060007c0100000000000000000000000000000000000000000000000000000000600560008581526020019081526020016000205416145b9050919050565b600033905090565b60006001905090565b6000611b7082611f25565b90508373ffffffffffffffffffffffffffffffffffffffff168173ffffffffffffffffffffffffffffffffffffffff1614611bd7576040517fa114810000000000000000000000000000000000000000000000000000000000815260040160405180910390fd5b600080611be384612556565b91509150611bf98187611bf4611b54565b61257d565b611c4557611c0e86611c09611b54565b6119a4565b611c44576040517f59c896be00000000000000000000000000000000000000000000000000000000815260040160405180910390fd5b5b600073ffffffffffffffffffffffffffffffffffffffff168573ffffffffffffffffffffffffffffffffffffffff1603611cab576040517fea553b3400000000000000000000000000000000000000000000000000000000815260040160405180910390fd5b611cb886868660016125c1565b8015611cc357600082555b600660008773ffffffffffffffffffffffffffffffffffffffff1673ffffffffffffffffffffffffffffffffffffffff168152602001908152602001600020600081546001900391905081905550600660008673ffffffffffffffffffffffffffffffffffffffff1673ffffffffffffffffffffffffffffffffffffffff1681526020019081526020016000206000815460010191905081905550611d9185611d6d8888876125c7565b7c0200000000000000000000000000000000000000000000000000000000176125ef565b600560008681526020019081526020016000208190555060007c0200000000000000000000000000000000000000000000000000000000841603611e175760006001850190506000600560008381526020019081526020016000205403611e15576001548114611e14578360056000838152602001908152602001600020819055505b5b505b838573ffffffffffffffffffffffffffffffffffffffff168773ffffffffffffffffffffffffffffffffffffffff167fddf252ad1be2c89b69c2b068fc378daa952ba7f163c4a11628f55a4df523b3ef60405160405180910390a4611e7f868686600161261a565b505050505050565b611e8f612620565b73ffffffffffffffffffffffffffffffffffffffff16611ead611214565b73ffffffffffffffffffffffffffffffffffffffff1614611f03576040517f08c379a0000000000000000000000000000000000000000000000000000000008152600401611efa90613297565b60405180910390fd5b565b611f2083838360405180602001604052806000815250611720565b505050565b60008082905080611f34611b5c565b11611fba57600154811015611fb95760006005600083815260200190815260200160002054905060007c0100000000000000000000000000000000000000000000000000000000821603611fb7575b60008103611fad576005600083600190039350838152602001908152602001600020549050611f83565b8092505050611fec565b505b5b6040517fdf2d9b4200000000000000000000000000000000000000000000000000000000815260040160405180910390fd5b919050565b60008060009054906101000a900473ffffffffffffffffffffffffffffffffffffffff169050816000806101000a81548173ffffffffffffffffffffffffffffffffffffffff021916908373ffffffffffffffffffffffffffffffffffffffff1602179055508173ffffffffffffffffffffffffffffffffffffffff168173ffffffffffffffffffffffffffffffffffffffff167f8be0079c531659141344cd1fd0a4f28419497f9722a3daafe3b4186f6b6457e060405160405180910390a35050565b60006001549050600082036120f6576040517fb562e8dd00000000000000000000000000000000000000000000000000000000815260040160405180910390fd5b61210360008483856125c1565b600160406001901b178202600660008573ffffffffffffffffffffffffffffffffffffffff1673ffffffffffffffffffffffffffffffffffffffff1681526020019081526020016000206000828254019250508190555061217a8361216b60008660006125c7565b61217485612628565b176125ef565b6005600083815260200190815260200160002081905550600080838301905073ffffffffffffffffffffffffffffffffffffffff85169150828260007fddf252ad1be2c89b69c2b068fc378daa952ba7f163c4a11628f55a4df523b3ef600080a4600183015b81811461221b57808360007fddf252ad1be2c89b69c2b068fc378daa952ba7f163c4a11628f55a4df523b3ef600080a46001810190506121e0565b5060008203612256576040517f2e07630000000000000000000000000000000000000000000000000000000000815260040160405180910390fd5b80600181905550505061226c600084838561261a565b505050565b61227c848484610be7565b60008373ffffffffffffffffffffffffffffffffffffffff163b146122de576122a784848484612638565b6122dd576040517fd1a57ed600000000000000000000000000000000000000000000000000000000815260040160405180910390fd5b5b50505050565b60606040518060600160405280603681526020016133d160369139905090565b600061230f83611f25565b9050600081905060008061232286612556565b91509150841561238b5761233e8184612339611b54565b61257d565b61238a576123538361234e611b54565b6119a4565b612389576040517f59c896be00000000000000000000000000000000000000000000000000000000815260040160405180910390fd5b5b5b6123998360008860016125c1565b80156123a457600082555b600160806001901b03600660008573ffffffffffffffffffffffffffffffffffffffff1673ffffffffffffffffffffffffffffffffffffffff1681526020019081526020016000206000828254019250508190555061244c83612409856000886125c7565b7c02000000000000000000000000000000000000000000000000000000007c010000000000000000000000000000000000000000000000000000000017176125ef565b600560008881526020019081526020016000208190555060007c02000000000000000000000000000000000000000000000000000000008516036124d257600060018701905060006005600083815260200190815260200160002054036124d05760015481146124cf578460056000838152602001908152602001600020819055505b5b505b85600073ffffffffffffffffffffffffffffffffffffffff168473ffffffffffffffffffffffffffffffffffffffff167fddf252ad1be2c89b69c2b068fc378daa952ba7f163c4a11628f55a4df523b3ef60405160405180910390a461253c83600088600161261a565b600260008154809291906001019190505550505050505050565b60008060006007600085815260200190815260200160002090508092508254915050915091565b600073ffffffffffffffffffffffffffffffffffffffff8316925073ffffffffffffffffffffffffffffffffffffffff821691508382148383141790509392505050565b50505050565b60008060e883901c905060e86125de868684612788565b62ffffff16901b9150509392505050565b600073ffffffffffffffffffffffffffffffffffffffff83169250814260a01b178317905092915050565b50505050565b600033905090565b60006001821460e11b9050919050565b60008373ffffffffffffffffffffffffffffffffffffffff1663150b7a0261265e611b54565b8786866040518563ffffffff1660e01b8152600401612680949392919061330c565b6020604051808303816000875af19250505080156126bc57506040513d601f19601f820116820180604052508101906126b9919061336d565b60015b612735573d80600081146126ec576040519150601f19603f3d011682016040523d82523d6000602084013e6126f1565b606091505b50600081510361272d576040517fd1a57ed600000000000000000000000000000000000000000000000000000000815260040160405180910390fd5b805181602001fd5b63150b7a0260e01b7bffffffffffffffffffffffffffffffffffffffffffffffffffffffff1916817bffffffffffffffffffffffffffffffffffffffffffffffffffffffff191614915050949350505050565b60009392505050565b6000604051905090565b600080fd5b600080fd5b60007fffffffff0000000000000000000000000000000000000000000000000000000082169050919050565b6127da816127a5565b81146127e557600080fd5b50565b6000813590506127f7816127d1565b92915050565b6000602082840312156128135761281261279b565b5b6000612821848285016127e8565b91505092915050565b60008115159050919050565b61283f8161282a565b82525050565b600060208201905061285a6000830184612836565b92915050565b6000819050919050565b61287381612860565b811461287e57600080fd5b50565b6000813590506128908161286a565b92915050565b6000602082840312156128ac576128ab61279b565b5b60006128ba84828501612881565b91505092915050565b600081519050919050565b600082825260208201905092915050565b60005b838110156128fd5780820151818401526020810190506128e2565b8381111561290c576000848401525b50505050565b6000601f19601f8301169050919050565b600061292e826128c3565b61293881856128ce565b93506129488185602086016128df565b61295181612912565b840191505092915050565b600060208201905081810360008301526129768184612923565b905092915050565b600073ffffffffffffffffffffffffffffffffffffffff82169050919050565b60006129a98261297e565b9050919050565b6129b98161299e565b82525050565b60006020820190506129d460008301846129b0565b92915050565b6129e38161299e565b81146129ee57600080fd5b50565b600081359050612a00816129da565b92915050565b60008060408385031215612a1d57612a1c61279b565b5b6000612a2b858286016129f1565b9250506020612a3c85828601612881565b9150509250929050565b612a4f81612860565b82525050565b6000602082019050612a6a6000830184612a46565b92915050565b600080600060608486031215612a8957612a8861279b565b5b6000612a97868287016129f1565b9350506020612aa8868287016129f1565b9250506040612ab986828701612881565b9150509250925092565b600060208284031215612ad957612ad861279b565b5b6000612ae7848285016129f1565b91505092915050565b612af98161282a565b8114612b0457600080fd5b50565b600081359050612b1681612af0565b92915050565b60008060408385031215612b3357612b3261279b565b5b6000612b41858286016129f1565b9250506020612b5285828601612b07565b9150509250929050565b600080fd5b600080fd5b7f4e487b7100000000000000000000000000000000000000000000000000000000600052604160045260246000fd5b612b9e82612912565b810181811067ffffffffffffffff82111715612bbd57612bbc612b66565b5b80604052505050565b6000612bd0612791565b9050612bdc8282612b95565b919050565b600067ffffffffffffffff821115612bfc57612bfb612b66565b5b612c0582612912565b9050602081019050919050565b82818337600083830152505050565b6000612c34612c2f84612be1565b612bc6565b905082815260208101848484011115612c5057612c4f612b61565b5b612c5b848285612c12565b509392505050565b600082601f830112612c7857612c77612b5c565b5b8135612c88848260208601612c21565b91505092915050565b60008060008060808587031215612cab57612caa61279b565b5b6000612cb9878288016129f1565b9450506020612cca878288016129f1565b9350506040612cdb87828801612881565b925050606085013567ffffffffffffffff811115612cfc57612cfb6127a0565b5b612d0887828801612c63565b91505092959194509250565b60008060408385031215612d2b57612d2a61279b565b5b6000612d39858286016129f1565b9250506020612d4a858286016129f1565b9150509250929050565b600060208284031215612d6a57612d6961279b565b5b6000612d7884828501612b07565b91505092915050565b7f4f6e6c792074686520457175697020736d61727420636f6e747261637420636160008201527f6e206275726e2066726f6d206571756970000000000000000000000000000000602082015250565b6000612ddd6031836128ce565b9150612de882612d81565b604082019050919050565b60006020820190508181036000830152612e0c81612dd0565b9050919050565b7f4e487b7100000000000000000000000000000000000000000000000000000000600052602260045260246000fd5b60006002820490506001821680612e5a57607f821691505b602082108103612e6d57612e6c612e13565b5b50919050565b6000604082019050612e8860008301856129b0565b612e9560208301846129b0565b9392505050565b600081519050612eab81612af0565b92915050565b600060208284031215612ec757612ec661279b565b5b6000612ed584828501612e9c565b91505092915050565b7f4f6e6c792074686520426f7820736d61727420636f6e74726163742063616e2060008201527f6d696e7400000000000000000000000000000000000000000000000000000000602082015250565b6000612f3a6024836128ce565b9150612f4582612ede565b604082019050919050565b60006020820190508181036000830152612f6981612f2d565b9050919050565b7f4e487b7100000000000000000000000000000000000000000000000000000000600052601160045260246000fd5b6000612faa82612860565b9150612fb583612860565b9250827fffffffffffffffffffffffffffffffffffffffffffffffffffffffffffffffff03821115612fea57612fe9612f70565b5b828201905092915050565b7f43616e6e6f74206d696e74206d6f7265207468616e206d617820737570706c79600082015250565b600061302b6020836128ce565b915061303682612ff5565b602082019050919050565b6000602082019050818103600083015261305a8161301e565b9050919050565b7f4d696e74696e67206973206e6f7420656e61626c656400000000000000000000600082015250565b60006130976016836128ce565b91506130a282613061565b602082019050919050565b600060208201905081810360008301526130c68161308a565b9050919050565b60006130d882612860565b91506130e383612860565b9250817fffffffffffffffffffffffffffffffffffffffffffffffffffffffffffffffff048311821515161561311c5761311b612f70565b5b828202905092915050565b7f4e6f7420656e6f756768204554482073656e743b20636865636b20707269636560008201527f2100000000000000000000000000000000000000000000000000000000000000602082015250565b60006131836021836128ce565b915061318e82613127565b604082019050919050565b600060208201905081810360008301526131b281613176565b9050919050565b7f4f776e61626c653a206e6577206f776e657220697320746865207a65726f206160008201527f6464726573730000000000000000000000000000000000000000000000000000602082015250565b60006132156026836128ce565b9150613220826131b9565b604082019050919050565b6000602082019050818103600083015261324481613208565b9050919050565b7f4f776e61626c653a2063616c6c6572206973206e6f7420746865206f776e6572600082015250565b60006132816020836128ce565b915061328c8261324b565b602082019050919050565b600060208201905081810360008301526132b081613274565b9050919050565b600081519050919050565b600082825260208201905092915050565b60006132de826132b7565b6132e881856132c2565b93506132f88185602086016128df565b61330181612912565b840191505092915050565b600060808201905061332160008301876129b0565b61332e60208301866129b0565b61333b6040830185612a46565b818103606083015261334d81846132d3565b905095945050505050565b600081519050613367816127d1565b92915050565b6000602082840312156133835761338261279b565b5b600061339184828501613358565b9150509291505056fe697066733a2f2f516d646f6a66794d353172374c6b6a6934645a3937486b58454868544e48696b6f67726858773631535859624d382f697066733a2f2f516d556f7765456b4e75354e4b3835656e734a5a6a51337447787547466b576d4273797a65635a436138734a436e2fa2646970667358221220e3468841324e7c9a599976a66a3a400a47a258fdda7e42e0580a19ae3206fbe864736f6c634300080d0033",
  "linkReferences": {},
  "deployedLinkReferences": {}
}