{
  "_format": "hh-sol-artifact-1",
  "contractName": "NftSneakerX",
  "sourceName": "src/backend/contracts/NftSneakerX.sol",
  "abi": [
    {
      "inputs": [],
      "stateMutability": "nonpayable",
      "type": "constructor"
    },
    {
      "inputs": [],
      "name": "ApprovalCallerNotOwnerNorApproved",
      "type": "error"
    },
    {
      "inputs": [],
      "name": "ApprovalQueryForNonexistentToken",
      "type": "error"
    },
    {
      "inputs": [],
      "name": "ApproveToCaller",
      "type": "error"
    },
    {
      "inputs": [],
      "name": "BalanceQueryForZeroAddress",
      "type": "error"
    },
    {
      "inputs": [],
      "name": "MintERC2309QuantityExceedsLimit",
      "type": "error"
    },
    {
      "inputs": [],
      "name": "MintToZeroAddress",
      "type": "error"
    },
    {
      "inputs": [],
      "name": "MintZeroQuantity",
      "type": "error"
    },
    {
      "inputs": [
        {
          "internalType": "address",
          "name": "operator",
          "type": "address"
        }
      ],
      "name": "OperatorNotAllowed",
      "type": "error"
    },
    {
      "inputs": [],
      "name": "OwnerQueryForNonexistentToken",
      "type": "error"
    },
    {
      "inputs": [],
      "name": "OwnershipNotInitializedForExtraData",
      "type": "error"
    },
    {
      "inputs": [],
      "name": "TransferCallerNotOwnerNorApproved",
      "type": "error"
    },
    {
      "inputs": [],
      "name": "TransferFromIncorrectOwner",
      "type": "error"
    },
    {
      "inputs": [],
      "name": "TransferToNonERC721ReceiverImplementer",
      "type": "error"
    },
    {
      "inputs": [],
      "name": "TransferToZeroAddress",
      "type": "error"
    },
    {
      "inputs": [],
      "name": "URIQueryForNonexistentToken",
      "type": "error"
    },
    {
      "anonymous": false,
      "inputs": [
        {
          "indexed": true,
          "internalType": "address",
          "name": "owner",
          "type": "address"
        },
        {
          "indexed": true,
          "internalType": "address",
          "name": "approved",
          "type": "address"
        },
        {
          "indexed": true,
          "internalType": "uint256",
          "name": "tokenId",
          "type": "uint256"
        }
      ],
      "name": "Approval",
      "type": "event"
    },
    {
      "anonymous": false,
      "inputs": [
        {
          "indexed": true,
          "internalType": "address",
          "name": "owner",
          "type": "address"
        },
        {
          "indexed": true,
          "internalType": "address",
          "name": "operator",
          "type": "address"
        },
        {
          "indexed": false,
          "internalType": "bool",
          "name": "approved",
          "type": "bool"
        }
      ],
      "name": "ApprovalForAll",
      "type": "event"
    },
    {
      "anonymous": false,
      "inputs": [
        {
          "indexed": true,
          "internalType": "uint256",
          "name": "fromTokenId",
          "type": "uint256"
        },
        {
          "indexed": false,
          "internalType": "uint256",
          "name": "toTokenId",
          "type": "uint256"
        },
        {
          "indexed": true,
          "internalType": "address",
          "name": "from",
          "type": "address"
        },
        {
          "indexed": true,
          "internalType": "address",
          "name": "to",
          "type": "address"
        }
      ],
      "name": "ConsecutiveTransfer",
      "type": "event"
    },
    {
      "anonymous": false,
      "inputs": [
        {
          "indexed": false,
          "internalType": "address",
          "name": "user",
          "type": "address"
        },
        {
          "indexed": false,
          "internalType": "uint256",
          "name": "metadata",
          "type": "uint256"
        }
      ],
      "name": "MintSuccessful",
      "type": "event"
    },
    {
      "anonymous": false,
      "inputs": [
        {
          "indexed": true,
          "internalType": "address",
          "name": "previousOwner",
          "type": "address"
        },
        {
          "indexed": true,
          "internalType": "address",
          "name": "newOwner",
          "type": "address"
        }
      ],
      "name": "OwnershipTransferred",
      "type": "event"
    },
    {
      "anonymous": false,
      "inputs": [
        {
          "indexed": true,
          "internalType": "address",
          "name": "from",
          "type": "address"
        },
        {
          "indexed": true,
          "internalType": "address",
          "name": "to",
          "type": "address"
        },
        {
          "indexed": true,
          "internalType": "uint256",
          "name": "tokenId",
          "type": "uint256"
        }
      ],
      "name": "Transfer",
      "type": "event"
    },
    {
      "inputs": [
        {
          "internalType": "address",
          "name": "_user",
          "type": "address"
        },
        {
          "internalType": "uint256",
          "name": "_metadata",
          "type": "uint256"
        }
      ],
      "name": "airdrop",
      "outputs": [],
      "stateMutability": "nonpayable",
      "type": "function"
    },
    {
      "inputs": [
        {
          "internalType": "address",
          "name": "to",
          "type": "address"
        },
        {
          "internalType": "uint256",
          "name": "tokenId",
          "type": "uint256"
        }
      ],
      "name": "approve",
      "outputs": [],
      "stateMutability": "nonpayable",
      "type": "function"
    },
    {
      "inputs": [
        {
          "internalType": "address",
          "name": "owner",
          "type": "address"
        }
      ],
      "name": "balanceOf",
      "outputs": [
        {
          "internalType": "uint256",
          "name": "",
          "type": "uint256"
        }
      ],
      "stateMutability": "view",
      "type": "function"
    },
    {
      "inputs": [],
      "name": "baseTokenURI",
      "outputs": [
        {
          "internalType": "string",
          "name": "",
          "type": "string"
        }
      ],
      "stateMutability": "view",
      "type": "function"
    },
    {
      "inputs": [],
      "name": "burnAmount",
      "outputs": [
        {
          "internalType": "uint256",
          "name": "",
          "type": "uint256"
        }
      ],
      "stateMutability": "view",
      "type": "function"
    },
    {
      "inputs": [],
      "name": "contractURI",
      "outputs": [
        {
          "internalType": "string",
          "name": "",
          "type": "string"
        }
      ],
      "stateMutability": "view",
      "type": "function"
    },
    {
      "inputs": [],
      "name": "contractUri",
      "outputs": [
        {
          "internalType": "string",
          "name": "",
          "type": "string"
        }
      ],
      "stateMutability": "view",
      "type": "function"
    },
    {
      "inputs": [
        {
          "internalType": "uint256",
          "name": "_tokenId",
          "type": "uint256"
        }
      ],
      "name": "forgeNft",
      "outputs": [],
      "stateMutability": "nonpayable",
      "type": "function"
    },
    {
      "inputs": [
        {
          "internalType": "uint256",
          "name": "tokenId",
          "type": "uint256"
        }
      ],
      "name": "getApproved",
      "outputs": [
        {
          "internalType": "address",
          "name": "",
          "type": "address"
        }
      ],
      "stateMutability": "view",
      "type": "function"
    },
    {
      "inputs": [],
      "name": "getPrice",
      "outputs": [
        {
          "internalType": "uint256",
          "name": "",
          "type": "uint256"
        }
      ],
      "stateMutability": "view",
      "type": "function"
    },
    {
      "inputs": [
        {
          "internalType": "uint256",
          "name": "",
          "type": "uint256"
        }
      ],
      "name": "idToMetadata",
      "outputs": [
        {
          "internalType": "uint256",
          "name": "",
          "type": "uint256"
        }
      ],
      "stateMutability": "view",
      "type": "function"
    },
    {
      "inputs": [
        {
          "internalType": "address",
          "name": "owner",
          "type": "address"
        },
        {
          "internalType": "address",
          "name": "operator",
          "type": "address"
        }
      ],
      "name": "isApprovedForAll",
      "outputs": [
        {
          "internalType": "bool",
          "name": "",
          "type": "bool"
        }
      ],
      "stateMutability": "view",
      "type": "function"
    },
    {
      "inputs": [],
      "name": "max_supply",
      "outputs": [
        {
          "internalType": "uint256",
          "name": "",
          "type": "uint256"
        }
      ],
      "stateMutability": "view",
      "type": "function"
    },
    {
      "inputs": [
        {
          "internalType": "uint256",
          "name": "quantity",
          "type": "uint256"
        },
        {
          "internalType": "uint256",
          "name": "_metadataId",
          "type": "uint256"
        }
      ],
      "name": "mint",
      "outputs": [],
      "stateMutability": "payable",
      "type": "function"
    },
    {
      "inputs": [],
      "name": "mintEnabled",
      "outputs": [
        {
          "internalType": "bool",
          "name": "",
          "type": "bool"
        }
      ],
      "stateMutability": "view",
      "type": "function"
    },
    {
      "inputs": [
        {
          "internalType": "address",
          "name": "_user",
          "type": "address"
        },
        {
          "internalType": "uint256",
          "name": "_metadataId",
          "type": "uint256"
        }
      ],
      "name": "mintFromEquip",
      "outputs": [],
      "stateMutability": "nonpayable",
      "type": "function"
    },
    {
      "inputs": [],
      "name": "name",
      "outputs": [
        {
          "internalType": "string",
          "name": "",
          "type": "string"
        }
      ],
      "stateMutability": "view",
      "type": "function"
    },
    {
      "inputs": [],
      "name": "owner",
      "outputs": [
        {
          "internalType": "address",
          "name": "",
          "type": "address"
        }
      ],
      "stateMutability": "view",
      "type": "function"
    },
    {
      "inputs": [
        {
          "internalType": "uint256",
          "name": "tokenId",
          "type": "uint256"
        }
      ],
      "name": "ownerOf",
      "outputs": [
        {
          "internalType": "address",
          "name": "",
          "type": "address"
        }
      ],
      "stateMutability": "view",
      "type": "function"
    },
    {
      "inputs": [],
      "name": "price",
      "outputs": [
        {
          "internalType": "uint256",
          "name": "",
          "type": "uint256"
        }
      ],
      "stateMutability": "view",
      "type": "function"
    },
    {
      "inputs": [],
      "name": "renounceOwnership",
      "outputs": [],
      "stateMutability": "nonpayable",
      "type": "function"
    },
    {
      "inputs": [
        {
          "internalType": "address",
          "name": "from",
          "type": "address"
        },
        {
          "internalType": "address",
          "name": "to",
          "type": "address"
        },
        {
          "internalType": "uint256",
          "name": "tokenId",
          "type": "uint256"
        }
      ],
      "name": "safeTransferFrom",
      "outputs": [],
      "stateMutability": "nonpayable",
      "type": "function"
    },
    {
      "inputs": [
        {
          "internalType": "address",
          "name": "from",
          "type": "address"
        },
        {
          "internalType": "address",
          "name": "to",
          "type": "address"
        },
        {
          "internalType": "uint256",
          "name": "tokenId",
          "type": "uint256"
        },
        {
          "internalType": "bytes",
          "name": "data",
          "type": "bytes"
        }
      ],
      "name": "safeTransferFrom",
      "outputs": [],
      "stateMutability": "nonpayable",
      "type": "function"
    },
    {
      "inputs": [
        {
          "internalType": "address",
          "name": "operator",
          "type": "address"
        },
        {
          "internalType": "bool",
          "name": "approved",
          "type": "bool"
        }
      ],
      "name": "setApprovalForAll",
      "outputs": [],
      "stateMutability": "nonpayable",
      "type": "function"
    },
    {
      "inputs": [
        {
          "internalType": "string",
          "name": "_uri",
          "type": "string"
        }
      ],
      "name": "setContractMetadata",
      "outputs": [],
      "stateMutability": "nonpayable",
      "type": "function"
    },
    {
      "inputs": [
        {
          "internalType": "address",
          "name": "_equipAddress",
          "type": "address"
        }
      ],
      "name": "setEquipAddress",
      "outputs": [],
      "stateMutability": "nonpayable",
      "type": "function"
    },
    {
      "inputs": [
        {
          "internalType": "address",
          "name": "_forgeNftAddress",
          "type": "address"
        }
      ],
      "name": "setForgeNftAddress",
      "outputs": [],
      "stateMutability": "nonpayable",
      "type": "function"
    },
    {
      "inputs": [
        {
          "internalType": "uint256",
          "name": "_supply",
          "type": "uint256"
        }
      ],
      "name": "setMaxSupply",
      "outputs": [],
      "stateMutability": "nonpayable",
      "type": "function"
    },
    {
      "inputs": [
        {
          "internalType": "string",
          "name": "_uri",
          "type": "string"
        }
      ],
      "name": "setMetadata",
      "outputs": [],
      "stateMutability": "nonpayable",
      "type": "function"
    },
    {
      "inputs": [
        {
          "internalType": "bool",
          "name": "_state",
          "type": "bool"
        }
      ],
      "name": "setMintEnabled",
      "outputs": [],
      "stateMutability": "nonpayable",
      "type": "function"
    },
    {
      "inputs": [
        {
          "internalType": "uint256",
          "name": "_price",
          "type": "uint256"
        }
      ],
      "name": "setPrice",
      "outputs": [],
      "stateMutability": "nonpayable",
      "type": "function"
    },
    {
      "inputs": [
        {
          "internalType": "bytes4",
          "name": "interfaceId",
          "type": "bytes4"
        }
      ],
      "name": "supportsInterface",
      "outputs": [
        {
          "internalType": "bool",
          "name": "",
          "type": "bool"
        }
      ],
      "stateMutability": "view",
      "type": "function"
    },
    {
      "inputs": [],
      "name": "symbol",
      "outputs": [
        {
          "internalType": "string",
          "name": "",
          "type": "string"
        }
      ],
      "stateMutability": "view",
      "type": "function"
    },
    {
      "inputs": [
        {
          "internalType": "uint256",
          "name": "_tokenId",
          "type": "uint256"
        }
      ],
      "name": "tokenURI",
      "outputs": [
        {
          "internalType": "string",
          "name": "",
          "type": "string"
        }
      ],
      "stateMutability": "view",
      "type": "function"
    },
    {
      "inputs": [],
      "name": "totalSupply",
      "outputs": [
        {
          "internalType": "uint256",
          "name": "",
          "type": "uint256"
        }
      ],
      "stateMutability": "view",
      "type": "function"
    },
    {
      "inputs": [
        {
          "internalType": "address",
          "name": "from",
          "type": "address"
        },
        {
          "internalType": "address",
          "name": "to",
          "type": "address"
        },
        {
          "internalType": "uint256",
          "name": "tokenId",
          "type": "uint256"
        }
      ],
      "name": "transferFrom",
      "outputs": [],
      "stateMutability": "nonpayable",
      "type": "function"
    },
    {
      "inputs": [
        {
          "internalType": "address",
          "name": "newOwner",
          "type": "address"
        }
      ],
      "name": "transferOwnership",
      "outputs": [],
      "stateMutability": "nonpayable",
      "type": "function"
    },
    {
      "inputs": [],
      "name": "uri",
      "outputs": [
        {
          "internalType": "string",
          "name": "",
          "type": "string"
        }
      ],
      "stateMutability": "view",
      "type": "function"
    },
    {
      "inputs": [],
      "name": "uriPrefix",
      "outputs": [
        {
          "internalType": "string",
          "name": "",
          "type": "string"
        }
      ],
      "stateMutability": "view",
      "type": "function"
    },
    {
      "inputs": [],
      "name": "uriSuffix",
      "outputs": [
        {
          "internalType": "string",
          "name": "",
          "type": "string"
        }
      ],
      "stateMutability": "view",
      "type": "function"
    },
    {
      "inputs": [],
      "name": "withdraw",
      "outputs": [],
      "stateMutability": "nonpayable",
      "type": "function"
    }
  ],
  "bytecode": "0x608060405260405180602001604052806000815250600b90805190602001906200002b929190620004b5565b506040518060400160405280600581526020017f2e6a736f6e000000000000000000000000000000000000000000000000000000815250600c908051906020019062000079929190620004b5565b506064600d556040518060600160405280603681526020016200452260369139600f9080519060200190620000b0929190620004b5565b50604051806060016040528060368152602001620045586036913960109080519060200190620000e2929190620004b5565b506000601255348015620000f557600080fd5b50733cc6cdda760b79bafa08df41ecfa224f810dceb660016040518060400160405280600981526020017f536e65616b6572205800000000000000000000000000000000000000000000008152506040518060400160405280600281526020017f5358000000000000000000000000000000000000000000000000000000000000815250620001996200018d620003e060201b60201c565b620003e860201b60201c565b8160039080519060200190620001b1929190620004b5565b508060049080519060200190620001ca929190620004b5565b50620001db620004ac60201b60201c565b600181905550505060006daaeb6d7670e522a718067333cd4e73ffffffffffffffffffffffffffffffffffffffff163b1115620003d85780156200029e576daaeb6d7670e522a718067333cd4e73ffffffffffffffffffffffffffffffffffffffff16637d3e3dbe30846040518363ffffffff1660e01b815260040162000264929190620005aa565b600060405180830381600087803b1580156200027f57600080fd5b505af115801562000294573d6000803e3d6000fd5b50505050620003d7565b600073ffffffffffffffffffffffffffffffffffffffff168273ffffffffffffffffffffffffffffffffffffffff161462000358576daaeb6d7670e522a718067333cd4e73ffffffffffffffffffffffffffffffffffffffff1663a0af290330846040518363ffffffff1660e01b81526004016200031e929190620005aa565b600060405180830381600087803b1580156200033957600080fd5b505af11580156200034e573d6000803e3d6000fd5b50505050620003d6565b6daaeb6d7670e522a718067333cd4e73ffffffffffffffffffffffffffffffffffffffff16634420e486306040518263ffffffff1660e01b8152600401620003a19190620005d7565b600060405180830381600087803b158015620003bc57600080fd5b505af1158015620003d1573d6000803e3d6000fd5b505050505b5b5b505062000658565b600033905090565b60008060009054906101000a900473ffffffffffffffffffffffffffffffffffffffff169050816000806101000a81548173ffffffffffffffffffffffffffffffffffffffff021916908373ffffffffffffffffffffffffffffffffffffffff1602179055508173ffffffffffffffffffffffffffffffffffffffff168173ffffffffffffffffffffffffffffffffffffffff167f8be0079c531659141344cd1fd0a4f28419497f9722a3daafe3b4186f6b6457e060405160405180910390a35050565b60006001905090565b828054620004c39062000623565b90600052602060002090601f016020900481019282620004e7576000855562000533565b82601f106200050257805160ff191683800117855562000533565b8280016001018555821562000533579182015b828111156200053257825182559160200191906001019062000515565b5b50905062000542919062000546565b5090565b5b808211156200056157600081600090555060010162000547565b5090565b600073ffffffffffffffffffffffffffffffffffffffff82169050919050565b6000620005928262000565565b9050919050565b620005a48162000585565b82525050565b6000604082019050620005c1600083018562000599565b620005d0602083018462000599565b9392505050565b6000602082019050620005ee600083018462000599565b92915050565b7f4e487b7100000000000000000000000000000000000000000000000000000000600052602260045260246000fd5b600060028204905060018216806200063c57607f821691505b602082108103620006525762000651620005f4565b5b50919050565b613eba80620006686000396000f3fe6080604052600436106102465760003560e01c806391b7f5ed11610139578063c0e24d5e116100b6578063e985e9c51161007a578063e985e9c514610835578063eac989f814610872578063f2fde38b1461089d578063f307101a146108c6578063f46a04eb14610903578063fce550371461092c57610246565b8063c0e24d5e1461074c578063c87b56dd14610777578063d1239730146107b4578063d547cfb7146107df578063e8a3d4851461080a57610246565b8063a49a1e7d116100fd578063a49a1e7d1461067f578063afa20f54146106a8578063b8829a4c146106d1578063b88d4fde146106fa578063b9ff39431461072357610246565b806391b7f5ed146105ac57806395d89b41146105d557806398d5fdca14610600578063a035b1fe1461062b578063a22cb4651461065657610246565b8063486a7e6b116101c757806370a082311161018b57806370a08231146104d9578063715018a6146105165780638a333b501461052d5780638ba4cc3c146105585780638da5cb5b1461058157610246565b8063486a7e6b146103f25780635503a0e81461041d57806362b99ad4146104485780636352211e146104735780636f8b44b0146104b057610246565b806318160ddd1161020e57806318160ddd146103425780631b2ef1ca1461036d57806323b872dd146103895780633ccfd60b146103b257806342842e0e146103c957610246565b806301ffc9a71461024b57806306fdde0314610288578063081812fc146102b3578063095ea7b3146102f05780630ba1f76214610319575b600080fd5b34801561025757600080fd5b50610272600480360381019061026d9190612fc1565b610955565b60405161027f9190613009565b60405180910390f35b34801561029457600080fd5b5061029d6109e7565b6040516102aa91906130bd565b60405180910390f35b3480156102bf57600080fd5b506102da60048036038101906102d59190613115565b610a79565b6040516102e79190613183565b60405180910390f35b3480156102fc57600080fd5b50610317600480360381019061031291906131ca565b610af8565b005b34801561032557600080fd5b50610340600480360381019061033b9190613115565b610c3c565b005b34801561034e57600080fd5b50610357610d62565b6040516103649190613219565b60405180910390f35b61038760048036038101906103829190613234565b610d79565b005b34801561039557600080fd5b506103b060048036038101906103ab9190613274565b610eba565b005b3480156103be57600080fd5b506103c761109c565b005b3480156103d557600080fd5b506103f060048036038101906103eb9190613274565b6110ed565b005b3480156103fe57600080fd5b506104076112cf565b6040516104149190613219565b60405180910390f35b34801561042957600080fd5b506104326112d5565b60405161043f91906130bd565b60405180910390f35b34801561045457600080fd5b5061045d611363565b60405161046a91906130bd565b60405180910390f35b34801561047f57600080fd5b5061049a60048036038101906104959190613115565b6113f1565b6040516104a79190613183565b60405180910390f35b3480156104bc57600080fd5b506104d760048036038101906104d29190613115565b611403565b005b3480156104e557600080fd5b5061050060048036038101906104fb91906132c7565b611415565b60405161050d9190613219565b60405180910390f35b34801561052257600080fd5b5061052b6114cd565b005b34801561053957600080fd5b506105426114e1565b60405161054f9190613219565b60405180910390f35b34801561056457600080fd5b5061057f600480360381019061057a91906131ca565b6114e7565b005b34801561058d57600080fd5b5061059661151d565b6040516105a39190613183565b60405180910390f35b3480156105b857600080fd5b506105d360048036038101906105ce9190613115565b611546565b005b3480156105e157600080fd5b506105ea611558565b6040516105f791906130bd565b60405180910390f35b34801561060c57600080fd5b506106156115ea565b6040516106229190613219565b60405180910390f35b34801561063757600080fd5b506106406115f4565b60405161064d9190613219565b60405180910390f35b34801561066257600080fd5b5061067d60048036038101906106789190613320565b6115fa565b005b34801561068b57600080fd5b506106a660048036038101906106a19190613495565b611771565b005b3480156106b457600080fd5b506106cf60048036038101906106ca91906132c7565b611793565b005b3480156106dd57600080fd5b506106f860048036038101906106f391906131ca565b6117df565b005b34801561070657600080fd5b50610721600480360381019061071c919061357f565b61192e565b005b34801561072f57600080fd5b5061074a600480360381019061074591906132c7565b611b13565b005b34801561075857600080fd5b50610761611b5f565b60405161076e91906130bd565b60405180910390f35b34801561078357600080fd5b5061079e60048036038101906107999190613115565b611bed565b6040516107ab91906130bd565b60405180910390f35b3480156107c057600080fd5b506107c9611caa565b6040516107d69190613009565b60405180910390f35b3480156107eb57600080fd5b506107f4611cbd565b60405161080191906130bd565b60405180910390f35b34801561081657600080fd5b5061081f611ccc565b60405161082c91906130bd565b60405180910390f35b34801561084157600080fd5b5061085c60048036038101906108579190613602565b611d5e565b6040516108699190613009565b60405180910390f35b34801561087e57600080fd5b50610887611df2565b60405161089491906130bd565b60405180910390f35b3480156108a957600080fd5b506108c460048036038101906108bf91906132c7565b611e80565b005b3480156108d257600080fd5b506108ed60048036038101906108e89190613115565b611f03565b6040516108fa9190613219565b60405180910390f35b34801561090f57600080fd5b5061092a60048036038101906109259190613642565b611f1b565b005b34801561093857600080fd5b50610953600480360381019061094e9190613495565b611f40565b005b60006301ffc9a760e01b827bffffffffffffffffffffffffffffffffffffffffffffffffffffffff191614806109b057506380ac58cd60e01b827bffffffffffffffffffffffffffffffffffffffffffffffffffffffff1916145b806109e05750635b5e139f60e01b827bffffffffffffffffffffffffffffffffffffffffffffffffffffffff1916145b9050919050565b6060600380546109f69061369e565b80601f0160208091040260200160405190810160405280929190818152602001828054610a229061369e565b8015610a6f5780601f10610a4457610100808354040283529160200191610a6f565b820191906000526020600020905b815481529060010190602001808311610a5257829003601f168201915b5050505050905090565b6000610a8482611f62565b610aba576040517fcf4700e400000000000000000000000000000000000000000000000000000000815260040160405180910390fd5b6007600083815260200190815260200160002060000160009054906101000a900473ffffffffffffffffffffffffffffffffffffffff169050919050565b6000610b03826113f1565b90508073ffffffffffffffffffffffffffffffffffffffff16610b24611fc1565b73ffffffffffffffffffffffffffffffffffffffff1614610b8757610b5081610b4b611fc1565b611d5e565b610b86576040517fcfb3b94200000000000000000000000000000000000000000000000000000000815260040160405180910390fd5b5b826007600084815260200190815260200160002060000160006101000a81548173ffffffffffffffffffffffffffffffffffffffff021916908373ffffffffffffffffffffffffffffffffffffffff160217905550818373ffffffffffffffffffffffffffffffffffffffff168273ffffffffffffffffffffffffffffffffffffffff167f8c5be1e5ebec7d5bd14f71427d1e84f3dd0314c0f7b2291e5b200ac8c7c3b92560405160405180910390a4505050565b3373ffffffffffffffffffffffffffffffffffffffff16610c5c826113f1565b73ffffffffffffffffffffffffffffffffffffffff1614610cb2576040517f08c379a0000000000000000000000000000000000000000000000000000000008152600401610ca99061371b565b60405180910390fd5b600a60009054906101000a900473ffffffffffffffffffffffffffffffffffffffff1673ffffffffffffffffffffffffffffffffffffffff166331185705338360136000868152602001908152602001600020546040518463ffffffff1660e01b8152600401610d249392919061373b565b600060405180830381600087803b158015610d3e57600080fd5b505af1158015610d52573d6000803e3d6000fd5b50505050610d5f81611fc9565b50565b6000610d6c611fd7565b6002546001540303905090565b601160009054906101000a900460ff16610dc8576040517f08c379a0000000000000000000000000000000000000000000000000000000008152600401610dbf906137be565b60405180910390fd5b600d5482610dd4611fe0565b610dde919061380d565b10610e1e576040517f08c379a0000000000000000000000000000000000000000000000000000000008152600401610e15906138af565b60405180910390fd5b81610e276115ea565b610e3191906138cf565b341015610e73576040517f08c379a0000000000000000000000000000000000000000000000000000000008152600401610e6a9061399b565b60405180910390fd5b610e7d3383611ff3565b7f76020ece75bf679c701e656fcffc7e3df8354859b3b0eb7fee42b1378023bb313382604051610eae9291906139bb565b60405180910390a15050565b8260006daaeb6d7670e522a718067333cd4e73ffffffffffffffffffffffffffffffffffffffff163b111561108a573373ffffffffffffffffffffffffffffffffffffffff168173ffffffffffffffffffffffffffffffffffffffff1603610f2c57610f278484846121af565b611096565b6daaeb6d7670e522a718067333cd4e73ffffffffffffffffffffffffffffffffffffffff1663c617113430336040518363ffffffff1660e01b8152600401610f759291906139e4565b602060405180830381865afa158015610f92573d6000803e3d6000fd5b505050506040513d601f19601f82011682018060405250810190610fb69190613a22565b801561104857506daaeb6d7670e522a718067333cd4e73ffffffffffffffffffffffffffffffffffffffff1663c617113430836040518363ffffffff1660e01b81526004016110069291906139e4565b602060405180830381865afa158015611023573d6000803e3d6000fd5b505050506040513d601f19601f820116820180604052508101906110479190613a22565b5b61108957336040517fede71dcc0000000000000000000000000000000000000000000000000000000081526004016110809190613183565b60405180910390fd5b5b6110958484846121af565b5b50505050565b6110a46124d1565b3373ffffffffffffffffffffffffffffffffffffffff166108fc479081150290604051600060405180830381858888f193505050501580156110ea573d6000803e3d6000fd5b50565b8260006daaeb6d7670e522a718067333cd4e73ffffffffffffffffffffffffffffffffffffffff163b11156112bd573373ffffffffffffffffffffffffffffffffffffffff168173ffffffffffffffffffffffffffffffffffffffff160361115f5761115a84848461254f565b6112c9565b6daaeb6d7670e522a718067333cd4e73ffffffffffffffffffffffffffffffffffffffff1663c617113430336040518363ffffffff1660e01b81526004016111a89291906139e4565b602060405180830381865afa1580156111c5573d6000803e3d6000fd5b505050506040513d601f19601f820116820180604052508101906111e99190613a22565b801561127b57506daaeb6d7670e522a718067333cd4e73ffffffffffffffffffffffffffffffffffffffff1663c617113430836040518363ffffffff1660e01b81526004016112399291906139e4565b602060405180830381865afa158015611256573d6000803e3d6000fd5b505050506040513d601f19601f8201168201806040525081019061127a9190613a22565b5b6112bc57336040517fede71dcc0000000000000000000000000000000000000000000000000000000081526004016112b39190613183565b60405180910390fd5b5b6112c884848461254f565b5b50505050565b600e5481565b600c80546112e29061369e565b80601f016020809104026020016040519081016040528092919081815260200182805461130e9061369e565b801561135b5780601f106113305761010080835404028352916020019161135b565b820191906000526020600020905b81548152906001019060200180831161133e57829003601f168201915b505050505081565b600b80546113709061369e565b80601f016020809104026020016040519081016040528092919081815260200182805461139c9061369e565b80156113e95780601f106113be576101008083540402835291602001916113e9565b820191906000526020600020905b8154815290600101906020018083116113cc57829003601f168201915b505050505081565b60006113fc8261256f565b9050919050565b61140b6124d1565b80600d8190555050565b60008073ffffffffffffffffffffffffffffffffffffffff168273ffffffffffffffffffffffffffffffffffffffff160361147c576040517f8f4eb60400000000000000000000000000000000000000000000000000000000815260040160405180910390fd5b67ffffffffffffffff600660008473ffffffffffffffffffffffffffffffffffffffff1673ffffffffffffffffffffffffffffffffffffffff16815260200190815260200160002054169050919050565b6114d56124d1565b6114df600061263b565b565b600d5481565b6114ef6124d1565b6114fa826001611ff3565b8060136000611507611fe0565b8152602001908152602001600020819055505050565b60008060009054906101000a900473ffffffffffffffffffffffffffffffffffffffff16905090565b61154e6124d1565b8060128190555050565b6060600480546115679061369e565b80601f01602080910402602001604051908101604052809291908181526020018280546115939061369e565b80156115e05780601f106115b5576101008083540402835291602001916115e0565b820191906000526020600020905b8154815290600101906020018083116115c357829003601f168201915b5050505050905090565b6000601254905090565b60125481565b611602611fc1565b73ffffffffffffffffffffffffffffffffffffffff168273ffffffffffffffffffffffffffffffffffffffff1603611666576040517fb06307db00000000000000000000000000000000000000000000000000000000815260040160405180910390fd5b8060086000611673611fc1565b73ffffffffffffffffffffffffffffffffffffffff1673ffffffffffffffffffffffffffffffffffffffff16815260200190815260200160002060008473ffffffffffffffffffffffffffffffffffffffff1673ffffffffffffffffffffffffffffffffffffffff16815260200190815260200160002060006101000a81548160ff0219169083151502179055508173ffffffffffffffffffffffffffffffffffffffff16611720611fc1565b73ffffffffffffffffffffffffffffffffffffffff167f17307eab39ab6107e8899845ad3d59bd9653f200f220920489ca2b5937696c31836040516117659190613009565b60405180910390a35050565b6117796124d1565b80600f908051906020019061178f929190612eb2565b5050565b61179b6124d1565b80600960006101000a81548173ffffffffffffffffffffffffffffffffffffffff021916908373ffffffffffffffffffffffffffffffffffffffff16021790555050565b600960009054906101000a900473ffffffffffffffffffffffffffffffffffffffff1673ffffffffffffffffffffffffffffffffffffffff163373ffffffffffffffffffffffffffffffffffffffff161461186f576040517f08c379a000000000000000000000000000000000000000000000000000000000815260040161186690613ac1565b60405180910390fd5b600d54600161187c611fe0565b611886919061380d565b11156118c7576040517f08c379a00000000000000000000000000000000000000000000000000000000081526004016118be906138af565b60405180910390fd5b6118d2826001611ff3565b80601360006118df611fe0565b8152602001908152602001600020819055507f76020ece75bf679c701e656fcffc7e3df8354859b3b0eb7fee42b1378023bb3133826040516119229291906139bb565b60405180910390a15050565b8360006daaeb6d7670e522a718067333cd4e73ffffffffffffffffffffffffffffffffffffffff163b1115611aff573373ffffffffffffffffffffffffffffffffffffffff168173ffffffffffffffffffffffffffffffffffffffff16036119a15761199c858585856126ff565b611b0c565b6daaeb6d7670e522a718067333cd4e73ffffffffffffffffffffffffffffffffffffffff1663c617113430336040518363ffffffff1660e01b81526004016119ea9291906139e4565b602060405180830381865afa158015611a07573d6000803e3d6000fd5b505050506040513d601f19601f82011682018060405250810190611a2b9190613a22565b8015611abd57506daaeb6d7670e522a718067333cd4e73ffffffffffffffffffffffffffffffffffffffff1663c617113430836040518363ffffffff1660e01b8152600401611a7b9291906139e4565b602060405180830381865afa158015611a98573d6000803e3d6000fd5b505050506040513d601f19601f82011682018060405250810190611abc9190613a22565b5b611afe57336040517fede71dcc000000000000000000000000000000000000000000000000000000008152600401611af59190613183565b60405180910390fd5b5b611b0b858585856126ff565b5b5050505050565b611b1b6124d1565b80600a60006101000a81548173ffffffffffffffffffffffffffffffffffffffff021916908373ffffffffffffffffffffffffffffffffffffffff16021790555050565b60108054611b6c9061369e565b80601f0160208091040260200160405190810160405280929190818152602001828054611b989061369e565b8015611be55780601f10611bba57610100808354040283529160200191611be5565b820191906000526020600020905b815481529060010190602001808311611bc857829003601f168201915b505050505081565b6060611bf882611f62565b611c37576040517f08c379a0000000000000000000000000000000000000000000000000000000008152600401611c2e90613b53565b60405180910390fd5b6000611c41612772565b90506000815111611c615760405180602001604052806000815250611ca2565b80611c7e6013600086815260200190815260200160002054612804565b600c604051602001611c9293929190613c43565b6040516020818303038152906040525b915050919050565b601160009054906101000a900460ff1681565b6060611cc7612772565b905090565b606060108054611cdb9061369e565b80601f0160208091040260200160405190810160405280929190818152602001828054611d079061369e565b8015611d545780601f10611d2957610100808354040283529160200191611d54565b820191906000526020600020905b815481529060010190602001808311611d3757829003601f168201915b5050505050905090565b6000600860008473ffffffffffffffffffffffffffffffffffffffff1673ffffffffffffffffffffffffffffffffffffffff16815260200190815260200160002060008373ffffffffffffffffffffffffffffffffffffffff1673ffffffffffffffffffffffffffffffffffffffff16815260200190815260200160002060009054906101000a900460ff16905092915050565b600f8054611dff9061369e565b80601f0160208091040260200160405190810160405280929190818152602001828054611e2b9061369e565b8015611e785780601f10611e4d57610100808354040283529160200191611e78565b820191906000526020600020905b815481529060010190602001808311611e5b57829003601f168201915b505050505081565b611e886124d1565b600073ffffffffffffffffffffffffffffffffffffffff168173ffffffffffffffffffffffffffffffffffffffff1603611ef7576040517f08c379a0000000000000000000000000000000000000000000000000000000008152600401611eee90613ce6565b60405180910390fd5b611f008161263b565b50565b60136020528060005260406000206000915090505481565b611f236124d1565b80601160006101000a81548160ff02191690831515021790555050565b611f486124d1565b8060109080519060200190611f5e929190612eb2565b5050565b600081611f6d611fd7565b11158015611f7c575060015482105b8015611fba575060007c0100000000000000000000000000000000000000000000000000000000600560008581526020019081526020016000205416145b9050919050565b600033905090565b611fd48160006128d2565b50565b60006001905090565b6000611fea611fd7565b60015403905090565b6000600154905060008203612034576040517fb562e8dd00000000000000000000000000000000000000000000000000000000815260040160405180910390fd5b6120416000848385612b24565b600160406001901b178202600660008573ffffffffffffffffffffffffffffffffffffffff1673ffffffffffffffffffffffffffffffffffffffff168152602001908152602001600020600082825401925050819055506120b8836120a96000866000612b2a565b6120b285612b52565b17612b62565b6005600083815260200190815260200160002081905550600080838301905073ffffffffffffffffffffffffffffffffffffffff85169150828260007fddf252ad1be2c89b69c2b068fc378daa952ba7f163c4a11628f55a4df523b3ef600080a4600183015b81811461215957808360007fddf252ad1be2c89b69c2b068fc378daa952ba7f163c4a11628f55a4df523b3ef600080a460018101905061211e565b5060008203612194576040517f2e07630000000000000000000000000000000000000000000000000000000000815260040160405180910390fd5b8060018190555050506121aa6000848385612b8d565b505050565b60006121ba8261256f565b90508373ffffffffffffffffffffffffffffffffffffffff168173ffffffffffffffffffffffffffffffffffffffff1614612221576040517fa114810000000000000000000000000000000000000000000000000000000000815260040160405180910390fd5b60008061222d84612b93565b91509150612243818761223e611fc1565b612bba565b61228f5761225886612253611fc1565b611d5e565b61228e576040517f59c896be00000000000000000000000000000000000000000000000000000000815260040160405180910390fd5b5b600073ffffffffffffffffffffffffffffffffffffffff168573ffffffffffffffffffffffffffffffffffffffff16036122f5576040517fea553b3400000000000000000000000000000000000000000000000000000000815260040160405180910390fd5b6123028686866001612b24565b801561230d57600082555b600660008773ffffffffffffffffffffffffffffffffffffffff1673ffffffffffffffffffffffffffffffffffffffff168152602001908152602001600020600081546001900391905081905550600660008673ffffffffffffffffffffffffffffffffffffffff1673ffffffffffffffffffffffffffffffffffffffff16815260200190815260200160002060008154600101919050819055506123db856123b7888887612b2a565b7c020000000000000000000000000000000000000000000000000000000017612b62565b600560008681526020019081526020016000208190555060007c0200000000000000000000000000000000000000000000000000000000841603612461576000600185019050600060056000838152602001908152602001600020540361245f57600154811461245e578360056000838152602001908152602001600020819055505b5b505b838573ffffffffffffffffffffffffffffffffffffffff168773ffffffffffffffffffffffffffffffffffffffff167fddf252ad1be2c89b69c2b068fc378daa952ba7f163c4a11628f55a4df523b3ef60405160405180910390a46124c98686866001612b8d565b505050505050565b6124d9612bfe565b73ffffffffffffffffffffffffffffffffffffffff166124f761151d565b73ffffffffffffffffffffffffffffffffffffffff161461254d576040517f08c379a000000000000000000000000000000000000000000000000000000000815260040161254490613d52565b60405180910390fd5b565b61256a8383836040518060200160405280600081525061192e565b505050565b6000808290508061257e611fd7565b11612604576001548110156126035760006005600083815260200190815260200160002054905060007c0100000000000000000000000000000000000000000000000000000000821603612601575b600081036125f75760056000836001900393508381526020019081526020016000205490506125cd565b8092505050612636565b505b5b6040517fdf2d9b4200000000000000000000000000000000000000000000000000000000815260040160405180910390fd5b919050565b60008060009054906101000a900473ffffffffffffffffffffffffffffffffffffffff169050816000806101000a81548173ffffffffffffffffffffffffffffffffffffffff021916908373ffffffffffffffffffffffffffffffffffffffff1602179055508173ffffffffffffffffffffffffffffffffffffffff168173ffffffffffffffffffffffffffffffffffffffff167f8be0079c531659141344cd1fd0a4f28419497f9722a3daafe3b4186f6b6457e060405160405180910390a35050565b61270a848484610eba565b60008373ffffffffffffffffffffffffffffffffffffffff163b1461276c5761273584848484612c06565b61276b576040517fd1a57ed600000000000000000000000000000000000000000000000000000000815260040160405180910390fd5b5b50505050565b6060600f80546127819061369e565b80601f01602080910402602001604051908101604052809291908181526020018280546127ad9061369e565b80156127fa5780601f106127cf576101008083540402835291602001916127fa565b820191906000526020600020905b8154815290600101906020018083116127dd57829003601f168201915b5050505050905090565b60606000600161281384612d56565b01905060008167ffffffffffffffff8111156128325761283161336a565b5b6040519080825280601f01601f1916602001820160405280156128645781602001600182028036833780820191505090505b509050600082602001820190505b6001156128c7578080600190039150507f3031323334353637383961626364656600000000000000000000000000000000600a86061a8153600a85816128bb576128ba613d72565b5b04945060008503612872575b819350505050919050565b60006128dd8361256f565b905060008190506000806128f086612b93565b9150915084156129595761290c8184612907611fc1565b612bba565b612958576129218361291c611fc1565b611d5e565b612957576040517f59c896be00000000000000000000000000000000000000000000000000000000815260040160405180910390fd5b5b5b612967836000886001612b24565b801561297257600082555b600160806001901b03600660008573ffffffffffffffffffffffffffffffffffffffff1673ffffffffffffffffffffffffffffffffffffffff16815260200190815260200160002060008282540192505081905550612a1a836129d785600088612b2a565b7c02000000000000000000000000000000000000000000000000000000007c01000000000000000000000000000000000000000000000000000000001717612b62565b600560008881526020019081526020016000208190555060007c0200000000000000000000000000000000000000000000000000000000851603612aa05760006001870190506000600560008381526020019081526020016000205403612a9e576001548114612a9d578460056000838152602001908152602001600020819055505b5b505b85600073ffffffffffffffffffffffffffffffffffffffff168473ffffffffffffffffffffffffffffffffffffffff167fddf252ad1be2c89b69c2b068fc378daa952ba7f163c4a11628f55a4df523b3ef60405160405180910390a4612b0a836000886001612b8d565b600260008154809291906001019190505550505050505050565b50505050565b60008060e883901c905060e8612b41868684612ea9565b62ffffff16901b9150509392505050565b60006001821460e11b9050919050565b600073ffffffffffffffffffffffffffffffffffffffff83169250814260a01b178317905092915050565b50505050565b60008060006007600085815260200190815260200160002090508092508254915050915091565b600073ffffffffffffffffffffffffffffffffffffffff8316925073ffffffffffffffffffffffffffffffffffffffff821691508382148383141790509392505050565b600033905090565b60008373ffffffffffffffffffffffffffffffffffffffff1663150b7a02612c2c611fc1565b8786866040518563ffffffff1660e01b8152600401612c4e9493929190613df6565b6020604051808303816000875af1925050508015612c8a57506040513d601f19601f82011682018060405250810190612c879190613e57565b60015b612d03573d8060008114612cba576040519150601f19603f3d011682016040523d82523d6000602084013e612cbf565b606091505b506000815103612cfb576040517fd1a57ed600000000000000000000000000000000000000000000000000000000815260040160405180910390fd5b805181602001fd5b63150b7a0260e01b7bffffffffffffffffffffffffffffffffffffffffffffffffffffffff1916817bffffffffffffffffffffffffffffffffffffffffffffffffffffffff191614915050949350505050565b600080600090507a184f03e93ff9f4daa797ed6e38ed64bf6a1f0100000000000000008310612db4577a184f03e93ff9f4daa797ed6e38ed64bf6a1f0100000000000000008381612daa57612da9613d72565b5b0492506040810190505b6d04ee2d6d415b85acef81000000008310612df1576d04ee2d6d415b85acef81000000008381612de757612de6613d72565b5b0492506020810190505b662386f26fc100008310612e2057662386f26fc100008381612e1657612e15613d72565b5b0492506010810190505b6305f5e1008310612e49576305f5e1008381612e3f57612e3e613d72565b5b0492506008810190505b6127108310612e6e576127108381612e6457612e63613d72565b5b0492506004810190505b60648310612e915760648381612e8757612e86613d72565b5b0492506002810190505b600a8310612ea0576001810190505b80915050919050565b60009392505050565b828054612ebe9061369e565b90600052602060002090601f016020900481019282612ee05760008555612f27565b82601f10612ef957805160ff1916838001178555612f27565b82800160010185558215612f27579182015b82811115612f26578251825591602001919060010190612f0b565b5b509050612f349190612f38565b5090565b5b80821115612f51576000816000905550600101612f39565b5090565b6000604051905090565b600080fd5b600080fd5b60007fffffffff0000000000000000000000000000000000000000000000000000000082169050919050565b612f9e81612f69565b8114612fa957600080fd5b50565b600081359050612fbb81612f95565b92915050565b600060208284031215612fd757612fd6612f5f565b5b6000612fe584828501612fac565b91505092915050565b60008115159050919050565b61300381612fee565b82525050565b600060208201905061301e6000830184612ffa565b92915050565b600081519050919050565b600082825260208201905092915050565b60005b8381101561305e578082015181840152602081019050613043565b8381111561306d576000848401525b50505050565b6000601f19601f8301169050919050565b600061308f82613024565b613099818561302f565b93506130a9818560208601613040565b6130b281613073565b840191505092915050565b600060208201905081810360008301526130d78184613084565b905092915050565b6000819050919050565b6130f2816130df565b81146130fd57600080fd5b50565b60008135905061310f816130e9565b92915050565b60006020828403121561312b5761312a612f5f565b5b600061313984828501613100565b91505092915050565b600073ffffffffffffffffffffffffffffffffffffffff82169050919050565b600061316d82613142565b9050919050565b61317d81613162565b82525050565b60006020820190506131986000830184613174565b92915050565b6131a781613162565b81146131b257600080fd5b50565b6000813590506131c48161319e565b92915050565b600080604083850312156131e1576131e0612f5f565b5b60006131ef858286016131b5565b925050602061320085828601613100565b9150509250929050565b613213816130df565b82525050565b600060208201905061322e600083018461320a565b92915050565b6000806040838503121561324b5761324a612f5f565b5b600061325985828601613100565b925050602061326a85828601613100565b9150509250929050565b60008060006060848603121561328d5761328c612f5f565b5b600061329b868287016131b5565b93505060206132ac868287016131b5565b92505060406132bd86828701613100565b9150509250925092565b6000602082840312156132dd576132dc612f5f565b5b60006132eb848285016131b5565b91505092915050565b6132fd81612fee565b811461330857600080fd5b50565b60008135905061331a816132f4565b92915050565b6000806040838503121561333757613336612f5f565b5b6000613345858286016131b5565b92505060206133568582860161330b565b9150509250929050565b600080fd5b600080fd5b7f4e487b7100000000000000000000000000000000000000000000000000000000600052604160045260246000fd5b6133a282613073565b810181811067ffffffffffffffff821117156133c1576133c061336a565b5b80604052505050565b60006133d4612f55565b90506133e08282613399565b919050565b600067ffffffffffffffff821115613400576133ff61336a565b5b61340982613073565b9050602081019050919050565b82818337600083830152505050565b6000613438613433846133e5565b6133ca565b90508281526020810184848401111561345457613453613365565b5b61345f848285613416565b509392505050565b600082601f83011261347c5761347b613360565b5b813561348c848260208601613425565b91505092915050565b6000602082840312156134ab576134aa612f5f565b5b600082013567ffffffffffffffff8111156134c9576134c8612f64565b5b6134d584828501613467565b91505092915050565b600067ffffffffffffffff8211156134f9576134f861336a565b5b61350282613073565b9050602081019050919050565b600061352261351d846134de565b6133ca565b90508281526020810184848401111561353e5761353d613365565b5b613549848285613416565b509392505050565b600082601f83011261356657613565613360565b5b813561357684826020860161350f565b91505092915050565b6000806000806080858703121561359957613598612f5f565b5b60006135a7878288016131b5565b94505060206135b8878288016131b5565b93505060406135c987828801613100565b925050606085013567ffffffffffffffff8111156135ea576135e9612f64565b5b6135f687828801613551565b91505092959194509250565b6000806040838503121561361957613618612f5f565b5b6000613627858286016131b5565b9250506020613638858286016131b5565b9150509250929050565b60006020828403121561365857613657612f5f565b5b60006136668482850161330b565b91505092915050565b7f4e487b7100000000000000000000000000000000000000000000000000000000600052602260045260246000fd5b600060028204905060018216806136b657607f821691505b6020821081036136c9576136c861366f565b5b50919050565b7f596f7520646f6e2774206f776e207468697320536e65616b6572580000000000600082015250565b6000613705601b8361302f565b9150613710826136cf565b602082019050919050565b60006020820190508181036000830152613734816136f8565b9050919050565b60006060820190506137506000830186613174565b61375d602083018561320a565b61376a604083018461320a565b949350505050565b7f4d696e74696e67206973206e6f7420656e61626c656400000000000000000000600082015250565b60006137a860168361302f565b91506137b382613772565b602082019050919050565b600060208201905081810360008301526137d78161379b565b9050919050565b7f4e487b7100000000000000000000000000000000000000000000000000000000600052601160045260246000fd5b6000613818826130df565b9150613823836130df565b9250827fffffffffffffffffffffffffffffffffffffffffffffffffffffffffffffffff03821115613858576138576137de565b5b828201905092915050565b7f43616e6e6f74206d696e74206d6f7265207468616e206d617820737570706c79600082015250565b600061389960208361302f565b91506138a482613863565b602082019050919050565b600060208201905081810360008301526138c88161388c565b9050919050565b60006138da826130df565b91506138e5836130df565b9250817fffffffffffffffffffffffffffffffffffffffffffffffffffffffffffffffff048311821515161561391e5761391d6137de565b5b828202905092915050565b7f4e6f7420656e6f756768204554482073656e743b20636865636b20707269636560008201527f2100000000000000000000000000000000000000000000000000000000000000602082015250565b600061398560218361302f565b915061399082613929565b604082019050919050565b600060208201905081810360008301526139b481613978565b9050919050565b60006040820190506139d06000830185613174565b6139dd602083018461320a565b9392505050565b60006040820190506139f96000830185613174565b613a066020830184613174565b9392505050565b600081519050613a1c816132f4565b92915050565b600060208284031215613a3857613a37612f5f565b5b6000613a4684828501613a0d565b91505092915050565b7f4f6e6c792074686520457175697020736d61727420636f6e747261637420636160008201527f6e206d696e740000000000000000000000000000000000000000000000000000602082015250565b6000613aab60268361302f565b9150613ab682613a4f565b604082019050919050565b60006020820190508181036000830152613ada81613a9e565b9050919050565b7f4552433732314d657461646174613a2055524920717565727920666f72206e6f60008201527f6e6578697374656e7420746f6b656e0000000000000000000000000000000000602082015250565b6000613b3d602f8361302f565b9150613b4882613ae1565b604082019050919050565b60006020820190508181036000830152613b6c81613b30565b9050919050565b600081905092915050565b6000613b8982613024565b613b938185613b73565b9350613ba3818560208601613040565b80840191505092915050565b60008190508160005260206000209050919050565b60008154613bd18161369e565b613bdb8186613b73565b94506001821660008114613bf65760018114613c0757613c3a565b60ff19831686528186019350613c3a565b613c1085613baf565b60005b83811015613c3257815481890152600182019150602081019050613c13565b838801955050505b50505092915050565b6000613c4f8286613b7e565b9150613c5b8285613b7e565b9150613c678284613bc4565b9150819050949350505050565b7f4f776e61626c653a206e6577206f776e657220697320746865207a65726f206160008201527f6464726573730000000000000000000000000000000000000000000000000000602082015250565b6000613cd060268361302f565b9150613cdb82613c74565b604082019050919050565b60006020820190508181036000830152613cff81613cc3565b9050919050565b7f4f776e61626c653a2063616c6c6572206973206e6f7420746865206f776e6572600082015250565b6000613d3c60208361302f565b9150613d4782613d06565b602082019050919050565b60006020820190508181036000830152613d6b81613d2f565b9050919050565b7f4e487b7100000000000000000000000000000000000000000000000000000000600052601260045260246000fd5b600081519050919050565b600082825260208201905092915050565b6000613dc882613da1565b613dd28185613dac565b9350613de2818560208601613040565b613deb81613073565b840191505092915050565b6000608082019050613e0b6000830187613174565b613e186020830186613174565b613e25604083018561320a565b8181036060830152613e378184613dbd565b905095945050505050565b600081519050613e5181612f95565b92915050565b600060208284031215613e6d57613e6c612f5f565b5b6000613e7b84828501613e42565b9150509291505056fea264697066735822122007392460ed0a302ca6d1b8997a8a84d54dae32262eaa7cd588561d557651bea264736f6c634300080d0033697066733a2f2f516d626175747a4379354d626734507561317054625757645870726e42396b6d7648584c5478756a74765073624c2f697066733a2f2f516d5743467176475857595337755153757367527a4e7466324472756f6837596a74456b6e584553505a565641722f",
  "linkReferences": {},
  "deployedLinkReferences": {}
}