{
  "_format": "hh-sol-artifact-1",
  "contractName": "NftSneakerX",
  "sourceName": "src/backend/contracts/NftSneakerX.sol",
  "abi": [
    {
      "inputs": [],
      "stateMutability": "nonpayable",
      "type": "constructor"
    },
    {
      "inputs": [],
      "name": "ApprovalCallerNotOwnerNorApproved",
      "type": "error"
    },
    {
      "inputs": [],
      "name": "ApprovalQueryForNonexistentToken",
      "type": "error"
    },
    {
      "inputs": [],
      "name": "ApproveToCaller",
      "type": "error"
    },
    {
      "inputs": [],
      "name": "BalanceQueryForZeroAddress",
      "type": "error"
    },
    {
      "inputs": [],
      "name": "MintERC2309QuantityExceedsLimit",
      "type": "error"
    },
    {
      "inputs": [],
      "name": "MintToZeroAddress",
      "type": "error"
    },
    {
      "inputs": [],
      "name": "MintZeroQuantity",
      "type": "error"
    },
    {
      "inputs": [
        {
          "internalType": "address",
          "name": "operator",
          "type": "address"
        }
      ],
      "name": "OperatorNotAllowed",
      "type": "error"
    },
    {
      "inputs": [],
      "name": "OwnerQueryForNonexistentToken",
      "type": "error"
    },
    {
      "inputs": [],
      "name": "OwnershipNotInitializedForExtraData",
      "type": "error"
    },
    {
      "inputs": [],
      "name": "TransferCallerNotOwnerNorApproved",
      "type": "error"
    },
    {
      "inputs": [],
      "name": "TransferFromIncorrectOwner",
      "type": "error"
    },
    {
      "inputs": [],
      "name": "TransferToNonERC721ReceiverImplementer",
      "type": "error"
    },
    {
      "inputs": [],
      "name": "TransferToZeroAddress",
      "type": "error"
    },
    {
      "inputs": [],
      "name": "URIQueryForNonexistentToken",
      "type": "error"
    },
    {
      "anonymous": false,
      "inputs": [
        {
          "indexed": true,
          "internalType": "address",
          "name": "owner",
          "type": "address"
        },
        {
          "indexed": true,
          "internalType": "address",
          "name": "approved",
          "type": "address"
        },
        {
          "indexed": true,
          "internalType": "uint256",
          "name": "tokenId",
          "type": "uint256"
        }
      ],
      "name": "Approval",
      "type": "event"
    },
    {
      "anonymous": false,
      "inputs": [
        {
          "indexed": true,
          "internalType": "address",
          "name": "owner",
          "type": "address"
        },
        {
          "indexed": true,
          "internalType": "address",
          "name": "operator",
          "type": "address"
        },
        {
          "indexed": false,
          "internalType": "bool",
          "name": "approved",
          "type": "bool"
        }
      ],
      "name": "ApprovalForAll",
      "type": "event"
    },
    {
      "anonymous": false,
      "inputs": [
        {
          "indexed": true,
          "internalType": "uint256",
          "name": "fromTokenId",
          "type": "uint256"
        },
        {
          "indexed": false,
          "internalType": "uint256",
          "name": "toTokenId",
          "type": "uint256"
        },
        {
          "indexed": true,
          "internalType": "address",
          "name": "from",
          "type": "address"
        },
        {
          "indexed": true,
          "internalType": "address",
          "name": "to",
          "type": "address"
        }
      ],
      "name": "ConsecutiveTransfer",
      "type": "event"
    },
    {
      "anonymous": false,
      "inputs": [
        {
          "indexed": false,
          "internalType": "address",
          "name": "user",
          "type": "address"
        },
        {
          "indexed": false,
          "internalType": "uint256",
          "name": "metadata",
          "type": "uint256"
        }
      ],
      "name": "MintSuccessful",
      "type": "event"
    },
    {
      "anonymous": false,
      "inputs": [
        {
          "indexed": true,
          "internalType": "address",
          "name": "previousOwner",
          "type": "address"
        },
        {
          "indexed": true,
          "internalType": "address",
          "name": "newOwner",
          "type": "address"
        }
      ],
      "name": "OwnershipTransferred",
      "type": "event"
    },
    {
      "anonymous": false,
      "inputs": [
        {
          "indexed": true,
          "internalType": "address",
          "name": "from",
          "type": "address"
        },
        {
          "indexed": true,
          "internalType": "address",
          "name": "to",
          "type": "address"
        },
        {
          "indexed": true,
          "internalType": "uint256",
          "name": "tokenId",
          "type": "uint256"
        }
      ],
      "name": "Transfer",
      "type": "event"
    },
    {
      "inputs": [
        {
          "internalType": "address",
          "name": "to",
          "type": "address"
        },
        {
          "internalType": "uint256",
          "name": "tokenId",
          "type": "uint256"
        }
      ],
      "name": "approve",
      "outputs": [],
      "stateMutability": "nonpayable",
      "type": "function"
    },
    {
      "inputs": [
        {
          "internalType": "address",
          "name": "owner",
          "type": "address"
        }
      ],
      "name": "balanceOf",
      "outputs": [
        {
          "internalType": "uint256",
          "name": "",
          "type": "uint256"
        }
      ],
      "stateMutability": "view",
      "type": "function"
    },
    {
      "inputs": [],
      "name": "baseTokenURI",
      "outputs": [
        {
          "internalType": "string",
          "name": "",
          "type": "string"
        }
      ],
      "stateMutability": "view",
      "type": "function"
    },
    {
      "inputs": [],
      "name": "burnAmount",
      "outputs": [
        {
          "internalType": "uint256",
          "name": "",
          "type": "uint256"
        }
      ],
      "stateMutability": "view",
      "type": "function"
    },
    {
      "inputs": [],
      "name": "contractURI",
      "outputs": [
        {
          "internalType": "string",
          "name": "",
          "type": "string"
        }
      ],
      "stateMutability": "view",
      "type": "function"
    },
    {
      "inputs": [],
      "name": "contractUri",
      "outputs": [
        {
          "internalType": "string",
          "name": "",
          "type": "string"
        }
      ],
      "stateMutability": "view",
      "type": "function"
    },
    {
      "inputs": [
        {
          "internalType": "uint256",
          "name": "tokenId",
          "type": "uint256"
        }
      ],
      "name": "getApproved",
      "outputs": [
        {
          "internalType": "address",
          "name": "",
          "type": "address"
        }
      ],
      "stateMutability": "view",
      "type": "function"
    },
    {
      "inputs": [],
      "name": "getPrice",
      "outputs": [
        {
          "internalType": "uint256",
          "name": "",
          "type": "uint256"
        }
      ],
      "stateMutability": "view",
      "type": "function"
    },
    {
      "inputs": [
        {
          "internalType": "uint256",
          "name": "",
          "type": "uint256"
        }
      ],
      "name": "idToMetadata",
      "outputs": [
        {
          "internalType": "uint256",
          "name": "",
          "type": "uint256"
        }
      ],
      "stateMutability": "view",
      "type": "function"
    },
    {
      "inputs": [
        {
          "internalType": "address",
          "name": "owner",
          "type": "address"
        },
        {
          "internalType": "address",
          "name": "operator",
          "type": "address"
        }
      ],
      "name": "isApprovedForAll",
      "outputs": [
        {
          "internalType": "bool",
          "name": "",
          "type": "bool"
        }
      ],
      "stateMutability": "view",
      "type": "function"
    },
    {
      "inputs": [],
      "name": "max_supply",
      "outputs": [
        {
          "internalType": "uint256",
          "name": "",
          "type": "uint256"
        }
      ],
      "stateMutability": "view",
      "type": "function"
    },
    {
      "inputs": [
        {
          "internalType": "uint256",
          "name": "quantity",
          "type": "uint256"
        },
        {
          "internalType": "uint256",
          "name": "_metadataId",
          "type": "uint256"
        }
      ],
      "name": "mint",
      "outputs": [],
      "stateMutability": "payable",
      "type": "function"
    },
    {
      "inputs": [],
      "name": "mintEnabled",
      "outputs": [
        {
          "internalType": "bool",
          "name": "",
          "type": "bool"
        }
      ],
      "stateMutability": "view",
      "type": "function"
    },
    {
      "inputs": [
        {
          "internalType": "address",
          "name": "_user",
          "type": "address"
        },
        {
          "internalType": "uint256",
          "name": "_metadataId",
          "type": "uint256"
        }
      ],
      "name": "mintFromEquip",
      "outputs": [],
      "stateMutability": "nonpayable",
      "type": "function"
    },
    {
      "inputs": [],
      "name": "name",
      "outputs": [
        {
          "internalType": "string",
          "name": "",
          "type": "string"
        }
      ],
      "stateMutability": "view",
      "type": "function"
    },
    {
      "inputs": [],
      "name": "owner",
      "outputs": [
        {
          "internalType": "address",
          "name": "",
          "type": "address"
        }
      ],
      "stateMutability": "view",
      "type": "function"
    },
    {
      "inputs": [
        {
          "internalType": "uint256",
          "name": "tokenId",
          "type": "uint256"
        }
      ],
      "name": "ownerOf",
      "outputs": [
        {
          "internalType": "address",
          "name": "",
          "type": "address"
        }
      ],
      "stateMutability": "view",
      "type": "function"
    },
    {
      "inputs": [],
      "name": "price",
      "outputs": [
        {
          "internalType": "uint256",
          "name": "",
          "type": "uint256"
        }
      ],
      "stateMutability": "view",
      "type": "function"
    },
    {
      "inputs": [],
      "name": "renounceOwnership",
      "outputs": [],
      "stateMutability": "nonpayable",
      "type": "function"
    },
    {
      "inputs": [
        {
          "internalType": "address",
          "name": "from",
          "type": "address"
        },
        {
          "internalType": "address",
          "name": "to",
          "type": "address"
        },
        {
          "internalType": "uint256",
          "name": "tokenId",
          "type": "uint256"
        }
      ],
      "name": "safeTransferFrom",
      "outputs": [],
      "stateMutability": "nonpayable",
      "type": "function"
    },
    {
      "inputs": [
        {
          "internalType": "address",
          "name": "from",
          "type": "address"
        },
        {
          "internalType": "address",
          "name": "to",
          "type": "address"
        },
        {
          "internalType": "uint256",
          "name": "tokenId",
          "type": "uint256"
        },
        {
          "internalType": "bytes",
          "name": "data",
          "type": "bytes"
        }
      ],
      "name": "safeTransferFrom",
      "outputs": [],
      "stateMutability": "nonpayable",
      "type": "function"
    },
    {
      "inputs": [
        {
          "internalType": "address",
          "name": "operator",
          "type": "address"
        },
        {
          "internalType": "bool",
          "name": "approved",
          "type": "bool"
        }
      ],
      "name": "setApprovalForAll",
      "outputs": [],
      "stateMutability": "nonpayable",
      "type": "function"
    },
    {
      "inputs": [
        {
          "internalType": "string",
          "name": "_uri",
          "type": "string"
        }
      ],
      "name": "setContractMetadata",
      "outputs": [],
      "stateMutability": "nonpayable",
      "type": "function"
    },
    {
      "inputs": [
        {
          "internalType": "address",
          "name": "_equipAddress",
          "type": "address"
        }
      ],
      "name": "setEquipAddress",
      "outputs": [],
      "stateMutability": "nonpayable",
      "type": "function"
    },
    {
      "inputs": [
        {
          "internalType": "uint256",
          "name": "_supply",
          "type": "uint256"
        }
      ],
      "name": "setMaxSupply",
      "outputs": [],
      "stateMutability": "nonpayable",
      "type": "function"
    },
    {
      "inputs": [
        {
          "internalType": "string",
          "name": "_uri",
          "type": "string"
        }
      ],
      "name": "setMetadata",
      "outputs": [],
      "stateMutability": "nonpayable",
      "type": "function"
    },
    {
      "inputs": [
        {
          "internalType": "bool",
          "name": "_state",
          "type": "bool"
        }
      ],
      "name": "setMintEnabled",
      "outputs": [],
      "stateMutability": "nonpayable",
      "type": "function"
    },
    {
      "inputs": [
        {
          "internalType": "uint256",
          "name": "_price",
          "type": "uint256"
        }
      ],
      "name": "setPrice",
      "outputs": [],
      "stateMutability": "nonpayable",
      "type": "function"
    },
    {
      "inputs": [
        {
          "internalType": "bytes4",
          "name": "interfaceId",
          "type": "bytes4"
        }
      ],
      "name": "supportsInterface",
      "outputs": [
        {
          "internalType": "bool",
          "name": "",
          "type": "bool"
        }
      ],
      "stateMutability": "view",
      "type": "function"
    },
    {
      "inputs": [],
      "name": "symbol",
      "outputs": [
        {
          "internalType": "string",
          "name": "",
          "type": "string"
        }
      ],
      "stateMutability": "view",
      "type": "function"
    },
    {
      "inputs": [
        {
          "internalType": "uint256",
          "name": "_tokenId",
          "type": "uint256"
        }
      ],
      "name": "tokenURI",
      "outputs": [
        {
          "internalType": "string",
          "name": "",
          "type": "string"
        }
      ],
      "stateMutability": "view",
      "type": "function"
    },
    {
      "inputs": [],
      "name": "totalSupply",
      "outputs": [
        {
          "internalType": "uint256",
          "name": "",
          "type": "uint256"
        }
      ],
      "stateMutability": "view",
      "type": "function"
    },
    {
      "inputs": [
        {
          "internalType": "address",
          "name": "from",
          "type": "address"
        },
        {
          "internalType": "address",
          "name": "to",
          "type": "address"
        },
        {
          "internalType": "uint256",
          "name": "tokenId",
          "type": "uint256"
        }
      ],
      "name": "transferFrom",
      "outputs": [],
      "stateMutability": "nonpayable",
      "type": "function"
    },
    {
      "inputs": [
        {
          "internalType": "address",
          "name": "newOwner",
          "type": "address"
        }
      ],
      "name": "transferOwnership",
      "outputs": [],
      "stateMutability": "nonpayable",
      "type": "function"
    },
    {
      "inputs": [],
      "name": "uri",
      "outputs": [
        {
          "internalType": "string",
          "name": "",
          "type": "string"
        }
      ],
      "stateMutability": "view",
      "type": "function"
    },
    {
      "inputs": [],
      "name": "uriPrefix",
      "outputs": [
        {
          "internalType": "string",
          "name": "",
          "type": "string"
        }
      ],
      "stateMutability": "view",
      "type": "function"
    },
    {
      "inputs": [],
      "name": "uriSuffix",
      "outputs": [
        {
          "internalType": "string",
          "name": "",
          "type": "string"
        }
      ],
      "stateMutability": "view",
      "type": "function"
    },
    {
      "inputs": [],
      "name": "withdraw",
      "outputs": [],
      "stateMutability": "nonpayable",
      "type": "function"
    }
  ],
  "bytecode": "0x608060405260405180602001604052806000815250600a90805190602001906200002b929190620004b5565b506040518060400160405280600581526020017f2e6a736f6e000000000000000000000000000000000000000000000000000000815250600b908051906020019062000079929190620004b5565b506064600c556040518060600160405280603681526020016200401160369139600e9080519060200190620000b0929190620004b5565b5060405180606001604052806036815260200162003fdb60369139600f9080519060200190620000e2929190620004b5565b506000601155348015620000f557600080fd5b50733cc6cdda760b79bafa08df41ecfa224f810dceb660016040518060400160405280600981526020017f536e65616b6572205800000000000000000000000000000000000000000000008152506040518060400160405280600281526020017f5358000000000000000000000000000000000000000000000000000000000000815250620001996200018d620003e060201b60201c565b620003e860201b60201c565b8160039080519060200190620001b1929190620004b5565b508060049080519060200190620001ca929190620004b5565b50620001db620004ac60201b60201c565b600181905550505060006daaeb6d7670e522a718067333cd4e73ffffffffffffffffffffffffffffffffffffffff163b1115620003d85780156200029e576daaeb6d7670e522a718067333cd4e73ffffffffffffffffffffffffffffffffffffffff16637d3e3dbe30846040518363ffffffff1660e01b815260040162000264929190620005aa565b600060405180830381600087803b1580156200027f57600080fd5b505af115801562000294573d6000803e3d6000fd5b50505050620003d7565b600073ffffffffffffffffffffffffffffffffffffffff168273ffffffffffffffffffffffffffffffffffffffff161462000358576daaeb6d7670e522a718067333cd4e73ffffffffffffffffffffffffffffffffffffffff1663a0af290330846040518363ffffffff1660e01b81526004016200031e929190620005aa565b600060405180830381600087803b1580156200033957600080fd5b505af11580156200034e573d6000803e3d6000fd5b50505050620003d6565b6daaeb6d7670e522a718067333cd4e73ffffffffffffffffffffffffffffffffffffffff16634420e486306040518263ffffffff1660e01b8152600401620003a19190620005d7565b600060405180830381600087803b158015620003bc57600080fd5b505af1158015620003d1573d6000803e3d6000fd5b505050505b5b5b505062000658565b600033905090565b60008060009054906101000a900473ffffffffffffffffffffffffffffffffffffffff169050816000806101000a81548173ffffffffffffffffffffffffffffffffffffffff021916908373ffffffffffffffffffffffffffffffffffffffff1602179055508173ffffffffffffffffffffffffffffffffffffffff168173ffffffffffffffffffffffffffffffffffffffff167f8be0079c531659141344cd1fd0a4f28419497f9722a3daafe3b4186f6b6457e060405160405180910390a35050565b60006001905090565b828054620004c39062000623565b90600052602060002090601f016020900481019282620004e7576000855562000533565b82601f106200050257805160ff191683800117855562000533565b8280016001018555821562000533579182015b828111156200053257825182559160200191906001019062000515565b5b50905062000542919062000546565b5090565b5b808211156200056157600081600090555060010162000547565b5090565b600073ffffffffffffffffffffffffffffffffffffffff82169050919050565b6000620005928262000565565b9050919050565b620005a48162000585565b82525050565b6000604082019050620005c1600083018562000599565b620005d0602083018462000599565b9392505050565b6000602082019050620005ee600083018462000599565b92915050565b7f4e487b7100000000000000000000000000000000000000000000000000000000600052602260045260246000fd5b600060028204905060018216806200063c57607f821691505b602082108103620006525762000651620005f4565b5b50919050565b61397380620006686000396000f3fe6080604052600436106102255760003560e01c806395d89b4111610123578063c87b56dd116100ab578063eac989f81161006f578063eac989f8146107d6578063f2fde38b14610801578063f307101a1461082a578063f46a04eb14610867578063fce550371461089057610225565b8063c87b56dd146106db578063d123973014610718578063d547cfb714610743578063e8a3d4851461076e578063e985e9c51461079957610225565b8063a49a1e7d116100f2578063a49a1e7d1461060c578063afa20f5414610635578063b8829a4c1461065e578063b88d4fde14610687578063c0e24d5e146106b057610225565b806395d89b411461056257806398d5fdca1461058d578063a035b1fe146105b8578063a22cb465146105e357610225565b8063486a7e6b116101b157806370a082311161017557806370a082311461048f578063715018a6146104cc5780638a333b50146104e35780638da5cb5b1461050e57806391b7f5ed1461053957610225565b8063486a7e6b146103a85780635503a0e8146103d357806362b99ad4146103fe5780636352211e146104295780636f8b44b01461046657610225565b806318160ddd116101f857806318160ddd146102f85780631b2ef1ca1461032357806323b872dd1461033f5780633ccfd60b1461036857806342842e0e1461037f57610225565b806301ffc9a71461022a57806306fdde0314610267578063081812fc14610292578063095ea7b3146102cf575b600080fd5b34801561023657600080fd5b50610251600480360381019061024c9190612b1d565b6108b9565b60405161025e9190612b65565b60405180910390f35b34801561027357600080fd5b5061027c61094b565b6040516102899190612c19565b60405180910390f35b34801561029e57600080fd5b506102b960048036038101906102b49190612c71565b6109dd565b6040516102c69190612cdf565b60405180910390f35b3480156102db57600080fd5b506102f660048036038101906102f19190612d26565b610a5c565b005b34801561030457600080fd5b5061030d610ba0565b60405161031a9190612d75565b60405180910390f35b61033d60048036038101906103389190612d90565b610bb7565b005b34801561034b57600080fd5b5061036660048036038101906103619190612dd0565b610cf8565b005b34801561037457600080fd5b5061037d610eda565b005b34801561038b57600080fd5b506103a660048036038101906103a19190612dd0565b610f2b565b005b3480156103b457600080fd5b506103bd61110d565b6040516103ca9190612d75565b60405180910390f35b3480156103df57600080fd5b506103e8611113565b6040516103f59190612c19565b60405180910390f35b34801561040a57600080fd5b506104136111a1565b6040516104209190612c19565b60405180910390f35b34801561043557600080fd5b50610450600480360381019061044b9190612c71565b61122f565b60405161045d9190612cdf565b60405180910390f35b34801561047257600080fd5b5061048d60048036038101906104889190612c71565b611241565b005b34801561049b57600080fd5b506104b660048036038101906104b19190612e23565b611253565b6040516104c39190612d75565b60405180910390f35b3480156104d857600080fd5b506104e161130b565b005b3480156104ef57600080fd5b506104f861131f565b6040516105059190612d75565b60405180910390f35b34801561051a57600080fd5b50610523611325565b6040516105309190612cdf565b60405180910390f35b34801561054557600080fd5b50610560600480360381019061055b9190612c71565b61134e565b005b34801561056e57600080fd5b50610577611360565b6040516105849190612c19565b60405180910390f35b34801561059957600080fd5b506105a26113f2565b6040516105af9190612d75565b60405180910390f35b3480156105c457600080fd5b506105cd6113fc565b6040516105da9190612d75565b60405180910390f35b3480156105ef57600080fd5b5061060a60048036038101906106059190612e7c565b611402565b005b34801561061857600080fd5b50610633600480360381019061062e9190612ff1565b611579565b005b34801561064157600080fd5b5061065c60048036038101906106579190612e23565b61159b565b005b34801561066a57600080fd5b5061068560048036038101906106809190612d26565b6115e7565b005b34801561069357600080fd5b506106ae60048036038101906106a991906130db565b611736565b005b3480156106bc57600080fd5b506106c561191b565b6040516106d29190612c19565b60405180910390f35b3480156106e757600080fd5b5061070260048036038101906106fd9190612c71565b6119a9565b60405161070f9190612c19565b60405180910390f35b34801561072457600080fd5b5061072d611a66565b60405161073a9190612b65565b60405180910390f35b34801561074f57600080fd5b50610758611a79565b6040516107659190612c19565b60405180910390f35b34801561077a57600080fd5b50610783611a88565b6040516107909190612c19565b60405180910390f35b3480156107a557600080fd5b506107c060048036038101906107bb919061315e565b611b1a565b6040516107cd9190612b65565b60405180910390f35b3480156107e257600080fd5b506107eb611bae565b6040516107f89190612c19565b60405180910390f35b34801561080d57600080fd5b5061082860048036038101906108239190612e23565b611c3c565b005b34801561083657600080fd5b50610851600480360381019061084c9190612c71565b611cbf565b60405161085e9190612d75565b60405180910390f35b34801561087357600080fd5b5061088e6004803603810190610889919061319e565b611cd7565b005b34801561089c57600080fd5b506108b760048036038101906108b29190612ff1565b611cfc565b005b60006301ffc9a760e01b827bffffffffffffffffffffffffffffffffffffffffffffffffffffffff1916148061091457506380ac58cd60e01b827bffffffffffffffffffffffffffffffffffffffffffffffffffffffff1916145b806109445750635b5e139f60e01b827bffffffffffffffffffffffffffffffffffffffffffffffffffffffff1916145b9050919050565b60606003805461095a906131fa565b80601f0160208091040260200160405190810160405280929190818152602001828054610986906131fa565b80156109d35780601f106109a8576101008083540402835291602001916109d3565b820191906000526020600020905b8154815290600101906020018083116109b657829003601f168201915b5050505050905090565b60006109e882611d1e565b610a1e576040517fcf4700e400000000000000000000000000000000000000000000000000000000815260040160405180910390fd5b6007600083815260200190815260200160002060000160009054906101000a900473ffffffffffffffffffffffffffffffffffffffff169050919050565b6000610a678261122f565b90508073ffffffffffffffffffffffffffffffffffffffff16610a88611d7d565b73ffffffffffffffffffffffffffffffffffffffff1614610aeb57610ab481610aaf611d7d565b611b1a565b610aea576040517fcfb3b94200000000000000000000000000000000000000000000000000000000815260040160405180910390fd5b5b826007600084815260200190815260200160002060000160006101000a81548173ffffffffffffffffffffffffffffffffffffffff021916908373ffffffffffffffffffffffffffffffffffffffff160217905550818373ffffffffffffffffffffffffffffffffffffffff168273ffffffffffffffffffffffffffffffffffffffff167f8c5be1e5ebec7d5bd14f71427d1e84f3dd0314c0f7b2291e5b200ac8c7c3b92560405160405180910390a4505050565b6000610baa611d85565b6002546001540303905090565b601060009054906101000a900460ff16610c06576040517f08c379a0000000000000000000000000000000000000000000000000000000008152600401610bfd90613277565b60405180910390fd5b600c5482610c12611d8e565b610c1c91906132c6565b10610c5c576040517f08c379a0000000000000000000000000000000000000000000000000000000008152600401610c5390613368565b60405180910390fd5b81610c656113f2565b610c6f9190613388565b341015610cb1576040517f08c379a0000000000000000000000000000000000000000000000000000000008152600401610ca890613454565b60405180910390fd5b610cbb3383611da1565b7f76020ece75bf679c701e656fcffc7e3df8354859b3b0eb7fee42b1378023bb313382604051610cec929190613474565b60405180910390a15050565b8260006daaeb6d7670e522a718067333cd4e73ffffffffffffffffffffffffffffffffffffffff163b1115610ec8573373ffffffffffffffffffffffffffffffffffffffff168173ffffffffffffffffffffffffffffffffffffffff1603610d6a57610d65848484611f5d565b610ed4565b6daaeb6d7670e522a718067333cd4e73ffffffffffffffffffffffffffffffffffffffff1663c617113430336040518363ffffffff1660e01b8152600401610db392919061349d565b602060405180830381865afa158015610dd0573d6000803e3d6000fd5b505050506040513d601f19601f82011682018060405250810190610df491906134db565b8015610e8657506daaeb6d7670e522a718067333cd4e73ffffffffffffffffffffffffffffffffffffffff1663c617113430836040518363ffffffff1660e01b8152600401610e4492919061349d565b602060405180830381865afa158015610e61573d6000803e3d6000fd5b505050506040513d601f19601f82011682018060405250810190610e8591906134db565b5b610ec757336040517fede71dcc000000000000000000000000000000000000000000000000000000008152600401610ebe9190612cdf565b60405180910390fd5b5b610ed3848484611f5d565b5b50505050565b610ee261227f565b3373ffffffffffffffffffffffffffffffffffffffff166108fc479081150290604051600060405180830381858888f19350505050158015610f28573d6000803e3d6000fd5b50565b8260006daaeb6d7670e522a718067333cd4e73ffffffffffffffffffffffffffffffffffffffff163b11156110fb573373ffffffffffffffffffffffffffffffffffffffff168173ffffffffffffffffffffffffffffffffffffffff1603610f9d57610f988484846122fd565b611107565b6daaeb6d7670e522a718067333cd4e73ffffffffffffffffffffffffffffffffffffffff1663c617113430336040518363ffffffff1660e01b8152600401610fe692919061349d565b602060405180830381865afa158015611003573d6000803e3d6000fd5b505050506040513d601f19601f8201168201806040525081019061102791906134db565b80156110b957506daaeb6d7670e522a718067333cd4e73ffffffffffffffffffffffffffffffffffffffff1663c617113430836040518363ffffffff1660e01b815260040161107792919061349d565b602060405180830381865afa158015611094573d6000803e3d6000fd5b505050506040513d601f19601f820116820180604052508101906110b891906134db565b5b6110fa57336040517fede71dcc0000000000000000000000000000000000000000000000000000000081526004016110f19190612cdf565b60405180910390fd5b5b6111068484846122fd565b5b50505050565b600d5481565b600b8054611120906131fa565b80601f016020809104026020016040519081016040528092919081815260200182805461114c906131fa565b80156111995780601f1061116e57610100808354040283529160200191611199565b820191906000526020600020905b81548152906001019060200180831161117c57829003601f168201915b505050505081565b600a80546111ae906131fa565b80601f01602080910402602001604051908101604052809291908181526020018280546111da906131fa565b80156112275780601f106111fc57610100808354040283529160200191611227565b820191906000526020600020905b81548152906001019060200180831161120a57829003601f168201915b505050505081565b600061123a8261231d565b9050919050565b61124961227f565b80600c8190555050565b60008073ffffffffffffffffffffffffffffffffffffffff168273ffffffffffffffffffffffffffffffffffffffff16036112ba576040517f8f4eb60400000000000000000000000000000000000000000000000000000000815260040160405180910390fd5b67ffffffffffffffff600660008473ffffffffffffffffffffffffffffffffffffffff1673ffffffffffffffffffffffffffffffffffffffff16815260200190815260200160002054169050919050565b61131361227f565b61131d60006123e9565b565b600c5481565b60008060009054906101000a900473ffffffffffffffffffffffffffffffffffffffff16905090565b61135661227f565b8060118190555050565b60606004805461136f906131fa565b80601f016020809104026020016040519081016040528092919081815260200182805461139b906131fa565b80156113e85780601f106113bd576101008083540402835291602001916113e8565b820191906000526020600020905b8154815290600101906020018083116113cb57829003601f168201915b5050505050905090565b6000601154905090565b60115481565b61140a611d7d565b73ffffffffffffffffffffffffffffffffffffffff168273ffffffffffffffffffffffffffffffffffffffff160361146e576040517fb06307db00000000000000000000000000000000000000000000000000000000815260040160405180910390fd5b806008600061147b611d7d565b73ffffffffffffffffffffffffffffffffffffffff1673ffffffffffffffffffffffffffffffffffffffff16815260200190815260200160002060008473ffffffffffffffffffffffffffffffffffffffff1673ffffffffffffffffffffffffffffffffffffffff16815260200190815260200160002060006101000a81548160ff0219169083151502179055508173ffffffffffffffffffffffffffffffffffffffff16611528611d7d565b73ffffffffffffffffffffffffffffffffffffffff167f17307eab39ab6107e8899845ad3d59bd9653f200f220920489ca2b5937696c318360405161156d9190612b65565b60405180910390a35050565b61158161227f565b80600e9080519060200190611597929190612a0e565b5050565b6115a361227f565b80600960006101000a81548173ffffffffffffffffffffffffffffffffffffffff021916908373ffffffffffffffffffffffffffffffffffffffff16021790555050565b600960009054906101000a900473ffffffffffffffffffffffffffffffffffffffff1673ffffffffffffffffffffffffffffffffffffffff163373ffffffffffffffffffffffffffffffffffffffff1614611677576040517f08c379a000000000000000000000000000000000000000000000000000000000815260040161166e9061357a565b60405180910390fd5b600c546001611684611d8e565b61168e91906132c6565b11156116cf576040517f08c379a00000000000000000000000000000000000000000000000000000000081526004016116c690613368565b60405180910390fd5b6116da826001611da1565b80601260006116e7611d8e565b8152602001908152602001600020819055507f76020ece75bf679c701e656fcffc7e3df8354859b3b0eb7fee42b1378023bb31338260405161172a929190613474565b60405180910390a15050565b8360006daaeb6d7670e522a718067333cd4e73ffffffffffffffffffffffffffffffffffffffff163b1115611907573373ffffffffffffffffffffffffffffffffffffffff168173ffffffffffffffffffffffffffffffffffffffff16036117a9576117a4858585856124ad565b611914565b6daaeb6d7670e522a718067333cd4e73ffffffffffffffffffffffffffffffffffffffff1663c617113430336040518363ffffffff1660e01b81526004016117f292919061349d565b602060405180830381865afa15801561180f573d6000803e3d6000fd5b505050506040513d601f19601f8201168201806040525081019061183391906134db565b80156118c557506daaeb6d7670e522a718067333cd4e73ffffffffffffffffffffffffffffffffffffffff1663c617113430836040518363ffffffff1660e01b815260040161188392919061349d565b602060405180830381865afa1580156118a0573d6000803e3d6000fd5b505050506040513d601f19601f820116820180604052508101906118c491906134db565b5b61190657336040517fede71dcc0000000000000000000000000000000000000000000000000000000081526004016118fd9190612cdf565b60405180910390fd5b5b611913858585856124ad565b5b5050505050565b600f8054611928906131fa565b80601f0160208091040260200160405190810160405280929190818152602001828054611954906131fa565b80156119a15780601f10611976576101008083540402835291602001916119a1565b820191906000526020600020905b81548152906001019060200180831161198457829003601f168201915b505050505081565b60606119b482611d1e565b6119f3576040517f08c379a00000000000000000000000000000000000000000000000000000000081526004016119ea9061360c565b60405180910390fd5b60006119fd612520565b90506000815111611a1d5760405180602001604052806000815250611a5e565b80611a3a60126000868152602001908152602001600020546125b2565b600b604051602001611a4e939291906136fc565b6040516020818303038152906040525b915050919050565b601060009054906101000a900460ff1681565b6060611a83612520565b905090565b6060600f8054611a97906131fa565b80601f0160208091040260200160405190810160405280929190818152602001828054611ac3906131fa565b8015611b105780601f10611ae557610100808354040283529160200191611b10565b820191906000526020600020905b815481529060010190602001808311611af357829003601f168201915b5050505050905090565b6000600860008473ffffffffffffffffffffffffffffffffffffffff1673ffffffffffffffffffffffffffffffffffffffff16815260200190815260200160002060008373ffffffffffffffffffffffffffffffffffffffff1673ffffffffffffffffffffffffffffffffffffffff16815260200190815260200160002060009054906101000a900460ff16905092915050565b600e8054611bbb906131fa565b80601f0160208091040260200160405190810160405280929190818152602001828054611be7906131fa565b8015611c345780601f10611c0957610100808354040283529160200191611c34565b820191906000526020600020905b815481529060010190602001808311611c1757829003601f168201915b505050505081565b611c4461227f565b600073ffffffffffffffffffffffffffffffffffffffff168173ffffffffffffffffffffffffffffffffffffffff1603611cb3576040517f08c379a0000000000000000000000000000000000000000000000000000000008152600401611caa9061379f565b60405180910390fd5b611cbc816123e9565b50565b60126020528060005260406000206000915090505481565b611cdf61227f565b80601060006101000a81548160ff02191690831515021790555050565b611d0461227f565b80600f9080519060200190611d1a929190612a0e565b5050565b600081611d29611d85565b11158015611d38575060015482105b8015611d76575060007c0100000000000000000000000000000000000000000000000000000000600560008581526020019081526020016000205416145b9050919050565b600033905090565b60006001905090565b6000611d98611d85565b60015403905090565b6000600154905060008203611de2576040517fb562e8dd00000000000000000000000000000000000000000000000000000000815260040160405180910390fd5b611def6000848385612680565b600160406001901b178202600660008573ffffffffffffffffffffffffffffffffffffffff1673ffffffffffffffffffffffffffffffffffffffff16815260200190815260200160002060008282540192505081905550611e6683611e576000866000612686565b611e60856126ae565b176126be565b6005600083815260200190815260200160002081905550600080838301905073ffffffffffffffffffffffffffffffffffffffff85169150828260007fddf252ad1be2c89b69c2b068fc378daa952ba7f163c4a11628f55a4df523b3ef600080a4600183015b818114611f0757808360007fddf252ad1be2c89b69c2b068fc378daa952ba7f163c4a11628f55a4df523b3ef600080a4600181019050611ecc565b5060008203611f42576040517f2e07630000000000000000000000000000000000000000000000000000000000815260040160405180910390fd5b806001819055505050611f5860008483856126e9565b505050565b6000611f688261231d565b90508373ffffffffffffffffffffffffffffffffffffffff168173ffffffffffffffffffffffffffffffffffffffff1614611fcf576040517fa114810000000000000000000000000000000000000000000000000000000000815260040160405180910390fd5b600080611fdb846126ef565b91509150611ff18187611fec611d7d565b612716565b61203d5761200686612001611d7d565b611b1a565b61203c576040517f59c896be00000000000000000000000000000000000000000000000000000000815260040160405180910390fd5b5b600073ffffffffffffffffffffffffffffffffffffffff168573ffffffffffffffffffffffffffffffffffffffff16036120a3576040517fea553b3400000000000000000000000000000000000000000000000000000000815260040160405180910390fd5b6120b08686866001612680565b80156120bb57600082555b600660008773ffffffffffffffffffffffffffffffffffffffff1673ffffffffffffffffffffffffffffffffffffffff168152602001908152602001600020600081546001900391905081905550600660008673ffffffffffffffffffffffffffffffffffffffff1673ffffffffffffffffffffffffffffffffffffffff168152602001908152602001600020600081546001019190508190555061218985612165888887612686565b7c0200000000000000000000000000000000000000000000000000000000176126be565b600560008681526020019081526020016000208190555060007c020000000000000000000000000000000000000000000000000000000084160361220f576000600185019050600060056000838152602001908152602001600020540361220d57600154811461220c578360056000838152602001908152602001600020819055505b5b505b838573ffffffffffffffffffffffffffffffffffffffff168773ffffffffffffffffffffffffffffffffffffffff167fddf252ad1be2c89b69c2b068fc378daa952ba7f163c4a11628f55a4df523b3ef60405160405180910390a461227786868660016126e9565b505050505050565b61228761275a565b73ffffffffffffffffffffffffffffffffffffffff166122a5611325565b73ffffffffffffffffffffffffffffffffffffffff16146122fb576040517f08c379a00000000000000000000000000000000000000000000000000000000081526004016122f29061380b565b60405180910390fd5b565b61231883838360405180602001604052806000815250611736565b505050565b6000808290508061232c611d85565b116123b2576001548110156123b15760006005600083815260200190815260200160002054905060007c01000000000000000000000000000000000000000000000000000000008216036123af575b600081036123a557600560008360019003935083815260200190815260200160002054905061237b565b80925050506123e4565b505b5b6040517fdf2d9b4200000000000000000000000000000000000000000000000000000000815260040160405180910390fd5b919050565b60008060009054906101000a900473ffffffffffffffffffffffffffffffffffffffff169050816000806101000a81548173ffffffffffffffffffffffffffffffffffffffff021916908373ffffffffffffffffffffffffffffffffffffffff1602179055508173ffffffffffffffffffffffffffffffffffffffff168173ffffffffffffffffffffffffffffffffffffffff167f8be0079c531659141344cd1fd0a4f28419497f9722a3daafe3b4186f6b6457e060405160405180910390a35050565b6124b8848484610cf8565b60008373ffffffffffffffffffffffffffffffffffffffff163b1461251a576124e384848484612762565b612519576040517fd1a57ed600000000000000000000000000000000000000000000000000000000815260040160405180910390fd5b5b50505050565b6060600e805461252f906131fa565b80601f016020809104026020016040519081016040528092919081815260200182805461255b906131fa565b80156125a85780601f1061257d576101008083540402835291602001916125a8565b820191906000526020600020905b81548152906001019060200180831161258b57829003601f168201915b5050505050905090565b6060600060016125c1846128b2565b01905060008167ffffffffffffffff8111156125e0576125df612ec6565b5b6040519080825280601f01601f1916602001820160405280156126125781602001600182028036833780820191505090505b509050600082602001820190505b600115612675578080600190039150507f3031323334353637383961626364656600000000000000000000000000000000600a86061a8153600a85816126695761266861382b565b5b04945060008503612620575b819350505050919050565b50505050565b60008060e883901c905060e861269d868684612a05565b62ffffff16901b9150509392505050565b60006001821460e11b9050919050565b600073ffffffffffffffffffffffffffffffffffffffff83169250814260a01b178317905092915050565b50505050565b60008060006007600085815260200190815260200160002090508092508254915050915091565b600073ffffffffffffffffffffffffffffffffffffffff8316925073ffffffffffffffffffffffffffffffffffffffff821691508382148383141790509392505050565b600033905090565b60008373ffffffffffffffffffffffffffffffffffffffff1663150b7a02612788611d7d565b8786866040518563ffffffff1660e01b81526004016127aa94939291906138af565b6020604051808303816000875af19250505080156127e657506040513d601f19601f820116820180604052508101906127e39190613910565b60015b61285f573d8060008114612816576040519150601f19603f3d011682016040523d82523d6000602084013e61281b565b606091505b506000815103612857576040517fd1a57ed600000000000000000000000000000000000000000000000000000000815260040160405180910390fd5b805181602001fd5b63150b7a0260e01b7bffffffffffffffffffffffffffffffffffffffffffffffffffffffff1916817bffffffffffffffffffffffffffffffffffffffffffffffffffffffff191614915050949350505050565b600080600090507a184f03e93ff9f4daa797ed6e38ed64bf6a1f0100000000000000008310612910577a184f03e93ff9f4daa797ed6e38ed64bf6a1f01000000000000000083816129065761290561382b565b5b0492506040810190505b6d04ee2d6d415b85acef8100000000831061294d576d04ee2d6d415b85acef810000000083816129435761294261382b565b5b0492506020810190505b662386f26fc10000831061297c57662386f26fc1000083816129725761297161382b565b5b0492506010810190505b6305f5e10083106129a5576305f5e100838161299b5761299a61382b565b5b0492506008810190505b61271083106129ca5761271083816129c0576129bf61382b565b5b0492506004810190505b606483106129ed57606483816129e3576129e261382b565b5b0492506002810190505b600a83106129fc576001810190505b80915050919050565b60009392505050565b828054612a1a906131fa565b90600052602060002090601f016020900481019282612a3c5760008555612a83565b82601f10612a5557805160ff1916838001178555612a83565b82800160010185558215612a83579182015b82811115612a82578251825591602001919060010190612a67565b5b509050612a909190612a94565b5090565b5b80821115612aad576000816000905550600101612a95565b5090565b6000604051905090565b600080fd5b600080fd5b60007fffffffff0000000000000000000000000000000000000000000000000000000082169050919050565b612afa81612ac5565b8114612b0557600080fd5b50565b600081359050612b1781612af1565b92915050565b600060208284031215612b3357612b32612abb565b5b6000612b4184828501612b08565b91505092915050565b60008115159050919050565b612b5f81612b4a565b82525050565b6000602082019050612b7a6000830184612b56565b92915050565b600081519050919050565b600082825260208201905092915050565b60005b83811015612bba578082015181840152602081019050612b9f565b83811115612bc9576000848401525b50505050565b6000601f19601f8301169050919050565b6000612beb82612b80565b612bf58185612b8b565b9350612c05818560208601612b9c565b612c0e81612bcf565b840191505092915050565b60006020820190508181036000830152612c338184612be0565b905092915050565b6000819050919050565b612c4e81612c3b565b8114612c5957600080fd5b50565b600081359050612c6b81612c45565b92915050565b600060208284031215612c8757612c86612abb565b5b6000612c9584828501612c5c565b91505092915050565b600073ffffffffffffffffffffffffffffffffffffffff82169050919050565b6000612cc982612c9e565b9050919050565b612cd981612cbe565b82525050565b6000602082019050612cf46000830184612cd0565b92915050565b612d0381612cbe565b8114612d0e57600080fd5b50565b600081359050612d2081612cfa565b92915050565b60008060408385031215612d3d57612d3c612abb565b5b6000612d4b85828601612d11565b9250506020612d5c85828601612c5c565b9150509250929050565b612d6f81612c3b565b82525050565b6000602082019050612d8a6000830184612d66565b92915050565b60008060408385031215612da757612da6612abb565b5b6000612db585828601612c5c565b9250506020612dc685828601612c5c565b9150509250929050565b600080600060608486031215612de957612de8612abb565b5b6000612df786828701612d11565b9350506020612e0886828701612d11565b9250506040612e1986828701612c5c565b9150509250925092565b600060208284031215612e3957612e38612abb565b5b6000612e4784828501612d11565b91505092915050565b612e5981612b4a565b8114612e6457600080fd5b50565b600081359050612e7681612e50565b92915050565b60008060408385031215612e9357612e92612abb565b5b6000612ea185828601612d11565b9250506020612eb285828601612e67565b9150509250929050565b600080fd5b600080fd5b7f4e487b7100000000000000000000000000000000000000000000000000000000600052604160045260246000fd5b612efe82612bcf565b810181811067ffffffffffffffff82111715612f1d57612f1c612ec6565b5b80604052505050565b6000612f30612ab1565b9050612f3c8282612ef5565b919050565b600067ffffffffffffffff821115612f5c57612f5b612ec6565b5b612f6582612bcf565b9050602081019050919050565b82818337600083830152505050565b6000612f94612f8f84612f41565b612f26565b905082815260208101848484011115612fb057612faf612ec1565b5b612fbb848285612f72565b509392505050565b600082601f830112612fd857612fd7612ebc565b5b8135612fe8848260208601612f81565b91505092915050565b60006020828403121561300757613006612abb565b5b600082013567ffffffffffffffff81111561302557613024612ac0565b5b61303184828501612fc3565b91505092915050565b600067ffffffffffffffff82111561305557613054612ec6565b5b61305e82612bcf565b9050602081019050919050565b600061307e6130798461303a565b612f26565b90508281526020810184848401111561309a57613099612ec1565b5b6130a5848285612f72565b509392505050565b600082601f8301126130c2576130c1612ebc565b5b81356130d284826020860161306b565b91505092915050565b600080600080608085870312156130f5576130f4612abb565b5b600061310387828801612d11565b945050602061311487828801612d11565b935050604061312587828801612c5c565b925050606085013567ffffffffffffffff81111561314657613145612ac0565b5b613152878288016130ad565b91505092959194509250565b6000806040838503121561317557613174612abb565b5b600061318385828601612d11565b925050602061319485828601612d11565b9150509250929050565b6000602082840312156131b4576131b3612abb565b5b60006131c284828501612e67565b91505092915050565b7f4e487b7100000000000000000000000000000000000000000000000000000000600052602260045260246000fd5b6000600282049050600182168061321257607f821691505b602082108103613225576132246131cb565b5b50919050565b7f4d696e74696e67206973206e6f7420656e61626c656400000000000000000000600082015250565b6000613261601683612b8b565b915061326c8261322b565b602082019050919050565b6000602082019050818103600083015261329081613254565b9050919050565b7f4e487b7100000000000000000000000000000000000000000000000000000000600052601160045260246000fd5b60006132d182612c3b565b91506132dc83612c3b565b9250827fffffffffffffffffffffffffffffffffffffffffffffffffffffffffffffffff0382111561331157613310613297565b5b828201905092915050565b7f43616e6e6f74206d696e74206d6f7265207468616e206d617820737570706c79600082015250565b6000613352602083612b8b565b915061335d8261331c565b602082019050919050565b6000602082019050818103600083015261338181613345565b9050919050565b600061339382612c3b565b915061339e83612c3b565b9250817fffffffffffffffffffffffffffffffffffffffffffffffffffffffffffffffff04831182151516156133d7576133d6613297565b5b828202905092915050565b7f4e6f7420656e6f756768204554482073656e743b20636865636b20707269636560008201527f2100000000000000000000000000000000000000000000000000000000000000602082015250565b600061343e602183612b8b565b9150613449826133e2565b604082019050919050565b6000602082019050818103600083015261346d81613431565b9050919050565b60006040820190506134896000830185612cd0565b6134966020830184612d66565b9392505050565b60006040820190506134b26000830185612cd0565b6134bf6020830184612cd0565b9392505050565b6000815190506134d581612e50565b92915050565b6000602082840312156134f1576134f0612abb565b5b60006134ff848285016134c6565b91505092915050565b7f4f6e6c792074686520457175697020736d61727420636f6e747261637420636160008201527f6e206d696e740000000000000000000000000000000000000000000000000000602082015250565b6000613564602683612b8b565b915061356f82613508565b604082019050919050565b6000602082019050818103600083015261359381613557565b9050919050565b7f4552433732314d657461646174613a2055524920717565727920666f72206e6f60008201527f6e6578697374656e7420746f6b656e0000000000000000000000000000000000602082015250565b60006135f6602f83612b8b565b91506136018261359a565b604082019050919050565b60006020820190508181036000830152613625816135e9565b9050919050565b600081905092915050565b600061364282612b80565b61364c818561362c565b935061365c818560208601612b9c565b80840191505092915050565b60008190508160005260206000209050919050565b6000815461368a816131fa565b613694818661362c565b945060018216600081146136af57600181146136c0576136f3565b60ff198316865281860193506136f3565b6136c985613668565b60005b838110156136eb578154818901526001820191506020810190506136cc565b838801955050505b50505092915050565b60006137088286613637565b91506137148285613637565b9150613720828461367d565b9150819050949350505050565b7f4f776e61626c653a206e6577206f776e657220697320746865207a65726f206160008201527f6464726573730000000000000000000000000000000000000000000000000000602082015250565b6000613789602683612b8b565b91506137948261372d565b604082019050919050565b600060208201905081810360008301526137b88161377c565b9050919050565b7f4f776e61626c653a2063616c6c6572206973206e6f7420746865206f776e6572600082015250565b60006137f5602083612b8b565b9150613800826137bf565b602082019050919050565b60006020820190508181036000830152613824816137e8565b9050919050565b7f4e487b7100000000000000000000000000000000000000000000000000000000600052601260045260246000fd5b600081519050919050565b600082825260208201905092915050565b60006138818261385a565b61388b8185613865565b935061389b818560208601612b9c565b6138a481612bcf565b840191505092915050565b60006080820190506138c46000830187612cd0565b6138d16020830186612cd0565b6138de6040830185612d66565b81810360608301526138f08184613876565b905095945050505050565b60008151905061390a81612af1565b92915050565b60006020828403121561392657613925612abb565b5b6000613934848285016138fb565b9150509291505056fea264697066735822122065c5bf66d48402cc934368979ba6aaae06cbe0c1cd364fe885d5806d9705922564736f6c634300080d0033697066733a2f2f516d5743467176475857595337755153757367527a4e7466324472756f6837596a74456b6e584553505a565641722f697066733a2f2f516d625555566e7a7655455759615048555a5273314a5857324e5a4c44386f686e5678316e7a4e56707a455877702f",
  "linkReferences": {},
  "deployedLinkReferences": {}
}