{
  "_format": "hh-sol-artifact-1",
  "contractName": "NftSneakerX",
  "sourceName": "src/backend/contracts/NftSneakerX.sol",
  "abi": [
    {
      "inputs": [],
      "stateMutability": "nonpayable",
      "type": "constructor"
    },
    {
      "inputs": [],
      "name": "ApprovalCallerNotOwnerNorApproved",
      "type": "error"
    },
    {
      "inputs": [],
      "name": "ApprovalQueryForNonexistentToken",
      "type": "error"
    },
    {
      "inputs": [],
      "name": "ApproveToCaller",
      "type": "error"
    },
    {
      "inputs": [],
      "name": "BalanceQueryForZeroAddress",
      "type": "error"
    },
    {
      "inputs": [],
      "name": "MintERC2309QuantityExceedsLimit",
      "type": "error"
    },
    {
      "inputs": [],
      "name": "MintToZeroAddress",
      "type": "error"
    },
    {
      "inputs": [],
      "name": "MintZeroQuantity",
      "type": "error"
    },
    {
      "inputs": [
        {
          "internalType": "address",
          "name": "operator",
          "type": "address"
        }
      ],
      "name": "OperatorNotAllowed",
      "type": "error"
    },
    {
      "inputs": [],
      "name": "OwnerQueryForNonexistentToken",
      "type": "error"
    },
    {
      "inputs": [],
      "name": "OwnershipNotInitializedForExtraData",
      "type": "error"
    },
    {
      "inputs": [],
      "name": "TransferCallerNotOwnerNorApproved",
      "type": "error"
    },
    {
      "inputs": [],
      "name": "TransferFromIncorrectOwner",
      "type": "error"
    },
    {
      "inputs": [],
      "name": "TransferToNonERC721ReceiverImplementer",
      "type": "error"
    },
    {
      "inputs": [],
      "name": "TransferToZeroAddress",
      "type": "error"
    },
    {
      "inputs": [],
      "name": "URIQueryForNonexistentToken",
      "type": "error"
    },
    {
      "anonymous": false,
      "inputs": [
        {
          "indexed": true,
          "internalType": "address",
          "name": "owner",
          "type": "address"
        },
        {
          "indexed": true,
          "internalType": "address",
          "name": "approved",
          "type": "address"
        },
        {
          "indexed": true,
          "internalType": "uint256",
          "name": "tokenId",
          "type": "uint256"
        }
      ],
      "name": "Approval",
      "type": "event"
    },
    {
      "anonymous": false,
      "inputs": [
        {
          "indexed": true,
          "internalType": "address",
          "name": "owner",
          "type": "address"
        },
        {
          "indexed": true,
          "internalType": "address",
          "name": "operator",
          "type": "address"
        },
        {
          "indexed": false,
          "internalType": "bool",
          "name": "approved",
          "type": "bool"
        }
      ],
      "name": "ApprovalForAll",
      "type": "event"
    },
    {
      "anonymous": false,
      "inputs": [
        {
          "indexed": true,
          "internalType": "uint256",
          "name": "fromTokenId",
          "type": "uint256"
        },
        {
          "indexed": false,
          "internalType": "uint256",
          "name": "toTokenId",
          "type": "uint256"
        },
        {
          "indexed": true,
          "internalType": "address",
          "name": "from",
          "type": "address"
        },
        {
          "indexed": true,
          "internalType": "address",
          "name": "to",
          "type": "address"
        }
      ],
      "name": "ConsecutiveTransfer",
      "type": "event"
    },
    {
      "anonymous": false,
      "inputs": [
        {
          "indexed": false,
          "internalType": "address",
          "name": "user",
          "type": "address"
        },
        {
          "indexed": false,
          "internalType": "uint256",
          "name": "metadata",
          "type": "uint256"
        }
      ],
      "name": "MintSuccessful",
      "type": "event"
    },
    {
      "anonymous": false,
      "inputs": [
        {
          "indexed": true,
          "internalType": "address",
          "name": "previousOwner",
          "type": "address"
        },
        {
          "indexed": true,
          "internalType": "address",
          "name": "newOwner",
          "type": "address"
        }
      ],
      "name": "OwnershipTransferred",
      "type": "event"
    },
    {
      "anonymous": false,
      "inputs": [
        {
          "indexed": true,
          "internalType": "address",
          "name": "from",
          "type": "address"
        },
        {
          "indexed": true,
          "internalType": "address",
          "name": "to",
          "type": "address"
        },
        {
          "indexed": true,
          "internalType": "uint256",
          "name": "tokenId",
          "type": "uint256"
        }
      ],
      "name": "Transfer",
      "type": "event"
    },
    {
      "inputs": [
        {
          "internalType": "address",
          "name": "to",
          "type": "address"
        },
        {
          "internalType": "uint256",
          "name": "tokenId",
          "type": "uint256"
        }
      ],
      "name": "approve",
      "outputs": [],
      "stateMutability": "nonpayable",
      "type": "function"
    },
    {
      "inputs": [
        {
          "internalType": "address",
          "name": "owner",
          "type": "address"
        }
      ],
      "name": "balanceOf",
      "outputs": [
        {
          "internalType": "uint256",
          "name": "",
          "type": "uint256"
        }
      ],
      "stateMutability": "view",
      "type": "function"
    },
    {
      "inputs": [],
      "name": "baseTokenURI",
      "outputs": [
        {
          "internalType": "string",
          "name": "",
          "type": "string"
        }
      ],
      "stateMutability": "pure",
      "type": "function"
    },
    {
      "inputs": [],
      "name": "burnAmount",
      "outputs": [
        {
          "internalType": "uint256",
          "name": "",
          "type": "uint256"
        }
      ],
      "stateMutability": "view",
      "type": "function"
    },
    {
      "inputs": [],
      "name": "contractURI",
      "outputs": [
        {
          "internalType": "string",
          "name": "",
          "type": "string"
        }
      ],
      "stateMutability": "pure",
      "type": "function"
    },
    {
      "inputs": [
        {
          "internalType": "uint256",
          "name": "tokenId",
          "type": "uint256"
        }
      ],
      "name": "getApproved",
      "outputs": [
        {
          "internalType": "address",
          "name": "",
          "type": "address"
        }
      ],
      "stateMutability": "view",
      "type": "function"
    },
    {
      "inputs": [],
      "name": "getPrice",
      "outputs": [
        {
          "internalType": "uint256",
          "name": "",
          "type": "uint256"
        }
      ],
      "stateMutability": "view",
      "type": "function"
    },
    {
      "inputs": [
        {
          "internalType": "uint256",
          "name": "",
          "type": "uint256"
        }
      ],
      "name": "idToMetadata",
      "outputs": [
        {
          "internalType": "uint256",
          "name": "",
          "type": "uint256"
        }
      ],
      "stateMutability": "view",
      "type": "function"
    },
    {
      "inputs": [
        {
          "internalType": "address",
          "name": "owner",
          "type": "address"
        },
        {
          "internalType": "address",
          "name": "operator",
          "type": "address"
        }
      ],
      "name": "isApprovedForAll",
      "outputs": [
        {
          "internalType": "bool",
          "name": "",
          "type": "bool"
        }
      ],
      "stateMutability": "view",
      "type": "function"
    },
    {
      "inputs": [],
      "name": "max_supply",
      "outputs": [
        {
          "internalType": "uint256",
          "name": "",
          "type": "uint256"
        }
      ],
      "stateMutability": "view",
      "type": "function"
    },
    {
      "inputs": [
        {
          "internalType": "uint256",
          "name": "quantity",
          "type": "uint256"
        },
        {
          "internalType": "uint256",
          "name": "_metadataId",
          "type": "uint256"
        }
      ],
      "name": "mint",
      "outputs": [],
      "stateMutability": "payable",
      "type": "function"
    },
    {
      "inputs": [],
      "name": "mintEnabled",
      "outputs": [
        {
          "internalType": "bool",
          "name": "",
          "type": "bool"
        }
      ],
      "stateMutability": "view",
      "type": "function"
    },
    {
      "inputs": [
        {
          "internalType": "address",
          "name": "_user",
          "type": "address"
        },
        {
          "internalType": "uint256",
          "name": "_metadataId",
          "type": "uint256"
        }
      ],
      "name": "mintFromEquip",
      "outputs": [],
      "stateMutability": "nonpayable",
      "type": "function"
    },
    {
      "inputs": [],
      "name": "name",
      "outputs": [
        {
          "internalType": "string",
          "name": "",
          "type": "string"
        }
      ],
      "stateMutability": "view",
      "type": "function"
    },
    {
      "inputs": [],
      "name": "owner",
      "outputs": [
        {
          "internalType": "address",
          "name": "",
          "type": "address"
        }
      ],
      "stateMutability": "view",
      "type": "function"
    },
    {
      "inputs": [
        {
          "internalType": "uint256",
          "name": "tokenId",
          "type": "uint256"
        }
      ],
      "name": "ownerOf",
      "outputs": [
        {
          "internalType": "address",
          "name": "",
          "type": "address"
        }
      ],
      "stateMutability": "view",
      "type": "function"
    },
    {
      "inputs": [],
      "name": "price",
      "outputs": [
        {
          "internalType": "uint256",
          "name": "",
          "type": "uint256"
        }
      ],
      "stateMutability": "view",
      "type": "function"
    },
    {
      "inputs": [],
      "name": "renounceOwnership",
      "outputs": [],
      "stateMutability": "nonpayable",
      "type": "function"
    },
    {
      "inputs": [
        {
          "internalType": "address",
          "name": "from",
          "type": "address"
        },
        {
          "internalType": "address",
          "name": "to",
          "type": "address"
        },
        {
          "internalType": "uint256",
          "name": "tokenId",
          "type": "uint256"
        }
      ],
      "name": "safeTransferFrom",
      "outputs": [],
      "stateMutability": "nonpayable",
      "type": "function"
    },
    {
      "inputs": [
        {
          "internalType": "address",
          "name": "from",
          "type": "address"
        },
        {
          "internalType": "address",
          "name": "to",
          "type": "address"
        },
        {
          "internalType": "uint256",
          "name": "tokenId",
          "type": "uint256"
        },
        {
          "internalType": "bytes",
          "name": "data",
          "type": "bytes"
        }
      ],
      "name": "safeTransferFrom",
      "outputs": [],
      "stateMutability": "nonpayable",
      "type": "function"
    },
    {
      "inputs": [
        {
          "internalType": "address",
          "name": "operator",
          "type": "address"
        },
        {
          "internalType": "bool",
          "name": "approved",
          "type": "bool"
        }
      ],
      "name": "setApprovalForAll",
      "outputs": [],
      "stateMutability": "nonpayable",
      "type": "function"
    },
    {
      "inputs": [
        {
          "internalType": "address",
          "name": "_equipAddress",
          "type": "address"
        }
      ],
      "name": "setEquipAddress",
      "outputs": [],
      "stateMutability": "nonpayable",
      "type": "function"
    },
    {
      "inputs": [
        {
          "internalType": "bool",
          "name": "_state",
          "type": "bool"
        }
      ],
      "name": "setMintEnabled",
      "outputs": [],
      "stateMutability": "nonpayable",
      "type": "function"
    },
    {
      "inputs": [
        {
          "internalType": "uint256",
          "name": "_price",
          "type": "uint256"
        }
      ],
      "name": "setPrice",
      "outputs": [],
      "stateMutability": "nonpayable",
      "type": "function"
    },
    {
      "inputs": [
        {
          "internalType": "bytes4",
          "name": "interfaceId",
          "type": "bytes4"
        }
      ],
      "name": "supportsInterface",
      "outputs": [
        {
          "internalType": "bool",
          "name": "",
          "type": "bool"
        }
      ],
      "stateMutability": "view",
      "type": "function"
    },
    {
      "inputs": [],
      "name": "symbol",
      "outputs": [
        {
          "internalType": "string",
          "name": "",
          "type": "string"
        }
      ],
      "stateMutability": "view",
      "type": "function"
    },
    {
      "inputs": [
        {
          "internalType": "uint256",
          "name": "_tokenId",
          "type": "uint256"
        }
      ],
      "name": "tokenURI",
      "outputs": [
        {
          "internalType": "string",
          "name": "",
          "type": "string"
        }
      ],
      "stateMutability": "view",
      "type": "function"
    },
    {
      "inputs": [],
      "name": "totalSupply",
      "outputs": [
        {
          "internalType": "uint256",
          "name": "",
          "type": "uint256"
        }
      ],
      "stateMutability": "view",
      "type": "function"
    },
    {
      "inputs": [
        {
          "internalType": "address",
          "name": "from",
          "type": "address"
        },
        {
          "internalType": "address",
          "name": "to",
          "type": "address"
        },
        {
          "internalType": "uint256",
          "name": "tokenId",
          "type": "uint256"
        }
      ],
      "name": "transferFrom",
      "outputs": [],
      "stateMutability": "nonpayable",
      "type": "function"
    },
    {
      "inputs": [
        {
          "internalType": "address",
          "name": "newOwner",
          "type": "address"
        }
      ],
      "name": "transferOwnership",
      "outputs": [],
      "stateMutability": "nonpayable",
      "type": "function"
    },
    {
      "inputs": [],
      "name": "uriPrefix",
      "outputs": [
        {
          "internalType": "string",
          "name": "",
          "type": "string"
        }
      ],
      "stateMutability": "view",
      "type": "function"
    },
    {
      "inputs": [],
      "name": "uriSuffix",
      "outputs": [
        {
          "internalType": "string",
          "name": "",
          "type": "string"
        }
      ],
      "stateMutability": "view",
      "type": "function"
    },
    {
      "inputs": [],
      "name": "withdraw",
      "outputs": [],
      "stateMutability": "nonpayable",
      "type": "function"
    }
  ],
  "bytecode": "0x608060405260405180602001604052806000815250600a90805190602001906200002b92919062000451565b506040518060400160405280600581526020017f2e6a736f6e000000000000000000000000000000000000000000000000000000815250600b90805190602001906200007992919062000451565b506064600c556000600f553480156200009157600080fd5b50733cc6cdda760b79bafa08df41ecfa224f810dceb660016040518060400160405280600981526020017f536e65616b6572205800000000000000000000000000000000000000000000008152506040518060400160405280600281526020017f535800000000000000000000000000000000000000000000000000000000000081525062000135620001296200037c60201b60201c565b6200038460201b60201c565b81600390805190602001906200014d92919062000451565b5080600490805190602001906200016692919062000451565b50620001776200044860201b60201c565b600181905550505060006daaeb6d7670e522a718067333cd4e73ffffffffffffffffffffffffffffffffffffffff163b1115620003745780156200023a576daaeb6d7670e522a718067333cd4e73ffffffffffffffffffffffffffffffffffffffff16637d3e3dbe30846040518363ffffffff1660e01b81526004016200020092919062000546565b600060405180830381600087803b1580156200021b57600080fd5b505af115801562000230573d6000803e3d6000fd5b5050505062000373565b600073ffffffffffffffffffffffffffffffffffffffff168273ffffffffffffffffffffffffffffffffffffffff1614620002f4576daaeb6d7670e522a718067333cd4e73ffffffffffffffffffffffffffffffffffffffff1663a0af290330846040518363ffffffff1660e01b8152600401620002ba92919062000546565b600060405180830381600087803b158015620002d557600080fd5b505af1158015620002ea573d6000803e3d6000fd5b5050505062000372565b6daaeb6d7670e522a718067333cd4e73ffffffffffffffffffffffffffffffffffffffff16634420e486306040518263ffffffff1660e01b81526004016200033d919062000573565b600060405180830381600087803b1580156200035857600080fd5b505af11580156200036d573d6000803e3d6000fd5b505050505b5b5b5050620005f4565b600033905090565b60008060009054906101000a900473ffffffffffffffffffffffffffffffffffffffff169050816000806101000a81548173ffffffffffffffffffffffffffffffffffffffff021916908373ffffffffffffffffffffffffffffffffffffffff1602179055508173ffffffffffffffffffffffffffffffffffffffff168173ffffffffffffffffffffffffffffffffffffffff167f8be0079c531659141344cd1fd0a4f28419497f9722a3daafe3b4186f6b6457e060405160405180910390a35050565b60006001905090565b8280546200045f90620005bf565b90600052602060002090601f016020900481019282620004835760008555620004cf565b82601f106200049e57805160ff1916838001178555620004cf565b82800160010185558215620004cf579182015b82811115620004ce578251825591602001919060010190620004b1565b5b509050620004de9190620004e2565b5090565b5b80821115620004fd576000816000905550600101620004e3565b5090565b600073ffffffffffffffffffffffffffffffffffffffff82169050919050565b60006200052e8262000501565b9050919050565b620005408162000521565b82525050565b60006040820190506200055d600083018562000535565b6200056c602083018462000535565b9392505050565b60006020820190506200058a600083018462000535565b92915050565b7f4e487b7100000000000000000000000000000000000000000000000000000000600052602260045260246000fd5b60006002820490506001821680620005d857607f821691505b602082108103620005ee57620005ed62000590565b5b50919050565b6134f480620006046000396000f3fe6080604052600436106101ee5760003560e01c80638da5cb5b1161010d578063b88d4fde116100a0578063e8a3d4851161006f578063e8a3d485146106ba578063e985e9c5146106e5578063f2fde38b14610722578063f307101a1461074b578063f46a04eb14610788576101ee565b8063b88d4fde146105fe578063c87b56dd14610627578063d123973014610664578063d547cfb71461068f576101ee565b8063a035b1fe116100dc578063a035b1fe14610558578063a22cb46514610583578063afa20f54146105ac578063b8829a4c146105d5576101ee565b80638da5cb5b146104ae57806391b7f5ed146104d957806395d89b411461050257806398d5fdca1461052d576101ee565b806342842e0e116101855780636352211e116101545780636352211e146103f257806370a082311461042f578063715018a61461046c5780638a333b5014610483576101ee565b806342842e0e14610348578063486a7e6b146103715780635503a0e81461039c57806362b99ad4146103c7576101ee565b806318160ddd116101c157806318160ddd146102c15780631b2ef1ca146102ec57806323b872dd146103085780633ccfd60b14610331576101ee565b806301ffc9a7146101f357806306fdde0314610230578063081812fc1461025b578063095ea7b314610298575b600080fd5b3480156101ff57600080fd5b5061021a6004803603810190610215919061271c565b6107b1565b6040516102279190612764565b60405180910390f35b34801561023c57600080fd5b50610245610843565b6040516102529190612818565b60405180910390f35b34801561026757600080fd5b50610282600480360381019061027d9190612870565b6108d5565b60405161028f91906128de565b60405180910390f35b3480156102a457600080fd5b506102bf60048036038101906102ba9190612925565b610954565b005b3480156102cd57600080fd5b506102d6610a98565b6040516102e39190612974565b60405180910390f35b6103066004803603810190610301919061298f565b610aaf565b005b34801561031457600080fd5b5061032f600480360381019061032a91906129cf565b610bf0565b005b34801561033d57600080fd5b50610346610dd2565b005b34801561035457600080fd5b5061036f600480360381019061036a91906129cf565b610e23565b005b34801561037d57600080fd5b50610386611005565b6040516103939190612974565b60405180910390f35b3480156103a857600080fd5b506103b161100b565b6040516103be9190612818565b60405180910390f35b3480156103d357600080fd5b506103dc611099565b6040516103e99190612818565b60405180910390f35b3480156103fe57600080fd5b5061041960048036038101906104149190612870565b611127565b60405161042691906128de565b60405180910390f35b34801561043b57600080fd5b5061045660048036038101906104519190612a22565b611139565b6040516104639190612974565b60405180910390f35b34801561047857600080fd5b506104816111f1565b005b34801561048f57600080fd5b50610498611205565b6040516104a59190612974565b60405180910390f35b3480156104ba57600080fd5b506104c361120b565b6040516104d091906128de565b60405180910390f35b3480156104e557600080fd5b5061050060048036038101906104fb9190612870565b611234565b005b34801561050e57600080fd5b50610517611246565b6040516105249190612818565b60405180910390f35b34801561053957600080fd5b506105426112d8565b60405161054f9190612974565b60405180910390f35b34801561056457600080fd5b5061056d6112e2565b60405161057a9190612974565b60405180910390f35b34801561058f57600080fd5b506105aa60048036038101906105a59190612a7b565b6112e8565b005b3480156105b857600080fd5b506105d360048036038101906105ce9190612a22565b61145f565b005b3480156105e157600080fd5b506105fc60048036038101906105f79190612925565b6114ab565b005b34801561060a57600080fd5b5061062560048036038101906106209190612bf0565b6115fa565b005b34801561063357600080fd5b5061064e60048036038101906106499190612870565b6117df565b60405161065b9190612818565b60405180910390f35b34801561067057600080fd5b5061067961189c565b6040516106869190612764565b60405180910390f35b34801561069b57600080fd5b506106a46118af565b6040516106b19190612818565b60405180910390f35b3480156106c657600080fd5b506106cf6118be565b6040516106dc9190612818565b60405180910390f35b3480156106f157600080fd5b5061070c60048036038101906107079190612c73565b6118de565b6040516107199190612764565b60405180910390f35b34801561072e57600080fd5b5061074960048036038101906107449190612a22565b611972565b005b34801561075757600080fd5b50610772600480360381019061076d9190612870565b6119f5565b60405161077f9190612974565b60405180910390f35b34801561079457600080fd5b506107af60048036038101906107aa9190612cb3565b611a0d565b005b60006301ffc9a760e01b827bffffffffffffffffffffffffffffffffffffffffffffffffffffffff1916148061080c57506380ac58cd60e01b827bffffffffffffffffffffffffffffffffffffffffffffffffffffffff1916145b8061083c5750635b5e139f60e01b827bffffffffffffffffffffffffffffffffffffffffffffffffffffffff1916145b9050919050565b60606003805461085290612d0f565b80601f016020809104026020016040519081016040528092919081815260200182805461087e90612d0f565b80156108cb5780601f106108a0576101008083540402835291602001916108cb565b820191906000526020600020905b8154815290600101906020018083116108ae57829003601f168201915b5050505050905090565b60006108e082611a32565b610916576040517fcf4700e400000000000000000000000000000000000000000000000000000000815260040160405180910390fd5b6007600083815260200190815260200160002060000160009054906101000a900473ffffffffffffffffffffffffffffffffffffffff169050919050565b600061095f82611127565b90508073ffffffffffffffffffffffffffffffffffffffff16610980611a91565b73ffffffffffffffffffffffffffffffffffffffff16146109e3576109ac816109a7611a91565b6118de565b6109e2576040517fcfb3b94200000000000000000000000000000000000000000000000000000000815260040160405180910390fd5b5b826007600084815260200190815260200160002060000160006101000a81548173ffffffffffffffffffffffffffffffffffffffff021916908373ffffffffffffffffffffffffffffffffffffffff160217905550818373ffffffffffffffffffffffffffffffffffffffff168273ffffffffffffffffffffffffffffffffffffffff167f8c5be1e5ebec7d5bd14f71427d1e84f3dd0314c0f7b2291e5b200ac8c7c3b92560405160405180910390a4505050565b6000610aa2611a99565b6002546001540303905090565b600e60009054906101000a900460ff16610afe576040517f08c379a0000000000000000000000000000000000000000000000000000000008152600401610af590612d8c565b60405180910390fd5b600c5482610b0a611aa2565b610b149190612ddb565b10610b54576040517f08c379a0000000000000000000000000000000000000000000000000000000008152600401610b4b90612e7d565b60405180910390fd5b81610b5d6112d8565b610b679190612e9d565b341015610ba9576040517f08c379a0000000000000000000000000000000000000000000000000000000008152600401610ba090612f69565b60405180910390fd5b610bb33383611ab5565b7f76020ece75bf679c701e656fcffc7e3df8354859b3b0eb7fee42b1378023bb313382604051610be4929190612f89565b60405180910390a15050565b8260006daaeb6d7670e522a718067333cd4e73ffffffffffffffffffffffffffffffffffffffff163b1115610dc0573373ffffffffffffffffffffffffffffffffffffffff168173ffffffffffffffffffffffffffffffffffffffff1603610c6257610c5d848484611c71565b610dcc565b6daaeb6d7670e522a718067333cd4e73ffffffffffffffffffffffffffffffffffffffff1663c617113430336040518363ffffffff1660e01b8152600401610cab929190612fb2565b602060405180830381865afa158015610cc8573d6000803e3d6000fd5b505050506040513d601f19601f82011682018060405250810190610cec9190612ff0565b8015610d7e57506daaeb6d7670e522a718067333cd4e73ffffffffffffffffffffffffffffffffffffffff1663c617113430836040518363ffffffff1660e01b8152600401610d3c929190612fb2565b602060405180830381865afa158015610d59573d6000803e3d6000fd5b505050506040513d601f19601f82011682018060405250810190610d7d9190612ff0565b5b610dbf57336040517fede71dcc000000000000000000000000000000000000000000000000000000008152600401610db691906128de565b60405180910390fd5b5b610dcb848484611c71565b5b50505050565b610dda611f93565b3373ffffffffffffffffffffffffffffffffffffffff166108fc479081150290604051600060405180830381858888f19350505050158015610e20573d6000803e3d6000fd5b50565b8260006daaeb6d7670e522a718067333cd4e73ffffffffffffffffffffffffffffffffffffffff163b1115610ff3573373ffffffffffffffffffffffffffffffffffffffff168173ffffffffffffffffffffffffffffffffffffffff1603610e9557610e90848484612011565b610fff565b6daaeb6d7670e522a718067333cd4e73ffffffffffffffffffffffffffffffffffffffff1663c617113430336040518363ffffffff1660e01b8152600401610ede929190612fb2565b602060405180830381865afa158015610efb573d6000803e3d6000fd5b505050506040513d601f19601f82011682018060405250810190610f1f9190612ff0565b8015610fb157506daaeb6d7670e522a718067333cd4e73ffffffffffffffffffffffffffffffffffffffff1663c617113430836040518363ffffffff1660e01b8152600401610f6f929190612fb2565b602060405180830381865afa158015610f8c573d6000803e3d6000fd5b505050506040513d601f19601f82011682018060405250810190610fb09190612ff0565b5b610ff257336040517fede71dcc000000000000000000000000000000000000000000000000000000008152600401610fe991906128de565b60405180910390fd5b5b610ffe848484612011565b5b50505050565b600d5481565b600b805461101890612d0f565b80601f016020809104026020016040519081016040528092919081815260200182805461104490612d0f565b80156110915780601f1061106657610100808354040283529160200191611091565b820191906000526020600020905b81548152906001019060200180831161107457829003601f168201915b505050505081565b600a80546110a690612d0f565b80601f01602080910402602001604051908101604052809291908181526020018280546110d290612d0f565b801561111f5780601f106110f45761010080835404028352916020019161111f565b820191906000526020600020905b81548152906001019060200180831161110257829003601f168201915b505050505081565b600061113282612031565b9050919050565b60008073ffffffffffffffffffffffffffffffffffffffff168273ffffffffffffffffffffffffffffffffffffffff16036111a0576040517f8f4eb60400000000000000000000000000000000000000000000000000000000815260040160405180910390fd5b67ffffffffffffffff600660008473ffffffffffffffffffffffffffffffffffffffff1673ffffffffffffffffffffffffffffffffffffffff16815260200190815260200160002054169050919050565b6111f9611f93565b61120360006120fd565b565b600c5481565b60008060009054906101000a900473ffffffffffffffffffffffffffffffffffffffff16905090565b61123c611f93565b80600f8190555050565b60606004805461125590612d0f565b80601f016020809104026020016040519081016040528092919081815260200182805461128190612d0f565b80156112ce5780601f106112a3576101008083540402835291602001916112ce565b820191906000526020600020905b8154815290600101906020018083116112b157829003601f168201915b5050505050905090565b6000600f54905090565b600f5481565b6112f0611a91565b73ffffffffffffffffffffffffffffffffffffffff168273ffffffffffffffffffffffffffffffffffffffff1603611354576040517fb06307db00000000000000000000000000000000000000000000000000000000815260040160405180910390fd5b8060086000611361611a91565b73ffffffffffffffffffffffffffffffffffffffff1673ffffffffffffffffffffffffffffffffffffffff16815260200190815260200160002060008473ffffffffffffffffffffffffffffffffffffffff1673ffffffffffffffffffffffffffffffffffffffff16815260200190815260200160002060006101000a81548160ff0219169083151502179055508173ffffffffffffffffffffffffffffffffffffffff1661140e611a91565b73ffffffffffffffffffffffffffffffffffffffff167f17307eab39ab6107e8899845ad3d59bd9653f200f220920489ca2b5937696c31836040516114539190612764565b60405180910390a35050565b611467611f93565b80600960006101000a81548173ffffffffffffffffffffffffffffffffffffffff021916908373ffffffffffffffffffffffffffffffffffffffff16021790555050565b600960009054906101000a900473ffffffffffffffffffffffffffffffffffffffff1673ffffffffffffffffffffffffffffffffffffffff163373ffffffffffffffffffffffffffffffffffffffff161461153b576040517f08c379a00000000000000000000000000000000000000000000000000000000081526004016115329061308f565b60405180910390fd5b600c546001611548611aa2565b6115529190612ddb565b1115611593576040517f08c379a000000000000000000000000000000000000000000000000000000000815260040161158a90612e7d565b60405180910390fd5b61159e826001611ab5565b80601060006115ab611aa2565b8152602001908152602001600020819055507f76020ece75bf679c701e656fcffc7e3df8354859b3b0eb7fee42b1378023bb3133826040516115ee929190612f89565b60405180910390a15050565b8360006daaeb6d7670e522a718067333cd4e73ffffffffffffffffffffffffffffffffffffffff163b11156117cb573373ffffffffffffffffffffffffffffffffffffffff168173ffffffffffffffffffffffffffffffffffffffff160361166d57611668858585856121c1565b6117d8565b6daaeb6d7670e522a718067333cd4e73ffffffffffffffffffffffffffffffffffffffff1663c617113430336040518363ffffffff1660e01b81526004016116b6929190612fb2565b602060405180830381865afa1580156116d3573d6000803e3d6000fd5b505050506040513d601f19601f820116820180604052508101906116f79190612ff0565b801561178957506daaeb6d7670e522a718067333cd4e73ffffffffffffffffffffffffffffffffffffffff1663c617113430836040518363ffffffff1660e01b8152600401611747929190612fb2565b602060405180830381865afa158015611764573d6000803e3d6000fd5b505050506040513d601f19601f820116820180604052508101906117889190612ff0565b5b6117ca57336040517fede71dcc0000000000000000000000000000000000000000000000000000000081526004016117c191906128de565b60405180910390fd5b5b6117d7858585856121c1565b5b5050505050565b60606117ea82611a32565b611829576040517f08c379a000000000000000000000000000000000000000000000000000000000815260040161182090613121565b60405180910390fd5b6000611833612234565b905060008151116118535760405180602001604052806000815250611894565b806118706010600086815260200190815260200160002054612254565b600b60405160200161188493929190613211565b6040516020818303038152906040525b915050919050565b600e60009054906101000a900460ff1681565b60606118b9612234565b905090565b606060405180606001604052806036815260200161345360369139905090565b6000600860008473ffffffffffffffffffffffffffffffffffffffff1673ffffffffffffffffffffffffffffffffffffffff16815260200190815260200160002060008373ffffffffffffffffffffffffffffffffffffffff1673ffffffffffffffffffffffffffffffffffffffff16815260200190815260200160002060009054906101000a900460ff16905092915050565b61197a611f93565b600073ffffffffffffffffffffffffffffffffffffffff168173ffffffffffffffffffffffffffffffffffffffff16036119e9576040517f08c379a00000000000000000000000000000000000000000000000000000000081526004016119e0906132b4565b60405180910390fd5b6119f2816120fd565b50565b60106020528060005260406000206000915090505481565b611a15611f93565b80600e60006101000a81548160ff02191690831515021790555050565b600081611a3d611a99565b11158015611a4c575060015482105b8015611a8a575060007c0100000000000000000000000000000000000000000000000000000000600560008581526020019081526020016000205416145b9050919050565b600033905090565b60006001905090565b6000611aac611a99565b60015403905090565b6000600154905060008203611af6576040517fb562e8dd00000000000000000000000000000000000000000000000000000000815260040160405180910390fd5b611b036000848385612322565b600160406001901b178202600660008573ffffffffffffffffffffffffffffffffffffffff1673ffffffffffffffffffffffffffffffffffffffff16815260200190815260200160002060008282540192505081905550611b7a83611b6b6000866000612328565b611b7485612350565b17612360565b6005600083815260200190815260200160002081905550600080838301905073ffffffffffffffffffffffffffffffffffffffff85169150828260007fddf252ad1be2c89b69c2b068fc378daa952ba7f163c4a11628f55a4df523b3ef600080a4600183015b818114611c1b57808360007fddf252ad1be2c89b69c2b068fc378daa952ba7f163c4a11628f55a4df523b3ef600080a4600181019050611be0565b5060008203611c56576040517f2e07630000000000000000000000000000000000000000000000000000000000815260040160405180910390fd5b806001819055505050611c6c600084838561238b565b505050565b6000611c7c82612031565b90508373ffffffffffffffffffffffffffffffffffffffff168173ffffffffffffffffffffffffffffffffffffffff1614611ce3576040517fa114810000000000000000000000000000000000000000000000000000000000815260040160405180910390fd5b600080611cef84612391565b91509150611d058187611d00611a91565b6123b8565b611d5157611d1a86611d15611a91565b6118de565b611d50576040517f59c896be00000000000000000000000000000000000000000000000000000000815260040160405180910390fd5b5b600073ffffffffffffffffffffffffffffffffffffffff168573ffffffffffffffffffffffffffffffffffffffff1603611db7576040517fea553b3400000000000000000000000000000000000000000000000000000000815260040160405180910390fd5b611dc48686866001612322565b8015611dcf57600082555b600660008773ffffffffffffffffffffffffffffffffffffffff1673ffffffffffffffffffffffffffffffffffffffff168152602001908152602001600020600081546001900391905081905550600660008673ffffffffffffffffffffffffffffffffffffffff1673ffffffffffffffffffffffffffffffffffffffff1681526020019081526020016000206000815460010191905081905550611e9d85611e79888887612328565b7c020000000000000000000000000000000000000000000000000000000017612360565b600560008681526020019081526020016000208190555060007c0200000000000000000000000000000000000000000000000000000000841603611f235760006001850190506000600560008381526020019081526020016000205403611f21576001548114611f20578360056000838152602001908152602001600020819055505b5b505b838573ffffffffffffffffffffffffffffffffffffffff168773ffffffffffffffffffffffffffffffffffffffff167fddf252ad1be2c89b69c2b068fc378daa952ba7f163c4a11628f55a4df523b3ef60405160405180910390a4611f8b868686600161238b565b505050505050565b611f9b6123fc565b73ffffffffffffffffffffffffffffffffffffffff16611fb961120b565b73ffffffffffffffffffffffffffffffffffffffff161461200f576040517f08c379a000000000000000000000000000000000000000000000000000000000815260040161200690613320565b60405180910390fd5b565b61202c838383604051806020016040528060008152506115fa565b505050565b60008082905080612040611a99565b116120c6576001548110156120c55760006005600083815260200190815260200160002054905060007c01000000000000000000000000000000000000000000000000000000008216036120c3575b600081036120b957600560008360019003935083815260200190815260200160002054905061208f565b80925050506120f8565b505b5b6040517fdf2d9b4200000000000000000000000000000000000000000000000000000000815260040160405180910390fd5b919050565b60008060009054906101000a900473ffffffffffffffffffffffffffffffffffffffff169050816000806101000a81548173ffffffffffffffffffffffffffffffffffffffff021916908373ffffffffffffffffffffffffffffffffffffffff1602179055508173ffffffffffffffffffffffffffffffffffffffff168173ffffffffffffffffffffffffffffffffffffffff167f8be0079c531659141344cd1fd0a4f28419497f9722a3daafe3b4186f6b6457e060405160405180910390a35050565b6121cc848484610bf0565b60008373ffffffffffffffffffffffffffffffffffffffff163b1461222e576121f784848484612404565b61222d576040517fd1a57ed600000000000000000000000000000000000000000000000000000000815260040160405180910390fd5b5b50505050565b606060405180606001604052806036815260200161348960369139905090565b60606000600161226384612554565b01905060008167ffffffffffffffff81111561228257612281612ac5565b5b6040519080825280601f01601f1916602001820160405280156122b45781602001600182028036833780820191505090505b509050600082602001820190505b600115612317578080600190039150507f3031323334353637383961626364656600000000000000000000000000000000600a86061a8153600a858161230b5761230a613340565b5b049450600085036122c2575b819350505050919050565b50505050565b60008060e883901c905060e861233f8686846126a7565b62ffffff16901b9150509392505050565b60006001821460e11b9050919050565b600073ffffffffffffffffffffffffffffffffffffffff83169250814260a01b178317905092915050565b50505050565b60008060006007600085815260200190815260200160002090508092508254915050915091565b600073ffffffffffffffffffffffffffffffffffffffff8316925073ffffffffffffffffffffffffffffffffffffffff821691508382148383141790509392505050565b600033905090565b60008373ffffffffffffffffffffffffffffffffffffffff1663150b7a0261242a611a91565b8786866040518563ffffffff1660e01b815260040161244c94939291906133c4565b6020604051808303816000875af192505050801561248857506040513d601f19601f820116820180604052508101906124859190613425565b60015b612501573d80600081146124b8576040519150601f19603f3d011682016040523d82523d6000602084013e6124bd565b606091505b5060008151036124f9576040517fd1a57ed600000000000000000000000000000000000000000000000000000000815260040160405180910390fd5b805181602001fd5b63150b7a0260e01b7bffffffffffffffffffffffffffffffffffffffffffffffffffffffff1916817bffffffffffffffffffffffffffffffffffffffffffffffffffffffff191614915050949350505050565b600080600090507a184f03e93ff9f4daa797ed6e38ed64bf6a1f01000000000000000083106125b2577a184f03e93ff9f4daa797ed6e38ed64bf6a1f01000000000000000083816125a8576125a7613340565b5b0492506040810190505b6d04ee2d6d415b85acef810000000083106125ef576d04ee2d6d415b85acef810000000083816125e5576125e4613340565b5b0492506020810190505b662386f26fc10000831061261e57662386f26fc10000838161261457612613613340565b5b0492506010810190505b6305f5e1008310612647576305f5e100838161263d5761263c613340565b5b0492506008810190505b612710831061266c57612710838161266257612661613340565b5b0492506004810190505b6064831061268f576064838161268557612684613340565b5b0492506002810190505b600a831061269e576001810190505b80915050919050565b60009392505050565b6000604051905090565b600080fd5b600080fd5b60007fffffffff0000000000000000000000000000000000000000000000000000000082169050919050565b6126f9816126c4565b811461270457600080fd5b50565b600081359050612716816126f0565b92915050565b600060208284031215612732576127316126ba565b5b600061274084828501612707565b91505092915050565b60008115159050919050565b61275e81612749565b82525050565b60006020820190506127796000830184612755565b92915050565b600081519050919050565b600082825260208201905092915050565b60005b838110156127b957808201518184015260208101905061279e565b838111156127c8576000848401525b50505050565b6000601f19601f8301169050919050565b60006127ea8261277f565b6127f4818561278a565b935061280481856020860161279b565b61280d816127ce565b840191505092915050565b6000602082019050818103600083015261283281846127df565b905092915050565b6000819050919050565b61284d8161283a565b811461285857600080fd5b50565b60008135905061286a81612844565b92915050565b600060208284031215612886576128856126ba565b5b60006128948482850161285b565b91505092915050565b600073ffffffffffffffffffffffffffffffffffffffff82169050919050565b60006128c88261289d565b9050919050565b6128d8816128bd565b82525050565b60006020820190506128f360008301846128cf565b92915050565b612902816128bd565b811461290d57600080fd5b50565b60008135905061291f816128f9565b92915050565b6000806040838503121561293c5761293b6126ba565b5b600061294a85828601612910565b925050602061295b8582860161285b565b9150509250929050565b61296e8161283a565b82525050565b60006020820190506129896000830184612965565b92915050565b600080604083850312156129a6576129a56126ba565b5b60006129b48582860161285b565b92505060206129c58582860161285b565b9150509250929050565b6000806000606084860312156129e8576129e76126ba565b5b60006129f686828701612910565b9350506020612a0786828701612910565b9250506040612a188682870161285b565b9150509250925092565b600060208284031215612a3857612a376126ba565b5b6000612a4684828501612910565b91505092915050565b612a5881612749565b8114612a6357600080fd5b50565b600081359050612a7581612a4f565b92915050565b60008060408385031215612a9257612a916126ba565b5b6000612aa085828601612910565b9250506020612ab185828601612a66565b9150509250929050565b600080fd5b600080fd5b7f4e487b7100000000000000000000000000000000000000000000000000000000600052604160045260246000fd5b612afd826127ce565b810181811067ffffffffffffffff82111715612b1c57612b1b612ac5565b5b80604052505050565b6000612b2f6126b0565b9050612b3b8282612af4565b919050565b600067ffffffffffffffff821115612b5b57612b5a612ac5565b5b612b64826127ce565b9050602081019050919050565b82818337600083830152505050565b6000612b93612b8e84612b40565b612b25565b905082815260208101848484011115612baf57612bae612ac0565b5b612bba848285612b71565b509392505050565b600082601f830112612bd757612bd6612abb565b5b8135612be7848260208601612b80565b91505092915050565b60008060008060808587031215612c0a57612c096126ba565b5b6000612c1887828801612910565b9450506020612c2987828801612910565b9350506040612c3a8782880161285b565b925050606085013567ffffffffffffffff811115612c5b57612c5a6126bf565b5b612c6787828801612bc2565b91505092959194509250565b60008060408385031215612c8a57612c896126ba565b5b6000612c9885828601612910565b9250506020612ca985828601612910565b9150509250929050565b600060208284031215612cc957612cc86126ba565b5b6000612cd784828501612a66565b91505092915050565b7f4e487b7100000000000000000000000000000000000000000000000000000000600052602260045260246000fd5b60006002820490506001821680612d2757607f821691505b602082108103612d3a57612d39612ce0565b5b50919050565b7f4d696e74696e67206973206e6f7420656e61626c656400000000000000000000600082015250565b6000612d7660168361278a565b9150612d8182612d40565b602082019050919050565b60006020820190508181036000830152612da581612d69565b9050919050565b7f4e487b7100000000000000000000000000000000000000000000000000000000600052601160045260246000fd5b6000612de68261283a565b9150612df18361283a565b9250827fffffffffffffffffffffffffffffffffffffffffffffffffffffffffffffffff03821115612e2657612e25612dac565b5b828201905092915050565b7f43616e6e6f74206d696e74206d6f7265207468616e206d617820737570706c79600082015250565b6000612e6760208361278a565b9150612e7282612e31565b602082019050919050565b60006020820190508181036000830152612e9681612e5a565b9050919050565b6000612ea88261283a565b9150612eb38361283a565b9250817fffffffffffffffffffffffffffffffffffffffffffffffffffffffffffffffff0483118215151615612eec57612eeb612dac565b5b828202905092915050565b7f4e6f7420656e6f756768204554482073656e743b20636865636b20707269636560008201527f2100000000000000000000000000000000000000000000000000000000000000602082015250565b6000612f5360218361278a565b9150612f5e82612ef7565b604082019050919050565b60006020820190508181036000830152612f8281612f46565b9050919050565b6000604082019050612f9e60008301856128cf565b612fab6020830184612965565b9392505050565b6000604082019050612fc760008301856128cf565b612fd460208301846128cf565b9392505050565b600081519050612fea81612a4f565b92915050565b600060208284031215613006576130056126ba565b5b600061301484828501612fdb565b91505092915050565b7f4f6e6c792074686520457175697020736d61727420636f6e747261637420636160008201527f6e206d696e740000000000000000000000000000000000000000000000000000602082015250565b600061307960268361278a565b91506130848261301d565b604082019050919050565b600060208201905081810360008301526130a88161306c565b9050919050565b7f4552433732314d657461646174613a2055524920717565727920666f72206e6f60008201527f6e6578697374656e7420746f6b656e0000000000000000000000000000000000602082015250565b600061310b602f8361278a565b9150613116826130af565b604082019050919050565b6000602082019050818103600083015261313a816130fe565b9050919050565b600081905092915050565b60006131578261277f565b6131618185613141565b935061317181856020860161279b565b80840191505092915050565b60008190508160005260206000209050919050565b6000815461319f81612d0f565b6131a98186613141565b945060018216600081146131c457600181146131d557613208565b60ff19831686528186019350613208565b6131de8561317d565b60005b83811015613200578154818901526001820191506020810190506131e1565b838801955050505b50505092915050565b600061321d828661314c565b9150613229828561314c565b91506132358284613192565b9150819050949350505050565b7f4f776e61626c653a206e6577206f776e657220697320746865207a65726f206160008201527f6464726573730000000000000000000000000000000000000000000000000000602082015250565b600061329e60268361278a565b91506132a982613242565b604082019050919050565b600060208201905081810360008301526132cd81613291565b9050919050565b7f4f776e61626c653a2063616c6c6572206973206e6f7420746865206f776e6572600082015250565b600061330a60208361278a565b9150613315826132d4565b602082019050919050565b60006020820190508181036000830152613339816132fd565b9050919050565b7f4e487b7100000000000000000000000000000000000000000000000000000000600052601260045260246000fd5b600081519050919050565b600082825260208201905092915050565b60006133968261336f565b6133a0818561337a565b93506133b081856020860161279b565b6133b9816127ce565b840191505092915050565b60006080820190506133d960008301876128cf565b6133e660208301866128cf565b6133f36040830185612965565b8181036060830152613405818461338b565b905095945050505050565b60008151905061341f816126f0565b92915050565b60006020828403121561343b5761343a6126ba565b5b600061344984828501613410565b9150509291505056fe697066733a2f2f516d5743467176475857595337755153757367527a4e7466324472756f6837596a74456b6e584553505a565641722f697066733a2f2f516d5346453372586235576f416b31726e7a397236596a4352776f64596542567677505a6a6951433458744c364d2fa264697066735822122076cd6fc8c6e916c70bccc4c06613c4fddded203a9e7128bc54b9ffaa2a221fdb64736f6c634300080d0033",
  "linkReferences": {},
  "deployedLinkReferences": {}
}